{"abi":[{"type":"constructor","inputs":[{"name":"implementationAddress","type":"address","internalType":"address"},{"name":"owner","type":"address","internalType":"address"},{"name":"setupParams","type":"bytes","internalType":"bytes"}],"stateMutability":"nonpayable"},{"type":"fallback","stateMutability":"payable"},{"type":"receive","stateMutability":"payable"},{"type":"function","name":"CONTRACT_ID","inputs":[],"outputs":[{"name":"","type":"bytes32","internalType":"bytes32"}],"stateMutability":"view"},{"type":"function","name":"implementation","inputs":[],"outputs":[{"name":"implementation_","type":"address","internalType":"address"}],"stateMutability":"view"},{"type":"function","name":"setup","inputs":[{"name":"params","type":"bytes","internalType":"bytes"}],"outputs":[],"stateMutability":"nonpayable"},{"type":"error","name":"AlreadyInitialized","inputs":[]},{"type":"error","name":"InvalidImplementation","inputs":[]},{"type":"error","name":"InvalidOwner","inputs":[]},{"type":"error","name":"NotOwner","inputs":[]},{"type":"error","name":"SetupFailed","inputs":[]}],"bytecode":{"object":"0x608060405234801561000f575f80fd5b5060405161055538038061055583398101604081905261002e91610266565b8282826001600160a01b038216610058576040516349e27cff60e01b815260040160405180910390fd5b7fd10cce6f0e3f6dc9eb8280c32952dc6e4759d0519c550c55d0f8747d13a64bfd80846001600160a01b0316638291286c6040518163ffffffff1660e01b8152600401602060405180830381865afa1580156100b6573d5f803e3d5ffd5b505050506040513d601f19601f820116820180604052508101906100da9190610336565b146100f85760405163340aafcd60e11b815260040160405180910390fd5b837f360894a13ba1a3210667c828492db98dca3e2076cc3735a920a3ca505d382bbc55827f02016836a56b71f0d02689e69e326f4f4c1b9057164ef592671cf0d37c8040c05581515f14610209575f846001600160a01b0316639ded06df60e01b8460405160240161016a919061034d565b60408051601f198184030181529181526020820180516001600160e01b03166001600160e01b03199094169390931790925290516101a8919061037f565b5f60405180830381855af49150503d805f81146101e0576040519150601f19603f3d011682016040523d82523d5f602084013e6101e5565b606091505b5050905080610207576040516397905dfb60e01b815260040160405180910390fd5b505b5050505050505061039a565b80516001600160a01b038116811461022b575f80fd5b919050565b634e487b7160e01b5f52604160045260245ffd5b5f5b8381101561025e578181015183820152602001610246565b50505f910152565b5f805f60608486031215610278575f80fd5b61028184610215565b925061028f60208501610215565b60408501519092506001600160401b038111156102aa575f80fd5b8401601f810186136102ba575f80fd5b80516001600160401b038111156102d3576102d3610230565b604051601f8201601f19908116603f011681016001600160401b038111828210171561030157610301610230565b604052818152828201602001881015610318575f80fd5b610329826020830160208601610244565b8093505050509250925092565b5f60208284031215610346575f80fd5b5051919050565b602081525f825180602084015261036b816040850160208701610244565b601f01601f19169190910160400192915050565b5f8251610390818460208701610244565b9190910192915050565b6101ae806103a75f395ff3fe608060405260043610610037575f3560e01c80633e35487c146100895780635c60da1b146100cf5780639ded06df146101155761003e565b3661003e57005b5f6100677f360894a13ba1a3210667c828492db98dca3e2076cc3735a920a3ca505d382bbc5490565b9050365f80375f80365f845af43d5f803e808015610083573d5ff35b3d5ffd5b005b348015610094575f80fd5b506100bc7fd10cce6f0e3f6dc9eb8280c32952dc6e4759d0519c550c55d0f8747d13a64bfd81565b6040519081526020015b60405180910390f35b3480156100da575f80fd5b507f360894a13ba1a3210667c828492db98dca3e2076cc3735a920a3ca505d382bbc546040516001600160a01b0390911681526020016100c6565b348015610120575f80fd5b5061008761012f366004610133565b5050565b5f8060208385031215610144575f80fd5b823567ffffffffffffffff81111561015a575f80fd5b8301601f8101851361016a575f80fd5b803567ffffffffffffffff811115610180575f80fd5b856020828401011115610191575f80fd5b602091909101959094509250505056fea164736f6c634300081a000a","linkReferences":{}},"methodIdentifiers":{"CONTRACT_ID()":"3e35487c","implementation()":"5c60da1b","setup(bytes)":"9ded06df"},"id":21}