{"abi":[{"type":"constructor","inputs":[{"name":"gasCollector_","type":"address","internalType":"address"}],"stateMutability":"nonpayable"},{"type":"function","name":"acceptOwnership","inputs":[],"outputs":[],"stateMutability":"nonpayable"},{"type":"function","name":"addExpressGas","inputs":[{"name":"txHash","type":"bytes32","internalType":"bytes32"},{"name":"logIndex","type":"uint256","internalType":"uint256"},{"name":"gasToken","type":"address","internalType":"address"},{"name":"gasFeeAmount","type":"uint256","internalType":"uint256"},{"name":"refundAddress","type":"address","internalType":"address"}],"outputs":[],"stateMutability":"nonpayable"},{"type":"function","name":"addGas","inputs":[{"name":"txHash","type":"bytes32","internalType":"bytes32"},{"name":"logIndex","type":"uint256","internalType":"uint256"},{"name":"gasToken","type":"address","internalType":"address"},{"name":"gasFeeAmount","type":"uint256","internalType":"uint256"},{"name":"refundAddress","type":"address","internalType":"address"}],"outputs":[],"stateMutability":"nonpayable"},{"type":"function","name":"addNativeExpressGas","inputs":[{"name":"txHash","type":"bytes32","internalType":"bytes32"},{"name":"logIndex","type":"uint256","internalType":"uint256"},{"name":"refundAddress","type":"address","internalType":"address"}],"outputs":[],"stateMutability":"payable"},{"type":"function","name":"addNativeGas","inputs":[{"name":"txHash","type":"bytes32","internalType":"bytes32"},{"name":"logIndex","type":"uint256","internalType":"uint256"},{"name":"refundAddress","type":"address","internalType":"address"}],"outputs":[],"stateMutability":"payable"},{"type":"function","name":"collectFees","inputs":[{"name":"receiver","type":"address","internalType":"address payable"},{"name":"tokens","type":"address[]","internalType":"address[]"},{"name":"amounts","type":"uint256[]","internalType":"uint256[]"}],"outputs":[],"stateMutability":"nonpayable"},{"type":"function","name":"contractId","inputs":[],"outputs":[{"name":"","type":"bytes32","internalType":"bytes32"}],"stateMutability":"pure"},{"type":"function","name":"estimateGasFee","inputs":[{"name":"destinationChain","type":"string","internalType":"string"},{"name":"","type":"string","internalType":"string"},{"name":"payload","type":"bytes","internalType":"bytes"},{"name":"executionGasLimit","type":"uint256","internalType":"uint256"},{"name":"","type":"bytes","internalType":"bytes"}],"outputs":[{"name":"gasEstimate","type":"uint256","internalType":"uint256"}],"stateMutability":"view"},{"type":"function","name":"gasCollector","inputs":[],"outputs":[{"name":"","type":"address","internalType":"address"}],"stateMutability":"view"},{"type":"function","name":"getGasInfo","inputs":[{"name":"chain","type":"string","internalType":"string"}],"outputs":[{"name":"","type":"tuple","internalType":"struct GasInfo","components":[{"name":"gasEstimationType","type":"uint64","internalType":"uint64"},{"name":"l1FeeScalar","type":"uint64","internalType":"uint64"},{"name":"axelarBaseFee","type":"uint128","internalType":"uint128"},{"name":"relativeGasPrice","type":"uint128","internalType":"uint128"},{"name":"relativeBlobBaseFee","type":"uint128","internalType":"uint128"},{"name":"expressFee","type":"uint128","internalType":"uint128"}]}],"stateMutability":"view"},{"type":"function","name":"implementation","inputs":[],"outputs":[{"name":"implementation_","type":"address","internalType":"address"}],"stateMutability":"view"},{"type":"function","name":"owner","inputs":[],"outputs":[{"name":"owner_","type":"address","internalType":"address"}],"stateMutability":"view"},{"type":"function","name":"payGas","inputs":[{"name":"sender","type":"address","internalType":"address"},{"name":"destinationChain","type":"string","internalType":"string"},{"name":"destinationAddress","type":"string","internalType":"string"},{"name":"payload","type":"bytes","internalType":"bytes"},{"name":"executionGasLimit","type":"uint256","internalType":"uint256"},{"name":"estimateOnChain","type":"bool","internalType":"bool"},{"name":"refundAddress","type":"address","internalType":"address"},{"name":"params","type":"bytes","internalType":"bytes"}],"outputs":[],"stateMutability":"payable"},{"type":"function","name":"payGasForContractCall","inputs":[{"name":"sender","type":"address","internalType":"address"},{"name":"destinationChain","type":"string","internalType":"string"},{"name":"destinationAddress","type":"string","internalType":"string"},{"name":"payload","type":"bytes","internalType":"bytes"},{"name":"gasToken","type":"address","internalType":"address"},{"name":"gasFeeAmount","type":"uint256","internalType":"uint256"},{"name":"refundAddress","type":"address","internalType":"address"}],"outputs":[],"stateMutability":"nonpayable"},{"type":"function","name":"payGasForContractCallWithToken","inputs":[{"name":"sender","type":"address","internalType":"address"},{"name":"destinationChain","type":"string","internalType":"string"},{"name":"destinationAddress","type":"string","internalType":"string"},{"name":"payload","type":"bytes","internalType":"bytes"},{"name":"symbol","type":"string","internalType":"string"},{"name":"amount","type":"uint256","internalType":"uint256"},{"name":"gasToken","type":"address","internalType":"address"},{"name":"gasFeeAmount","type":"uint256","internalType":"uint256"},{"name":"refundAddress","type":"address","internalType":"address"}],"outputs":[],"stateMutability":"nonpayable"},{"type":"function","name":"payGasForExpressCall","inputs":[{"name":"sender","type":"address","internalType":"address"},{"name":"destinationChain","type":"string","internalType":"string"},{"name":"destinationAddress","type":"string","internalType":"string"},{"name":"payload","type":"bytes","internalType":"bytes"},{"name":"gasToken","type":"address","internalType":"address"},{"name":"gasFeeAmount","type":"uint256","internalType":"uint256"},{"name":"refundAddress","type":"address","internalType":"address"}],"outputs":[],"stateMutability":"nonpayable"},{"type":"function","name":"payGasForExpressCallWithToken","inputs":[{"name":"sender","type":"address","internalType":"address"},{"name":"destinationChain","type":"string","internalType":"string"},{"name":"destinationAddress","type":"string","internalType":"string"},{"name":"payload","type":"bytes","internalType":"bytes"},{"name":"symbol","type":"string","internalType":"string"},{"name":"amount","type":"uint256","internalType":"uint256"},{"name":"gasToken","type":"address","internalType":"address"},{"name":"gasFeeAmount","type":"uint256","internalType":"uint256"},{"name":"refundAddress","type":"address","internalType":"address"}],"outputs":[],"stateMutability":"nonpayable"},{"type":"function","name":"payNativeGasForContractCall","inputs":[{"name":"sender","type":"address","internalType":"address"},{"name":"destinationChain","type":"string","internalType":"string"},{"name":"destinationAddress","type":"string","internalType":"string"},{"name":"payload","type":"bytes","internalType":"bytes"},{"name":"refundAddress","type":"address","internalType":"address"}],"outputs":[],"stateMutability":"payable"},{"type":"function","name":"payNativeGasForContractCallWithToken","inputs":[{"name":"sender","type":"address","internalType":"address"},{"name":"destinationChain","type":"string","internalType":"string"},{"name":"destinationAddress","type":"string","internalType":"string"},{"name":"payload","type":"bytes","internalType":"bytes"},{"name":"symbol","type":"string","internalType":"string"},{"name":"amount","type":"uint256","internalType":"uint256"},{"name":"refundAddress","type":"address","internalType":"address"}],"outputs":[],"stateMutability":"payable"},{"type":"function","name":"payNativeGasForExpressCall","inputs":[{"name":"sender","type":"address","internalType":"address"},{"name":"destinationChain","type":"string","internalType":"string"},{"name":"destinationAddress","type":"string","internalType":"string"},{"name":"payload","type":"bytes","internalType":"bytes"},{"name":"refundAddress","type":"address","internalType":"address"}],"outputs":[],"stateMutability":"payable"},{"type":"function","name":"payNativeGasForExpressCallWithToken","inputs":[{"name":"sender","type":"address","internalType":"address"},{"name":"destinationChain","type":"string","internalType":"string"},{"name":"destinationAddress","type":"string","internalType":"string"},{"name":"payload","type":"bytes","internalType":"bytes"},{"name":"symbol","type":"string","internalType":"string"},{"name":"amount","type":"uint256","internalType":"uint256"},{"name":"refundAddress","type":"address","internalType":"address"}],"outputs":[],"stateMutability":"payable"},{"type":"function","name":"pendingOwner","inputs":[],"outputs":[{"name":"owner_","type":"address","internalType":"address"}],"stateMutability":"view"},{"type":"function","name":"proposeOwnership","inputs":[{"name":"newOwner","type":"address","internalType":"address"}],"outputs":[],"stateMutability":"nonpayable"},{"type":"function","name":"refund","inputs":[{"name":"txHash","type":"bytes32","internalType":"bytes32"},{"name":"logIndex","type":"uint256","internalType":"uint256"},{"name":"receiver","type":"address","internalType":"address payable"},{"name":"token","type":"address","internalType":"address"},{"name":"amount","type":"uint256","internalType":"uint256"}],"outputs":[],"stateMutability":"nonpayable"},{"type":"function","name":"refund","inputs":[{"name":"receiver","type":"address","internalType":"address payable"},{"name":"token","type":"address","internalType":"address"},{"name":"amount","type":"uint256","internalType":"uint256"}],"outputs":[],"stateMutability":"nonpayable"},{"type":"function","name":"setup","inputs":[{"name":"data","type":"bytes","internalType":"bytes"}],"outputs":[],"stateMutability":"nonpayable"},{"type":"function","name":"transferOwnership","inputs":[{"name":"newOwner","type":"address","internalType":"address"}],"outputs":[],"stateMutability":"nonpayable"},{"type":"function","name":"updateGasInfo","inputs":[{"name":"chains","type":"string[]","internalType":"string[]"},{"name":"gasUpdates","type":"tuple[]","internalType":"struct GasInfo[]","components":[{"name":"gasEstimationType","type":"uint64","internalType":"uint64"},{"name":"l1FeeScalar","type":"uint64","internalType":"uint64"},{"name":"axelarBaseFee","type":"uint128","internalType":"uint128"},{"name":"relativeGasPrice","type":"uint128","internalType":"uint128"},{"name":"relativeBlobBaseFee","type":"uint128","internalType":"uint128"},{"name":"expressFee","type":"uint128","internalType":"uint128"}]}],"outputs":[],"stateMutability":"nonpayable"},{"type":"function","name":"upgrade","inputs":[{"name":"newImplementation","type":"address","internalType":"address"},{"name":"newImplementationCodeHash","type":"bytes32","internalType":"bytes32"},{"name":"params","type":"bytes","internalType":"bytes"}],"outputs":[],"stateMutability":"nonpayable"},{"type":"event","name":"ExpressGasAdded","inputs":[{"name":"txHash","type":"bytes32","indexed":true,"internalType":"bytes32"},{"name":"logIndex","type":"uint256","indexed":true,"internalType":"uint256"},{"name":"gasToken","type":"address","indexed":false,"internalType":"address"},{"name":"gasFeeAmount","type":"uint256","indexed":false,"internalType":"uint256"},{"name":"refundAddress","type":"address","indexed":false,"internalType":"address"}],"anonymous":false},{"type":"event","name":"GasAdded","inputs":[{"name":"txHash","type":"bytes32","indexed":true,"internalType":"bytes32"},{"name":"logIndex","type":"uint256","indexed":true,"internalType":"uint256"},{"name":"gasToken","type":"address","indexed":false,"internalType":"address"},{"name":"gasFeeAmount","type":"uint256","indexed":false,"internalType":"uint256"},{"name":"refundAddress","type":"address","indexed":false,"internalType":"address"}],"anonymous":false},{"type":"event","name":"GasInfoUpdated","inputs":[{"name":"chain","type":"string","indexed":false,"internalType":"string"},{"name":"info","type":"tuple","indexed":false,"internalType":"struct GasInfo","components":[{"name":"gasEstimationType","type":"uint64","internalType":"uint64"},{"name":"l1FeeScalar","type":"uint64","internalType":"uint64"},{"name":"axelarBaseFee","type":"uint128","internalType":"uint128"},{"name":"relativeGasPrice","type":"uint128","internalType":"uint128"},{"name":"relativeBlobBaseFee","type":"uint128","internalType":"uint128"},{"name":"expressFee","type":"uint128","internalType":"uint128"}]}],"anonymous":false},{"type":"event","name":"GasPaidForContractCall","inputs":[{"name":"sourceAddress","type":"address","indexed":true,"internalType":"address"},{"name":"destinationChain","type":"string","indexed":false,"internalType":"string"},{"name":"destinationAddress","type":"string","indexed":false,"internalType":"string"},{"name":"payloadHash","type":"bytes32","indexed":true,"internalType":"bytes32"},{"name":"gasToken","type":"address","indexed":false,"internalType":"address"},{"name":"gasFeeAmount","type":"uint256","indexed":false,"internalType":"uint256"},{"name":"refundAddress","type":"address","indexed":false,"internalType":"address"}],"anonymous":false},{"type":"event","name":"GasPaidForContractCallWithToken","inputs":[{"name":"sourceAddress","type":"address","indexed":true,"internalType":"address"},{"name":"destinationChain","type":"string","indexed":false,"internalType":"string"},{"name":"destinationAddress","type":"string","indexed":false,"internalType":"string"},{"name":"payloadHash","type":"bytes32","indexed":true,"internalType":"bytes32"},{"name":"symbol","type":"string","indexed":false,"internalType":"string"},{"name":"amount","type":"uint256","indexed":false,"internalType":"uint256"},{"name":"gasToken","type":"address","indexed":false,"internalType":"address"},{"name":"gasFeeAmount","type":"uint256","indexed":false,"internalType":"uint256"},{"name":"refundAddress","type":"address","indexed":false,"internalType":"address"}],"anonymous":false},{"type":"event","name":"GasPaidForExpressCall","inputs":[{"name":"sourceAddress","type":"address","indexed":true,"internalType":"address"},{"name":"destinationChain","type":"string","indexed":false,"internalType":"string"},{"name":"destinationAddress","type":"string","indexed":false,"internalType":"string"},{"name":"payloadHash","type":"bytes32","indexed":true,"internalType":"bytes32"},{"name":"gasToken","type":"address","indexed":false,"internalType":"address"},{"name":"gasFeeAmount","type":"uint256","indexed":false,"internalType":"uint256"},{"name":"refundAddress","type":"address","indexed":false,"internalType":"address"}],"anonymous":false},{"type":"event","name":"GasPaidForExpressCallWithToken","inputs":[{"name":"sourceAddress","type":"address","indexed":true,"internalType":"address"},{"name":"destinationChain","type":"string","indexed":false,"internalType":"string"},{"name":"destinationAddress","type":"string","indexed":false,"internalType":"string"},{"name":"payloadHash","type":"bytes32","indexed":true,"internalType":"bytes32"},{"name":"symbol","type":"string","indexed":false,"internalType":"string"},{"name":"amount","type":"uint256","indexed":false,"internalType":"uint256"},{"name":"gasToken","type":"address","indexed":false,"internalType":"address"},{"name":"gasFeeAmount","type":"uint256","indexed":false,"internalType":"uint256"},{"name":"refundAddress","type":"address","indexed":false,"internalType":"address"}],"anonymous":false},{"type":"event","name":"NativeExpressGasAdded","inputs":[{"name":"txHash","type":"bytes32","indexed":true,"internalType":"bytes32"},{"name":"logIndex","type":"uint256","indexed":true,"internalType":"uint256"},{"name":"gasFeeAmount","type":"uint256","indexed":false,"internalType":"uint256"},{"name":"refundAddress","type":"address","indexed":false,"internalType":"address"}],"anonymous":false},{"type":"event","name":"NativeGasAdded","inputs":[{"name":"txHash","type":"bytes32","indexed":true,"internalType":"bytes32"},{"name":"logIndex","type":"uint256","indexed":true,"internalType":"uint256"},{"name":"gasFeeAmount","type":"uint256","indexed":false,"internalType":"uint256"},{"name":"refundAddress","type":"address","indexed":false,"internalType":"address"}],"anonymous":false},{"type":"event","name":"NativeGasPaidForContractCall","inputs":[{"name":"sourceAddress","type":"address","indexed":true,"internalType":"address"},{"name":"destinationChain","type":"string","indexed":false,"internalType":"string"},{"name":"destinationAddress","type":"string","indexed":false,"internalType":"string"},{"name":"payloadHash","type":"bytes32","indexed":true,"internalType":"bytes32"},{"name":"gasFeeAmount","type":"uint256","indexed":false,"internalType":"uint256"},{"name":"refundAddress","type":"address","indexed":false,"internalType":"address"}],"anonymous":false},{"type":"event","name":"NativeGasPaidForContractCallWithToken","inputs":[{"name":"sourceAddress","type":"address","indexed":true,"internalType":"address"},{"name":"destinationChain","type":"string","indexed":false,"internalType":"string"},{"name":"destinationAddress","type":"string","indexed":false,"internalType":"string"},{"name":"payloadHash","type":"bytes32","indexed":true,"internalType":"bytes32"},{"name":"symbol","type":"string","indexed":false,"internalType":"string"},{"name":"amount","type":"uint256","indexed":false,"internalType":"uint256"},{"name":"gasFeeAmount","type":"uint256","indexed":false,"internalType":"uint256"},{"name":"refundAddress","type":"address","indexed":false,"internalType":"address"}],"anonymous":false},{"type":"event","name":"NativeGasPaidForExpressCall","inputs":[{"name":"sourceAddress","type":"address","indexed":true,"internalType":"address"},{"name":"destinationChain","type":"string","indexed":false,"internalType":"string"},{"name":"destinationAddress","type":"string","indexed":false,"internalType":"string"},{"name":"payloadHash","type":"bytes32","indexed":true,"internalType":"bytes32"},{"name":"gasFeeAmount","type":"uint256","indexed":false,"internalType":"uint256"},{"name":"refundAddress","type":"address","indexed":false,"internalType":"address"}],"anonymous":false},{"type":"event","name":"NativeGasPaidForExpressCallWithToken","inputs":[{"name":"sourceAddress","type":"address","indexed":true,"internalType":"address"},{"name":"destinationChain","type":"string","indexed":false,"internalType":"string"},{"name":"destinationAddress","type":"string","indexed":false,"internalType":"string"},{"name":"payloadHash","type":"bytes32","indexed":true,"internalType":"bytes32"},{"name":"symbol","type":"string","indexed":false,"internalType":"string"},{"name":"amount","type":"uint256","indexed":false,"internalType":"uint256"},{"name":"gasFeeAmount","type":"uint256","indexed":false,"internalType":"uint256"},{"name":"refundAddress","type":"address","indexed":false,"internalType":"address"}],"anonymous":false},{"type":"event","name":"OwnershipTransferStarted","inputs":[{"name":"newOwner","type":"address","indexed":true,"internalType":"address"}],"anonymous":false},{"type":"event","name":"OwnershipTransferred","inputs":[{"name":"newOwner","type":"address","indexed":true,"internalType":"address"}],"anonymous":false},{"type":"event","name":"Refunded","inputs":[{"name":"txHash","type":"bytes32","indexed":true,"internalType":"bytes32"},{"name":"logIndex","type":"uint256","indexed":true,"internalType":"uint256"},{"name":"receiver","type":"address","indexed":false,"internalType":"address payable"},{"name":"token","type":"address","indexed":false,"internalType":"address"},{"name":"amount","type":"uint256","indexed":false,"internalType":"uint256"}],"anonymous":false},{"type":"event","name":"Upgraded","inputs":[{"name":"newImplementation","type":"address","indexed":true,"internalType":"address"}],"anonymous":false},{"type":"error","name":"InsufficientGasPayment","inputs":[{"name":"required","type":"uint256","internalType":"uint256"},{"name":"provided","type":"uint256","internalType":"uint256"}]},{"type":"error","name":"InvalidAddress","inputs":[]},{"type":"error","name":"InvalidAmounts","inputs":[]},{"type":"error","name":"InvalidCodeHash","inputs":[]},{"type":"error","name":"InvalidGasUpdates","inputs":[]},{"type":"error","name":"InvalidImplementation","inputs":[]},{"type":"error","name":"InvalidOwner","inputs":[]},{"type":"error","name":"InvalidOwnerAddress","inputs":[]},{"type":"error","name":"InvalidParams","inputs":[]},{"type":"error","name":"NativeTransferFailed","inputs":[]},{"type":"error","name":"NotCollector","inputs":[]},{"type":"error","name":"NotOwner","inputs":[]},{"type":"error","name":"NotProxy","inputs":[]},{"type":"error","name":"SetupFailed","inputs":[]},{"type":"error","name":"TokenTransferFailed","inputs":[]},{"type":"error","name":"UnsupportedEstimationType","inputs":[{"name":"gasEstimationType","type":"uint8","internalType":"enum GasEstimationType"}]}],"bytecode":{"object":"0x60c060405234801561000f575f80fd5b50604051612bee380380612bee83398101604081905261002e916100f0565b60016100398161004f565b50306080526001600160a01b031660a05261011d565b6001600160a01b03811661007657604051633649397d60e21b815260040160405180910390fd5b6040516001600160a01b038216907f04dba622d284ed0014ee4b9a6a68386be1a4c08a4913ae272de89199cc686163905f90a27f02016836a56b71f0d02689e69e326f4f4c1b9057164ef592671cf0d37c8040c0555f7f9855384122b55936fbfb8ca5120e63c6537a1ac40caf6ae33502b3c5da8c87d155565b5f60208284031215610100575f80fd5b81516001600160a01b0381168114610116575f80fd5b9392505050565b60805160a051612a9461015a5f395f81816104230152818161064101528181610a6d01528181610c02015261117401525f610d1b0152612a945ff3fe6080604052600436106101ba575f3560e01c8063892b5007116100f2578063cd433ada11610092578063edf936f211610062578063edf936f214610565578063f2fde38b14610578578063f61ed21814610597578063fd09e3bd146105aa575f80fd5b8063cd433ada146104f4578063d3b81f0c14610507578063e30c397814610526578063edb6b3a514610546575f80fd5b8063a3499c73116100cd578063a3499c7314610484578063ab1999ba146104a3578063ba9ddc8d146104c2578063c62c2002146104e1575f80fd5b8063892b5007146104125780638da5cb5b146104455780639ded06df14610465575f80fd5b80634d2384891161015d57806379ba50971161013857806379ba50971461030d5780638291286c1461032157806382ad6f351461035357806386389f0214610372575f80fd5b80634d238489146102945780635c60da1b146102a7578063710bf322146102ee575f80fd5b806317a49f7c1161019857806317a49f7c146102245780632e9b7470146102435780632edd2aa8146102565780633650472114610275575f80fd5b80630c93e3bb146101be5780631055eaaf146101d3578063135eaa70146101f2575b5f80fd5b6101d16101cc366004611b29565b6105c9565b005b3480156101de575f80fd5b506101d16101ed366004611c2a565b610636565b3480156101fd575f80fd5b5061021161020c366004611caa565b6107f6565b6040519081526020015b60405180910390f35b34801561022f575f80fd5b506101d161023e366004611e1c565b6108f1565b6101d1610251366004611f2b565b61097d565b348015610261575f80fd5b506101d161027036600461201d565b6109f3565b348015610280575f80fd5b506101d161028f36600461206f565b610a62565b6101d16102a23660046120bd565b610ab7565b3480156102b2575f80fd5b507f360894a13ba1a3210667c828492db98dca3e2076cc3735a920a3ca505d382bbc545b6040516001600160a01b03909116815260200161021b565b3480156102f9575f80fd5b506101d16103083660046120f3565b610b02565b348015610318575f80fd5b506101d1610baa565b34801561032c575f80fd5b507ffaa2f015f2ce5aee225904728de2def86eb8837491efd21f1a04fc20d8e923f6610211565b34801561035e575f80fd5b506101d161036d366004612115565b610bf7565b34801561037d575f80fd5b5061039161038c366004612153565b610c51565b60405161021b91905f60c0820190506001600160401b0383511682526001600160401b0360208401511660208301526001600160801b0360408401511660408301526001600160801b0360608401511660608301526001600160801b0360808401511660808301526001600160801b0360a08401511660a083015292915050565b34801561041d575f80fd5b506102d67f000000000000000000000000000000000000000000000000000000000000000081565b348015610450575f80fd5b505f80516020612a48833981519152546102d6565b348015610470575f80fd5b506101d161047f366004612153565b610d18565b34801561048f575f80fd5b506101d161049e366004612191565b610d65565b3480156104ae575f80fd5b506101d16104bd36600461201d565b610ff1565b3480156104cd575f80fd5b506101d16104dc3660046121e8565b611040565b6101d16104ef366004611f2b565b6110c6565b6101d16105023660046120bd565b611127565b348015610512575f80fd5b506101d16105213660046122bf565b611169565b348015610531575f80fd5b505f80516020612a68833981519152546102d6565b348015610551575f80fd5b506101d1610560366004611e1c565b61123f565b6101d1610573366004612370565b6112a0565b348015610583575f80fd5b506101d16105923660046120f3565b61137b565b6101d16105a5366004611b29565b6113b8565b3480156105b5575f80fd5b506101d16105c43660046121e8565b611413565b82826040516105d992919061247d565b6040518091039020886001600160a01b03167f617332c1832058df6ee45fcbdf471251474c9945a8e5d229287a21a5f67ccf0a898989893488604051610624969594939291906124b4565b60405180910390a35050505050505050565b336001600160a01b037f0000000000000000000000000000000000000000000000000000000000000000161461067e57604051623bb10360e91b815260040160405180910390fd5b6001600160a01b0385166106a55760405163e6c4247b60e01b815260040160405180910390fd5b828181146106c657604051636c2b7e2d60e11b815260040160405180910390fd5b5f5b818110156107ed575f8686838181106106e3576106e36124fe565b90506020020160208101906106f891906120f3565b90505f85858481811061070d5761070d6124fe565b905060200201359050805f0361073657604051636c2b7e2d60e11b815260040160405180910390fd5b6001600160a01b0382166107635747811161075e5761075e6001600160a01b038a1682611470565b6107e3565b6040516370a0823160e01b81523060048201526001600160a01b038316906370a0823190602401602060405180830381865afa1580156107a5573d5f803e3d5ffd5b505050506040513d601f19601f820116820180604052508101906107c99190612512565b81116107e3576107e36001600160a01b0383168a83611499565b50506001016106c8565b50505050505050565b5f805f80516020612a28833981519152604051610816908d908d9061247d565b90815260405190819003602001902080549091505f906001600160401b0316600481111561084657610846612529565b6001830154909150610861906001600160801b031687612551565b825461087d9190600160801b90046001600160801b0316612568565b92505f81600481111561089257610892612529565b146108e2576040805167657468657265756d60c01b81525f80516020612a28833981519152600882015290519081900360280190206108d4828a8a86856114fc565b6108de9085612568565b9350505b50509998505050505050505050565b868660405161090192919061247d565b60405180910390208c6001600160a01b03167fda4ed638a7ffe9e814722efdb9ad6058c152c19c8564ceffe52e11dda1ca32238d8d8d8d8b8b8b8b8b6040516109529998979695949392919061259d565b60405180910390a361096f6001600160a01b0384163330856115bc565b505050505050505050505050565b858560405161098d92919061247d565b60405180910390208b6001600160a01b03167f8c092067e86e85e8cfbaf187202ef580cdfd7ec37fbec89191607de73ca800058c8c8c8c8a8a8a348b6040516109de99989796959493929190612625565b60405180910390a35050505050505050505050565b604080516001600160a01b03808616825260208201859052831691810191909152849086907ff0b09bf969e7958967e0968e22596f647dd6efa09f4778e0393967b881f4b09f906060015b60405180910390a3610a5b6001600160a01b0384163330856115bc565b5050505050565b336001600160a01b037f00000000000000000000000000000000000000000000000000000000000000001614610aaa57604051623bb10360e91b815260040160405180910390fd5b610a5b85858585856115f4565b604080513481526001600160a01b0383166020820152839185917fb26db521e067acd5c6e345ad92fa1ed06bc7fb2aedd68f35dc7a2e10d636fc9891015b60405180910390a3505050565b33610b185f80516020612a488339815191525490565b6001600160a01b031614610b3f576040516330cd747160e01b815260040160405180910390fd5b6001600160a01b038116610b6657604051633649397d60e21b815260040160405180910390fd5b6040516001600160a01b038216907fd9be0e8e07417e00f2521db636cb53e316fd288f5051f16d2aa2bf0c3938a876905f90a25f80516020612a6883398151915255565b5f610bc05f80516020612a688339815191525490565b90506001600160a01b0381163314610beb576040516349e27cff60e01b815260040160405180910390fd5b610bf4816116a4565b50565b336001600160a01b037f00000000000000000000000000000000000000000000000000000000000000001614610c3f57604051623bb10360e91b815260040160405180910390fd5b610c4c5f808585856115f4565b505050565b6040805160c0810182525f80825260208201819052818301819052606082018190526080820181905260a082015290515f80516020612a2883398151915290610c9d908590859061247d565b90815260408051918290036020908101832060c08401835280546001600160401b038082168652600160401b820416928501929092526001600160801b03600160801b92839004811693850193909352600181015480841660608601529190910482166080840152600201541660a082015290505b92915050565b307f00000000000000000000000000000000000000000000000000000000000000006001600160a01b031603610d6157604051635f886e9d60e11b815260040160405180910390fd5b5050565b33610d7b5f80516020612a488339815191525490565b6001600160a01b031614610da2576040516330cd747160e01b815260040160405180910390fd5b7f360894a13ba1a3210667c828492db98dca3e2076cc3735a920a3ca505d382bbc546001600160a01b0316638291286c6040518163ffffffff1660e01b8152600401602060405180830381865afa158015610dff573d5f803e3d5ffd5b505050506040513d601f19601f82011682018060405250810190610e239190612512565b846001600160a01b0316638291286c6040518163ffffffff1660e01b8152600401602060405180830381865afa158015610e5f573d5f803e3d5ffd5b505050506040513d601f19601f82011682018060405250810190610e839190612512565b14610ea15760405163340aafcd60e11b815260040160405180910390fd5b836001600160a01b03163f8314610ecb576040516323e13ec960e21b815260040160405180910390fd5b7f360894a13ba1a3210667c828492db98dca3e2076cc3735a920a3ca505d382bbc8490556040516001600160a01b038516907fbc7cd75a20ee27fd9adebab32041f755214dbc6bffa90cc0225b39da2e5c2d3b905f90a28015610feb575f846001600160a01b0316639ded06df60e01b8484604051602401610f4e92919061268b565b60408051601f198184030181529181526020820180516001600160e01b03166001600160e01b0319909416939093179092529051610f8c91906126a6565b5f60405180830381855af49150503d805f8114610fc4576040519150601f19603f3d011682016040523d82523d5f602084013e610fc9565b606091505b5050905080610a5b576040516397905dfb60e01b815260040160405180910390fd5b50505050565b604080516001600160a01b03808616825260208201859052831691810191909152849086907f2275e75614080f9782f72563c2c1688c901c5339c7f9f436d323f9386fed700a90606001610a3e565b848460405161105092919061247d565b60405180910390208a6001600160a01b03167fd171a7eb157e548ca493dd0a16016d125963a369ac5ae3c275ec12c96d5277028b8b8b8b89898960405161109d97969594939291906126c1565b60405180910390a36110ba6001600160a01b0384163330856115bc565b50505050505050505050565b85856040516110d692919061247d565b60405180910390208b6001600160a01b03167f999d431b58761213cf53af96262b67a069cbd963499fd8effd1e21556217b8418c8c8c8c8a8a8a348b6040516109de99989796959493929190612625565b604080513481526001600160a01b0383166020820152839185917ffeb6b00343feee0f29a1a4345f8bf93ca1c73ee922248a4237a4e50d6447604e9101610af5565b336001600160a01b037f000000000000000000000000000000000000000000000000000000000000000016146111b157604051623bb10360e91b815260040160405180910390fd5b828181146111d25760405163a5f1efe360e01b815260040160405180910390fd5b5f5b8181101561123757365f8787848181106111f0576111f06124fe565b90506020028101906112029190612714565b9150915036868685818110611219576112196124fe565b905060c00201905061122c83838361171f565b5050506001016111d4565b505050505050565b868660405161124f92919061247d565b60405180910390208c6001600160a01b03167f8875f9764f28fa82d3e7ff1b80bd5c8f665e1f42fcd8c2faebc7c400a4ba1bbd8d8d8d8d8b8b8b8b8b6040516109529998979695949392919061259d565b80156112bf57604051635435b28960e11b815260040160405180910390fd5b831561130a575f6112d78c8c8c8c8c8c8c8a8a6107f6565b905034811115611308576040516316c7f97f60e21b8152600481018290523460248201526044015b60405180910390fd5b505b868660405161131a92919061247d565b60405180910390208c6001600160a01b03167f617332c1832058df6ee45fcbdf471251474c9945a8e5d229287a21a5f67ccf0a8d8d8d8d348a604051611365969594939291906124b4565b60405180910390a3505050505050505050505050565b336113915f80516020612a488339815191525490565b6001600160a01b031614610beb576040516330cd747160e01b815260040160405180910390fd5b82826040516113c892919061247d565b6040518091039020886001600160a01b03167f5cf48f121a0fecaa2c4a64b3eaf482c8c308d5387e161535970f3e9e4363eff6898989893488604051610624969594939291906124b4565b848460405161142392919061247d565b60405180910390208a6001600160a01b03167f99206760f0be19dd093729bd35e5924daff5e217bcedc5223ed067b60008cf8a8b8b8b8b89898960405161109d97969594939291906126c1565b5f805f805f85875af1905080610c4c57604051633d2cec6f60e21b815260040160405180910390fd5b6040516001600160a01b038316602482015260448101829052610c4c90849063a9059cbb60e01b906064015b60408051601f198184030181529190526020810180516001600160e01b03166001600160e01b031990931692909217909152611792565b5f600186600481111561151157611511612529565b03611529576115228585858561184a565b90506115b3565b600286600481111561153d5761153d612529565b0361154e5761152285858585611904565b600386600481111561156257611562612529565b036115735761152285858585611973565b600486600481111561158757611587612529565b036115985761152285858585611a0c565b856040516310fcd31f60e01b81526004016112ff9190612756565b95945050505050565b6040516001600160a01b0380851660248301528316604482015260648101829052610feb9085906323b872dd60e01b906084016114c5565b6001600160a01b03831661161b5760405163e6c4247b60e01b815260040160405180910390fd5b604080516001600160a01b03808616825284166020820152908101829052849086907fd5df103822011013c8c940930e5180419111c65abadd6525ca7e740d56b4703f9060600160405180910390a36001600160a01b0382166116905761168b6001600160a01b03841682611470565b610a5b565b610a5b6001600160a01b0383168483611499565b6001600160a01b0381166116cb57604051633649397d60e21b815260040160405180910390fd5b6040516001600160a01b038216907f04dba622d284ed0014ee4b9a6a68386be1a4c08a4913ae272de89199cc686163905f90a25f80516020612a48833981519152555f5f80516020612a6883398151915255565b7f11415423beab67062fb0f3f22cb2a478e3b5a02a845dd62ddb7c12d11098ff1b838383604051611752939291906127af565b60405180910390a1805f80516020612a28833981519152604051611779908690869061247d565b908152604051908190036020019020610a5b8282612885565b5f80836001600160a01b0316836040516117ac91906126a6565b5f604051808303815f865af19150503d805f81146117e5576040519150601f19603f3d011682016040523d82523d5f602084013e6117ea565b606091505b50915091505f82801561181557508151158061181557508180602001905181019061181591906129a2565b905080158061182c57506001600160a01b0385163b155b15610a5b5760405163022e258160e11b815260040160405180910390fd5b5f620f4240620dbba08261185e8888611a36565b60018601549091505f9061188290600160801b90046001600160801b031684612551565b600187015488546001600160801b03909116906118b090600160401b90046001600160401b031660106129bd565b6001600160401b03166118c391906129e6565b6001600160801b03166118d69190612568565b90506118e3846010612551565b6118ed8383612551565b6118f79190612a08565b9998505050505050505050565b5f60bc620f424082826119178989611a36565b6119219190612568565b865460018701549192508391600160401b9091046001600160401b0316906119539084906001600160801b0316612551565b61195d9190612551565b6119679190612a08565b98975050505050505050565b5f6127106010826119848280612551565b905060645f886119976101846044612568565b6119a19190612568565b90505f60026119b08387612551565b6119ba9190612a08565b9050856119c78482612568565b6119d18684612568565b60018b01546119e991906001600160801b0316612551565b6119f39190612551565b6119fd9190612a08565b9b9a5050505050505050505050565b5f6109c4633b9aca008282611a218989611a36565b611a2b9190612568565b611921906040612568565b5f611a4360446010612551565b9050611a526101846008612551565b611a5c9082612568565b9050815f5b81811015611ab957848482818110611a7b57611a7b6124fe565b909101356001600160f81b0319165f039050611aa357611a9c600484612568565b9250611ab1565b611aae601084612568565b92505b600101611a61565b505092915050565b6001600160a01b0381168114610bf4575f80fd5b8035611ae081611ac1565b919050565b5f8083601f840112611af5575f80fd5b5081356001600160401b03811115611b0b575f80fd5b602083019150836020828501011115611b22575f80fd5b9250929050565b5f805f805f805f8060a0898b031215611b40575f80fd5b8835611b4b81611ac1565b975060208901356001600160401b03811115611b65575f80fd5b611b718b828c01611ae5565b90985096505060408901356001600160401b03811115611b8f575f80fd5b611b9b8b828c01611ae5565b90965094505060608901356001600160401b03811115611bb9575f80fd5b611bc58b828c01611ae5565b9094509250506080890135611bd981611ac1565b809150509295985092959890939650565b5f8083601f840112611bfa575f80fd5b5081356001600160401b03811115611c10575f80fd5b6020830191508360208260051b8501011115611b22575f80fd5b5f805f805f60608688031215611c3e575f80fd5b8535611c4981611ac1565b945060208601356001600160401b03811115611c63575f80fd5b611c6f88828901611bea565b90955093505060408601356001600160401b03811115611c8d575f80fd5b611c9988828901611bea565b969995985093965092949392505050565b5f805f805f805f805f60a08a8c031215611cc2575f80fd5b89356001600160401b03811115611cd7575f80fd5b611ce38c828d01611ae5565b909a5098505060208a01356001600160401b03811115611d01575f80fd5b611d0d8c828d01611ae5565b90985096505060408a01356001600160401b03811115611d2b575f80fd5b611d378c828d01611ae5565b90965094505060608a0135925060808a01356001600160401b03811115611d5c575f80fd5b611d688c828d01611ae5565b915080935050809150509295985092959850929598565b634e487b7160e01b5f52604160045260245ffd5b5f82601f830112611da2575f80fd5b81356001600160401b03811115611dbb57611dbb611d7f565b604051601f8201601f19908116603f011681016001600160401b0381118282101715611de957611de9611d7f565b604052818152838201602001851015611e00575f80fd5b816020850160208301375f918101602001919091529392505050565b5f805f805f805f805f805f806101208d8f031215611e38575f80fd5b611e418d611ad5565b9b506001600160401b0360208e01351115611e5a575f80fd5b611e6a8e60208f01358f01611ae5565b909b5099506001600160401b0360408e01351115611e86575f80fd5b611e968e60408f01358f01611ae5565b90995097506001600160401b0360608e01351115611eb2575f80fd5b611ec28e60608f01358f01611ae5565b90975095506001600160401b0360808e01351115611ede575f80fd5b611eee8e60808f01358f01611d93565b945060a08d01359350611f0360c08e01611ad5565b925060e08d01359150611f196101008e01611ad5565b90509295989b509295989b509295989b565b5f805f805f805f805f805f60e08c8e031215611f45575f80fd5b611f4e8c611ad5565b9a5060208c01356001600160401b03811115611f68575f80fd5b611f748e828f01611ae5565b909b5099505060408c01356001600160401b03811115611f92575f80fd5b611f9e8e828f01611ae5565b90995097505060608c01356001600160401b03811115611fbc575f80fd5b611fc88e828f01611ae5565b90975095505060808c01356001600160401b03811115611fe6575f80fd5b611ff28e828f01611ae5565b90955093505060a08c0135915061200b60c08d01611ad5565b90509295989b509295989b9093969950565b5f805f805f60a08688031215612031575f80fd5b8535945060208601359350604086013561204a81611ac1565b925060608601359150608086013561206181611ac1565b809150509295509295909350565b5f805f805f60a08688031215612083575f80fd5b8535945060208601359350604086013561209c81611ac1565b925060608601356120ac81611ac1565b949793965091946080013592915050565b5f805f606084860312156120cf575f80fd5b833592506020840135915060408401356120e881611ac1565b809150509250925092565b5f60208284031215612103575f80fd5b813561210e81611ac1565b9392505050565b5f805f60608486031215612127575f80fd5b833561213281611ac1565b9250602084013561214281611ac1565b929592945050506040919091013590565b5f8060208385031215612164575f80fd5b82356001600160401b03811115612179575f80fd5b61218585828601611ae5565b90969095509350505050565b5f805f80606085870312156121a4575f80fd5b84356121af81611ac1565b93506020850135925060408501356001600160401b038111156121d0575f80fd5b6121dc87828801611ae5565b95989497509550505050565b5f805f805f805f805f8060e08b8d031215612201575f80fd5b8a3561220c81611ac1565b995060208b01356001600160401b03811115612226575f80fd5b6122328d828e01611ae5565b909a5098505060408b01356001600160401b03811115612250575f80fd5b61225c8d828e01611ae5565b90985096505060608b01356001600160401b0381111561227a575f80fd5b6122868d828e01611ae5565b9096509450612299905060808c01611ad5565b925060a08b013591506122ae60c08c01611ad5565b90509295989b9194979a5092959850565b5f805f80604085870312156122d2575f80fd5b84356001600160401b038111156122e7575f80fd5b6122f387828801611bea565b90955093505060208501356001600160401b03811115612311575f80fd5b8501601f81018713612321575f80fd5b80356001600160401b03811115612336575f80fd5b87602060c08302840101111561234a575f80fd5b949793965060200194505050565b8015158114610bf4575f80fd5b8035611ae081612358565b5f805f805f805f805f805f806101008d8f03121561238c575f80fd5b6123958d611ad5565b9b506001600160401b0360208e013511156123ae575f80fd5b6123be8e60208f01358f01611ae5565b909b5099506001600160401b0360408e013511156123da575f80fd5b6123ea8e60408f01358f01611ae5565b90995097506001600160401b0360608e01351115612406575f80fd5b6124168e60608f01358f01611ae5565b909750955060808d0135945061242e60a08e01612365565b935061243c60c08e01611ad5565b92506001600160401b0360e08e01351115612455575f80fd5b6124658e60e08f01358f01611ae5565b81935080925050509295989b509295989b509295989b565b818382375f9101908152919050565b81835281816020850137505f828201602090810191909152601f909101601f19169091010190565b608081525f6124c760808301888a61248c565b82810360208401526124da81878961248c565b604084019590955250506001600160a01b0391909116606090910152949350505050565b634e487b7160e01b5f52603260045260245ffd5b5f60208284031215612522575f80fd5b5051919050565b634e487b7160e01b5f52602160045260245ffd5b634e487b7160e01b5f52601160045260245ffd5b8082028115828204841417610d1257610d1261253d565b80820180821115610d1257610d1261253d565b5f5b8381101561259557818101518382015260200161257d565b50505f910152565b60e081525f6125b060e083018b8d61248c565b82810360208401526125c3818a8c61248c565b9050828103604084015287518082526125e3816020840160208c0161257b565b60608401979097526001600160a01b03958616608084015260a083019490945250921660c0909201919091526020601f909201601f1916010195945050505050565b60c081525f61263860c083018b8d61248c565b828103602084015261264b818a8c61248c565b9050828103604084015261266081888a61248c565b6060840196909652505060808101929092526001600160a01b031660a0909101529695505050505050565b602081525f61269e60208301848661248c565b949350505050565b5f82516126b781846020870161257b565b9190910192915050565b60a081525f6126d460a08301898b61248c565b82810360208401526126e781888a61248c565b6001600160a01b039687166040850152606084019590955250509216608090920191909152949350505050565b5f808335601e19843603018112612729575f80fd5b8301803591506001600160401b03821115612742575f80fd5b602001915036819003821315611b22575f80fd5b602081016005831061277657634e487b7160e01b5f52602160045260245ffd5b91905290565b6001600160401b0381168114610bf4575f80fd5b6001600160801b0381168114610bf4575f80fd5b8035611ae081612790565b60e081525f6127c260e08301858761248c565b905082356127cf8161277c565b6001600160401b03811660208401525060208301356127ed8161277c565b6001600160401b038116604084015250604083013561280b81612790565b6001600160801b038116606084015250606083013561282981612790565b6001600160801b038116608084015250612845608084016127a4565b6001600160801b03811660a08401525061286160a084016127a4565b6001600160801b03811660c084015250949350505050565b5f8135610d1281612790565b81356128908161277c565b6001600160401b03811690508154816001600160401b0319821617835560208401356128bb8161277c565b6fffffffffffffffff00000000000000008160401b16836001600160801b03198416171784555050505f60408301356128f381612790565b82546001600160801b0316608082901b6001600160801b031916178355905050600181015f606084013561292681612790565b82546001600160801b0319166001600160801b03821617835590505061297161295160808501612879565b82546001600160801b031660809190911b6001600160801b031916178255565b50610d6161298160a08401612879565b600283016001600160801b0382166001600160801b03198254161781555050565b5f602082840312156129b2575f80fd5b815161210e81612358565b6001600160401b0381811683821602908116908181146129df576129df61253d565b5092915050565b6001600160801b0381811683821602908116908181146129df576129df61253d565b5f82612a2257634e487b7160e01b5f52601260045260245ffd5b50049056fe2fa150da4c9f4c3a28593398c65313dd42f63d0530ec6db4a2b46e6d837a390202016836a56b71f0d02689e69e326f4f4c1b9057164ef592671cf0d37c8040c09855384122b55936fbfb8ca5120e63c6537a1ac40caf6ae33502b3c5da8c87d1a164736f6c634300081a000a","linkReferences":{}},"methodIdentifiers":{"acceptOwnership()":"79ba5097","addExpressGas(bytes32,uint256,address,uint256,address)":"2edd2aa8","addGas(bytes32,uint256,address,uint256,address)":"ab1999ba","addNativeExpressGas(bytes32,uint256,address)":"4d238489","addNativeGas(bytes32,uint256,address)":"cd433ada","collectFees(address,address[],uint256[])":"1055eaaf","contractId()":"8291286c","estimateGasFee(string,string,bytes,uint256,bytes)":"135eaa70","gasCollector()":"892b5007","getGasInfo(string)":"86389f02","implementation()":"5c60da1b","owner()":"8da5cb5b","payGas(address,string,string,bytes,uint256,bool,address,bytes)":"edf936f2","payGasForContractCall(address,string,string,bytes,address,uint256,address)":"fd09e3bd","payGasForContractCallWithToken(address,string,string,bytes,string,uint256,address,uint256,address)":"edb6b3a5","payGasForExpressCall(address,string,string,bytes,address,uint256,address)":"ba9ddc8d","payGasForExpressCallWithToken(address,string,string,bytes,string,uint256,address,uint256,address)":"17a49f7c","payNativeGasForContractCall(address,string,string,bytes,address)":"0c93e3bb","payNativeGasForContractCallWithToken(address,string,string,bytes,string,uint256,address)":"c62c2002","payNativeGasForExpressCall(address,string,string,bytes,address)":"f61ed218","payNativeGasForExpressCallWithToken(address,string,string,bytes,string,uint256,address)":"2e9b7470","pendingOwner()":"e30c3978","proposeOwnership(address)":"710bf322","refund(address,address,uint256)":"82ad6f35","refund(bytes32,uint256,address,address,uint256)":"36504721","setup(bytes)":"9ded06df","transferOwnership(address)":"f2fde38b","updateGasInfo(string[],(uint64,uint64,uint128,uint128,uint128,uint128)[])":"d3b81f0c","upgrade(address,bytes32,bytes)":"a3499c73"},"id":7}