{
  "abi": [
    {
      "type": "constructor",
      "inputs": [
        {
          "name": "previousSignersRetention_",
          "type": "uint256",
          "internalType": "uint256"
        },
        {
          "name": "domainSeparator_",
          "type": "bytes32",
          "internalType": "bytes32"
        },
        {
          "name": "minimumRotationDelay_",
          "type": "uint256",
          "internalType": "uint256"
        }
      ],
      "stateMutability": "nonpayable"
    },
    {
      "type": "function",
      "name": "acceptOwnership",
      "inputs": [],
      "outputs": [],
      "stateMutability": "nonpayable"
    },
    {
      "type": "function",
      "name": "approveMessages",
      "inputs": [
        {
          "name": "messages",
          "type": "tuple[]",
          "internalType": "struct Message[]",
          "components": [
            {
              "name": "sourceChain",
              "type": "string",
              "internalType": "string"
            },
            {
              "name": "messageId",
              "type": "string",
              "internalType": "string"
            },
            {
              "name": "sourceAddress",
              "type": "string",
              "internalType": "string"
            },
            {
              "name": "contractAddress",
              "type": "address",
              "internalType": "address"
            },
            {
              "name": "payloadHash",
              "type": "bytes32",
              "internalType": "bytes32"
            }
          ]
        },
        {
          "name": "proof",
          "type": "tuple",
          "internalType": "struct Proof",
          "components": [
            {
              "name": "signers",
              "type": "tuple",
              "internalType": "struct WeightedSigners",
              "components": [
                {
                  "name": "signers",
                  "type": "tuple[]",
                  "internalType": "struct WeightedSigner[]",
                  "components": [
                    {
                      "name": "signer",
                      "type": "address",
                      "internalType": "address"
                    },
                    {
                      "name": "weight",
                      "type": "uint128",
                      "internalType": "uint128"
                    }
                  ]
                },
                {
                  "name": "threshold",
                  "type": "uint128",
                  "internalType": "uint128"
                },
                {
                  "name": "nonce",
                  "type": "bytes32",
                  "internalType": "bytes32"
                }
              ]
            },
            {
              "name": "signatures",
              "type": "bytes[]",
              "internalType": "bytes[]"
            }
          ]
        }
      ],
      "outputs": [],
      "stateMutability": "nonpayable"
    },
    {
      "type": "function",
      "name": "callContract",
      "inputs": [
        {
          "name": "destinationChain",
          "type": "string",
          "internalType": "string"
        },
        {
          "name": "destinationContractAddress",
          "type": "string",
          "internalType": "string"
        },
        {
          "name": "payload",
          "type": "bytes",
          "internalType": "bytes"
        }
      ],
      "outputs": [],
      "stateMutability": "nonpayable"
    },
    {
      "type": "function",
      "name": "contractId",
      "inputs": [],
      "outputs": [
        {
          "name": "",
          "type": "bytes32",
          "internalType": "bytes32"
        }
      ],
      "stateMutability": "pure"
    },
    {
      "type": "function",
      "name": "domainSeparator",
      "inputs": [],
      "outputs": [
        {
          "name": "",
          "type": "bytes32",
          "internalType": "bytes32"
        }
      ],
      "stateMutability": "view"
    },
    {
      "type": "function",
      "name": "epoch",
      "inputs": [],
      "outputs": [
        {
          "name": "",
          "type": "uint256",
          "internalType": "uint256"
        }
      ],
      "stateMutability": "view"
    },
    {
      "type": "function",
      "name": "epochBySignersHash",
      "inputs": [
        {
          "name": "signersHash",
          "type": "bytes32",
          "internalType": "bytes32"
        }
      ],
      "outputs": [
        {
          "name": "",
          "type": "uint256",
          "internalType": "uint256"
        }
      ],
      "stateMutability": "view"
    },
    {
      "type": "function",
      "name": "implementation",
      "inputs": [],
      "outputs": [
        {
          "name": "implementation_",
          "type": "address",
          "internalType": "address"
        }
      ],
      "stateMutability": "view"
    },
    {
      "type": "function",
      "name": "isCommandExecuted",
      "inputs": [
        {
          "name": "commandId",
          "type": "bytes32",
          "internalType": "bytes32"
        }
      ],
      "outputs": [
        {
          "name": "",
          "type": "bool",
          "internalType": "bool"
        }
      ],
      "stateMutability": "view"
    },
    {
      "type": "function",
      "name": "isContractCallApproved",
      "inputs": [
        {
          "name": "commandId",
          "type": "bytes32",
          "internalType": "bytes32"
        },
        {
          "name": "sourceChain",
          "type": "string",
          "internalType": "string"
        },
        {
          "name": "sourceAddress",
          "type": "string",
          "internalType": "string"
        },
        {
          "name": "contractAddress",
          "type": "address",
          "internalType": "address"
        },
        {
          "name": "payloadHash",
          "type": "bytes32",
          "internalType": "bytes32"
        }
      ],
      "outputs": [
        {
          "name": "",
          "type": "bool",
          "internalType": "bool"
        }
      ],
      "stateMutability": "view"
    },
    {
      "type": "function",
      "name": "isMessageApproved",
      "inputs": [
        {
          "name": "sourceChain",
          "type": "string",
          "internalType": "string"
        },
        {
          "name": "messageId",
          "type": "string",
          "internalType": "string"
        },
        {
          "name": "sourceAddress",
          "type": "string",
          "internalType": "string"
        },
        {
          "name": "contractAddress",
          "type": "address",
          "internalType": "address"
        },
        {
          "name": "payloadHash",
          "type": "bytes32",
          "internalType": "bytes32"
        }
      ],
      "outputs": [
        {
          "name": "",
          "type": "bool",
          "internalType": "bool"
        }
      ],
      "stateMutability": "view"
    },
    {
      "type": "function",
      "name": "isMessageExecuted",
      "inputs": [
        {
          "name": "sourceChain",
          "type": "string",
          "internalType": "string"
        },
        {
          "name": "messageId",
          "type": "string",
          "internalType": "string"
        }
      ],
      "outputs": [
        {
          "name": "",
          "type": "bool",
          "internalType": "bool"
        }
      ],
      "stateMutability": "view"
    },
    {
      "type": "function",
      "name": "lastRotationTimestamp",
      "inputs": [],
      "outputs": [
        {
          "name": "",
          "type": "uint256",
          "internalType": "uint256"
        }
      ],
      "stateMutability": "view"
    },
    {
      "type": "function",
      "name": "messageHashToSign",
      "inputs": [
        {
          "name": "signersHash",
          "type": "bytes32",
          "internalType": "bytes32"
        },
        {
          "name": "dataHash",
          "type": "bytes32",
          "internalType": "bytes32"
        }
      ],
      "outputs": [
        {
          "name": "",
          "type": "bytes32",
          "internalType": "bytes32"
        }
      ],
      "stateMutability": "view"
    },
    {
      "type": "function",
      "name": "messageToCommandId",
      "inputs": [
        {
          "name": "sourceChain",
          "type": "string",
          "internalType": "string"
        },
        {
          "name": "messageId",
          "type": "string",
          "internalType": "string"
        }
      ],
      "outputs": [
        {
          "name": "",
          "type": "bytes32",
          "internalType": "bytes32"
        }
      ],
      "stateMutability": "pure"
    },
    {
      "type": "function",
      "name": "minimumRotationDelay",
      "inputs": [],
      "outputs": [
        {
          "name": "",
          "type": "uint256",
          "internalType": "uint256"
        }
      ],
      "stateMutability": "view"
    },
    {
      "type": "function",
      "name": "operator",
      "inputs": [],
      "outputs": [
        {
          "name": "",
          "type": "address",
          "internalType": "address"
        }
      ],
      "stateMutability": "view"
    },
    {
      "type": "function",
      "name": "owner",
      "inputs": [],
      "outputs": [
        {
          "name": "owner_",
          "type": "address",
          "internalType": "address"
        }
      ],
      "stateMutability": "view"
    },
    {
      "type": "function",
      "name": "pendingOwner",
      "inputs": [],
      "outputs": [
        {
          "name": "owner_",
          "type": "address",
          "internalType": "address"
        }
      ],
      "stateMutability": "view"
    },
    {
      "type": "function",
      "name": "previousSignersRetention",
      "inputs": [],
      "outputs": [
        {
          "name": "",
          "type": "uint256",
          "internalType": "uint256"
        }
      ],
      "stateMutability": "view"
    },
    {
      "type": "function",
      "name": "proposeOwnership",
      "inputs": [
        {
          "name": "newOwner",
          "type": "address",
          "internalType": "address"
        }
      ],
      "outputs": [],
      "stateMutability": "nonpayable"
    },
    {
      "type": "function",
      "name": "rotateSigners",
      "inputs": [
        {
          "name": "newSigners",
          "type": "tuple",
          "internalType": "struct WeightedSigners",
          "components": [
            {
              "name": "signers",
              "type": "tuple[]",
              "internalType": "struct WeightedSigner[]",
              "components": [
                {
                  "name": "signer",
                  "type": "address",
                  "internalType": "address"
                },
                {
                  "name": "weight",
                  "type": "uint128",
                  "internalType": "uint128"
                }
              ]
            },
            {
              "name": "threshold",
              "type": "uint128",
              "internalType": "uint128"
            },
            {
              "name": "nonce",
              "type": "bytes32",
              "internalType": "bytes32"
            }
          ]
        },
        {
          "name": "proof",
          "type": "tuple",
          "internalType": "struct Proof",
          "components": [
            {
              "name": "signers",
              "type": "tuple",
              "internalType": "struct WeightedSigners",
              "components": [
                {
                  "name": "signers",
                  "type": "tuple[]",
                  "internalType": "struct WeightedSigner[]",
                  "components": [
                    {
                      "name": "signer",
                      "type": "address",
                      "internalType": "address"
                    },
                    {
                      "name": "weight",
                      "type": "uint128",
                      "internalType": "uint128"
                    }
                  ]
                },
                {
                  "name": "threshold",
                  "type": "uint128",
                  "internalType": "uint128"
                },
                {
                  "name": "nonce",
                  "type": "bytes32",
                  "internalType": "bytes32"
                }
              ]
            },
            {
              "name": "signatures",
              "type": "bytes[]",
              "internalType": "bytes[]"
            }
          ]
        }
      ],
      "outputs": [],
      "stateMutability": "nonpayable"
    },
    {
      "type": "function",
      "name": "setup",
      "inputs": [
        {
          "name": "data",
          "type": "bytes",
          "internalType": "bytes"
        }
      ],
      "outputs": [],
      "stateMutability": "nonpayable"
    },
    {
      "type": "function",
      "name": "signersHashByEpoch",
      "inputs": [
        {
          "name": "signerEpoch",
          "type": "uint256",
          "internalType": "uint256"
        }
      ],
      "outputs": [
        {
          "name": "",
          "type": "bytes32",
          "internalType": "bytes32"
        }
      ],
      "stateMutability": "view"
    },
    {
      "type": "function",
      "name": "timeSinceRotation",
      "inputs": [],
      "outputs": [
        {
          "name": "",
          "type": "uint256",
          "internalType": "uint256"
        }
      ],
      "stateMutability": "view"
    },
    {
      "type": "function",
      "name": "transferOperatorship",
      "inputs": [
        {
          "name": "newOperator",
          "type": "address",
          "internalType": "address"
        }
      ],
      "outputs": [],
      "stateMutability": "nonpayable"
    },
    {
      "type": "function",
      "name": "transferOwnership",
      "inputs": [
        {
          "name": "newOwner",
          "type": "address",
          "internalType": "address"
        }
      ],
      "outputs": [],
      "stateMutability": "nonpayable"
    },
    {
      "type": "function",
      "name": "upgrade",
      "inputs": [
        {
          "name": "newImplementation",
          "type": "address",
          "internalType": "address"
        },
        {
          "name": "newImplementationCodeHash",
          "type": "bytes32",
          "internalType": "bytes32"
        },
        {
          "name": "params",
          "type": "bytes",
          "internalType": "bytes"
        }
      ],
      "outputs": [],
      "stateMutability": "nonpayable"
    },
    {
      "type": "function",
      "name": "validateContractCall",
      "inputs": [
        {
          "name": "commandId",
          "type": "bytes32",
          "internalType": "bytes32"
        },
        {
          "name": "sourceChain",
          "type": "string",
          "internalType": "string"
        },
        {
          "name": "sourceAddress",
          "type": "string",
          "internalType": "string"
        },
        {
          "name": "payloadHash",
          "type": "bytes32",
          "internalType": "bytes32"
        }
      ],
      "outputs": [
        {
          "name": "valid",
          "type": "bool",
          "internalType": "bool"
        }
      ],
      "stateMutability": "nonpayable"
    },
    {
      "type": "function",
      "name": "validateMessage",
      "inputs": [
        {
          "name": "sourceChain",
          "type": "string",
          "internalType": "string"
        },
        {
          "name": "messageId",
          "type": "string",
          "internalType": "string"
        },
        {
          "name": "sourceAddress",
          "type": "string",
          "internalType": "string"
        },
        {
          "name": "payloadHash",
          "type": "bytes32",
          "internalType": "bytes32"
        }
      ],
      "outputs": [
        {
          "name": "valid",
          "type": "bool",
          "internalType": "bool"
        }
      ],
      "stateMutability": "nonpayable"
    },
    {
      "type": "function",
      "name": "validateProof",
      "inputs": [
        {
          "name": "dataHash",
          "type": "bytes32",
          "internalType": "bytes32"
        },
        {
          "name": "proof",
          "type": "tuple",
          "internalType": "struct Proof",
          "components": [
            {
              "name": "signers",
              "type": "tuple",
              "internalType": "struct WeightedSigners",
              "components": [
                {
                  "name": "signers",
                  "type": "tuple[]",
                  "internalType": "struct WeightedSigner[]",
                  "components": [
                    {
                      "name": "signer",
                      "type": "address",
                      "internalType": "address"
                    },
                    {
                      "name": "weight",
                      "type": "uint128",
                      "internalType": "uint128"
                    }
                  ]
                },
                {
                  "name": "threshold",
                  "type": "uint128",
                  "internalType": "uint128"
                },
                {
                  "name": "nonce",
                  "type": "bytes32",
                  "internalType": "bytes32"
                }
              ]
            },
            {
              "name": "signatures",
              "type": "bytes[]",
              "internalType": "bytes[]"
            }
          ]
        }
      ],
      "outputs": [
        {
          "name": "isLatestSigners",
          "type": "bool",
          "internalType": "bool"
        }
      ],
      "stateMutability": "view"
    },
    {
      "type": "event",
      "name": "ContractCall",
      "inputs": [
        {
          "name": "sender",
          "type": "address",
          "indexed": true,
          "internalType": "address"
        },
        {
          "name": "destinationChain",
          "type": "string",
          "indexed": false,
          "internalType": "string"
        },
        {
          "name": "destinationContractAddress",
          "type": "string",
          "indexed": false,
          "internalType": "string"
        },
        {
          "name": "payloadHash",
          "type": "bytes32",
          "indexed": true,
          "internalType": "bytes32"
        },
        {
          "name": "payload",
          "type": "bytes",
          "indexed": false,
          "internalType": "bytes"
        }
      ],
      "anonymous": false
    },
    {
      "type": "event",
      "name": "MessageApproved",
      "inputs": [
        {
          "name": "commandId",
          "type": "bytes32",
          "indexed": true,
          "internalType": "bytes32"
        },
        {
          "name": "sourceChain",
          "type": "string",
          "indexed": false,
          "internalType": "string"
        },
        {
          "name": "messageId",
          "type": "string",
          "indexed": false,
          "internalType": "string"
        },
        {
          "name": "sourceAddress",
          "type": "string",
          "indexed": false,
          "internalType": "string"
        },
        {
          "name": "contractAddress",
          "type": "address",
          "indexed": true,
          "internalType": "address"
        },
        {
          "name": "payloadHash",
          "type": "bytes32",
          "indexed": true,
          "internalType": "bytes32"
        }
      ],
      "anonymous": false
    },
    {
      "type": "event",
      "name": "MessageExecuted",
      "inputs": [
        {
          "name": "commandId",
          "type": "bytes32",
          "indexed": true,
          "internalType": "bytes32"
        }
      ],
      "anonymous": false
    },
    {
      "type": "event",
      "name": "OperatorshipTransferred",
      "inputs": [
        {
          "name": "newOperator",
          "type": "address",
          "indexed": false,
          "internalType": "address"
        }
      ],
      "anonymous": false
    },
    {
      "type": "event",
      "name": "OwnershipTransferStarted",
      "inputs": [
        {
          "name": "newOwner",
          "type": "address",
          "indexed": true,
          "internalType": "address"
        }
      ],
      "anonymous": false
    },
    {
      "type": "event",
      "name": "OwnershipTransferred",
      "inputs": [
        {
          "name": "newOwner",
          "type": "address",
          "indexed": true,
          "internalType": "address"
        }
      ],
      "anonymous": false
    },
    {
      "type": "event",
      "name": "SignersRotated",
      "inputs": [
        {
          "name": "epoch",
          "type": "uint256",
          "indexed": true,
          "internalType": "uint256"
        },
        {
          "name": "signersHash",
          "type": "bytes32",
          "indexed": true,
          "internalType": "bytes32"
        },
        {
          "name": "signers",
          "type": "bytes",
          "indexed": false,
          "internalType": "bytes"
        }
      ],
      "anonymous": false
    },
    {
      "type": "event",
      "name": "Upgraded",
      "inputs": [
        {
          "name": "newImplementation",
          "type": "address",
          "indexed": true,
          "internalType": "address"
        }
      ],
      "anonymous": false
    },
    {
      "type": "error",
      "name": "DuplicateSigners",
      "inputs": [
        {
          "name": "signersHash",
          "type": "bytes32",
          "internalType": "bytes32"
        }
      ]
    },
    {
      "type": "error",
      "name": "InsufficientRotationDelay",
      "inputs": [
        {
          "name": "minimumRotationDelay",
          "type": "uint256",
          "internalType": "uint256"
        },
        {
          "name": "lastRotationTimestamp",
          "type": "uint256",
          "internalType": "uint256"
        },
        {
          "name": "timeElapsed",
          "type": "uint256",
          "internalType": "uint256"
        }
      ]
    },
    {
      "type": "error",
      "name": "InvalidCodeHash",
      "inputs": []
    },
    {
      "type": "error",
      "name": "InvalidImplementation",
      "inputs": []
    },
    {
      "type": "error",
      "name": "InvalidMessages",
      "inputs": []
    },
    {
      "type": "error",
      "name": "InvalidOwner",
      "inputs": []
    },
    {
      "type": "error",
      "name": "InvalidOwnerAddress",
      "inputs": []
    },
    {
      "type": "error",
      "name": "InvalidS",
      "inputs": []
    },
    {
      "type": "error",
      "name": "InvalidSender",
      "inputs": [
        {
          "name": "sender",
          "type": "address",
          "internalType": "address"
        }
      ]
    },
    {
      "type": "error",
      "name": "InvalidSignature",
      "inputs": []
    },
    {
      "type": "error",
      "name": "InvalidSignatureLength",
      "inputs": []
    },
    {
      "type": "error",
      "name": "InvalidSigners",
      "inputs": []
    },
    {
      "type": "error",
      "name": "InvalidThreshold",
      "inputs": []
    },
    {
      "type": "error",
      "name": "InvalidV",
      "inputs": []
    },
    {
      "type": "error",
      "name": "InvalidWeights",
      "inputs": []
    },
    {
      "type": "error",
      "name": "LowSignaturesWeight",
      "inputs": []
    },
    {
      "type": "error",
      "name": "MalformedSignatures",
      "inputs": []
    },
    {
      "type": "error",
      "name": "NotLatestSigners",
      "inputs": []
    },
    {
      "type": "error",
      "name": "NotOwner",
      "inputs": []
    },
    {
      "type": "error",
      "name": "NotProxy",
      "inputs": []
    },
    {
      "type": "error",
      "name": "RedundantSignaturesProvided",
      "inputs": [
        {
          "name": "required",
          "type": "uint256",
          "internalType": "uint256"
        },
        {
          "name": "provided",
          "type": "uint256",
          "internalType": "uint256"
        }
      ]
    },
    {
      "type": "error",
      "name": "SetupFailed",
      "inputs": []
    }
  ],
  "bytecode": {
    "object": "0x610100604052348015610010575f80fd5b506040516127d33803806127d383398101604081905261002f916100f8565b608083905260a082905260c0819052600161004981610057565b50503060e052506101239050565b6001600160a01b03811661007e57604051633649397d60e21b815260040160405180910390fd5b6040516001600160a01b038216907f04dba622d284ed0014ee4b9a6a68386be1a4c08a4913ae272de89199cc686163905f90a27f02016836a56b71f0d02689e69e326f4f4c1b9057164ef592671cf0d37c8040c0555f7f9855384122b55936fbfb8ca5120e63c6537a1ac40caf6ae33502b3c5da8c87d155565b5f805f6060848603121561010a575f80fd5b5050815160208301516040909301519094929350919050565b60805160a05160c05160e0516126616101725f395f6108bd01525f81816104c201528181611433015261146501525f81816104fc0152610c7901525f818161036e0152610d4b01526126615ff3fe608060405234801561000f575f80fd5b50600436106101dc575f3560e01c80638da5cb5b11610109578063e30c39781161009e578063f2fde38b1161006e578063f2fde38b146104e4578063f698da25146104f7578063f6a5f9f51461051e578063fd721b4714610531575f80fd5b8063e30c397814610482578063eb215f2814610496578063f10bfaa1146104aa578063f2213d37146104bd575f80fd5b8063a3499c73116100d9578063a3499c73146103f1578063cba5be6a14610404578063d26ff21014610417578063d435b83e14610444575f80fd5b80638da5cb5b146103905780638f686dc4146103a4578063900cf0cf146103b75780639ded06df146103de575f80fd5b8063570ca7351161017f578063710bf3221161014f578063710bf3221461032857806379ba50971461033b5780638291286c146103435780638c212aa514610369575f80fd5b8063570ca735146102aa5780635c60da1b146102db5780635f6970c31461030257806364f1d85a14610315575f80fd5b80632fbceb4f116101ba5780632fbceb4f14610230578063377fff55146102515780634091c6d5146102595780634a6a42d814610297575f80fd5b8063116399e4146101e05780631c92115f146102085780631d92c0bf1461021d575b5f80fd5b6101f36101ee366004611772565b610544565b60405190151581526020015b60405180910390f35b61021b6102163660046117f9565b610556565b005b61021b61022b366004611a69565b6105c1565b61024361023e366004611ab6565b610659565b6040519081526020016101ff565b610243610691565b610243610267366004611b20565b5f9081527f457f3fc26bf430b020fe76358b1bfaba57e1657ace718da6437cda9934eabfeb602052604090205490565b61021b6102a5366004611b37565b6106b1565b5f805160206125b5833981519152546001600160a01b03165b6040516001600160a01b0390911681526020016101ff565b7f360894a13ba1a3210667c828492db98dca3e2076cc3735a920a3ca505d382bbc546102c3565b6101f3610310366004611b52565b610735565b61021b610323366004611bd1565b61074f565b61021b610336366004611b37565b610798565b61021b610840565b7fd10cce6f0e3f6dc9eb8280c32952dc6e4759d0519c550c55d0f8747d13a64bfd610243565b6102437f000000000000000000000000000000000000000000000000000000000000000081565b5f805160206125d5833981519152546102c3565b6101f36103b2366004611c66565b61088d565b7f457f3fc26bf430b020fe76358b1bfaba57e1657ace718da6437cda9934eabfe854610243565b61021b6103ec366004611d1e565b6108ba565b61021b6103ff366004611d5c565b61090d565b6101f3610412366004611ab6565b610b93565b6101f3610425366004611b20565b5f9081525f805160206125f58339815191526020526040902054151590565b610243610452366004611b20565b5f9081527f457f3fc26bf430b020fe76358b1bfaba57e1657ace718da6437cda9934eabfea602052604090205490565b5f80516020612635833981519152546102c3565b5f8051602061261583398151915254610243565b6101f36104b8366004611d9b565b610bca565b6102437f000000000000000000000000000000000000000000000000000000000000000081565b61021b6104f2366004611b37565b610bf5565b6102437f000000000000000000000000000000000000000000000000000000000000000081565b6101f361052c366004611e3f565b610c32565b61024361053f366004611ed3565b610c4e565b5f61054f8383610ccf565b9392505050565b8181604051610566929190611ef3565b6040518091039020336001600160a01b03167f30ae6cc78c27e651745bf2ad08a11de83910ac1e347a52f7ac898c0fbef94dae8888888888886040516105b196959493929190611f2a565b60405180910390a3505050505050565b5f6001836040516020016105d6929190612015565b6040516020818303038152906040528051906020012090505f6106035f805160206125b583398151915290565b546001600160a01b031633141590505f61061d8385610ccf565b905081801561062a575080155b15610648576040516341f7d76160e11b815260040160405180910390fd5b6106528583610dc4565b5050505050565b5f84848484604051602001610671949392919061203c565b604051602081830303815290604052805190602001209050949350505050565b5f80516020612615833981519152545f906106ac9042612079565b905090565b5f805160206125b58339815191525433906001600160a01b031681148015906106fa57505f805160206125d5833981519152546001600160a01b0316816001600160a01b031614155b15610728576040516313053d9360e21b81526001600160a01b03821660048201526024015b60405180910390fd5b61073182610ec2565b5050565b5f610744878787878787610f23565b979650505050505050565b5f808484604051602001610765939291906120cd565b6040516020818303038152906040528051906020012090506107878183610ccf565b506107928484610faa565b50505050565b336107ae5f805160206125d58339815191525490565b6001600160a01b0316146107d5576040516330cd747160e01b815260040160405180910390fd5b6001600160a01b0381166107fc57604051633649397d60e21b815260040160405180910390fd5b6040516001600160a01b038216907fd9be0e8e07417e00f2521db636cb53e316fd288f5051f16d2aa2bf0c3938a876905f90a25f8051602061263583398151915255565b5f6108565f805160206126358339815191525490565b90506001600160a01b0381163314610881576040516349e27cff60e01b815260040160405180910390fd5b61088a8161100a565b50565b5f8061089b8a8a8a8a610659565b90506108ac818b8b89898989611085565b9a9950505050505050505050565b307f00000000000000000000000000000000000000000000000000000000000000006001600160a01b03160361090357604051635f886e9d60e11b815260040160405180910390fd5b61073182826110c0565b336109235f805160206125d58339815191525490565b6001600160a01b03161461094a576040516330cd747160e01b815260040160405180910390fd5b7f360894a13ba1a3210667c828492db98dca3e2076cc3735a920a3ca505d382bbc546001600160a01b0316638291286c6040518163ffffffff1660e01b8152600401602060405180830381865afa1580156109a7573d5f803e3d5ffd5b505050506040513d601f19601f820116820180604052508101906109cb91906121d2565b846001600160a01b0316638291286c6040518163ffffffff1660e01b8152600401602060405180830381865afa158015610a07573d5f803e3d5ffd5b505050506040513d601f19601f82011682018060405250810190610a2b91906121d2565b14610a495760405163340aafcd60e11b815260040160405180910390fd5b836001600160a01b03163f8314610a73576040516323e13ec960e21b815260040160405180910390fd5b7f360894a13ba1a3210667c828492db98dca3e2076cc3735a920a3ca505d382bbc8490556040516001600160a01b038516907fbc7cd75a20ee27fd9adebab32041f755214dbc6bffa90cc0225b39da2e5c2d3b905f90a28015610792575f846001600160a01b0316639ded06df60e01b8484604051602401610af69291906121e9565b60408051601f198184030181529181526020820180516001600160e01b03166001600160e01b0319909416939093179092529051610b34919061221e565b5f60405180830381855af49150503d805f8114610b6c576040519150601f19603f3d011682016040523d82523d5f602084013e610b71565b606091505b5050905080610652576040516397905dfb60e01b815260040160405180910390fd5b5f60015f805160206125f58339815191525f610bb188888888610659565b81526020019081526020015f2054149050949350505050565b5f80610bd889898989610659565b9050610be8818a8a888888610f23565b9998505050505050505050565b33610c0b5f805160206125d58339815191525490565b6001600160a01b031614610881576040516330cd747160e01b815260040160405180910390fd5b5f610c4288888888888888611085565b98975050505050505050565b6040517f19457468657265756d205369676e6564204d6573736167653a0a39360000000060208201527f0000000000000000000000000000000000000000000000000000000000000000603c820152605c8101839052607c81018290525f90609c016040516020818303038152906040528051906020012090505b92915050565b5f7f457f3fc26bf430b020fe76358b1bfaba57e1657ace718da6437cda9934eabfe836610cfc8480612239565b90505f81604051602001610d10919061224d565b60408051601f1981840301815291815281516020928301205f818152600387019093529120548454808214965091925090811580610d7657507f0000000000000000000000000000000000000000000000000000000000000000610d748383612079565b115b15610d9457604051635e231fff60e01b815260040160405180910390fd5b5f610d9f848a610c4e565b9050610db88186610db360208c018c612328565b611121565b50505050505092915050565b7f457f3fc26bf430b020fe76358b1bfaba57e1657ace718da6437cda9934eabfe8610dee836112fb565b610df782611419565b5f83604051602001610e09919061236d565b60408051601f19818403018152919052805160208201208354919250905f90610e3390600161237f565b8085555f81815260028601602090815260408083208690558583526003880190915290205490915015610e7c57604051634311167960e01b81526004810183905260240161071f565b5f8281526003850160205260409081902082905551829082907fe7cf1d3405bd906f8500af030e1130f3affbe991be73471a0d3983fe3ca61ebc906105b1908790612392565b805f805160206125b583398151915280546001600160a01b0319166001600160a01b0392831617905560405190821681527f1e3390359ca00dde8f3438aa04eceb3ee726e628c7daf84d23cc9619fcefdcb79060200160405180910390a150565b5f80610f34888888888833896114cc565b5f8981525f805160206125f583398151915260205260409020548114925090508115610f9f575f8881525f805160206125f58339815191526020526040808220600190555189917fe7d1e1f435233f7a187624ac11afaf32ee0da368cef8a5625be394412f61925491a25b509695505050505050565b805f819003610fcc57604051634eac1fe560e11b815260040160405180910390fd5b5f5b8181101561079257611002848483818110610feb57610feb6123c4565b9050602002810190610ffd91906123d8565b61150d565b600101610fce565b6001600160a01b03811661103157604051633649397d60e21b815260040160405180910390fd5b6040516001600160a01b038216907f04dba622d284ed0014ee4b9a6a68386be1a4c08a4913ae272de89199cc686163905f90a25f805160206125d5833981519152555f5f8051602061263583398151915255565b5f80611096898989898989896114cc565b5f998a525f805160206125f583398151915260205260409099205490981498975050505050505050565b5f806110ce838501856123ec565b90925090506001600160a01b038216156110eb576110eb82610ec2565b5f5b81518110156106525761111982828151811061110b5761110b6123c4565b60200260200101515f610dc4565b6001016110ed565b365f61112d85806124b0565b909250905080835f80805b838110156112e1575f6111a28c8b8b85818110611157576111576123c4565b905060200281019061116991906124f5565b8080601f0160208091040260200160405190810160405280939291908181526020018383808284375f9201919091525061162492505050565b90505b85841080156111ed57508787858181106111c1576111c16123c4565b6111d79260206040909202019081019150611b37565b6001600160a01b0316816001600160a01b031614155b15611202576111fb84612537565b93506111a5565b85840361122257604051630c37c53960e11b815260040160405180910390fd5b878785818110611234576112346123c4565b905060400201602001602081019061124c919061254f565b61125f906001600160801b03168461237f565b925061127160408c0160208d0161254f565b6001600160801b031683106112cd578461128c83600161237f565b0361129e575050505050505050610792565b6112a982600161237f565b6040516392b48b4f60e01b815260048101919091526024810186905260440161071f565b6112d684612537565b935050600101611138565b50604051630407644b60e31b815260040160405180910390fd5b805180515f81810361132057604051635e231fff60e01b815260040160405180910390fd5b5f805b838110156113cf575f85828151811061133e5761133e6123c4565b602002602001015190505f815f01519050806001600160a01b0316846001600160a01b03161061138157604051635e231fff60e01b815260040160405180910390fd5b8093505f82602001516001600160801b03169050805f036113b55760405163108cef9d60e31b815260040160405180910390fd5b6113bf818761237f565b9550505050806001019050611323565b5060208501516001600160801b03811615806113f35750806001600160801b031683105b156114115760405163aabd5a0960e01b815260040160405180910390fd5b505050505050565b5f80516020612615833981519152544282801561145e57507f000000000000000000000000000000000000000000000000000000000000000061145c8383612079565b105b156114b9577f00000000000000000000000000000000000000000000000000000000000000008261148f8184612079565b60405163767479ad60e01b815260048101939093526024830191909152604482015260640161071f565b5f80516020612615833981519152555050565b5f878787878787876040516020016114ea9796959493929190612568565b604051602081830303815290604052805190602001209050979650505050505050565b5f61152861151b83806124f5565b61023e60208601866124f5565b5f8181525f805160206125f583398151915260205260409020549091501561154e575050565b5f6115848261155d85806124f5565b61156a60408801886124f5565b61157a60808a0160608b01611b37565b89608001356114cc565b5f8381525f805160206125f5833981519152602052604090208190559050608083018035906115b69060608601611b37565b6001600160a01b0316837fcda53a2698efcca41b57faaddeb19bcb237bb1c71b479721fcc3a6fd41ba80976115eb87806124f5565b6115f860208a018a6124f5565b61160560408c018c6124f5565b60405161161796959493929190611f2a565b60405180910390a4505050565b5f815160411461164757604051634be6321b60e01b815260040160405180910390fd5b6020820151604083015160608401515f1a7f7fffffffffffffffffffffffffffffff5d576e7357a4501ddfe92f46681b20a0821115611699576040516308183ce960e31b815260040160405180910390fd5b8060ff16601b141580156116b157508060ff16601c14155b156116cf5760405163119bce3960e01b815260040160405180910390fd5b604080515f81526020810180835288905260ff831691810191909152606081018490526080810183905260019060a0016020604051602081039080840390855afa15801561171f573d5f803e3d5ffd5b5050604051601f1901519450506001600160a01b03841661175357604051638baa579f60e01b815260040160405180910390fd5b50505092915050565b5f6040828403121561176c575f80fd5b50919050565b5f8060408385031215611783575f80fd5b8235915060208301356001600160401b0381111561179f575f80fd5b6117ab8582860161175c565b9150509250929050565b5f8083601f8401126117c5575f80fd5b5081356001600160401b038111156117db575f80fd5b6020830191508360208285010111156117f2575f80fd5b9250929050565b5f805f805f806060878903121561180e575f80fd5b86356001600160401b03811115611823575f80fd5b61182f89828a016117b5565b90975095505060208701356001600160401b0381111561184d575f80fd5b61185989828a016117b5565b90955093505060408701356001600160401b03811115611877575f80fd5b61188389828a016117b5565b979a9699509497509295939492505050565b634e487b7160e01b5f52604160045260245ffd5b604051606081016001600160401b03811182821017156118cb576118cb611895565b60405290565b604080519081016001600160401b03811182821017156118cb576118cb611895565b604051601f8201601f191681016001600160401b038111828210171561191b5761191b611895565b604052919050565b5f6001600160401b0382111561193b5761193b611895565b5060051b60200190565b6001600160a01b038116811461088a575f80fd5b80356001600160801b038116811461196f575f80fd5b919050565b5f60608284031215611984575f80fd5b61198c6118a9565b905081356001600160401b038111156119a3575f80fd5b8201601f810184136119b3575f80fd5b80356119c66119c182611923565b6118f3565b8082825260208201915060208360061b8501019250868311156119e7575f80fd5b6020840193505b82841015611a405760408488031215611a05575f80fd5b611a0d6118d1565b8435611a1881611945565b8152611a2660208601611959565b6020820152808352506020820191506040840193506119ee565b845250611a5291505060208301611959565b602082015260409182013591810191909152919050565b5f8060408385031215611a7a575f80fd5b82356001600160401b03811115611a8f575f80fd5b611a9b85828601611974565b92505060208301356001600160401b0381111561179f575f80fd5b5f805f8060408587031215611ac9575f80fd5b84356001600160401b03811115611ade575f80fd5b611aea878288016117b5565b90955093505060208501356001600160401b03811115611b08575f80fd5b611b14878288016117b5565b95989497509550505050565b5f60208284031215611b30575f80fd5b5035919050565b5f60208284031215611b47575f80fd5b813561054f81611945565b5f805f805f8060808789031215611b67575f80fd5b8635955060208701356001600160401b03811115611b83575f80fd5b611b8f89828a016117b5565b90965094505060408701356001600160401b03811115611bad575f80fd5b611bb989828a016117b5565b979a9699509497949695606090950135949350505050565b5f805f60408486031215611be3575f80fd5b83356001600160401b03811115611bf8575f80fd5b8401601f81018613611c08575f80fd5b80356001600160401b03811115611c1d575f80fd5b8660208260051b8401011115611c31575f80fd5b6020918201945092508401356001600160401b03811115611c50575f80fd5b611c5c8682870161175c565b9150509250925092565b5f805f805f805f8060a0898b031215611c7d575f80fd5b88356001600160401b03811115611c92575f80fd5b611c9e8b828c016117b5565b90995097505060208901356001600160401b03811115611cbc575f80fd5b611cc88b828c016117b5565b90975095505060408901356001600160401b03811115611ce6575f80fd5b611cf28b828c016117b5565b9095509350506060890135611d0681611945565b979a9699509497939692959194509192608001359150565b5f8060208385031215611d2f575f80fd5b82356001600160401b03811115611d44575f80fd5b611d50858286016117b5565b90969095509350505050565b5f805f8060608587031215611d6f575f80fd5b8435611d7a81611945565b93506020850135925060408501356001600160401b03811115611b08575f80fd5b5f805f805f805f6080888a031215611db1575f80fd5b87356001600160401b03811115611dc6575f80fd5b611dd28a828b016117b5565b90985096505060208801356001600160401b03811115611df0575f80fd5b611dfc8a828b016117b5565b90965094505060408801356001600160401b03811115611e1a575f80fd5b611e268a828b016117b5565b989b979a50959894979596606090950135949350505050565b5f805f805f805f60a0888a031215611e55575f80fd5b8735965060208801356001600160401b03811115611e71575f80fd5b611e7d8a828b016117b5565b90975095505060408801356001600160401b03811115611e9b575f80fd5b611ea78a828b016117b5565b9095509350506060880135611ebb81611945565b96999598509396929591949193505060809091013590565b5f8060408385031215611ee4575f80fd5b50508035926020909101359150565b818382375f9101908152919050565b81835281816020850137505f828201602090810191909152601f909101601f19169091010190565b606081525f611f3d60608301888a611f02565b8281036020840152611f50818789611f02565b90508281036040840152610be8818587611f02565b60028110611f8157634e487b7160e01b5f52602160045260245ffd5b9052565b8051606080845281519084018190525f9160200190829060808601905b80831015611fe257835180516001600160a01b031683526020908101516001600160801b0316818401529093019260019290920191604090910190611fa2565b5060208501519250611fff60208701846001600160801b03169052565b6040850151604087015280935050505092915050565b61201f8184611f65565b604060208201525f6120346040830184611f85565b949350505050565b838582375f848201605f60f81b8152838560018301375f93016001019283525090949350505050565b634e487b7160e01b5f52601160045260245ffd5b81810381811115610cc957610cc9612065565b5f808335601e198436030181126120a1575f80fd5b83016020810192503590506001600160401b038111156120bf575f80fd5b8036038213156117f2575f80fd5b5f604082016120dc8387611f65565b604060208401528390526060600584901b83018101908301855f609e1936839003015b878210156121c457868503605f19018452823581811261211d575f80fd5b8901612129818061208c565b60a0885261213b60a089018284611f02565b91505061214b602083018361208c565b88830360208a015261215e838284611f02565b9250505061216f604083018361208c565b88830360408a0152612182838284611f02565b92505050606082013561219481611945565b6001600160a01b0316606088015260809182013591909601526020938401939290920191600191909101906120ff565b509298975050505050505050565b5f602082840312156121e2575f80fd5b5051919050565b602081525f612034602083018486611f02565b5f5b838110156122165781810151838201526020016121fe565b50505f910152565b5f825161222f8184602087016121fc565b9190910192915050565b5f8235605e1983360301811261222f575f80fd5b602081525f608082018335601e19853603018112612269575f80fd5b84016020810190356001600160401b03811115612284575f80fd5b8060061b3603821315612295575f80fd5b6060602086015291829052905f9060a085015b818310156122f35783356122bb81611945565b6001600160a01b031681526001600160801b036122da60208601611959565b16602082015260409384019360019390930192016122a8565b6122ff60208801611959565b6001600160801b0316604087810191909152969096013560609095019490945250929392505050565b5f808335601e1984360301811261233d575f80fd5b8301803591506001600160401b03821115612356575f80fd5b6020019150600581901b36038213156117f2575f80fd5b602081525f61054f6020830184611f85565b80820180821115610cc957610cc9612065565b602081525f82518060208401526123b08160408501602087016121fc565b601f01601f19169190910160400192915050565b634e487b7160e01b5f52603260045260245ffd5b5f8235609e1983360301811261222f575f80fd5b5f80604083850312156123fd575f80fd5b823561240881611945565b915060208301356001600160401b03811115612422575f80fd5b8301601f81018513612432575f80fd5b80356124406119c182611923565b8082825260208201915060208360051b850101925087831115612461575f80fd5b602084015b838110156124a15780356001600160401b03811115612483575f80fd5b6124928a602083890101611974565b84525060209283019201612466565b50809450505050509250929050565b5f808335601e198436030181126124c5575f80fd5b8301803591506001600160401b038211156124de575f80fd5b6020019150600681901b36038213156117f2575f80fd5b5f808335601e1984360301811261250a575f80fd5b8301803591506001600160401b03821115612523575f80fd5b6020019150368190038213156117f2575f80fd5b5f6001820161254857612548612065565b5060010190565b5f6020828403121561255f575f80fd5b61054f82611959565b87815260a060208201525f61258160a08301888a611f02565b8281036040840152612594818789611f02565b6001600160a01b039590951660608401525050608001529594505050505056feca458dc12368669a3b8c292bc21c1b887ab1aa386fa3fcc1ed972afd74a330ca02016836a56b71f0d02689e69e326f4f4c1b9057164ef592671cf0d37c8040c0978b1ab9e384397ce0aab28eec0e3c25603b3210984045ad0e0f0a50d88cfc55457f3fc26bf430b020fe76358b1bfaba57e1657ace718da6437cda9934eabfe99855384122b55936fbfb8ca5120e63c6537a1ac40caf6ae33502b3c5da8c87d1a164736f6c634300081a000a",
    "linkReferences": {}
  },
  "methodIdentifiers": {
    "acceptOwnership()": "79ba5097",
    "approveMessages((string,string,string,address,bytes32)[],(((address,uint128)[],uint128,bytes32),bytes[]))": "64f1d85a",
    "callContract(string,string,bytes)": "1c92115f",
    "contractId()": "8291286c",
    "domainSeparator()": "f698da25",
    "epoch()": "900cf0cf",
    "epochBySignersHash(bytes32)": "4091c6d5",
    "implementation()": "5c60da1b",
    "isCommandExecuted(bytes32)": "d26ff210",
    "isContractCallApproved(bytes32,string,string,address,bytes32)": "f6a5f9f5",
    "isMessageApproved(string,string,string,address,bytes32)": "8f686dc4",
    "isMessageExecuted(string,string)": "cba5be6a",
    "lastRotationTimestamp()": "eb215f28",
    "messageHashToSign(bytes32,bytes32)": "fd721b47",
    "messageToCommandId(string,string)": "2fbceb4f",
    "minimumRotationDelay()": "f2213d37",
    "operator()": "570ca735",
    "owner()": "8da5cb5b",
    "pendingOwner()": "e30c3978",
    "previousSignersRetention()": "8c212aa5",
    "proposeOwnership(address)": "710bf322",
    "rotateSigners(((address,uint128)[],uint128,bytes32),(((address,uint128)[],uint128,bytes32),bytes[]))": "1d92c0bf",
    "setup(bytes)": "9ded06df",
    "signersHashByEpoch(uint256)": "d435b83e",
    "timeSinceRotation()": "377fff55",
    "transferOperatorship(address)": "4a6a42d8",
    "transferOwnership(address)": "f2fde38b",
    "upgrade(address,bytes32,bytes)": "a3499c73",
    "validateContractCall(bytes32,string,string,bytes32)": "5f6970c3",
    "validateMessage(string,string,string,bytes32)": "f10bfaa1",
    "validateProof(bytes32,(((address,uint128)[],uint128,bytes32),bytes[]))": "116399e4"
  },
  "id": 27
}