{"abi":[{"type":"constructor","inputs":[{"name":"genesisConfig_","type":"tuple","internalType":"struct IStakeManager.StakeConfig","components":[{"name":"stakeAmount","type":"uint232","internalType":"uint232"},{"name":"minWithdrawAmount","type":"uint232","internalType":"uint232"},{"name":"epochIssuance","type":"uint232","internalType":"uint232"},{"name":"epochDuration","type":"uint32","internalType":"uint32"}]},{"name":"initialValidators_","type":"tuple[]","internalType":"struct IConsensusRegistry.ValidatorInfo[]","components":[{"name":"blsPubkey","type":"bytes","internalType":"bytes"},{"name":"validatorAddress","type":"address","internalType":"address"},{"name":"activationEpoch","type":"uint32","internalType":"uint32"},{"name":"exitEpoch","type":"uint32","internalType":"uint32"},{"name":"currentStatus","type":"uint8","internalType":"enum IConsensusRegistry.ValidatorStatus"},{"name":"isRetired","type":"bool","internalType":"bool"},{"name":"isDelegated","type":"bool","internalType":"bool"},{"name":"stakeVersion","type":"uint8","internalType":"uint8"}]},{"name":"owner_","type":"address","internalType":"address"}],"stateMutability":"nonpayable"},{"type":"function","name":"SYSTEM_ADDRESS","inputs":[],"outputs":[{"name":"","type":"address","internalType":"address"}],"stateMutability":"view"},{"type":"function","name":"activate","inputs":[],"outputs":[],"stateMutability":"nonpayable"},{"type":"function","name":"allocateIssuance","inputs":[],"outputs":[],"stateMutability":"payable"},{"type":"function","name":"applyIncentives","inputs":[{"name":"rewardInfos","type":"tuple[]","internalType":"struct RewardInfo[]","components":[{"name":"validatorAddress","type":"address","internalType":"address"},{"name":"consensusHeaderCount","type":"uint232","internalType":"uint232"}]}],"outputs":[],"stateMutability":"nonpayable"},{"type":"function","name":"applySlashes","inputs":[{"name":"slashes","type":"tuple[]","internalType":"struct Slash[]","components":[{"name":"validatorAddress","type":"address","internalType":"address"},{"name":"amount","type":"uint232","internalType":"uint232"}]}],"outputs":[],"stateMutability":"nonpayable"},{"type":"function","name":"approve","inputs":[{"name":"","type":"address","internalType":"address"},{"name":"","type":"uint256","internalType":"uint256"}],"outputs":[],"stateMutability":"nonpayable"},{"type":"function","name":"balanceOf","inputs":[{"name":"owner","type":"address","internalType":"address"}],"outputs":[{"name":"","type":"uint256","internalType":"uint256"}],"stateMutability":"view"},{"type":"function","name":"beginExit","inputs":[],"outputs":[],"stateMutability":"nonpayable"},{"type":"function","name":"burn","inputs":[{"name":"validatorAddress","type":"address","internalType":"address"}],"outputs":[],"stateMutability":"nonpayable"},{"type":"function","name":"claimStakeRewards","inputs":[{"name":"validatorAddress","type":"address","internalType":"address"}],"outputs":[],"stateMutability":"nonpayable"},{"type":"function","name":"concludeEpoch","inputs":[{"name":"newCommittee","type":"address[]","internalType":"address[]"}],"outputs":[],"stateMutability":"nonpayable"},{"type":"function","name":"delegateStake","inputs":[{"name":"blsPubkey","type":"bytes","internalType":"bytes"},{"name":"validatorAddress","type":"address","internalType":"address"},{"name":"validatorSig","type":"bytes","internalType":"bytes"}],"outputs":[],"stateMutability":"payable"},{"type":"function","name":"delegationDigest","inputs":[{"name":"blsPubkey","type":"bytes","internalType":"bytes"},{"name":"validatorAddress","type":"address","internalType":"address"},{"name":"delegator","type":"address","internalType":"address"}],"outputs":[{"name":"","type":"bytes32","internalType":"bytes32"}],"stateMutability":"view"},{"type":"function","name":"eip712Domain","inputs":[],"outputs":[{"name":"fields","type":"bytes1","internalType":"bytes1"},{"name":"name","type":"string","internalType":"string"},{"name":"version","type":"string","internalType":"string"},{"name":"chainId","type":"uint256","internalType":"uint256"},{"name":"verifyingContract","type":"address","internalType":"address"},{"name":"salt","type":"bytes32","internalType":"bytes32"},{"name":"extensions","type":"uint256[]","internalType":"uint256[]"}],"stateMutability":"view"},{"type":"function","name":"epochInfo","inputs":[{"name":"","type":"uint256","internalType":"uint256"}],"outputs":[{"name":"blockHeight","type":"uint64","internalType":"uint64"},{"name":"epochDuration","type":"uint32","internalType":"uint32"}],"stateMutability":"view"},{"type":"function","name":"futureEpochInfo","inputs":[{"name":"","type":"uint256","internalType":"uint256"}],"outputs":[{"name":"blockHeight","type":"uint64","internalType":"uint64"},{"name":"epochDuration","type":"uint32","internalType":"uint32"}],"stateMutability":"view"},{"type":"function","name":"getApproved","inputs":[{"name":"tokenId","type":"uint256","internalType":"uint256"}],"outputs":[{"name":"","type":"address","internalType":"address"}],"stateMutability":"view"},{"type":"function","name":"getCurrentEpoch","inputs":[],"outputs":[{"name":"","type":"uint32","internalType":"uint32"}],"stateMutability":"view"},{"type":"function","name":"getCurrentEpochInfo","inputs":[],"outputs":[{"name":"","type":"tuple","internalType":"struct IConsensusRegistry.EpochInfo","components":[{"name":"committee","type":"address[]","internalType":"address[]"},{"name":"blockHeight","type":"uint64","internalType":"uint64"},{"name":"epochDuration","type":"uint32","internalType":"uint32"}]}],"stateMutability":"view"},{"type":"function","name":"getCurrentStakeConfig","inputs":[],"outputs":[{"name":"","type":"tuple","internalType":"struct IStakeManager.StakeConfig","components":[{"name":"stakeAmount","type":"uint232","internalType":"uint232"},{"name":"minWithdrawAmount","type":"uint232","internalType":"uint232"},{"name":"epochIssuance","type":"uint232","internalType":"uint232"},{"name":"epochDuration","type":"uint32","internalType":"uint32"}]}],"stateMutability":"view"},{"type":"function","name":"getEpochInfo","inputs":[{"name":"epoch","type":"uint32","internalType":"uint32"}],"outputs":[{"name":"","type":"tuple","internalType":"struct IConsensusRegistry.EpochInfo","components":[{"name":"committee","type":"address[]","internalType":"address[]"},{"name":"blockHeight","type":"uint64","internalType":"uint64"},{"name":"epochDuration","type":"uint32","internalType":"uint32"}]}],"stateMutability":"view"},{"type":"function","name":"getRewards","inputs":[{"name":"validatorAddress","type":"address","internalType":"address"}],"outputs":[{"name":"","type":"uint232","internalType":"uint232"}],"stateMutability":"view"},{"type":"function","name":"getStakeInfo","inputs":[{"name":"validatorAddress","type":"address","internalType":"address"}],"outputs":[{"name":"","type":"tuple","internalType":"struct StakeInfo","components":[{"name":"tokenId","type":"uint24","internalType":"uint24"},{"name":"balance","type":"uint232","internalType":"uint232"}]}],"stateMutability":"view"},{"type":"function","name":"getValidatorByTokenId","inputs":[{"name":"tokenId","type":"uint256","internalType":"uint256"}],"outputs":[{"name":"","type":"tuple","internalType":"struct IConsensusRegistry.ValidatorInfo","components":[{"name":"blsPubkey","type":"bytes","internalType":"bytes"},{"name":"validatorAddress","type":"address","internalType":"address"},{"name":"activationEpoch","type":"uint32","internalType":"uint32"},{"name":"exitEpoch","type":"uint32","internalType":"uint32"},{"name":"currentStatus","type":"uint8","internalType":"enum IConsensusRegistry.ValidatorStatus"},{"name":"isRetired","type":"bool","internalType":"bool"},{"name":"isDelegated","type":"bool","internalType":"bool"},{"name":"stakeVersion","type":"uint8","internalType":"uint8"}]}],"stateMutability":"view"},{"type":"function","name":"getValidatorTokenId","inputs":[{"name":"validatorAddress","type":"address","internalType":"address"}],"outputs":[{"name":"","type":"uint256","internalType":"uint256"}],"stateMutability":"view"},{"type":"function","name":"getValidators","inputs":[{"name":"status","type":"uint8","internalType":"enum IConsensusRegistry.ValidatorStatus"}],"outputs":[{"name":"","type":"tuple[]","internalType":"struct IConsensusRegistry.ValidatorInfo[]","components":[{"name":"blsPubkey","type":"bytes","internalType":"bytes"},{"name":"validatorAddress","type":"address","internalType":"address"},{"name":"activationEpoch","type":"uint32","internalType":"uint32"},{"name":"exitEpoch","type":"uint32","internalType":"uint32"},{"name":"currentStatus","type":"uint8","internalType":"enum IConsensusRegistry.ValidatorStatus"},{"name":"isRetired","type":"bool","internalType":"bool"},{"name":"isDelegated","type":"bool","internalType":"bool"},{"name":"stakeVersion","type":"uint8","internalType":"uint8"}]}],"stateMutability":"view"},{"type":"function","name":"isApprovedForAll","inputs":[{"name":"owner","type":"address","internalType":"address"},{"name":"operator","type":"address","internalType":"address"}],"outputs":[{"name":"","type":"bool","internalType":"bool"}],"stateMutability":"view"},{"type":"function","name":"isRetired","inputs":[{"name":"tokenId","type":"uint256","internalType":"uint256"}],"outputs":[{"name":"","type":"bool","internalType":"bool"}],"stateMutability":"view"},{"type":"function","name":"issuance","inputs":[],"outputs":[{"name":"","type":"address","internalType":"address payable"}],"stateMutability":"view"},{"type":"function","name":"mint","inputs":[{"name":"validatorAddress","type":"address","internalType":"address"},{"name":"tokenId","type":"uint256","internalType":"uint256"}],"outputs":[],"stateMutability":"nonpayable"},{"type":"function","name":"name","inputs":[],"outputs":[{"name":"","type":"string","internalType":"string"}],"stateMutability":"view"},{"type":"function","name":"owner","inputs":[],"outputs":[{"name":"","type":"address","internalType":"address"}],"stateMutability":"view"},{"type":"function","name":"ownerOf","inputs":[{"name":"tokenId","type":"uint256","internalType":"uint256"}],"outputs":[{"name":"","type":"address","internalType":"address"}],"stateMutability":"view"},{"type":"function","name":"pause","inputs":[],"outputs":[],"stateMutability":"nonpayable"},{"type":"function","name":"paused","inputs":[],"outputs":[{"name":"","type":"bool","internalType":"bool"}],"stateMutability":"view"},{"type":"function","name":"renounceOwnership","inputs":[],"outputs":[],"stateMutability":"nonpayable"},{"type":"function","name":"safeTransferFrom","inputs":[{"name":"from","type":"address","internalType":"address"},{"name":"to","type":"address","internalType":"address"},{"name":"tokenId","type":"uint256","internalType":"uint256"}],"outputs":[],"stateMutability":"nonpayable"},{"type":"function","name":"safeTransferFrom","inputs":[{"name":"from","type":"address","internalType":"address"},{"name":"to","type":"address","internalType":"address"},{"name":"tokenId","type":"uint256","internalType":"uint256"},{"name":"data","type":"bytes","internalType":"bytes"}],"outputs":[],"stateMutability":"nonpayable"},{"type":"function","name":"setApprovalForAll","inputs":[{"name":"operator","type":"address","internalType":"address"},{"name":"approved","type":"bool","internalType":"bool"}],"outputs":[],"stateMutability":"nonpayable"},{"type":"function","name":"stake","inputs":[{"name":"blsPubkey","type":"bytes","internalType":"bytes"}],"outputs":[],"stateMutability":"payable"},{"type":"function","name":"stakeConfig","inputs":[{"name":"version","type":"uint8","internalType":"uint8"}],"outputs":[{"name":"","type":"tuple","internalType":"struct IStakeManager.StakeConfig","components":[{"name":"stakeAmount","type":"uint232","internalType":"uint232"},{"name":"minWithdrawAmount","type":"uint232","internalType":"uint232"},{"name":"epochIssuance","type":"uint232","internalType":"uint232"},{"name":"epochDuration","type":"uint32","internalType":"uint32"}]}],"stateMutability":"view"},{"type":"function","name":"stakeVersion","inputs":[],"outputs":[{"name":"","type":"uint8","internalType":"uint8"}],"stateMutability":"view"},{"type":"function","name":"supportsInterface","inputs":[{"name":"interfaceId","type":"bytes4","internalType":"bytes4"}],"outputs":[{"name":"","type":"bool","internalType":"bool"}],"stateMutability":"view"},{"type":"function","name":"symbol","inputs":[],"outputs":[{"name":"","type":"string","internalType":"string"}],"stateMutability":"view"},{"type":"function","name":"tokenURI","inputs":[{"name":"tokenId","type":"uint256","internalType":"uint256"}],"outputs":[{"name":"","type":"string","internalType":"string"}],"stateMutability":"view"},{"type":"function","name":"totalSupply","inputs":[],"outputs":[{"name":"","type":"uint24","internalType":"uint24"}],"stateMutability":"view"},{"type":"function","name":"transferFrom","inputs":[{"name":"","type":"address","internalType":"address"},{"name":"","type":"address","internalType":"address"},{"name":"","type":"uint256","internalType":"uint256"}],"outputs":[],"stateMutability":"nonpayable"},{"type":"function","name":"transferOwnership","inputs":[{"name":"newOwner","type":"address","internalType":"address"}],"outputs":[],"stateMutability":"nonpayable"},{"type":"function","name":"unpause","inputs":[],"outputs":[],"stateMutability":"nonpayable"},{"type":"function","name":"unstake","inputs":[{"name":"validatorAddress","type":"address","internalType":"address"}],"outputs":[],"stateMutability":"nonpayable"},{"type":"function","name":"upgradeStakeVersion","inputs":[{"name":"newConfig","type":"tuple","internalType":"struct IStakeManager.StakeConfig","components":[{"name":"stakeAmount","type":"uint232","internalType":"uint232"},{"name":"minWithdrawAmount","type":"uint232","internalType":"uint232"},{"name":"epochIssuance","type":"uint232","internalType":"uint232"},{"name":"epochDuration","type":"uint32","internalType":"uint32"}]}],"outputs":[{"name":"","type":"uint8","internalType":"uint8"}],"stateMutability":"nonpayable"},{"type":"function","name":"validators","inputs":[{"name":"","type":"uint24","internalType":"uint24"}],"outputs":[{"name":"blsPubkey","type":"bytes","internalType":"bytes"},{"name":"validatorAddress","type":"address","internalType":"address"},{"name":"activationEpoch","type":"uint32","internalType":"uint32"},{"name":"exitEpoch","type":"uint32","internalType":"uint32"},{"name":"currentStatus","type":"uint8","internalType":"enum IConsensusRegistry.ValidatorStatus"},{"name":"isRetired","type":"bool","internalType":"bool"},{"name":"isDelegated","type":"bool","internalType":"bool"},{"name":"stakeVersion","type":"uint8","internalType":"uint8"}],"stateMutability":"view"},{"type":"event","name":"Approval","inputs":[{"name":"owner","type":"address","indexed":true,"internalType":"address"},{"name":"approved","type":"address","indexed":true,"internalType":"address"},{"name":"tokenId","type":"uint256","indexed":true,"internalType":"uint256"}],"anonymous":false},{"type":"event","name":"ApprovalForAll","inputs":[{"name":"owner","type":"address","indexed":true,"internalType":"address"},{"name":"operator","type":"address","indexed":true,"internalType":"address"},{"name":"approved","type":"bool","indexed":false,"internalType":"bool"}],"anonymous":false},{"type":"event","name":"NewEpoch","inputs":[{"name":"epoch","type":"tuple","indexed":false,"internalType":"struct IConsensusRegistry.EpochInfo","components":[{"name":"committee","type":"address[]","internalType":"address[]"},{"name":"blockHeight","type":"uint64","internalType":"uint64"},{"name":"epochDuration","type":"uint32","internalType":"uint32"}]}],"anonymous":false},{"type":"event","name":"OwnershipTransferred","inputs":[{"name":"previousOwner","type":"address","indexed":true,"internalType":"address"},{"name":"newOwner","type":"address","indexed":true,"internalType":"address"}],"anonymous":false},{"type":"event","name":"Paused","inputs":[{"name":"account","type":"address","indexed":false,"internalType":"address"}],"anonymous":false},{"type":"event","name":"RewardsClaimed","inputs":[{"name":"claimant","type":"address","indexed":false,"internalType":"address"},{"name":"rewards","type":"uint256","indexed":false,"internalType":"uint256"}],"anonymous":false},{"type":"event","name":"Transfer","inputs":[{"name":"from","type":"address","indexed":true,"internalType":"address"},{"name":"to","type":"address","indexed":true,"internalType":"address"},{"name":"tokenId","type":"uint256","indexed":true,"internalType":"uint256"}],"anonymous":false},{"type":"event","name":"Unpaused","inputs":[{"name":"account","type":"address","indexed":false,"internalType":"address"}],"anonymous":false},{"type":"event","name":"ValidatorActivated","inputs":[{"name":"validator","type":"tuple","indexed":false,"internalType":"struct IConsensusRegistry.ValidatorInfo","components":[{"name":"blsPubkey","type":"bytes","internalType":"bytes"},{"name":"validatorAddress","type":"address","internalType":"address"},{"name":"activationEpoch","type":"uint32","internalType":"uint32"},{"name":"exitEpoch","type":"uint32","internalType":"uint32"},{"name":"currentStatus","type":"uint8","internalType":"enum IConsensusRegistry.ValidatorStatus"},{"name":"isRetired","type":"bool","internalType":"bool"},{"name":"isDelegated","type":"bool","internalType":"bool"},{"name":"stakeVersion","type":"uint8","internalType":"uint8"}]}],"anonymous":false},{"type":"event","name":"ValidatorExited","inputs":[{"name":"validator","type":"tuple","indexed":false,"internalType":"struct IConsensusRegistry.ValidatorInfo","components":[{"name":"blsPubkey","type":"bytes","internalType":"bytes"},{"name":"validatorAddress","type":"address","internalType":"address"},{"name":"activationEpoch","type":"uint32","internalType":"uint32"},{"name":"exitEpoch","type":"uint32","internalType":"uint32"},{"name":"currentStatus","type":"uint8","internalType":"enum IConsensusRegistry.ValidatorStatus"},{"name":"isRetired","type":"bool","internalType":"bool"},{"name":"isDelegated","type":"bool","internalType":"bool"},{"name":"stakeVersion","type":"uint8","internalType":"uint8"}]}],"anonymous":false},{"type":"event","name":"ValidatorPendingActivation","inputs":[{"name":"validator","type":"tuple","indexed":false,"internalType":"struct IConsensusRegistry.ValidatorInfo","components":[{"name":"blsPubkey","type":"bytes","internalType":"bytes"},{"name":"validatorAddress","type":"address","internalType":"address"},{"name":"activationEpoch","type":"uint32","internalType":"uint32"},{"name":"exitEpoch","type":"uint32","internalType":"uint32"},{"name":"currentStatus","type":"uint8","internalType":"enum IConsensusRegistry.ValidatorStatus"},{"name":"isRetired","type":"bool","internalType":"bool"},{"name":"isDelegated","type":"bool","internalType":"bool"},{"name":"stakeVersion","type":"uint8","internalType":"uint8"}]}],"anonymous":false},{"type":"event","name":"ValidatorPendingExit","inputs":[{"name":"validator","type":"tuple","indexed":false,"internalType":"struct IConsensusRegistry.ValidatorInfo","components":[{"name":"blsPubkey","type":"bytes","internalType":"bytes"},{"name":"validatorAddress","type":"address","internalType":"address"},{"name":"activationEpoch","type":"uint32","internalType":"uint32"},{"name":"exitEpoch","type":"uint32","internalType":"uint32"},{"name":"currentStatus","type":"uint8","internalType":"enum IConsensusRegistry.ValidatorStatus"},{"name":"isRetired","type":"bool","internalType":"bool"},{"name":"isDelegated","type":"bool","internalType":"bool"},{"name":"stakeVersion","type":"uint8","internalType":"uint8"}]}],"anonymous":false},{"type":"event","name":"ValidatorRetired","inputs":[{"name":"validator","type":"tuple","indexed":false,"internalType":"struct IConsensusRegistry.ValidatorInfo","components":[{"name":"blsPubkey","type":"bytes","internalType":"bytes"},{"name":"validatorAddress","type":"address","internalType":"address"},{"name":"activationEpoch","type":"uint32","internalType":"uint32"},{"name":"exitEpoch","type":"uint32","internalType":"uint32"},{"name":"currentStatus","type":"uint8","internalType":"enum IConsensusRegistry.ValidatorStatus"},{"name":"isRetired","type":"bool","internalType":"bool"},{"name":"isDelegated","type":"bool","internalType":"bool"},{"name":"stakeVersion","type":"uint8","internalType":"uint8"}]}],"anonymous":false},{"type":"event","name":"ValidatorStaked","inputs":[{"name":"validator","type":"tuple","indexed":false,"internalType":"struct IConsensusRegistry.ValidatorInfo","components":[{"name":"blsPubkey","type":"bytes","internalType":"bytes"},{"name":"validatorAddress","type":"address","internalType":"address"},{"name":"activationEpoch","type":"uint32","internalType":"uint32"},{"name":"exitEpoch","type":"uint32","internalType":"uint32"},{"name":"currentStatus","type":"uint8","internalType":"enum IConsensusRegistry.ValidatorStatus"},{"name":"isRetired","type":"bool","internalType":"bool"},{"name":"isDelegated","type":"bool","internalType":"bool"},{"name":"stakeVersion","type":"uint8","internalType":"uint8"}]}],"anonymous":false},{"type":"error","name":"AlreadyDefined","inputs":[{"name":"validatorAddress","type":"address","internalType":"address"}]},{"type":"error","name":"CommitteeRequirement","inputs":[{"name":"validatorAddress","type":"address","internalType":"address"}]},{"type":"error","name":"ERC721IncorrectOwner","inputs":[{"name":"sender","type":"address","internalType":"address"},{"name":"tokenId","type":"uint256","internalType":"uint256"},{"name":"owner","type":"address","internalType":"address"}]},{"type":"error","name":"ERC721InsufficientApproval","inputs":[{"name":"operator","type":"address","internalType":"address"},{"name":"tokenId","type":"uint256","internalType":"uint256"}]},{"type":"error","name":"ERC721InvalidApprover","inputs":[{"name":"approver","type":"address","internalType":"address"}]},{"type":"error","name":"ERC721InvalidOperator","inputs":[{"name":"operator","type":"address","internalType":"address"}]},{"type":"error","name":"ERC721InvalidOwner","inputs":[{"name":"owner","type":"address","internalType":"address"}]},{"type":"error","name":"ERC721InvalidReceiver","inputs":[{"name":"receiver","type":"address","internalType":"address"}]},{"type":"error","name":"ERC721InvalidSender","inputs":[{"name":"sender","type":"address","internalType":"address"}]},{"type":"error","name":"ERC721NonexistentToken","inputs":[{"name":"tokenId","type":"uint256","internalType":"uint256"}]},{"type":"error","name":"EnforcedPause","inputs":[]},{"type":"error","name":"ExpectedPause","inputs":[]},{"type":"error","name":"GenesisArityMismatch","inputs":[]},{"type":"error","name":"InsufficientRewards","inputs":[{"name":"withdrawAmount","type":"uint256","internalType":"uint256"}]},{"type":"error","name":"InvalidBLSPubkey","inputs":[]},{"type":"error","name":"InvalidCommitteeSize","inputs":[{"name":"minCommitteeSize","type":"uint256","internalType":"uint256"},{"name":"providedCommitteeSize","type":"uint256","internalType":"uint256"}]},{"type":"error","name":"InvalidEpoch","inputs":[{"name":"epoch","type":"uint32","internalType":"uint32"}]},{"type":"error","name":"InvalidProof","inputs":[]},{"type":"error","name":"InvalidStakeAmount","inputs":[{"name":"stakeAmount","type":"uint256","internalType":"uint256"}]},{"type":"error","name":"InvalidStatus","inputs":[{"name":"status","type":"uint8","internalType":"enum IConsensusRegistry.ValidatorStatus"}]},{"type":"error","name":"InvalidSupply","inputs":[]},{"type":"error","name":"InvalidTokenId","inputs":[{"name":"tokenId","type":"uint256","internalType":"uint256"}]},{"type":"error","name":"InvalidValidatorAddress","inputs":[]},{"type":"error","name":"LowLevelCallFailure","inputs":[]},{"type":"error","name":"NotDelegator","inputs":[{"name":"notDelegator","type":"address","internalType":"address"}]},{"type":"error","name":"NotTransferable","inputs":[]},{"type":"error","name":"NotValidator","inputs":[{"name":"validatorAddress","type":"address","internalType":"address"}]},{"type":"error","name":"OnlySystemCall","inputs":[{"name":"invalidCaller","type":"address","internalType":"address"}]},{"type":"error","name":"OwnableInvalidOwner","inputs":[{"name":"owner","type":"address","internalType":"address"}]},{"type":"error","name":"OwnableUnauthorizedAccount","inputs":[{"name":"account","type":"address","internalType":"address"}]},{"type":"error","name":"Reentrancy","inputs":[]},{"type":"error","name":"RequiresConsensusNFT","inputs":[]}],"bytecode":{"object":"0x6101206040527f8478e887beabc77eff0d543b4296823f1590a22d5ce447143f02ddaf3954af8b600a55348015610034575f80fd5b5060405161664e38038061664e83398101604081905261005391610fe8565b806040518060400160405280600c81526020016b10dbdb9cd95b9cdd5cd3919560a21b8152506040518060400160405280600481526020016310d3919560e21b8152506040518060400160405280600c81526020016b10dbdb9cd95b9cdd5cd3919560a21b8152506040518060400160405280600481526020016310d3919560e21b815250815f90816100e69190611254565b5060016100f38282611254565b505030608052504660a052606080610153604080518082018252601481527f54656c636f696e205374616b654d616e61676572000000000000000000000000602080830191909152825180840190935260018352603160f81b9083015291565b815160209283012081519183019190912060c082905260e0819052604080517f8b73c3c69bb8fe3d512ecc4cf759cc79239f7b179b0ffacaa9a75d522b39400f8152938401929092529082015246606082015230608082015260a09020610100525050600b805460ff1916905550506001600160a01b0381166101f057604051631e4fbdf760e01b81525f60048201526024015b60405180910390fd5b6101f981610a61565b508151158061020b5750815162ffffff105b1561022957604051633aa3e03360e01b815260040160405180910390fd5b3060405161023690610e59565b6001600160a01b039091168152602001604051809103905ff08015801561025f573d5f803e3d5ffd5b50600680546001600160a01b0319166001600160a01b03929092169190911781555f8080526007602090815285517f6d5257204ebe7d88fd91ae87941cb2dd9d8062b64ae5a2bd2d28ec40b9fbf6df80546001600160e81b03199081166001600160e81b0393841617909155878301517f6d5257204ebe7d88fd91ae87941cb2dd9d8062b64ae5a2bd2d28ec40b9fbf6e0805483169184169190911790556040808901517f6d5257204ebe7d88fd91ae87941cb2dd9d8062b64ae5a2bd2d28ec40b9fbf6e1805490931693169290921790556060808801517f6d5257204ebe7d88fd91ae87941cb2dd9d8062b64ae5a2bd2d28ec40b9fbf6e2805463ffffffff191663ffffffff909216919091179055815161014081018352600161010082018181527fff00000000000000000000000000000000000000000000000000000000000000610120840152825260ff828601819052938201849052918101839052608081019590955260a0850181905260c085015260e0840152908052601c905280517fb9c6de81004e18dedadca3e5eabaab449ca91dff6f58efc9461da635fe77f84990819061040f9082611254565b5060208201516001820180546040850151606086015163ffffffff908116600160c01b0263ffffffff60c01b1991909216600160a01b026001600160c01b03199093166001600160a01b0390951694909417919091179283168117825560808501519260ff60e01b1990911664ffffffffff60c01b1990911617600160e01b8360068111156104a0576104a061130e565b021790555060a08201516001909101805460c084015160e09094015160ff16600160f81b026001600160f81b03941515600160f01b0260ff60f01b19941515600160e81b029490941661ffff60e81b199092169190911792909217929092161790555f5b8251811015610a58575f83828151811061052057610520611322565b60200260200101519050805f01515160601461054f576040516333a234f960e11b815260040160405180910390fd5b60208101516001600160a01b031661057a5760405163713ce51160e01b815260040160405180910390fd5b604081015163ffffffff16156105b1576040808201519051634fadd4d360e11b815263ffffffff90911660048201526024016101e7565b606081015163ffffffff16156105e8576060810151604051634fadd4d360e11b815263ffffffff90911660048201526024016101e7565b6003816080015160068111156106005761060061130e565b14610624578060800151604051633ba7bf8960e11b81526004016101e79190611356565b60a08101511561064a576005604051633ba7bf8960e11b81526004016101e79190611356565b5f610656836001611378565b60c0830151909150151560010361072a576040805160a0810182528351805160209182012082526001600160a01b0387811682840190815262ffffff8681168587019081525f60608701818152600160808901818152888d015188168452600990985298909120965187559251959096018054965192519451959093166001600160b81b031990961695909517600160a01b9190951602939093176001600160b81b0316600160b81b60ff909216919091026001600160c01b031617600160c01b6001600160401b03909216919091021790555b60e082015160ff161561075b5760e082015160405163222d164360e21b815260ff90911660048201526024016101e7565b5f5b6002811161084f575f600c826004811061077957610779611322565b602086810151600292909202929092018054600180820183555f838152949094200180546001600160a01b0319166001600160a01b039093169290921790915560608a0151918101805463ffffffff60401b19166801000000000000000063ffffffff90941693909302929092179091559050601482600481106107ff576107ff611322565b6020868101516002929092029290920180546001810182555f91825292902090910180546001600160a01b0319166001600160a01b03909216919091179055506108488161138b565b905061075d565b5062ffffff81165f908152601c60205260409020825183919081906108749082611254565b5060208201516001820180546040850151606086015163ffffffff908116600160c01b0263ffffffff60c01b1991909216600160a01b026001600160c01b03199093166001600160a01b0390951694909417919091179283168117825560808501519260ff60e01b1990911664ffffffffff60c01b1990911617600160e01b8360068111156109055761090561130e565b021790555060a08201516001909101805460c084015160e09094015160ff16600160f81b026001600160f81b03941515600160f01b0260ff60f01b19941515600160e81b029490941661ffff60e81b19909216919091179290921792909216179055602080830180516001600160a01b039081165f90815260089093526040808420805462ffffff80881662ffffff19909216919091179091558a519351909216845290922080546001600160e81b0390921663010000000291831691909117905560068054600160a01b90049091169060146109e1836113a3565b91906101000a81548162ffffff021916908362ffffff16021790555050610a1782602001518262ffffff16610aba60201b60201c565b7f31845bad1fcdd92490e8d85605449863a562ea940e37b380a276e440683fdb7282604051610a4691906113c5565b60405180910390a15050600101610504565b5050505061147d565b600b80546001600160a01b03838116610100818102610100600160a81b031985161790945560405193909204169182907f8be0079c531659141344cd1fd0a4f28419497f9722a3daafe3b4186f6b6457e0905f90a35050565b6001600160a01b038216610ae357604051633250574960e11b81525f60048201526024016101e7565b5f610aef838383610b20565b90506001600160a01b03811615610b1b576040516339e3563760e11b81525f60048201526024016101e7565b505050565b5f828152600260205260408120546001600160a01b0390811690831615610b4c57610b4c818486610c12565b6001600160a01b03811615610b8657610b675f858180610c76565b6001600160a01b0381165f90815260036020526040902080545f190190555b6001600160a01b03851615610bb4576001600160a01b0385165f908152600360205260409020805460010190555b5f8481526002602052604080822080546001600160a01b0319166001600160a01b0389811691821790925591518793918516917fddf252ad1be2c89b69c2b068fc378daa952ba7f163c4a11628f55a4df523b3ef91a4949350505050565b610c1d838383610d98565b610b1b576001600160a01b038316610c4b57604051637e27328960e01b8152600481018290526024016101e7565b60405163177e802f60e01b81526001600160a01b0383166004820152602481018290526044016101e7565b8080610c8a57506001600160a01b03821615155b15610d69575f610c9984610e1b565b90506001600160a01b03831615801590610cc55750826001600160a01b0316816001600160a01b031614155b8015610cf657506001600160a01b038082165f9081526005602090815260408083209387168352929052205460ff16155b15610d1f5760405163a9fbf51f60e01b81526001600160a01b03841660048201526024016101e7565b8115610d675783856001600160a01b0316826001600160a01b03167f8c5be1e5ebec7d5bd14f71427d1e84f3dd0314c0f7b2291e5b200ac8c7c3b92560405160405180910390a45b505b50505f90815260046020526040902080546001600160a01b0319166001600160a01b0392909216919091179055565b5f6001600160a01b03831615801590610e135750826001600160a01b0316846001600160a01b03161480610df057506001600160a01b038085165f9081526005602090815260408083209387168352929052205460ff165b80610e1357505f828152600460205260409020546001600160a01b038481169116145b949350505050565b5f818152600260205260408120546001600160a01b031680610e5357604051637e27328960e01b8152600481018490526024016101e7565b92915050565b6102d78061637783390190565b634e487b7160e01b5f52604160045260245ffd5b604051608081016001600160401b0381118282101715610e9c57610e9c610e66565b60405290565b60405161010081016001600160401b0381118282101715610e9c57610e9c610e66565b604051601f8201601f191681016001600160401b0381118282101715610eed57610eed610e66565b604052919050565b80516001600160e81b0381168114610f0b575f80fd5b919050565b805163ffffffff81168114610f0b575f80fd5b5f5b83811015610f3d578181015183820152602001610f25565b50505f910152565b5f82601f830112610f54575f80fd5b81516001600160401b03811115610f6d57610f6d610e66565b610f80601f8201601f1916602001610ec5565b818152846020838601011115610f94575f80fd5b610e13826020830160208701610f23565b80516001600160a01b0381168114610f0b575f80fd5b805160078110610f0b575f80fd5b80518015158114610f0b575f80fd5b805160ff81168114610f0b575f80fd5b5f805f83850360c0811215610ffb575f80fd5b6080811215611008575f80fd5b50611011610e7a565b61101a85610ef5565b815261102860208601610ef5565b602082015261103960408601610ef5565b604082015261104a60608601610f10565b606082015260808501519093506001600160401b0381111561106a575f80fd5b8401601f8101861361107a575f80fd5b80516001600160401b0381111561109357611093610e66565b8060051b6110a360208201610ec5565b918252602081840181019290810190898411156110be575f80fd5b6020850192505b838310156111b45782516001600160401b038111156110e2575f80fd5b8501610100818c03601f190112156110f8575f80fd5b611100610ea2565b60208201516001600160401b03811115611118575f80fd5b6111278d602083860101610f45565b82525061113660408301610fa5565b602082015261114760608301610f10565b604082015261115860808301610f10565b606082015261116960a08301610fbb565b608082015261117a60c08301610fc9565b60a082015261118b60e08301610fc9565b60c082015261119d6101008301610fd8565b60e0820152835250602092830192909101906110c5565b80965050505050506111c860a08501610fa5565b90509250925092565b600181811c908216806111e557607f821691505b60208210810361120357634e487b7160e01b5f52602260045260245ffd5b50919050565b601f821115610b1b57805f5260205f20601f840160051c8101602085101561122e5750805b601f840160051c820191505b8181101561124d575f815560010161123a565b5050505050565b81516001600160401b0381111561126d5761126d610e66565b6112818161127b84546111d1565b84611209565b6020601f8211600181146112b3575f831561129c5750848201515b5f19600385901b1c1916600184901b17845561124d565b5f84815260208120601f198516915b828110156112e257878501518255602094850194600190920191016112c2565b50848210156112ff57868401515f19600387901b60f8161c191681555b50505050600190811b01905550565b634e487b7160e01b5f52602160045260245ffd5b634e487b7160e01b5f52603260045260245ffd5b6007811061135257634e487b7160e01b5f52602160045260245ffd5b9052565b60208101610e538284611336565b634e487b7160e01b5f52601160045260245ffd5b80820180821115610e5357610e53611364565b5f6001820161139c5761139c611364565b5060010190565b5f62ffffff821662ffffff81036113bc576113bc611364565b60010192915050565b602081525f825161010060208401528051806101208501526113ef81610140860160208501610f23565b60208501516001600160a01b03811660408601529150604085015163ffffffff811660608601529150606085015163ffffffff8116608086015291506080850151915061143f60a0850183611336565b60a0850151151560c085810191909152850151151560e0808601919091529094015160ff166101008401525050601f909101601f1916016101400190565b60805160a05160c05160e05161010051614ebd6114ba5f395f6123c701525f61248101525f61245b01525f61240b01525f6123e80152614ebd5ff3fe6080604052600436106102f3575f3560e01c80637b55a30011610189578063b40e48b9116100d8578063cdb1e21411610092578063e3716d041161006d578063e3716d0414610a66578063e985e9c514610a85578063f2888dbb14610aa4578063f2fde38b14610ac3575f80fd5b8063cdb1e21414610a09578063cf6ebee714610a28578063e36e10ad14610a47575f80fd5b8063b40e48b9146108ce578063b88d4fde146108ed578063b97dd9e21461090c578063babc394f1461093d578063c345315314610951578063c87b56dd146109ea575f80fd5b80638cc05eda116101435780639d3029671161011e5780639d302967146107ca578063a22cb465146107e9578063a71954ec14610808578063aa680fe0146108a2575f80fd5b80638cc05eda146107685780638da5cb5b1461079457806395d89b41146107b6575f80fd5b80637b55a300146106765780637d06fdf8146106955780638456cb59146106ef57806384b0196e14610703578063863623bb1461072a57806389afcb4414610749575f80fd5b8063355811a711610245578063568d312c116101ff5780636352211e116101da5780636352211e146105df57806370a08231146105fe578063715018a61461062b57806379ee54f71461063f575f80fd5b8063568d312c1461057757806359ca93b6146105a95780635c975abb146105c8575f80fd5b8063355811a7146104ae578063374ed18c146104b65780633894228e146104e25780633f4ba83a1461052557806340c10f191461053957806342842e0e14610558575f80fd5b806318160ddd116102b057806323b872dd1161028b57806323b872dd146104485780632b9f4985146104625780632d1e0c02146104815780633434735f14610494575f80fd5b806318160ddd146103cb5780632228dfa0146104015780632277dd5214610415575f80fd5b806301ffc9a7146102f757806306fdde031461032b578063081812fc1461034c578063095ea7b3146103835780630cc1026b146103a45780630f15f4c0146103b7575b5f80fd5b348015610302575f80fd5b50610316610311366004614084565b610ae2565b60405190151581526020015b60405180910390f35b348015610336575f80fd5b5061033f610b33565b60405161032291906140e2565b348015610357575f80fd5b5061036b6103663660046140f4565b610bc2565b6040516001600160a01b039091168152602001610322565b34801561038e575f80fd5b506103a261039d366004614121565b610be9565b005b6103a26103b236600461418d565b610c02565b3480156103c2575f80fd5b506103a2610eac565b3480156103d6575f80fd5b506006546103ed90600160a01b900462ffffff1681565b60405162ffffff9091168152602001610322565b34801561040c575f80fd5b506103a2610efd565b348015610420575f80fd5b5061043461042f36600461420c565b610fca565b604051610322989796959493929190614262565b348015610453575f80fd5b506103a261039d3660046142ca565b34801561046d575f80fd5b506103a261047c366004614304565b6110b8565b6103a261048f36600461431d565b6111a6565b34801561049f575f80fd5b5061036b6002600160a01b0381565b6103a261120e565b3480156104c1575f80fd5b506104d56104d036600461436c565b6112b0565b6040516103229190614387565b3480156104ed575f80fd5b506105016104fc3660046140f4565b611413565b604080516001600160401b03909316835263ffffffff909116602083015201610322565b348015610530575f80fd5b506103a2611446565b348015610544575f80fd5b506103a2610553366004614121565b611458565b348015610563575f80fd5b506103a26105723660046142ca565b61155b565b348015610582575f80fd5b5060065461059790600160b81b900460ff1681565b60405160ff9091168152602001610322565b3480156105b4575f80fd5b506105016105c33660046140f4565b611575565b3480156105d3575f80fd5b50600b5460ff16610316565b3480156105ea575f80fd5b5061036b6105f93660046140f4565b611584565b348015610609575f80fd5b5061061d610618366004614304565b61158e565b604051908152602001610322565b348015610636575f80fd5b506103a26115d3565b34801561064a575f80fd5b5061065e610659366004614304565b6115e4565b6040516001600160e81b039091168152602001610322565b348015610681575f80fd5b506103a2610690366004614407565b61163f565b3480156106a0575f80fd5b506106a961176b565b6040805182516001600160e81b03908116825260208085015182169083015283830151169181019190915260609182015163ffffffff1691810191909152608001610322565b3480156106fa575f80fd5b506103a26117ed565b34801561070e575f80fd5b506107176117fd565b6040516103229796959493929190614476565b348015610735575f80fd5b5060065461036b906001600160a01b031681565b348015610754575f80fd5b506103a2610763366004614304565b611864565b348015610773575f80fd5b5061078761078236600461450c565b611882565b60405161032291906145d3565b34801561079f575f80fd5b50600b5461010090046001600160a01b031661036b565b3480156107c1575f80fd5b5061033f6118c0565b3480156107d5575f80fd5b506105976107e4366004614636565b6118cf565b3480156107f4575f80fd5b506103a261080336600461464f565b61193e565b348015610813575f80fd5b506106a9610822366004614688565b604080516080810182525f8082526020820181905291810182905260608101919091525060ff165f90815260076020908152604091829020825160808101845281546001600160e81b039081168252600183015481169382019390935260028201549092169282019290925260039091015463ffffffff16606082015290565b3480156108ad575f80fd5b506108c16108bc3660046140f4565b611949565b60405161032291906146a8565b3480156108d9575f80fd5b506103a26108e83660046146fa565b611ace565b3480156108f8575f80fd5b506103a26109073660046147c9565b611d8d565b348015610917575f80fd5b50600b54600160a81b900463ffffffff1660405163ffffffff9091168152602001610322565b348015610948575f80fd5b506104d5611dab565b34801561095c575f80fd5b506109c161096b366004614304565b604080518082019091525f8082526020820152506001600160a01b03165f9081526008602090815260409182902082518084019093525462ffffff81168352630100000090046001600160e81b03169082015290565b60408051825162ffffff1681526020928301516001600160e81b03169281019290925201610322565b3480156109f5575f80fd5b5061033f610a043660046140f4565b611e7c565b348015610a14575f80fd5b506103a2610a233660046146fa565b611e9b565b348015610a33575f80fd5b50610316610a423660046140f4565b611ff6565b348015610a52575f80fd5b5061061d610a61366004614304565b612045565b348015610a71575f80fd5b5061061d610a8036600461482c565b61205a565b348015610a90575f80fd5b50610316610a9f366004614885565b6120f3565b348015610aaf575f80fd5b506103a2610abe366004614304565b612120565b348015610ace575f80fd5b506103a2610add366004614304565b612208565b5f6001600160e01b031982166380ac58cd60e01b1480610b1257506001600160e01b03198216635b5e139f60e01b145b80610b2d57506301ffc9a760e01b6001600160e01b03198316145b92915050565b60605f8054610b41906148b6565b80601f0160208091040260200160405190810160405280929190818152602001828054610b6d906148b6565b8015610bb85780601f10610b8f57610100808354040283529160200191610bb8565b820191905f5260205f20905b815481529060010190602001808311610b9b57829003601f168201915b5050505050905090565b5f610bcc82612242565b505f828152600460205260409020546001600160a01b0316610b2d565b60405163dc8d8db760e01b815260040160405180910390fd5b610c0a61227a565b60608414610c2b576040516333a234f960e11b815260040160405180910390fd5b600654600160b81b900460ff165f610c43348361229e565b90505f610c4f866122e2565b9050610c5b815f612360565b6001600160a01b0386165f9081526009602052604081206001018054600160c01b90046001600160401b0316906018610c9383614902565b91906101000a8154816001600160401b0302191690836001600160401b0316021790555090505f8989604051610cca92919061492c565b60405180910390209050610cec600b546001600160a01b036101009091041690565b6001600160a01b0316336001600160a01b031614610d82575f600a548233868987604051602001610d229695949392919061493b565b6040516020818303038152906040528051906020012090505f610d44826123c5565b9050610d528a828b8b6124db565b610d7f57604051633b4f6e2b60e21b81526001600160a01b038b1660048201526024015b60405180910390fd5b50505b6040518060a00160405280828152602001336001600160a01b031681526020018462ffffff1681526020018660ff168152602001836001600160401b031681525060095f8a6001600160a01b03166001600160a01b031681526020019081526020015f205f820151815f01556020820151816001015f6101000a8154816001600160a01b0302191690836001600160a01b0316021790555060408201518160010160146101000a81548162ffffff021916908362ffffff16021790555060608201518160010160176101000a81548160ff021916908360ff16021790555060808201518160010160186101000a8154816001600160401b0302191690836001600160401b03160217905550905050610ea08a8a8a600189888a6125cd565b50505050505050505050565b610eb461227a565b5f610ebe336122e2565b9050610ecb816001612360565b62ffffff81165f908152601c60205260409020600b54610ef9908290600160a81b900463ffffffff166127dc565b5050565b610f0561227a565b5f610f0f336122e2565b90505f610f1c600361285c565b51600b549091505f90600c90600160c81b900460ff1660048110610f4257610f4261497d565b60020201549050610f538282612bea565b610f5e836003612360565b62ffffff83165f908152601c60205260409020600b54600182015463ffffffff600160a81b909204821691600160a01b90910416811015610fba57604051634fadd4d360e11b815263ffffffff82166004820152602401610d76565b610fc382612c1e565b5050505050565b601c6020525f9081526040902080548190610fe4906148b6565b80601f0160208091040260200160405190810160405280929190818152602001828054611010906148b6565b801561105b5780601f106110325761010080835404028352916020019161105b565b820191905f5260205f20905b81548152906001019060200180831161103e57829003601f168201915b505050600190930154919250506001600160a01b0381169063ffffffff600160a01b8204811691600160c01b81049091169060ff600160e01b8204811691600160e81b8104821691600160f01b8204811691600160f81b90041688565b6110c061227a565b3068929eee149b4bd2126854036110de5763ab143c065f526004601cfd5b3068929eee149b4bd21268555f6110f4826122e2565b62ffffff81165f908152601c6020526040902060010154909150600160f81b900460ff16826001600160a01b0381163314611136576111338433612c76565b90505b5f611142858385612ccb565b604080516001600160a01b03851681526001600160e81b03929092166020830181905292507ffc30cddea38e2bf4d6ea7d3f9ed3b6ad7f176419f4963bd81318067a4aee73fe91015b60405180910390a1505050503868929eee149b4bd212685550565b6111ae61227a565b606081146111cf576040516333a234f960e11b815260040160405180910390fd5b600654600160b81b900460ff165f6111e7348361229e565b90505f6111f3336122e2565b90506111ff815f612360565b610fc38585335f8786886125cd565b611216612d9e565b6006546040515f916001600160a01b03169034908381818185875af1925050503d805f8114611260576040519150601f19603f3d011682016040523d82523d5f602084013e611265565b606091505b50509050806112ad5760405162461bcd60e51b815260206004820152601460248201527324b6b837b9b9b4b136329031b7b73234ba34b7b760611b6044820152606401610d76565b50565b604080516060808201835281525f6020820181905291810191909152600b54600160a81b900463ffffffff166112e7816002614991565b63ffffffff168363ffffffff161180611327575060038163ffffffff161015801561132757506113186003826149ad565b63ffffffff168363ffffffff16105b1561134d57604051634fadd4d360e11b815263ffffffff84166004820152602401610d76565b600b54600160c81b900460ff1663ffffffff828116908516111561140857611376848383612dd1565b604080518254608060208202830181019093526060820181815291939284929184918401828280156113cf57602002820191905f5260205f20905b81546001600160a01b031681526001909101906020018083116113b1575b5050509183525050600191909101546001600160401b0381166020830152600160401b900463ffffffff16604090910152949350505050565b611376848383612e19565b600c8160048110611422575f80fd5b60020201600101546001600160401b0381169150600160401b900463ffffffff1682565b61144e612d9e565b611456612e70565b565b611460612d9e565b6114698261158e565b151580611482575061147a82612ec2565b62ffffff1615155b156114ab57604051639fb0877960e01b81526001600160a01b0383166004820152602401610d76565b6001600160a01b0382165f908152600860205260408120805462ffffff191662ffffff848116919091179091556006805490916014916114f391600160a01b909104166149c9565b91906101000a81548162ffffff021916908362ffffff160217905590508062ffffff16821415801561152b575061152982611ff6565b155b1561154c5760405163ed15e6cf60e01b815260048101839052602401610d76565b6115568383612ee1565b505050565b61155683838360405180602001604052805f815250611d8d565b60148160048110611422575f80fd5b5f610b2d82612242565b5f6001600160a01b0382166115b8576040516322718ad960e21b81525f6004820152602401610d76565b506001600160a01b03165f9081526003602052604090205490565b6115db612d9e565b6114565f612f42565b5f806115ef836122e2565b62ffffff81165f908152601c6020908152604080832060010154600160f81b900460ff16808452600790925290912054919250906001600160e81b03166116368582612f9b565b95945050505050565b336002600160a01b031461166857604051637eb3357160e01b8152336004820152602401610d76565b5f806116a58484808060200260200160405190810160405280939291908181526020018383602002808284375f92019190915250612fe092505050565b915091506116b48484846131dd565b5f6116bf600361285c565b80519091506116ce9085612bea565b604080516080602087028083018201909352606082018781527fbf3c9880f19d9a18f0a68d90c53eb83ada076643d445cac5aa0b8304699524899383928a918a918291908601908490808284375f920191909152505050908252506020016117374360016149e2565b6001600160401b031681526020018463ffffffff1681525060405161175c9190614387565b60405180910390a15050505050565b60408051608080820183525f80835260208084018290528385018290526060938401829052600654600160b81b900460ff16825260078152908490208451928301855280546001600160e81b039081168452600182015481169284019290925260028101549091169382019390935260039092015463ffffffff169082015290565b6117f5612d9e565b61145661342d565b600f60f81b6060805f80808361185260408051808201825260148152732a32b631b7b4b71029ba30b5b2a6b0b730b3b2b960611b602080830191909152825180840190935260018352603160f81b9083015291565b97989097965046955030945091925090565b61186c612d9e565b5f611876826122e2565b9050610ef9818361346a565b60605f8260068111156118975761189761422e565b036118b75781604051633ba7bf8960e11b8152600401610d7691906149f5565b610b2d8261285c565b606060018054610b41906148b6565b5f6118d8612d9e565b6118e061227a565b5f6006601781819054906101000a900460ff166118fc90614a03565b825460ff8083166101009490940a848102910219909116179092555f90815260076020526040902090915083906119338282614a4c565b50909150505b919050565b610ef933838361350c565b611951613fb5565b61195a826135aa565b61197a5760405163ed15e6cf60e01b815260048101839052602401610d76565b62ffffff82165f908152601c602052604090819020815161010081019092528054829082906119a8906148b6565b80601f01602080910402602001604051908101604052809291908181526020018280546119d4906148b6565b8015611a1f5780601f106119f657610100808354040283529160200191611a1f565b820191905f5260205f20905b815481529060010190602001808311611a0257829003601f168201915b505050918352505060018201546001600160a01b038116602083015263ffffffff600160a01b820481166040840152600160c01b820416606083015260809091019060ff600160e01b909104166006811115611a7d57611a7d61422e565b6006811115611a8e57611a8e61422e565b81526001919091015460ff600160e81b8204811615156020840152600160f01b8204811615156040840152600160f81b9091041660609091015292915050565b336002600160a01b0314611af757604051637eb3357160e01b8152336004820152602401610d76565b5f80826001600160401b03811115611b1157611b1161472c565b604051908082528060200260200182016040528015611b3a578160200160208202803683370190505b5090505f5b83811015611c605736858583818110611b5a57611b5a61497d565b9050604002019050806020016020810190611b759190614ac5565b6001600160e81b03165f03611b8a5750611c58565b5f611ba0611b9b6020840184614304565b612ec2565b905062fffffe1962ffffff821601611bb9575050611c58565b62ffffff81165f908152601c6020908152604080832060010154600160f81b900460ff16808452600783528184205490936001600160e81b03909116929091611c0791908701908701614ac5565b611c119083614ae0565b9050611c1d8189614b11565b975080878781518110611c3257611c3261497d565b60200260200101906001600160e81b031690816001600160e81b03168152505050505050505b600101611b3f565b505f611c6a61176b565b6040015190505f5b84811015611d85576001600160e81b03841615611d85575f84848381518110611c9d57611c9d61497d565b60200260200101516d04ee2d6d415b85acef8100000000611cbe9190614ae0565b611cc89190614b44565b90505f6d04ee2d6d415b85acef8100000000611ce48386614ae0565b611cee9190614b44565b90508060085f8a8a87818110611d0657611d0661497d565b611d1c9260206040909202019081019150614304565b6001600160a01b0316815260208101919091526040015f208054600390611d54908490630100000090046001600160e81b0316614b11565b92506101000a8154816001600160e81b0302191690836001600160e81b031602179055505050806001019050611c72565b505050505050565b611d98848484610be9565b611da533858585856135f9565b50505050565b604080516060808201835281525f6020820181905291810191909152600b54611ded90600160a81b810463ffffffff16908190600160c81b900460ff16612e19565b60408051825460806020820283018101909352606082018181529193928492918491840182828015611e4657602002820191905f5260205f20905b81546001600160a01b03168152600190910190602001808311611e28575b5050509183525050600191909101546001600160401b0381166020830152600160401b900463ffffffff16604090910152919050565b6060611e8782612242565b5060408051602081019091525f8152610b2d565b336002600160a01b0314611ec457604051637eb3357160e01b8152336004820152602401610d76565b5f5b818110156115565736838383818110611ee157611ee161497d565b6040029190910191505f9050611efd611b9b6020840184614304565b905062fffffe1962ffffff821601611f16575050611fee565b5f600881611f276020860186614304565b6001600160a01b03166001600160a01b031681526020019081526020015f209050826020016020810190611f5b9190614ac5565b81546001600160e81b0391821663010000009091049091161115611fd457611f896040840160208501614ac5565b81548290600390611fab908490630100000090046001600160e81b0316614b72565b92506101000a8154816001600160e81b0302191690836001600160e81b03160217905550611fea565b611fea82611fe56020860186614304565b61346a565b5050505b600101611ec6565b5f612000826135aa565b156120215760405163ed15e6cf60e01b815260048101839052602401610d76565b5062ffffff165f908152601c6020526040902060010154600160e81b900460ff1690565b5f61204f826122e2565b62ffffff1692915050565b5f80612065846122e2565b6001600160a01b0385165f9081526009602090815260408083206001015489518a840120600a546006549351969750600160c01b9092046001600160401b0316959094936120c69386928b928a92600160b81b900460ff16918a910161493b565b6040516020818303038152906040528051906020012090506120e7816123c5565b98975050505050505050565b6001600160a01b039182165f90815260056020908152604080832093909416825291909152205460ff1690565b61212861227a565b3068929eee149b4bd2126854036121465763ab143c065f526004601cfd5b3068929eee149b4bd21268555f61215c826122e2565b905081336001600160a01b0382161461217c576121798333612c76565b90505b612187826005612360565b62ffffff82165f908152601c602052604090206121a381613718565b5f6121c685848662ffffff1685600101601f9054906101000a900460ff1661375e565b604080516001600160a01b0386168152602081018390529192507ffc30cddea38e2bf4d6ea7d3f9ed3b6ad7f176419f4963bd81318067a4aee73fe910161118b565b612210612d9e565b6001600160a01b03811661223957604051631e4fbdf760e01b81525f6004820152602401610d76565b6112ad81612f42565b5f818152600260205260408120546001600160a01b031680610b2d57604051637e27328960e01b815260048101849052602401610d76565b600b5460ff16156114565760405163d93c066560e01b815260040160405180910390fd5b60ff81165f908152600760205260408120546001600160e81b031683146122db5760405163222d164360e21b815260048101849052602401610d76565b5090919050565b5f806122ed83612ec2565b90506122fd8162ffffff166135aa565b6123215760405163ed15e6cf60e01b815262ffffff82166004820152602401610d76565b826001600160a01b03166123398262ffffff16611584565b6001600160a01b031614610b2d576040516330fa89ab60e11b815260040160405180910390fd5b62ffffff82165f908152601c6020526040902060010154600160e01b900460ff168160068111156123935761239361422e565b8160068111156123a5576123a561422e565b146115565780604051633ba7bf8960e11b8152600401610d7691906149f5565b7f00000000000000000000000000000000000000000000000000000000000000007f000000000000000000000000000000000000000000000000000000000000000030147f00000000000000000000000000000000000000000000000000000000000000004614166124b85750604080517f8b73c3c69bb8fe3d512ecc4cf759cc79239f7b179b0ffacaa9a75d522b39400f81527f000000000000000000000000000000000000000000000000000000000000000060208201527f00000000000000000000000000000000000000000000000000000000000000009181019190915246606082015230608082015260a090205b6719010000000000005f5280601a5281603a52604260182090505f603a52919050565b6001600160a01b03909316925f84156125c557604051845f52604083036125425760208481013560ff81901c601b01825285356040526001600160ff1b0316606052600160805f825afa805187183d151761254057505f6060526040525060016125c5565b505b604183036125825760408401355f1a6020526040846040376020600160805f60015afa805187183d151761258057505f6060526040525060016125c5565b505b5f60605280604052631626ba7e60e01b80825285600483015260248201604081528460448401528486606485013760208160648701858b5afa9051909114169150505b949350505050565b604080516101206020601f8a01819004028201810190925261010081018881525f928291908b908b90819085018382808284375f9201829052509385525050506001600160a01b038916602083015263ffffffff60408301526060820152608001600181525f602080830182905288151560408085019190915260ff891660609094019390935262ffffff87168252601c9052208151919250829181906126749082614bd5565b5060208201516001820180546040850151606086015163ffffffff908116600160c01b0263ffffffff60c01b1991909216600160a01b026001600160c01b03199093166001600160a01b0390951694909417919091179283168117825560808501519260ff60e01b1990911664ffffffffff60c01b1990911617600160e01b8360068111156127055761270561422e565b021790555060a08201516001909101805460c084015160e09094015160ff16600160f81b026001600160f81b03941515600160f01b0260ff60f01b19941515600160e81b029490941661ffff60e81b199092169190911792909217929092161790556001600160a01b0386165f908152600860205260409081902080546001600160e81b03851663010000000262ffffff909116179055517f7d89246e6daeb7529685fda2e1f478d9a155eea08675ebecd1bf8c0e572382fd906127ca9083906146a8565b60405180910390a15050505050505050565b6127e7816001614991565b60018301805463ffffffff92909216600160a01b0260ff60e01b191668ff00000000ffffffff60a01b1990921691909117600160e11b1790556040517fbdacb030997c2fe9d7ee41c51f5a150138c75b326c7a66f88ced12925f80bc0590612850908490614d0e565b60405180910390a15050565b6006546060905f90600160a01b900462ffffff166001600160401b038111156128875761288761472c565b6040519080825280602002602001820160405280156128c057816020015b6128ad613fb5565b8152602001906001900390816128a55790505b5090505f60015b82518162ffffff1611612b425762ffffff81165f908152601c602052604090206001810154600160e81b900460ff16156129015750612b32565b5f60068760068111156129165761291661422e565b149050806129c4576001820154600160e01b900460ff1660038860068111156129415761294161422e565b0361299a57600381600681111561295a5761295a61422e565b1480612977575060048160068111156129755761297561422e565b145b80612993575060028160068111156129915761299161422e565b145b91506129c2565b8760068111156129ac576129ac61422e565b8160068111156129be576129be61422e565b1491505b505b8015612b2f5781604051806101000160405290815f820180546129e6906148b6565b80601f0160208091040260200160405190810160405280929190818152602001828054612a12906148b6565b8015612a5d5780601f10612a3457610100808354040283529160200191612a5d565b820191905f5260205f20905b815481529060010190602001808311612a4057829003601f168201915b505050918352505060018201546001600160a01b038116602083015263ffffffff600160a01b820481166040840152600160c01b820416606083015260809091019060ff600160e01b909104166006811115612abb57612abb61422e565b6006811115612acc57612acc61422e565b81526001919091015460ff600160e81b8204811615156020840152600160f01b8204811615156040840152600160f81b909104166060909101528585612b1181614da8565b965081518110612b2357612b2361497d565b60200260200101819052505b50505b612b3b816149c9565b90506128c7565b505f816001600160401b03811115612b5c57612b5c61472c565b604051908082528060200260200182016040528015612b9557816020015b612b82613fb5565b815260200190600190039081612b7a5790505b5090505f5b82811015612be157838181518110612bb457612bb461497d565b6020026020010151828281518110612bce57612bce61497d565b6020908102919091010152600101612b9a565b50949350505050565b811580612bf657508181115b15610ef957604051635700689f60e11b81526004810183905260248101829052604401610d76565b60018101805464ffffffffff60c01b19166404ffffffff60c01b1790556040517f537bf236138f80ea8801a391fffc8a42bf0be3b6ea9d336ca2e2164a4c91071c90612c6b908390614d0e565b60405180910390a150565b6001600160a01b038083165f9081526009602052604081206001015490919081169083168114612cc457604051639a494e0560e01b81526001600160a01b0384166004820152602401610d76565b9392505050565b5f80612cd7858461392e565b6001600160a01b0386165f90815260086020526040902080549192508291600390612d13908490630100000090046001600160e81b0316614b72565b82546101009290920a6001600160e81b03818102199093169183160217909155600654604051634875485760e11b81526001600160a01b0388811660048301529285166024820152911691506390ea90ae906044015f604051808303815f87803b158015612d7f575f80fd5b505af1158015612d91573d5f803e3d5ffd5b5092979650505050505050565b600b546001600160a01b036101009091041633146114565760405163118cdaa760e01b8152336004820152602401610d76565b5f80600483612de086886149ad565b612dea9190614dc0565b612df49190614dd9565b905060148160ff1660048110612e0c57612e0c61497d565b6002020195945050505050565b5f8084612e27856004614991565b612e3191906149ad565b90505f6004612e408386614dc0565b612e4a9190614dd9565b9050600c8160ff1660048110612e6257612e6261497d565b600202019695505050505050565b612e786139b5565b600b805460ff191690557f5db9ee0a495bf2e6ff9c91a7834c1ba4fdd244a5e8aa4e537bd38aeae4b073aa335b6040516001600160a01b03909116815260200160405180910390a1565b6001600160a01b03165f9081526008602052604090205462ffffff1690565b6001600160a01b038216612f0a57604051633250574960e11b81525f6004820152602401610d76565b5f612f1683835f6139d8565b90506001600160a01b03811615611556576040516339e3563760e11b81525f6004820152602401610d76565b600b80546001600160a01b03838116610100818102610100600160a81b031985161790945560405193909204169182907f8be0079c531659141344cd1fd0a4f28419497f9722a3daafe3b4186f6b6457e0905f90a35050565b6001600160a01b0382165f908152600860205260408120546001600160e81b036301000000909104811690829084168211612fd6575f611636565b6116368483614b72565b600b545f908190600160c81b900460ff16816004612fff836001614dc0565b6130099190614dd9565b90505f60148260ff16600481106130225761302261497d565b6002020190505f61303161176b565b60600151905060405180606001604052808380548060200260200160405190810160405280929190818152602001828054801561309557602002820191905f5260205f20905b81546001600160a01b03168152600190910190602001808311613077575b50505050508152602001436001600160401b031681526020018263ffffffff16815250600c8460ff16600481106130ce576130ce61497d565b600202015f820151815f0190805190602001906130ec929190613ff8565b50602082015160019190910180546040909301516001600160401b039092166bffffffffffffffffffffffff1990931692909217600160401b63ffffffff9283160217909155600b805460ff60c81b1916600160c81b60ff871602178082555f9260159161316291600160a81b90910416614dfa565b91906101000a81548163ffffffff021916908363ffffffff160217905590505f60048560026131919190614dc0565b61319b9190614dd9565b90508860148260ff16600481106131b4576131b461497d565b600202015f0190805190602001906131cd929190613ff8565b5090989197509095505050505050565b5f6131e8600261285c565b90505f5b8151811015613245575f61321c83838151811061320b5761320b61497d565b602002602001015160200151612ec2565b62ffffff81165f908152601c6020526040902090915061323b81613aca565b50506001016131ec565b505f613251600461285c565b90505f5b8151811015611d8557600b54600160c81b900460ff165f6004613279836001614dc0565b6132839190614dd9565b90505f600c8360ff166004811061329c5761329c61497d565b600202018054604080516020808402820181019092528281529291908301828280156132ef57602002820191905f5260205f20905b81546001600160a01b031681526001909101906020018083116132d1575b505050505090505f60148360ff166004811061330d5761330d61497d565b6002020180546040805160208084028201810190925282815292919083018282801561336057602002820191905f5260205f20905b81546001600160a01b03168152600190910190602001808311613342575b505050505090505f86868151811061337a5761337a61497d565b60200260200101516020015190506133928184613b0f565b806133a257506133a28183613b0f565b806133e457506133e4818c8c808060200260200160405190810160405280939291908181526020018383602002808284375f92019190915250613b0f92505050565b156133f3575050505050613425565b5f6133fd82612ec2565b62ffffff81165f908152601c6020526040902090915061341d818c613b6c565b505050505050505b600101613255565b61343561227a565b600b805460ff191660011790557f62e78cea01bee320cd4e420270b5ea74000d11b0c9f74754ebdbfc544b05a258612ea53390565b6001600160a01b0381165f908152600860205260408120805462ffffff191662ffffff17905561349a600361285c565b5190506134a78282613bc5565b62ffffff83165f908152601c60205260409020600b546134d5908290600160a81b900463ffffffff16613b6c565b6134de81613718565b5f6134e884613c93565b9050611d8584828762ffffff1685600101601f9054906101000a900460ff1661375e565b6001600160a01b03821661353e57604051630b61174360e31b81526001600160a01b0383166004820152602401610d76565b6001600160a01b038381165f81815260056020908152604080832094871680845294825291829020805460ff191686151590811790915591519182527f17307eab39ab6107e8899845ad3d59bd9653f200f220920489ca2b5937696c31910160405180910390a3505050565b5f8115806135bb575062ffffff8210155b156135dc5760405163ed15e6cf60e01b815260048101839052602401610d76565b505f908152600260205260409020546001600160a01b0316151590565b6001600160a01b0383163b15610fc357604051630a85bd0160e11b81526001600160a01b0384169063150b7a029061363b908890889087908790600401614e15565b6020604051808303815f875af1925050508015613675575060408051601f3d908101601f1916820190925261367291810190614e51565b60015b6136dc573d8080156136a2576040519150601f19603f3d011682016040523d82523d5f602084013e6136a7565b606091505b5080515f036136d457604051633250574960e11b81526001600160a01b0385166004820152602401610d76565b805181602001fd5b6001600160e01b03198116630a85bd0160e11b14611d8557604051633250574960e11b81526001600160a01b0385166004820152602401610d76565b60018101805461ffff60e01b1916608360e11b1790556040517fb9e0e3d06d30a4b0476d42accfa2ee90a854c961cc7f10ddc965608a97b982b190612c6b908390614d0e565b6001600160a01b0384165f908152600860205260408120805462ffffff8083556006805463010000009093046001600160e81b03169290916014916137ab91600160a01b90910416614e6c565b91906101000a81548162ffffff021916908362ffffff160217905562ffffff165f036137ea576040516315ae672760e01b815260040160405180910390fd5b6137f385613cc2565b60ff84165f908152600760205260408120546001600160e81b0316906138198983612f9b565b600654604051634875485760e11b81526001600160a01b038b811660048301526001600160e81b03938416602483018190529450909116916390ea90ae91908616906044015f604051808303818588803b158015613875575f80fd5b505af1158015613887573d5f803e3d5ffd5b5050505050816001600160e81b0316836001600160e81b0316101561390e576006545f906001600160a01b03166138be8585614b72565b6001600160e81b03166040515f6040518083038185875af1925050503d805f8114613904576040519150601f19603f3d011682016040523d82523d5f602084013e613909565b606091505b505050505b613921816001600160e81b0385166149e2565b9998505050505050505050565b60ff81165f908152600760205260408120546001600160e81b0316816139548583612f9b565b90506001600160e81b038116158061398c575060ff84165f908152600760205260409020600101546001600160e81b03908116908216105b156125c557604051633737b70960e11b81526001600160e81b0382166004820152602401610d76565b600b5460ff1661145657604051638dfc202b60e01b815260040160405180910390fd5b5f828152600260205260408120546001600160a01b0390811690831615613a0457613a04818486613cfa565b6001600160a01b03811615613a3e57613a1f5f855f80613d5e565b6001600160a01b0381165f90815260036020526040902080545f190190555b6001600160a01b03851615613a6c576001600160a01b0385165f908152600360205260409020805460010190555b5f8481526002602052604080822080546001600160a01b0319166001600160a01b0389811691821790925591518793918516917fddf252ad1be2c89b69c2b068fc378daa952ba7f163c4a11628f55a4df523b3ef91a4949350505050565b60018101805460ff60e01b1916600360e01b1790556040517f31845bad1fcdd92490e8d85605449863a562ea940e37b380a276e440683fdb7290612c6b908390614d0e565b80515f90815b81811015613b6257846001600160a01b0316848281518110613b3957613b3961497d565b60200260200101516001600160a01b031603613b5a57600192505050610b2d565b600101613b15565b505f949350505050565b60018201805463ffffffff8316600160c01b0264ffffffffff60c01b1990911617600560e01b1790556040517f69cb3a026a27d868ccc41f8a2a5e4b59396939b736cf54a110052c9983e8378d90612850908490614d0e565b600b54600160a81b810463ffffffff1690600160c81b900460ff165f613bec838084612e19565b8054909150613c08908590613c0390600190614e89565b612bea565b613c128186613e62565b5f613c1e846001614991565b90505f613c2c828686612dd1565b8054909150613c43908790613c0390600190614e89565b613c4d8188613e62565b5f613c59866002614991565b90505f613c67828888612dd1565b8054909150613c7e908990613c0390600190614e89565b613c88818a613e62565b505050505050505050565b6001600160a01b038082165f9081526009602052604081206001810154919290911680612cc457509192915050565b5f613cce5f835f6139d8565b90506001600160a01b038116610ef957604051637e27328960e01b815260048101839052602401610d76565b613d05838383613f54565b611556576001600160a01b038316613d3357604051637e27328960e01b815260048101829052602401610d76565b60405163177e802f60e01b81526001600160a01b038316600482015260248101829052604401610d76565b8080613d7257506001600160a01b03821615155b15613e33575f613d8184612242565b90506001600160a01b03831615801590613dad5750826001600160a01b0316816001600160a01b031614155b8015613dc05750613dbe81846120f3565b155b15613de95760405163a9fbf51f60e01b81526001600160a01b0384166004820152602401610d76565b8115613e315783856001600160a01b0316826001600160a01b03167f8c5be1e5ebec7d5bd14f71427d1e84f3dd0314c0f7b2291e5b200ac8c7c3b92560405160405180910390a45b505b50505f90815260046020526040902080546001600160a01b0319166001600160a01b0392909216919091179055565b81545f5b81811015611da557826001600160a01b0316848281548110613e8a57613e8a61497d565b5f918252602090912001546001600160a01b031603613f4c5783613eaf600184614e89565b81548110613ebf57613ebf61497d565b905f5260205f20015f9054906101000a90046001600160a01b0316848281548110613eec57613eec61497d565b905f5260205f20015f6101000a8154816001600160a01b0302191690836001600160a01b0316021790555083805480613f2757613f27614e9c565b5f8281526020902081015f1990810180546001600160a01b0319169055019055611da5565b600101613e66565b5f6001600160a01b038316158015906125c55750826001600160a01b0316846001600160a01b03161480613f8d5750613f8d84846120f3565b806125c55750505f908152600460205260409020546001600160a01b03908116911614919050565b604080516101008101825260608082525f60208301819052928201839052810182905290608082019081525f602082018190526040820181905260609091015290565b828054828255905f5260205f2090810192821561404b579160200282015b8281111561404b57825182546001600160a01b0319166001600160a01b03909116178255602090920191600190910190614016565b5061405792915061405b565b5090565b5b80821115614057575f815560010161405c565b6001600160e01b0319811681146112ad575f80fd5b5f60208284031215614094575f80fd5b8135612cc48161406f565b5f81518084525f5b818110156140c3576020818501810151868301820152016140a7565b505f602082860101526020601f19601f83011685010191505092915050565b602081525f612cc4602083018461409f565b5f60208284031215614104575f80fd5b5035919050565b80356001600160a01b0381168114611939575f80fd5b5f8060408385031215614132575f80fd5b61413b8361410b565b946020939093013593505050565b5f8083601f840112614159575f80fd5b5081356001600160401b0381111561416f575f80fd5b602083019150836020828501011115614186575f80fd5b9250929050565b5f805f805f606086880312156141a1575f80fd5b85356001600160401b038111156141b6575f80fd5b6141c288828901614149565b90965094506141d590506020870161410b565b925060408601356001600160401b038111156141ef575f80fd5b6141fb88828901614149565b969995985093965092949392505050565b5f6020828403121561421c575f80fd5b813562ffffff81168114612cc4575f80fd5b634e487b7160e01b5f52602160045260245ffd5b6007811061425e57634e487b7160e01b5f52602160045260245ffd5b9052565b61010081525f61427661010083018b61409f565b6001600160a01b038a16602084015263ffffffff89811660408501528816606084015290506142a86080830187614242565b93151560a082015291151560c083015260ff1660e09091015295945050505050565b5f805f606084860312156142dc575f80fd5b6142e58461410b565b92506142f36020850161410b565b929592945050506040919091013590565b5f60208284031215614314575f80fd5b612cc48261410b565b5f806020838503121561432e575f80fd5b82356001600160401b03811115614343575f80fd5b61434f85828601614149565b90969095509350505050565b63ffffffff811681146112ad575f80fd5b5f6020828403121561437c575f80fd5b8135612cc48161435b565b602080825282516060838301528051608084018190525f929190910190829060a08501905b808310156143d75783516001600160a01b0316825260209384019360019390930192909101906143ac565b506001600160401b03602087015116604086015263ffffffff604087015116606086015280935050505092915050565b5f8060208385031215614418575f80fd5b82356001600160401b0381111561442d575f80fd5b8301601f8101851361443d575f80fd5b80356001600160401b03811115614452575f80fd5b8560208260051b8401011115614466575f80fd5b6020919091019590945092505050565b60ff60f81b8816815260e060208201525f61449460e083018961409f565b82810360408401526144a6818961409f565b606084018890526001600160a01b038716608085015260a0840186905283810360c0850152845180825260208087019350909101905f5b818110156144fb5783518352602093840193909201916001016144dd565b50909b9a5050505050505050505050565b5f6020828403121561451c575f80fd5b813560078110612cc4575f80fd5b5f8151610100845261454061010085018261409f565b905060018060a01b03602084015116602085015263ffffffff6040840151166040850152606083015161457b606086018263ffffffff169052565b50608083015161458e6080860182614242565b5060a08301516145a260a086018215159052565b5060c08301516145b660c086018215159052565b5060e08301516145cb60e086018260ff169052565b509392505050565b5f602082016020835280845180835260408501915060408160051b8601019250602086015f5b8281101561462a57603f1987860301845261461585835161452a565b945060209384019391909101906001016145f9565b50929695505050505050565b5f6080828403128015614647575f80fd5b509092915050565b5f8060408385031215614660575f80fd5b6146698361410b565b91506020830135801515811461467d575f80fd5b809150509250929050565b5f60208284031215614698575f80fd5b813560ff81168114612cc4575f80fd5b602081525f612cc4602083018461452a565b5f8083601f8401126146ca575f80fd5b5081356001600160401b038111156146e0575f80fd5b6020830191508360208260061b8501011115614186575f80fd5b5f806020838503121561470b575f80fd5b82356001600160401b03811115614720575f80fd5b61434f858286016146ba565b634e487b7160e01b5f52604160045260245ffd5b5f82601f83011261474f575f80fd5b81356001600160401b038111156147685761476861472c565b604051601f8201601f19908116603f011681016001600160401b03811182821017156147965761479661472c565b6040528181528382016020018510156147ad575f80fd5b816020850160208301375f918101602001919091529392505050565b5f805f80608085870312156147dc575f80fd5b6147e58561410b565b93506147f36020860161410b565b92506040850135915060608501356001600160401b03811115614814575f80fd5b61482087828801614740565b91505092959194509250565b5f805f6060848603121561483e575f80fd5b83356001600160401b03811115614853575f80fd5b61485f86828701614740565b93505061486e6020850161410b565b915061487c6040850161410b565b90509250925092565b5f8060408385031215614896575f80fd5b61489f8361410b565b91506148ad6020840161410b565b90509250929050565b600181811c908216806148ca57607f821691505b6020821081036148e857634e487b7160e01b5f52602260045260245ffd5b50919050565b634e487b7160e01b5f52601160045260245ffd5b5f6001600160401b0382166001600160401b038103614923576149236148ee565b60010192915050565b818382375f9101908152919050565b95865260208601949094526001600160a01b0392909216604085015262ffffff16606084015260ff1660808301526001600160401b031660a082015260c00190565b634e487b7160e01b5f52603260045260245ffd5b63ffffffff8181168382160190811115610b2d57610b2d6148ee565b63ffffffff8281168282160390811115610b2d57610b2d6148ee565b5f62ffffff821662ffffff8103614923576149236148ee565b80820180821115610b2d57610b2d6148ee565b60208101610b2d8284614242565b5f60ff821660ff8103614923576149236148ee565b6001600160e81b03811681146112ad575f80fd5b80546001600160e81b0319166001600160e81b0392909216919091179055565b8135614a5781614a18565b614a618183614a2c565b506020820135614a7081614a18565b614a7d8160018401614a2c565b506040820135614a8c81614a18565b614a998160028401614a2c565b50600381016060830135614aac8161435b565b815463ffffffff191663ffffffff919091161790555050565b5f60208284031215614ad5575f80fd5b8135612cc481614a18565b6001600160e81b03818116838216818102909216918183048114821517614b0957614b096148ee565b505092915050565b6001600160e81b038181168382160190811115610b2d57610b2d6148ee565b634e487b7160e01b5f52601260045260245ffd5b5f6001600160e81b03831680614b5c57614b5c614b30565b6001600160e81b03929092169190910492915050565b6001600160e81b038281168282160390811115610b2d57610b2d6148ee565b601f82111561155657805f5260205f20601f840160051c81016020851015614bb65750805b601f840160051c820191505b81811015610fc3575f8155600101614bc2565b81516001600160401b03811115614bee57614bee61472c565b614c0281614bfc84546148b6565b84614b91565b6020601f821160018114614c34575f8315614c1d5750848201515b5f19600385901b1c1916600184901b178455610fc3565b5f84815260208120601f198516915b82811015614c635787850151825560209485019460019092019101614c43565b5084821015614c8057868401515f19600387901b60f8161c191681555b50505050600190811b01905550565b5f8154614c9b816148b6565b808552600182168015614cb55760018114614cd157614d05565b60ff1983166020870152602082151560051b8701019350614d05565b845f5260205f205f5b83811015614cfc5781546020828a010152600182019150602081019050614cda565b87016020019450505b50505092915050565b6020815261010060208201525f614d29610120830184614c8f565b60018401546001600160a01b038116604085015260a081901c63ffffffff16606085015260c081901c63ffffffff166080850152614d7060a0850160ff8360e01c16614242565b614d8460c0850160ff8360e81c1615159052565b614d9860e0850160ff8360f01c1615159052565b60f881901c6101008501526145cb565b5f60018201614db957614db96148ee565b5060010190565b60ff8181168382160190811115610b2d57610b2d6148ee565b5f60ff831680614deb57614deb614b30565b8060ff84160691505092915050565b5f63ffffffff821663ffffffff8103614923576149236148ee565b6001600160a01b03858116825284166020820152604081018390526080606082018190525f90614e479083018461409f565b9695505050505050565b5f60208284031215614e61575f80fd5b8151612cc48161406f565b5f62ffffff821680614e8057614e806148ee565b5f190192915050565b81810381811115610b2d57610b2d6148ee565b634e487b7160e01b5f52603160045260245ffdfea164736f6c634300081a000a60a0604052348015600e575f80fd5b506040516102d73803806102d7833981016040819052602b91603b565b6001600160a01b03166080526066565b5f60208284031215604a575f80fd5b81516001600160a01b0381168114605f575f80fd5b9392505050565b60805161024861008f5f395f8181603001528181606c0152818160bd015260f901526102485ff3fe608060405260043610610020575f3560e01c806390ea90ae146100a4575f80fd5b366100a057336001600160a01b037f0000000000000000000000000000000000000000000000000000000000000000161461009e57604051632439f07560e21b81526001600160a01b037f00000000000000000000000000000000000000000000000000000000000000001660048201526024015b60405180910390fd5b005b5f80fd5b61009e6100b23660046101e1565b336001600160a01b037f0000000000000000000000000000000000000000000000000000000000000000161461012657604051632439f07560e21b81526001600160a01b037f0000000000000000000000000000000000000000000000000000000000000000166004820152602401610095565b47818110156101525760405163cf47918160e01b81526004810182905260248101839052604401610095565b5f61015d3484610216565b90505f846001600160a01b0316826040515f6040518083038185875af1925050503d805f81146101a8576040519150601f19603f3d011682016040523d82523d5f602084013e6101ad565b606091505b50509050806101da57604051630d623c2560e01b81526001600160a01b0386166004820152602401610095565b5050505050565b5f80604083850312156101f2575f80fd5b82356001600160a01b0381168114610208575f80fd5b946020939093013593505050565b8082018082111561023557634e487b7160e01b5f52601160045260245ffd5b9291505056fea164736f6c634300081a000a","linkReferences":{}},"methodIdentifiers":{"SYSTEM_ADDRESS()":"3434735f","activate()":"0f15f4c0","allocateIssuance()":"355811a7","applyIncentives((address,uint232)[])":"b40e48b9","applySlashes((address,uint232)[])":"cdb1e214","approve(address,uint256)":"095ea7b3","balanceOf(address)":"70a08231","beginExit()":"2228dfa0","burn(address)":"89afcb44","claimStakeRewards(address)":"2b9f4985","concludeEpoch(address[])":"7b55a300","delegateStake(bytes,address,bytes)":"0cc1026b","delegationDigest(bytes,address,address)":"e3716d04","eip712Domain()":"84b0196e","epochInfo(uint256)":"3894228e","futureEpochInfo(uint256)":"59ca93b6","getApproved(uint256)":"081812fc","getCurrentEpoch()":"b97dd9e2","getCurrentEpochInfo()":"babc394f","getCurrentStakeConfig()":"7d06fdf8","getEpochInfo(uint32)":"374ed18c","getRewards(address)":"79ee54f7","getStakeInfo(address)":"c3453153","getValidatorByTokenId(uint256)":"aa680fe0","getValidatorTokenId(address)":"e36e10ad","getValidators(uint8)":"8cc05eda","isApprovedForAll(address,address)":"e985e9c5","isRetired(uint256)":"cf6ebee7","issuance()":"863623bb","mint(address,uint256)":"40c10f19","name()":"06fdde03","owner()":"8da5cb5b","ownerOf(uint256)":"6352211e","pause()":"8456cb59","paused()":"5c975abb","renounceOwnership()":"715018a6","safeTransferFrom(address,address,uint256)":"42842e0e","safeTransferFrom(address,address,uint256,bytes)":"b88d4fde","setApprovalForAll(address,bool)":"a22cb465","stake(bytes)":"2d1e0c02","stakeConfig(uint8)":"a71954ec","stakeVersion()":"568d312c","supportsInterface(bytes4)":"01ffc9a7","symbol()":"95d89b41","tokenURI(uint256)":"c87b56dd","totalSupply()":"18160ddd","transferFrom(address,address,uint256)":"23b872dd","transferOwnership(address)":"f2fde38b","unpause()":"3f4ba83a","unstake(address)":"f2888dbb","upgradeStakeVersion((uint232,uint232,uint232,uint32))":"9d302967","validators(uint24)":"2277dd52"},"id":198}