{"abi":[{"type":"function","name":"SYSTEM_ADDRESS","inputs":[],"outputs":[{"name":"","type":"address","internalType":"address"}],"stateMutability":"view"},{"type":"function","name":"UPGRADE_INTERFACE_VERSION","inputs":[],"outputs":[{"name":"","type":"string","internalType":"string"}],"stateMutability":"view"},{"type":"function","name":"activate","inputs":[],"outputs":[],"stateMutability":"nonpayable"},{"type":"function","name":"applyIncentives","inputs":[{"name":"newEpoch","type":"uint32","internalType":"uint32"},{"name":"active","type":"tuple[]","internalType":"struct IConsensusRegistry.ValidatorInfo[]","components":[{"name":"blsPubkey","type":"bytes","internalType":"bytes"},{"name":"validatorAddress","type":"address","internalType":"address"},{"name":"activationEpoch","type":"uint32","internalType":"uint32"},{"name":"exitEpoch","type":"uint32","internalType":"uint32"},{"name":"currentStatus","type":"uint8","internalType":"enum IConsensusRegistry.ValidatorStatus"},{"name":"isRetired","type":"bool","internalType":"bool"},{"name":"isDelegated","type":"bool","internalType":"bool"},{"name":"stakeVersion","type":"uint8","internalType":"uint8"}]},{"name":"","type":"tuple[]","internalType":"struct IncentiveInfo[]","components":[{"name":"tokenId","type":"uint24","internalType":"uint24"},{"name":"stakingRewards","type":"uint232","internalType":"uint232"}]}],"outputs":[],"stateMutability":"nonpayable"},{"type":"function","name":"approve","inputs":[{"name":"to","type":"address","internalType":"address"},{"name":"tokenId","type":"uint256","internalType":"uint256"}],"outputs":[],"stateMutability":"nonpayable"},{"type":"function","name":"balanceOf","inputs":[{"name":"owner","type":"address","internalType":"address"}],"outputs":[{"name":"","type":"uint256","internalType":"uint256"}],"stateMutability":"view"},{"type":"function","name":"beginExit","inputs":[],"outputs":[],"stateMutability":"nonpayable"},{"type":"function","name":"burn","inputs":[{"name":"validatorAddress","type":"address","internalType":"address"}],"outputs":[],"stateMutability":"nonpayable"},{"type":"function","name":"claimStakeRewards","inputs":[{"name":"validatorAddress","type":"address","internalType":"address"}],"outputs":[],"stateMutability":"nonpayable"},{"type":"function","name":"concludeEpoch","inputs":[{"name":"newCommittee","type":"address[]","internalType":"address[]"},{"name":"slashes","type":"tuple[]","internalType":"struct IncentiveInfo[]","components":[{"name":"tokenId","type":"uint24","internalType":"uint24"},{"name":"stakingRewards","type":"uint232","internalType":"uint232"}]}],"outputs":[],"stateMutability":"nonpayable"},{"type":"function","name":"delegateStake","inputs":[{"name":"blsPubkey","type":"bytes","internalType":"bytes"},{"name":"validatorAddress","type":"address","internalType":"address"},{"name":"validatorSig","type":"bytes","internalType":"bytes"}],"outputs":[],"stateMutability":"payable"},{"type":"function","name":"delegationDigest","inputs":[{"name":"blsPubkey","type":"bytes","internalType":"bytes"},{"name":"validatorAddress","type":"address","internalType":"address"},{"name":"delegator","type":"address","internalType":"address"}],"outputs":[{"name":"","type":"bytes32","internalType":"bytes32"}],"stateMutability":"view"},{"type":"function","name":"eip712Domain","inputs":[],"outputs":[{"name":"fields","type":"bytes1","internalType":"bytes1"},{"name":"name","type":"string","internalType":"string"},{"name":"version","type":"string","internalType":"string"},{"name":"chainId","type":"uint256","internalType":"uint256"},{"name":"verifyingContract","type":"address","internalType":"address"},{"name":"salt","type":"bytes32","internalType":"bytes32"},{"name":"extensions","type":"uint256[]","internalType":"uint256[]"}],"stateMutability":"view"},{"type":"function","name":"getApproved","inputs":[{"name":"tokenId","type":"uint256","internalType":"uint256"}],"outputs":[{"name":"","type":"address","internalType":"address"}],"stateMutability":"view"},{"type":"function","name":"getCurrentEpoch","inputs":[],"outputs":[{"name":"","type":"uint32","internalType":"uint32"}],"stateMutability":"view"},{"type":"function","name":"getCurrentEpochInfo","inputs":[],"outputs":[{"name":"","type":"tuple","internalType":"struct IConsensusRegistry.EpochInfo","components":[{"name":"committee","type":"address[]","internalType":"address[]"},{"name":"blockHeight","type":"uint64","internalType":"uint64"},{"name":"epochDuration","type":"uint32","internalType":"uint32"}]}],"stateMutability":"view"},{"type":"function","name":"getCurrentStakeConfig","inputs":[],"outputs":[{"name":"","type":"tuple","internalType":"struct IStakeManager.StakeConfig","components":[{"name":"stakeAmount","type":"uint256","internalType":"uint256"},{"name":"minWithdrawAmount","type":"uint256","internalType":"uint256"},{"name":"epochIssuance","type":"uint256","internalType":"uint256"},{"name":"epochDuration","type":"uint32","internalType":"uint32"}]}],"stateMutability":"view"},{"type":"function","name":"getEpochInfo","inputs":[{"name":"epoch","type":"uint32","internalType":"uint32"}],"outputs":[{"name":"","type":"tuple","internalType":"struct IConsensusRegistry.EpochInfo","components":[{"name":"committee","type":"address[]","internalType":"address[]"},{"name":"blockHeight","type":"uint64","internalType":"uint64"},{"name":"epochDuration","type":"uint32","internalType":"uint32"}]}],"stateMutability":"view"},{"type":"function","name":"getRewards","inputs":[{"name":"validatorAddress","type":"address","internalType":"address"}],"outputs":[{"name":"","type":"uint240","internalType":"uint240"}],"stateMutability":"view"},{"type":"function","name":"getValidatorByTokenId","inputs":[{"name":"tokenId","type":"uint256","internalType":"uint256"}],"outputs":[{"name":"","type":"tuple","internalType":"struct IConsensusRegistry.ValidatorInfo","components":[{"name":"blsPubkey","type":"bytes","internalType":"bytes"},{"name":"validatorAddress","type":"address","internalType":"address"},{"name":"activationEpoch","type":"uint32","internalType":"uint32"},{"name":"exitEpoch","type":"uint32","internalType":"uint32"},{"name":"currentStatus","type":"uint8","internalType":"enum IConsensusRegistry.ValidatorStatus"},{"name":"isRetired","type":"bool","internalType":"bool"},{"name":"isDelegated","type":"bool","internalType":"bool"},{"name":"stakeVersion","type":"uint8","internalType":"uint8"}]}],"stateMutability":"view"},{"type":"function","name":"getValidatorTokenId","inputs":[{"name":"validatorAddress","type":"address","internalType":"address"}],"outputs":[{"name":"","type":"uint256","internalType":"uint256"}],"stateMutability":"view"},{"type":"function","name":"getValidators","inputs":[{"name":"status","type":"uint8","internalType":"enum IConsensusRegistry.ValidatorStatus"}],"outputs":[{"name":"","type":"tuple[]","internalType":"struct IConsensusRegistry.ValidatorInfo[]","components":[{"name":"blsPubkey","type":"bytes","internalType":"bytes"},{"name":"validatorAddress","type":"address","internalType":"address"},{"name":"activationEpoch","type":"uint32","internalType":"uint32"},{"name":"exitEpoch","type":"uint32","internalType":"uint32"},{"name":"currentStatus","type":"uint8","internalType":"enum IConsensusRegistry.ValidatorStatus"},{"name":"isRetired","type":"bool","internalType":"bool"},{"name":"isDelegated","type":"bool","internalType":"bool"},{"name":"stakeVersion","type":"uint8","internalType":"uint8"}]}],"stateMutability":"view"},{"type":"function","name":"incentiveInfo","inputs":[{"name":"validatorAddress","type":"address","internalType":"address"}],"outputs":[{"name":"","type":"tuple","internalType":"struct IncentiveInfo","components":[{"name":"tokenId","type":"uint24","internalType":"uint24"},{"name":"stakingRewards","type":"uint232","internalType":"uint232"}]}],"stateMutability":"view"},{"type":"function","name":"initialize","inputs":[{"name":"rwTEL_","type":"address","internalType":"address"},{"name":"genesisConfig_","type":"tuple","internalType":"struct IStakeManager.StakeConfig","components":[{"name":"stakeAmount","type":"uint256","internalType":"uint256"},{"name":"minWithdrawAmount","type":"uint256","internalType":"uint256"},{"name":"epochIssuance","type":"uint256","internalType":"uint256"},{"name":"epochDuration","type":"uint32","internalType":"uint32"}]},{"name":"initialValidators_","type":"tuple[]","internalType":"struct IConsensusRegistry.ValidatorInfo[]","components":[{"name":"blsPubkey","type":"bytes","internalType":"bytes"},{"name":"validatorAddress","type":"address","internalType":"address"},{"name":"activationEpoch","type":"uint32","internalType":"uint32"},{"name":"exitEpoch","type":"uint32","internalType":"uint32"},{"name":"currentStatus","type":"uint8","internalType":"enum IConsensusRegistry.ValidatorStatus"},{"name":"isRetired","type":"bool","internalType":"bool"},{"name":"isDelegated","type":"bool","internalType":"bool"},{"name":"stakeVersion","type":"uint8","internalType":"uint8"}]},{"name":"owner_","type":"address","internalType":"address"}],"outputs":[],"stateMutability":"payable"},{"type":"function","name":"isApprovedForAll","inputs":[{"name":"owner","type":"address","internalType":"address"},{"name":"operator","type":"address","internalType":"address"}],"outputs":[{"name":"","type":"bool","internalType":"bool"}],"stateMutability":"view"},{"type":"function","name":"isRetired","inputs":[{"name":"tokenId","type":"uint256","internalType":"uint256"}],"outputs":[{"name":"","type":"bool","internalType":"bool"}],"stateMutability":"view"},{"type":"function","name":"mint","inputs":[{"name":"validatorAddress","type":"address","internalType":"address"},{"name":"tokenId","type":"uint256","internalType":"uint256"}],"outputs":[],"stateMutability":"nonpayable"},{"type":"function","name":"name","inputs":[],"outputs":[{"name":"","type":"string","internalType":"string"}],"stateMutability":"view"},{"type":"function","name":"owner","inputs":[],"outputs":[{"name":"","type":"address","internalType":"address"}],"stateMutability":"view"},{"type":"function","name":"ownerOf","inputs":[{"name":"tokenId","type":"uint256","internalType":"uint256"}],"outputs":[{"name":"","type":"address","internalType":"address"}],"stateMutability":"view"},{"type":"function","name":"pause","inputs":[],"outputs":[],"stateMutability":"nonpayable"},{"type":"function","name":"paused","inputs":[],"outputs":[{"name":"","type":"bool","internalType":"bool"}],"stateMutability":"view"},{"type":"function","name":"proxiableUUID","inputs":[],"outputs":[{"name":"","type":"bytes32","internalType":"bytes32"}],"stateMutability":"view"},{"type":"function","name":"renounceOwnership","inputs":[],"outputs":[],"stateMutability":"nonpayable"},{"type":"function","name":"safeTransferFrom","inputs":[{"name":"from","type":"address","internalType":"address"},{"name":"to","type":"address","internalType":"address"},{"name":"tokenId","type":"uint256","internalType":"uint256"}],"outputs":[],"stateMutability":"nonpayable"},{"type":"function","name":"safeTransferFrom","inputs":[{"name":"from","type":"address","internalType":"address"},{"name":"to","type":"address","internalType":"address"},{"name":"tokenId","type":"uint256","internalType":"uint256"},{"name":"data","type":"bytes","internalType":"bytes"}],"outputs":[],"stateMutability":"nonpayable"},{"type":"function","name":"setApprovalForAll","inputs":[{"name":"operator","type":"address","internalType":"address"},{"name":"approved","type":"bool","internalType":"bool"}],"outputs":[],"stateMutability":"nonpayable"},{"type":"function","name":"stake","inputs":[{"name":"blsPubkey","type":"bytes","internalType":"bytes"}],"outputs":[],"stateMutability":"payable"},{"type":"function","name":"stakeConfig","inputs":[{"name":"version","type":"uint8","internalType":"uint8"}],"outputs":[{"name":"","type":"tuple","internalType":"struct IStakeManager.StakeConfig","components":[{"name":"stakeAmount","type":"uint256","internalType":"uint256"},{"name":"minWithdrawAmount","type":"uint256","internalType":"uint256"},{"name":"epochIssuance","type":"uint256","internalType":"uint256"},{"name":"epochDuration","type":"uint32","internalType":"uint32"}]}],"stateMutability":"view"},{"type":"function","name":"stakeVersion","inputs":[],"outputs":[{"name":"","type":"uint8","internalType":"uint8"}],"stateMutability":"view"},{"type":"function","name":"supportsInterface","inputs":[{"name":"interfaceId","type":"bytes4","internalType":"bytes4"}],"outputs":[{"name":"","type":"bool","internalType":"bool"}],"stateMutability":"view"},{"type":"function","name":"symbol","inputs":[],"outputs":[{"name":"","type":"string","internalType":"string"}],"stateMutability":"view"},{"type":"function","name":"tokenURI","inputs":[{"name":"tokenId","type":"uint256","internalType":"uint256"}],"outputs":[{"name":"","type":"string","internalType":"string"}],"stateMutability":"view"},{"type":"function","name":"totalSupply","inputs":[],"outputs":[{"name":"","type":"uint256","internalType":"uint256"}],"stateMutability":"view"},{"type":"function","name":"transferFrom","inputs":[{"name":"","type":"address","internalType":"address"},{"name":"","type":"address","internalType":"address"},{"name":"","type":"uint256","internalType":"uint256"}],"outputs":[],"stateMutability":"nonpayable"},{"type":"function","name":"transferOwnership","inputs":[{"name":"newOwner","type":"address","internalType":"address"}],"outputs":[],"stateMutability":"nonpayable"},{"type":"function","name":"unpause","inputs":[],"outputs":[],"stateMutability":"nonpayable"},{"type":"function","name":"unstake","inputs":[{"name":"validatorAddress","type":"address","internalType":"address"}],"outputs":[],"stateMutability":"nonpayable"},{"type":"function","name":"upgradeStakeVersion","inputs":[{"name":"newConfig","type":"tuple","internalType":"struct IStakeManager.StakeConfig","components":[{"name":"stakeAmount","type":"uint256","internalType":"uint256"},{"name":"minWithdrawAmount","type":"uint256","internalType":"uint256"},{"name":"epochIssuance","type":"uint256","internalType":"uint256"},{"name":"epochDuration","type":"uint32","internalType":"uint32"}]}],"outputs":[{"name":"","type":"uint8","internalType":"uint8"}],"stateMutability":"nonpayable"},{"type":"function","name":"upgradeToAndCall","inputs":[{"name":"newImplementation","type":"address","internalType":"address"},{"name":"data","type":"bytes","internalType":"bytes"}],"outputs":[],"stateMutability":"payable"},{"type":"event","name":"Approval","inputs":[{"name":"owner","type":"address","indexed":true,"internalType":"address"},{"name":"approved","type":"address","indexed":true,"internalType":"address"},{"name":"tokenId","type":"uint256","indexed":true,"internalType":"uint256"}],"anonymous":false},{"type":"event","name":"ApprovalForAll","inputs":[{"name":"owner","type":"address","indexed":true,"internalType":"address"},{"name":"operator","type":"address","indexed":true,"internalType":"address"},{"name":"approved","type":"bool","indexed":false,"internalType":"bool"}],"anonymous":false},{"type":"event","name":"Initialized","inputs":[{"name":"version","type":"uint64","indexed":false,"internalType":"uint64"}],"anonymous":false},{"type":"event","name":"NewEpoch","inputs":[{"name":"epoch","type":"tuple","indexed":false,"internalType":"struct IConsensusRegistry.EpochInfo","components":[{"name":"committee","type":"address[]","internalType":"address[]"},{"name":"blockHeight","type":"uint64","internalType":"uint64"},{"name":"epochDuration","type":"uint32","internalType":"uint32"}]}],"anonymous":false},{"type":"event","name":"OwnershipTransferred","inputs":[{"name":"previousOwner","type":"address","indexed":true,"internalType":"address"},{"name":"newOwner","type":"address","indexed":true,"internalType":"address"}],"anonymous":false},{"type":"event","name":"Paused","inputs":[{"name":"account","type":"address","indexed":false,"internalType":"address"}],"anonymous":false},{"type":"event","name":"RewardsClaimed","inputs":[{"name":"claimant","type":"address","indexed":false,"internalType":"address"},{"name":"rewards","type":"uint256","indexed":false,"internalType":"uint256"}],"anonymous":false},{"type":"event","name":"Transfer","inputs":[{"name":"from","type":"address","indexed":true,"internalType":"address"},{"name":"to","type":"address","indexed":true,"internalType":"address"},{"name":"tokenId","type":"uint256","indexed":true,"internalType":"uint256"}],"anonymous":false},{"type":"event","name":"Unpaused","inputs":[{"name":"account","type":"address","indexed":false,"internalType":"address"}],"anonymous":false},{"type":"event","name":"Upgraded","inputs":[{"name":"implementation","type":"address","indexed":true,"internalType":"address"}],"anonymous":false},{"type":"event","name":"ValidatorActivated","inputs":[{"name":"validator","type":"tuple","indexed":false,"internalType":"struct IConsensusRegistry.ValidatorInfo","components":[{"name":"blsPubkey","type":"bytes","internalType":"bytes"},{"name":"validatorAddress","type":"address","internalType":"address"},{"name":"activationEpoch","type":"uint32","internalType":"uint32"},{"name":"exitEpoch","type":"uint32","internalType":"uint32"},{"name":"currentStatus","type":"uint8","internalType":"enum IConsensusRegistry.ValidatorStatus"},{"name":"isRetired","type":"bool","internalType":"bool"},{"name":"isDelegated","type":"bool","internalType":"bool"},{"name":"stakeVersion","type":"uint8","internalType":"uint8"}]}],"anonymous":false},{"type":"event","name":"ValidatorExited","inputs":[{"name":"validator","type":"tuple","indexed":false,"internalType":"struct IConsensusRegistry.ValidatorInfo","components":[{"name":"blsPubkey","type":"bytes","internalType":"bytes"},{"name":"validatorAddress","type":"address","internalType":"address"},{"name":"activationEpoch","type":"uint32","internalType":"uint32"},{"name":"exitEpoch","type":"uint32","internalType":"uint32"},{"name":"currentStatus","type":"uint8","internalType":"enum IConsensusRegistry.ValidatorStatus"},{"name":"isRetired","type":"bool","internalType":"bool"},{"name":"isDelegated","type":"bool","internalType":"bool"},{"name":"stakeVersion","type":"uint8","internalType":"uint8"}]}],"anonymous":false},{"type":"event","name":"ValidatorPendingActivation","inputs":[{"name":"validator","type":"tuple","indexed":false,"internalType":"struct IConsensusRegistry.ValidatorInfo","components":[{"name":"blsPubkey","type":"bytes","internalType":"bytes"},{"name":"validatorAddress","type":"address","internalType":"address"},{"name":"activationEpoch","type":"uint32","internalType":"uint32"},{"name":"exitEpoch","type":"uint32","internalType":"uint32"},{"name":"currentStatus","type":"uint8","internalType":"enum IConsensusRegistry.ValidatorStatus"},{"name":"isRetired","type":"bool","internalType":"bool"},{"name":"isDelegated","type":"bool","internalType":"bool"},{"name":"stakeVersion","type":"uint8","internalType":"uint8"}]}],"anonymous":false},{"type":"event","name":"ValidatorPendingExit","inputs":[{"name":"validator","type":"tuple","indexed":false,"internalType":"struct IConsensusRegistry.ValidatorInfo","components":[{"name":"blsPubkey","type":"bytes","internalType":"bytes"},{"name":"validatorAddress","type":"address","internalType":"address"},{"name":"activationEpoch","type":"uint32","internalType":"uint32"},{"name":"exitEpoch","type":"uint32","internalType":"uint32"},{"name":"currentStatus","type":"uint8","internalType":"enum IConsensusRegistry.ValidatorStatus"},{"name":"isRetired","type":"bool","internalType":"bool"},{"name":"isDelegated","type":"bool","internalType":"bool"},{"name":"stakeVersion","type":"uint8","internalType":"uint8"}]}],"anonymous":false},{"type":"event","name":"ValidatorRetired","inputs":[{"name":"validator","type":"tuple","indexed":false,"internalType":"struct IConsensusRegistry.ValidatorInfo","components":[{"name":"blsPubkey","type":"bytes","internalType":"bytes"},{"name":"validatorAddress","type":"address","internalType":"address"},{"name":"activationEpoch","type":"uint32","internalType":"uint32"},{"name":"exitEpoch","type":"uint32","internalType":"uint32"},{"name":"currentStatus","type":"uint8","internalType":"enum IConsensusRegistry.ValidatorStatus"},{"name":"isRetired","type":"bool","internalType":"bool"},{"name":"isDelegated","type":"bool","internalType":"bool"},{"name":"stakeVersion","type":"uint8","internalType":"uint8"}]}],"anonymous":false},{"type":"event","name":"ValidatorStaked","inputs":[{"name":"validator","type":"tuple","indexed":false,"internalType":"struct IConsensusRegistry.ValidatorInfo","components":[{"name":"blsPubkey","type":"bytes","internalType":"bytes"},{"name":"validatorAddress","type":"address","internalType":"address"},{"name":"activationEpoch","type":"uint32","internalType":"uint32"},{"name":"exitEpoch","type":"uint32","internalType":"uint32"},{"name":"currentStatus","type":"uint8","internalType":"enum IConsensusRegistry.ValidatorStatus"},{"name":"isRetired","type":"bool","internalType":"bool"},{"name":"isDelegated","type":"bool","internalType":"bool"},{"name":"stakeVersion","type":"uint8","internalType":"uint8"}]}],"anonymous":false},{"type":"error","name":"AddressEmptyCode","inputs":[{"name":"target","type":"address","internalType":"address"}]},{"type":"error","name":"AlreadyDefined","inputs":[{"name":"validatorAddress","type":"address","internalType":"address"}]},{"type":"error","name":"CommitteeRequirement","inputs":[{"name":"validatorAddress","type":"address","internalType":"address"}]},{"type":"error","name":"ERC1967InvalidImplementation","inputs":[{"name":"implementation","type":"address","internalType":"address"}]},{"type":"error","name":"ERC1967NonPayable","inputs":[]},{"type":"error","name":"ERC721IncorrectOwner","inputs":[{"name":"sender","type":"address","internalType":"address"},{"name":"tokenId","type":"uint256","internalType":"uint256"},{"name":"owner","type":"address","internalType":"address"}]},{"type":"error","name":"ERC721InsufficientApproval","inputs":[{"name":"operator","type":"address","internalType":"address"},{"name":"tokenId","type":"uint256","internalType":"uint256"}]},{"type":"error","name":"ERC721InvalidApprover","inputs":[{"name":"approver","type":"address","internalType":"address"}]},{"type":"error","name":"ERC721InvalidOperator","inputs":[{"name":"operator","type":"address","internalType":"address"}]},{"type":"error","name":"ERC721InvalidOwner","inputs":[{"name":"owner","type":"address","internalType":"address"}]},{"type":"error","name":"ERC721InvalidReceiver","inputs":[{"name":"receiver","type":"address","internalType":"address"}]},{"type":"error","name":"ERC721InvalidSender","inputs":[{"name":"sender","type":"address","internalType":"address"}]},{"type":"error","name":"ERC721NonexistentToken","inputs":[{"name":"tokenId","type":"uint256","internalType":"uint256"}]},{"type":"error","name":"EnforcedPause","inputs":[]},{"type":"error","name":"ExpectedPause","inputs":[]},{"type":"error","name":"FailedCall","inputs":[]},{"type":"error","name":"InitializerArityMismatch","inputs":[]},{"type":"error","name":"InsufficientRewards","inputs":[{"name":"withdrawAmount","type":"uint256","internalType":"uint256"}]},{"type":"error","name":"InvalidBLSPubkey","inputs":[]},{"type":"error","name":"InvalidCommitteeSize","inputs":[{"name":"minCommitteeSize","type":"uint256","internalType":"uint256"},{"name":"providedCommitteeSize","type":"uint256","internalType":"uint256"}]},{"type":"error","name":"InvalidEpoch","inputs":[{"name":"epoch","type":"uint32","internalType":"uint32"}]},{"type":"error","name":"InvalidInitialization","inputs":[]},{"type":"error","name":"InvalidProof","inputs":[]},{"type":"error","name":"InvalidStakeAmount","inputs":[{"name":"stakeAmount","type":"uint256","internalType":"uint256"}]},{"type":"error","name":"InvalidStatus","inputs":[{"name":"status","type":"uint8","internalType":"enum IConsensusRegistry.ValidatorStatus"}]},{"type":"error","name":"InvalidTokenId","inputs":[{"name":"tokenId","type":"uint256","internalType":"uint256"}]},{"type":"error","name":"InvalidValidatorAddress","inputs":[]},{"type":"error","name":"LowLevelCallFailure","inputs":[]},{"type":"error","name":"NotDelegator","inputs":[{"name":"notDelegator","type":"address","internalType":"address"}]},{"type":"error","name":"NotInitializing","inputs":[]},{"type":"error","name":"NotTransferable","inputs":[]},{"type":"error","name":"NotValidator","inputs":[{"name":"validatorAddress","type":"address","internalType":"address"}]},{"type":"error","name":"OnlySystemCall","inputs":[{"name":"invalidCaller","type":"address","internalType":"address"}]},{"type":"error","name":"OwnableInvalidOwner","inputs":[{"name":"owner","type":"address","internalType":"address"}]},{"type":"error","name":"OwnableUnauthorizedAccount","inputs":[{"name":"account","type":"address","internalType":"address"}]},{"type":"error","name":"RequiresConsensusNFT","inputs":[]},{"type":"error","name":"UUPSUnauthorizedCallContext","inputs":[]},{"type":"error","name":"UUPSUnsupportedProxiableUUID","inputs":[{"name":"slot","type":"bytes32","internalType":"bytes32"}]}],"bytecode":{"object":"0x6101406040527f8478e887beabc77eff0d543b4296823f1590a22d5ce447143f02ddaf3954af8b5f553061012052348015610038575f80fd5b50306080524660a052606080610096604080518082018252601481527f54656c636f696e205374616b654d616e61676572000000000000000000000000602080830191909152825180840190935260018352603160f81b9083015291565b815160209283012081519183019190912060c082905260e0819052604080517f8b73c3c69bb8fe3d512ecc4cf759cc79239f7b179b0ffacaa9a75d522b39400f8152938401929092529082015246606082015230608082015260a0902061010052506100ff9050565b60805160a05160c05160e0516101005161012051615f6d6101545f395f81816139da01528181613a030152613b4201525f612a4201525f612afc01525f612ad601525f612a8601525f612a630152615f6d5ff3fe6080604052600436106102bf575f3560e01c80637d06fdf81161016f578063b88d4fde116100d8578063e36e10ad11610092578063f1070c471161006d578063f1070c471461089f578063f2888dbb146108b2578063f2fde38b146108d1578063fc5ffc0a146108f0575f80fd5b8063e36e10ad14610842578063e3716d0414610861578063e985e9c514610880575f80fd5b8063b88d4fde14610782578063b97dd9e2146107a1578063babc394f146107d1578063c05df7ac146107e5578063c87b56dd14610804578063cf6ebee714610823575f80fd5b80638f2f6e2f116101295780638f2f6e2f146106b557806395d89b41146106d4578063a22cb465146106e8578063a71954ec14610707578063aa680fe014610726578063ad3cb1cc14610752575f80fd5b80637d06fdf8146105ce5780638456cb591461061b57806384b0196e1461062f57806389afcb44146106565780638cc05eda146106755780638da5cb5b146106a1575f80fd5b8063374ed18c1161022b57806352d1902d116101e55780636352211e116101c05780636352211e1461054557806370a0823114610564578063715018a61461058357806379ee54f714610597575f80fd5b806352d1902d146104e8578063568d312c146104fc5780635c975abb14610522575f80fd5b8063374ed18c146104385780633f4ba83a1461046457806340c10f191461047857806342842e0e14610497578063486c6c8f146104b65780634f1ef286146104d5575f80fd5b806318160ddd1161027c57806318160ddd146103975780632228dfa0146103b957806323b872dd146103cd5780632b9f4985146103ec5780632d1e0c021461040b5780633434735f1461041e575f80fd5b806301ffc9a7146102c357806306fdde03146102f7578063081812fc14610318578063095ea7b31461034f5780630cc1026b146103705780630f15f4c014610383575b5f80fd5b3480156102ce575f80fd5b506102e26102dd366004614eb1565b610938565b60405190151581526020015b60405180910390f35b348015610302575f80fd5b5061030b610989565b6040516102ee9190614f19565b348015610323575f80fd5b50610337610332366004614f2b565b610a2a565b6040516001600160a01b0390911681526020016102ee565b34801561035a575f80fd5b5061036e610369366004614f58565b610a3e565b005b61036e61037e366004614fbd565b610a4d565b34801561038e575f80fd5b5061036e610d01565b3480156103a2575f80fd5b506103ab610d64565b6040519081526020016102ee565b3480156103c4575f80fd5b5061036e610d7f565b3480156103d8575f80fd5b5061036e6103e736600461503c565b610e5a565b3480156103f7575f80fd5b5061036e610406366004615076565b610e73565b61036e61041936600461508f565b610f4d565b348015610429575f80fd5b506103376002600160a01b0381565b348015610443575f80fd5b506104576104523660046150e9565b610fe0565b6040516102ee9190615104565b34801561046f575f80fd5b5061036e61114b565b348015610483575f80fd5b5061036e610492366004614f58565b61115d565b3480156104a2575f80fd5b5061036e6104b136600461503c565b611267565b3480156104c1575f80fd5b5061036e6104d03660046151c4565b611281565b61036e6104e3366004615356565b6113d0565b3480156104f3575f80fd5b506103ab6113eb565b348015610507575f80fd5b50610510611406565b60405160ff90911681526020016102ee565b34801561052d575f80fd5b505f80516020615f218339815191525460ff166102e2565b348015610550575f80fd5b5061033761055f366004614f2b565b61141f565b34801561056f575f80fd5b506103ab61057e366004615076565b611429565b34801561058e575f80fd5b5061036e611481565b3480156105a2575f80fd5b506105b66105b1366004615076565b611492565b6040516001600160f01b0390911681526020016102ee565b3480156105d9575f80fd5b506105e26114cd565b6040516102ee919081518152602080830151908201526040808301519082015260609182015163ffffffff169181019190915260800190565b348015610626575f80fd5b5061036e61150a565b34801561063a575f80fd5b5061064361151a565b6040516102ee97969594939291906153a0565b348015610661575f80fd5b5061036e610670366004615076565b611581565b348015610680575f80fd5b5061069461068f366004615444565b6115ba565b6040516102ee9190615532565b3480156106ac575f80fd5b50610337611606565b3480156106c0575f80fd5b5061036e6106cf366004615707565b611634565b3480156106df575f80fd5b5061030b6117af565b3480156106f3575f80fd5b5061036e610702366004615766565b6117ed565b348015610712575f80fd5b506105e2610721366004615797565b6117f8565b348015610731575f80fd5b50610745610740366004614f2b565b611880565b6040516102ee91906157b0565b34801561075d575f80fd5b5061030b604051806040016040528060058152602001640352e302e360dc1b81525081565b34801561078d575f80fd5b5061036e61079c3660046157c2565b611a36565b3480156107ac575f80fd5b505f80516020615f418339815191525460405163ffffffff90911681526020016102ee565b3480156107dc575f80fd5b50610457611a4e565b3480156107f0575f80fd5b506105106107ff366004615825565b611b29565b34801561080f575f80fd5b5061030b61081e366004614f2b565b611ba7565b34801561082e575f80fd5b506102e261083d366004614f2b565b611c18565b34801561084d575f80fd5b506103ab61085c366004615076565b611c86565b34801561086c575f80fd5b506103ab61087b36600461583e565b611ca3565b34801561088b575f80fd5b506102e261089a366004615897565b611d49565b61036e6108ad3660046158bf565b611d95565b3480156108bd575f80fd5b5061036e6108cc366004615076565b6126b6565b3480156108dc575f80fd5b5061036e6108eb366004615076565b61279e565b3480156108fb575f80fd5b5061090f61090a366004615076565b6127db565b60408051825162ffffff1681526020928301516001600160e81b031692810192909252016102ee565b5f6001600160e01b031982166380ac58cd60e01b148061096857506001600160e01b03198216635b5e139f60e01b145b8061098357506301ffc9a760e01b6001600160e01b03198316145b92915050565b5f80516020615ee183398151915280546060919081906109a890615969565b80601f01602080910402602001604051908101604052809291908181526020018280546109d490615969565b8015610a1f5780601f106109f657610100808354040283529160200191610a1f565b820191905f5260205f20905b815481529060010190602001808311610a0257829003601f168201915b505050505091505090565b5f610a348261283f565b5061098382612876565b610a498282336128af565b5050565b610a556128bc565b60608414610a76576040516333a234f960e11b815260040160405180910390fd5b5f610a7f6128ec565b8054909150600160b81b900460ff16610a983482612910565b5f610aa3838761294f565b9050610abe5f80516020615f418339815191525b825f6129d9565b6001600160a01b0386165f90815260038401602052604081206001018054600160c01b90046001600160401b0316906018610af8836159b5565b91906101000a8154816001600160401b0302191690836001600160401b0316021790555090505f8989604051610b2f9291906159df565b60405180910390209050610b41611606565b6001600160a01b0316336001600160a01b031614610bd6575f80548233868887604051602001610b76969594939291906159ee565b6040516020818303038152906040528051906020012090505f610b9882612a40565b9050610ba68a828b8b612b56565b610bd357604051633b4f6e2b60e21b81526001600160a01b038b1660048201526024015b60405180910390fd5b50505b6040518060a00160405280828152602001336001600160a01b031681526020018462ffffff1681526020018560ff168152602001836001600160401b0316815250856003015f8a6001600160a01b03166001600160a01b031681526020019081526020015f205f820151815f01556020820151816001015f6101000a8154816001600160a01b0302191690836001600160a01b0316021790555060408201518160010160146101000a81548162ffffff021916908362ffffff16021790555060608201518160010160176101000a81548160ff021916908360ff16021790555060808201518160010160186101000a8154816001600160401b0302191690836001600160401b03160217905550905050610cf58a8a8a60018888612c48565b50505050505050505050565b610d096128bc565b5f610d1b610d156128ec565b3361294f565b90505f80516020615f41833981519152610d37818360016129d9565b62ffffff82165f90815260118201602052604090208154610d5f90829063ffffffff16612e23565b505050565b5f610d6d6128ec565b54600160a01b900462ffffff16919050565b610d876128bc565b5f610d93610d156128ec565b90505f80516020615f418339815191525f610daf826003612ea3565b5182549091505f906001840190600160201b900460ff1660048110610dd657610dd6615a30565b60020201549050610de78282613238565b610df3838560036129d9565b62ffffff84165f90815260118401602052604090208354600182015463ffffffff91821691600160a01b90910416811015610e4957604051634fadd4d360e11b815263ffffffff82166004820152602401610bca565b610e528261326c565b505050505050565b60405163dc8d8db760e01b815260040160405180910390fd5b610e7b6128bc565b5f610e846128ec565b90505f610e91828461294f565b62ffffff81165f9081527faf33537d204b7c8488a91ad2a40f2c043712bad394401b7dd7bd4cb801f231116020526040902060010154909150600160f81b900460ff16836001600160a01b0381163314610ef357610ef08486336132c4565b90505b5f610f0085878486613314565b604080516001600160a01b0385168152602081018390529192507ffc30cddea38e2bf4d6ea7d3f9ed3b6ad7f176419f4963bd81318067a4aee73fe910160405180910390a1505050505050565b610f556128bc565b60608114610f76576040516333a234f960e11b815260040160405180910390fd5b5f610f7f6128ec565b8054909150610f99903490600160b81b900460ff16612910565b5f610fa4823361294f565b9050610fbc5f80516020615f41833981519152610ab7565b610fda8484335f865f0160179054906101000a900460ff1686612c48565b50505050565b604080516060808201835281525f60208201819052918101919091525f80516020615f41833981519152805463ffffffff1661101d816002615a44565b63ffffffff168463ffffffff16118061105d575060038163ffffffff161015801561105d575061104e600382615a60565b63ffffffff168463ffffffff16105b1561108357604051634fadd4d360e11b815263ffffffff85166004820152602401610bca565b8154600160201b900460ff1663ffffffff828116908616111561113f576110ac838684846133a5565b6040805182546080602082028301810190935260608201818152919392849291849184018282801561110557602002820191905f5260205f20905b81546001600160a01b031681526001909101906020018083116110e7575b5050509183525050600191909101546001600160401b0381166020830152600160401b900463ffffffff1660409091015295945050505050565b6110ac838684846133f0565b61115361344a565b61115b61347c565b565b61116561344a565b5f61116e6128ec565b905061117983611429565b151580611193575061118b81846134d5565b62ffffff1615155b156111bc57604051639fb0877960e01b81526001600160a01b0384166004820152602401610bca565b6001600160a01b0383165f9081526002820160205260408120805462ffffff191662ffffff858116919091179091558254839160149161120491600160a01b90910416615a7c565b91906101000a81548162ffffff021916908362ffffff160217905590508062ffffff16831415801561123c575061123a83611c18565b155b1561125d5760405163ed15e6cf60e01b815260048101849052602401610bca565b610fda84846134f8565b610d5f83838360405180602001604052805f815250611a36565b336002600160a01b03146112aa57604051637eb3357160e01b8152336004820152602401610bca565b5f5f80516020615f4183398151915290505f806112f9838888808060200260200160405190810160405280939291908181526020018383602002808284375f9201919091525061355992505050565b915091506113098388888561375d565b5f611315846003612ea3565b80519091506113249088613238565b61133083828888611634565b60408051608060208a028083018201909352606082018a81527fbf3c9880f19d9a18f0a68d90c53eb83ada076643d445cac5aa0b8304699524899383928d918d918291908601908490808284375f92019190915250505090825250602001611399436001615a95565b6001600160401b031681526020018463ffffffff168152506040516113be9190615104565b60405180910390a15050505050505050565b6113d86139cf565b6113e182613a73565b610a498282613a7b565b5f6113f4613b37565b505f80516020615f0183398151915290565b5f61140f6128ec565b54600160b81b900460ff16919050565b5f6109838261283f565b5f5f80516020615ee18339815191526001600160a01b038316611461576040516322718ad960e21b81525f6004820152602401610bca565b6001600160a01b039092165f908152600390920160205250604090205490565b61148961344a565b61115b5f613b80565b5f61098361149e6128ec565b836001600160a01b03165f9081526002919091016020526040902054630100000090046001600160e81b031690565b6114fa60405180608001604052805f81526020015f81526020015f81526020015f63ffffffff1681525090565b611505610721611406565b905090565b61151261344a565b61115b613bf0565b600f60f81b6060805f80808361156f60408051808201825260148152732a32b631b7b4b71029ba30b5b2a6b0b730b3b2b960611b602080830191909152825180840190935260018352603160f81b9083015291565b97989097965046955030945091925090565b61158961344a565b5f6115926128ec565b90505f61159f828461294f565b9050610d5f825f80516020615f418339815191528386613c38565b60605f8260068111156115cf576115cf61545d565b036115ef5781604051633ba7bf8960e11b8152600401610bca9190615aa8565b6109835f80516020615f4183398151915283612ea3565b7f9016d09d72d40fdae2fd8ceac6b6234c7706214fd39c1cd1e609a0528c199300546001600160a01b031690565b336002600160a01b031461165d57604051637eb3357160e01b8152336004820152602401610bca565b5f6116666128ec565b90505f611671611406565b90505f61167d826117f8565b90505f805f61168f868a8c8888613ce3565b604087015192955090935091505f5b84518110156117a1575f836d04ee2d6d415b85acef81000000008684815181106116ca576116ca615a30565b60200260200101516116dc9190615ab6565b6116e69190615ae1565b90505f6d04ee2d6d415b85acef81000000006117028386615ab6565b61170c9190615ae1565b9050808a6002015f89868151811061172657611726615a30565b60200260200101516001600160a01b03166001600160a01b031681526020019081526020015f205f0160038282829054906101000a90046001600160e81b03166117709190615af4565b92506101000a8154816001600160e81b0302191690836001600160e81b03160217905550505080600101905061169e565b505050505050505050505050565b7f80bb2b638cc20bc4d0a60d66940f3ab4a00c1d7b313497ca82fb0b4ab007930180546060915f80516020615ee1833981519152916109a890615969565b610a49338383613fb6565b61182560405180608001604052805f81526020015f81526020015f81526020015f63ffffffff1681525090565b5f61182e6128ec565b60ff9093165f9081526001938401602090815260409182902082516080810184528154815295810154918601919091526002810154918501919091526003015463ffffffff1660608401525090919050565b611888614de2565b61189182614065565b6118b15760405163ed15e6cf60e01b815260048101839052602401610bca565b62ffffff82165f9081527faf33537d204b7c8488a91ad2a40f2c043712bad394401b7dd7bd4cb801f231116020526040908190208151610100810190925280545f80516020615f418339815191529291908290829061190f90615969565b80601f016020809104026020016040519081016040528092919081815260200182805461193b90615969565b80156119865780601f1061195d57610100808354040283529160200191611986565b820191905f5260205f20905b81548152906001019060200180831161196957829003601f168201915b505050918352505060018201546001600160a01b038116602083015263ffffffff600160a01b820481166040840152600160c01b820416606083015260809091019060ff600160e01b9091041660068111156119e4576119e461545d565b60068111156119f5576119f561545d565b81526001919091015460ff600160e81b8204811615156020840152600160f01b8204811615156040840152600160f81b909104166060909101529392505050565b611a41848484610e5a565b610fda33858585856140b2565b604080516060808201835281525f60208201819052918101919091525f80516020615f418339815191528054611a9990829063ffffffff8116908190600160201b900460ff166133f0565b60408051825460806020820283018101909352606082018181529193928492918491840182828015611af257602002820191905f5260205f20905b81546001600160a01b03168152600190910190602001808311611ad4575b5050509183525050600191909101546001600160401b0381166020830152600160401b900463ffffffff1660409091015292915050565b5f611b3261344a565b611b3a6128bc565b5f611b436128ec565b80549091505f908290601790611b6290600160b81b900460ff16615b13565b825460ff8083166101009490940a848102910219909116179092555f90815260018401602052604090209091508490611b9b8282615b28565b5090925050505b919050565b6060611bb28261283f565b505f611bc860408051602081019091525f815290565b90505f815111611be65760405180602001604052805f815250611c11565b80611bf0846141d8565b604051602001611c01929190615b6b565b6040516020818303038152906040525b9392505050565b5f611c2282614065565b15611c435760405163ed15e6cf60e01b815260048101839052602401610bca565b5062ffffff165f9081527faf33537d204b7c8488a91ad2a40f2c043712bad394401b7dd7bd4cb801f231116020526040902060010154600160e81b900460ff1690565b5f611c98611c926128ec565b8361294f565b62ffffff1692915050565b5f80611cad6128ec565b90505f611cba828661294f565b6001600160a01b0386165f9081526003840160209081526040808320600101548a518b840120845488549351969750600160c01b9092046001600160401b031695909493611d1b9386928c928a92600160b81b900460ff16918a91016159ee565b604051602081830303815290604052805190602001209050611d3c81612a40565b9998505050505050505050565b6001600160a01b039182165f9081527f80bb2b638cc20bc4d0a60d66940f3ab4a00c1d7b313497ca82fb0b4ab00793056020908152604080832093909416825291909152205460ff1690565b7ff0c57e16840df040f15088dc2f81fe391c3923bec73e23a9662efc9c229c6a008054600160401b810460ff1615906001600160401b03165f81158015611dd95750825b90505f826001600160401b03166001148015611df45750303b155b905081158015611e02575080155b15611e205760405163f92ee8a960e01b815260040160405180910390fd5b845467ffffffffffffffff191660011785558315611e4a57845460ff60401b1916600160401b1785555b86511580611e5b5750865162ffffff105b80611e73575086518851611e6f9190615ab6565b3414155b15611e9157604051637aa1b2ad60e01b815260040160405180910390fd5b611e9a86614268565b611ea2614279565b5f611eab6128ec565b80546001600160a01b0319166001600160a01b038c161781555f8080526001808301602090815260408084208e518155918e015192820192909255908c0151600282015560608c01516003909101805463ffffffff191663ffffffff9092169190911790559091505f80516020615f418339815191526040805161014081018252600161010082018181526001600160f81b0319610120840152825260ff6020808401829052838501829052606084018290526006608085015260a0840183905260c084019290925260e08301525f8080526011850190915291909120815192935090918190611f9b9082615bdd565b5060208201516001820180546040850151606086015163ffffffff908116600160c01b0263ffffffff60c01b1991909216600160a01b026001600160c01b03199093166001600160a01b0390951694909417919091179283168117825560808501519260ff60e01b1990911664ffffffffff60c01b1990911617600160e01b83600681111561202c5761202c61545d565b021790555060a08201516001909101805460c084015160e09094015160ff16600160f81b026001600160f81b03941515600160f01b0260ff60f01b19941515600160e81b029490941661ffff60e81b199092169190911792909217929092161790555f5b8951811015612662575f8a82815181106120ac576120ac615a30565b60200260200101519050805f0151516060146120db576040516333a234f960e11b815260040160405180910390fd5b60208101516001600160a01b03166121065760405163713ce51160e01b815260040160405180910390fd5b604081015163ffffffff161561213d576040808201519051634fadd4d360e11b815263ffffffff9091166004820152602401610bca565b606081015163ffffffff1615612174576060810151604051634fadd4d360e11b815263ffffffff9091166004820152602401610bca565b60038160800151600681111561218c5761218c61545d565b146121b0578060800151604051633ba7bf8960e11b8152600401610bca9190615aa8565b60a0810151156121d6576005604051633ba7bf8960e11b8152600401610bca9190615aa8565b5f6121e2836001615a95565b60c08301519091501515600103612313576040518060a00160405280835f01518051906020012081526020018c6001600160a01b031681526020018262ffffff1681526020015f60ff16815260200160016001600160401b0316815250856003015f84602001516001600160a01b03166001600160a01b031681526020019081526020015f205f820151815f01556020820151816001015f6101000a8154816001600160a01b0302191690836001600160a01b0316021790555060408201518160010160146101000a81548162ffffff021916908362ffffff16021790555060608201518160010160176101000a81548160ff021916908360ff16021790555060808201518160010160186101000a8154816001600160401b0302191690836001600160401b031602179055509050505b60e082015160ff16156123445760e082015160405163222d164360e21b815260ff9091166004820152602401610bca565b5f5b60028111612441575f85600101826004811061236457612364615a30565b600202019050805f018460200151908060018154018082558091505060019003905f5260205f20015f9091909190916101000a8154816001600160a01b0302191690836001600160a01b031602179055508e606001518160010160086101000a81548163ffffffff021916908363ffffffff1602179055508560090182600481106123f1576123f1615a30565b6020868101516002929092029290920180546001810182555f91825292902090910180546001600160a01b0319166001600160a01b039092169190911790555061243a81615c97565b9050612346565b5062ffffff81165f9081526011850160205260409020825183919081906124689082615bdd565b5060208201516001820180546040850151606086015163ffffffff908116600160c01b0263ffffffff60c01b1991909216600160a01b026001600160c01b03199093166001600160a01b0390951694909417919091179283168117825560808501519260ff60e01b1990911664ffffffffff60c01b1990911617600160e01b8360068111156124f9576124f961545d565b021790555060a08201516001909101805460c084015160e09094015160ff16600160f81b026001600160f81b03941515600160f01b0260ff60f01b19941515600160e81b029490941661ffff60e81b199092169190911792909217929092161790556020808301516001600160a01b03165f9081526002870190915260409020805462ffffff80841662ffffff19909216919091179091558554600160a01b9004168560146125a783615a7c565b91906101000a81548162ffffff021916908362ffffff1602179055505061260e6040518060400160405280600c81526020016b10dbdb9cd95b9cdd5cd3919560a21b8152506040518060400160405280600481526020016310d3919560e21b815250614289565b61262182602001518262ffffff166134f8565b7f31845bad1fcdd92490e8d85605449863a562ea940e37b380a276e440683fdb728260405161265091906157b0565b60405180910390a15050600101612090565b50505083156126ab57845460ff60401b19168555604051600181527fc7f505b2f371ae2175ee4913f4499e1f2633a7b5936321eed1cdaeb6115181d29060200160405180910390a15b505050505050505050565b6126be6128bc565b5f6126c76128ec565b90505f6126d4828461294f565b905082336001600160a01b038216146126f5576126f28385336132c4565b90505b5f80516020615f4183398151915261270f818460056129d9565b62ffffff83165f908152601182016020526040902061272d8161429b565b5f61275087858762ffffff1685600101601f9054906101000a900460ff166142e1565b604080516001600160a01b0387168152602081018390529192507ffc30cddea38e2bf4d6ea7d3f9ed3b6ad7f176419f4963bd81318067a4aee73fe910160405180910390a150505050505050565b6127a661344a565b6001600160a01b0381166127cf57604051631e4fbdf760e01b81525f6004820152602401610bca565b6127d881613b80565b50565b604080518082019091525f80825260208201526127f66128ec565b6001600160a01b03929092165f9081526002909201602090815260409283902083518085019094525462ffffff81168452630100000090046001600160e81b0316908301525090565b5f8061284a836143e8565b90506001600160a01b03811661098357604051637e27328960e01b815260048101849052602401610bca565b5f9081527f80bb2b638cc20bc4d0a60d66940f3ab4a00c1d7b313497ca82fb0b4ab007930460205260409020546001600160a01b031690565b610d5f8383836001614421565b5f80516020615f218339815191525460ff161561115b5760405163d93c066560e01b815260040160405180910390fd5b7f0636e6890fec58b60f710b53efa0ef8de81ca2fddce7e46303a60c9d416c740090565b6129186128ec565b60ff82165f90815260019190910160205260409020548214610a495760405163222d164360e21b8152346004820152602401610bca565b5f8061295b84846134d5565b905061296b8162ffffff16614065565b61298f5760405163ed15e6cf60e01b815262ffffff82166004820152602401610bca565b826001600160a01b03166129a78262ffffff1661141f565b6001600160a01b031614611c1157604051633b4f6e2b60e21b81526001600160a01b0384166004820152602401610bca565b62ffffff82165f908152601184016020526040902060010154600160e01b900460ff16816006811115612a0e57612a0e61545d565b816006811115612a2057612a2061545d565b14610fda5780604051633ba7bf8960e11b8152600401610bca9190615aa8565b7f00000000000000000000000000000000000000000000000000000000000000007f000000000000000000000000000000000000000000000000000000000000000030147f0000000000000000000000000000000000000000000000000000000000000000461416612b335750604080517f8b73c3c69bb8fe3d512ecc4cf759cc79239f7b179b0ffacaa9a75d522b39400f81527f000000000000000000000000000000000000000000000000000000000000000060208201527f00000000000000000000000000000000000000000000000000000000000000009181019190915246606082015230608082015260a090205b6719010000000000005f5280601a5281603a52604260182090505f603a52919050565b6001600160a01b03909316925f8415612c4057604051845f5260408303612bbd5760208481013560ff81901c601b01825285356040526001600160ff1b0316606052600160805f825afa805187183d1517612bbb57505f606052604052506001612c40565b505b60418303612bfd5760408401355f1a6020526040846040376020600160805f60015afa805187183d1517612bfb57505f606052604052506001612c40565b505b5f60605280604052631626ba7e60e01b80825285600483015260248201604081528460448401528486606485013760208160648701858b5afa9051909114169150505b949350505050565b604080516101206020601f8901819004028201810190925261010081018781525f80516020615f41833981519152925f929182918b908b90819085018382808284375f9201829052509385525050506001600160a01b038916602083015263ffffffff60408301526060820152608001600181525f602080830182905288151560408085019190915260ff891660609094019390935262ffffff8716825260118601905220815191925082918190612d009082615bdd565b5060208201516001820180546040850151606086015163ffffffff908116600160c01b0263ffffffff60c01b1991909216600160a01b026001600160c01b03199093166001600160a01b0390951694909417919091179283168117825560808501519260ff60e01b1990911664ffffffffff60c01b1990911617600160e01b836006811115612d9157612d9161545d565b021790555060a08201516001909101805460c084015160e09094015160ff16600160f81b026001600160f81b03941515600160f01b0260ff60f01b19941515600160e81b029490941661ffff60e81b199092169190911792909217929092161790556040517f7d89246e6daeb7529685fda2e1f478d9a155eea08675ebecd1bf8c0e572382fd906113be9083906157b0565b612e2e816001615a44565b60018301805463ffffffff92909216600160a01b0260ff60e01b191668ff00000000ffffffff60a01b1990921691909117600160e11b1790556040517fbdacb030997c2fe9d7ee41c51f5a150138c75b326c7a66f88ced12925f80bc0590612e97908490615d2e565b60405180910390a15050565b60605f612eae6128ec565b54600160a01b900462ffffff166001600160401b03811115612ed257612ed261525c565b604051908082528060200260200182016040528015612f0b57816020015b612ef8614de2565b815260200190600190039081612ef05790505b5090505f60015b82518162ffffff161161318f5762ffffff81165f90815260118701602052604090206001810154600160e81b900460ff1615612f4e575061317f565b5f6006876006811115612f6357612f6361545d565b14905080613011576001820154600160e01b900460ff166003886006811115612f8e57612f8e61545d565b03612fe7576003816006811115612fa757612fa761545d565b1480612fc457506004816006811115612fc257612fc261545d565b145b80612fe057506002816006811115612fde57612fde61545d565b145b915061300f565b876006811115612ff957612ff961545d565b81600681111561300b5761300b61545d565b1491505b505b801561317c5781604051806101000160405290815f8201805461303390615969565b80601f016020809104026020016040519081016040528092919081815260200182805461305f90615969565b80156130aa5780601f10613081576101008083540402835291602001916130aa565b820191905f5260205f20905b81548152906001019060200180831161308d57829003601f168201915b505050918352505060018201546001600160a01b038116602083015263ffffffff600160a01b820481166040840152600160c01b820416606083015260809091019060ff600160e01b9091041660068111156131085761310861545d565b60068111156131195761311961545d565b81526001919091015460ff600160e81b8204811615156020840152600160f01b8204811615156040840152600160f81b90910416606090910152858561315e81615c97565b96508151811061317057613170615a30565b60200260200101819052505b50505b61318881615a7c565b9050612f12565b505f816001600160401b038111156131a9576131a961525c565b6040519080825280602002602001820160405280156131e257816020015b6131cf614de2565b8152602001906001900390816131c75790505b5090505f5b8281101561322e5783818151811061320157613201615a30565b602002602001015182828151811061321b5761321b615a30565b60209081029190910101526001016131e7565b5095945050505050565b81158061324457508181115b15610a4957604051635700689f60e11b81526004810183905260248101829052604401610bca565b60018101805464ffffffffff60c01b19166404ffffffff60c01b1790556040517f537bf236138f80ea8801a391fffc8a42bf0be3b6ea9d336ca2e2164a4c91071c906132b9908390615d2e565b60405180910390a150565b6001600160a01b038083165f90815260038501602052604081206001015490919081169083168114612c4057604051639a494e0560e01b81526001600160a01b0384166004820152602401610bca565b5f613320858584614534565b6001600160a01b038581165f90815260028801602052604090819020805462ffffff16905587549051634875485760e11b815286831660048201526024810184905292935016906390ea90ae906044015f604051808303815f87803b158015613387575f80fd5b505af1158015613399573d5f803e3d5ffd5b50505050949350505050565b5f806004836133b48688615a60565b6133be9190615dc8565b6133c89190615de1565b9050856009018160ff16600481106133e2576133e2615a30565b600202019695505050505050565b5f80846133fe856004615a44565b6134089190615a60565b90505f60046134178386615dc8565b6134219190615de1565b9050866001018160ff166004811061343b5761343b615a30565b60020201979650505050505050565b33613453611606565b6001600160a01b03161461115b5760405163118cdaa760e01b8152336004820152602401610bca565b61348461458d565b5f80516020615f21833981519152805460ff191681557f5db9ee0a495bf2e6ff9c91a7834c1ba4fdd244a5e8aa4e537bd38aeae4b073aa335b6040516001600160a01b0390911681526020016132b9565b6001600160a01b03165f908152600291909101602052604090205462ffffff1690565b6001600160a01b03821661352157604051633250574960e11b81525f6004820152602401610bca565b5f61352d83835f6145bc565b90506001600160a01b03811615610d5f576040516339e3563760e11b81525f6004820152602401610bca565b81545f908190600160201b900460ff16816004613577836001615dc8565b6135819190615de1565b90505f866009018260ff166004811061359c5761359c615a30565b6002020190505f6135ab6114cd565b60600151905060405180606001604052808380548060200260200160405190810160405280929190818152602001828054801561360f57602002820191905f5260205f20905b81546001600160a01b031681526001909101906020018083116135f1575b50505050508152602001436001600160401b031681526020018263ffffffff16815250886001018460ff166004811061364a5761364a615a30565b600202015f820151815f019080519060200190613668929190614e25565b50602082015160019190910180546040909301516001600160401b039092166bffffffffffffffffffffffff1990931692909217600160401b63ffffffff9283160217909155885464ff00000000198116600160201b60ff8716029081178b555f928b9284926136dd92918216911617615e02565b91906101000a81548163ffffffff021916908363ffffffff160217905590505f600485600261370c9190615dc8565b6137169190615de1565b9050888a6009018260ff166004811061373157613731615a30565b600202015f01908051906020019061374a929190614e25565b50909650909450505050505b9250929050565b5f613769856002612ea3565b90505f5b81518110156137d0575f6137a56137826128ec565b84848151811061379457613794615a30565b6020026020010151602001516134d5565b62ffffff81165f90815260118901602052604090209091506137c6816146be565b505060010161376d565b505f6137dd866004612ea3565b90505f5b81518110156139c6578654600160201b900460ff165f6004613804836001615dc8565b61380e9190615de1565b90505f896001018360ff166004811061382957613829615a30565b6002020180546040805160208084028201810190925282815292919083018282801561387c57602002820191905f5260205f20905b81546001600160a01b0316815260019091019060200180831161385e575b505050505090505f8a6009018360ff166004811061389c5761389c615a30565b600202018054604080516020808402820181019092528281529291908301828280156138ef57602002820191905f5260205f20905b81546001600160a01b031681526001909101906020018083116138d1575b505050505090505f86868151811061390957613909615a30565b60200260200101516020015190506139218184614703565b8061393157506139318183614703565b806139735750613973818c8c808060200260200160405190810160405280939291908181526020018383602002808284375f9201919091525061470392505050565b156139825750505050506139be565b5f61399461398e6128ec565b836134d5565b62ffffff81165f90815260118f01602052604090209091506139b6818c614760565b505050505050505b6001016137e1565b50505050505050565b306001600160a01b037f0000000000000000000000000000000000000000000000000000000000000000161480613a5557507f00000000000000000000000000000000000000000000000000000000000000006001600160a01b0316613a495f80516020615f01833981519152546001600160a01b031690565b6001600160a01b031614155b1561115b5760405163703e46dd60e11b815260040160405180910390fd5b6127d861344a565b816001600160a01b03166352d1902d6040518163ffffffff1660e01b8152600401602060405180830381865afa925050508015613ad5575060408051601f3d908101601f19168201909252613ad291810190615e1d565b60015b613afd57604051634c9c8ce360e01b81526001600160a01b0383166004820152602401610bca565b5f80516020615f018339815191528114613b2d57604051632a87526960e21b815260048101829052602401610bca565b610d5f83836147b9565b306001600160a01b037f0000000000000000000000000000000000000000000000000000000000000000161461115b5760405163703e46dd60e11b815260040160405180910390fd5b7f9016d09d72d40fdae2fd8ceac6b6234c7706214fd39c1cd1e609a0528c19930080546001600160a01b031981166001600160a01b03848116918217845560405192169182907f8be0079c531659141344cd1fd0a4f28419497f9722a3daafe3b4186f6b6457e0905f90a3505050565b613bf86128bc565b5f80516020615f21833981519152805460ff191660011781557f62e78cea01bee320cd4e420270b5ea74000d11b0c9f74754ebdbfc544b05a258336134bd565b6001600160a01b0381165f9081526002850160205260408120805462ffffff191662ffffff179055613c6b846003612ea3565b519050613c7984838361480e565b62ffffff83165f90815260118501602052604090208454613ca190829063ffffffff16614760565b613caa8161429b565b5f613cb587856148cd565b9050613cd984828762ffffff1685600101601f9054906101000a900460ff166142e1565b5050505050505050565b6060805f80845f015190505f8089516001600160401b03811115613d0957613d0961525c565b604051908082528060200260200182016040528015613d32578160200160208202803683370190505b5090505f8a516001600160401b03811115613d4f57613d4f61525c565b604051908082528060200260200182016040528015613d78578160200160208202803683370190505b5090505f5b8b51811015613e5f575f8c8281518110613d9957613d99615a30565b602002602001015190508b63ffffffff16816040015163ffffffff1603613dc05750613e57565b613dce8e82602001516148cd565b848681518110613de057613de0615a30565b60200260200101906001600160a01b031690816001600160a01b0316815250505f8b60ff168260e0015160ff1603613e19575085613e2a565b613e268260e001516117f8565b5190505b808487613e3681615c97565b985081518110613e4857613e48615a30565b60200260200101818152505050505b600101613d7d565b505f80846001600160401b03811115613e7a57613e7a61525c565b604051908082528060200260200182016040528015613ea3578160200160208202803683370190505b5090505f856001600160401b03811115613ebf57613ebf61525c565b604051908082528060200260200182016040528015613ee8578160200160208202803683370190505b5090505f5b86811015613fa057848181518110613f0757613f07615a30565b602002602001015184613f1a9190615a95565b9350848181518110613f2e57613f2e615a30565b6020026020010151828281518110613f4857613f48615a30565b602002602001018181525050858181518110613f6657613f66615a30565b6020026020010151838281518110613f8057613f80615a30565b6001600160a01b0390921660209283029190910190910152600101613eed565b50909e909d50909b509950505050505050505050565b5f80516020615ee18339815191526001600160a01b038316613ff657604051630b61174360e31b81526001600160a01b0384166004820152602401610bca565b6001600160a01b038481165f818152600584016020908152604080832094881680845294825291829020805460ff191687151590811790915591519182527f17307eab39ab6107e8899845ad3d59bd9653f200f220920489ca2b5937696c31910160405180910390a350505050565b5f811580614076575062ffffff8210155b156140975760405163ed15e6cf60e01b815260048101839052602401610bca565b5f6140a1836143e8565b6001600160a01b0316141592915050565b6001600160a01b0383163b156141d157604051630a85bd0160e11b81526001600160a01b0384169063150b7a02906140f4908890889087908790600401615e34565b6020604051808303815f875af192505050801561412e575060408051601f3d908101601f1916820190925261412b91810190615e66565b60015b614195573d80801561415b576040519150601f19603f3d011682016040523d82523d5f602084013e614160565b606091505b5080515f0361418d57604051633250574960e11b81526001600160a01b0385166004820152602401610bca565b805181602001fd5b6001600160e01b03198116630a85bd0160e11b14610e5257604051633250574960e11b81526001600160a01b0385166004820152602401610bca565b5050505050565b60605f6141e4836148ff565b60010190505f816001600160401b038111156142025761420261525c565b6040519080825280601f01601f19166020018201604052801561422c576020820181803683370190505b5090508181016020015b5f19016f181899199a1a9b1b9c1cb0b131b232b360811b600a86061a8153600a8504945084614236575b509392505050565b6142706149d6565b6127d881614a1f565b6142816149d6565b61115b614a27565b6142916149d6565b610a498282614a47565b60018101805461ffff60e01b1916608360e11b1790556040517fb9e0e3d06d30a4b0476d42accfa2ee90a854c961cc7f10ddc965608a97b982b1906132b9908390615d2e565b5f806142eb6128ec565b6001600160a01b0387165f9081526002820160205260409020805462ffffff8083558354939450919263010000009091046001600160e81b031691600160a01b9091041683601461433b83615e81565b91906101000a81548162ffffff021916908362ffffff1602179055505061436186614a77565b60ff85165f908152600184016020526040908190205484549151634875485760e11b81526001600160a01b038a8116600483015260248201859052919291909116906390ea90ae9083906044015f604051808303818588803b1580156143c5575f80fd5b505af11580156143d7573d5f803e3d5ffd5b50505050508181611d3c9190615a95565b5f9081527f80bb2b638cc20bc4d0a60d66940f3ab4a00c1d7b313497ca82fb0b4ab007930260205260409020546001600160a01b031690565b5f80516020615ee1833981519152818061444357506001600160a01b03831615155b15614504575f6144528561283f565b90506001600160a01b0384161580159061447e5750836001600160a01b0316816001600160a01b031614155b8015614491575061448f8185611d49565b155b156144ba5760405163a9fbf51f60e01b81526001600160a01b0385166004820152602401610bca565b82156145025784866001600160a01b0316826001600160a01b03167f8c5be1e5ebec7d5bd14f71427d1e84f3dd0314c0f7b2291e5b200ac8c7c3b92560405160405180910390a45b505b5f93845260040160205250506040902080546001600160a01b0319166001600160a01b0392909216919091179055565b5f61453e836127db565b602001516001600160e81b03169050836001015f8360ff1660ff1681526020019081526020015f2060010154811015611c1157604051633737b70960e11b815260048101829052602401610bca565b5f80516020615f218339815191525460ff1661115b57604051638dfc202b60e01b815260040160405180910390fd5b5f5f80516020615ee1833981519152816145d5856143e8565b90506001600160a01b038416156145f1576145f1818587614aaf565b6001600160a01b0381161561462d5761460c5f865f80614421565b6001600160a01b0381165f908152600383016020526040902080545f190190555b6001600160a01b0386161561465d576001600160a01b0386165f9081526003830160205260409020805460010190555b5f85815260028301602052604080822080546001600160a01b0319166001600160a01b038a811691821790925591518893918516917fddf252ad1be2c89b69c2b068fc378daa952ba7f163c4a11628f55a4df523b3ef91a495945050505050565b60018101805460ff60e01b1916600360e01b1790556040517f31845bad1fcdd92490e8d85605449863a562ea940e37b380a276e440683fdb72906132b9908390615d2e565b80515f90815b8181101561475657846001600160a01b031684828151811061472d5761472d615a30565b60200260200101516001600160a01b03160361474e57600192505050610983565b600101614709565b505f949350505050565b60018201805463ffffffff8316600160c01b0264ffffffffff60c01b1990911617600560e01b1790556040517f69cb3a026a27d868ccc41f8a2a5e4b59396939b736cf54a110052c9983e8378d90612e97908490615d2e565b6147c282614b13565b6040516001600160a01b038316907fbc7cd75a20ee27fd9adebab32041f755214dbc6bffa90cc0225b39da2e5c2d3b905f90a280511561480657610d5f8282614b76565b610a49614be8565b825463ffffffff811690600160201b900460ff165f61482f868480856133f0565b805490915061484b90859061484690600190615e9e565b613238565b6148558186614c07565b5f614861846001615a44565b90505f614870888387876133a5565b805490915061488790879061484690600190615e9e565b6148918188614c07565b5f61489d866002615a44565b90505f6148ac8a8389896133a5565b80549091506148c390899061484690600190615e9e565b610cf5818a614c07565b6001600160a01b038082165f90815260038401602052604081206001810154919290911680612c405750919392505050565b5f8072184f03e93ff9f4daa797ed6e38ed64bf6a1f0160401b831061493d5772184f03e93ff9f4daa797ed6e38ed64bf6a1f0160401b830492506040015b6d04ee2d6d415b85acef81000000008310614969576d04ee2d6d415b85acef8100000000830492506020015b662386f26fc10000831061498757662386f26fc10000830492506010015b6305f5e100831061499f576305f5e100830492506008015b61271083106149b357612710830492506004015b606483106149c5576064830492506002015b600a83106109835760010192915050565b7ff0c57e16840df040f15088dc2f81fe391c3923bec73e23a9662efc9c229c6a0054600160401b900460ff1661115b57604051631afcd79f60e31b815260040160405180910390fd5b6127a66149d6565b614a2f6149d6565b5f80516020615f21833981519152805460ff19169055565b614a4f6149d6565b5f80516020615ee183398151915280614a688482615bdd565b5060018101610fda8382615bdd565b5f614a835f835f6145bc565b90506001600160a01b038116610a4957604051637e27328960e01b815260048101839052602401610bca565b614aba838383614cf9565b610d5f576001600160a01b038316614ae857604051637e27328960e01b815260048101829052602401610bca565b60405163177e802f60e01b81526001600160a01b038316600482015260248101829052604401610bca565b806001600160a01b03163b5f03614b4857604051634c9c8ce360e01b81526001600160a01b0382166004820152602401610bca565b5f80516020615f0183398151915280546001600160a01b0319166001600160a01b0392909216919091179055565b60605f80846001600160a01b031684604051614b929190615eb1565b5f60405180830381855af49150503d805f8114614bca576040519150601f19603f3d011682016040523d82523d5f602084013e614bcf565b606091505b5091509150614bdf858383614d5d565b95945050505050565b341561115b5760405163b398979f60e01b815260040160405180910390fd5b81545f5b81811015610fda57826001600160a01b0316848281548110614c2f57614c2f615a30565b5f918252602090912001546001600160a01b031603614cf15783614c54600184615e9e565b81548110614c6457614c64615a30565b905f5260205f20015f9054906101000a90046001600160a01b0316848281548110614c9157614c91615a30565b905f5260205f20015f6101000a8154816001600160a01b0302191690836001600160a01b0316021790555083805480614ccc57614ccc615ecc565b5f8281526020902081015f1990810180546001600160a01b0319169055019055610fda565b600101614c0b565b5f6001600160a01b03831615801590612c405750826001600160a01b0316846001600160a01b03161480614d325750614d328484611d49565b80612c405750826001600160a01b0316614d4b83612876565b6001600160a01b031614949350505050565b606082614d7257614d6d82614db9565b611c11565b8151158015614d8957506001600160a01b0384163b155b15614db257604051639996b31560e01b81526001600160a01b0385166004820152602401610bca565b5080611c11565b805115614dc95780518082602001fd5b60405163d6bda27560e01b815260040160405180910390fd5b604080516101008101825260608082525f60208301819052928201839052810182905290608082019081525f602082018190526040820181905260609091015290565b828054828255905f5260205f20908101928215614e78579160200282015b82811115614e7857825182546001600160a01b0319166001600160a01b03909116178255602090920191600190910190614e43565b50614e84929150614e88565b5090565b5b80821115614e84575f8155600101614e89565b6001600160e01b0319811681146127d8575f80fd5b5f60208284031215614ec1575f80fd5b8135611c1181614e9c565b5f5b83811015614ee6578181015183820152602001614ece565b50505f910152565b5f8151808452614f05816020860160208601614ecc565b601f01601f19169290920160200192915050565b602081525f611c116020830184614eee565b5f60208284031215614f3b575f80fd5b5035919050565b80356001600160a01b0381168114611ba2575f80fd5b5f8060408385031215614f69575f80fd5b614f7283614f42565b946020939093013593505050565b5f8083601f840112614f90575f80fd5b5081356001600160401b03811115614fa6575f80fd5b602083019150836020828501011115613756575f80fd5b5f805f805f60608688031215614fd1575f80fd5b85356001600160401b03811115614fe6575f80fd5b614ff288828901614f80565b9096509450615005905060208701614f42565b925060408601356001600160401b0381111561501f575f80fd5b61502b88828901614f80565b969995985093965092949392505050565b5f805f6060848603121561504e575f80fd5b61505784614f42565b925061506560208501614f42565b929592945050506040919091013590565b5f60208284031215615086575f80fd5b611c1182614f42565b5f80602083850312156150a0575f80fd5b82356001600160401b038111156150b5575f80fd5b6150c185828601614f80565b90969095509350505050565b63ffffffff811681146127d8575f80fd5b8035611ba2816150cd565b5f602082840312156150f9575f80fd5b8135611c11816150cd565b602080825282516060838301528051608084018190525f929190910190829060a08501905b808310156151545783516001600160a01b031682526020938401936001939093019290910190615129565b506001600160401b03602087015116604086015263ffffffff604087015116606086015280935050505092915050565b5f8083601f840112615194575f80fd5b5081356001600160401b038111156151aa575f80fd5b6020830191508360208260061b8501011115613756575f80fd5b5f805f80604085870312156151d7575f80fd5b84356001600160401b038111156151ec575f80fd5b8501601f810187136151fc575f80fd5b80356001600160401b03811115615211575f80fd5b8760208260051b8401011115615225575f80fd5b6020918201955093508501356001600160401b03811115615244575f80fd5b61525087828801615184565b95989497509550505050565b634e487b7160e01b5f52604160045260245ffd5b60405161010081016001600160401b03811182821017156152935761529361525c565b60405290565b604051608081016001600160401b03811182821017156152935761529361525c565b604051601f8201601f191681016001600160401b03811182821017156152e3576152e361525c565b604052919050565b5f82601f8301126152fa575f80fd5b81356001600160401b038111156153135761531361525c565b615326601f8201601f19166020016152bb565b81815284602083860101111561533a575f80fd5b816020850160208301375f918101602001919091529392505050565b5f8060408385031215615367575f80fd5b61537083614f42565b915060208301356001600160401b0381111561538a575f80fd5b615396858286016152eb565b9150509250929050565b60ff60f81b8816815260e060208201525f6153be60e0830189614eee565b82810360408401526153d08189614eee565b606084018890526001600160a01b038716608085015260a0840186905283810360c0850152845180825260208087019350909101905f5b81811015615425578351835260209384019390920191600101615407565b50909b9a5050505050505050505050565b803560078110611ba2575f80fd5b5f60208284031215615454575f80fd5b611c1182615436565b634e487b7160e01b5f52602160045260245ffd5b6007811061548d57634e487b7160e01b5f52602160045260245ffd5b9052565b5f815161010084526154a7610100850182614eee565b905060018060a01b03602084015116602085015263ffffffff604084015116604085015260608301516154e2606086018263ffffffff169052565b5060808301516154f56080860182615471565b5060a083015161550960a086018215159052565b5060c083015161551d60c086018215159052565b5060e083015161426060e086018260ff169052565b5f602082016020835280845180835260408501915060408160051b8601019250602086015f5b8281101561558957603f19878603018452615574858351615491565b94506020938401939190910190600101615558565b50929695505050505050565b80358015158114611ba2575f80fd5b803560ff81168114611ba2575f80fd5b5f82601f8301126155c3575f80fd5b81356001600160401b038111156155dc576155dc61525c565b8060051b6155ec602082016152bb565b91825260208185018101929081019086841115615607575f80fd5b6020860192505b838310156156fd5782356001600160401b0381111561562b575f80fd5b8601610100818903601f19011215615641575f80fd5b615649615270565b60208201356001600160401b03811115615661575f80fd5b6156708a6020838601016152eb565b82525061567f60408301614f42565b6020820152615690606083016150de565b60408201526156a1608083016150de565b60608201526156b260a08301615436565b60808201526156c360c08301615595565b60a08201526156d460e08301615595565b60c08201526156e661010083016155a4565b60e08201528352506020928301929091019061560e565b9695505050505050565b5f805f806060858703121561571a575f80fd5b8435615725816150cd565b935060208501356001600160401b0381111561573f575f80fd5b61574b878288016155b4565b93505060408501356001600160401b03811115615244575f80fd5b5f8060408385031215615777575f80fd5b61578083614f42565b915061578e60208401615595565b90509250929050565b5f602082840312156157a7575f80fd5b611c11826155a4565b602081525f611c116020830184615491565b5f805f80608085870312156157d5575f80fd5b6157de85614f42565b93506157ec60208601614f42565b92506040850135915060608501356001600160401b0381111561580d575f80fd5b615819878288016152eb565b91505092959194509250565b5f6080828403128015615836575f80fd5b509092915050565b5f805f60608486031215615850575f80fd5b83356001600160401b03811115615865575f80fd5b615871868287016152eb565b93505061588060208501614f42565b915061588e60408501614f42565b90509250925092565b5f80604083850312156158a8575f80fd5b6158b183614f42565b915061578e60208401614f42565b5f805f8084860360e08112156158d3575f80fd5b6158dc86614f42565b94506080601f19820112156158ef575f80fd5b506158f8615299565b6020868101358252604080880135918301919091526060870135908201526080860135615924816150cd565b6060820152925060a08501356001600160401b03811115615943575f80fd5b61594f878288016155b4565b92505061595e60c08601614f42565b905092959194509250565b600181811c9082168061597d57607f821691505b60208210810361599b57634e487b7160e01b5f52602260045260245ffd5b50919050565b634e487b7160e01b5f52601160045260245ffd5b5f6001600160401b0382166001600160401b0381036159d6576159d66159a1565b60010192915050565b818382375f9101908152919050565b95865260208601949094526001600160a01b0392909216604085015262ffffff16606084015260ff1660808301526001600160401b031660a082015260c00190565b634e487b7160e01b5f52603260045260245ffd5b63ffffffff8181168382160190811115610983576109836159a1565b63ffffffff8281168282160390811115610983576109836159a1565b5f62ffffff821662ffffff81036159d6576159d66159a1565b80820180821115610983576109836159a1565b602081016109838284615471565b8082028115828204841417610983576109836159a1565b634e487b7160e01b5f52601260045260245ffd5b5f82615aef57615aef615acd565b500490565b6001600160e81b038181168382160190811115610983576109836159a1565b5f60ff821660ff81036159d6576159d66159a1565b813581556020820135600182015560408201356002820155600381016060830135615b52816150cd565b815463ffffffff191663ffffffff919091161790555050565b5f8351615b7c818460208801614ecc565b835190830190615b90818360208801614ecc565b01949350505050565b601f821115610d5f57805f5260205f20601f840160051c81016020851015615bbe5750805b601f840160051c820191505b818110156141d1575f8155600101615bca565b81516001600160401b03811115615bf657615bf661525c565b615c0a81615c048454615969565b84615b99565b6020601f821160018114615c3c575f8315615c255750848201515b5f19600385901b1c1916600184901b1784556141d1565b5f84815260208120601f198516915b82811015615c6b5787850151825560209485019460019092019101615c4b565b5084821015615c8857868401515f19600387901b60f8161c191681555b50505050600190811b01905550565b5f60018201615ca857615ca86159a1565b5060010190565b5f8154615cbb81615969565b808552600182168015615cd55760018114615cf157615d25565b60ff1983166020870152602082151560051b8701019350615d25565b845f5260205f205f5b83811015615d1c5781546020828a010152600182019150602081019050615cfa565b87016020019450505b50505092915050565b6020815261010060208201525f615d49610120830184615caf565b60018401546001600160a01b038116604085015260a081901c63ffffffff16606085015260c081901c63ffffffff166080850152615d9060a0850160ff8360e01c16615471565b615da460c0850160ff8360e81c1615159052565b615db860e0850160ff8360f01c1615159052565b60f881901c610100850152614260565b60ff8181168382160190811115610983576109836159a1565b5f60ff831680615df357615df3615acd565b8060ff84160691505092915050565b5f63ffffffff821663ffffffff81036159d6576159d66159a1565b5f60208284031215615e2d575f80fd5b5051919050565b6001600160a01b03858116825284166020820152604081018390526080606082018190525f906156fd90830184614eee565b5f60208284031215615e76575f80fd5b8151611c1181614e9c565b5f62ffffff821680615e9557615e956159a1565b5f190192915050565b81810381811115610983576109836159a1565b5f8251615ec2818460208701614ecc565b9190910192915050565b634e487b7160e01b5f52603160045260245ffdfe80bb2b638cc20bc4d0a60d66940f3ab4a00c1d7b313497ca82fb0b4ab0079300360894a13ba1a3210667c828492db98dca3e2076cc3735a920a3ca505d382bbccd5ed15c6e187e77e9aee88184c21f4f2182ab5827cb3b7e07fbedcd63f03300af33537d204b7c8488a91ad2a40f2c043712bad394401b7dd7bd4cb801f23100a164736f6c634300081a000a","linkReferences":{}},"methodIdentifiers":{"SYSTEM_ADDRESS()":"3434735f","UPGRADE_INTERFACE_VERSION()":"ad3cb1cc","activate()":"0f15f4c0","applyIncentives(uint32,(bytes,address,uint32,uint32,uint8,bool,bool,uint8)[],(uint24,uint232)[])":"8f2f6e2f","approve(address,uint256)":"095ea7b3","balanceOf(address)":"70a08231","beginExit()":"2228dfa0","burn(address)":"89afcb44","claimStakeRewards(address)":"2b9f4985","concludeEpoch(address[],(uint24,uint232)[])":"486c6c8f","delegateStake(bytes,address,bytes)":"0cc1026b","delegationDigest(bytes,address,address)":"e3716d04","eip712Domain()":"84b0196e","getApproved(uint256)":"081812fc","getCurrentEpoch()":"b97dd9e2","getCurrentEpochInfo()":"babc394f","getCurrentStakeConfig()":"7d06fdf8","getEpochInfo(uint32)":"374ed18c","getRewards(address)":"79ee54f7","getValidatorByTokenId(uint256)":"aa680fe0","getValidatorTokenId(address)":"e36e10ad","getValidators(uint8)":"8cc05eda","incentiveInfo(address)":"fc5ffc0a","initialize(address,(uint256,uint256,uint256,uint32),(bytes,address,uint32,uint32,uint8,bool,bool,uint8)[],address)":"f1070c47","isApprovedForAll(address,address)":"e985e9c5","isRetired(uint256)":"cf6ebee7","mint(address,uint256)":"40c10f19","name()":"06fdde03","owner()":"8da5cb5b","ownerOf(uint256)":"6352211e","pause()":"8456cb59","paused()":"5c975abb","proxiableUUID()":"52d1902d","renounceOwnership()":"715018a6","safeTransferFrom(address,address,uint256)":"42842e0e","safeTransferFrom(address,address,uint256,bytes)":"b88d4fde","setApprovalForAll(address,bool)":"a22cb465","stake(bytes)":"2d1e0c02","stakeConfig(uint8)":"a71954ec","stakeVersion()":"568d312c","supportsInterface(bytes4)":"01ffc9a7","symbol()":"95d89b41","tokenURI(uint256)":"c87b56dd","totalSupply()":"18160ddd","transferFrom(address,address,uint256)":"23b872dd","transferOwnership(address)":"f2fde38b","unpause()":"3f4ba83a","unstake(address)":"f2888dbb","upgradeStakeVersion((uint256,uint256,uint256,uint32))":"c05df7ac","upgradeToAndCall(address,bytes)":"4f1ef286"},"id":144}