{"abi":[{"type":"constructor","inputs":[{"name":"genesisConfig_","type":"tuple","internalType":"struct IStakeManager.StakeConfig","components":[{"name":"stakeAmount","type":"uint256","internalType":"uint256"},{"name":"minWithdrawAmount","type":"uint256","internalType":"uint256"},{"name":"epochIssuance","type":"uint256","internalType":"uint256"},{"name":"epochDuration","type":"uint32","internalType":"uint32"}]},{"name":"initialValidators_","type":"tuple[]","internalType":"struct IConsensusRegistry.ValidatorInfo[]","components":[{"name":"blsPubkey","type":"bytes","internalType":"bytes"},{"name":"validatorAddress","type":"address","internalType":"address"},{"name":"activationEpoch","type":"uint32","internalType":"uint32"},{"name":"exitEpoch","type":"uint32","internalType":"uint32"},{"name":"currentStatus","type":"uint8","internalType":"enum IConsensusRegistry.ValidatorStatus"},{"name":"isRetired","type":"bool","internalType":"bool"},{"name":"isDelegated","type":"bool","internalType":"bool"},{"name":"stakeVersion","type":"uint8","internalType":"uint8"}]},{"name":"owner_","type":"address","internalType":"address"}],"stateMutability":"nonpayable"},{"type":"function","name":"SYSTEM_ADDRESS","inputs":[],"outputs":[{"name":"","type":"address","internalType":"address"}],"stateMutability":"view"},{"type":"function","name":"activate","inputs":[],"outputs":[],"stateMutability":"nonpayable"},{"type":"function","name":"allocateIssuance","inputs":[],"outputs":[],"stateMutability":"payable"},{"type":"function","name":"applyIncentives","inputs":[{"name":"rewardInfos","type":"tuple[]","internalType":"struct RewardInfo[]","components":[{"name":"validatorAddress","type":"address","internalType":"address"},{"name":"consensusHeaderCount","type":"uint256","internalType":"uint256"}]}],"outputs":[],"stateMutability":"nonpayable"},{"type":"function","name":"applySlashes","inputs":[{"name":"slashes","type":"tuple[]","internalType":"struct Slash[]","components":[{"name":"validatorAddress","type":"address","internalType":"address"},{"name":"amount","type":"uint256","internalType":"uint256"}]}],"outputs":[],"stateMutability":"nonpayable"},{"type":"function","name":"approve","inputs":[{"name":"","type":"address","internalType":"address"},{"name":"","type":"uint256","internalType":"uint256"}],"outputs":[],"stateMutability":"nonpayable"},{"type":"function","name":"balanceOf","inputs":[{"name":"owner","type":"address","internalType":"address"}],"outputs":[{"name":"","type":"uint256","internalType":"uint256"}],"stateMutability":"view"},{"type":"function","name":"beginExit","inputs":[],"outputs":[],"stateMutability":"nonpayable"},{"type":"function","name":"burn","inputs":[{"name":"validatorAddress","type":"address","internalType":"address"}],"outputs":[],"stateMutability":"nonpayable"},{"type":"function","name":"claimStakeRewards","inputs":[{"name":"validatorAddress","type":"address","internalType":"address"}],"outputs":[],"stateMutability":"nonpayable"},{"type":"function","name":"concludeEpoch","inputs":[{"name":"futureCommittee","type":"address[]","internalType":"address[]"}],"outputs":[],"stateMutability":"nonpayable"},{"type":"function","name":"delegateStake","inputs":[{"name":"blsPubkey","type":"bytes","internalType":"bytes"},{"name":"validatorAddress","type":"address","internalType":"address"},{"name":"validatorSig","type":"bytes","internalType":"bytes"}],"outputs":[],"stateMutability":"payable"},{"type":"function","name":"delegationDigest","inputs":[{"name":"blsPubkey","type":"bytes","internalType":"bytes"},{"name":"validatorAddress","type":"address","internalType":"address"},{"name":"delegator","type":"address","internalType":"address"}],"outputs":[{"name":"","type":"bytes32","internalType":"bytes32"}],"stateMutability":"view"},{"type":"function","name":"eip712Domain","inputs":[],"outputs":[{"name":"fields","type":"bytes1","internalType":"bytes1"},{"name":"name","type":"string","internalType":"string"},{"name":"version","type":"string","internalType":"string"},{"name":"chainId","type":"uint256","internalType":"uint256"},{"name":"verifyingContract","type":"address","internalType":"address"},{"name":"salt","type":"bytes32","internalType":"bytes32"},{"name":"extensions","type":"uint256[]","internalType":"uint256[]"}],"stateMutability":"view"},{"type":"function","name":"epochInfo","inputs":[{"name":"","type":"uint256","internalType":"uint256"}],"outputs":[{"name":"epochIssuance","type":"uint256","internalType":"uint256"},{"name":"blockHeight","type":"uint64","internalType":"uint64"},{"name":"epochDuration","type":"uint32","internalType":"uint32"},{"name":"stakeVersion","type":"uint8","internalType":"uint8"}],"stateMutability":"view"},{"type":"function","name":"futureEpochInfo","inputs":[{"name":"","type":"uint256","internalType":"uint256"}],"outputs":[{"name":"epochIssuance","type":"uint256","internalType":"uint256"},{"name":"blockHeight","type":"uint64","internalType":"uint64"},{"name":"epochDuration","type":"uint32","internalType":"uint32"},{"name":"stakeVersion","type":"uint8","internalType":"uint8"}],"stateMutability":"view"},{"type":"function","name":"getApproved","inputs":[{"name":"tokenId","type":"uint256","internalType":"uint256"}],"outputs":[{"name":"","type":"address","internalType":"address"}],"stateMutability":"view"},{"type":"function","name":"getBalance","inputs":[{"name":"validatorAddress","type":"address","internalType":"address"}],"outputs":[{"name":"","type":"uint256","internalType":"uint256"}],"stateMutability":"view"},{"type":"function","name":"getCommitteeValidators","inputs":[{"name":"epoch","type":"uint32","internalType":"uint32"}],"outputs":[{"name":"","type":"tuple[]","internalType":"struct IConsensusRegistry.ValidatorInfo[]","components":[{"name":"blsPubkey","type":"bytes","internalType":"bytes"},{"name":"validatorAddress","type":"address","internalType":"address"},{"name":"activationEpoch","type":"uint32","internalType":"uint32"},{"name":"exitEpoch","type":"uint32","internalType":"uint32"},{"name":"currentStatus","type":"uint8","internalType":"enum IConsensusRegistry.ValidatorStatus"},{"name":"isRetired","type":"bool","internalType":"bool"},{"name":"isDelegated","type":"bool","internalType":"bool"},{"name":"stakeVersion","type":"uint8","internalType":"uint8"}]}],"stateMutability":"view"},{"type":"function","name":"getCurrentEpoch","inputs":[],"outputs":[{"name":"","type":"uint32","internalType":"uint32"}],"stateMutability":"view"},{"type":"function","name":"getCurrentEpochInfo","inputs":[],"outputs":[{"name":"","type":"tuple","internalType":"struct IConsensusRegistry.EpochInfo","components":[{"name":"committee","type":"address[]","internalType":"address[]"},{"name":"epochIssuance","type":"uint256","internalType":"uint256"},{"name":"blockHeight","type":"uint64","internalType":"uint64"},{"name":"epochDuration","type":"uint32","internalType":"uint32"},{"name":"stakeVersion","type":"uint8","internalType":"uint8"}]}],"stateMutability":"view"},{"type":"function","name":"getCurrentStakeConfig","inputs":[],"outputs":[{"name":"","type":"tuple","internalType":"struct IStakeManager.StakeConfig","components":[{"name":"stakeAmount","type":"uint256","internalType":"uint256"},{"name":"minWithdrawAmount","type":"uint256","internalType":"uint256"},{"name":"epochIssuance","type":"uint256","internalType":"uint256"},{"name":"epochDuration","type":"uint32","internalType":"uint32"}]}],"stateMutability":"view"},{"type":"function","name":"getCurrentStakeVersion","inputs":[],"outputs":[{"name":"","type":"uint8","internalType":"uint8"}],"stateMutability":"view"},{"type":"function","name":"getEpochInfo","inputs":[{"name":"epoch","type":"uint32","internalType":"uint32"}],"outputs":[{"name":"","type":"tuple","internalType":"struct IConsensusRegistry.EpochInfo","components":[{"name":"committee","type":"address[]","internalType":"address[]"},{"name":"epochIssuance","type":"uint256","internalType":"uint256"},{"name":"blockHeight","type":"uint64","internalType":"uint64"},{"name":"epochDuration","type":"uint32","internalType":"uint32"},{"name":"stakeVersion","type":"uint8","internalType":"uint8"}]}],"stateMutability":"view"},{"type":"function","name":"getRewards","inputs":[{"name":"validatorAddress","type":"address","internalType":"address"}],"outputs":[{"name":"","type":"uint256","internalType":"uint256"}],"stateMutability":"view"},{"type":"function","name":"getValidator","inputs":[{"name":"validatorAddress","type":"address","internalType":"address"}],"outputs":[{"name":"","type":"tuple","internalType":"struct IConsensusRegistry.ValidatorInfo","components":[{"name":"blsPubkey","type":"bytes","internalType":"bytes"},{"name":"validatorAddress","type":"address","internalType":"address"},{"name":"activationEpoch","type":"uint32","internalType":"uint32"},{"name":"exitEpoch","type":"uint32","internalType":"uint32"},{"name":"currentStatus","type":"uint8","internalType":"enum IConsensusRegistry.ValidatorStatus"},{"name":"isRetired","type":"bool","internalType":"bool"},{"name":"isDelegated","type":"bool","internalType":"bool"},{"name":"stakeVersion","type":"uint8","internalType":"uint8"}]}],"stateMutability":"view"},{"type":"function","name":"getValidators","inputs":[{"name":"status","type":"uint8","internalType":"enum IConsensusRegistry.ValidatorStatus"}],"outputs":[{"name":"","type":"tuple[]","internalType":"struct IConsensusRegistry.ValidatorInfo[]","components":[{"name":"blsPubkey","type":"bytes","internalType":"bytes"},{"name":"validatorAddress","type":"address","internalType":"address"},{"name":"activationEpoch","type":"uint32","internalType":"uint32"},{"name":"exitEpoch","type":"uint32","internalType":"uint32"},{"name":"currentStatus","type":"uint8","internalType":"enum IConsensusRegistry.ValidatorStatus"},{"name":"isRetired","type":"bool","internalType":"bool"},{"name":"isDelegated","type":"bool","internalType":"bool"},{"name":"stakeVersion","type":"uint8","internalType":"uint8"}]}],"stateMutability":"view"},{"type":"function","name":"isApprovedForAll","inputs":[{"name":"owner","type":"address","internalType":"address"},{"name":"operator","type":"address","internalType":"address"}],"outputs":[{"name":"","type":"bool","internalType":"bool"}],"stateMutability":"view"},{"type":"function","name":"isRetired","inputs":[{"name":"validatorAddress","type":"address","internalType":"address"}],"outputs":[{"name":"","type":"bool","internalType":"bool"}],"stateMutability":"view"},{"type":"function","name":"issuance","inputs":[],"outputs":[{"name":"","type":"address","internalType":"address payable"}],"stateMutability":"view"},{"type":"function","name":"mint","inputs":[{"name":"validatorAddress","type":"address","internalType":"address"}],"outputs":[],"stateMutability":"nonpayable"},{"type":"function","name":"name","inputs":[],"outputs":[{"name":"","type":"string","internalType":"string"}],"stateMutability":"view"},{"type":"function","name":"owner","inputs":[],"outputs":[{"name":"","type":"address","internalType":"address"}],"stateMutability":"view"},{"type":"function","name":"ownerOf","inputs":[{"name":"tokenId","type":"uint256","internalType":"uint256"}],"outputs":[{"name":"","type":"address","internalType":"address"}],"stateMutability":"view"},{"type":"function","name":"pause","inputs":[],"outputs":[],"stateMutability":"nonpayable"},{"type":"function","name":"paused","inputs":[],"outputs":[{"name":"","type":"bool","internalType":"bool"}],"stateMutability":"view"},{"type":"function","name":"renounceOwnership","inputs":[],"outputs":[],"stateMutability":"nonpayable"},{"type":"function","name":"safeTransferFrom","inputs":[{"name":"from","type":"address","internalType":"address"},{"name":"to","type":"address","internalType":"address"},{"name":"tokenId","type":"uint256","internalType":"uint256"}],"outputs":[],"stateMutability":"nonpayable"},{"type":"function","name":"safeTransferFrom","inputs":[{"name":"from","type":"address","internalType":"address"},{"name":"to","type":"address","internalType":"address"},{"name":"tokenId","type":"uint256","internalType":"uint256"},{"name":"data","type":"bytes","internalType":"bytes"}],"outputs":[],"stateMutability":"nonpayable"},{"type":"function","name":"setApprovalForAll","inputs":[{"name":"","type":"address","internalType":"address"},{"name":"","type":"bool","internalType":"bool"}],"outputs":[],"stateMutability":"nonpayable"},{"type":"function","name":"stake","inputs":[{"name":"blsPubkey","type":"bytes","internalType":"bytes"}],"outputs":[],"stateMutability":"payable"},{"type":"function","name":"stakeConfig","inputs":[{"name":"version","type":"uint8","internalType":"uint8"}],"outputs":[{"name":"","type":"tuple","internalType":"struct IStakeManager.StakeConfig","components":[{"name":"stakeAmount","type":"uint256","internalType":"uint256"},{"name":"minWithdrawAmount","type":"uint256","internalType":"uint256"},{"name":"epochIssuance","type":"uint256","internalType":"uint256"},{"name":"epochDuration","type":"uint32","internalType":"uint32"}]}],"stateMutability":"view"},{"type":"function","name":"supportsInterface","inputs":[{"name":"interfaceId","type":"bytes4","internalType":"bytes4"}],"outputs":[{"name":"","type":"bool","internalType":"bool"}],"stateMutability":"view"},{"type":"function","name":"symbol","inputs":[],"outputs":[{"name":"","type":"string","internalType":"string"}],"stateMutability":"view"},{"type":"function","name":"tokenByIndex","inputs":[{"name":"index","type":"uint256","internalType":"uint256"}],"outputs":[{"name":"","type":"uint256","internalType":"uint256"}],"stateMutability":"view"},{"type":"function","name":"tokenOfOwnerByIndex","inputs":[{"name":"owner","type":"address","internalType":"address"},{"name":"index","type":"uint256","internalType":"uint256"}],"outputs":[{"name":"","type":"uint256","internalType":"uint256"}],"stateMutability":"view"},{"type":"function","name":"tokenURI","inputs":[{"name":"tokenId","type":"uint256","internalType":"uint256"}],"outputs":[{"name":"","type":"string","internalType":"string"}],"stateMutability":"view"},{"type":"function","name":"totalSupply","inputs":[],"outputs":[{"name":"","type":"uint256","internalType":"uint256"}],"stateMutability":"view"},{"type":"function","name":"transferFrom","inputs":[{"name":"","type":"address","internalType":"address"},{"name":"","type":"address","internalType":"address"},{"name":"","type":"uint256","internalType":"uint256"}],"outputs":[],"stateMutability":"nonpayable"},{"type":"function","name":"transferOwnership","inputs":[{"name":"newOwner","type":"address","internalType":"address"}],"outputs":[],"stateMutability":"nonpayable"},{"type":"function","name":"unpause","inputs":[],"outputs":[],"stateMutability":"nonpayable"},{"type":"function","name":"unstake","inputs":[{"name":"validatorAddress","type":"address","internalType":"address"}],"outputs":[],"stateMutability":"nonpayable"},{"type":"function","name":"upgradeStakeVersion","inputs":[{"name":"newConfig","type":"tuple","internalType":"struct IStakeManager.StakeConfig","components":[{"name":"stakeAmount","type":"uint256","internalType":"uint256"},{"name":"minWithdrawAmount","type":"uint256","internalType":"uint256"},{"name":"epochIssuance","type":"uint256","internalType":"uint256"},{"name":"epochDuration","type":"uint32","internalType":"uint32"}]}],"outputs":[{"name":"","type":"uint8","internalType":"uint8"}],"stateMutability":"nonpayable"},{"type":"function","name":"validators","inputs":[{"name":"","type":"address","internalType":"address"}],"outputs":[{"name":"blsPubkey","type":"bytes","internalType":"bytes"},{"name":"validatorAddress","type":"address","internalType":"address"},{"name":"activationEpoch","type":"uint32","internalType":"uint32"},{"name":"exitEpoch","type":"uint32","internalType":"uint32"},{"name":"currentStatus","type":"uint8","internalType":"enum IConsensusRegistry.ValidatorStatus"},{"name":"isRetired","type":"bool","internalType":"bool"},{"name":"isDelegated","type":"bool","internalType":"bool"},{"name":"stakeVersion","type":"uint8","internalType":"uint8"}],"stateMutability":"view"},{"type":"event","name":"Approval","inputs":[{"name":"owner","type":"address","indexed":true,"internalType":"address"},{"name":"approved","type":"address","indexed":true,"internalType":"address"},{"name":"tokenId","type":"uint256","indexed":true,"internalType":"uint256"}],"anonymous":false},{"type":"event","name":"ApprovalForAll","inputs":[{"name":"owner","type":"address","indexed":true,"internalType":"address"},{"name":"operator","type":"address","indexed":true,"internalType":"address"},{"name":"approved","type":"bool","indexed":false,"internalType":"bool"}],"anonymous":false},{"type":"event","name":"NewEpoch","inputs":[{"name":"epoch","type":"tuple","indexed":false,"internalType":"struct IConsensusRegistry.EpochInfo","components":[{"name":"committee","type":"address[]","internalType":"address[]"},{"name":"epochIssuance","type":"uint256","internalType":"uint256"},{"name":"blockHeight","type":"uint64","internalType":"uint64"},{"name":"epochDuration","type":"uint32","internalType":"uint32"},{"name":"stakeVersion","type":"uint8","internalType":"uint8"}]}],"anonymous":false},{"type":"event","name":"OwnershipTransferred","inputs":[{"name":"previousOwner","type":"address","indexed":true,"internalType":"address"},{"name":"newOwner","type":"address","indexed":true,"internalType":"address"}],"anonymous":false},{"type":"event","name":"Paused","inputs":[{"name":"account","type":"address","indexed":false,"internalType":"address"}],"anonymous":false},{"type":"event","name":"RewardsClaimed","inputs":[{"name":"claimant","type":"address","indexed":false,"internalType":"address"},{"name":"rewards","type":"uint256","indexed":false,"internalType":"uint256"}],"anonymous":false},{"type":"event","name":"Transfer","inputs":[{"name":"from","type":"address","indexed":true,"internalType":"address"},{"name":"to","type":"address","indexed":true,"internalType":"address"},{"name":"tokenId","type":"uint256","indexed":true,"internalType":"uint256"}],"anonymous":false},{"type":"event","name":"Unpaused","inputs":[{"name":"account","type":"address","indexed":false,"internalType":"address"}],"anonymous":false},{"type":"event","name":"ValidatorActivated","inputs":[{"name":"validator","type":"tuple","indexed":false,"internalType":"struct IConsensusRegistry.ValidatorInfo","components":[{"name":"blsPubkey","type":"bytes","internalType":"bytes"},{"name":"validatorAddress","type":"address","internalType":"address"},{"name":"activationEpoch","type":"uint32","internalType":"uint32"},{"name":"exitEpoch","type":"uint32","internalType":"uint32"},{"name":"currentStatus","type":"uint8","internalType":"enum IConsensusRegistry.ValidatorStatus"},{"name":"isRetired","type":"bool","internalType":"bool"},{"name":"isDelegated","type":"bool","internalType":"bool"},{"name":"stakeVersion","type":"uint8","internalType":"uint8"}]}],"anonymous":false},{"type":"event","name":"ValidatorExited","inputs":[{"name":"validator","type":"tuple","indexed":false,"internalType":"struct IConsensusRegistry.ValidatorInfo","components":[{"name":"blsPubkey","type":"bytes","internalType":"bytes"},{"name":"validatorAddress","type":"address","internalType":"address"},{"name":"activationEpoch","type":"uint32","internalType":"uint32"},{"name":"exitEpoch","type":"uint32","internalType":"uint32"},{"name":"currentStatus","type":"uint8","internalType":"enum IConsensusRegistry.ValidatorStatus"},{"name":"isRetired","type":"bool","internalType":"bool"},{"name":"isDelegated","type":"bool","internalType":"bool"},{"name":"stakeVersion","type":"uint8","internalType":"uint8"}]}],"anonymous":false},{"type":"event","name":"ValidatorPendingActivation","inputs":[{"name":"validator","type":"tuple","indexed":false,"internalType":"struct IConsensusRegistry.ValidatorInfo","components":[{"name":"blsPubkey","type":"bytes","internalType":"bytes"},{"name":"validatorAddress","type":"address","internalType":"address"},{"name":"activationEpoch","type":"uint32","internalType":"uint32"},{"name":"exitEpoch","type":"uint32","internalType":"uint32"},{"name":"currentStatus","type":"uint8","internalType":"enum IConsensusRegistry.ValidatorStatus"},{"name":"isRetired","type":"bool","internalType":"bool"},{"name":"isDelegated","type":"bool","internalType":"bool"},{"name":"stakeVersion","type":"uint8","internalType":"uint8"}]}],"anonymous":false},{"type":"event","name":"ValidatorPendingExit","inputs":[{"name":"validator","type":"tuple","indexed":false,"internalType":"struct IConsensusRegistry.ValidatorInfo","components":[{"name":"blsPubkey","type":"bytes","internalType":"bytes"},{"name":"validatorAddress","type":"address","internalType":"address"},{"name":"activationEpoch","type":"uint32","internalType":"uint32"},{"name":"exitEpoch","type":"uint32","internalType":"uint32"},{"name":"currentStatus","type":"uint8","internalType":"enum IConsensusRegistry.ValidatorStatus"},{"name":"isRetired","type":"bool","internalType":"bool"},{"name":"isDelegated","type":"bool","internalType":"bool"},{"name":"stakeVersion","type":"uint8","internalType":"uint8"}]}],"anonymous":false},{"type":"event","name":"ValidatorRetired","inputs":[{"name":"validator","type":"tuple","indexed":false,"internalType":"struct IConsensusRegistry.ValidatorInfo","components":[{"name":"blsPubkey","type":"bytes","internalType":"bytes"},{"name":"validatorAddress","type":"address","internalType":"address"},{"name":"activationEpoch","type":"uint32","internalType":"uint32"},{"name":"exitEpoch","type":"uint32","internalType":"uint32"},{"name":"currentStatus","type":"uint8","internalType":"enum IConsensusRegistry.ValidatorStatus"},{"name":"isRetired","type":"bool","internalType":"bool"},{"name":"isDelegated","type":"bool","internalType":"bool"},{"name":"stakeVersion","type":"uint8","internalType":"uint8"}]}],"anonymous":false},{"type":"event","name":"ValidatorSlashed","inputs":[{"name":"slash","type":"tuple","indexed":false,"internalType":"struct Slash","components":[{"name":"validatorAddress","type":"address","internalType":"address"},{"name":"amount","type":"uint256","internalType":"uint256"}]}],"anonymous":false},{"type":"event","name":"ValidatorStaked","inputs":[{"name":"validator","type":"tuple","indexed":false,"internalType":"struct IConsensusRegistry.ValidatorInfo","components":[{"name":"blsPubkey","type":"bytes","internalType":"bytes"},{"name":"validatorAddress","type":"address","internalType":"address"},{"name":"activationEpoch","type":"uint32","internalType":"uint32"},{"name":"exitEpoch","type":"uint32","internalType":"uint32"},{"name":"currentStatus","type":"uint8","internalType":"enum IConsensusRegistry.ValidatorStatus"},{"name":"isRetired","type":"bool","internalType":"bool"},{"name":"isDelegated","type":"bool","internalType":"bool"},{"name":"stakeVersion","type":"uint8","internalType":"uint8"}]}],"anonymous":false},{"type":"error","name":"AlreadyDefined","inputs":[{"name":"validatorAddress","type":"address","internalType":"address"}]},{"type":"error","name":"CommitteeRequirement","inputs":[{"name":"validatorAddress","type":"address","internalType":"address"}]},{"type":"error","name":"DuplicateBLSPubkey","inputs":[]},{"type":"error","name":"ERC721EnumerableForbiddenBatchMint","inputs":[]},{"type":"error","name":"ERC721IncorrectOwner","inputs":[{"name":"sender","type":"address","internalType":"address"},{"name":"tokenId","type":"uint256","internalType":"uint256"},{"name":"owner","type":"address","internalType":"address"}]},{"type":"error","name":"ERC721InsufficientApproval","inputs":[{"name":"operator","type":"address","internalType":"address"},{"name":"tokenId","type":"uint256","internalType":"uint256"}]},{"type":"error","name":"ERC721InvalidApprover","inputs":[{"name":"approver","type":"address","internalType":"address"}]},{"type":"error","name":"ERC721InvalidOperator","inputs":[{"name":"operator","type":"address","internalType":"address"}]},{"type":"error","name":"ERC721InvalidOwner","inputs":[{"name":"owner","type":"address","internalType":"address"}]},{"type":"error","name":"ERC721InvalidReceiver","inputs":[{"name":"receiver","type":"address","internalType":"address"}]},{"type":"error","name":"ERC721InvalidSender","inputs":[{"name":"sender","type":"address","internalType":"address"}]},{"type":"error","name":"ERC721NonexistentToken","inputs":[{"name":"tokenId","type":"uint256","internalType":"uint256"}]},{"type":"error","name":"ERC721OutOfBoundsIndex","inputs":[{"name":"owner","type":"address","internalType":"address"},{"name":"index","type":"uint256","internalType":"uint256"}]},{"type":"error","name":"EnforcedPause","inputs":[]},{"type":"error","name":"ExpectedPause","inputs":[]},{"type":"error","name":"GenesisArityMismatch","inputs":[]},{"type":"error","name":"InsufficientRewards","inputs":[{"name":"withdrawAmount","type":"uint256","internalType":"uint256"}]},{"type":"error","name":"InvalidBLSPubkey","inputs":[]},{"type":"error","name":"InvalidCommitteeSize","inputs":[{"name":"minCommitteeSize","type":"uint256","internalType":"uint256"},{"name":"providedCommitteeSize","type":"uint256","internalType":"uint256"}]},{"type":"error","name":"InvalidDuration","inputs":[{"name":"duration","type":"uint32","internalType":"uint32"}]},{"type":"error","name":"InvalidEpoch","inputs":[{"name":"epoch","type":"uint32","internalType":"uint32"}]},{"type":"error","name":"InvalidProof","inputs":[]},{"type":"error","name":"InvalidStakeAmount","inputs":[{"name":"stakeAmount","type":"uint256","internalType":"uint256"}]},{"type":"error","name":"InvalidStatus","inputs":[{"name":"status","type":"uint8","internalType":"enum IConsensusRegistry.ValidatorStatus"}]},{"type":"error","name":"InvalidSupply","inputs":[]},{"type":"error","name":"InvalidTokenId","inputs":[{"name":"tokenId","type":"uint256","internalType":"uint256"}]},{"type":"error","name":"InvalidValidatorAddress","inputs":[]},{"type":"error","name":"LowLevelCallFailure","inputs":[]},{"type":"error","name":"NotRecipient","inputs":[{"name":"recipient","type":"address","internalType":"address"}]},{"type":"error","name":"NotTransferable","inputs":[]},{"type":"error","name":"NotValidator","inputs":[{"name":"validatorAddress","type":"address","internalType":"address"}]},{"type":"error","name":"OnlySystemCall","inputs":[{"name":"invalidCaller","type":"address","internalType":"address"}]},{"type":"error","name":"OwnableInvalidOwner","inputs":[{"name":"owner","type":"address","internalType":"address"}]},{"type":"error","name":"OwnableUnauthorizedAccount","inputs":[{"name":"account","type":"address","internalType":"address"}]},{"type":"error","name":"Reentrancy","inputs":[]},{"type":"error","name":"RequiresConsensusNFT","inputs":[]},{"type":"error","name":"StringsInsufficientHexLength","inputs":[{"name":"value","type":"uint256","internalType":"uint256"},{"name":"length","type":"uint256","internalType":"uint256"}]}],"bytecode":{"object":"0x610120604052348015610010575f80fd5b506040516173eb3803806173eb83398101604081905261002f91610fe5565b806040518060400160405280600c81526020016b10dbdb9cd95b9cdd5cd3919560a21b8152506040518060400160405280600481526020016310d3919560e21b8152508181815f9081610082919061123c565b50600161008f828261123c565b505030608052504660a0526060806100ef604080518082018252601481527f54656c636f696e205374616b654d616e61676572000000000000000000000000602080830191909152825180840190935260018352603160f81b9083015291565b815160209283012081519183019190912060c082905260e0819052604080517f8b73c3c69bb8fe3d512ecc4cf759cc79239f7b179b0ffacaa9a75d522b39400f8152938401929092529082015246606082015230608082015260a09020610100525050506001600160a01b038216905061018357604051631e4fbdf760e01b81525f60048201526024015b60405180910390fd5b61018c816107ed565b508151158061019e5750815162ffffff105b156101bc57604051633aa3e03360e01b815260040160405180910390fd5b306040516101c990610e6c565b6001600160a01b039091168152602001604051809103905ff0801580156101f2573d5f803e3d5ffd5b50600a80546001600160a01b0319166001600160a01b03929092169190911790555f808052600b602090815284517fdf7de25b7f1fd6d0b5205f0e18f1f35bd7b8d84cce336588d184533ce43a6f76558401517fdf7de25b7f1fd6d0b5205f0e18f1f35bd7b8d84cce336588d184533ce43a6f775560408401517fdf7de25b7f1fd6d0b5205f0e18f1f35bd7b8d84cce336588d184533ce43a6f785560608401517fdf7de25b7f1fd6d0b5205f0e18f1f35bd7b8d84cce336588d184533ce43a6f79805463ffffffff191663ffffffff9092169190911790555b60028111610334575f600f82600481106102e8576102e86112f6565b60030201905084606001518160020160086101000a81548163ffffffff021916908363ffffffff16021790555084604001518160010181905550508061032d9061131e565b90506102cc565b505f5b82518110156107e4575f838281518110610353576103536112f6565b60200260200101519050805f015151606014610382576040516333a234f960e11b815260040160405180910390fd5b60208101516001600160a01b03166103ad5760405163713ce51160e01b815260040160405180910390fd5b604081015163ffffffff16156103e4576040808201519051634fadd4d360e11b815263ffffffff909116600482015260240161017a565b606081015163ffffffff161561041b576060810151604051634fadd4d360e11b815263ffffffff909116600482015260240161017a565b60038160800151600681111561043357610433611336565b14610457578060800151604051633ba7bf8960e11b815260040161017a919061136a565b60a08101511561047d576005604051633ba7bf8960e11b815260040161017a919061136a565b60c08101511515600103610556576040805160a08101825282518051602091820120825280840180516001600160a01b039081168385019081528882168587019081525f60608701818152600160808901818152965186168352600d90975297902095518655905193850180546001600160a01b0319169483169490941790935591516002909301805494519151939092166001600160a81b031990941693909317600160a01b60ff9094169390930292909217600160a81b600160e81b031916600160a81b6001600160401b03909216919091021790555b60e081015160ff16156105875760e081015160405163222d164360e21b815260ff909116600482015260240161017a565b5f5b6002811161064557600f81600481106105a4576105a46112f6565b6020848101516003929092029290920180546001810182555f91825292902090910180546001600160a01b0319166001600160a01b03909216919091179055601b81600481106105f6576105f66112f6565b6020848101516003929092029290920180546001810182555f91825292902090910180546001600160a01b0319166001600160a01b0390921691909117905561063e8161131e565b9050610589565b506020808201516001600160a01b03165f90815260279091526040902081518291908190610673908261123c565b5060208201516001820180546040850151606086015163ffffffff908116600160c01b0263ffffffff60c01b1991909216600160a01b026001600160c01b03199093166001600160a01b0390951694909417919091179283168117825560808501519260ff60e01b1990911664ffffffffff60c01b1990911617600160e01b83600681111561070457610704611336565b021790555060a08201516001909101805460c084015160e09094015160ff16600160f81b026001600160f81b03941515600160f01b0260ff60f01b19941515600160e81b029490941661ffff60e81b199092169190911792909217929092161790558451602080830180516001600160a01b03165f908152600c909252604090912091909155516107a49061079f816001600160a01b031690565b610846565b7f31845bad1fcdd92490e8d85605449863a562ea940e37b380a276e440683fdb72816040516107d39190611378565b60405180910390a150600101610337565b50505050611457565b600e80546001600160a01b03838116610100818102610100600160a81b031985161790945560405193909204169182907f8be0079c531659141344cd1fd0a4f28419497f9722a3daafe3b4186f6b6457e0905f90a35050565b6001600160a01b03821661086f57604051633250574960e11b81525f600482015260240161017a565b5f61087b8383836108ac565b90506001600160a01b038116156108a7576040516339e3563760e11b81525f600482015260240161017a565b505050565b5f806108b985858561097f565b90506001600160a01b0381166109155761091084600880545f838152600960205260408120829055600182018355919091527ff3f7a9fe364faab93b216da50a3214154f22a0a2b415b23a84c8169e8b636ee30155565b610938565b846001600160a01b0316816001600160a01b031614610938576109388185610a71565b6001600160a01b0385166109545761094f84610aee565b610977565b846001600160a01b0316816001600160a01b031614610977576109778585610b95565b949350505050565b5f828152600260205260408120546001600160a01b03908116908316156109ab576109ab818486610be3565b6001600160a01b038116156109e5576109c65f858180610c47565b6001600160a01b0381165f90815260036020526040902080545f190190555b6001600160a01b03851615610a13576001600160a01b0385165f908152600360205260409020805460010190555b5f8481526002602052604080822080546001600160a01b0319166001600160a01b0389811691821790925591518793918516917fddf252ad1be2c89b69c2b068fc378daa952ba7f163c4a11628f55a4df523b3ef91a4949350505050565b5f610a7b83610d69565b5f838152600760209081526040808320546001600160a01b0388168452600690925290912091925090818314610ad0575f83815260208281526040808320548584528184208190558352600790915290208290555b5f938452600760209081526040808620869055938552525081205550565b6008545f90610aff90600190611430565b5f8381526009602052604081205460088054939450909284908110610b2657610b266112f6565b905f5260205f20015490508060088381548110610b4557610b456112f6565b5f918252602080832090910192909255828152600990915260408082208490558582528120556008805480610b7c57610b7c611443565b600190038181905f5260205f20015f9055905550505050565b5f6001610ba184610d69565b610bab9190611430565b6001600160a01b039093165f908152600660209081526040808320868452825280832085905593825260079052919091209190915550565b610bee838383610dae565b6108a7576001600160a01b038316610c1c57604051637e27328960e01b81526004810182905260240161017a565b60405163177e802f60e01b81526001600160a01b03831660048201526024810182905260440161017a565b8080610c5b57506001600160a01b03821615155b15610d3a575f610c6a84610e2e565b90506001600160a01b03831615801590610c965750826001600160a01b0316816001600160a01b031614155b8015610cc757506001600160a01b038082165f9081526005602090815260408083209387168352929052205460ff16155b15610cf05760405163a9fbf51f60e01b81526001600160a01b038416600482015260240161017a565b8115610d385783856001600160a01b0316826001600160a01b03167f8c5be1e5ebec7d5bd14f71427d1e84f3dd0314c0f7b2291e5b200ac8c7c3b92560405160405180910390a45b505b50505f90815260046020526040902080546001600160a01b0319166001600160a01b0392909216919091179055565b5f6001600160a01b038216610d93576040516322718ad960e21b81525f600482015260240161017a565b506001600160a01b03165f9081526003602052604090205490565b5f6001600160a01b038316158015906109775750826001600160a01b0316846001600160a01b03161480610e0657506001600160a01b038085165f9081526005602090815260408083209387168352929052205460ff165b806109775750505f908152600460205260409020546001600160a01b03908116911614919050565b5f818152600260205260408120546001600160a01b031680610e6657604051637e27328960e01b81526004810184905260240161017a565b92915050565b6102d78061711483390190565b634e487b7160e01b5f52604160045260245ffd5b604051608081016001600160401b0381118282101715610eaf57610eaf610e79565b60405290565b60405161010081016001600160401b0381118282101715610eaf57610eaf610e79565b604051601f8201601f191681016001600160401b0381118282101715610f0057610f00610e79565b604052919050565b805163ffffffff81168114610f1b575f80fd5b919050565b5f5b83811015610f3a578181015183820152602001610f22565b50505f910152565b5f82601f830112610f51575f80fd5b81516001600160401b03811115610f6a57610f6a610e79565b610f7d601f8201601f1916602001610ed8565b818152846020838601011115610f91575f80fd5b610977826020830160208701610f20565b80516001600160a01b0381168114610f1b575f80fd5b805160078110610f1b575f80fd5b80518015158114610f1b575f80fd5b805160ff81168114610f1b575f80fd5b5f805f83850360c0811215610ff8575f80fd5b6080811215611005575f80fd5b5061100e610e8d565b84518152602080860151908201526040808601519082015261103260608601610f08565b606082015260808501519093506001600160401b03811115611052575f80fd5b8401601f81018613611062575f80fd5b80516001600160401b0381111561107b5761107b610e79565b8060051b61108b60208201610ed8565b918252602081840181019290810190898411156110a6575f80fd5b6020850192505b8383101561119c5782516001600160401b038111156110ca575f80fd5b8501610100818c03601f190112156110e0575f80fd5b6110e8610eb5565b60208201516001600160401b03811115611100575f80fd5b61110f8d602083860101610f42565b82525061111e60408301610fa2565b602082015261112f60608301610f08565b604082015261114060808301610f08565b606082015261115160a08301610fb8565b608082015261116260c08301610fc6565b60a082015261117360e08301610fc6565b60c08201526111856101008301610fd5565b60e0820152835250602092830192909101906110ad565b80965050505050506111b060a08501610fa2565b90509250925092565b600181811c908216806111cd57607f821691505b6020821081036111eb57634e487b7160e01b5f52602260045260245ffd5b50919050565b601f8211156108a757805f5260205f20601f840160051c810160208510156112165750805b601f840160051c820191505b81811015611235575f8155600101611222565b5050505050565b81516001600160401b0381111561125557611255610e79565b6112698161126384546111b9565b846111f1565b6020601f82116001811461129b575f83156112845750848201515b5f19600385901b1c1916600184901b178455611235565b5f84815260208120601f198516915b828110156112ca57878501518255602094850194600190920191016112aa565b50848210156112e757868401515f19600387901b60f8161c191681555b50505050600190811b01905550565b634e487b7160e01b5f52603260045260245ffd5b634e487b7160e01b5f52601160045260245ffd5b5f6001820161132f5761132f61130a565b5060010190565b634e487b7160e01b5f52602160045260245ffd5b6007811061136657634e487b7160e01b5f52602160045260245ffd5b9052565b60208101610e66828461134a565b602081525f825161010060208401528051806101208501526113a281610140860160208501610f20565b60208501516001600160a01b03811660408601529150604085015163ffffffff811660608601529150606085015163ffffffff811660808601529150608085015191506113f260a085018361134a565b60a0850151151560c085810191909152850151151560e0808601919091529094015160ff166101008401525050601f909101601f1916016101400190565b81810381811115610e6657610e6661130a565b634e487b7160e01b5f52603160045260245ffd5b60805160a05160c05160e05161010051615c806114945f395f61265301525f61270d01525f6126e701525f61269701525f6126740152615c805ff3fe608060405260043610610327575f3560e01c80636d3c6275116101a3578063a0201be5116100f2578063c87b56dd11610092578063f2888dbb1161006d578063f2888dbb14610985578063f2fde38b146109a4578063f8b2cb4f146109c3578063fa52c7d8146109f7575f80fd5b8063c87b56dd14610928578063e3716d0414610947578063e985e9c514610966575f80fd5b8063b88d4fde116100cd578063b88d4fde146108a5578063b97dd9e2146108c4578063babc394f146108f5578063c05df7ac14610909575f80fd5b8063a0201be51461084d578063a22cb4651461086c578063a71954ec14610886575f80fd5b80638456cb591161015d57806389afcb441161013857806389afcb44146107cc5780638cc05eda146107eb5780638da5cb5b1461081757806395d89b4114610839575f80fd5b80638456cb591461077257806384b0196e14610786578063863623bb146107ad575f80fd5b80636d3c62751461069557806370a08231146106b4578063715018a6146106d357806379ee54f7146106e75780637b55a300146107065780637d06fdf814610725575f80fd5b80632d1e0c021161027957806342842e0e116102195780635c975abb116101f45780635c975abb1461061a5780636352211e1461063157806367398331146106505780636a62784214610676575f80fd5b806342842e0e146105bd5780634f6ccce7146105dc57806359ca93b6146105fb575f80fd5b8063355811a711610254578063355811a714610520578063374ed18c146105285780633894228e146105545780633f4ba83a146105a9575f80fd5b80632d1e0c02146104d45780632f745c59146104e75780633434735f14610506575f80fd5b80630cc1026b116102e45780631904bb2e116102bf5780631904bb2e1461045b5780632228dfa01461048757806323b872dd1461049b5780632b9f4985146104b5575f80fd5b80630cc1026b146104165780630f15f4c01461042957806318160ddd1461043d575f80fd5b806301ffc9a71461032b57806302ae337b1461035f57806306fdde0314610380578063081812fc146103a1578063095ea7b3146103d85780630a36cdef146103f7575b5f80fd5b348015610336575f80fd5b5061034a61034536600461487c565b610a2a565b60405190151581526020015b60405180910390f35b34801561036a575f80fd5b5061037e6103793660046148de565b610a54565b005b34801561038b575f80fd5b50610394610baa565b6040516103569190614969565b3480156103ac575f80fd5b506103c06103bb36600461497b565b610c39565b6040516001600160a01b039091168152602001610356565b3480156103e3575f80fd5b5061037e6103f23660046149a8565b610c60565b348015610402575f80fd5b5061037e6104113660046148de565b610c79565b61037e610424366004614a0d565b610e96565b348015610434575f80fd5b5061037e611104565b348015610448575f80fd5b506008545b604051908152602001610356565b348015610466575f80fd5b5061047a610475366004614a8c565b61114d565b6040516103569190614b7a565b348015610492575f80fd5b5061037e6112b7565b3480156104a6575f80fd5b5061037e6103f2366004614b8c565b3480156104c0575f80fd5b5061037e6104cf366004614a8c565b61137c565b61037e6104e2366004614bc6565b611497565b3480156104f2575f80fd5b5061044d6105013660046149a8565b6114fe565b348015610511575f80fd5b506103c06002600160a01b0381565b61037e611561565b348015610533575f80fd5b50610547610542366004614c09565b611600565b6040516103569190614c24565b34801561055f575f80fd5b5061057361056e36600461497b565b611789565b604080519485526001600160401b03909316602085015263ffffffff9091169183019190915260ff166060820152608001610356565b3480156105b4575f80fd5b5061037e6117d0565b3480156105c8575f80fd5b5061037e6105d7366004614b8c565b6117e2565b3480156105e7575f80fd5b5061044d6105f636600461497b565b6117fc565b348015610606575f80fd5b5061057361061536600461497b565b611851565b348015610625575f80fd5b50600e5460ff1661034a565b34801561063c575f80fd5b506103c061064b36600461497b565b611860565b34801561065b575f80fd5b5061066461186a565b60405160ff9091168152602001610356565b348015610681575f80fd5b5061037e610690366004614a8c565b61187c565b3480156106a0575f80fd5b5061034a6106af366004614a8c565b6118da565b3480156106bf575f80fd5b5061044d6106ce366004614a8c565b611964565b3480156106de575f80fd5b5061037e6119a9565b3480156106f2575f80fd5b5061044d610701366004614a8c565b6119ba565b348015610711575f80fd5b5061037e610720366004614cc7565b6119ff565b348015610730575f80fd5b50610739611b29565b604051610356919081518152602080830151908201526040808301519082015260609182015163ffffffff169181019190915260800190565b34801561077d575f80fd5b5061037e611bad565b348015610791575f80fd5b5061079a611bbd565b6040516103569796959493929190614d36565b3480156107b8575f80fd5b50600a546103c0906001600160a01b031681565b3480156107d7575f80fd5b5061037e6107e6366004614a8c565b611c24565b3480156107f6575f80fd5b5061080a610805366004614dcc565b611c69565b6040516103569190614dea565b348015610822575f80fd5b50600e5461010090046001600160a01b03166103c0565b348015610844575f80fd5b50610394611ca7565b348015610858575f80fd5b5061080a610867366004614c09565b611cb6565b348015610877575f80fd5b5061037e6103f2366004614e4d565b348015610891575f80fd5b506107396108a0366004614e86565b611d77565b3480156108b0575f80fd5b5061037e6108bf366004614f43565b611df1565b3480156108cf575f80fd5b50600e54600160a81b900463ffffffff1660405163ffffffff9091168152602001610356565b348015610900575f80fd5b50610547611e09565b348015610914575f80fd5b50610664610923366004614fa6565b611f00565b348015610933575f80fd5b5061039461094236600461497b565b611fbd565b348015610952575f80fd5b5061044d610961366004614fbf565b61202d565b348015610971575f80fd5b5061034a610980366004615018565b6120e7565b348015610990575f80fd5b5061037e61099f366004614a8c565b612114565b3480156109af575f80fd5b5061037e6109be366004614a8c565b6122b6565b3480156109ce575f80fd5b5061044d6109dd366004614a8c565b6001600160a01b03165f908152600c602052604090205490565b348015610a02575f80fd5b50610a16610a11366004614a8c565b6122f0565b604051610356989796959493929190615049565b5f6001600160e01b0319821663780e9d6360e01b1480610a4e5750610a4e826123de565b92915050565b336002600160a01b0314610a8257604051637eb3357160e01b81523360048201526024015b60405180910390fd5b5f5b81811015610ba55736838383818110610a9f57610a9f6150b1565b604002919091019150610aba90506106af6020830183614a8c565b15610ac55750610b9d565b60208101803590600c905f90610adb9085614a8c565b6001600160a01b03166001600160a01b031681526020019081526020015f20541115610b4f5760208101803590600c905f90610b179085614a8c565b6001600160a01b03166001600160a01b031681526020019081526020015f205f828254610b4491906150d9565b90915550610b649050565b610b64610b5f6020830183614a8c565b61242d565b7f11a09f9b32440d896abff7453bf53f8b26ffcb18dae4dca227f7a76e2acc3a6481604051610b9391906150ec565b60405180910390a1505b600101610a84565b505050565b60605f8054610bb890615115565b80601f0160208091040260200160405190810160405280929190818152602001828054610be490615115565b8015610c2f5780601f10610c0657610100808354040283529160200191610c2f565b820191905f5260205f20905b815481529060010190602001808311610c1257829003601f168201915b5050505050905090565b5f610c43826124e3565b505f828152600460205260409020546001600160a01b0316610a4e565b60405163dc8d8db760e01b815260040160405180910390fd5b336002600160a01b0314610ca257604051637eb3357160e01b8152336004820152602401610a79565b5f80826001600160401b03811115610cbc57610cbc614ea6565b604051908082528060200260200182016040528015610ce5578160200160208202803683370190505b5090505f5b83811015610dcc5736858583818110610d0557610d056150b1565b905060400201905080602001355f03610d1e5750610dc4565b610d2e6106af6020830183614a8c565b15610d395750610dc4565b5f602781610d4a6020850185614a8c565b6001600160a01b0316815260208082019290925260409081015f90812060010154600160f81b900460ff16808252600b8452918120549193509091610d92908501358361514d565b9050610d9e8188615164565b965080868681518110610db357610db36150b1565b602002602001018181525050505050505b600101610cea565b50815f03610dda5750505050565b5f610de3611e09565b6020015190505f5b84811015610e8d575f84848381518110610e0757610e076150b1565b602002602001015184610e1a919061514d565b610e24919061518b565b905080600c5f898986818110610e3c57610e3c6150b1565b610e529260206040909202019081019150614a8c565b6001600160a01b03166001600160a01b031681526020019081526020015f205f828254610e7f9190615164565b909155505050600101610deb565b505050505b5050565b610e9e61251b565b60608414610ebf576040516333a234f960e11b815260040160405180910390fd5b5f610ec8611e09565b6080015190505f610ed9348361253f565b9050610ee48561257a565b50610eef855f6125e8565b6001600160a01b0385165f908152600d6020526040808220600201549051600160a81b9091046001600160401b03169190610f2d908a908a9061519e565b60405180910390209050610f4f600e546001600160a01b036101009091041690565b6001600160a01b0316336001600160a01b031614610ffe575f7f9a361e91fa9aa610b5edf1d5c1cc20b9646c4228f3c004354ed2de7635dac9948289338887604051602001610fa3969594939291906151ad565b6040516020818303038152906040528051906020012090505f610fc582612651565b9050610fd389828a8a612767565b610ffb57604051633b4f6e2b60e21b81526001600160a01b038a166004820152602401610a79565b50505b6040518060a00160405280828152602001336001600160a01b03168152602001886001600160a01b031681526020018560ff16815260200183600161104391906151eb565b6001600160401b039081169091526001600160a01b03808a165f908152600d60209081526040918290208551815590850151600180830180549286166001600160a01b03199093169290921790915591850151600290910180546060870151608090970151909516600160a81b0267ffffffffffffffff60a81b1960ff909716600160a01b026001600160a81b0319909616929094169190911793909317939093161790556110f9908a908a908a908888612858565b505050505050505050565b61110c61251b565b6111153361257a565b506111213360016125e8565b335f908152602760205260409020600e5461114a908290600160a81b900463ffffffff16612ab9565b50565b6111556147ad565b61115e8261257a565b506001600160a01b0382165f90815260276020526040908190208151610100810190925280548290829061119190615115565b80601f01602080910402602001604051908101604052809291908181526020018280546111bd90615115565b80156112085780601f106111df57610100808354040283529160200191611208565b820191905f5260205f20905b8154815290600101906020018083116111eb57829003601f168201915b505050918352505060018201546001600160a01b038116602083015263ffffffff600160a01b820481166040840152600160c01b820416606083015260809091019060ff600160e01b90910416600681111561126657611266614aa5565b600681111561127757611277614aa5565b81526001919091015460ff600160e81b8204811615156020840152600160f01b8204811615156040840152600160f81b9091041660609091015292915050565b6112bf61251b565b6112c83361257a565b505f6112d46003612b39565b51600e549091505f90600f90600160c81b900460ff16600481106112fa576112fa6150b1565b6003020154905061130b8282612de9565b6113163360036125e8565b335f908152602760205260409020600e54600182015463ffffffff600160a81b909204821691600160a01b9091041681101561136d57604051634fadd4d360e11b815263ffffffff82166004820152602401610a79565b61137682612e26565b50505050565b61138461251b565b3068929eee149b4bd2126854036113a25763ab143c065f526004601cfd5b3068929eee149b4bd21268556113b78161257a565b506001600160a01b0381165f90815260276020526040812060010154600160f81b900460ff16906113e783612e7e565b9050336001600160a01b0384161480159061140b5750336001600160a01b03821614155b156114345760405163172b4e7560e11b81526001600160a01b0382166004820152602401610a79565b5f611440848385612ead565b604080516001600160a01b0385168152602081018390529192507ffc30cddea38e2bf4d6ea7d3f9ed3b6ad7f176419f4963bd81318067a4aee73fe910160405180910390a15050503868929eee149b4bd212685550565b61149f61251b565b606081146114c0576040516333a234f960e11b815260040160405180910390fd5b5f6114c9611e09565b6080015190505f6114da348361253f565b90506114e53361257a565b506114f0335f6125e8565b6113768484335f8686612858565b5f61150883611964565b82106115395760405163295f44f760e21b81526001600160a01b038416600482015260248101839052604401610a79565b506001600160a01b03919091165f908152600660209081526040808320938352929052205490565b611569612f54565b600a546040515f916001600160a01b03169034908381818185875af1925050503d805f81146115b3576040519150601f19603f3d011682016040523d82523d5f602084013e6115b8565b606091505b505090508061114a5760405162461bcd60e51b815260206004820152601460248201527324b6b837b9b9b4b136329031b7b73234ba34b7b760611b6044820152606401610a79565b6040805160a08101825260608082525f6020830181905292820183905281018290526080810191909152600e54600160a81b900463ffffffff1661164581600261520a565b63ffffffff168363ffffffff161180611685575060038163ffffffff16101580156116855750611676600382615226565b63ffffffff168363ffffffff16105b156116ab57604051634fadd4d360e11b815263ffffffff84166004820152602401610a79565b600e54600160c81b900460ff1663ffffffff828116908516111561177e576116d4848383612f87565b60408051825460c0602082028301810190935260a08201818152919392849291849184018282801561172d57602002820191905f5260205f20905b81546001600160a01b0316815260019091019060200180831161170f575b5050509183525050600182015460208201526002909101546001600160401b0381166040830152600160401b810463ffffffff166060830152600160601b900460ff16608090910152949350505050565b6116d4848383612fcf565b600f8160048110611798575f80fd5b6003020160018101546002909101549091506001600160401b03811690600160401b810463ffffffff1690600160601b900460ff1684565b6117d8612f54565b6117e0613026565b565b610ba583838360405180602001604052805f815250611df1565b5f61180660085490565b821061182e5760405163295f44f760e21b81525f600482015260248101839052604401610a79565b60088281548110611841576118416150b1565b905f5260205f2001549050919050565b601b8160048110611798575f80fd5b5f610a4e826124e3565b5f611873611e09565b60800151905090565b611884612f54565b61188d81611964565b15158061189e575061189e816118da565b156118c757604051639fb0877960e01b81526001600160a01b0382166004820152602401610a79565b61114a816001600160a01b038116613078565b5f6118ed6001600160a01b0383166130d9565b156118f957505f919050565b5f6001600160a01b0383165f90815260276020526040902060010154600160e01b900460ff16600681111561193057611930614aa5565b0361193c57505f919050565b506001600160a01b03165f90815260276020526040902060010154600160e81b900460ff1690565b5f6001600160a01b03821661198e576040516322718ad960e21b81525f6004820152602401610a79565b506001600160a01b03165f9081526003602052604090205490565b6119b1612f54565b6117e05f61312c565b6001600160a01b0381165f90815260276020908152604080832060010154600160f81b900460ff16808452600b9092528220546119f78482613185565b949350505050565b336002600160a01b0314611a2857604051637eb3357160e01b8152336004820152602401610a79565b611a3282826131be565b5f805f80611a718686808060200260200160405190810160405280939291908181526020018383602002808284375f9201919091525061329592505050565b9350935093509350611a8486868661354f565b5f611a8f6003612b39565b8051909150611a9e9087612de9565b7f8b5b26231ce070df3db9dc1b8450ab40652c76bd68827c7f595414614fa18f376040518060a00160405280848152602001868152602001436001611ae39190615164565b6001600160401b0316815263ffffffff86166020820152600a54600160a01b900460ff1660409182015251611b189190614c24565b60405180910390a150505050505050565b611b5660405180608001604052805f81526020015f81526020015f81526020015f63ffffffff1681525090565b50600a54600160a01b900460ff165f908152600b602090815260409182902082516080810184528154815260018201549281019290925260028101549282019290925260039091015463ffffffff16606082015290565b611bb5612f54565b6117e061379f565b600f60f81b6060805f808083611c1260408051808201825260148152732a32b631b7b4b71029ba30b5b2a6b0b730b3b2b960611b602080830191909152825180840190935260018352603160f81b9083015291565b97989097965046955030945091925090565b611c2c612f54565b611c35816118da565b15611c56576006604051633ba7bf8960e11b8152600401610a799190615242565b611c5f8161257a565b5061114a8161242d565b60605f826006811115611c7e57611c7e614aa5565b03611c9e5781604051633ba7bf8960e11b8152600401610a799190615242565b610a4e82612b39565b606060018054610bb890615115565b60605f611cc283611600565b5f015190505f81516001600160401b03811115611ce157611ce1614ea6565b604051908082528060200260200182016040528015611d1a57816020015b611d076147ad565b815260200190600190039081611cff5790505b5090505f5b8151811015611d6f57611d4a838281518110611d3d57611d3d6150b1565b602002602001015161114d565b828281518110611d5c57611d5c6150b1565b6020908102919091010152600101611d1f565b509392505050565b611da460405180608001604052805f81526020015f81526020015f81526020015f63ffffffff1681525090565b5060ff165f908152600b602090815260409182902082516080810184528154815260018201549281019290925260028101549282019290925260039091015463ffffffff16606082015290565b611dfc848484610c60565b61137633858585856137dc565b6040805160a08101825260608082525f6020830181905292820183905281018290526080810191909152600e54611e5990600160a81b810463ffffffff16908190600160c81b900460ff16612fcf565b60408051825460c0602082028301810190935260a082018181529193928492918491840182828015611eb257602002820191905f5260205f20905b81546001600160a01b03168152600190910190602001808311611e94575b5050509183525050600182015460208201526002909101546001600160401b0381166040830152600160401b810463ffffffff166060830152600160601b900460ff16608090910152919050565b5f611f09612f54565b611f1161251b565b611f216080830160608401614c09565b63ffffffff165f03611f5f57611f3d6080830160608401614c09565b604051630c6e911360e41b815263ffffffff9091166004820152602401610a79565b5f600a601481819054906101000a900460ff16611f7b90615250565b825460ff8083166101009490940a848102910219909116179092555f908152600b602052604090209091508390611fb2828261526e565b50909150505b919050565b6060611fc8826124e3565b505f612003611fd684613902565b611fde6139b0565b604051602001611fef9291906152b1565b6040516020818303038152906040526139fa565b90508060405160200161201691906153ba565b604051602081830303815290604052915050919050565b5f6120378361257a565b505f612041611e09565b608001516001600160a01b0385165f908152600d602090815260408083206002015489518a8401209151949550600160a81b90046001600160401b0316939092916120b8917f9a361e91fa9aa610b5edf1d5c1cc20b9646c4228f3c004354ed2de7635dac9949185918b918b918a918a91016151ad565b6040516020818303038152906040528051906020012090506120d981612651565b9450505050505b9392505050565b6001600160a01b039182165f90815260056020908152604080832093909416825291909152205460ff1690565b61211c61251b565b3068929eee149b4bd21268540361213a5763ab143c065f526004601cfd5b3068929eee149b4bd212685561214f8161257a565b505f61215a82612e7e565b9050336001600160a01b0383161480159061217e5750336001600160a01b03821614155b156121a75760405163172b4e7560e11b81526001600160a01b0382166004820152602401610a79565b6001600160a01b0382165f908152602760205260409020600190810154600160e01b900460ff16908160068111156121e1576121e1614aa5565b14158015612201575060058160068111156121fe576121fe614aa5565b14155b156122215780604051633ba7bf8960e11b8152600401610a799190615242565b6001600160a01b0383165f90815260276020526040902061224181613a20565b5f61225e858584600101601f9054906101000a900460ff16613a66565b604080516001600160a01b0387168152602081018390529192507ffc30cddea38e2bf4d6ea7d3f9ed3b6ad7f176419f4963bd81318067a4aee73fe910160405180910390a1505050503868929eee149b4bd212685550565b6122be612f54565b6001600160a01b0381166122e757604051631e4fbdf760e01b81525f6004820152602401610a79565b61114a8161312c565b60276020525f908152604090208054819061230a90615115565b80601f016020809104026020016040519081016040528092919081815260200182805461233690615115565b80156123815780601f1061235857610100808354040283529160200191612381565b820191905f5260205f20905b81548152906001019060200180831161236457829003601f168201915b505050600190930154919250506001600160a01b0381169063ffffffff600160a01b8204811691600160c01b81049091169060ff600160e01b8204811691600160e81b8104821691600160f01b8204811691600160f81b90041688565b5f6001600160e01b031982166380ac58cd60e01b148061240e57506001600160e01b03198216635b5e139f60e01b145b80610a4e57506301ffc9a760e01b6001600160e01b0319831614610a4e565b6001600160a01b0381165f908152600c602090815260408083208390556027909152812060018101549091600160e01b90910460ff169061246e6003612b39565b51905061247a82613baa565b1561248d5761248a6001826150d9565b90505b6124978482613bfd565b600e546124b2908490600160a81b900463ffffffff16613d03565b6124bb83613a20565b5f6124c585612e7e565b9050610e8d858286600101601f9054906101000a900460ff16613a66565b5f818152600260205260408120546001600160a01b031680610a4e57604051637e27328960e01b815260048101849052602401610a79565b600e5460ff16156117e05760405163d93c066560e01b815260040160405180910390fd5b60ff81165f908152600b602052604081205483146125735760405163222d164360e21b815260048101849052602401610a79565b5090919050565b5f6001600160a01b03821661258e816130d9565b6125ae5760405163ed15e6cf60e01b815260048101829052602401610a79565b826001600160a01b03166125c182611860565b6001600160a01b031614610a4e576040516330fa89ab60e11b815260040160405180910390fd5b6001600160a01b0382165f90815260276020526040902060010154600160e01b900460ff1681600681111561261f5761261f614aa5565b81600681111561263157612631614aa5565b14610ba55780604051633ba7bf8960e11b8152600401610a799190615242565b7f00000000000000000000000000000000000000000000000000000000000000007f000000000000000000000000000000000000000000000000000000000000000030147f00000000000000000000000000000000000000000000000000000000000000004614166127445750604080517f8b73c3c69bb8fe3d512ecc4cf759cc79239f7b179b0ffacaa9a75d522b39400f81527f000000000000000000000000000000000000000000000000000000000000000060208201527f00000000000000000000000000000000000000000000000000000000000000009181019190915246606082015230608082015260a090205b6719010000000000005f5280601a5281603a52604260182090505f603a52919050565b6001600160a01b03909316925f84156119f757604051845f52604083036127ce5760208481013560ff81901c601b01825285356040526001600160ff1b0316606052600160805f825afa805187183d15176127cc57505f6060526040525060016119f7565b505b6041830361280e5760408401355f1a6020526040846040376020600160805f60015afa805187183d151761280c57505f6060526040525060016119f7565b505b5f60605280604052631626ba7e60e01b80825285600483015260248201604081528460448401528486606485013760208160648701858b5afa905190911416915050949350505050565b5f868660405161286992919061519e565b60408051918290039091205f8181526028602052919091205490915060ff16156128a657604051638d12779f60e01b815260040160405180910390fd5b5f818152602860209081526040808320805460ff191660011790558051610120601f8b0184900490930281018301909152610100810189815290918291908b908b90819085018382808284375f9201829052509385525050506001600160a01b038916602083015263ffffffff60408301526060820152608001600181525f602080830182905288151560408085019190915260ff89166060909401939093526001600160a01b038a168252602790522081519192508291819061296a9082615442565b5060208201516001820180546040850151606086015163ffffffff908116600160c01b0263ffffffff60c01b1991909216600160a01b026001600160c01b03199093166001600160a01b0390951694909417919091179283168117825560808501519260ff60e01b1990911664ffffffffff60c01b1990911617600160e01b8360068111156129fb576129fb614aa5565b021790555060a08201516001909101805460c084015160e09094015160ff16600160f81b026001600160f81b03941515600160f01b0260ff60f01b19941515600160e81b029490941661ffff60e81b199092169190911792909217929092161790556001600160a01b0386165f908152600c602052604090819020849055517f7d89246e6daeb7529685fda2e1f478d9a155eea08675ebecd1bf8c0e572382fd90612aa7908390614b7a565b60405180910390a15050505050505050565b612ac481600161520a565b60018301805463ffffffff92909216600160a01b0260ff60e01b191668ff00000000ffffffff60a01b1990921691909117600160e11b1790556040517fbdacb030997c2fe9d7ee41c51f5a150138c75b326c7a66f88ced12925f80bc0590612b2d90849061557b565b60405180910390a15050565b60605f612b4560085490565b6001600160401b03811115612b5c57612b5c614ea6565b604051908082528060200260200182016040528015612b9557816020015b612b826147ad565b815260200190600190039081612b7a5790505b5090505f805b8251811015612de0575f612bb4612bb1836117fc565b90565b6001600160a01b0381165f908152602760205260409020600181015491925090600160e81b900460ff1615612bea575050612dd8565b5f6006886006811115612bff57612bff614aa5565b14905080612c69576001820154600160e01b900460ff166003896006811115612c2a57612c2a614aa5565b03612c3f57612c3881613baa565b9150612c67565b886006811115612c5157612c51614aa5565b816006811115612c6357612c63614aa5565b1491505b505b8015612dd45781604051806101000160405290815f82018054612c8b90615115565b80601f0160208091040260200160405190810160405280929190818152602001828054612cb790615115565b8015612d025780601f10612cd957610100808354040283529160200191612d02565b820191905f5260205f20905b815481529060010190602001808311612ce557829003601f168201915b505050918352505060018201546001600160a01b038116602083015263ffffffff600160a01b820481166040840152600160c01b820416606083015260809091019060ff600160e01b909104166006811115612d6057612d60614aa5565b6006811115612d7157612d71614aa5565b81526001919091015460ff600160e81b8204811615156020840152600160f01b8204811615156040840152600160f81b909104166060909101528686612db681615615565b975081518110612dc857612dc86150b1565b60200260200101819052505b5050505b600101612b9b565b50815292915050565b811580612df4575080155b80612dfe57508181115b15610e9257604051635700689f60e11b81526004810183905260248101829052604401610a79565b60018101805464ffffffffff60c01b19166404ffffffff60c01b1790556040517f537bf236138f80ea8801a391fffc8a42bf0be3b6ea9d336ca2e2164a4c91071c90612e7390839061557b565b60405180910390a150565b6001600160a01b038082165f908152600d6020526040812060028101549192909116806120e057509192915050565b5f80612eb98584613d5c565b6001600160a01b0386165f908152600c6020526040812080549293508392909190612ee59084906150d9565b9091555050600a54604051634875485760e11b81526001600160a01b03868116600483015260248201849052909116906390ea90ae906044015f604051808303815f87803b158015612f35575f80fd5b505af1158015612f47573d5f803e3d5ffd5b5092979650505050505050565b600e546001600160a01b036101009091041633146117e05760405163118cdaa760e01b8152336004820152602401610a79565b5f80600483612f968688615226565b612fa0919061562d565b612faa9190615646565b9050601b8160ff1660048110612fc257612fc26150b1565b6003020195945050505050565b5f8084612fdd85600461520a565b612fe79190615226565b90505f6004612ff6838661562d565b6130009190615646565b9050600f8160ff1660048110613018576130186150b1565b600302019695505050505050565b61302e613dbc565b600e805460ff191690557f5db9ee0a495bf2e6ff9c91a7834c1ba4fdd244a5e8aa4e537bd38aeae4b073aa335b6040516001600160a01b03909116815260200160405180910390a1565b6001600160a01b0382166130a157604051633250574960e11b81525f6004820152602401610a79565b5f6130ad83835f613ddf565b90506001600160a01b03811615610ba5576040516339e3563760e11b81525f6004820152602401610a79565b5f8115806130ee57506001600160a01b038210155b1561310f5760405163ed15e6cf60e01b815260048101839052602401610a79565b505f908152600260205260409020546001600160a01b0316151590565b600e80546001600160a01b03838116610100818102610100600160a81b031985161790945560405193909204169182907f8be0079c531659141344cd1fd0a4f28419497f9722a3daafe3b4186f6b6457e0905f90a35050565b6001600160a01b0382165f908152600c6020526040812054818382116131ab575f6131b5565b6131b584836150d9565b95945050505050565b5f5b6131cb6001836150d9565b811015610ba55782826131df836001615164565b8181106131ee576131ee6150b1565b90506020020160208101906132039190614a8c565b6001600160a01b031683838381811061321e5761321e6150b1565b90506020020160208101906132339190614a8c565b6001600160a01b03161061328d57828282818110613253576132536150b1565b90506020020160208101906132689190614a8c565b60405163836e3a7d60e01b81526001600160a01b039091166004820152602401610a79565b6001016131c0565b600e545f9081908190606090600160c81b900460ff168260046132b983600161562d565b6132c39190615646565b90505f601b8260ff16600481106132dc576132dc6150b1565b6003020190505f6132eb611b29565b90506040518060a001604052808380548060200260200160405190810160405280929190818152602001828054801561334b57602002820191905f5260205f20905b81546001600160a01b0316815260019091019060200180831161332d575b505050918352505060408084015160208301520161336a4360016151eb565b6001600160401b03168152606083015163ffffffff166020820152600a5460ff600160a01b9091048116604090920191909152600f908516600481106133b2576133b26150b1565b600302015f820151815f0190805190602001906133d09291906147f0565b506020820151600182015560408201516002909101805460608401516080909401516001600160401b039093166bffffffffffffffffffffffff1990911617600160401b63ffffffff948516021760ff60601b1916600160601b60ff93841602179055600e805460ff60c81b1916600160c81b92871692909202919091178082555f9260159161346891600160a81b90910416615667565b91906101000a81548163ffffffff021916908363ffffffff160217905590505f6004856002613497919061562d565b6134a19190615646565b90508a601b8260ff16600481106134ba576134ba6150b1565b600302015f0190805190602001906134d39291906147f0565b508183604001518460600151868080548060200260200160405190810160405280929190818152602001828054801561353357602002820191905f5260205f20905b81546001600160a01b03168152600190910190602001808311613515575b5050505050905099509950995099505050505050509193509193565b5f61355a6002612b39565b90505f5b81518110156135bc575f60275f84848151811061357d5761357d6150b1565b6020026020010151602001516001600160a01b03166001600160a01b031681526020019081526020015f2090506135b381613eaa565b5060010161355e565b505f6135c86004612b39565b600e54909150600160c81b900460ff165f60046135e683600161562d565b6135f09190615646565b90505f600f8360ff1660048110613609576136096150b1565b6003020180546040805160208084028201810190925282815292919083018282801561365c57602002820191905f5260205f20905b81546001600160a01b0316815260019091019060200180831161363e575b505050505090505f601b8360ff166004811061367a5761367a6150b1565b600302018054604080516020808402820181019092528281529291908301828280156136cd57602002820191905f5260205f20905b81546001600160a01b031681526001909101906020018083116136af575b505050505090505f5b8551811015613793575f8682815181106136f2576136f26150b1565b602002602001015160200151905061370a8185613eef565b8061371a575061371a8184613eef565b8061375c575061375c818c8c808060200260200160405190810160405280939291908181526020018383602002808284375f92019190915250613eef92505050565b15613767575061378b565b6001600160a01b0381165f908152602760205260409020613788818b613d03565b50505b6001016136d6565b50505050505050505050565b6137a761251b565b600e805460ff191660011790557f62e78cea01bee320cd4e420270b5ea74000d11b0c9f74754ebdbfc544b05a25861305b3390565b6001600160a01b0383163b156138fb57604051630a85bd0160e11b81526001600160a01b0384169063150b7a029061381e908890889087908790600401615682565b6020604051808303815f875af1925050508015613858575060408051601f3d908101601f19168201909252613855918101906156be565b60015b6138bf573d808015613885576040519150601f19603f3d011682016040523d82523d5f602084013e61388a565b606091505b5080515f036138b757604051633250574960e11b81526001600160a01b0385166004820152602401610a79565b805181602001fd5b6001600160e01b03198116630a85bd0160e11b14610e8d57604051633250574960e11b81526001600160a01b0385166004820152602401610a79565b5050505050565b60605f61390e83613f4c565b6028602282012090915060601c60295b60018111156139a757600782600f1611801561395357506060838281518110613949576139496150b1565b016020015160f81c115b1561399057602060f81b83828151811061396f5761396f6150b1565b0160200180516001600160f81b0319908116909218909116905f82901a9053505b60049190911c906139a0816156d9565b905061391e565b50909392505050565b60606139d66040518061052001604052806104ed81526020016157476104ed91396139fa565b6040516020016139e691906156ee565b604051602081830303815290604052905090565b6060610a4e82604051806060016040528060408152602001615c34604091396001613f62565b60018101805461ffff60e01b1916608360e11b1790556040517fb9e0e3d06d30a4b0476d42accfa2ee90a854c961cc7f10ddc965608a97b982b190612e7390839061557b565b60ff81165f908152600b602052604081205481613a838683613185565b6001600160a01b0387165f818152600c602052604081208054919055919250613aab906140dc565b6008545f03613acd576040516315ae672760e01b815260040160405180910390fd5b5f838210613adc575082613b3a565b50600a5481905f906001600160a01b0316613af783876150d9565b6040515f81818185875af1925050503d805f8114613b30576040519150601f19603f3d011682016040523d82523d5f602084013e613b35565b606091505b505050505b600a54604051634875485760e11b81526001600160a01b03898116600483015260248201869052909116906390ea90ae9083906044015f604051808303818588803b158015613b87575f80fd5b505af1158015613b99573d5f803e3d5ffd5b505050505082816120d99190615164565b5f6003826006811115613bbf57613bbf614aa5565b1480613bdc57506004826006811115613bda57613bda614aa5565b145b80610a4e57506002826006811115613bf657613bf6614aa5565b1492915050565b600e54600160a81b810463ffffffff1690600160c81b900460ff165f613c24838084612fcf565b90505f613c318287614114565b90505f81613c40578254613c4e565b8254613c4e906001906150d9565b9050613c5a8682612de9565b5f613c6686600161520a565b90505f613c74828888612f87565b9050613c80818a614114565b935083613c8e578054613c9c565b8054613c9c906001906150d9565b9250613ca88884612de9565b5f613cb488600261520a565b90505f613cc2828a8a612f87565b9050613cce818c614114565b955085613cdc578054613cea565b8054613cea906001906150d9565b9450613cf68a86612de9565b5050505050505050505050565b60018201805463ffffffff8316600160c01b0264ffffffffff60c01b1990911617600560e01b1790556040517f69cb3a026a27d868ccc41f8a2a5e4b59396939b736cf54a110052c9983e8378d90612b2d90849061557b565b60ff81165f908152600b602052604081205481613d798583613185565b9050801580613d9b575060ff84165f908152600b602052604090206001015481105b156119f757604051633737b70960e11b815260048101829052602401610a79565b600e5460ff166117e057604051638dfc202b60e01b815260040160405180910390fd5b5f80613dec85858561420f565b90506001600160a01b038116613e4857613e4384600880545f838152600960205260408120829055600182018355919091527ff3f7a9fe364faab93b216da50a3214154f22a0a2b415b23a84c8169e8b636ee30155565b613e6b565b846001600160a01b0316816001600160a01b031614613e6b57613e6b8185614301565b6001600160a01b038516613e8757613e828461437e565b6119f7565b846001600160a01b0316816001600160a01b0316146119f7576119f78585614425565b60018101805460ff60e01b1916600360e01b1790556040517f31845bad1fcdd92490e8d85605449863a562ea940e37b380a276e440683fdb7290612e7390839061557b565b80515f90815b81811015613f4257846001600160a01b0316848281518110613f1957613f196150b1565b60200260200101516001600160a01b031603613f3a57600192505050610a4e565b600101613ef5565b505f949350505050565b6060610a4e6001600160a01b0383166014614473565b606083515f03613f80575060408051602081019091525f81526120e0565b5f82613fb057600385516004613f96919061514d565b613fa1906002615164565b613fab919061518b565b613fd5565b600385516002613fc09190615164565b613fca919061518b565b613fd590600461514d565b90505f816001600160401b03811115613ff057613ff0614ea6565b6040519080825280601f01601f19166020018201604052801561401a576020820181803683370190505b509050600185016020820187885189016020810180515f82525b8284101561408f576003840193508351603f8160121c168701518653600186019550603f81600c1c168701518653600186019550603f8160061c168701518653600186019550603f8116870151865350600185019450614034565b9052505085156140d0576003885106600181146140b357600281146140c6576140ce565b603d6001830353603d60028303536140ce565b603d60018303535b505b50909695505050505050565b5f6140e85f835f613ddf565b90506001600160a01b038116610e9257604051637e27328960e01b815260048101839052602401610a79565b81545f90815b81811015613f4257836001600160a01b031685828154811061413e5761413e6150b1565b5f918252602090912001546001600160a01b03160361420757846141636001846150d9565b81548110614173576141736150b1565b905f5260205f20015f9054906101000a90046001600160a01b03168582815481106141a0576141a06150b1565b905f5260205f20015f6101000a8154816001600160a01b0302191690836001600160a01b03160217905550848054806141db576141db615732565b5f8281526020902081015f1990810180546001600160a01b03191690550190555060019150610a4e9050565b60010161411a565b5f828152600260205260408120546001600160a01b039081169083161561423b5761423b8184866145e4565b6001600160a01b03811615614275576142565f855f80614648565b6001600160a01b0381165f90815260036020526040902080545f190190555b6001600160a01b038516156142a3576001600160a01b0385165f908152600360205260409020805460010190555b5f8481526002602052604080822080546001600160a01b0319166001600160a01b0389811691821790925591518793918516917fddf252ad1be2c89b69c2b068fc378daa952ba7f163c4a11628f55a4df523b3ef91a4949350505050565b5f61430b83611964565b5f838152600760209081526040808320546001600160a01b0388168452600690925290912091925090818314614360575f83815260208281526040808320548584528184208190558352600790915290208290555b5f938452600760209081526040808620869055938552525081205550565b6008545f9061438f906001906150d9565b5f83815260096020526040812054600880549394509092849081106143b6576143b66150b1565b905f5260205f200154905080600883815481106143d5576143d56150b1565b5f91825260208083209091019290925582815260099091526040808220849055858252812055600880548061440c5761440c615732565b600190038181905f5260205f20015f9055905550505050565b5f600161443184611964565b61443b91906150d9565b6001600160a01b039093165f908152600660209081526040808320868452825280832085905593825260079052919091209190915550565b6060825f61448284600261514d565b61448d906002615164565b6001600160401b038111156144a4576144a4614ea6565b6040519080825280601f01601f1916602001820160405280156144ce576020820181803683370190505b509050600360fc1b815f815181106144e8576144e86150b1565b60200101906001600160f81b03191690815f1a905350600f60fb1b81600181518110614516576145166150b1565b60200101906001600160f81b03191690815f1a9053505f61453885600261514d565b614543906001615164565b90505b60018111156145ba576f181899199a1a9b1b9c1cb0b131b232b360811b83600f1660108110614577576145776150b1565b1a60f81b82828151811061458d5761458d6150b1565b60200101906001600160f81b03191690815f1a90535060049290921c916145b3816156d9565b9050614546565b5081156119f75760405163e22e27eb60e01b81526004810186905260248101859052604401610a79565b6145ef83838361474c565b610ba5576001600160a01b03831661461d57604051637e27328960e01b815260048101829052602401610a79565b60405163177e802f60e01b81526001600160a01b038316600482015260248101829052604401610a79565b808061465c57506001600160a01b03821615155b1561471d575f61466b846124e3565b90506001600160a01b038316158015906146975750826001600160a01b0316816001600160a01b031614155b80156146aa57506146a881846120e7565b155b156146d35760405163a9fbf51f60e01b81526001600160a01b0384166004820152602401610a79565b811561471b5783856001600160a01b0316826001600160a01b03167f8c5be1e5ebec7d5bd14f71427d1e84f3dd0314c0f7b2291e5b200ac8c7c3b92560405160405180910390a45b505b50505f90815260046020526040902080546001600160a01b0319166001600160a01b0392909216919091179055565b5f6001600160a01b038316158015906119f75750826001600160a01b0316846001600160a01b03161480614785575061478584846120e7565b806119f75750505f908152600460205260409020546001600160a01b03908116911614919050565b604080516101008101825260608082525f60208301819052928201839052810182905290608082019081525f602082018190526040820181905260609091015290565b828054828255905f5260205f20908101928215614843579160200282015b8281111561484357825182546001600160a01b0319166001600160a01b0390911617825560209092019160019091019061480e565b5061484f929150614853565b5090565b5b8082111561484f575f8155600101614854565b6001600160e01b03198116811461114a575f80fd5b5f6020828403121561488c575f80fd5b81356120e081614867565b5f8083601f8401126148a7575f80fd5b5081356001600160401b038111156148bd575f80fd5b6020830191508360208260061b85010111156148d7575f80fd5b9250929050565b5f80602083850312156148ef575f80fd5b82356001600160401b03811115614904575f80fd5b61491085828601614897565b90969095509350505050565b5f5b8381101561493657818101518382015260200161491e565b50505f910152565b5f815180845261495581602086016020860161491c565b601f01601f19169290920160200192915050565b602081525f6120e0602083018461493e565b5f6020828403121561498b575f80fd5b5035919050565b80356001600160a01b0381168114611fb8575f80fd5b5f80604083850312156149b9575f80fd5b6149c283614992565b946020939093013593505050565b5f8083601f8401126149e0575f80fd5b5081356001600160401b038111156149f6575f80fd5b6020830191508360208285010111156148d7575f80fd5b5f805f805f60608688031215614a21575f80fd5b85356001600160401b03811115614a36575f80fd5b614a42888289016149d0565b9096509450614a55905060208701614992565b925060408601356001600160401b03811115614a6f575f80fd5b614a7b888289016149d0565b969995985093965092949392505050565b5f60208284031215614a9c575f80fd5b6120e082614992565b634e487b7160e01b5f52602160045260245ffd5b60078110614ad557634e487b7160e01b5f52602160045260245ffd5b9052565b5f81516101008452614aef61010085018261493e565b905060018060a01b03602084015116602085015263ffffffff60408401511660408501526060830151614b2a606086018263ffffffff169052565b506080830151614b3d6080860182614ab9565b5060a0830151614b5160a086018215159052565b5060c0830151614b6560c086018215159052565b5060e0830151611d6f60e086018260ff169052565b602081525f6120e06020830184614ad9565b5f805f60608486031215614b9e575f80fd5b614ba784614992565b9250614bb560208501614992565b929592945050506040919091013590565b5f8060208385031215614bd7575f80fd5b82356001600160401b03811115614bec575f80fd5b614910858286016149d0565b63ffffffff8116811461114a575f80fd5b5f60208284031215614c19575f80fd5b81356120e081614bf8565b6020808252825160a083830152805160c084018190525f929190910190829060e08501905b80831015614c745783516001600160a01b031682526020938401936001939093019290910190614c49565b506020860151604086015260408601519250614c9b60608601846001600160401b03169052565b606086015163ffffffff811660808701529250608086015160ff811660a0870152925095945050505050565b5f8060208385031215614cd8575f80fd5b82356001600160401b03811115614ced575f80fd5b8301601f81018513614cfd575f80fd5b80356001600160401b03811115614d12575f80fd5b8560208260051b8401011115614d26575f80fd5b6020919091019590945092505050565b60ff60f81b8816815260e060208201525f614d5460e083018961493e565b8281036040840152614d66818961493e565b606084018890526001600160a01b038716608085015260a0840186905283810360c0850152845180825260208087019350909101905f5b81811015614dbb578351835260209384019390920191600101614d9d565b50909b9a5050505050505050505050565b5f60208284031215614ddc575f80fd5b8135600781106120e0575f80fd5b5f602082016020835280845180835260408501915060408160051b8601019250602086015f5b82811015614e4157603f19878603018452614e2c858351614ad9565b94506020938401939190910190600101614e10565b50929695505050505050565b5f8060408385031215614e5e575f80fd5b614e6783614992565b915060208301358015158114614e7b575f80fd5b809150509250929050565b5f60208284031215614e96575f80fd5b813560ff811681146120e0575f80fd5b634e487b7160e01b5f52604160045260245ffd5b5f82601f830112614ec9575f80fd5b81356001600160401b03811115614ee257614ee2614ea6565b604051601f8201601f19908116603f011681016001600160401b0381118282101715614f1057614f10614ea6565b604052818152838201602001851015614f27575f80fd5b816020850160208301375f918101602001919091529392505050565b5f805f8060808587031215614f56575f80fd5b614f5f85614992565b9350614f6d60208601614992565b92506040850135915060608501356001600160401b03811115614f8e575f80fd5b614f9a87828801614eba565b91505092959194509250565b5f6080828403128015614fb7575f80fd5b509092915050565b5f805f60608486031215614fd1575f80fd5b83356001600160401b03811115614fe6575f80fd5b614ff286828701614eba565b93505061500160208501614992565b915061500f60408501614992565b90509250925092565b5f8060408385031215615029575f80fd5b61503283614992565b915061504060208401614992565b90509250929050565b61010081525f61505d61010083018b61493e565b6001600160a01b038a16602084015263ffffffff898116604085015288166060840152905061508f6080830187614ab9565b93151560a082015291151560c083015260ff1660e09091015295945050505050565b634e487b7160e01b5f52603260045260245ffd5b634e487b7160e01b5f52601160045260245ffd5b81810381811115610a4e57610a4e6150c5565b604081016001600160a01b0361510184614992565b168252602092830135929091019190915290565b600181811c9082168061512957607f821691505b60208210810361514757634e487b7160e01b5f52602260045260245ffd5b50919050565b8082028115828204841417610a4e57610a4e6150c5565b80820180821115610a4e57610a4e6150c5565b634e487b7160e01b5f52601260045260245ffd5b5f8261519957615199615177565b500490565b818382375f9101908152919050565b95865260208601949094526001600160a01b0392831660408601529116606084015260ff1660808301526001600160401b031660a082015260c00190565b6001600160401b038181168382160190811115610a4e57610a4e6150c5565b63ffffffff8181168382160190811115610a4e57610a4e6150c5565b63ffffffff8281168282160390811115610a4e57610a4e6150c5565b60208101610a4e8284614ab9565b5f60ff821660ff8103615265576152656150c5565b60010192915050565b81358155602082013560018201556040820135600282015560038101606083013561529881614bf8565b815463ffffffff191663ffffffff919091161790555050565b7f7b226e616d65223a202254656c636f696e2d4e6574776f726b20436f6e73656e8152651cdd5cd3919560d21b60208201525f83516152f781602685016020880161491c565b7f222c20226465736372697074696f6e223a2022455243373231204e46542077686026918401918201527f6f7365206f776e657273686970206c656467657220726570726573656e74732060468201527f746865207065726d697373696f6e65642077686974656c69737420666f72207660668201527530b634b230ba37b9399116101134b6b0b3b2911d101160511b6086820152835161539f81609c84016020880161491c565b61227d60f01b609c9290910191820152609e01949350505050565b7f646174613a6170706c69636174696f6e2f6a736f6e3b6261736536342c00000081525f82516153f181601d85016020870161491c565b91909101601d0192915050565b601f821115610ba557805f5260205f20601f840160051c810160208510156154235750805b601f840160051c820191505b818110156138fb575f815560010161542f565b81516001600160401b0381111561545b5761545b614ea6565b61546f816154698454615115565b846153fe565b6020601f8211600181146154a1575f831561548a5750848201515b5f19600385901b1c1916600184901b1784556138fb565b5f84815260208120601f198516915b828110156154d057878501518255602094850194600190920191016154b0565b50848210156154ed57868401515f19600387901b60f8161c191681555b50505050600190811b01905550565b5f815461550881615115565b808552600182168015615522576001811461553e57615572565b60ff1983166020870152602082151560051b8701019350615572565b845f5260205f205f5b838110156155695781546020828a010152600182019150602081019050615547565b87016020019450505b50505092915050565b6020815261010060208201525f6155966101208301846154fc565b60018401546001600160a01b038116604085015260a081901c63ffffffff16606085015260c081901c63ffffffff1660808501526155dd60a0850160ff8360e01c16614ab9565b6155f160c0850160ff8360e81c1615159052565b61560560e0850160ff8360f01c1615159052565b60f881901c610100850152611d6f565b5f60018201615626576156266150c5565b5060010190565b60ff8181168382160190811115610a4e57610a4e6150c5565b5f60ff83168061565857615658615177565b8060ff84160691505092915050565b5f63ffffffff821663ffffffff8103615265576152656150c5565b6001600160a01b03858116825284166020820152604081018390526080606082018190525f906156b49083018461493e565b9695505050505050565b5f602082840312156156ce575f80fd5b81516120e081614867565b5f816156e7576156e76150c5565b505f190190565b7f646174613a696d6167652f7376672b786d6c3b6261736536342c00000000000081525f825161572581601a85016020870161491c565b91909101601a0192915050565b634e487b7160e01b5f52603160045260245ffdfe3c7376672077696474683d22373922206865696768743d223830222076696577426f783d22302030203739203830222066696c6c3d226e6f6e652220786d6c6e733d22687474703a2f2f7777772e77332e6f72672f323030302f737667223e203c6d61736b2069643d226d61736b305f3834395f3334313722207374796c653d226d61736b2d747970653a616c70686122206d61736b556e6974733d227573657253706163654f6e5573652220783d22302220793d2230222077696474683d22373922206865696768743d223830223e203c726563742077696474683d2237382e30303522206865696768743d223830222066696c6c3d2223433443344334222f3e203c2f6d61736b3e203c67206d61736b3d2275726c28236d61736b305f3834395f3334313729223e203c7265637420783d2231372e393534362220793d2231382e33353435222077696474683d2234322e3239343322206865696768743d2234332e32393138222066696c6c3d227768697465222f3e203c7061746820643d224d37342e323336392032312e393839324337362e363930382032342e303331352037382e323338392032382e323537372037372e363937392033312e333733334c37322e343136362036312e333235334337312e3836362036342e343437352036382e393539322036372e383739382036352e393632392036382e393631324c33372e313934372037392e333334344333342e313938342038302e343135372032392e373432312037392e363239392032372e323936342037372e3538394c332e3831312035382e3030323143312e33353730382035352e39353938202d302e31393233382035312e3734313720302e3335383134382034382e363139354c352e36333935312031382e3636373443362e31393030342031352e3534353220392e30393638372031322e313132392031322e303933322031312e303331364c34302e3835393920302e3636363435334334332e38353632202d302e3431343835372034382e3331323520302e3337303930392035302e3735383320322e343131384c37342e323336392032312e393839325a4d34392e373634352033352e343336394c35302e393336342032392e333531334c33392e393531372032392e333638374c34312e3531362032312e333432344c33372e393538332032312e333432344333372e393538332032312e333432342033342e363332382032372e323930312032372e333030362033302e323031394c32362e323839392033352e343530334c33312e303933362033352e34364333312e303933362033352e34362032392e343637342034332e303032392032382e393331362034352e373835344332372e353637372035322e383638322033302e393830362035372e383933392033362e323238312035372e383933394333382e383630362035372e383933392034312e3831372035372e383933392034352e303937322035372e383933394c34362e363532342035312e313636364334362e323734322035312e313636362034332e383031332035312e313636362033392e323333362035312e313636364333352e393336342035312e313636362033362e313039392034392e333138392033362e373433312034362e303330354c33382e373833382033352e343333334c34392e373634352033352e343336395a222066696c6c3d2223313443384646222f3e203c2f673e203c2f7376673e4142434445464748494a4b4c4d4e4f505152535455565758595a6162636465666768696a6b6c6d6e6f707172737475767778797a303132333435363738392b2fa164736f6c634300081a000a60a0604052348015600e575f80fd5b506040516102d73803806102d7833981016040819052602b91603b565b6001600160a01b03166080526066565b5f60208284031215604a575f80fd5b81516001600160a01b0381168114605f575f80fd5b9392505050565b60805161024861008f5f395f8181603001528181606c0152818160bd015260f901526102485ff3fe608060405260043610610020575f3560e01c806390ea90ae146100a4575f80fd5b366100a057336001600160a01b037f0000000000000000000000000000000000000000000000000000000000000000161461009e57604051632439f07560e21b81526001600160a01b037f00000000000000000000000000000000000000000000000000000000000000001660048201526024015b60405180910390fd5b005b5f80fd5b61009e6100b23660046101e1565b336001600160a01b037f0000000000000000000000000000000000000000000000000000000000000000161461012657604051632439f07560e21b81526001600160a01b037f0000000000000000000000000000000000000000000000000000000000000000166004820152602401610095565b475f6101323484610216565b90508082101561015f5760405163cf47918160e01b81526004810183905260248101829052604401610095565b5f846001600160a01b0316826040515f6040518083038185875af1925050503d805f81146101a8576040519150601f19603f3d011682016040523d82523d5f602084013e6101ad565b606091505b50509050806101da57604051630d623c2560e01b81526001600160a01b0386166004820152602401610095565b5050505050565b5f80604083850312156101f2575f80fd5b82356001600160a01b0381168114610208575f80fd5b946020939093013593505050565b8082018082111561023557634e487b7160e01b5f52601160045260245ffd5b9291505056fea164736f6c634300081a000a","linkReferences":{}},"methodIdentifiers":{"SYSTEM_ADDRESS()":"3434735f","activate()":"0f15f4c0","allocateIssuance()":"355811a7","applyIncentives((address,uint256)[])":"0a36cdef","applySlashes((address,uint256)[])":"02ae337b","approve(address,uint256)":"095ea7b3","balanceOf(address)":"70a08231","beginExit()":"2228dfa0","burn(address)":"89afcb44","claimStakeRewards(address)":"2b9f4985","concludeEpoch(address[])":"7b55a300","delegateStake(bytes,address,bytes)":"0cc1026b","delegationDigest(bytes,address,address)":"e3716d04","eip712Domain()":"84b0196e","epochInfo(uint256)":"3894228e","futureEpochInfo(uint256)":"59ca93b6","getApproved(uint256)":"081812fc","getBalance(address)":"f8b2cb4f","getCommitteeValidators(uint32)":"a0201be5","getCurrentEpoch()":"b97dd9e2","getCurrentEpochInfo()":"babc394f","getCurrentStakeConfig()":"7d06fdf8","getCurrentStakeVersion()":"67398331","getEpochInfo(uint32)":"374ed18c","getRewards(address)":"79ee54f7","getValidator(address)":"1904bb2e","getValidators(uint8)":"8cc05eda","isApprovedForAll(address,address)":"e985e9c5","isRetired(address)":"6d3c6275","issuance()":"863623bb","mint(address)":"6a627842","name()":"06fdde03","owner()":"8da5cb5b","ownerOf(uint256)":"6352211e","pause()":"8456cb59","paused()":"5c975abb","renounceOwnership()":"715018a6","safeTransferFrom(address,address,uint256)":"42842e0e","safeTransferFrom(address,address,uint256,bytes)":"b88d4fde","setApprovalForAll(address,bool)":"a22cb465","stake(bytes)":"2d1e0c02","stakeConfig(uint8)":"a71954ec","supportsInterface(bytes4)":"01ffc9a7","symbol()":"95d89b41","tokenByIndex(uint256)":"4f6ccce7","tokenOfOwnerByIndex(address,uint256)":"2f745c59","tokenURI(uint256)":"c87b56dd","totalSupply()":"18160ddd","transferFrom(address,address,uint256)":"23b872dd","transferOwnership(address)":"f2fde38b","unpause()":"3f4ba83a","unstake(address)":"f2888dbb","upgradeStakeVersion((uint256,uint256,uint256,uint32))":"c05df7ac","validators(address)":"fa52c7d8"},"id":204}