{
  "abi": [
    {
      "type": "function",
      "name": "SYSTEM_ADDRESS",
      "inputs": [],
      "outputs": [
        {
          "name": "",
          "type": "address",
          "internalType": "address"
        }
      ],
      "stateMutability": "view"
    },
    {
      "type": "function",
      "name": "UPGRADE_INTERFACE_VERSION",
      "inputs": [],
      "outputs": [
        {
          "name": "",
          "type": "string",
          "internalType": "string"
        }
      ],
      "stateMutability": "view"
    },
    {
      "type": "function",
      "name": "activate",
      "inputs": [],
      "outputs": [],
      "stateMutability": "nonpayable"
    },
    {
      "type": "function",
      "name": "applyIncentives",
      "inputs": [
        {
          "name": "newEpoch",
          "type": "uint32",
          "internalType": "uint32"
        },
        {
          "name": "active",
          "type": "tuple[]",
          "internalType": "struct IConsensusRegistry.ValidatorInfo[]",
          "components": [
            {
              "name": "blsPubkey",
              "type": "bytes",
              "internalType": "bytes"
            },
            {
              "name": "validatorAddress",
              "type": "address",
              "internalType": "address"
            },
            {
              "name": "activationEpoch",
              "type": "uint32",
              "internalType": "uint32"
            },
            {
              "name": "exitEpoch",
              "type": "uint32",
              "internalType": "uint32"
            },
            {
              "name": "currentStatus",
              "type": "uint8",
              "internalType": "enum IConsensusRegistry.ValidatorStatus"
            },
            {
              "name": "isRetired",
              "type": "bool",
              "internalType": "bool"
            },
            {
              "name": "isDelegated",
              "type": "bool",
              "internalType": "bool"
            },
            {
              "name": "stakeVersion",
              "type": "uint8",
              "internalType": "uint8"
            }
          ]
        },
        {
          "name": "",
          "type": "tuple[]",
          "internalType": "struct IncentiveInfo[]",
          "components": [
            {
              "name": "tokenId",
              "type": "uint24",
              "internalType": "uint24"
            },
            {
              "name": "stakingRewards",
              "type": "uint232",
              "internalType": "uint232"
            }
          ]
        }
      ],
      "outputs": [],
      "stateMutability": "nonpayable"
    },
    {
      "type": "function",
      "name": "approve",
      "inputs": [
        {
          "name": "to",
          "type": "address",
          "internalType": "address"
        },
        {
          "name": "tokenId",
          "type": "uint256",
          "internalType": "uint256"
        }
      ],
      "outputs": [],
      "stateMutability": "nonpayable"
    },
    {
      "type": "function",
      "name": "balanceOf",
      "inputs": [
        {
          "name": "owner",
          "type": "address",
          "internalType": "address"
        }
      ],
      "outputs": [
        {
          "name": "",
          "type": "uint256",
          "internalType": "uint256"
        }
      ],
      "stateMutability": "view"
    },
    {
      "type": "function",
      "name": "beginExit",
      "inputs": [],
      "outputs": [],
      "stateMutability": "nonpayable"
    },
    {
      "type": "function",
      "name": "burn",
      "inputs": [
        {
          "name": "validatorAddress",
          "type": "address",
          "internalType": "address"
        }
      ],
      "outputs": [],
      "stateMutability": "nonpayable"
    },
    {
      "type": "function",
      "name": "claimStakeRewards",
      "inputs": [
        {
          "name": "validatorAddress",
          "type": "address",
          "internalType": "address"
        }
      ],
      "outputs": [],
      "stateMutability": "nonpayable"
    },
    {
      "type": "function",
      "name": "concludeEpoch",
      "inputs": [
        {
          "name": "newCommittee",
          "type": "address[]",
          "internalType": "address[]"
        },
        {
          "name": "slashes",
          "type": "tuple[]",
          "internalType": "struct IncentiveInfo[]",
          "components": [
            {
              "name": "tokenId",
              "type": "uint24",
              "internalType": "uint24"
            },
            {
              "name": "stakingRewards",
              "type": "uint232",
              "internalType": "uint232"
            }
          ]
        }
      ],
      "outputs": [],
      "stateMutability": "nonpayable"
    },
    {
      "type": "function",
      "name": "delegateStake",
      "inputs": [
        {
          "name": "blsPubkey",
          "type": "bytes",
          "internalType": "bytes"
        },
        {
          "name": "validatorAddress",
          "type": "address",
          "internalType": "address"
        },
        {
          "name": "validatorSig",
          "type": "bytes",
          "internalType": "bytes"
        }
      ],
      "outputs": [],
      "stateMutability": "payable"
    },
    {
      "type": "function",
      "name": "delegationDigest",
      "inputs": [
        {
          "name": "blsPubkey",
          "type": "bytes",
          "internalType": "bytes"
        },
        {
          "name": "validatorAddress",
          "type": "address",
          "internalType": "address"
        },
        {
          "name": "delegator",
          "type": "address",
          "internalType": "address"
        }
      ],
      "outputs": [
        {
          "name": "",
          "type": "bytes32",
          "internalType": "bytes32"
        }
      ],
      "stateMutability": "view"
    },
    {
      "type": "function",
      "name": "eip712Domain",
      "inputs": [],
      "outputs": [
        {
          "name": "fields",
          "type": "bytes1",
          "internalType": "bytes1"
        },
        {
          "name": "name",
          "type": "string",
          "internalType": "string"
        },
        {
          "name": "version",
          "type": "string",
          "internalType": "string"
        },
        {
          "name": "chainId",
          "type": "uint256",
          "internalType": "uint256"
        },
        {
          "name": "verifyingContract",
          "type": "address",
          "internalType": "address"
        },
        {
          "name": "salt",
          "type": "bytes32",
          "internalType": "bytes32"
        },
        {
          "name": "extensions",
          "type": "uint256[]",
          "internalType": "uint256[]"
        }
      ],
      "stateMutability": "view"
    },
    {
      "type": "function",
      "name": "getApproved",
      "inputs": [
        {
          "name": "tokenId",
          "type": "uint256",
          "internalType": "uint256"
        }
      ],
      "outputs": [
        {
          "name": "",
          "type": "address",
          "internalType": "address"
        }
      ],
      "stateMutability": "view"
    },
    {
      "type": "function",
      "name": "getCurrentEpoch",
      "inputs": [],
      "outputs": [
        {
          "name": "",
          "type": "uint32",
          "internalType": "uint32"
        }
      ],
      "stateMutability": "view"
    },
    {
      "type": "function",
      "name": "getCurrentEpochInfo",
      "inputs": [],
      "outputs": [
        {
          "name": "",
          "type": "tuple",
          "internalType": "struct IConsensusRegistry.EpochInfo",
          "components": [
            {
              "name": "committee",
              "type": "address[]",
              "internalType": "address[]"
            },
            {
              "name": "blockHeight",
              "type": "uint64",
              "internalType": "uint64"
            },
            {
              "name": "epochDuration",
              "type": "uint32",
              "internalType": "uint32"
            }
          ]
        }
      ],
      "stateMutability": "view"
    },
    {
      "type": "function",
      "name": "getCurrentStakeConfig",
      "inputs": [],
      "outputs": [
        {
          "name": "",
          "type": "tuple",
          "internalType": "struct IStakeManager.StakeConfig",
          "components": [
            {
              "name": "stakeAmount",
              "type": "uint256",
              "internalType": "uint256"
            },
            {
              "name": "minWithdrawAmount",
              "type": "uint256",
              "internalType": "uint256"
            },
            {
              "name": "epochIssuance",
              "type": "uint256",
              "internalType": "uint256"
            },
            {
              "name": "epochDuration",
              "type": "uint32",
              "internalType": "uint32"
            }
          ]
        }
      ],
      "stateMutability": "view"
    },
    {
      "type": "function",
      "name": "getEpochInfo",
      "inputs": [
        {
          "name": "epoch",
          "type": "uint32",
          "internalType": "uint32"
        }
      ],
      "outputs": [
        {
          "name": "",
          "type": "tuple",
          "internalType": "struct IConsensusRegistry.EpochInfo",
          "components": [
            {
              "name": "committee",
              "type": "address[]",
              "internalType": "address[]"
            },
            {
              "name": "blockHeight",
              "type": "uint64",
              "internalType": "uint64"
            },
            {
              "name": "epochDuration",
              "type": "uint32",
              "internalType": "uint32"
            }
          ]
        }
      ],
      "stateMutability": "view"
    },
    {
      "type": "function",
      "name": "getRewards",
      "inputs": [
        {
          "name": "validatorAddress",
          "type": "address",
          "internalType": "address"
        }
      ],
      "outputs": [
        {
          "name": "",
          "type": "uint240",
          "internalType": "uint240"
        }
      ],
      "stateMutability": "view"
    },
    {
      "type": "function",
      "name": "getValidatorByTokenId",
      "inputs": [
        {
          "name": "tokenId",
          "type": "uint256",
          "internalType": "uint256"
        }
      ],
      "outputs": [
        {
          "name": "",
          "type": "tuple",
          "internalType": "struct IConsensusRegistry.ValidatorInfo",
          "components": [
            {
              "name": "blsPubkey",
              "type": "bytes",
              "internalType": "bytes"
            },
            {
              "name": "validatorAddress",
              "type": "address",
              "internalType": "address"
            },
            {
              "name": "activationEpoch",
              "type": "uint32",
              "internalType": "uint32"
            },
            {
              "name": "exitEpoch",
              "type": "uint32",
              "internalType": "uint32"
            },
            {
              "name": "currentStatus",
              "type": "uint8",
              "internalType": "enum IConsensusRegistry.ValidatorStatus"
            },
            {
              "name": "isRetired",
              "type": "bool",
              "internalType": "bool"
            },
            {
              "name": "isDelegated",
              "type": "bool",
              "internalType": "bool"
            },
            {
              "name": "stakeVersion",
              "type": "uint8",
              "internalType": "uint8"
            }
          ]
        }
      ],
      "stateMutability": "view"
    },
    {
      "type": "function",
      "name": "getValidatorTokenId",
      "inputs": [
        {
          "name": "validatorAddress",
          "type": "address",
          "internalType": "address"
        }
      ],
      "outputs": [
        {
          "name": "",
          "type": "uint256",
          "internalType": "uint256"
        }
      ],
      "stateMutability": "view"
    },
    {
      "type": "function",
      "name": "getValidators",
      "inputs": [
        {
          "name": "status",
          "type": "uint8",
          "internalType": "enum IConsensusRegistry.ValidatorStatus"
        }
      ],
      "outputs": [
        {
          "name": "",
          "type": "tuple[]",
          "internalType": "struct IConsensusRegistry.ValidatorInfo[]",
          "components": [
            {
              "name": "blsPubkey",
              "type": "bytes",
              "internalType": "bytes"
            },
            {
              "name": "validatorAddress",
              "type": "address",
              "internalType": "address"
            },
            {
              "name": "activationEpoch",
              "type": "uint32",
              "internalType": "uint32"
            },
            {
              "name": "exitEpoch",
              "type": "uint32",
              "internalType": "uint32"
            },
            {
              "name": "currentStatus",
              "type": "uint8",
              "internalType": "enum IConsensusRegistry.ValidatorStatus"
            },
            {
              "name": "isRetired",
              "type": "bool",
              "internalType": "bool"
            },
            {
              "name": "isDelegated",
              "type": "bool",
              "internalType": "bool"
            },
            {
              "name": "stakeVersion",
              "type": "uint8",
              "internalType": "uint8"
            }
          ]
        }
      ],
      "stateMutability": "view"
    },
    {
      "type": "function",
      "name": "incentiveInfo",
      "inputs": [
        {
          "name": "validatorAddress",
          "type": "address",
          "internalType": "address"
        }
      ],
      "outputs": [
        {
          "name": "",
          "type": "tuple",
          "internalType": "struct IncentiveInfo",
          "components": [
            {
              "name": "tokenId",
              "type": "uint24",
              "internalType": "uint24"
            },
            {
              "name": "stakingRewards",
              "type": "uint232",
              "internalType": "uint232"
            }
          ]
        }
      ],
      "stateMutability": "view"
    },
    {
      "type": "function",
      "name": "initialize",
      "inputs": [
        {
          "name": "rwTEL_",
          "type": "address",
          "internalType": "address"
        },
        {
          "name": "genesisConfig_",
          "type": "tuple",
          "internalType": "struct IStakeManager.StakeConfig",
          "components": [
            {
              "name": "stakeAmount",
              "type": "uint256",
              "internalType": "uint256"
            },
            {
              "name": "minWithdrawAmount",
              "type": "uint256",
              "internalType": "uint256"
            },
            {
              "name": "epochIssuance",
              "type": "uint256",
              "internalType": "uint256"
            },
            {
              "name": "epochDuration",
              "type": "uint32",
              "internalType": "uint32"
            }
          ]
        },
        {
          "name": "initialValidators_",
          "type": "tuple[]",
          "internalType": "struct IConsensusRegistry.ValidatorInfo[]",
          "components": [
            {
              "name": "blsPubkey",
              "type": "bytes",
              "internalType": "bytes"
            },
            {
              "name": "validatorAddress",
              "type": "address",
              "internalType": "address"
            },
            {
              "name": "activationEpoch",
              "type": "uint32",
              "internalType": "uint32"
            },
            {
              "name": "exitEpoch",
              "type": "uint32",
              "internalType": "uint32"
            },
            {
              "name": "currentStatus",
              "type": "uint8",
              "internalType": "enum IConsensusRegistry.ValidatorStatus"
            },
            {
              "name": "isRetired",
              "type": "bool",
              "internalType": "bool"
            },
            {
              "name": "isDelegated",
              "type": "bool",
              "internalType": "bool"
            },
            {
              "name": "stakeVersion",
              "type": "uint8",
              "internalType": "uint8"
            }
          ]
        },
        {
          "name": "owner_",
          "type": "address",
          "internalType": "address"
        }
      ],
      "outputs": [],
      "stateMutability": "nonpayable"
    },
    {
      "type": "function",
      "name": "isApprovedForAll",
      "inputs": [
        {
          "name": "owner",
          "type": "address",
          "internalType": "address"
        },
        {
          "name": "operator",
          "type": "address",
          "internalType": "address"
        }
      ],
      "outputs": [
        {
          "name": "",
          "type": "bool",
          "internalType": "bool"
        }
      ],
      "stateMutability": "view"
    },
    {
      "type": "function",
      "name": "isRetired",
      "inputs": [
        {
          "name": "tokenId",
          "type": "uint256",
          "internalType": "uint256"
        }
      ],
      "outputs": [
        {
          "name": "",
          "type": "bool",
          "internalType": "bool"
        }
      ],
      "stateMutability": "view"
    },
    {
      "type": "function",
      "name": "mint",
      "inputs": [
        {
          "name": "validatorAddress",
          "type": "address",
          "internalType": "address"
        },
        {
          "name": "tokenId",
          "type": "uint256",
          "internalType": "uint256"
        }
      ],
      "outputs": [],
      "stateMutability": "nonpayable"
    },
    {
      "type": "function",
      "name": "name",
      "inputs": [],
      "outputs": [
        {
          "name": "",
          "type": "string",
          "internalType": "string"
        }
      ],
      "stateMutability": "view"
    },
    {
      "type": "function",
      "name": "owner",
      "inputs": [],
      "outputs": [
        {
          "name": "",
          "type": "address",
          "internalType": "address"
        }
      ],
      "stateMutability": "view"
    },
    {
      "type": "function",
      "name": "ownerOf",
      "inputs": [
        {
          "name": "tokenId",
          "type": "uint256",
          "internalType": "uint256"
        }
      ],
      "outputs": [
        {
          "name": "",
          "type": "address",
          "internalType": "address"
        }
      ],
      "stateMutability": "view"
    },
    {
      "type": "function",
      "name": "pause",
      "inputs": [],
      "outputs": [],
      "stateMutability": "nonpayable"
    },
    {
      "type": "function",
      "name": "paused",
      "inputs": [],
      "outputs": [
        {
          "name": "",
          "type": "bool",
          "internalType": "bool"
        }
      ],
      "stateMutability": "view"
    },
    {
      "type": "function",
      "name": "proxiableUUID",
      "inputs": [],
      "outputs": [
        {
          "name": "",
          "type": "bytes32",
          "internalType": "bytes32"
        }
      ],
      "stateMutability": "view"
    },
    {
      "type": "function",
      "name": "renounceOwnership",
      "inputs": [],
      "outputs": [],
      "stateMutability": "nonpayable"
    },
    {
      "type": "function",
      "name": "safeTransferFrom",
      "inputs": [
        {
          "name": "from",
          "type": "address",
          "internalType": "address"
        },
        {
          "name": "to",
          "type": "address",
          "internalType": "address"
        },
        {
          "name": "tokenId",
          "type": "uint256",
          "internalType": "uint256"
        }
      ],
      "outputs": [],
      "stateMutability": "nonpayable"
    },
    {
      "type": "function",
      "name": "safeTransferFrom",
      "inputs": [
        {
          "name": "from",
          "type": "address",
          "internalType": "address"
        },
        {
          "name": "to",
          "type": "address",
          "internalType": "address"
        },
        {
          "name": "tokenId",
          "type": "uint256",
          "internalType": "uint256"
        },
        {
          "name": "data",
          "type": "bytes",
          "internalType": "bytes"
        }
      ],
      "outputs": [],
      "stateMutability": "nonpayable"
    },
    {
      "type": "function",
      "name": "setApprovalForAll",
      "inputs": [
        {
          "name": "operator",
          "type": "address",
          "internalType": "address"
        },
        {
          "name": "approved",
          "type": "bool",
          "internalType": "bool"
        }
      ],
      "outputs": [],
      "stateMutability": "nonpayable"
    },
    {
      "type": "function",
      "name": "stake",
      "inputs": [
        {
          "name": "blsPubkey",
          "type": "bytes",
          "internalType": "bytes"
        }
      ],
      "outputs": [],
      "stateMutability": "payable"
    },
    {
      "type": "function",
      "name": "stakeConfig",
      "inputs": [
        {
          "name": "version",
          "type": "uint8",
          "internalType": "uint8"
        }
      ],
      "outputs": [
        {
          "name": "",
          "type": "tuple",
          "internalType": "struct IStakeManager.StakeConfig",
          "components": [
            {
              "name": "stakeAmount",
              "type": "uint256",
              "internalType": "uint256"
            },
            {
              "name": "minWithdrawAmount",
              "type": "uint256",
              "internalType": "uint256"
            },
            {
              "name": "epochIssuance",
              "type": "uint256",
              "internalType": "uint256"
            },
            {
              "name": "epochDuration",
              "type": "uint32",
              "internalType": "uint32"
            }
          ]
        }
      ],
      "stateMutability": "view"
    },
    {
      "type": "function",
      "name": "stakeVersion",
      "inputs": [],
      "outputs": [
        {
          "name": "",
          "type": "uint8",
          "internalType": "uint8"
        }
      ],
      "stateMutability": "view"
    },
    {
      "type": "function",
      "name": "supportsInterface",
      "inputs": [
        {
          "name": "interfaceId",
          "type": "bytes4",
          "internalType": "bytes4"
        }
      ],
      "outputs": [
        {
          "name": "",
          "type": "bool",
          "internalType": "bool"
        }
      ],
      "stateMutability": "view"
    },
    {
      "type": "function",
      "name": "symbol",
      "inputs": [],
      "outputs": [
        {
          "name": "",
          "type": "string",
          "internalType": "string"
        }
      ],
      "stateMutability": "view"
    },
    {
      "type": "function",
      "name": "tokenURI",
      "inputs": [
        {
          "name": "tokenId",
          "type": "uint256",
          "internalType": "uint256"
        }
      ],
      "outputs": [
        {
          "name": "",
          "type": "string",
          "internalType": "string"
        }
      ],
      "stateMutability": "view"
    },
    {
      "type": "function",
      "name": "totalSupply",
      "inputs": [],
      "outputs": [
        {
          "name": "",
          "type": "uint256",
          "internalType": "uint256"
        }
      ],
      "stateMutability": "view"
    },
    {
      "type": "function",
      "name": "transferFrom",
      "inputs": [
        {
          "name": "",
          "type": "address",
          "internalType": "address"
        },
        {
          "name": "",
          "type": "address",
          "internalType": "address"
        },
        {
          "name": "",
          "type": "uint256",
          "internalType": "uint256"
        }
      ],
      "outputs": [],
      "stateMutability": "nonpayable"
    },
    {
      "type": "function",
      "name": "transferOwnership",
      "inputs": [
        {
          "name": "newOwner",
          "type": "address",
          "internalType": "address"
        }
      ],
      "outputs": [],
      "stateMutability": "nonpayable"
    },
    {
      "type": "function",
      "name": "unpause",
      "inputs": [],
      "outputs": [],
      "stateMutability": "nonpayable"
    },
    {
      "type": "function",
      "name": "unstake",
      "inputs": [
        {
          "name": "validatorAddress",
          "type": "address",
          "internalType": "address"
        }
      ],
      "outputs": [],
      "stateMutability": "nonpayable"
    },
    {
      "type": "function",
      "name": "upgradeStakeVersion",
      "inputs": [
        {
          "name": "newConfig",
          "type": "tuple",
          "internalType": "struct IStakeManager.StakeConfig",
          "components": [
            {
              "name": "stakeAmount",
              "type": "uint256",
              "internalType": "uint256"
            },
            {
              "name": "minWithdrawAmount",
              "type": "uint256",
              "internalType": "uint256"
            },
            {
              "name": "epochIssuance",
              "type": "uint256",
              "internalType": "uint256"
            },
            {
              "name": "epochDuration",
              "type": "uint32",
              "internalType": "uint32"
            }
          ]
        }
      ],
      "outputs": [
        {
          "name": "",
          "type": "uint8",
          "internalType": "uint8"
        }
      ],
      "stateMutability": "nonpayable"
    },
    {
      "type": "function",
      "name": "upgradeToAndCall",
      "inputs": [
        {
          "name": "newImplementation",
          "type": "address",
          "internalType": "address"
        },
        {
          "name": "data",
          "type": "bytes",
          "internalType": "bytes"
        }
      ],
      "outputs": [],
      "stateMutability": "payable"
    },
    {
      "type": "event",
      "name": "Approval",
      "inputs": [
        {
          "name": "owner",
          "type": "address",
          "indexed": true,
          "internalType": "address"
        },
        {
          "name": "approved",
          "type": "address",
          "indexed": true,
          "internalType": "address"
        },
        {
          "name": "tokenId",
          "type": "uint256",
          "indexed": true,
          "internalType": "uint256"
        }
      ],
      "anonymous": false
    },
    {
      "type": "event",
      "name": "ApprovalForAll",
      "inputs": [
        {
          "name": "owner",
          "type": "address",
          "indexed": true,
          "internalType": "address"
        },
        {
          "name": "operator",
          "type": "address",
          "indexed": true,
          "internalType": "address"
        },
        {
          "name": "approved",
          "type": "bool",
          "indexed": false,
          "internalType": "bool"
        }
      ],
      "anonymous": false
    },
    {
      "type": "event",
      "name": "Initialized",
      "inputs": [
        {
          "name": "version",
          "type": "uint64",
          "indexed": false,
          "internalType": "uint64"
        }
      ],
      "anonymous": false
    },
    {
      "type": "event",
      "name": "NewEpoch",
      "inputs": [
        {
          "name": "epoch",
          "type": "tuple",
          "indexed": false,
          "internalType": "struct IConsensusRegistry.EpochInfo",
          "components": [
            {
              "name": "committee",
              "type": "address[]",
              "internalType": "address[]"
            },
            {
              "name": "blockHeight",
              "type": "uint64",
              "internalType": "uint64"
            },
            {
              "name": "epochDuration",
              "type": "uint32",
              "internalType": "uint32"
            }
          ]
        }
      ],
      "anonymous": false
    },
    {
      "type": "event",
      "name": "OwnershipTransferred",
      "inputs": [
        {
          "name": "previousOwner",
          "type": "address",
          "indexed": true,
          "internalType": "address"
        },
        {
          "name": "newOwner",
          "type": "address",
          "indexed": true,
          "internalType": "address"
        }
      ],
      "anonymous": false
    },
    {
      "type": "event",
      "name": "Paused",
      "inputs": [
        {
          "name": "account",
          "type": "address",
          "indexed": false,
          "internalType": "address"
        }
      ],
      "anonymous": false
    },
    {
      "type": "event",
      "name": "RewardsClaimed",
      "inputs": [
        {
          "name": "claimant",
          "type": "address",
          "indexed": false,
          "internalType": "address"
        },
        {
          "name": "rewards",
          "type": "uint256",
          "indexed": false,
          "internalType": "uint256"
        }
      ],
      "anonymous": false
    },
    {
      "type": "event",
      "name": "Transfer",
      "inputs": [
        {
          "name": "from",
          "type": "address",
          "indexed": true,
          "internalType": "address"
        },
        {
          "name": "to",
          "type": "address",
          "indexed": true,
          "internalType": "address"
        },
        {
          "name": "tokenId",
          "type": "uint256",
          "indexed": true,
          "internalType": "uint256"
        }
      ],
      "anonymous": false
    },
    {
      "type": "event",
      "name": "Unpaused",
      "inputs": [
        {
          "name": "account",
          "type": "address",
          "indexed": false,
          "internalType": "address"
        }
      ],
      "anonymous": false
    },
    {
      "type": "event",
      "name": "Upgraded",
      "inputs": [
        {
          "name": "implementation",
          "type": "address",
          "indexed": true,
          "internalType": "address"
        }
      ],
      "anonymous": false
    },
    {
      "type": "event",
      "name": "ValidatorActivated",
      "inputs": [
        {
          "name": "validator",
          "type": "tuple",
          "indexed": false,
          "internalType": "struct IConsensusRegistry.ValidatorInfo",
          "components": [
            {
              "name": "blsPubkey",
              "type": "bytes",
              "internalType": "bytes"
            },
            {
              "name": "validatorAddress",
              "type": "address",
              "internalType": "address"
            },
            {
              "name": "activationEpoch",
              "type": "uint32",
              "internalType": "uint32"
            },
            {
              "name": "exitEpoch",
              "type": "uint32",
              "internalType": "uint32"
            },
            {
              "name": "currentStatus",
              "type": "uint8",
              "internalType": "enum IConsensusRegistry.ValidatorStatus"
            },
            {
              "name": "isRetired",
              "type": "bool",
              "internalType": "bool"
            },
            {
              "name": "isDelegated",
              "type": "bool",
              "internalType": "bool"
            },
            {
              "name": "stakeVersion",
              "type": "uint8",
              "internalType": "uint8"
            }
          ]
        }
      ],
      "anonymous": false
    },
    {
      "type": "event",
      "name": "ValidatorExited",
      "inputs": [
        {
          "name": "validator",
          "type": "tuple",
          "indexed": false,
          "internalType": "struct IConsensusRegistry.ValidatorInfo",
          "components": [
            {
              "name": "blsPubkey",
              "type": "bytes",
              "internalType": "bytes"
            },
            {
              "name": "validatorAddress",
              "type": "address",
              "internalType": "address"
            },
            {
              "name": "activationEpoch",
              "type": "uint32",
              "internalType": "uint32"
            },
            {
              "name": "exitEpoch",
              "type": "uint32",
              "internalType": "uint32"
            },
            {
              "name": "currentStatus",
              "type": "uint8",
              "internalType": "enum IConsensusRegistry.ValidatorStatus"
            },
            {
              "name": "isRetired",
              "type": "bool",
              "internalType": "bool"
            },
            {
              "name": "isDelegated",
              "type": "bool",
              "internalType": "bool"
            },
            {
              "name": "stakeVersion",
              "type": "uint8",
              "internalType": "uint8"
            }
          ]
        }
      ],
      "anonymous": false
    },
    {
      "type": "event",
      "name": "ValidatorPendingActivation",
      "inputs": [
        {
          "name": "validator",
          "type": "tuple",
          "indexed": false,
          "internalType": "struct IConsensusRegistry.ValidatorInfo",
          "components": [
            {
              "name": "blsPubkey",
              "type": "bytes",
              "internalType": "bytes"
            },
            {
              "name": "validatorAddress",
              "type": "address",
              "internalType": "address"
            },
            {
              "name": "activationEpoch",
              "type": "uint32",
              "internalType": "uint32"
            },
            {
              "name": "exitEpoch",
              "type": "uint32",
              "internalType": "uint32"
            },
            {
              "name": "currentStatus",
              "type": "uint8",
              "internalType": "enum IConsensusRegistry.ValidatorStatus"
            },
            {
              "name": "isRetired",
              "type": "bool",
              "internalType": "bool"
            },
            {
              "name": "isDelegated",
              "type": "bool",
              "internalType": "bool"
            },
            {
              "name": "stakeVersion",
              "type": "uint8",
              "internalType": "uint8"
            }
          ]
        }
      ],
      "anonymous": false
    },
    {
      "type": "event",
      "name": "ValidatorPendingExit",
      "inputs": [
        {
          "name": "validator",
          "type": "tuple",
          "indexed": false,
          "internalType": "struct IConsensusRegistry.ValidatorInfo",
          "components": [
            {
              "name": "blsPubkey",
              "type": "bytes",
              "internalType": "bytes"
            },
            {
              "name": "validatorAddress",
              "type": "address",
              "internalType": "address"
            },
            {
              "name": "activationEpoch",
              "type": "uint32",
              "internalType": "uint32"
            },
            {
              "name": "exitEpoch",
              "type": "uint32",
              "internalType": "uint32"
            },
            {
              "name": "currentStatus",
              "type": "uint8",
              "internalType": "enum IConsensusRegistry.ValidatorStatus"
            },
            {
              "name": "isRetired",
              "type": "bool",
              "internalType": "bool"
            },
            {
              "name": "isDelegated",
              "type": "bool",
              "internalType": "bool"
            },
            {
              "name": "stakeVersion",
              "type": "uint8",
              "internalType": "uint8"
            }
          ]
        }
      ],
      "anonymous": false
    },
    {
      "type": "event",
      "name": "ValidatorRetired",
      "inputs": [
        {
          "name": "validator",
          "type": "tuple",
          "indexed": false,
          "internalType": "struct IConsensusRegistry.ValidatorInfo",
          "components": [
            {
              "name": "blsPubkey",
              "type": "bytes",
              "internalType": "bytes"
            },
            {
              "name": "validatorAddress",
              "type": "address",
              "internalType": "address"
            },
            {
              "name": "activationEpoch",
              "type": "uint32",
              "internalType": "uint32"
            },
            {
              "name": "exitEpoch",
              "type": "uint32",
              "internalType": "uint32"
            },
            {
              "name": "currentStatus",
              "type": "uint8",
              "internalType": "enum IConsensusRegistry.ValidatorStatus"
            },
            {
              "name": "isRetired",
              "type": "bool",
              "internalType": "bool"
            },
            {
              "name": "isDelegated",
              "type": "bool",
              "internalType": "bool"
            },
            {
              "name": "stakeVersion",
              "type": "uint8",
              "internalType": "uint8"
            }
          ]
        }
      ],
      "anonymous": false
    },
    {
      "type": "event",
      "name": "ValidatorStaked",
      "inputs": [
        {
          "name": "validator",
          "type": "tuple",
          "indexed": false,
          "internalType": "struct IConsensusRegistry.ValidatorInfo",
          "components": [
            {
              "name": "blsPubkey",
              "type": "bytes",
              "internalType": "bytes"
            },
            {
              "name": "validatorAddress",
              "type": "address",
              "internalType": "address"
            },
            {
              "name": "activationEpoch",
              "type": "uint32",
              "internalType": "uint32"
            },
            {
              "name": "exitEpoch",
              "type": "uint32",
              "internalType": "uint32"
            },
            {
              "name": "currentStatus",
              "type": "uint8",
              "internalType": "enum IConsensusRegistry.ValidatorStatus"
            },
            {
              "name": "isRetired",
              "type": "bool",
              "internalType": "bool"
            },
            {
              "name": "isDelegated",
              "type": "bool",
              "internalType": "bool"
            },
            {
              "name": "stakeVersion",
              "type": "uint8",
              "internalType": "uint8"
            }
          ]
        }
      ],
      "anonymous": false
    },
    {
      "type": "error",
      "name": "AddressEmptyCode",
      "inputs": [
        {
          "name": "target",
          "type": "address",
          "internalType": "address"
        }
      ]
    },
    {
      "type": "error",
      "name": "AlreadyDefined",
      "inputs": [
        {
          "name": "validatorAddress",
          "type": "address",
          "internalType": "address"
        }
      ]
    },
    {
      "type": "error",
      "name": "CommitteeRequirement",
      "inputs": [
        {
          "name": "validatorAddress",
          "type": "address",
          "internalType": "address"
        }
      ]
    },
    {
      "type": "error",
      "name": "ERC1967InvalidImplementation",
      "inputs": [
        {
          "name": "implementation",
          "type": "address",
          "internalType": "address"
        }
      ]
    },
    {
      "type": "error",
      "name": "ERC1967NonPayable",
      "inputs": []
    },
    {
      "type": "error",
      "name": "ERC721IncorrectOwner",
      "inputs": [
        {
          "name": "sender",
          "type": "address",
          "internalType": "address"
        },
        {
          "name": "tokenId",
          "type": "uint256",
          "internalType": "uint256"
        },
        {
          "name": "owner",
          "type": "address",
          "internalType": "address"
        }
      ]
    },
    {
      "type": "error",
      "name": "ERC721InsufficientApproval",
      "inputs": [
        {
          "name": "operator",
          "type": "address",
          "internalType": "address"
        },
        {
          "name": "tokenId",
          "type": "uint256",
          "internalType": "uint256"
        }
      ]
    },
    {
      "type": "error",
      "name": "ERC721InvalidApprover",
      "inputs": [
        {
          "name": "approver",
          "type": "address",
          "internalType": "address"
        }
      ]
    },
    {
      "type": "error",
      "name": "ERC721InvalidOperator",
      "inputs": [
        {
          "name": "operator",
          "type": "address",
          "internalType": "address"
        }
      ]
    },
    {
      "type": "error",
      "name": "ERC721InvalidOwner",
      "inputs": [
        {
          "name": "owner",
          "type": "address",
          "internalType": "address"
        }
      ]
    },
    {
      "type": "error",
      "name": "ERC721InvalidReceiver",
      "inputs": [
        {
          "name": "receiver",
          "type": "address",
          "internalType": "address"
        }
      ]
    },
    {
      "type": "error",
      "name": "ERC721InvalidSender",
      "inputs": [
        {
          "name": "sender",
          "type": "address",
          "internalType": "address"
        }
      ]
    },
    {
      "type": "error",
      "name": "ERC721NonexistentToken",
      "inputs": [
        {
          "name": "tokenId",
          "type": "uint256",
          "internalType": "uint256"
        }
      ]
    },
    {
      "type": "error",
      "name": "EnforcedPause",
      "inputs": []
    },
    {
      "type": "error",
      "name": "ExpectedPause",
      "inputs": []
    },
    {
      "type": "error",
      "name": "FailedCall",
      "inputs": []
    },
    {
      "type": "error",
      "name": "InitializerArityMismatch",
      "inputs": []
    },
    {
      "type": "error",
      "name": "InsufficientRewards",
      "inputs": [
        {
          "name": "withdrawAmount",
          "type": "uint256",
          "internalType": "uint256"
        }
      ]
    },
    {
      "type": "error",
      "name": "InvalidBLSPubkey",
      "inputs": []
    },
    {
      "type": "error",
      "name": "InvalidCommitteeSize",
      "inputs": [
        {
          "name": "minCommitteeSize",
          "type": "uint256",
          "internalType": "uint256"
        },
        {
          "name": "providedCommitteeSize",
          "type": "uint256",
          "internalType": "uint256"
        }
      ]
    },
    {
      "type": "error",
      "name": "InvalidEpoch",
      "inputs": [
        {
          "name": "epoch",
          "type": "uint32",
          "internalType": "uint32"
        }
      ]
    },
    {
      "type": "error",
      "name": "InvalidInitialization",
      "inputs": []
    },
    {
      "type": "error",
      "name": "InvalidProof",
      "inputs": []
    },
    {
      "type": "error",
      "name": "InvalidStakeAmount",
      "inputs": [
        {
          "name": "stakeAmount",
          "type": "uint256",
          "internalType": "uint256"
        }
      ]
    },
    {
      "type": "error",
      "name": "InvalidStatus",
      "inputs": [
        {
          "name": "status",
          "type": "uint8",
          "internalType": "enum IConsensusRegistry.ValidatorStatus"
        }
      ]
    },
    {
      "type": "error",
      "name": "InvalidTokenId",
      "inputs": [
        {
          "name": "tokenId",
          "type": "uint256",
          "internalType": "uint256"
        }
      ]
    },
    {
      "type": "error",
      "name": "InvalidValidatorAddress",
      "inputs": []
    },
    {
      "type": "error",
      "name": "LowLevelCallFailure",
      "inputs": []
    },
    {
      "type": "error",
      "name": "NotDelegator",
      "inputs": [
        {
          "name": "notDelegator",
          "type": "address",
          "internalType": "address"
        }
      ]
    },
    {
      "type": "error",
      "name": "NotInitializing",
      "inputs": []
    },
    {
      "type": "error",
      "name": "NotTransferable",
      "inputs": []
    },
    {
      "type": "error",
      "name": "NotValidator",
      "inputs": [
        {
          "name": "validatorAddress",
          "type": "address",
          "internalType": "address"
        }
      ]
    },
    {
      "type": "error",
      "name": "OnlySystemCall",
      "inputs": [
        {
          "name": "invalidCaller",
          "type": "address",
          "internalType": "address"
        }
      ]
    },
    {
      "type": "error",
      "name": "OwnableInvalidOwner",
      "inputs": [
        {
          "name": "owner",
          "type": "address",
          "internalType": "address"
        }
      ]
    },
    {
      "type": "error",
      "name": "OwnableUnauthorizedAccount",
      "inputs": [
        {
          "name": "account",
          "type": "address",
          "internalType": "address"
        }
      ]
    },
    {
      "type": "error",
      "name": "RequiresConsensusNFT",
      "inputs": []
    },
    {
      "type": "error",
      "name": "UUPSUnauthorizedCallContext",
      "inputs": []
    },
    {
      "type": "error",
      "name": "UUPSUnsupportedProxiableUUID",
      "inputs": [
        {
          "name": "slot",
          "type": "bytes32",
          "internalType": "bytes32"
        }
      ]
    }
  ],
  "bytecode": {
    "object": "0x6101406040527f8478e887beabc77eff0d543b4296823f1590a22d5ce447143f02ddaf3954af8b5f553061012052348015610038575f80fd5b50306080524660a052606080610096604080518082018252601481527f54656c636f696e205374616b654d616e61676572000000000000000000000000602080830191909152825180840190935260018352603160f81b9083015291565b815160209283012081519183019190912060c082905260e0819052604080517f8b73c3c69bb8fe3d512ecc4cf759cc79239f7b179b0ffacaa9a75d522b39400f8152938401929092529082015246606082015230608082015260a0902061010052506100ff9050565b60805160a05160c05160e0516101005161012051615f616101545f395f81816139ce015281816139f70152613b3601525f612a3601525f612af001525f612aca01525f612a7a01525f612a570152615f615ff3fe6080604052600436106102bf575f3560e01c80637d06fdf81161016f578063b88d4fde116100d8578063e36e10ad11610092578063f1070c471161006d578063f1070c471461089f578063f2888dbb146108be578063f2fde38b146108dd578063fc5ffc0a146108fc575f80fd5b8063e36e10ad14610842578063e3716d0414610861578063e985e9c514610880575f80fd5b8063b88d4fde14610782578063b97dd9e2146107a1578063babc394f146107d1578063c05df7ac146107e5578063c87b56dd14610804578063cf6ebee714610823575f80fd5b80638f2f6e2f116101295780638f2f6e2f146106b557806395d89b41146106d4578063a22cb465146106e8578063a71954ec14610707578063aa680fe014610726578063ad3cb1cc14610752575f80fd5b80637d06fdf8146105ce5780638456cb591461061b57806384b0196e1461062f57806389afcb44146106565780638cc05eda146106755780638da5cb5b146106a1575f80fd5b8063374ed18c1161022b57806352d1902d116101e55780636352211e116101c05780636352211e1461054557806370a0823114610564578063715018a61461058357806379ee54f714610597575f80fd5b806352d1902d146104e8578063568d312c146104fc5780635c975abb14610522575f80fd5b8063374ed18c146104385780633f4ba83a1461046457806340c10f191461047857806342842e0e14610497578063486c6c8f146104b65780634f1ef286146104d5575f80fd5b806318160ddd1161027c57806318160ddd146103975780632228dfa0146103b957806323b872dd146103cd5780632b9f4985146103ec5780632d1e0c021461040b5780633434735f1461041e575f80fd5b806301ffc9a7146102c357806306fdde03146102f7578063081812fc14610318578063095ea7b31461034f5780630cc1026b146103705780630f15f4c014610383575b5f80fd5b3480156102ce575f80fd5b506102e26102dd366004614ea5565b610944565b60405190151581526020015b60405180910390f35b348015610302575f80fd5b5061030b610995565b6040516102ee9190614f0d565b348015610323575f80fd5b50610337610332366004614f1f565b610a36565b6040516001600160a01b0390911681526020016102ee565b34801561035a575f80fd5b5061036e610369366004614f4c565b610a4a565b005b61036e61037e366004614fb1565b610a59565b34801561038e575f80fd5b5061036e610d0d565b3480156103a2575f80fd5b506103ab610d70565b6040519081526020016102ee565b3480156103c4575f80fd5b5061036e610d8b565b3480156103d8575f80fd5b5061036e6103e7366004615030565b610e66565b3480156103f7575f80fd5b5061036e61040636600461506a565b610e7f565b61036e610419366004615083565b610f59565b348015610429575f80fd5b506103376002600160a01b0381565b348015610443575f80fd5b506104576104523660046150dd565b610fec565b6040516102ee91906150f8565b34801561046f575f80fd5b5061036e611157565b348015610483575f80fd5b5061036e610492366004614f4c565b611169565b3480156104a2575f80fd5b5061036e6104b1366004615030565b611273565b3480156104c1575f80fd5b5061036e6104d03660046151b8565b61128d565b61036e6104e336600461534a565b6113dc565b3480156104f3575f80fd5b506103ab6113f7565b348015610507575f80fd5b50610510611412565b60405160ff90911681526020016102ee565b34801561052d575f80fd5b505f80516020615f158339815191525460ff166102e2565b348015610550575f80fd5b5061033761055f366004614f1f565b61142b565b34801561056f575f80fd5b506103ab61057e36600461506a565b611435565b34801561058e575f80fd5b5061036e61148d565b3480156105a2575f80fd5b506105b66105b136600461506a565b61149e565b6040516001600160f01b0390911681526020016102ee565b3480156105d9575f80fd5b506105e26114d9565b6040516102ee919081518152602080830151908201526040808301519082015260609182015163ffffffff169181019190915260800190565b348015610626575f80fd5b5061036e611516565b34801561063a575f80fd5b50610643611526565b6040516102ee9796959493929190615394565b348015610661575f80fd5b5061036e61067036600461506a565b61158d565b348015610680575f80fd5b5061069461068f366004615438565b6115c6565b6040516102ee9190615526565b3480156106ac575f80fd5b50610337611612565b3480156106c0575f80fd5b5061036e6106cf3660046156fb565b611640565b3480156106df575f80fd5b5061030b6117bb565b3480156106f3575f80fd5b5061036e61070236600461575a565b6117f9565b348015610712575f80fd5b506105e261072136600461578b565b611804565b348015610731575f80fd5b50610745610740366004614f1f565b61188c565b6040516102ee91906157a4565b34801561075d575f80fd5b5061030b604051806040016040528060058152602001640352e302e360dc1b81525081565b34801561078d575f80fd5b5061036e61079c3660046157b6565b611a42565b3480156107ac575f80fd5b505f80516020615f358339815191525460405163ffffffff90911681526020016102ee565b3480156107dc575f80fd5b50610457611a5a565b3480156107f0575f80fd5b506105106107ff366004615819565b611b35565b34801561080f575f80fd5b5061030b61081e366004614f1f565b611bb3565b34801561082e575f80fd5b506102e261083d366004614f1f565b611c24565b34801561084d575f80fd5b506103ab61085c36600461506a565b611c92565b34801561086c575f80fd5b506103ab61087b366004615832565b611caf565b34801561088b575f80fd5b506102e261089a36600461588b565b611d55565b3480156108aa575f80fd5b5061036e6108b93660046158b3565b611da1565b3480156108c9575f80fd5b5061036e6108d836600461506a565b6126aa565b3480156108e8575f80fd5b5061036e6108f736600461506a565b612792565b348015610907575f80fd5b5061091b61091636600461506a565b6127cf565b60408051825162ffffff1681526020928301516001600160e81b031692810192909252016102ee565b5f6001600160e01b031982166380ac58cd60e01b148061097457506001600160e01b03198216635b5e139f60e01b145b8061098f57506301ffc9a760e01b6001600160e01b03198316145b92915050565b5f80516020615ed583398151915280546060919081906109b49061595d565b80601f01602080910402602001604051908101604052809291908181526020018280546109e09061595d565b8015610a2b5780601f10610a0257610100808354040283529160200191610a2b565b820191905f5260205f20905b815481529060010190602001808311610a0e57829003601f168201915b505050505091505090565b5f610a4082612833565b5061098f8261286a565b610a558282336128a3565b5050565b610a616128b0565b60608414610a82576040516333a234f960e11b815260040160405180910390fd5b5f610a8b6128e0565b8054909150600160b81b900460ff16610aa43482612904565b5f610aaf8387612943565b9050610aca5f80516020615f358339815191525b825f6129cd565b6001600160a01b0386165f90815260038401602052604081206001018054600160c01b90046001600160401b0316906018610b04836159a9565b91906101000a8154816001600160401b0302191690836001600160401b0316021790555090505f8989604051610b3b9291906159d3565b60405180910390209050610b4d611612565b6001600160a01b0316336001600160a01b031614610be2575f80548233868887604051602001610b82969594939291906159e2565b6040516020818303038152906040528051906020012090505f610ba482612a34565b9050610bb28a828b8b612b4a565b610bdf57604051633b4f6e2b60e21b81526001600160a01b038b1660048201526024015b60405180910390fd5b50505b6040518060a00160405280828152602001336001600160a01b031681526020018462ffffff1681526020018560ff168152602001836001600160401b0316815250856003015f8a6001600160a01b03166001600160a01b031681526020019081526020015f205f820151815f01556020820151816001015f6101000a8154816001600160a01b0302191690836001600160a01b0316021790555060408201518160010160146101000a81548162ffffff021916908362ffffff16021790555060608201518160010160176101000a81548160ff021916908360ff16021790555060808201518160010160186101000a8154816001600160401b0302191690836001600160401b03160217905550905050610d018a8a8a60018888612c3c565b50505050505050505050565b610d156128b0565b5f610d27610d216128e0565b33612943565b90505f80516020615f35833981519152610d43818360016129cd565b62ffffff82165f90815260118201602052604090208154610d6b90829063ffffffff16612e17565b505050565b5f610d796128e0565b54600160a01b900462ffffff16919050565b610d936128b0565b5f610d9f610d216128e0565b90505f80516020615f358339815191525f610dbb826003612e97565b5182549091505f906001840190600160201b900460ff1660048110610de257610de2615a24565b60020201549050610df3828261322c565b610dff838560036129cd565b62ffffff84165f90815260118401602052604090208354600182015463ffffffff91821691600160a01b90910416811015610e5557604051634fadd4d360e11b815263ffffffff82166004820152602401610bd6565b610e5e82613260565b505050505050565b60405163dc8d8db760e01b815260040160405180910390fd5b610e876128b0565b5f610e906128e0565b90505f610e9d8284612943565b62ffffff81165f9081527faf33537d204b7c8488a91ad2a40f2c043712bad394401b7dd7bd4cb801f231116020526040902060010154909150600160f81b900460ff16836001600160a01b0381163314610eff57610efc8486336132b8565b90505b5f610f0c85878486613308565b604080516001600160a01b0385168152602081018390529192507ffc30cddea38e2bf4d6ea7d3f9ed3b6ad7f176419f4963bd81318067a4aee73fe910160405180910390a1505050505050565b610f616128b0565b60608114610f82576040516333a234f960e11b815260040160405180910390fd5b5f610f8b6128e0565b8054909150610fa5903490600160b81b900460ff16612904565b5f610fb08233612943565b9050610fc85f80516020615f35833981519152610ac3565b610fe68484335f865f0160179054906101000a900460ff1686612c3c565b50505050565b604080516060808201835281525f60208201819052918101919091525f80516020615f35833981519152805463ffffffff16611029816002615a38565b63ffffffff168463ffffffff161180611069575060038163ffffffff1610158015611069575061105a600382615a54565b63ffffffff168463ffffffff16105b1561108f57604051634fadd4d360e11b815263ffffffff85166004820152602401610bd6565b8154600160201b900460ff1663ffffffff828116908616111561114b576110b883868484613399565b6040805182546080602082028301810190935260608201818152919392849291849184018282801561111157602002820191905f5260205f20905b81546001600160a01b031681526001909101906020018083116110f3575b5050509183525050600191909101546001600160401b0381166020830152600160401b900463ffffffff1660409091015295945050505050565b6110b8838684846133e4565b61115f61343e565b611167613470565b565b61117161343e565b5f61117a6128e0565b905061118583611435565b15158061119f575061119781846134c9565b62ffffff1615155b156111c857604051639fb0877960e01b81526001600160a01b0384166004820152602401610bd6565b6001600160a01b0383165f9081526002820160205260408120805462ffffff191662ffffff858116919091179091558254839160149161121091600160a01b90910416615a70565b91906101000a81548162ffffff021916908362ffffff160217905590508062ffffff168314158015611248575061124683611c24565b155b156112695760405163ed15e6cf60e01b815260048101849052602401610bd6565b610fe684846134ec565b610d6b83838360405180602001604052805f815250611a42565b336002600160a01b03146112b657604051637eb3357160e01b8152336004820152602401610bd6565b5f5f80516020615f3583398151915290505f80611305838888808060200260200160405190810160405280939291908181526020018383602002808284375f9201919091525061354d92505050565b9150915061131583888885613751565b5f611321846003612e97565b8051909150611330908861322c565b61133c83828888611640565b60408051608060208a028083018201909352606082018a81527fbf3c9880f19d9a18f0a68d90c53eb83ada076643d445cac5aa0b8304699524899383928d918d918291908601908490808284375f920191909152505050908252506020016113a5436001615a89565b6001600160401b031681526020018463ffffffff168152506040516113ca91906150f8565b60405180910390a15050505050505050565b6113e46139c3565b6113ed82613a67565b610a558282613a6f565b5f611400613b2b565b505f80516020615ef583398151915290565b5f61141b6128e0565b54600160b81b900460ff16919050565b5f61098f82612833565b5f5f80516020615ed58339815191526001600160a01b03831661146d576040516322718ad960e21b81525f6004820152602401610bd6565b6001600160a01b039092165f908152600390920160205250604090205490565b61149561343e565b6111675f613b74565b5f61098f6114aa6128e0565b836001600160a01b03165f9081526002919091016020526040902054630100000090046001600160e81b031690565b61150660405180608001604052805f81526020015f81526020015f81526020015f63ffffffff1681525090565b611511610721611412565b905090565b61151e61343e565b611167613be4565b600f60f81b6060805f80808361157b60408051808201825260148152732a32b631b7b4b71029ba30b5b2a6b0b730b3b2b960611b602080830191909152825180840190935260018352603160f81b9083015291565b97989097965046955030945091925090565b61159561343e565b5f61159e6128e0565b90505f6115ab8284612943565b9050610d6b825f80516020615f358339815191528386613c2c565b60605f8260068111156115db576115db615451565b036115fb5781604051633ba7bf8960e11b8152600401610bd69190615a9c565b61098f5f80516020615f3583398151915283612e97565b7f9016d09d72d40fdae2fd8ceac6b6234c7706214fd39c1cd1e609a0528c199300546001600160a01b031690565b336002600160a01b031461166957604051637eb3357160e01b8152336004820152602401610bd6565b5f6116726128e0565b90505f61167d611412565b90505f61168982611804565b90505f805f61169b868a8c8888613cd7565b604087015192955090935091505f5b84518110156117ad575f836d04ee2d6d415b85acef81000000008684815181106116d6576116d6615a24565b60200260200101516116e89190615aaa565b6116f29190615ad5565b90505f6d04ee2d6d415b85acef810000000061170e8386615aaa565b6117189190615ad5565b9050808a6002015f89868151811061173257611732615a24565b60200260200101516001600160a01b03166001600160a01b031681526020019081526020015f205f0160038282829054906101000a90046001600160e81b031661177c9190615ae8565b92506101000a8154816001600160e81b0302191690836001600160e81b0316021790555050508060010190506116aa565b505050505050505050505050565b7f80bb2b638cc20bc4d0a60d66940f3ab4a00c1d7b313497ca82fb0b4ab007930180546060915f80516020615ed5833981519152916109b49061595d565b610a55338383613faa565b61183160405180608001604052805f81526020015f81526020015f81526020015f63ffffffff1681525090565b5f61183a6128e0565b60ff9093165f9081526001938401602090815260409182902082516080810184528154815295810154918601919091526002810154918501919091526003015463ffffffff1660608401525090919050565b611894614dd6565b61189d82614059565b6118bd5760405163ed15e6cf60e01b815260048101839052602401610bd6565b62ffffff82165f9081527faf33537d204b7c8488a91ad2a40f2c043712bad394401b7dd7bd4cb801f231116020526040908190208151610100810190925280545f80516020615f358339815191529291908290829061191b9061595d565b80601f01602080910402602001604051908101604052809291908181526020018280546119479061595d565b80156119925780601f1061196957610100808354040283529160200191611992565b820191905f5260205f20905b81548152906001019060200180831161197557829003601f168201915b505050918352505060018201546001600160a01b038116602083015263ffffffff600160a01b820481166040840152600160c01b820416606083015260809091019060ff600160e01b9091041660068111156119f0576119f0615451565b6006811115611a0157611a01615451565b81526001919091015460ff600160e81b8204811615156020840152600160f01b8204811615156040840152600160f81b909104166060909101529392505050565b611a4d848484610e66565b610fe633858585856140a6565b604080516060808201835281525f60208201819052918101919091525f80516020615f358339815191528054611aa590829063ffffffff8116908190600160201b900460ff166133e4565b60408051825460806020820283018101909352606082018181529193928492918491840182828015611afe57602002820191905f5260205f20905b81546001600160a01b03168152600190910190602001808311611ae0575b5050509183525050600191909101546001600160401b0381166020830152600160401b900463ffffffff1660409091015292915050565b5f611b3e61343e565b611b466128b0565b5f611b4f6128e0565b80549091505f908290601790611b6e90600160b81b900460ff16615b07565b825460ff8083166101009490940a848102910219909116179092555f90815260018401602052604090209091508490611ba78282615b1c565b5090925050505b919050565b6060611bbe82612833565b505f611bd460408051602081019091525f815290565b90505f815111611bf25760405180602001604052805f815250611c1d565b80611bfc846141cc565b604051602001611c0d929190615b5f565b6040516020818303038152906040525b9392505050565b5f611c2e82614059565b15611c4f5760405163ed15e6cf60e01b815260048101839052602401610bd6565b5062ffffff165f9081527faf33537d204b7c8488a91ad2a40f2c043712bad394401b7dd7bd4cb801f231116020526040902060010154600160e81b900460ff1690565b5f611ca4611c9e6128e0565b83612943565b62ffffff1692915050565b5f80611cb96128e0565b90505f611cc68286612943565b6001600160a01b0386165f9081526003840160209081526040808320600101548a518b840120845488549351969750600160c01b9092046001600160401b031695909493611d279386928c928a92600160b81b900460ff16918a91016159e2565b604051602081830303815290604052805190602001209050611d4881612a34565b9998505050505050505050565b6001600160a01b039182165f9081527f80bb2b638cc20bc4d0a60d66940f3ab4a00c1d7b313497ca82fb0b4ab00793056020908152604080832093909416825291909152205460ff1690565b7ff0c57e16840df040f15088dc2f81fe391c3923bec73e23a9662efc9c229c6a008054600160401b810460ff1615906001600160401b03165f81158015611de55750825b90505f826001600160401b03166001148015611e005750303b155b905081158015611e0e575080155b15611e2c5760405163f92ee8a960e01b815260040160405180910390fd5b845467ffffffffffffffff191660011785558315611e5657845460ff60401b1916600160401b1785555b86511580611e675750865162ffffff105b15611e8557604051637aa1b2ad60e01b815260040160405180910390fd5b611e8e8661425c565b611e9661426d565b5f611e9f6128e0565b80546001600160a01b0319166001600160a01b038c161781555f8080526001808301602090815260408084208e518155918e015192820192909255908c0151600282015560608c01516003909101805463ffffffff191663ffffffff9092169190911790559091505f80516020615f358339815191526040805161014081018252600161010082018181526001600160f81b0319610120840152825260ff6020808401829052838501829052606084018290526006608085015260a0840183905260c084019290925260e08301525f8080526011850190915291909120815192935090918190611f8f9082615bd1565b5060208201516001820180546040850151606086015163ffffffff908116600160c01b0263ffffffff60c01b1991909216600160a01b026001600160c01b03199093166001600160a01b0390951694909417919091179283168117825560808501519260ff60e01b1990911664ffffffffff60c01b1990911617600160e01b83600681111561202057612020615451565b021790555060a08201516001909101805460c084015160e09094015160ff16600160f81b026001600160f81b03941515600160f01b0260ff60f01b19941515600160e81b029490941661ffff60e81b199092169190911792909217929092161790555f5b8951811015612656575f8a82815181106120a0576120a0615a24565b60200260200101519050805f0151516060146120cf576040516333a234f960e11b815260040160405180910390fd5b60208101516001600160a01b03166120fa5760405163713ce51160e01b815260040160405180910390fd5b604081015163ffffffff1615612131576040808201519051634fadd4d360e11b815263ffffffff9091166004820152602401610bd6565b606081015163ffffffff1615612168576060810151604051634fadd4d360e11b815263ffffffff9091166004820152602401610bd6565b60038160800151600681111561218057612180615451565b146121a4578060800151604051633ba7bf8960e11b8152600401610bd69190615a9c565b60a0810151156121ca576005604051633ba7bf8960e11b8152600401610bd69190615a9c565b5f6121d6836001615a89565b60c08301519091501515600103612307576040518060a00160405280835f01518051906020012081526020018c6001600160a01b031681526020018262ffffff1681526020015f60ff16815260200160016001600160401b0316815250856003015f84602001516001600160a01b03166001600160a01b031681526020019081526020015f205f820151815f01556020820151816001015f6101000a8154816001600160a01b0302191690836001600160a01b0316021790555060408201518160010160146101000a81548162ffffff021916908362ffffff16021790555060608201518160010160176101000a81548160ff021916908360ff16021790555060808201518160010160186101000a8154816001600160401b0302191690836001600160401b031602179055509050505b60e082015160ff16156123385760e082015160405163222d164360e21b815260ff9091166004820152602401610bd6565b5f5b60028111612435575f85600101826004811061235857612358615a24565b600202019050805f018460200151908060018154018082558091505060019003905f5260205f20015f9091909190916101000a8154816001600160a01b0302191690836001600160a01b031602179055508e606001518160010160086101000a81548163ffffffff021916908363ffffffff1602179055508560090182600481106123e5576123e5615a24565b6020868101516002929092029290920180546001810182555f91825292902090910180546001600160a01b0319166001600160a01b039092169190911790555061242e81615c8b565b905061233a565b5062ffffff81165f90815260118501602052604090208251839190819061245c9082615bd1565b5060208201516001820180546040850151606086015163ffffffff908116600160c01b0263ffffffff60c01b1991909216600160a01b026001600160c01b03199093166001600160a01b0390951694909417919091179283168117825560808501519260ff60e01b1990911664ffffffffff60c01b1990911617600160e01b8360068111156124ed576124ed615451565b021790555060a08201516001909101805460c084015160e09094015160ff16600160f81b026001600160f81b03941515600160f01b0260ff60f01b19941515600160e81b029490941661ffff60e81b199092169190911792909217929092161790556020808301516001600160a01b03165f9081526002870190915260409020805462ffffff80841662ffffff19909216919091179091558554600160a01b90041685601461259b83615a70565b91906101000a81548162ffffff021916908362ffffff160217905550506126026040518060400160405280600c81526020016b10dbdb9cd95b9cdd5cd3919560a21b8152506040518060400160405280600481526020016310d3919560e21b81525061427d565b61261582602001518262ffffff166134ec565b7f31845bad1fcdd92490e8d85605449863a562ea940e37b380a276e440683fdb728260405161264491906157a4565b60405180910390a15050600101612084565b505050831561269f57845460ff60401b19168555604051600181527fc7f505b2f371ae2175ee4913f4499e1f2633a7b5936321eed1cdaeb6115181d29060200160405180910390a15b505050505050505050565b6126b26128b0565b5f6126bb6128e0565b90505f6126c88284612943565b905082336001600160a01b038216146126e9576126e68385336132b8565b90505b5f80516020615f35833981519152612703818460056129cd565b62ffffff83165f90815260118201602052604090206127218161428f565b5f61274487858762ffffff1685600101601f9054906101000a900460ff166142d5565b604080516001600160a01b0387168152602081018390529192507ffc30cddea38e2bf4d6ea7d3f9ed3b6ad7f176419f4963bd81318067a4aee73fe910160405180910390a150505050505050565b61279a61343e565b6001600160a01b0381166127c357604051631e4fbdf760e01b81525f6004820152602401610bd6565b6127cc81613b74565b50565b604080518082019091525f80825260208201526127ea6128e0565b6001600160a01b03929092165f9081526002909201602090815260409283902083518085019094525462ffffff81168452630100000090046001600160e81b0316908301525090565b5f8061283e836143dc565b90506001600160a01b03811661098f57604051637e27328960e01b815260048101849052602401610bd6565b5f9081527f80bb2b638cc20bc4d0a60d66940f3ab4a00c1d7b313497ca82fb0b4ab007930460205260409020546001600160a01b031690565b610d6b8383836001614415565b5f80516020615f158339815191525460ff16156111675760405163d93c066560e01b815260040160405180910390fd5b7f0636e6890fec58b60f710b53efa0ef8de81ca2fddce7e46303a60c9d416c740090565b61290c6128e0565b60ff82165f90815260019190910160205260409020548214610a555760405163222d164360e21b8152346004820152602401610bd6565b5f8061294f84846134c9565b905061295f8162ffffff16614059565b6129835760405163ed15e6cf60e01b815262ffffff82166004820152602401610bd6565b826001600160a01b031661299b8262ffffff1661142b565b6001600160a01b031614611c1d57604051633b4f6e2b60e21b81526001600160a01b0384166004820152602401610bd6565b62ffffff82165f908152601184016020526040902060010154600160e01b900460ff16816006811115612a0257612a02615451565b816006811115612a1457612a14615451565b14610fe65780604051633ba7bf8960e11b8152600401610bd69190615a9c565b7f00000000000000000000000000000000000000000000000000000000000000007f000000000000000000000000000000000000000000000000000000000000000030147f0000000000000000000000000000000000000000000000000000000000000000461416612b275750604080517f8b73c3c69bb8fe3d512ecc4cf759cc79239f7b179b0ffacaa9a75d522b39400f81527f000000000000000000000000000000000000000000000000000000000000000060208201527f00000000000000000000000000000000000000000000000000000000000000009181019190915246606082015230608082015260a090205b6719010000000000005f5280601a5281603a52604260182090505f603a52919050565b6001600160a01b03909316925f8415612c3457604051845f5260408303612bb15760208481013560ff81901c601b01825285356040526001600160ff1b0316606052600160805f825afa805187183d1517612baf57505f606052604052506001612c34565b505b60418303612bf15760408401355f1a6020526040846040376020600160805f60015afa805187183d1517612bef57505f606052604052506001612c34565b505b5f60605280604052631626ba7e60e01b80825285600483015260248201604081528460448401528486606485013760208160648701858b5afa9051909114169150505b949350505050565b604080516101206020601f8901819004028201810190925261010081018781525f80516020615f35833981519152925f929182918b908b90819085018382808284375f9201829052509385525050506001600160a01b038916602083015263ffffffff60408301526060820152608001600181525f602080830182905288151560408085019190915260ff891660609094019390935262ffffff8716825260118601905220815191925082918190612cf49082615bd1565b5060208201516001820180546040850151606086015163ffffffff908116600160c01b0263ffffffff60c01b1991909216600160a01b026001600160c01b03199093166001600160a01b0390951694909417919091179283168117825560808501519260ff60e01b1990911664ffffffffff60c01b1990911617600160e01b836006811115612d8557612d85615451565b021790555060a08201516001909101805460c084015160e09094015160ff16600160f81b026001600160f81b03941515600160f01b0260ff60f01b19941515600160e81b029490941661ffff60e81b199092169190911792909217929092161790556040517f7d89246e6daeb7529685fda2e1f478d9a155eea08675ebecd1bf8c0e572382fd906113ca9083906157a4565b612e22816001615a38565b60018301805463ffffffff92909216600160a01b0260ff60e01b191668ff00000000ffffffff60a01b1990921691909117600160e11b1790556040517fbdacb030997c2fe9d7ee41c51f5a150138c75b326c7a66f88ced12925f80bc0590612e8b908490615d22565b60405180910390a15050565b60605f612ea26128e0565b54600160a01b900462ffffff166001600160401b03811115612ec657612ec6615250565b604051908082528060200260200182016040528015612eff57816020015b612eec614dd6565b815260200190600190039081612ee45790505b5090505f60015b82518162ffffff16116131835762ffffff81165f90815260118701602052604090206001810154600160e81b900460ff1615612f425750613173565b5f6006876006811115612f5757612f57615451565b14905080613005576001820154600160e01b900460ff166003886006811115612f8257612f82615451565b03612fdb576003816006811115612f9b57612f9b615451565b1480612fb857506004816006811115612fb657612fb6615451565b145b80612fd457506002816006811115612fd257612fd2615451565b145b9150613003565b876006811115612fed57612fed615451565b816006811115612fff57612fff615451565b1491505b505b80156131705781604051806101000160405290815f820180546130279061595d565b80601f01602080910402602001604051908101604052809291908181526020018280546130539061595d565b801561309e5780601f106130755761010080835404028352916020019161309e565b820191905f5260205f20905b81548152906001019060200180831161308157829003601f168201915b505050918352505060018201546001600160a01b038116602083015263ffffffff600160a01b820481166040840152600160c01b820416606083015260809091019060ff600160e01b9091041660068111156130fc576130fc615451565b600681111561310d5761310d615451565b81526001919091015460ff600160e81b8204811615156020840152600160f01b8204811615156040840152600160f81b90910416606090910152858561315281615c8b565b96508151811061316457613164615a24565b60200260200101819052505b50505b61317c81615a70565b9050612f06565b505f816001600160401b0381111561319d5761319d615250565b6040519080825280602002602001820160405280156131d657816020015b6131c3614dd6565b8152602001906001900390816131bb5790505b5090505f5b82811015613222578381815181106131f5576131f5615a24565b602002602001015182828151811061320f5761320f615a24565b60209081029190910101526001016131db565b5095945050505050565b81158061323857508181115b15610a5557604051635700689f60e11b81526004810183905260248101829052604401610bd6565b60018101805464ffffffffff60c01b19166404ffffffff60c01b1790556040517f537bf236138f80ea8801a391fffc8a42bf0be3b6ea9d336ca2e2164a4c91071c906132ad908390615d22565b60405180910390a150565b6001600160a01b038083165f90815260038501602052604081206001015490919081169083168114612c3457604051639a494e0560e01b81526001600160a01b0384166004820152602401610bd6565b5f613314858584614528565b6001600160a01b038581165f90815260028801602052604090819020805462ffffff16905587549051634875485760e11b815286831660048201526024810184905292935016906390ea90ae906044015f604051808303815f87803b15801561337b575f80fd5b505af115801561338d573d5f803e3d5ffd5b50505050949350505050565b5f806004836133a88688615a54565b6133b29190615dbc565b6133bc9190615dd5565b9050856009018160ff16600481106133d6576133d6615a24565b600202019695505050505050565b5f80846133f2856004615a38565b6133fc9190615a54565b90505f600461340b8386615dbc565b6134159190615dd5565b9050866001018160ff166004811061342f5761342f615a24565b60020201979650505050505050565b33613447611612565b6001600160a01b0316146111675760405163118cdaa760e01b8152336004820152602401610bd6565b613478614581565b5f80516020615f15833981519152805460ff191681557f5db9ee0a495bf2e6ff9c91a7834c1ba4fdd244a5e8aa4e537bd38aeae4b073aa335b6040516001600160a01b0390911681526020016132ad565b6001600160a01b03165f908152600291909101602052604090205462ffffff1690565b6001600160a01b03821661351557604051633250574960e11b81525f6004820152602401610bd6565b5f61352183835f6145b0565b90506001600160a01b03811615610d6b576040516339e3563760e11b81525f6004820152602401610bd6565b81545f908190600160201b900460ff1681600461356b836001615dbc565b6135759190615dd5565b90505f866009018260ff166004811061359057613590615a24565b6002020190505f61359f6114d9565b60600151905060405180606001604052808380548060200260200160405190810160405280929190818152602001828054801561360357602002820191905f5260205f20905b81546001600160a01b031681526001909101906020018083116135e5575b50505050508152602001436001600160401b031681526020018263ffffffff16815250886001018460ff166004811061363e5761363e615a24565b600202015f820151815f01908051906020019061365c929190614e19565b50602082015160019190910180546040909301516001600160401b039092166bffffffffffffffffffffffff1990931692909217600160401b63ffffffff9283160217909155885464ff00000000198116600160201b60ff8716029081178b555f928b9284926136d192918216911617615df6565b91906101000a81548163ffffffff021916908363ffffffff160217905590505f60048560026137009190615dbc565b61370a9190615dd5565b9050888a6009018260ff166004811061372557613725615a24565b600202015f01908051906020019061373e929190614e19565b50909650909450505050505b9250929050565b5f61375d856002612e97565b90505f5b81518110156137c4575f6137996137766128e0565b84848151811061378857613788615a24565b6020026020010151602001516134c9565b62ffffff81165f90815260118901602052604090209091506137ba816146b2565b5050600101613761565b505f6137d1866004612e97565b90505f5b81518110156139ba578654600160201b900460ff165f60046137f8836001615dbc565b6138029190615dd5565b90505f896001018360ff166004811061381d5761381d615a24565b6002020180546040805160208084028201810190925282815292919083018282801561387057602002820191905f5260205f20905b81546001600160a01b03168152600190910190602001808311613852575b505050505090505f8a6009018360ff166004811061389057613890615a24565b600202018054604080516020808402820181019092528281529291908301828280156138e357602002820191905f5260205f20905b81546001600160a01b031681526001909101906020018083116138c5575b505050505090505f8686815181106138fd576138fd615a24565b602002602001015160200151905061391581846146f7565b80613925575061392581836146f7565b806139675750613967818c8c808060200260200160405190810160405280939291908181526020018383602002808284375f920191909152506146f792505050565b156139765750505050506139b2565b5f6139886139826128e0565b836134c9565b62ffffff81165f90815260118f01602052604090209091506139aa818c614754565b505050505050505b6001016137d5565b50505050505050565b306001600160a01b037f0000000000000000000000000000000000000000000000000000000000000000161480613a4957507f00000000000000000000000000000000000000000000000000000000000000006001600160a01b0316613a3d5f80516020615ef5833981519152546001600160a01b031690565b6001600160a01b031614155b156111675760405163703e46dd60e11b815260040160405180910390fd5b6127cc61343e565b816001600160a01b03166352d1902d6040518163ffffffff1660e01b8152600401602060405180830381865afa925050508015613ac9575060408051601f3d908101601f19168201909252613ac691810190615e11565b60015b613af157604051634c9c8ce360e01b81526001600160a01b0383166004820152602401610bd6565b5f80516020615ef58339815191528114613b2157604051632a87526960e21b815260048101829052602401610bd6565b610d6b83836147ad565b306001600160a01b037f000000000000000000000000000000000000000000000000000000000000000016146111675760405163703e46dd60e11b815260040160405180910390fd5b7f9016d09d72d40fdae2fd8ceac6b6234c7706214fd39c1cd1e609a0528c19930080546001600160a01b031981166001600160a01b03848116918217845560405192169182907f8be0079c531659141344cd1fd0a4f28419497f9722a3daafe3b4186f6b6457e0905f90a3505050565b613bec6128b0565b5f80516020615f15833981519152805460ff191660011781557f62e78cea01bee320cd4e420270b5ea74000d11b0c9f74754ebdbfc544b05a258336134b1565b6001600160a01b0381165f9081526002850160205260408120805462ffffff191662ffffff179055613c5f846003612e97565b519050613c6d848383614802565b62ffffff83165f90815260118501602052604090208454613c9590829063ffffffff16614754565b613c9e8161428f565b5f613ca987856148c1565b9050613ccd84828762ffffff1685600101601f9054906101000a900460ff166142d5565b5050505050505050565b6060805f80845f015190505f8089516001600160401b03811115613cfd57613cfd615250565b604051908082528060200260200182016040528015613d26578160200160208202803683370190505b5090505f8a516001600160401b03811115613d4357613d43615250565b604051908082528060200260200182016040528015613d6c578160200160208202803683370190505b5090505f5b8b51811015613e53575f8c8281518110613d8d57613d8d615a24565b602002602001015190508b63ffffffff16816040015163ffffffff1603613db45750613e4b565b613dc28e82602001516148c1565b848681518110613dd457613dd4615a24565b60200260200101906001600160a01b031690816001600160a01b0316815250505f8b60ff168260e0015160ff1603613e0d575085613e1e565b613e1a8260e00151611804565b5190505b808487613e2a81615c8b565b985081518110613e3c57613e3c615a24565b60200260200101818152505050505b600101613d71565b505f80846001600160401b03811115613e6e57613e6e615250565b604051908082528060200260200182016040528015613e97578160200160208202803683370190505b5090505f856001600160401b03811115613eb357613eb3615250565b604051908082528060200260200182016040528015613edc578160200160208202803683370190505b5090505f5b86811015613f9457848181518110613efb57613efb615a24565b602002602001015184613f0e9190615a89565b9350848181518110613f2257613f22615a24565b6020026020010151828281518110613f3c57613f3c615a24565b602002602001018181525050858181518110613f5a57613f5a615a24565b6020026020010151838281518110613f7457613f74615a24565b6001600160a01b0390921660209283029190910190910152600101613ee1565b50909e909d50909b509950505050505050505050565b5f80516020615ed58339815191526001600160a01b038316613fea57604051630b61174360e31b81526001600160a01b0384166004820152602401610bd6565b6001600160a01b038481165f818152600584016020908152604080832094881680845294825291829020805460ff191687151590811790915591519182527f17307eab39ab6107e8899845ad3d59bd9653f200f220920489ca2b5937696c31910160405180910390a350505050565b5f81158061406a575062ffffff8210155b1561408b5760405163ed15e6cf60e01b815260048101839052602401610bd6565b5f614095836143dc565b6001600160a01b0316141592915050565b6001600160a01b0383163b156141c557604051630a85bd0160e11b81526001600160a01b0384169063150b7a02906140e8908890889087908790600401615e28565b6020604051808303815f875af1925050508015614122575060408051601f3d908101601f1916820190925261411f91810190615e5a565b60015b614189573d80801561414f576040519150601f19603f3d011682016040523d82523d5f602084013e614154565b606091505b5080515f0361418157604051633250574960e11b81526001600160a01b0385166004820152602401610bd6565b805181602001fd5b6001600160e01b03198116630a85bd0160e11b14610e5e57604051633250574960e11b81526001600160a01b0385166004820152602401610bd6565b5050505050565b60605f6141d8836148f3565b60010190505f816001600160401b038111156141f6576141f6615250565b6040519080825280601f01601f191660200182016040528015614220576020820181803683370190505b5090508181016020015b5f19016f181899199a1a9b1b9c1cb0b131b232b360811b600a86061a8153600a850494508461422a575b509392505050565b6142646149ca565b6127cc81614a13565b6142756149ca565b611167614a1b565b6142856149ca565b610a558282614a3b565b60018101805461ffff60e01b1916608360e11b1790556040517fb9e0e3d06d30a4b0476d42accfa2ee90a854c961cc7f10ddc965608a97b982b1906132ad908390615d22565b5f806142df6128e0565b6001600160a01b0387165f9081526002820160205260409020805462ffffff8083558354939450919263010000009091046001600160e81b031691600160a01b9091041683601461432f83615e75565b91906101000a81548162ffffff021916908362ffffff1602179055505061435586614a6b565b60ff85165f908152600184016020526040908190205484549151634875485760e11b81526001600160a01b038a8116600483015260248201859052919291909116906390ea90ae9083906044015f604051808303818588803b1580156143b9575f80fd5b505af11580156143cb573d5f803e3d5ffd5b50505050508181611d489190615a89565b5f9081527f80bb2b638cc20bc4d0a60d66940f3ab4a00c1d7b313497ca82fb0b4ab007930260205260409020546001600160a01b031690565b5f80516020615ed5833981519152818061443757506001600160a01b03831615155b156144f8575f61444685612833565b90506001600160a01b038416158015906144725750836001600160a01b0316816001600160a01b031614155b801561448557506144838185611d55565b155b156144ae5760405163a9fbf51f60e01b81526001600160a01b0385166004820152602401610bd6565b82156144f65784866001600160a01b0316826001600160a01b03167f8c5be1e5ebec7d5bd14f71427d1e84f3dd0314c0f7b2291e5b200ac8c7c3b92560405160405180910390a45b505b5f93845260040160205250506040902080546001600160a01b0319166001600160a01b0392909216919091179055565b5f614532836127cf565b602001516001600160e81b03169050836001015f8360ff1660ff1681526020019081526020015f2060010154811015611c1d57604051633737b70960e11b815260048101829052602401610bd6565b5f80516020615f158339815191525460ff1661116757604051638dfc202b60e01b815260040160405180910390fd5b5f5f80516020615ed5833981519152816145c9856143dc565b90506001600160a01b038416156145e5576145e5818587614aa3565b6001600160a01b03811615614621576146005f865f80614415565b6001600160a01b0381165f908152600383016020526040902080545f190190555b6001600160a01b03861615614651576001600160a01b0386165f9081526003830160205260409020805460010190555b5f85815260028301602052604080822080546001600160a01b0319166001600160a01b038a811691821790925591518893918516917fddf252ad1be2c89b69c2b068fc378daa952ba7f163c4a11628f55a4df523b3ef91a495945050505050565b60018101805460ff60e01b1916600360e01b1790556040517f31845bad1fcdd92490e8d85605449863a562ea940e37b380a276e440683fdb72906132ad908390615d22565b80515f90815b8181101561474a57846001600160a01b031684828151811061472157614721615a24565b60200260200101516001600160a01b0316036147425760019250505061098f565b6001016146fd565b505f949350505050565b60018201805463ffffffff8316600160c01b0264ffffffffff60c01b1990911617600560e01b1790556040517f69cb3a026a27d868ccc41f8a2a5e4b59396939b736cf54a110052c9983e8378d90612e8b908490615d22565b6147b682614b07565b6040516001600160a01b038316907fbc7cd75a20ee27fd9adebab32041f755214dbc6bffa90cc0225b39da2e5c2d3b905f90a28051156147fa57610d6b8282614b6a565b610a55614bdc565b825463ffffffff811690600160201b900460ff165f614823868480856133e4565b805490915061483f90859061483a90600190615e92565b61322c565b6148498186614bfb565b5f614855846001615a38565b90505f61486488838787613399565b805490915061487b90879061483a90600190615e92565b6148858188614bfb565b5f614891866002615a38565b90505f6148a08a838989613399565b80549091506148b790899061483a90600190615e92565b610d01818a614bfb565b6001600160a01b038082165f90815260038401602052604081206001810154919290911680612c345750919392505050565b5f8072184f03e93ff9f4daa797ed6e38ed64bf6a1f0160401b83106149315772184f03e93ff9f4daa797ed6e38ed64bf6a1f0160401b830492506040015b6d04ee2d6d415b85acef8100000000831061495d576d04ee2d6d415b85acef8100000000830492506020015b662386f26fc10000831061497b57662386f26fc10000830492506010015b6305f5e1008310614993576305f5e100830492506008015b61271083106149a757612710830492506004015b606483106149b9576064830492506002015b600a831061098f5760010192915050565b7ff0c57e16840df040f15088dc2f81fe391c3923bec73e23a9662efc9c229c6a0054600160401b900460ff1661116757604051631afcd79f60e31b815260040160405180910390fd5b61279a6149ca565b614a236149ca565b5f80516020615f15833981519152805460ff19169055565b614a436149ca565b5f80516020615ed583398151915280614a5c8482615bd1565b5060018101610fe68382615bd1565b5f614a775f835f6145b0565b90506001600160a01b038116610a5557604051637e27328960e01b815260048101839052602401610bd6565b614aae838383614ced565b610d6b576001600160a01b038316614adc57604051637e27328960e01b815260048101829052602401610bd6565b60405163177e802f60e01b81526001600160a01b038316600482015260248101829052604401610bd6565b806001600160a01b03163b5f03614b3c57604051634c9c8ce360e01b81526001600160a01b0382166004820152602401610bd6565b5f80516020615ef583398151915280546001600160a01b0319166001600160a01b0392909216919091179055565b60605f80846001600160a01b031684604051614b869190615ea5565b5f60405180830381855af49150503d805f8114614bbe576040519150601f19603f3d011682016040523d82523d5f602084013e614bc3565b606091505b5091509150614bd3858383614d51565b95945050505050565b34156111675760405163b398979f60e01b815260040160405180910390fd5b81545f5b81811015610fe657826001600160a01b0316848281548110614c2357614c23615a24565b5f918252602090912001546001600160a01b031603614ce55783614c48600184615e92565b81548110614c5857614c58615a24565b905f5260205f20015f9054906101000a90046001600160a01b0316848281548110614c8557614c85615a24565b905f5260205f20015f6101000a8154816001600160a01b0302191690836001600160a01b0316021790555083805480614cc057614cc0615ec0565b5f8281526020902081015f1990810180546001600160a01b0319169055019055610fe6565b600101614bff565b5f6001600160a01b03831615801590612c345750826001600160a01b0316846001600160a01b03161480614d265750614d268484611d55565b80612c345750826001600160a01b0316614d3f8361286a565b6001600160a01b031614949350505050565b606082614d6657614d6182614dad565b611c1d565b8151158015614d7d57506001600160a01b0384163b155b15614da657604051639996b31560e01b81526001600160a01b0385166004820152602401610bd6565b5080611c1d565b805115614dbd5780518082602001fd5b60405163d6bda27560e01b815260040160405180910390fd5b604080516101008101825260608082525f60208301819052928201839052810182905290608082019081525f602082018190526040820181905260609091015290565b828054828255905f5260205f20908101928215614e6c579160200282015b82811115614e6c57825182546001600160a01b0319166001600160a01b03909116178255602090920191600190910190614e37565b50614e78929150614e7c565b5090565b5b80821115614e78575f8155600101614e7d565b6001600160e01b0319811681146127cc575f80fd5b5f60208284031215614eb5575f80fd5b8135611c1d81614e90565b5f5b83811015614eda578181015183820152602001614ec2565b50505f910152565b5f8151808452614ef9816020860160208601614ec0565b601f01601f19169290920160200192915050565b602081525f611c1d6020830184614ee2565b5f60208284031215614f2f575f80fd5b5035919050565b80356001600160a01b0381168114611bae575f80fd5b5f8060408385031215614f5d575f80fd5b614f6683614f36565b946020939093013593505050565b5f8083601f840112614f84575f80fd5b5081356001600160401b03811115614f9a575f80fd5b60208301915083602082850101111561374a575f80fd5b5f805f805f60608688031215614fc5575f80fd5b85356001600160401b03811115614fda575f80fd5b614fe688828901614f74565b9096509450614ff9905060208701614f36565b925060408601356001600160401b03811115615013575f80fd5b61501f88828901614f74565b969995985093965092949392505050565b5f805f60608486031215615042575f80fd5b61504b84614f36565b925061505960208501614f36565b929592945050506040919091013590565b5f6020828403121561507a575f80fd5b611c1d82614f36565b5f8060208385031215615094575f80fd5b82356001600160401b038111156150a9575f80fd5b6150b585828601614f74565b90969095509350505050565b63ffffffff811681146127cc575f80fd5b8035611bae816150c1565b5f602082840312156150ed575f80fd5b8135611c1d816150c1565b602080825282516060838301528051608084018190525f929190910190829060a08501905b808310156151485783516001600160a01b03168252602093840193600193909301929091019061511d565b506001600160401b03602087015116604086015263ffffffff604087015116606086015280935050505092915050565b5f8083601f840112615188575f80fd5b5081356001600160401b0381111561519e575f80fd5b6020830191508360208260061b850101111561374a575f80fd5b5f805f80604085870312156151cb575f80fd5b84356001600160401b038111156151e0575f80fd5b8501601f810187136151f0575f80fd5b80356001600160401b03811115615205575f80fd5b8760208260051b8401011115615219575f80fd5b6020918201955093508501356001600160401b03811115615238575f80fd5b61524487828801615178565b95989497509550505050565b634e487b7160e01b5f52604160045260245ffd5b60405161010081016001600160401b038111828210171561528757615287615250565b60405290565b604051608081016001600160401b038111828210171561528757615287615250565b604051601f8201601f191681016001600160401b03811182821017156152d7576152d7615250565b604052919050565b5f82601f8301126152ee575f80fd5b81356001600160401b0381111561530757615307615250565b61531a601f8201601f19166020016152af565b81815284602083860101111561532e575f80fd5b816020850160208301375f918101602001919091529392505050565b5f806040838503121561535b575f80fd5b61536483614f36565b915060208301356001600160401b0381111561537e575f80fd5b61538a858286016152df565b9150509250929050565b60ff60f81b8816815260e060208201525f6153b260e0830189614ee2565b82810360408401526153c48189614ee2565b606084018890526001600160a01b038716608085015260a0840186905283810360c0850152845180825260208087019350909101905f5b818110156154195783518352602093840193909201916001016153fb565b50909b9a5050505050505050505050565b803560078110611bae575f80fd5b5f60208284031215615448575f80fd5b611c1d8261542a565b634e487b7160e01b5f52602160045260245ffd5b6007811061548157634e487b7160e01b5f52602160045260245ffd5b9052565b5f8151610100845261549b610100850182614ee2565b905060018060a01b03602084015116602085015263ffffffff604084015116604085015260608301516154d6606086018263ffffffff169052565b5060808301516154e96080860182615465565b5060a08301516154fd60a086018215159052565b5060c083015161551160c086018215159052565b5060e083015161425460e086018260ff169052565b5f602082016020835280845180835260408501915060408160051b8601019250602086015f5b8281101561557d57603f19878603018452615568858351615485565b9450602093840193919091019060010161554c565b50929695505050505050565b80358015158114611bae575f80fd5b803560ff81168114611bae575f80fd5b5f82601f8301126155b7575f80fd5b81356001600160401b038111156155d0576155d0615250565b8060051b6155e0602082016152af565b918252602081850181019290810190868411156155fb575f80fd5b6020860192505b838310156156f15782356001600160401b0381111561561f575f80fd5b8601610100818903601f19011215615635575f80fd5b61563d615264565b60208201356001600160401b03811115615655575f80fd5b6156648a6020838601016152df565b82525061567360408301614f36565b6020820152615684606083016150d2565b6040820152615695608083016150d2565b60608201526156a660a0830161542a565b60808201526156b760c08301615589565b60a08201526156c860e08301615589565b60c08201526156da6101008301615598565b60e082015283525060209283019290910190615602565b9695505050505050565b5f805f806060858703121561570e575f80fd5b8435615719816150c1565b935060208501356001600160401b03811115615733575f80fd5b61573f878288016155a8565b93505060408501356001600160401b03811115615238575f80fd5b5f806040838503121561576b575f80fd5b61577483614f36565b915061578260208401615589565b90509250929050565b5f6020828403121561579b575f80fd5b611c1d82615598565b602081525f611c1d6020830184615485565b5f805f80608085870312156157c9575f80fd5b6157d285614f36565b93506157e060208601614f36565b92506040850135915060608501356001600160401b03811115615801575f80fd5b61580d878288016152df565b91505092959194509250565b5f608082840312801561582a575f80fd5b509092915050565b5f805f60608486031215615844575f80fd5b83356001600160401b03811115615859575f80fd5b615865868287016152df565b93505061587460208501614f36565b915061588260408501614f36565b90509250925092565b5f806040838503121561589c575f80fd5b6158a583614f36565b915061578260208401614f36565b5f805f8084860360e08112156158c7575f80fd5b6158d086614f36565b94506080601f19820112156158e3575f80fd5b506158ec61528d565b6020868101358252604080880135918301919091526060870135908201526080860135615918816150c1565b6060820152925060a08501356001600160401b03811115615937575f80fd5b615943878288016155a8565b92505061595260c08601614f36565b905092959194509250565b600181811c9082168061597157607f821691505b60208210810361598f57634e487b7160e01b5f52602260045260245ffd5b50919050565b634e487b7160e01b5f52601160045260245ffd5b5f6001600160401b0382166001600160401b0381036159ca576159ca615995565b60010192915050565b818382375f9101908152919050565b95865260208601949094526001600160a01b0392909216604085015262ffffff16606084015260ff1660808301526001600160401b031660a082015260c00190565b634e487b7160e01b5f52603260045260245ffd5b63ffffffff818116838216019081111561098f5761098f615995565b63ffffffff828116828216039081111561098f5761098f615995565b5f62ffffff821662ffffff81036159ca576159ca615995565b8082018082111561098f5761098f615995565b6020810161098f8284615465565b808202811582820484141761098f5761098f615995565b634e487b7160e01b5f52601260045260245ffd5b5f82615ae357615ae3615ac1565b500490565b6001600160e81b03818116838216019081111561098f5761098f615995565b5f60ff821660ff81036159ca576159ca615995565b813581556020820135600182015560408201356002820155600381016060830135615b46816150c1565b815463ffffffff191663ffffffff919091161790555050565b5f8351615b70818460208801614ec0565b835190830190615b84818360208801614ec0565b01949350505050565b601f821115610d6b57805f5260205f20601f840160051c81016020851015615bb25750805b601f840160051c820191505b818110156141c5575f8155600101615bbe565b81516001600160401b03811115615bea57615bea615250565b615bfe81615bf8845461595d565b84615b8d565b6020601f821160018114615c30575f8315615c195750848201515b5f19600385901b1c1916600184901b1784556141c5565b5f84815260208120601f198516915b82811015615c5f5787850151825560209485019460019092019101615c3f565b5084821015615c7c57868401515f19600387901b60f8161c191681555b50505050600190811b01905550565b5f60018201615c9c57615c9c615995565b5060010190565b5f8154615caf8161595d565b808552600182168015615cc95760018114615ce557615d19565b60ff1983166020870152602082151560051b8701019350615d19565b845f5260205f205f5b83811015615d105781546020828a010152600182019150602081019050615cee565b87016020019450505b50505092915050565b6020815261010060208201525f615d3d610120830184615ca3565b60018401546001600160a01b038116604085015260a081901c63ffffffff16606085015260c081901c63ffffffff166080850152615d8460a0850160ff8360e01c16615465565b615d9860c0850160ff8360e81c1615159052565b615dac60e0850160ff8360f01c1615159052565b60f881901c610100850152614254565b60ff818116838216019081111561098f5761098f615995565b5f60ff831680615de757615de7615ac1565b8060ff84160691505092915050565b5f63ffffffff821663ffffffff81036159ca576159ca615995565b5f60208284031215615e21575f80fd5b5051919050565b6001600160a01b03858116825284166020820152604081018390526080606082018190525f906156f190830184614ee2565b5f60208284031215615e6a575f80fd5b8151611c1d81614e90565b5f62ffffff821680615e8957615e89615995565b5f190192915050565b8181038181111561098f5761098f615995565b5f8251615eb6818460208701614ec0565b9190910192915050565b634e487b7160e01b5f52603160045260245ffdfe80bb2b638cc20bc4d0a60d66940f3ab4a00c1d7b313497ca82fb0b4ab0079300360894a13ba1a3210667c828492db98dca3e2076cc3735a920a3ca505d382bbccd5ed15c6e187e77e9aee88184c21f4f2182ab5827cb3b7e07fbedcd63f03300af33537d204b7c8488a91ad2a40f2c043712bad394401b7dd7bd4cb801f23100a164736f6c634300081a000a",
    "linkReferences": {}
  },
  "methodIdentifiers": {
    "SYSTEM_ADDRESS()": "3434735f",
    "UPGRADE_INTERFACE_VERSION()": "ad3cb1cc",
    "activate()": "0f15f4c0",
    "applyIncentives(uint32,(bytes,address,uint32,uint32,uint8,bool,bool,uint8)[],(uint24,uint232)[])": "8f2f6e2f",
    "approve(address,uint256)": "095ea7b3",
    "balanceOf(address)": "70a08231",
    "beginExit()": "2228dfa0",
    "burn(address)": "89afcb44",
    "claimStakeRewards(address)": "2b9f4985",
    "concludeEpoch(address[],(uint24,uint232)[])": "486c6c8f",
    "delegateStake(bytes,address,bytes)": "0cc1026b",
    "delegationDigest(bytes,address,address)": "e3716d04",
    "eip712Domain()": "84b0196e",
    "getApproved(uint256)": "081812fc",
    "getCurrentEpoch()": "b97dd9e2",
    "getCurrentEpochInfo()": "babc394f",
    "getCurrentStakeConfig()": "7d06fdf8",
    "getEpochInfo(uint32)": "374ed18c",
    "getRewards(address)": "79ee54f7",
    "getValidatorByTokenId(uint256)": "aa680fe0",
    "getValidatorTokenId(address)": "e36e10ad",
    "getValidators(uint8)": "8cc05eda",
    "incentiveInfo(address)": "fc5ffc0a",
    "initialize(address,(uint256,uint256,uint256,uint32),(bytes,address,uint32,uint32,uint8,bool,bool,uint8)[],address)": "f1070c47",
    "isApprovedForAll(address,address)": "e985e9c5",
    "isRetired(uint256)": "cf6ebee7",
    "mint(address,uint256)": "40c10f19",
    "name()": "06fdde03",
    "owner()": "8da5cb5b",
    "ownerOf(uint256)": "6352211e",
    "pause()": "8456cb59",
    "paused()": "5c975abb",
    "proxiableUUID()": "52d1902d",
    "renounceOwnership()": "715018a6",
    "safeTransferFrom(address,address,uint256)": "42842e0e",
    "safeTransferFrom(address,address,uint256,bytes)": "b88d4fde",
    "setApprovalForAll(address,bool)": "a22cb465",
    "stake(bytes)": "2d1e0c02",
    "stakeConfig(uint8)": "a71954ec",
    "stakeVersion()": "568d312c",
    "supportsInterface(bytes4)": "01ffc9a7",
    "symbol()": "95d89b41",
    "tokenURI(uint256)": "c87b56dd",
    "totalSupply()": "18160ddd",
    "transferFrom(address,address,uint256)": "23b872dd",
    "transferOwnership(address)": "f2fde38b",
    "unpause()": "3f4ba83a",
    "unstake(address)": "f2888dbb",
    "upgradeStakeVersion((uint256,uint256,uint256,uint32))": "c05df7ac",
    "upgradeToAndCall(address,bytes)": "4f1ef286"
  },
  "id": 69
}