{"abi":[{"type":"constructor","inputs":[{"name":"genesisConfig_","type":"tuple","internalType":"struct IStakeManager.StakeConfig","components":[{"name":"stakeAmount","type":"uint232","internalType":"uint232"},{"name":"minWithdrawAmount","type":"uint232","internalType":"uint232"},{"name":"epochIssuance","type":"uint232","internalType":"uint232"},{"name":"epochDuration","type":"uint32","internalType":"uint32"}]},{"name":"initialValidators_","type":"tuple[]","internalType":"struct IConsensusRegistry.ValidatorInfo[]","components":[{"name":"blsPubkey","type":"bytes","internalType":"bytes"},{"name":"validatorAddress","type":"address","internalType":"address"},{"name":"activationEpoch","type":"uint32","internalType":"uint32"},{"name":"exitEpoch","type":"uint32","internalType":"uint32"},{"name":"currentStatus","type":"uint8","internalType":"enum IConsensusRegistry.ValidatorStatus"},{"name":"isRetired","type":"bool","internalType":"bool"},{"name":"isDelegated","type":"bool","internalType":"bool"},{"name":"stakeVersion","type":"uint8","internalType":"uint8"}]},{"name":"owner_","type":"address","internalType":"address"}],"stateMutability":"nonpayable"},{"type":"function","name":"SYSTEM_ADDRESS","inputs":[],"outputs":[{"name":"","type":"address","internalType":"address"}],"stateMutability":"view"},{"type":"function","name":"activate","inputs":[],"outputs":[],"stateMutability":"nonpayable"},{"type":"function","name":"allocateIssuance","inputs":[],"outputs":[],"stateMutability":"payable"},{"type":"function","name":"applyIncentives","inputs":[{"name":"rewardInfos","type":"tuple[]","internalType":"struct RewardInfo[]","components":[{"name":"validatorAddress","type":"address","internalType":"address"},{"name":"consensusHeaderCount","type":"uint232","internalType":"uint232"}]}],"outputs":[],"stateMutability":"nonpayable"},{"type":"function","name":"applySlashes","inputs":[{"name":"slashes","type":"tuple[]","internalType":"struct Slash[]","components":[{"name":"validatorAddress","type":"address","internalType":"address"},{"name":"amount","type":"uint232","internalType":"uint232"}]}],"outputs":[],"stateMutability":"nonpayable"},{"type":"function","name":"approve","inputs":[{"name":"","type":"address","internalType":"address"},{"name":"","type":"uint256","internalType":"uint256"}],"outputs":[],"stateMutability":"nonpayable"},{"type":"function","name":"balanceOf","inputs":[{"name":"owner","type":"address","internalType":"address"}],"outputs":[{"name":"","type":"uint256","internalType":"uint256"}],"stateMutability":"view"},{"type":"function","name":"beginExit","inputs":[],"outputs":[],"stateMutability":"nonpayable"},{"type":"function","name":"burn","inputs":[{"name":"validatorAddress","type":"address","internalType":"address"}],"outputs":[],"stateMutability":"nonpayable"},{"type":"function","name":"claimStakeRewards","inputs":[{"name":"validatorAddress","type":"address","internalType":"address"}],"outputs":[],"stateMutability":"nonpayable"},{"type":"function","name":"concludeEpoch","inputs":[{"name":"newCommittee","type":"address[]","internalType":"address[]"}],"outputs":[],"stateMutability":"nonpayable"},{"type":"function","name":"delegateStake","inputs":[{"name":"blsPubkey","type":"bytes","internalType":"bytes"},{"name":"validatorAddress","type":"address","internalType":"address"},{"name":"validatorSig","type":"bytes","internalType":"bytes"}],"outputs":[],"stateMutability":"payable"},{"type":"function","name":"delegationDigest","inputs":[{"name":"blsPubkey","type":"bytes","internalType":"bytes"},{"name":"validatorAddress","type":"address","internalType":"address"},{"name":"delegator","type":"address","internalType":"address"}],"outputs":[{"name":"","type":"bytes32","internalType":"bytes32"}],"stateMutability":"view"},{"type":"function","name":"eip712Domain","inputs":[],"outputs":[{"name":"fields","type":"bytes1","internalType":"bytes1"},{"name":"name","type":"string","internalType":"string"},{"name":"version","type":"string","internalType":"string"},{"name":"chainId","type":"uint256","internalType":"uint256"},{"name":"verifyingContract","type":"address","internalType":"address"},{"name":"salt","type":"bytes32","internalType":"bytes32"},{"name":"extensions","type":"uint256[]","internalType":"uint256[]"}],"stateMutability":"view"},{"type":"function","name":"getApproved","inputs":[{"name":"tokenId","type":"uint256","internalType":"uint256"}],"outputs":[{"name":"","type":"address","internalType":"address"}],"stateMutability":"view"},{"type":"function","name":"getCurrentEpoch","inputs":[],"outputs":[{"name":"","type":"uint32","internalType":"uint32"}],"stateMutability":"view"},{"type":"function","name":"getCurrentEpochInfo","inputs":[],"outputs":[{"name":"","type":"tuple","internalType":"struct IConsensusRegistry.EpochInfo","components":[{"name":"committee","type":"address[]","internalType":"address[]"},{"name":"blockHeight","type":"uint64","internalType":"uint64"},{"name":"epochDuration","type":"uint32","internalType":"uint32"}]}],"stateMutability":"view"},{"type":"function","name":"getCurrentStakeConfig","inputs":[],"outputs":[{"name":"","type":"tuple","internalType":"struct IStakeManager.StakeConfig","components":[{"name":"stakeAmount","type":"uint232","internalType":"uint232"},{"name":"minWithdrawAmount","type":"uint232","internalType":"uint232"},{"name":"epochIssuance","type":"uint232","internalType":"uint232"},{"name":"epochDuration","type":"uint32","internalType":"uint32"}]}],"stateMutability":"view"},{"type":"function","name":"getEpochInfo","inputs":[{"name":"epoch","type":"uint32","internalType":"uint32"}],"outputs":[{"name":"","type":"tuple","internalType":"struct IConsensusRegistry.EpochInfo","components":[{"name":"committee","type":"address[]","internalType":"address[]"},{"name":"blockHeight","type":"uint64","internalType":"uint64"},{"name":"epochDuration","type":"uint32","internalType":"uint32"}]}],"stateMutability":"view"},{"type":"function","name":"getRewards","inputs":[{"name":"validatorAddress","type":"address","internalType":"address"}],"outputs":[{"name":"","type":"uint232","internalType":"uint232"}],"stateMutability":"view"},{"type":"function","name":"getValidatorByTokenId","inputs":[{"name":"tokenId","type":"uint256","internalType":"uint256"}],"outputs":[{"name":"","type":"tuple","internalType":"struct IConsensusRegistry.ValidatorInfo","components":[{"name":"blsPubkey","type":"bytes","internalType":"bytes"},{"name":"validatorAddress","type":"address","internalType":"address"},{"name":"activationEpoch","type":"uint32","internalType":"uint32"},{"name":"exitEpoch","type":"uint32","internalType":"uint32"},{"name":"currentStatus","type":"uint8","internalType":"enum IConsensusRegistry.ValidatorStatus"},{"name":"isRetired","type":"bool","internalType":"bool"},{"name":"isDelegated","type":"bool","internalType":"bool"},{"name":"stakeVersion","type":"uint8","internalType":"uint8"}]}],"stateMutability":"view"},{"type":"function","name":"getValidatorTokenId","inputs":[{"name":"validatorAddress","type":"address","internalType":"address"}],"outputs":[{"name":"","type":"uint256","internalType":"uint256"}],"stateMutability":"view"},{"type":"function","name":"getValidators","inputs":[{"name":"status","type":"uint8","internalType":"enum IConsensusRegistry.ValidatorStatus"}],"outputs":[{"name":"","type":"tuple[]","internalType":"struct IConsensusRegistry.ValidatorInfo[]","components":[{"name":"blsPubkey","type":"bytes","internalType":"bytes"},{"name":"validatorAddress","type":"address","internalType":"address"},{"name":"activationEpoch","type":"uint32","internalType":"uint32"},{"name":"exitEpoch","type":"uint32","internalType":"uint32"},{"name":"currentStatus","type":"uint8","internalType":"enum IConsensusRegistry.ValidatorStatus"},{"name":"isRetired","type":"bool","internalType":"bool"},{"name":"isDelegated","type":"bool","internalType":"bool"},{"name":"stakeVersion","type":"uint8","internalType":"uint8"}]}],"stateMutability":"view"},{"type":"function","name":"isApprovedForAll","inputs":[{"name":"owner","type":"address","internalType":"address"},{"name":"operator","type":"address","internalType":"address"}],"outputs":[{"name":"","type":"bool","internalType":"bool"}],"stateMutability":"view"},{"type":"function","name":"isRetired","inputs":[{"name":"tokenId","type":"uint256","internalType":"uint256"}],"outputs":[{"name":"","type":"bool","internalType":"bool"}],"stateMutability":"view"},{"type":"function","name":"issuance","inputs":[],"outputs":[{"name":"","type":"address","internalType":"address"}],"stateMutability":"view"},{"type":"function","name":"mint","inputs":[{"name":"validatorAddress","type":"address","internalType":"address"},{"name":"tokenId","type":"uint256","internalType":"uint256"}],"outputs":[],"stateMutability":"nonpayable"},{"type":"function","name":"name","inputs":[],"outputs":[{"name":"","type":"string","internalType":"string"}],"stateMutability":"view"},{"type":"function","name":"owner","inputs":[],"outputs":[{"name":"","type":"address","internalType":"address"}],"stateMutability":"view"},{"type":"function","name":"ownerOf","inputs":[{"name":"tokenId","type":"uint256","internalType":"uint256"}],"outputs":[{"name":"","type":"address","internalType":"address"}],"stateMutability":"view"},{"type":"function","name":"pause","inputs":[],"outputs":[],"stateMutability":"nonpayable"},{"type":"function","name":"paused","inputs":[],"outputs":[{"name":"","type":"bool","internalType":"bool"}],"stateMutability":"view"},{"type":"function","name":"renounceOwnership","inputs":[],"outputs":[],"stateMutability":"nonpayable"},{"type":"function","name":"safeTransferFrom","inputs":[{"name":"from","type":"address","internalType":"address"},{"name":"to","type":"address","internalType":"address"},{"name":"tokenId","type":"uint256","internalType":"uint256"}],"outputs":[],"stateMutability":"nonpayable"},{"type":"function","name":"safeTransferFrom","inputs":[{"name":"from","type":"address","internalType":"address"},{"name":"to","type":"address","internalType":"address"},{"name":"tokenId","type":"uint256","internalType":"uint256"},{"name":"data","type":"bytes","internalType":"bytes"}],"outputs":[],"stateMutability":"nonpayable"},{"type":"function","name":"setApprovalForAll","inputs":[{"name":"operator","type":"address","internalType":"address"},{"name":"approved","type":"bool","internalType":"bool"}],"outputs":[],"stateMutability":"nonpayable"},{"type":"function","name":"stake","inputs":[{"name":"blsPubkey","type":"bytes","internalType":"bytes"}],"outputs":[],"stateMutability":"payable"},{"type":"function","name":"stakeConfig","inputs":[{"name":"version","type":"uint8","internalType":"uint8"}],"outputs":[{"name":"","type":"tuple","internalType":"struct IStakeManager.StakeConfig","components":[{"name":"stakeAmount","type":"uint232","internalType":"uint232"},{"name":"minWithdrawAmount","type":"uint232","internalType":"uint232"},{"name":"epochIssuance","type":"uint232","internalType":"uint232"},{"name":"epochDuration","type":"uint32","internalType":"uint32"}]}],"stateMutability":"view"},{"type":"function","name":"stakeInfo","inputs":[{"name":"validatorAddress","type":"address","internalType":"address"}],"outputs":[{"name":"","type":"tuple","internalType":"struct StakeInfo","components":[{"name":"tokenId","type":"uint24","internalType":"uint24"},{"name":"balance","type":"uint232","internalType":"uint232"}]}],"stateMutability":"view"},{"type":"function","name":"stakeVersion","inputs":[],"outputs":[{"name":"","type":"uint8","internalType":"uint8"}],"stateMutability":"view"},{"type":"function","name":"supportsInterface","inputs":[{"name":"interfaceId","type":"bytes4","internalType":"bytes4"}],"outputs":[{"name":"","type":"bool","internalType":"bool"}],"stateMutability":"view"},{"type":"function","name":"symbol","inputs":[],"outputs":[{"name":"","type":"string","internalType":"string"}],"stateMutability":"view"},{"type":"function","name":"tokenURI","inputs":[{"name":"tokenId","type":"uint256","internalType":"uint256"}],"outputs":[{"name":"","type":"string","internalType":"string"}],"stateMutability":"view"},{"type":"function","name":"totalSupply","inputs":[],"outputs":[{"name":"","type":"uint256","internalType":"uint256"}],"stateMutability":"view"},{"type":"function","name":"transferFrom","inputs":[{"name":"","type":"address","internalType":"address"},{"name":"","type":"address","internalType":"address"},{"name":"","type":"uint256","internalType":"uint256"}],"outputs":[],"stateMutability":"nonpayable"},{"type":"function","name":"transferOwnership","inputs":[{"name":"newOwner","type":"address","internalType":"address"}],"outputs":[],"stateMutability":"nonpayable"},{"type":"function","name":"unpause","inputs":[],"outputs":[],"stateMutability":"nonpayable"},{"type":"function","name":"unstake","inputs":[{"name":"validatorAddress","type":"address","internalType":"address"}],"outputs":[],"stateMutability":"nonpayable"},{"type":"function","name":"upgradeStakeVersion","inputs":[{"name":"newConfig","type":"tuple","internalType":"struct IStakeManager.StakeConfig","components":[{"name":"stakeAmount","type":"uint232","internalType":"uint232"},{"name":"minWithdrawAmount","type":"uint232","internalType":"uint232"},{"name":"epochIssuance","type":"uint232","internalType":"uint232"},{"name":"epochDuration","type":"uint32","internalType":"uint32"}]}],"outputs":[{"name":"","type":"uint8","internalType":"uint8"}],"stateMutability":"nonpayable"},{"type":"event","name":"Approval","inputs":[{"name":"owner","type":"address","indexed":true,"internalType":"address"},{"name":"approved","type":"address","indexed":true,"internalType":"address"},{"name":"tokenId","type":"uint256","indexed":true,"internalType":"uint256"}],"anonymous":false},{"type":"event","name":"ApprovalForAll","inputs":[{"name":"owner","type":"address","indexed":true,"internalType":"address"},{"name":"operator","type":"address","indexed":true,"internalType":"address"},{"name":"approved","type":"bool","indexed":false,"internalType":"bool"}],"anonymous":false},{"type":"event","name":"NewEpoch","inputs":[{"name":"epoch","type":"tuple","indexed":false,"internalType":"struct IConsensusRegistry.EpochInfo","components":[{"name":"committee","type":"address[]","internalType":"address[]"},{"name":"blockHeight","type":"uint64","internalType":"uint64"},{"name":"epochDuration","type":"uint32","internalType":"uint32"}]}],"anonymous":false},{"type":"event","name":"OwnershipTransferred","inputs":[{"name":"previousOwner","type":"address","indexed":true,"internalType":"address"},{"name":"newOwner","type":"address","indexed":true,"internalType":"address"}],"anonymous":false},{"type":"event","name":"Paused","inputs":[{"name":"account","type":"address","indexed":false,"internalType":"address"}],"anonymous":false},{"type":"event","name":"RewardsClaimed","inputs":[{"name":"claimant","type":"address","indexed":false,"internalType":"address"},{"name":"rewards","type":"uint256","indexed":false,"internalType":"uint256"}],"anonymous":false},{"type":"event","name":"Transfer","inputs":[{"name":"from","type":"address","indexed":true,"internalType":"address"},{"name":"to","type":"address","indexed":true,"internalType":"address"},{"name":"tokenId","type":"uint256","indexed":true,"internalType":"uint256"}],"anonymous":false},{"type":"event","name":"Unpaused","inputs":[{"name":"account","type":"address","indexed":false,"internalType":"address"}],"anonymous":false},{"type":"event","name":"ValidatorActivated","inputs":[{"name":"validator","type":"tuple","indexed":false,"internalType":"struct IConsensusRegistry.ValidatorInfo","components":[{"name":"blsPubkey","type":"bytes","internalType":"bytes"},{"name":"validatorAddress","type":"address","internalType":"address"},{"name":"activationEpoch","type":"uint32","internalType":"uint32"},{"name":"exitEpoch","type":"uint32","internalType":"uint32"},{"name":"currentStatus","type":"uint8","internalType":"enum IConsensusRegistry.ValidatorStatus"},{"name":"isRetired","type":"bool","internalType":"bool"},{"name":"isDelegated","type":"bool","internalType":"bool"},{"name":"stakeVersion","type":"uint8","internalType":"uint8"}]}],"anonymous":false},{"type":"event","name":"ValidatorExited","inputs":[{"name":"validator","type":"tuple","indexed":false,"internalType":"struct IConsensusRegistry.ValidatorInfo","components":[{"name":"blsPubkey","type":"bytes","internalType":"bytes"},{"name":"validatorAddress","type":"address","internalType":"address"},{"name":"activationEpoch","type":"uint32","internalType":"uint32"},{"name":"exitEpoch","type":"uint32","internalType":"uint32"},{"name":"currentStatus","type":"uint8","internalType":"enum IConsensusRegistry.ValidatorStatus"},{"name":"isRetired","type":"bool","internalType":"bool"},{"name":"isDelegated","type":"bool","internalType":"bool"},{"name":"stakeVersion","type":"uint8","internalType":"uint8"}]}],"anonymous":false},{"type":"event","name":"ValidatorPendingActivation","inputs":[{"name":"validator","type":"tuple","indexed":false,"internalType":"struct IConsensusRegistry.ValidatorInfo","components":[{"name":"blsPubkey","type":"bytes","internalType":"bytes"},{"name":"validatorAddress","type":"address","internalType":"address"},{"name":"activationEpoch","type":"uint32","internalType":"uint32"},{"name":"exitEpoch","type":"uint32","internalType":"uint32"},{"name":"currentStatus","type":"uint8","internalType":"enum IConsensusRegistry.ValidatorStatus"},{"name":"isRetired","type":"bool","internalType":"bool"},{"name":"isDelegated","type":"bool","internalType":"bool"},{"name":"stakeVersion","type":"uint8","internalType":"uint8"}]}],"anonymous":false},{"type":"event","name":"ValidatorPendingExit","inputs":[{"name":"validator","type":"tuple","indexed":false,"internalType":"struct IConsensusRegistry.ValidatorInfo","components":[{"name":"blsPubkey","type":"bytes","internalType":"bytes"},{"name":"validatorAddress","type":"address","internalType":"address"},{"name":"activationEpoch","type":"uint32","internalType":"uint32"},{"name":"exitEpoch","type":"uint32","internalType":"uint32"},{"name":"currentStatus","type":"uint8","internalType":"enum IConsensusRegistry.ValidatorStatus"},{"name":"isRetired","type":"bool","internalType":"bool"},{"name":"isDelegated","type":"bool","internalType":"bool"},{"name":"stakeVersion","type":"uint8","internalType":"uint8"}]}],"anonymous":false},{"type":"event","name":"ValidatorRetired","inputs":[{"name":"validator","type":"tuple","indexed":false,"internalType":"struct IConsensusRegistry.ValidatorInfo","components":[{"name":"blsPubkey","type":"bytes","internalType":"bytes"},{"name":"validatorAddress","type":"address","internalType":"address"},{"name":"activationEpoch","type":"uint32","internalType":"uint32"},{"name":"exitEpoch","type":"uint32","internalType":"uint32"},{"name":"currentStatus","type":"uint8","internalType":"enum IConsensusRegistry.ValidatorStatus"},{"name":"isRetired","type":"bool","internalType":"bool"},{"name":"isDelegated","type":"bool","internalType":"bool"},{"name":"stakeVersion","type":"uint8","internalType":"uint8"}]}],"anonymous":false},{"type":"event","name":"ValidatorStaked","inputs":[{"name":"validator","type":"tuple","indexed":false,"internalType":"struct IConsensusRegistry.ValidatorInfo","components":[{"name":"blsPubkey","type":"bytes","internalType":"bytes"},{"name":"validatorAddress","type":"address","internalType":"address"},{"name":"activationEpoch","type":"uint32","internalType":"uint32"},{"name":"exitEpoch","type":"uint32","internalType":"uint32"},{"name":"currentStatus","type":"uint8","internalType":"enum IConsensusRegistry.ValidatorStatus"},{"name":"isRetired","type":"bool","internalType":"bool"},{"name":"isDelegated","type":"bool","internalType":"bool"},{"name":"stakeVersion","type":"uint8","internalType":"uint8"}]}],"anonymous":false},{"type":"error","name":"AlreadyDefined","inputs":[{"name":"validatorAddress","type":"address","internalType":"address"}]},{"type":"error","name":"CommitteeRequirement","inputs":[{"name":"validatorAddress","type":"address","internalType":"address"}]},{"type":"error","name":"ERC721IncorrectOwner","inputs":[{"name":"sender","type":"address","internalType":"address"},{"name":"tokenId","type":"uint256","internalType":"uint256"},{"name":"owner","type":"address","internalType":"address"}]},{"type":"error","name":"ERC721InsufficientApproval","inputs":[{"name":"operator","type":"address","internalType":"address"},{"name":"tokenId","type":"uint256","internalType":"uint256"}]},{"type":"error","name":"ERC721InvalidApprover","inputs":[{"name":"approver","type":"address","internalType":"address"}]},{"type":"error","name":"ERC721InvalidOperator","inputs":[{"name":"operator","type":"address","internalType":"address"}]},{"type":"error","name":"ERC721InvalidOwner","inputs":[{"name":"owner","type":"address","internalType":"address"}]},{"type":"error","name":"ERC721InvalidReceiver","inputs":[{"name":"receiver","type":"address","internalType":"address"}]},{"type":"error","name":"ERC721InvalidSender","inputs":[{"name":"sender","type":"address","internalType":"address"}]},{"type":"error","name":"ERC721NonexistentToken","inputs":[{"name":"tokenId","type":"uint256","internalType":"uint256"}]},{"type":"error","name":"EnforcedPause","inputs":[]},{"type":"error","name":"ExpectedPause","inputs":[]},{"type":"error","name":"GenesisArityMismatch","inputs":[]},{"type":"error","name":"InsufficientRewards","inputs":[{"name":"withdrawAmount","type":"uint256","internalType":"uint256"}]},{"type":"error","name":"InvalidBLSPubkey","inputs":[]},{"type":"error","name":"InvalidCommitteeSize","inputs":[{"name":"minCommitteeSize","type":"uint256","internalType":"uint256"},{"name":"providedCommitteeSize","type":"uint256","internalType":"uint256"}]},{"type":"error","name":"InvalidEpoch","inputs":[{"name":"epoch","type":"uint32","internalType":"uint32"}]},{"type":"error","name":"InvalidProof","inputs":[]},{"type":"error","name":"InvalidStakeAmount","inputs":[{"name":"stakeAmount","type":"uint256","internalType":"uint256"}]},{"type":"error","name":"InvalidStatus","inputs":[{"name":"status","type":"uint8","internalType":"enum IConsensusRegistry.ValidatorStatus"}]},{"type":"error","name":"InvalidSupply","inputs":[]},{"type":"error","name":"InvalidTokenId","inputs":[{"name":"tokenId","type":"uint256","internalType":"uint256"}]},{"type":"error","name":"InvalidValidatorAddress","inputs":[]},{"type":"error","name":"LowLevelCallFailure","inputs":[]},{"type":"error","name":"NotDelegator","inputs":[{"name":"notDelegator","type":"address","internalType":"address"}]},{"type":"error","name":"NotTransferable","inputs":[]},{"type":"error","name":"NotValidator","inputs":[{"name":"validatorAddress","type":"address","internalType":"address"}]},{"type":"error","name":"OnlySystemCall","inputs":[{"name":"invalidCaller","type":"address","internalType":"address"}]},{"type":"error","name":"OwnableInvalidOwner","inputs":[{"name":"owner","type":"address","internalType":"address"}]},{"type":"error","name":"OwnableUnauthorizedAccount","inputs":[{"name":"account","type":"address","internalType":"address"}]},{"type":"error","name":"Reentrancy","inputs":[]},{"type":"error","name":"RequiresConsensusNFT","inputs":[]}],"bytecode":{"object":"0x6101206040527f8478e887beabc77eff0d543b4296823f1590a22d5ce447143f02ddaf3954af8b600655348015610034575f80fd5b5060405161660b38038061660b8339810160408190526100539161100f565b806040518060400160405280600c81526020016b10dbdb9cd95b9cdd5cd3919560a21b8152506040518060400160405280600481526020016310d3919560e21b8152506040518060400160405280600c81526020016b10dbdb9cd95b9cdd5cd3919560a21b8152506040518060400160405280600481526020016310d3919560e21b815250815f90816100e6919061127b565b5060016100f3828261127b565b505030608052504660a052606080610153604080518082018252601481527f54656c636f696e205374616b654d616e61676572000000000000000000000000602080830191909152825180840190935260018352603160f81b9083015291565b815160209283012081519183019190912060c082905260e0819052604080517f8b73c3c69bb8fe3d512ecc4cf759cc79239f7b179b0ffacaa9a75d522b39400f8152938401929092529082015246606082015230608082015260a090206101005250506007805460ff1916905550506001600160a01b0381166101f057604051631e4fbdf760e01b81525f60048201526024015b60405180910390fd5b6101f981610a88565b508151158061020b5750815162ffffff105b1561022957604051633aa3e03360e01b815260040160405180910390fd5b6040517f0636e6890fec58b60f710b53efa0ef8de81ca2fddce7e46303a60c9d416c740090309061025990610e80565b6001600160a01b039091168152602001604051809103905ff080158015610282573d5f803e3d5ffd5b5081546001600160a01b0319166001600160a01b03919091161781555f808052600180830160209081526040808420885181546001600160e81b03199081166001600160e81b03928316178355938a0151948201805485169582169590951790945590880151600282018054909316931692909217905560608601516003909101805463ffffffff191663ffffffff9092169190911790556103417faf33537d204b7c8488a91ad2a40f2c043712bad394401b7dd7bd4cb801f2310090565b6040805161014081018252600161010082018181527fff00000000000000000000000000000000000000000000000000000000000000610120840152825260ff6020808401829052838501829052606084018290526006608085015260a0840183905260c084019290925260e08301525f80805260118501909152919091208151929350909181906103d3908261127b565b5060208201516001820180546040850151606086015163ffffffff908116600160c01b0263ffffffff60c01b1991909216600160a01b026001600160c01b03199093166001600160a01b0390951694909417919091179283168117825560808501519260ff60e01b1990911664ffffffffff60c01b1990911617600160e01b83600681111561046457610464611335565b021790555060a08201516001909101805460c084015160e09094015160ff16600160f81b026001600160f81b03941515600160f01b0260ff60f01b19941515600160e81b029490941661ffff60e81b199092169190911792909217929092161790555f5b8451811015610a7d575f8582815181106104e4576104e4611349565b60200260200101519050805f015151606014610513576040516333a234f960e11b815260040160405180910390fd5b60208101516001600160a01b031661053e5760405163713ce51160e01b815260040160405180910390fd5b604081015163ffffffff1615610575576040808201519051634fadd4d360e11b815263ffffffff90911660048201526024016101e7565b606081015163ffffffff16156105ac576060810151604051634fadd4d360e11b815263ffffffff90911660048201526024016101e7565b6003816080015160068111156105c4576105c4611335565b146105e8578060800151604051633ba7bf8960e11b81526004016101e7919061137d565b60a08101511561060e576005604051633ba7bf8960e11b81526004016101e7919061137d565b5f61061a83600161139f565b60c0830151909150151560010361074b576040518060a00160405280835f0151805190602001208152602001876001600160a01b031681526020018262ffffff1681526020015f60ff16815260200160016001600160401b0316815250856003015f84602001516001600160a01b03166001600160a01b031681526020019081526020015f205f820151815f01556020820151816001015f6101000a8154816001600160a01b0302191690836001600160a01b0316021790555060408201518160010160146101000a81548162ffffff021916908362ffffff16021790555060608201518160010160176101000a81548160ff021916908360ff16021790555060808201518160010160186101000a8154816001600160401b0302191690836001600160401b031602179055509050505b60e082015160ff161561077c5760e082015160405163222d164360e21b815260ff90911660048201526024016101e7565b5f5b60028111610874575f85600101826004811061079c5761079c611349565b602086810151600292909202929092018054600180820183555f838152949094200180546001600160a01b0319166001600160a01b039093169290921790915560608c0151918101805463ffffffff60401b19166801000000000000000063ffffffff9094169390930292909217909155905060098601826004811061082457610824611349565b6020868101516002929092029290920180546001810182555f91825292902090910180546001600160a01b0319166001600160a01b039092169190911790555061086d816113b2565b905061077e565b5062ffffff81165f90815260118501602052604090208251839190819061089b908261127b565b5060208201516001820180546040850151606086015163ffffffff908116600160c01b0263ffffffff60c01b1991909216600160a01b026001600160c01b03199093166001600160a01b0390951694909417919091179283168117825560808501519260ff60e01b1990911664ffffffffff60c01b1990911617600160e01b83600681111561092c5761092c611335565b021790555060a08201516001909101805460c084015160e09094015160ff16600160f81b026001600160f81b03941515600160f01b0260ff60f01b19941515600160e81b029490941661ffff60e81b19909216919091179290921792909216179055602080830180516001600160a01b039081165f908152600289019093526040808420805462ffffff80881662ffffff19909216919091179091558c519351909216845290922080546001600160e81b039092166301000000029183169190911790558554600160a01b900416856014610a06836113ca565b91906101000a81548162ffffff021916908362ffffff16021790555050610a3c82602001518262ffffff16610ae160201b60201c565b7f31845bad1fcdd92490e8d85605449863a562ea940e37b380a276e440683fdb7282604051610a6b91906113ec565b60405180910390a150506001016104c8565b5050505050506114a4565b600780546001600160a01b03838116610100818102610100600160a81b031985161790945560405193909204169182907f8be0079c531659141344cd1fd0a4f28419497f9722a3daafe3b4186f6b6457e0905f90a35050565b6001600160a01b038216610b0a57604051633250574960e11b81525f60048201526024016101e7565b5f610b16838383610b47565b90506001600160a01b03811615610b42576040516339e3563760e11b81525f60048201526024016101e7565b505050565b5f828152600260205260408120546001600160a01b0390811690831615610b7357610b73818486610c39565b6001600160a01b03811615610bad57610b8e5f858180610c9d565b6001600160a01b0381165f90815260036020526040902080545f190190555b6001600160a01b03851615610bdb576001600160a01b0385165f908152600360205260409020805460010190555b5f8481526002602052604080822080546001600160a01b0319166001600160a01b0389811691821790925591518793918516917fddf252ad1be2c89b69c2b068fc378daa952ba7f163c4a11628f55a4df523b3ef91a4949350505050565b610c44838383610dbf565b610b42576001600160a01b038316610c7257604051637e27328960e01b8152600481018290526024016101e7565b60405163177e802f60e01b81526001600160a01b0383166004820152602481018290526044016101e7565b8080610cb157506001600160a01b03821615155b15610d90575f610cc084610e42565b90506001600160a01b03831615801590610cec5750826001600160a01b0316816001600160a01b031614155b8015610d1d57506001600160a01b038082165f9081526005602090815260408083209387168352929052205460ff16155b15610d465760405163a9fbf51f60e01b81526001600160a01b03841660048201526024016101e7565b8115610d8e5783856001600160a01b0316826001600160a01b03167f8c5be1e5ebec7d5bd14f71427d1e84f3dd0314c0f7b2291e5b200ac8c7c3b92560405160405180910390a45b505b50505f90815260046020526040902080546001600160a01b0319166001600160a01b0392909216919091179055565b5f6001600160a01b03831615801590610e3a5750826001600160a01b0316846001600160a01b03161480610e1757506001600160a01b038085165f9081526005602090815260408083209387168352929052205460ff165b80610e3a57505f828152600460205260409020546001600160a01b038481169116145b949350505050565b5f818152600260205260408120546001600160a01b031680610e7a57604051637e27328960e01b8152600481018490526024016101e7565b92915050565b6102d78061633483390190565b634e487b7160e01b5f52604160045260245ffd5b604051608081016001600160401b0381118282101715610ec357610ec3610e8d565b60405290565b60405161010081016001600160401b0381118282101715610ec357610ec3610e8d565b604051601f8201601f191681016001600160401b0381118282101715610f1457610f14610e8d565b604052919050565b80516001600160e81b0381168114610f32575f80fd5b919050565b805163ffffffff81168114610f32575f80fd5b5f5b83811015610f64578181015183820152602001610f4c565b50505f910152565b5f82601f830112610f7b575f80fd5b81516001600160401b03811115610f9457610f94610e8d565b610fa7601f8201601f1916602001610eec565b818152846020838601011115610fbb575f80fd5b610e3a826020830160208701610f4a565b80516001600160a01b0381168114610f32575f80fd5b805160078110610f32575f80fd5b80518015158114610f32575f80fd5b805160ff81168114610f32575f80fd5b5f805f83850360c0811215611022575f80fd5b608081121561102f575f80fd5b50611038610ea1565b61104185610f1c565b815261104f60208601610f1c565b602082015261106060408601610f1c565b604082015261107160608601610f37565b606082015260808501519093506001600160401b03811115611091575f80fd5b8401601f810186136110a1575f80fd5b80516001600160401b038111156110ba576110ba610e8d565b8060051b6110ca60208201610eec565b918252602081840181019290810190898411156110e5575f80fd5b6020850192505b838310156111db5782516001600160401b03811115611109575f80fd5b8501610100818c03601f1901121561111f575f80fd5b611127610ec9565b60208201516001600160401b0381111561113f575f80fd5b61114e8d602083860101610f6c565b82525061115d60408301610fcc565b602082015261116e60608301610f37565b604082015261117f60808301610f37565b606082015261119060a08301610fe2565b60808201526111a160c08301610ff0565b60a08201526111b260e08301610ff0565b60c08201526111c46101008301610fff565b60e0820152835250602092830192909101906110ec565b80965050505050506111ef60a08501610fcc565b90509250925092565b600181811c9082168061120c57607f821691505b60208210810361122a57634e487b7160e01b5f52602260045260245ffd5b50919050565b601f821115610b4257805f5260205f20601f840160051c810160208510156112555750805b601f840160051c820191505b81811015611274575f8155600101611261565b5050505050565b81516001600160401b0381111561129457611294610e8d565b6112a8816112a284546111f8565b84611230565b6020601f8211600181146112da575f83156112c35750848201515b5f19600385901b1c1916600184901b178455611274565b5f84815260208120601f198516915b8281101561130957878501518255602094850194600190920191016112e9565b508482101561132657868401515f19600387901b60f8161c191681555b50505050600190811b01905550565b634e487b7160e01b5f52602160045260245ffd5b634e487b7160e01b5f52603260045260245ffd5b6007811061137957634e487b7160e01b5f52602160045260245ffd5b9052565b60208101610e7a828461135d565b634e487b7160e01b5f52601160045260245ffd5b80820180821115610e7a57610e7a61138b565b5f600182016113c3576113c361138b565b5060010190565b5f62ffffff821662ffffff81036113e3576113e361138b565b60010192915050565b602081525f8251610100602084015280518061012085015261141681610140860160208501610f4a565b60208501516001600160a01b03811660408601529150604085015163ffffffff811660608601529150606085015163ffffffff8116608086015291506080850151915061146660a085018361135d565b60a0850151151560c085810191909152850151151560e0808601919091529094015160ff166101008401525050601f909101601f1916016101400190565b60805160a05160c05160e05161010051614e536114e15f395f61238001525f61243a01525f61241401525f6123c401525f6123a10152614e535ff3fe6080604052600436106102a5575f3560e01c80637b55a3001161016f578063aa680fe0116100d8578063cdb1e21411610092578063e3716d041161006d578063e3716d0414610876578063e985e9c514610895578063f2888dbb146108b4578063f2fde38b146108d3575f80fd5b8063cdb1e21414610819578063cf6ebee714610838578063e36e10ad14610857575f80fd5b8063aa680fe014610753578063b40e48b91461077f578063b88d4fde1461079e578063b97dd9e2146107bd578063babc394f146107e6578063c87b56dd146107fa575f80fd5b80638cc05eda116101295780638cc05eda146106945780638da5cb5b146106c057806395d89b41146106e25780639d302967146106f6578063a22cb46514610715578063a71954ec14610734575f80fd5b80637b55a300146105ad5780637d06fdf8146105cc5780638456cb591461062657806384b0196e1461063a578063863623bb1461066157806389afcb4414610675575f80fd5b80633434735f11610211578063568d312c116101cb578063568d312c146104e75780635c975abb1461050d5780636352211e1461052457806370a0823114610543578063715018a61461056257806379ee54f714610576575f80fd5b80633434735f14610447578063355811a714610461578063374ed18c146104695780633f4ba83a1461049557806340c10f19146104a957806342842e0e146104c8575f80fd5b80631601e641116102625780631601e6411461037d57806318160ddd146103c55780632228dfa0146103e757806323b872dd146103fb5780632b9f4985146104155780632d1e0c0214610434575f80fd5b806301ffc9a7146102a957806306fdde03146102dd578063081812fc146102fe578063095ea7b3146103355780630cc1026b146103565780630f15f4c014610369575b5f80fd5b3480156102b4575f80fd5b506102c86102c33660046140b5565b6108f2565b60405190151581526020015b60405180910390f35b3480156102e8575f80fd5b506102f1610943565b6040516102d49190614113565b348015610309575f80fd5b5061031d610318366004614125565b6109d2565b6040516001600160a01b0390911681526020016102d4565b348015610340575f80fd5b5061035461034f366004614152565b6109f9565b005b6103546103643660046141b7565b610a12565b348015610374575f80fd5b50610354610cd5565b348015610388575f80fd5b5061039c610397366004614236565b610d35565b60408051825162ffffff1681526020928301516001600160e81b031692810192909252016102d4565b3480156103d0575f80fd5b506103d9610d99565b6040519081526020016102d4565b3480156103f2575f80fd5b50610354610db4565b348015610406575f80fd5b5061035461034f36600461424f565b348015610420575f80fd5b5061035461042f366004614236565b610e8c565b610354610442366004614289565b610f96565b348015610452575f80fd5b5061031d6002600160a01b0381565b61035461100b565b348015610474575f80fd5b506104886104833660046142d8565b6110b3565b6040516102d491906142f3565b3480156104a0575f80fd5b5061035461121b565b3480156104b4575f80fd5b506103546104c3366004614152565b61122d565b3480156104d3575f80fd5b506103546104e236600461424f565b61133d565b3480156104f2575f80fd5b506104fb611357565b60405160ff90911681526020016102d4565b348015610518575f80fd5b5060075460ff166102c8565b34801561052f575f80fd5b5061031d61053e366004614125565b611370565b34801561054e575f80fd5b506103d961055d366004614236565b61137a565b34801561056d575f80fd5b506103546113bf565b348015610581575f80fd5b50610595610590366004614236565b6113d0565b6040516001600160e81b0390911681526020016102d4565b3480156105b8575f80fd5b506103546105c7366004614373565b61144a565b3480156105d7575f80fd5b506105e0611585565b6040805182516001600160e81b03908116825260208085015182169083015283830151169181019190915260609182015163ffffffff16918101919091526080016102d4565b348015610631575f80fd5b506103546115b8565b348015610645575f80fd5b5061064e6115c8565b6040516102d497969594939291906143e2565b34801561066c575f80fd5b5061031d61162f565b348015610680575f80fd5b5061035461068f366004614236565b611647565b34801561069f575f80fd5b506106b36106ae366004614478565b61167a565b6040516102d49190614573565b3480156106cb575f80fd5b5060075461010090046001600160a01b031661031d565b3480156106ed575f80fd5b506102f16116c0565b348015610701575f80fd5b506104fb6107103660046145d6565b6116cf565b348015610720575f80fd5b5061035461072f3660046145ef565b61174d565b34801561073f575f80fd5b506105e061074e366004614628565b61175c565b34801561075e575f80fd5b5061077261076d366004614125565b6117eb565b6040516102d49190614648565b34801561078a575f80fd5b5061035461079936600461469a565b611986565b3480156107a9575f80fd5b506103546107b8366004614769565b611c61565b3480156107c8575f80fd5b506107d1611c79565b60405163ffffffff90911681526020016102d4565b3480156107f1575f80fd5b50610488611c90565b348015610805575f80fd5b506102f1610814366004614125565b611d68565b348015610824575f80fd5b5061035461083336600461469a565b611d87565b348015610843575f80fd5b506102c8610852366004614125565b611ef9565b348015610862575f80fd5b506103d9610871366004614236565b611f56565b348015610881575f80fd5b506103d96108903660046147cc565b611f73565b3480156108a0575f80fd5b506102c86108af366004614825565b61201a565b3480156108bf575f80fd5b506103546108ce366004614236565b612047565b3480156108de575f80fd5b506103546108ed366004614236565b612162565b5f6001600160e01b031982166380ac58cd60e01b148061092257506001600160e01b03198216635b5e139f60e01b145b8061093d57506301ffc9a760e01b6001600160e01b03198316145b92915050565b60605f805461095190614856565b80601f016020809104026020016040519081016040528092919081815260200182805461097d90614856565b80156109c85780601f1061099f576101008083540402835291602001916109c8565b820191905f5260205f20905b8154815290600101906020018083116109ab57829003601f168201915b5050505050905090565b5f6109dc8261219c565b505f828152600460205260409020546001600160a01b031661093d565b60405163dc8d8db760e01b815260040160405180910390fd5b610a1a6121d4565b60608414610a3b576040516333a234f960e11b815260040160405180910390fd5b5f610a446121f8565b8054909150600160b81b900460ff165f610a5e348361221c565b90505f610a6b848861226d565b9050610a7f610a786122f3565b825f612317565b6001600160a01b0387165f90815260038501602052604081206001018054600160c01b90046001600160401b0316906018610ab9836148a2565b91906101000a8154816001600160401b0302191690836001600160401b0316021790555090505f8a8a604051610af09291906148cc565b60405180910390209050610b126007546001600160a01b036101009091041690565b6001600160a01b0316336001600160a01b031614610ba8575f6006548233868987604051602001610b48969594939291906148db565b6040516020818303038152906040528051906020012090505f610b6a8261237e565b9050610b788b828c8c612494565b610ba557604051633b4f6e2b60e21b81526001600160a01b038c1660048201526024015b60405180910390fd5b50505b6040518060a00160405280828152602001336001600160a01b031681526020018462ffffff1681526020018660ff168152602001836001600160401b0316815250866003015f8b6001600160a01b03166001600160a01b031681526020019081526020015f205f820151815f01556020820151816001015f6101000a8154816001600160a01b0302191690836001600160a01b0316021790555060408201518160010160146101000a81548162ffffff021916908362ffffff16021790555060608201518160010160176101000a81548160ff021916908360ff16021790555060808201518160010160186101000a8154816001600160401b0302191690836001600160401b03160217905550905050610cc88b8b8b600189888a612586565b5050505050505050505050565b610cdd6121d4565b5f610cef610ce96121f8565b3361226d565b90505f610cfa6122f3565b9050610d0881836001612317565b62ffffff82165f90815260118201602052604090208154610d3090829063ffffffff166127ae565b505050565b604080518082019091525f8082526020820152610d506121f8565b6001600160a01b03929092165f9081526002909201602090815260409283902083518085019094525462ffffff81168452630100000090046001600160e81b0316908301525090565b5f610da26121f8565b54600160a01b900462ffffff16919050565b610dbc6121d4565b5f610dc8610ce96121f8565b90505f610dd36122f3565b90505f610de182600361282e565b5182549091505f906001840190600160201b900460ff1660048110610e0857610e0861491d565b60020201549050610e198282612bc3565b610e2583856003612317565b62ffffff84165f90815260118401602052604090208354600182015463ffffffff91821691600160a01b90910416811015610e7b57604051634fadd4d360e11b815263ffffffff82166004820152602401610b9c565b610e8482612bf7565b505050505050565b610e946121d4565b3068929eee149b4bd212685403610eb25763ab143c065f526004601cfd5b3068929eee149b4bd21268555f610ec76121f8565b90505f610ed4828461226d565b90505f610edf6122f3565b62ffffff83165f9081526011919091016020526040902060010154600160f81b900460ff169050836001600160a01b0381163314610f2557610f22848633612c4f565b90505b5f610f3285878486612c9f565b604080516001600160a01b03851681526001600160e81b03929092166020830181905292507ffc30cddea38e2bf4d6ea7d3f9ed3b6ad7f176419f4963bd81318067a4aee73fe910160405180910390a150505050503868929eee149b4bd212685550565b610f9e6121d4565b60608114610fbf576040516333a234f960e11b815260040160405180910390fd5b5f610fc86121f8565b8054909150600160b81b900460ff165f610fe2348361221c565b90505f610fef843361226d565b9050610ffc610a786122f3565b610e848686335f878688612586565b611013612d75565b5f61101c61162f565b6001600160a01b0316346040515f6040518083038185875af1925050503d805f8114611063576040519150601f19603f3d011682016040523d82523d5f602084013e611068565b606091505b50509050806110b05760405162461bcd60e51b815260206004820152601460248201527324b6b837b9b9b4b136329031b7b73234ba34b7b760611b6044820152606401610b9c565b50565b604080516060808201835281525f60208201819052918101829052906110d76122f3565b805490915063ffffffff166110ed816002614931565b63ffffffff168463ffffffff16118061112d575060038163ffffffff161015801561112d575061111e60038261494d565b63ffffffff168463ffffffff16105b1561115357604051634fadd4d360e11b815263ffffffff85166004820152602401610b9c565b8154600160201b900460ff1663ffffffff828116908616111561120f5761117c83868484612da8565b604080518254608060208202830181019093526060820181815291939284929184918401828280156111d557602002820191905f5260205f20905b81546001600160a01b031681526001909101906020018083116111b7575b5050509183525050600191909101546001600160401b0381166020830152600160401b900463ffffffff1660409091015295945050505050565b61117c83868484612df3565b611223612d75565b61122b612e4d565b565b611235612d75565b5f61123e6121f8565b90506112498361137a565b151580611263575061125b8184612e9f565b62ffffff1615155b1561128c57604051639fb0877960e01b81526001600160a01b0384166004820152602401610b9c565b6001600160a01b0383165f9081526002820160205260408120805462ffffff191662ffffff85811691909117909155825483916014916112d491600160a01b90910416614969565b91906101000a81548162ffffff021916908362ffffff160217905590508062ffffff16831415801561130c575061130a83611ef9565b155b1561132d5760405163ed15e6cf60e01b815260048101849052602401610b9c565b6113378484612ec2565b50505050565b610d3083838360405180602001604052805f815250611c61565b5f6113606121f8565b54600160b81b900460ff16919050565b5f61093d8261219c565b5f6001600160a01b0382166113a4576040516322718ad960e21b81525f6004820152602401610b9c565b506001600160a01b03165f9081526003602052604090205490565b6113c7612d75565b61122b5f612f23565b5f806113da6121f8565b90505f6113e7828561226d565b90505f6113f26122f3565b62ffffff83165f90815260119190910160209081526040808320600190810154600160f81b900460ff16808552908701909252909120549091506001600160e81b0316611440848783612f7c565b9695505050505050565b336002600160a01b031461147357604051637eb3357160e01b8152336004820152602401610b9c565b5f61147c6122f3565b90505f806114bc838686808060200260200160405190810160405280939291908181526020018383602002808284375f92019190915250612fc392505050565b915091506114cc838686856131c7565b5f6114d884600361282e565b80519091506114e79086612bc3565b604080516080602088028083018201909352606082018881527fbf3c9880f19d9a18f0a68d90c53eb83ada076643d445cac5aa0b8304699524899383928b918b918291908601908490808284375f92019190915250505090825250602001611550436001614982565b6001600160401b031681526020018463ffffffff1681525060405161157591906142f3565b60405180910390a1505050505050565b604080516080810182525f8082526020820181905291810182905260608101919091526115b361074e611357565b905090565b6115c0612d75565b61122b613430565b600f60f81b6060805f80808361161d60408051808201825260148152732a32b631b7b4b71029ba30b5b2a6b0b730b3b2b960611b602080830191909152825180840190935260018352603160f81b9083015291565b97989097965046955030945091925090565b5f6116386121f8565b546001600160a01b0316919050565b61164f612d75565b5f6116586121f8565b90505f611665828461226d565b9050610d30826116736122f3565b838661346d565b60605f82600681111561168f5761168f614496565b036116af5781604051633ba7bf8960e11b8152600401610b9c9190614995565b61093d6116ba6122f3565b8361282e565b60606001805461095190614856565b5f6116d8612d75565b6116e06121d4565b5f6116e96121f8565b80549091505f90829060179061170890600160b81b900460ff166149a3565b825460ff8083166101009490940a848102910219909116179092555f9081526001840160205260409020909150849061174182826149ec565b5090925050505b919050565b611758338383613518565b5050565b604080516080810182525f8082526020820181905291810182905260608101829052906117876121f8565b60ff9093165f90815260019384016020908152604091829020825160808101845281546001600160e81b0390811682529682015487169281019290925260028101549095169181019190915260039093015463ffffffff1660608401525090919050565b6117f3613fe6565b6117fc826135b6565b61181c5760405163ed15e6cf60e01b815260048101839052602401610b9c565b5f6118256122f3565b9050806011015f8462ffffff1662ffffff1681526020019081526020015f20604051806101000160405290815f8201805461185f90614856565b80601f016020809104026020016040519081016040528092919081815260200182805461188b90614856565b80156118d65780601f106118ad576101008083540402835291602001916118d6565b820191905f5260205f20905b8154815290600101906020018083116118b957829003601f168201915b505050918352505060018201546001600160a01b038116602083015263ffffffff600160a01b820481166040840152600160c01b820416606083015260809091019060ff600160e01b90910416600681111561193457611934614496565b600681111561194557611945614496565b81526001919091015460ff600160e81b8204811615156020840152600160f01b8204811615156040840152600160f81b909104166060909101529392505050565b336002600160a01b03146119af57604051637eb3357160e01b8152336004820152602401610b9c565b5f6119b86121f8565b90505f80836001600160401b038111156119d4576119d46146cc565b6040519080825280602002602001820160405280156119fd578160200160208202803683370190505b5090505f5b84811015611b315736868683818110611a1d57611a1d61491d565b9050604002019050806020016020810190611a389190614a65565b6001600160e81b03165f03611a4d5750611b29565b5f611a6486611a5f6020850185614236565b612e9f565b905062fffffe1962ffffff821601611a7d575050611b29565b5f611a866122f3565b62ffffff83165f90815260119190910160209081526040808320600190810154600160f81b900460ff16808552908b018352818420549094506001600160e81b03169291611ad8918701908701614a65565b611ae29083614a80565b9050611aee8189614ab1565b975080878781518110611b0357611b0361491d565b60200260200101906001600160e81b031690816001600160e81b03168152505050505050505b600101611a02565b505f611b3b611585565b6040015190505f5b85811015611c58576001600160e81b03841615611c58575f84848381518110611b6e57611b6e61491d565b60200260200101516d04ee2d6d415b85acef8100000000611b8f9190614a80565b611b999190614ae4565b90505f6d04ee2d6d415b85acef8100000000611bb58386614a80565b611bbf9190614ae4565b905080876002015f8b8b87818110611bd957611bd961491d565b611bef9260206040909202019081019150614236565b6001600160a01b0316815260208101919091526040015f208054600390611c27908490630100000090046001600160e81b0316614ab1565b92506101000a8154816001600160e81b0302191690836001600160e81b031602179055505050806001019050611b43565b50505050505050565b611c6c8484846109f9565b6113373385858585613605565b5f80611c836122f3565b5463ffffffff1692915050565b604080516060808201835281525f6020820181905291810182905290611cb46122f3565b8054909150611cd890829063ffffffff8116908190600160201b900460ff16612df3565b60408051825460806020820283018101909352606082018181529193928492918491840182828015611d3157602002820191905f5260205f20905b81546001600160a01b03168152600190910190602001808311611d13575b5050509183525050600191909101546001600160401b0381166020830152600160401b900463ffffffff1660409091015292915050565b6060611d738261219c565b5060408051602081019091525f815261093d565b336002600160a01b0314611db057604051637eb3357160e01b8152336004820152602401610b9c565b5f611db96121f8565b90505f5b828110156113375736848483818110611dd857611dd861491d565b6040029190910191505f9050611df584611a5f6020850185614236565b905062fffffe1962ffffff821601611e0e575050611ef1565b5f6002850181611e216020860186614236565b6001600160a01b03166001600160a01b031681526020019081526020015f209050826020016020810190611e559190614a65565b81546001600160e81b0391821663010000009091049091161115611ece57611e836040840160208501614a65565b81548290600390611ea5908490630100000090046001600160e81b0316614b12565b92506101000a8154816001600160e81b0302191690836001600160e81b03160217905550611eed565b611eed85611eda6122f3565b84611ee86020880188614236565b61346d565b5050505b600101611dbd565b5f611f03826135b6565b15611f245760405163ed15e6cf60e01b815260048101839052602401610b9c565b611f2c6122f3565b62ffffff929092165f9081526011909201602052506040902060010154600160e81b900460ff1690565b5f611f68611f626121f8565b8361226d565b62ffffff1692915050565b5f80611f7d6121f8565b90505f611f8a828661226d565b6001600160a01b0386165f9081526003840160209081526040808320600101548a518b84012060065488549351969750600160c01b9092046001600160401b031695909493611fec9386928c928a92600160b81b900460ff16918a91016148db565b60405160208183030381529060405280519060200120905061200d8161237e565b9998505050505050505050565b6001600160a01b039182165f90815260056020908152604080832093909416825291909152205460ff1690565b61204f6121d4565b3068929eee149b4bd21268540361206d5763ab143c065f526004601cfd5b3068929eee149b4bd21268555f6120826121f8565b90505f61208f828461226d565b905082336001600160a01b038216146120b0576120ad838533612c4f565b90505b5f6120b96122f3565b90506120c781846005612317565b62ffffff83165f90815260118201602052604090206120e58161372b565b5f61210887858762ffffff1685600101601f9054906101000a900460ff16613771565b604080516001600160a01b0387168152602081018390529192507ffc30cddea38e2bf4d6ea7d3f9ed3b6ad7f176419f4963bd81318067a4aee73fe910160405180910390a15050505050503868929eee149b4bd212685550565b61216a612d75565b6001600160a01b03811661219357604051631e4fbdf760e01b81525f6004820152602401610b9c565b6110b081612f23565b5f818152600260205260408120546001600160a01b03168061093d57604051637e27328960e01b815260048101849052602401610b9c565b60075460ff161561122b5760405163d93c066560e01b815260040160405180910390fd5b7f0636e6890fec58b60f710b53efa0ef8de81ca2fddce7e46303a60c9d416c740090565b5f6122256121f8565b60ff83165f90815260019190910160205260409020546001600160e81b031683146122665760405163222d164360e21b815260048101849052602401610b9c565b5090919050565b5f806122798484612e9f565b90506122898162ffffff166135b6565b6122ad5760405163ed15e6cf60e01b815262ffffff82166004820152602401610b9c565b826001600160a01b03166122c58262ffffff16611370565b6001600160a01b0316146122ec576040516330fa89ab60e11b815260040160405180910390fd5b9392505050565b7faf33537d204b7c8488a91ad2a40f2c043712bad394401b7dd7bd4cb801f2310090565b62ffffff82165f908152601184016020526040902060010154600160e01b900460ff1681600681111561234c5761234c614496565b81600681111561235e5761235e614496565b146113375780604051633ba7bf8960e11b8152600401610b9c9190614995565b7f00000000000000000000000000000000000000000000000000000000000000007f000000000000000000000000000000000000000000000000000000000000000030147f00000000000000000000000000000000000000000000000000000000000000004614166124715750604080517f8b73c3c69bb8fe3d512ecc4cf759cc79239f7b179b0ffacaa9a75d522b39400f81527f000000000000000000000000000000000000000000000000000000000000000060208201527f00000000000000000000000000000000000000000000000000000000000000009181019190915246606082015230608082015260a090205b6719010000000000005f5280601a5281603a52604260182090505f603a52919050565b6001600160a01b03909316925f841561257e57604051845f52604083036124fb5760208481013560ff81901c601b01825285356040526001600160ff1b0316606052600160805f825afa805187183d15176124f957505f60605260405250600161257e565b505b6041830361253b5760408401355f1a6020526040846040376020600160805f60015afa805187183d151761253957505f60605260405250600161257e565b505b5f60605280604052631626ba7e60e01b80825285600483015260248201604081528460448401528486606485013760208160648701858b5afa9051909114169150505b949350505050565b604080516101206020601f8a01819004028201810190925261010081018881525f928291908b908b90819085018382808284375f9201829052509385525050506001600160a01b038916602083015263ffffffff60408301526060820152608001600181525f6020820152861515604082015260ff861660609091015290508061260e6122f3565b62ffffff85165f90815260119190910160205260409020815181906126339082614b75565b5060208201516001820180546040850151606086015163ffffffff908116600160c01b0263ffffffff60c01b1991909216600160a01b026001600160c01b03199093166001600160a01b0390951694909417919091179283168117825560808501519260ff60e01b1990911664ffffffffff60c01b1990911617600160e01b8360068111156126c4576126c4614496565b021790555060a08201516001909101805460c084015160e09094015160ff16600160f81b026001600160f81b03941515600160f01b0260ff60f01b19941515600160e81b029490941661ffff60e81b199092169190911792909217929092161790558161272f6121f8565b6001600160a01b0388165f90815260029190910160205260409081902080546001600160e81b039390931663010000000262ffffff90931692909217909155517f7d89246e6daeb7529685fda2e1f478d9a155eea08675ebecd1bf8c0e572382fd9061279c908390614648565b60405180910390a15050505050505050565b6127b9816001614931565b60018301805463ffffffff92909216600160a01b0260ff60e01b191668ff00000000ffffffff60a01b1990921691909117600160e11b1790556040517fbdacb030997c2fe9d7ee41c51f5a150138c75b326c7a66f88ced12925f80bc0590612822908490614cae565b60405180910390a15050565b60605f6128396121f8565b54600160a01b900462ffffff166001600160401b0381111561285d5761285d6146cc565b60405190808252806020026020018201604052801561289657816020015b612883613fe6565b81526020019060019003908161287b5790505b5090505f60015b82518162ffffff1611612b1a5762ffffff81165f90815260118701602052604090206001810154600160e81b900460ff16156128d95750612b0a565b5f60068760068111156128ee576128ee614496565b1490508061299c576001820154600160e01b900460ff16600388600681111561291957612919614496565b0361297257600381600681111561293257612932614496565b148061294f5750600481600681111561294d5761294d614496565b145b8061296b5750600281600681111561296957612969614496565b145b915061299a565b87600681111561298457612984614496565b81600681111561299657612996614496565b1491505b505b8015612b075781604051806101000160405290815f820180546129be90614856565b80601f01602080910402602001604051908101604052809291908181526020018280546129ea90614856565b8015612a355780601f10612a0c57610100808354040283529160200191612a35565b820191905f5260205f20905b815481529060010190602001808311612a1857829003601f168201915b505050918352505060018201546001600160a01b038116602083015263ffffffff600160a01b820481166040840152600160c01b820416606083015260809091019060ff600160e01b909104166006811115612a9357612a93614496565b6006811115612aa457612aa4614496565b81526001919091015460ff600160e81b8204811615156020840152600160f01b8204811615156040840152600160f81b909104166060909101528585612ae981614d48565b965081518110612afb57612afb61491d565b60200260200101819052505b50505b612b1381614969565b905061289d565b505f816001600160401b03811115612b3457612b346146cc565b604051908082528060200260200182016040528015612b6d57816020015b612b5a613fe6565b815260200190600190039081612b525790505b5090505f5b82811015612bb957838181518110612b8c57612b8c61491d565b6020026020010151828281518110612ba657612ba661491d565b6020908102919091010152600101612b72565b5095945050505050565b811580612bcf57508181115b1561175857604051635700689f60e11b81526004810183905260248101829052604401610b9c565b60018101805464ffffffffff60c01b19166404ffffffff60c01b1790556040517f537bf236138f80ea8801a391fffc8a42bf0be3b6ea9d336ca2e2164a4c91071c90612c44908390614cae565b60405180910390a150565b6001600160a01b038083165f9081526003850160205260408120600101549091908116908316811461257e57604051639a494e0560e01b81526001600160a01b0384166004820152602401610b9c565b5f80612cac868685613951565b6001600160a01b0386165f908152600288016020526040902080549192508291600390612cea908490630100000090046001600160e81b0316614b12565b82546101009290920a6001600160e81b038181021990931691831602179091558754604051634875485760e11b81526001600160a01b0388811660048301529285166024820152911691506390ea90ae906044015f604051808303815f87803b158015612d55575f80fd5b505af1158015612d67573d5f803e3d5ffd5b509298975050505050505050565b6007546001600160a01b0361010090910416331461122b5760405163118cdaa760e01b8152336004820152602401610b9c565b5f80600483612db7868861494d565b612dc19190614d60565b612dcb9190614d79565b9050856009018160ff1660048110612de557612de561491d565b600202019695505050505050565b5f8084612e01856004614931565b612e0b919061494d565b90505f6004612e1a8386614d60565b612e249190614d79565b9050866001018160ff1660048110612e3e57612e3e61491d565b60020201979650505050505050565b612e556139e6565b6007805460ff191690557f5db9ee0a495bf2e6ff9c91a7834c1ba4fdd244a5e8aa4e537bd38aeae4b073aa335b6040516001600160a01b03909116815260200160405180910390a1565b6001600160a01b03165f908152600291909101602052604090205462ffffff1690565b6001600160a01b038216612eeb57604051633250574960e11b81525f6004820152602401610b9c565b5f612ef783835f613a09565b90506001600160a01b03811615610d30576040516339e3563760e11b81525f6004820152602401610b9c565b600780546001600160a01b03838116610100818102610100600160a81b031985161790945560405193909204169182907f8be0079c531659141344cd1fd0a4f28419497f9722a3daafe3b4186f6b6457e0905f90a35050565b6001600160a01b0382165f9081526002840160205260408120546001600160e81b036301000000909104811690829084168211612fb9575f611440565b6114408483614b12565b81545f908190600160201b900460ff16816004612fe1836001614d60565b612feb9190614d79565b90505f866009018260ff16600481106130065761300661491d565b6002020190505f613015611585565b60600151905060405180606001604052808380548060200260200160405190810160405280929190818152602001828054801561307957602002820191905f5260205f20905b81546001600160a01b0316815260019091019060200180831161305b575b50505050508152602001436001600160401b031681526020018263ffffffff16815250886001018460ff16600481106130b4576130b461491d565b600202015f820151815f0190805190602001906130d2929190614029565b50602082015160019190910180546040909301516001600160401b039092166bffffffffffffffffffffffff1990931692909217600160401b63ffffffff9283160217909155885464ff00000000198116600160201b60ff8716029081178b555f928b92849261314792918216911617614d9a565b91906101000a81548163ffffffff021916908363ffffffff160217905590505f60048560026131769190614d60565b6131809190614d79565b9050888a6009018260ff166004811061319b5761319b61491d565b600202015f0190805190602001906131b4929190614029565b50909650909450505050505b9250929050565b5f6131d385600261282e565b90505f5b815181101561323a575f61320f6131ec6121f8565b8484815181106131fe576131fe61491d565b602002602001015160200151612e9f565b62ffffff81165f908152601189016020526040902090915061323081613afb565b50506001016131d7565b505f61324786600461282e565b90505f5b8151811015611c58578654600160201b900460ff165f600461326e836001614d60565b6132789190614d79565b90505f896001018360ff16600481106132935761329361491d565b600202018054604080516020808402820181019092528281529291908301828280156132e657602002820191905f5260205f20905b81546001600160a01b031681526001909101906020018083116132c8575b505050505090505f8a6009018360ff16600481106133065761330661491d565b6002020180546040805160208084028201810190925282815292919083018282801561335957602002820191905f5260205f20905b81546001600160a01b0316815260019091019060200180831161333b575b505050505090505f8686815181106133735761337361491d565b602002602001015160200151905061338b8184613b40565b8061339b575061339b8183613b40565b806133dd57506133dd818c8c808060200260200160405190810160405280939291908181526020018383602002808284375f92019190915250613b4092505050565b156133ec575050505050613428565b5f6133fe6133f86121f8565b83612e9f565b62ffffff81165f90815260118f0160205260409020909150613420818c613b9d565b505050505050505b60010161324b565b6134386121d4565b6007805460ff191660011790557f62e78cea01bee320cd4e420270b5ea74000d11b0c9f74754ebdbfc544b05a258612e823390565b6001600160a01b0381165f9081526002850160205260408120805462ffffff191662ffffff1790556134a084600361282e565b5190506134ae848383613bf6565b62ffffff83165f908152601185016020526040902084546134d690829063ffffffff16613b9d565b6134df8161372b565b5f6134ea8785613cc1565b905061350e84828762ffffff1685600101601f9054906101000a900460ff16613771565b5050505050505050565b6001600160a01b03821661354a57604051630b61174360e31b81526001600160a01b0383166004820152602401610b9c565b6001600160a01b038381165f81815260056020908152604080832094871680845294825291829020805460ff191686151590811790915591519182527f17307eab39ab6107e8899845ad3d59bd9653f200f220920489ca2b5937696c31910160405180910390a3505050565b5f8115806135c7575062ffffff8210155b156135e85760405163ed15e6cf60e01b815260048101839052602401610b9c565b505f908152600260205260409020546001600160a01b0316151590565b6001600160a01b0383163b1561372457604051630a85bd0160e11b81526001600160a01b0384169063150b7a0290613647908890889087908790600401614db5565b6020604051808303815f875af1925050508015613681575060408051601f3d908101601f1916820190925261367e91810190614de7565b60015b6136e8573d8080156136ae576040519150601f19603f3d011682016040523d82523d5f602084013e6136b3565b606091505b5080515f036136e057604051633250574960e11b81526001600160a01b0385166004820152602401610b9c565b805181602001fd5b6001600160e01b03198116630a85bd0160e11b14610e8457604051633250574960e11b81526001600160a01b0385166004820152602401610b9c565b5050505050565b60018101805461ffff60e01b1916608360e11b1790556040517fb9e0e3d06d30a4b0476d42accfa2ee90a854c961cc7f10ddc965608a97b982b190612c44908390614cae565b5f8061377b6121f8565b6001600160a01b0387165f9081526002820160205260409020805462ffffff8083558354939450919263010000009091046001600160e81b03169184916014916137cc91600160a01b900416614e02565b91906101000a81548162ffffff021916908362ffffff160217905562ffffff165f0361380b576040516315ae672760e01b815260040160405180910390fd5b61381486613cf3565b60ff85165f9081526001840160205260408120546001600160e81b03169061383d858b84612f7c565b8554604051634875485760e11b81526001600160a01b038c811660048301526001600160e81b03938416602483018190529450909116916390ea90ae91908616906044015f604051808303818588803b158015613898575f80fd5b505af11580156138aa573d5f803e3d5ffd5b5050505050816001600160e81b0316836001600160e81b031610156139305784545f906001600160a01b03166138e08585614b12565b6001600160e81b03166040515f6040518083038185875af1925050503d805f8114613926576040519150601f19603f3d011682016040523d82523d5f602084013e61392b565b606091505b505050505b613943816001600160e81b038516614982565b9a9950505050505050505050565b60ff81165f9081526001840160205260408120546001600160e81b03168161397a868684612f7c565b90506001600160e81b03811615806139b4575060ff84165f9081526001808801602052604090912001546001600160e81b03908116908216105b156139dd57604051633737b70960e11b81526001600160e81b0382166004820152602401610b9c565b95945050505050565b60075460ff1661122b57604051638dfc202b60e01b815260040160405180910390fd5b5f828152600260205260408120546001600160a01b0390811690831615613a3557613a35818486613d2b565b6001600160a01b03811615613a6f57613a505f855f80613d8f565b6001600160a01b0381165f90815260036020526040902080545f190190555b6001600160a01b03851615613a9d576001600160a01b0385165f908152600360205260409020805460010190555b5f8481526002602052604080822080546001600160a01b0319166001600160a01b0389811691821790925591518793918516917fddf252ad1be2c89b69c2b068fc378daa952ba7f163c4a11628f55a4df523b3ef91a4949350505050565b60018101805460ff60e01b1916600360e01b1790556040517f31845bad1fcdd92490e8d85605449863a562ea940e37b380a276e440683fdb7290612c44908390614cae565b80515f90815b81811015613b9357846001600160a01b0316848281518110613b6a57613b6a61491d565b60200260200101516001600160a01b031603613b8b5760019250505061093d565b600101613b46565b505f949350505050565b60018201805463ffffffff8316600160c01b0264ffffffffff60c01b1990911617600560e01b1790556040517f69cb3a026a27d868ccc41f8a2a5e4b59396939b736cf54a110052c9983e8378d90612822908490614cae565b825463ffffffff811690600160201b900460ff165f613c1786848085612df3565b8054909150613c33908590613c2e90600190614e1f565b612bc3565b613c3d8186613e93565b5f613c49846001614931565b90505f613c5888838787612da8565b8054909150613c6f908790613c2e90600190614e1f565b613c798188613e93565b5f613c85866002614931565b90505f613c948a838989612da8565b8054909150613cab908990613c2e90600190614e1f565b613cb5818a613e93565b50505050505050505050565b6001600160a01b038082165f9081526003840160205260408120600181015491929091168061257e5750919392505050565b5f613cff5f835f613a09565b90506001600160a01b03811661175857604051637e27328960e01b815260048101839052602401610b9c565b613d36838383613f85565b610d30576001600160a01b038316613d6457604051637e27328960e01b815260048101829052602401610b9c565b60405163177e802f60e01b81526001600160a01b038316600482015260248101829052604401610b9c565b8080613da357506001600160a01b03821615155b15613e64575f613db28461219c565b90506001600160a01b03831615801590613dde5750826001600160a01b0316816001600160a01b031614155b8015613df15750613def818461201a565b155b15613e1a5760405163a9fbf51f60e01b81526001600160a01b0384166004820152602401610b9c565b8115613e625783856001600160a01b0316826001600160a01b03167f8c5be1e5ebec7d5bd14f71427d1e84f3dd0314c0f7b2291e5b200ac8c7c3b92560405160405180910390a45b505b50505f90815260046020526040902080546001600160a01b0319166001600160a01b0392909216919091179055565b81545f5b8181101561133757826001600160a01b0316848281548110613ebb57613ebb61491d565b5f918252602090912001546001600160a01b031603613f7d5783613ee0600184614e1f565b81548110613ef057613ef061491d565b905f5260205f20015f9054906101000a90046001600160a01b0316848281548110613f1d57613f1d61491d565b905f5260205f20015f6101000a8154816001600160a01b0302191690836001600160a01b0316021790555083805480613f5857613f58614e32565b5f8281526020902081015f1990810180546001600160a01b0319169055019055611337565b600101613e97565b5f6001600160a01b0383161580159061257e5750826001600160a01b0316846001600160a01b03161480613fbe5750613fbe848461201a565b8061257e5750505f908152600460205260409020546001600160a01b03908116911614919050565b604080516101008101825260608082525f60208301819052928201839052810182905290608082019081525f602082018190526040820181905260609091015290565b828054828255905f5260205f2090810192821561407c579160200282015b8281111561407c57825182546001600160a01b0319166001600160a01b03909116178255602090920191600190910190614047565b5061408892915061408c565b5090565b5b80821115614088575f815560010161408d565b6001600160e01b0319811681146110b0575f80fd5b5f602082840312156140c5575f80fd5b81356122ec816140a0565b5f81518084525f5b818110156140f4576020818501810151868301820152016140d8565b505f602082860101526020601f19601f83011685010191505092915050565b602081525f6122ec60208301846140d0565b5f60208284031215614135575f80fd5b5035919050565b80356001600160a01b0381168114611748575f80fd5b5f8060408385031215614163575f80fd5b61416c8361413c565b946020939093013593505050565b5f8083601f84011261418a575f80fd5b5081356001600160401b038111156141a0575f80fd5b6020830191508360208285010111156131c0575f80fd5b5f805f805f606086880312156141cb575f80fd5b85356001600160401b038111156141e0575f80fd5b6141ec8882890161417a565b90965094506141ff90506020870161413c565b925060408601356001600160401b03811115614219575f80fd5b6142258882890161417a565b969995985093965092949392505050565b5f60208284031215614246575f80fd5b6122ec8261413c565b5f805f60608486031215614261575f80fd5b61426a8461413c565b92506142786020850161413c565b929592945050506040919091013590565b5f806020838503121561429a575f80fd5b82356001600160401b038111156142af575f80fd5b6142bb8582860161417a565b90969095509350505050565b63ffffffff811681146110b0575f80fd5b5f602082840312156142e8575f80fd5b81356122ec816142c7565b602080825282516060838301528051608084018190525f929190910190829060a08501905b808310156143435783516001600160a01b031682526020938401936001939093019290910190614318565b506001600160401b03602087015116604086015263ffffffff604087015116606086015280935050505092915050565b5f8060208385031215614384575f80fd5b82356001600160401b03811115614399575f80fd5b8301601f810185136143a9575f80fd5b80356001600160401b038111156143be575f80fd5b8560208260051b84010111156143d2575f80fd5b6020919091019590945092505050565b60ff60f81b8816815260e060208201525f61440060e08301896140d0565b828103604084015261441281896140d0565b606084018890526001600160a01b038716608085015260a0840186905283810360c0850152845180825260208087019350909101905f5b81811015614467578351835260209384019390920191600101614449565b50909b9a5050505050505050505050565b5f60208284031215614488575f80fd5b8135600781106122ec575f80fd5b634e487b7160e01b5f52602160045260245ffd5b600781106144c657634e487b7160e01b5f52602160045260245ffd5b9052565b5f815161010084526144e06101008501826140d0565b905060018060a01b03602084015116602085015263ffffffff6040840151166040850152606083015161451b606086018263ffffffff169052565b50608083015161452e60808601826144aa565b5060a083015161454260a086018215159052565b5060c083015161455660c086018215159052565b5060e083015161456b60e086018260ff169052565b509392505050565b5f602082016020835280845180835260408501915060408160051b8601019250602086015f5b828110156145ca57603f198786030184526145b58583516144ca565b94506020938401939190910190600101614599565b50929695505050505050565b5f60808284031280156145e7575f80fd5b509092915050565b5f8060408385031215614600575f80fd5b6146098361413c565b91506020830135801515811461461d575f80fd5b809150509250929050565b5f60208284031215614638575f80fd5b813560ff811681146122ec575f80fd5b602081525f6122ec60208301846144ca565b5f8083601f84011261466a575f80fd5b5081356001600160401b03811115614680575f80fd5b6020830191508360208260061b85010111156131c0575f80fd5b5f80602083850312156146ab575f80fd5b82356001600160401b038111156146c0575f80fd5b6142bb8582860161465a565b634e487b7160e01b5f52604160045260245ffd5b5f82601f8301126146ef575f80fd5b81356001600160401b03811115614708576147086146cc565b604051601f8201601f19908116603f011681016001600160401b0381118282101715614736576147366146cc565b60405281815283820160200185101561474d575f80fd5b816020850160208301375f918101602001919091529392505050565b5f805f806080858703121561477c575f80fd5b6147858561413c565b93506147936020860161413c565b92506040850135915060608501356001600160401b038111156147b4575f80fd5b6147c0878288016146e0565b91505092959194509250565b5f805f606084860312156147de575f80fd5b83356001600160401b038111156147f3575f80fd5b6147ff868287016146e0565b93505061480e6020850161413c565b915061481c6040850161413c565b90509250925092565b5f8060408385031215614836575f80fd5b61483f8361413c565b915061484d6020840161413c565b90509250929050565b600181811c9082168061486a57607f821691505b60208210810361488857634e487b7160e01b5f52602260045260245ffd5b50919050565b634e487b7160e01b5f52601160045260245ffd5b5f6001600160401b0382166001600160401b0381036148c3576148c361488e565b60010192915050565b818382375f9101908152919050565b95865260208601949094526001600160a01b0392909216604085015262ffffff16606084015260ff1660808301526001600160401b031660a082015260c00190565b634e487b7160e01b5f52603260045260245ffd5b63ffffffff818116838216019081111561093d5761093d61488e565b63ffffffff828116828216039081111561093d5761093d61488e565b5f62ffffff821662ffffff81036148c3576148c361488e565b8082018082111561093d5761093d61488e565b6020810161093d82846144aa565b5f60ff821660ff81036148c3576148c361488e565b6001600160e81b03811681146110b0575f80fd5b80546001600160e81b0319166001600160e81b0392909216919091179055565b81356149f7816149b8565b614a0181836149cc565b506020820135614a10816149b8565b614a1d81600184016149cc565b506040820135614a2c816149b8565b614a3981600284016149cc565b50600381016060830135614a4c816142c7565b815463ffffffff191663ffffffff919091161790555050565b5f60208284031215614a75575f80fd5b81356122ec816149b8565b6001600160e81b03818116838216818102909216918183048114821517614aa957614aa961488e565b505092915050565b6001600160e81b03818116838216019081111561093d5761093d61488e565b634e487b7160e01b5f52601260045260245ffd5b5f6001600160e81b03831680614afc57614afc614ad0565b6001600160e81b03929092169190910492915050565b6001600160e81b03828116828216039081111561093d5761093d61488e565b601f821115610d3057805f5260205f20601f840160051c81016020851015614b565750805b601f840160051c820191505b81811015613724575f8155600101614b62565b81516001600160401b03811115614b8e57614b8e6146cc565b614ba281614b9c8454614856565b84614b31565b6020601f821160018114614bd4575f8315614bbd5750848201515b5f19600385901b1c1916600184901b178455613724565b5f84815260208120601f198516915b82811015614c035787850151825560209485019460019092019101614be3565b5084821015614c2057868401515f19600387901b60f8161c191681555b50505050600190811b01905550565b5f8154614c3b81614856565b808552600182168015614c555760018114614c7157614ca5565b60ff1983166020870152602082151560051b8701019350614ca5565b845f5260205f205f5b83811015614c9c5781546020828a010152600182019150602081019050614c7a565b87016020019450505b50505092915050565b6020815261010060208201525f614cc9610120830184614c2f565b60018401546001600160a01b038116604085015260a081901c63ffffffff16606085015260c081901c63ffffffff166080850152614d1060a0850160ff8360e01c166144aa565b614d2460c0850160ff8360e81c1615159052565b614d3860e0850160ff8360f01c1615159052565b60f881901c61010085015261456b565b5f60018201614d5957614d5961488e565b5060010190565b60ff818116838216019081111561093d5761093d61488e565b5f60ff831680614d8b57614d8b614ad0565b8060ff84160691505092915050565b5f63ffffffff821663ffffffff81036148c3576148c361488e565b6001600160a01b03858116825284166020820152604081018390526080606082018190525f90611440908301846140d0565b5f60208284031215614df7575f80fd5b81516122ec816140a0565b5f62ffffff821680614e1657614e1661488e565b5f190192915050565b8181038181111561093d5761093d61488e565b634e487b7160e01b5f52603160045260245ffdfea164736f6c634300081a000a60a0604052348015600e575f80fd5b506040516102d73803806102d7833981016040819052602b91603b565b6001600160a01b03166080526066565b5f60208284031215604a575f80fd5b81516001600160a01b0381168114605f575f80fd5b9392505050565b60805161024861008f5f395f8181603001528181606c0152818160bd015260f901526102485ff3fe608060405260043610610020575f3560e01c806390ea90ae146100a4575f80fd5b366100a057336001600160a01b037f0000000000000000000000000000000000000000000000000000000000000000161461009e57604051632439f07560e21b81526001600160a01b037f00000000000000000000000000000000000000000000000000000000000000001660048201526024015b60405180910390fd5b005b5f80fd5b61009e6100b23660046101e1565b336001600160a01b037f0000000000000000000000000000000000000000000000000000000000000000161461012657604051632439f07560e21b81526001600160a01b037f0000000000000000000000000000000000000000000000000000000000000000166004820152602401610095565b47818110156101525760405163cf47918160e01b81526004810182905260248101839052604401610095565b5f61015d3484610216565b90505f846001600160a01b0316826040515f6040518083038185875af1925050503d805f81146101a8576040519150601f19603f3d011682016040523d82523d5f602084013e6101ad565b606091505b50509050806101da57604051630d623c2560e01b81526001600160a01b0386166004820152602401610095565b5050505050565b5f80604083850312156101f2575f80fd5b82356001600160a01b0381168114610208575f80fd5b946020939093013593505050565b8082018082111561023557634e487b7160e01b5f52601160045260245ffd5b9291505056fea164736f6c634300081a000a","linkReferences":{}},"methodIdentifiers":{"SYSTEM_ADDRESS()":"3434735f","activate()":"0f15f4c0","allocateIssuance()":"355811a7","applyIncentives((address,uint232)[])":"b40e48b9","applySlashes((address,uint232)[])":"cdb1e214","approve(address,uint256)":"095ea7b3","balanceOf(address)":"70a08231","beginExit()":"2228dfa0","burn(address)":"89afcb44","claimStakeRewards(address)":"2b9f4985","concludeEpoch(address[])":"7b55a300","delegateStake(bytes,address,bytes)":"0cc1026b","delegationDigest(bytes,address,address)":"e3716d04","eip712Domain()":"84b0196e","getApproved(uint256)":"081812fc","getCurrentEpoch()":"b97dd9e2","getCurrentEpochInfo()":"babc394f","getCurrentStakeConfig()":"7d06fdf8","getEpochInfo(uint32)":"374ed18c","getRewards(address)":"79ee54f7","getValidatorByTokenId(uint256)":"aa680fe0","getValidatorTokenId(address)":"e36e10ad","getValidators(uint8)":"8cc05eda","isApprovedForAll(address,address)":"e985e9c5","isRetired(uint256)":"cf6ebee7","issuance()":"863623bb","mint(address,uint256)":"40c10f19","name()":"06fdde03","owner()":"8da5cb5b","ownerOf(uint256)":"6352211e","pause()":"8456cb59","paused()":"5c975abb","renounceOwnership()":"715018a6","safeTransferFrom(address,address,uint256)":"42842e0e","safeTransferFrom(address,address,uint256,bytes)":"b88d4fde","setApprovalForAll(address,bool)":"a22cb465","stake(bytes)":"2d1e0c02","stakeConfig(uint8)":"a71954ec","stakeInfo(address)":"1601e641","stakeVersion()":"568d312c","supportsInterface(bytes4)":"01ffc9a7","symbol()":"95d89b41","tokenURI(uint256)":"c87b56dd","totalSupply()":"18160ddd","transferFrom(address,address,uint256)":"23b872dd","transferOwnership(address)":"f2fde38b","unpause()":"3f4ba83a","unstake(address)":"f2888dbb","upgradeStakeVersion((uint232,uint232,uint232,uint32))":"9d302967"},"id":204}