{"abi":[{"type":"constructor","inputs":[{"name":"gateway_","type":"address","internalType":"address"},{"name":"gasService_","type":"address","internalType":"address"}],"stateMutability":"nonpayable"},{"type":"function","name":"callContract","inputs":[{"name":"destinationChain","type":"string","internalType":"string"},{"name":"destinationAddress","type":"string","internalType":"string"},{"name":"payload","type":"bytes","internalType":"bytes"},{"name":"metadataVersion","type":"uint8","internalType":"enum IGatewayCaller.MetadataVersion"},{"name":"gasValue","type":"uint256","internalType":"uint256"}],"outputs":[],"stateMutability":"payable"},{"type":"function","name":"gasService","inputs":[],"outputs":[{"name":"","type":"address","internalType":"contract IAxelarGasService"}],"stateMutability":"view"},{"type":"function","name":"gateway","inputs":[],"outputs":[{"name":"","type":"address","internalType":"contract IAxelarGateway"}],"stateMutability":"view"},{"type":"error","name":"InvalidMetadataVersion","inputs":[{"name":"metadataVersion","type":"uint32","internalType":"uint32"}]}],"bytecode":{"object":"0x60c0604052348015600e575f80fd5b5060405161056e38038061056e833981016040819052602b91605b565b6001600160a01b039182166080521660a0526087565b80516001600160a01b03811681146056575f80fd5b919050565b5f8060408385031215606b575f80fd5b6072836041565b9150607e602084016041565b90509250929050565b60805160a0516104b36100bb5f395f818160970152818161010301526101ab01525f81816048015261023f01526104b35ff3fe608060405260043610610033575f3560e01c8063116191b6146100375780636a22d8cc14610086578063bbf4f1bd146100b9575b5f80fd5b348015610042575f80fd5b5061006a7f000000000000000000000000000000000000000000000000000000000000000081565b6040516001600160a01b03909116815260200160405180910390f35b348015610091575f80fd5b5061006a7f000000000000000000000000000000000000000000000000000000000000000081565b6100cc6100c73660046102fa565b6100ce565b005b8015610228575f8260018111156100e7576100e76103b8565b0361017b57604051630c93e3bb60e01b81526001600160a01b037f00000000000000000000000000000000000000000000000000000000000000001690630c93e3bb9083906101489030908d908d908d908d908d908d9032906004016103f4565b5f604051808303818588803b15801561015f575f80fd5b505af1158015610171573d5f803e3d5ffd5b5050505050610228565b600182600181111561018f5761018f6103b8565b036101f057604051631ec3da4360e31b81526001600160a01b037f0000000000000000000000000000000000000000000000000000000000000000169063f61ed2189083906101489030908d908d908d908d908d908d9032906004016103f4565b816001811115610202576102026103b8565b60405163b47a9b4b60e01b815263ffffffff909116600482015260240160405180910390fd5b604051631c92115f60e01b81526001600160a01b037f00000000000000000000000000000000000000000000000000000000000000001690631c92115f9061027e908b908b908b908b908b908b9060040161045e565b5f604051808303815f87803b158015610295575f80fd5b505af11580156102a7573d5f803e3d5ffd5b505050505050505050505050565b5f8083601f8401126102c5575f80fd5b50813567ffffffffffffffff8111156102dc575f80fd5b6020830191508360208285010111156102f3575f80fd5b9250929050565b5f805f805f805f8060a0898b031215610311575f80fd5b883567ffffffffffffffff811115610327575f80fd5b6103338b828c016102b5565b909950975050602089013567ffffffffffffffff811115610352575f80fd5b61035e8b828c016102b5565b909750955050604089013567ffffffffffffffff81111561037d575f80fd5b6103898b828c016102b5565b9095509350506060890135600281106103a0575f80fd5b80925050608089013590509295985092959890939650565b634e487b7160e01b5f52602160045260245ffd5b81835281816020850137505f828201602090810191909152601f909101601f19169091010190565b6001600160a01b038916815260a0602082018190525f90610418908301898b6103cc565b828103604084015261042b81888a6103cc565b905082810360608401526104408186886103cc565b91505060018060a01b03831660808301529998505050505050505050565b606081525f61047160608301888a6103cc565b82810360208401526104848187896103cc565b905082810360408401526104998185876103cc565b999850505050505050505056fea164736f6c634300081a000a","linkReferences":{}},"methodIdentifiers":{"callContract(string,string,bytes,uint8,uint256)":"bbf4f1bd","gasService()":"6a22d8cc","gateway()":"116191b6"},"id":101}