{
  "abi": [
    {
      "type": "constructor",
      "inputs": [
        {
          "name": "tokenManagerDeployer_",
          "type": "address",
          "internalType": "address"
        },
        {
          "name": "interchainTokenDeployer_",
          "type": "address",
          "internalType": "address"
        },
        {
          "name": "gateway_",
          "type": "address",
          "internalType": "address"
        },
        {
          "name": "gasService_",
          "type": "address",
          "internalType": "address"
        },
        {
          "name": "interchainTokenFactory_",
          "type": "address",
          "internalType": "address"
        },
        {
          "name": "chainName_",
          "type": "string",
          "internalType": "string"
        },
        {
          "name": "tokenManagerImplementation_",
          "type": "address",
          "internalType": "address"
        },
        {
          "name": "tokenHandler_",
          "type": "address",
          "internalType": "address"
        },
        {
          "name": "gatewayCaller_",
          "type": "address",
          "internalType": "address"
        }
      ],
      "stateMutability": "nonpayable"
    },
    {
      "type": "function",
      "name": "acceptOperatorship",
      "inputs": [
        {
          "name": "fromOperator",
          "type": "address",
          "internalType": "address"
        }
      ],
      "outputs": [],
      "stateMutability": "nonpayable"
    },
    {
      "type": "function",
      "name": "acceptOwnership",
      "inputs": [],
      "outputs": [],
      "stateMutability": "nonpayable"
    },
    {
      "type": "function",
      "name": "chainName",
      "inputs": [],
      "outputs": [
        {
          "name": "chainName_",
          "type": "string",
          "internalType": "string"
        }
      ],
      "stateMutability": "view"
    },
    {
      "type": "function",
      "name": "chainNameHash",
      "inputs": [],
      "outputs": [
        {
          "name": "",
          "type": "bytes32",
          "internalType": "bytes32"
        }
      ],
      "stateMutability": "view"
    },
    {
      "type": "function",
      "name": "contractCallValue",
      "inputs": [
        {
          "name": "sourceChain",
          "type": "string",
          "internalType": "string"
        },
        {
          "name": "sourceAddress",
          "type": "string",
          "internalType": "string"
        },
        {
          "name": "payload",
          "type": "bytes",
          "internalType": "bytes"
        }
      ],
      "outputs": [
        {
          "name": "",
          "type": "address",
          "internalType": "address"
        },
        {
          "name": "",
          "type": "uint256",
          "internalType": "uint256"
        }
      ],
      "stateMutability": "view"
    },
    {
      "type": "function",
      "name": "contractId",
      "inputs": [],
      "outputs": [
        {
          "name": "",
          "type": "bytes32",
          "internalType": "bytes32"
        }
      ],
      "stateMutability": "pure"
    },
    {
      "type": "function",
      "name": "deployInterchainToken",
      "inputs": [
        {
          "name": "salt",
          "type": "bytes32",
          "internalType": "bytes32"
        },
        {
          "name": "destinationChain",
          "type": "string",
          "internalType": "string"
        },
        {
          "name": "name",
          "type": "string",
          "internalType": "string"
        },
        {
          "name": "symbol",
          "type": "string",
          "internalType": "string"
        },
        {
          "name": "decimals",
          "type": "uint8",
          "internalType": "uint8"
        },
        {
          "name": "minter",
          "type": "bytes",
          "internalType": "bytes"
        },
        {
          "name": "gasValue",
          "type": "uint256",
          "internalType": "uint256"
        }
      ],
      "outputs": [
        {
          "name": "tokenId",
          "type": "bytes32",
          "internalType": "bytes32"
        }
      ],
      "stateMutability": "payable"
    },
    {
      "type": "function",
      "name": "deployedTokenManager",
      "inputs": [
        {
          "name": "tokenId",
          "type": "bytes32",
          "internalType": "bytes32"
        }
      ],
      "outputs": [
        {
          "name": "tokenManager_",
          "type": "address",
          "internalType": "contract ITokenManager"
        }
      ],
      "stateMutability": "view"
    },
    {
      "type": "function",
      "name": "execute",
      "inputs": [
        {
          "name": "commandId",
          "type": "bytes32",
          "internalType": "bytes32"
        },
        {
          "name": "sourceChain",
          "type": "string",
          "internalType": "string"
        },
        {
          "name": "sourceAddress",
          "type": "string",
          "internalType": "string"
        },
        {
          "name": "payload",
          "type": "bytes",
          "internalType": "bytes"
        }
      ],
      "outputs": [],
      "stateMutability": "nonpayable"
    },
    {
      "type": "function",
      "name": "expressExecute",
      "inputs": [
        {
          "name": "commandId",
          "type": "bytes32",
          "internalType": "bytes32"
        },
        {
          "name": "sourceChain",
          "type": "string",
          "internalType": "string"
        },
        {
          "name": "sourceAddress",
          "type": "string",
          "internalType": "string"
        },
        {
          "name": "payload",
          "type": "bytes",
          "internalType": "bytes"
        }
      ],
      "outputs": [],
      "stateMutability": "payable"
    },
    {
      "type": "function",
      "name": "gasService",
      "inputs": [],
      "outputs": [
        {
          "name": "",
          "type": "address",
          "internalType": "contract IAxelarGasService"
        }
      ],
      "stateMutability": "view"
    },
    {
      "type": "function",
      "name": "gateway",
      "inputs": [],
      "outputs": [
        {
          "name": "",
          "type": "address",
          "internalType": "contract IAxelarGateway"
        }
      ],
      "stateMutability": "view"
    },
    {
      "type": "function",
      "name": "gatewayCaller",
      "inputs": [],
      "outputs": [
        {
          "name": "",
          "type": "address",
          "internalType": "address"
        }
      ],
      "stateMutability": "view"
    },
    {
      "type": "function",
      "name": "getExpressExecutor",
      "inputs": [
        {
          "name": "commandId",
          "type": "bytes32",
          "internalType": "bytes32"
        },
        {
          "name": "sourceChain",
          "type": "string",
          "internalType": "string"
        },
        {
          "name": "sourceAddress",
          "type": "string",
          "internalType": "string"
        },
        {
          "name": "payloadHash",
          "type": "bytes32",
          "internalType": "bytes32"
        }
      ],
      "outputs": [
        {
          "name": "expressExecutor",
          "type": "address",
          "internalType": "address"
        }
      ],
      "stateMutability": "view"
    },
    {
      "type": "function",
      "name": "hasRole",
      "inputs": [
        {
          "name": "account",
          "type": "address",
          "internalType": "address"
        },
        {
          "name": "role",
          "type": "uint8",
          "internalType": "uint8"
        }
      ],
      "outputs": [
        {
          "name": "",
          "type": "bool",
          "internalType": "bool"
        }
      ],
      "stateMutability": "view"
    },
    {
      "type": "function",
      "name": "implementation",
      "inputs": [],
      "outputs": [
        {
          "name": "implementation_",
          "type": "address",
          "internalType": "address"
        }
      ],
      "stateMutability": "view"
    },
    {
      "type": "function",
      "name": "interchainTokenAddress",
      "inputs": [
        {
          "name": "tokenId",
          "type": "bytes32",
          "internalType": "bytes32"
        }
      ],
      "outputs": [
        {
          "name": "tokenAddress",
          "type": "address",
          "internalType": "address"
        }
      ],
      "stateMutability": "view"
    },
    {
      "type": "function",
      "name": "interchainTokenDeployer",
      "inputs": [],
      "outputs": [
        {
          "name": "",
          "type": "address",
          "internalType": "address"
        }
      ],
      "stateMutability": "view"
    },
    {
      "type": "function",
      "name": "interchainTokenFactory",
      "inputs": [],
      "outputs": [
        {
          "name": "",
          "type": "address",
          "internalType": "address"
        }
      ],
      "stateMutability": "view"
    },
    {
      "type": "function",
      "name": "interchainTokenId",
      "inputs": [
        {
          "name": "sender",
          "type": "address",
          "internalType": "address"
        },
        {
          "name": "salt",
          "type": "bytes32",
          "internalType": "bytes32"
        }
      ],
      "outputs": [
        {
          "name": "tokenId",
          "type": "bytes32",
          "internalType": "bytes32"
        }
      ],
      "stateMutability": "pure"
    },
    {
      "type": "function",
      "name": "interchainTransfer",
      "inputs": [
        {
          "name": "tokenId",
          "type": "bytes32",
          "internalType": "bytes32"
        },
        {
          "name": "destinationChain",
          "type": "string",
          "internalType": "string"
        },
        {
          "name": "destinationAddress",
          "type": "bytes",
          "internalType": "bytes"
        },
        {
          "name": "amount",
          "type": "uint256",
          "internalType": "uint256"
        },
        {
          "name": "metadata",
          "type": "bytes",
          "internalType": "bytes"
        },
        {
          "name": "gasValue",
          "type": "uint256",
          "internalType": "uint256"
        }
      ],
      "outputs": [],
      "stateMutability": "payable"
    },
    {
      "type": "function",
      "name": "isOperator",
      "inputs": [
        {
          "name": "addr",
          "type": "address",
          "internalType": "address"
        }
      ],
      "outputs": [
        {
          "name": "",
          "type": "bool",
          "internalType": "bool"
        }
      ],
      "stateMutability": "view"
    },
    {
      "type": "function",
      "name": "isTrustedAddress",
      "inputs": [
        {
          "name": "chain",
          "type": "string",
          "internalType": "string"
        },
        {
          "name": "address_",
          "type": "string",
          "internalType": "string"
        }
      ],
      "outputs": [
        {
          "name": "",
          "type": "bool",
          "internalType": "bool"
        }
      ],
      "stateMutability": "view"
    },
    {
      "type": "function",
      "name": "linkToken",
      "inputs": [
        {
          "name": "salt",
          "type": "bytes32",
          "internalType": "bytes32"
        },
        {
          "name": "destinationChain",
          "type": "string",
          "internalType": "string"
        },
        {
          "name": "destinationTokenAddress",
          "type": "bytes",
          "internalType": "bytes"
        },
        {
          "name": "tokenManagerType",
          "type": "uint8",
          "internalType": "enum ITokenManagerType.TokenManagerType"
        },
        {
          "name": "linkParams",
          "type": "bytes",
          "internalType": "bytes"
        },
        {
          "name": "gasValue",
          "type": "uint256",
          "internalType": "uint256"
        }
      ],
      "outputs": [
        {
          "name": "tokenId",
          "type": "bytes32",
          "internalType": "bytes32"
        }
      ],
      "stateMutability": "payable"
    },
    {
      "type": "function",
      "name": "migrateInterchainToken",
      "inputs": [
        {
          "name": "tokenId",
          "type": "bytes32",
          "internalType": "bytes32"
        }
      ],
      "outputs": [],
      "stateMutability": "nonpayable"
    },
    {
      "type": "function",
      "name": "multicall",
      "inputs": [
        {
          "name": "data",
          "type": "bytes[]",
          "internalType": "bytes[]"
        }
      ],
      "outputs": [
        {
          "name": "results",
          "type": "bytes[]",
          "internalType": "bytes[]"
        }
      ],
      "stateMutability": "payable"
    },
    {
      "type": "function",
      "name": "owner",
      "inputs": [],
      "outputs": [
        {
          "name": "owner_",
          "type": "address",
          "internalType": "address"
        }
      ],
      "stateMutability": "view"
    },
    {
      "type": "function",
      "name": "paused",
      "inputs": [],
      "outputs": [
        {
          "name": "paused_",
          "type": "bool",
          "internalType": "bool"
        }
      ],
      "stateMutability": "view"
    },
    {
      "type": "function",
      "name": "pendingOwner",
      "inputs": [],
      "outputs": [
        {
          "name": "owner_",
          "type": "address",
          "internalType": "address"
        }
      ],
      "stateMutability": "view"
    },
    {
      "type": "function",
      "name": "proposeOperatorship",
      "inputs": [
        {
          "name": "operator",
          "type": "address",
          "internalType": "address"
        }
      ],
      "outputs": [],
      "stateMutability": "nonpayable"
    },
    {
      "type": "function",
      "name": "proposeOwnership",
      "inputs": [
        {
          "name": "newOwner",
          "type": "address",
          "internalType": "address"
        }
      ],
      "outputs": [],
      "stateMutability": "nonpayable"
    },
    {
      "type": "function",
      "name": "registerCustomToken",
      "inputs": [
        {
          "name": "salt",
          "type": "bytes32",
          "internalType": "bytes32"
        },
        {
          "name": "tokenAddress",
          "type": "address",
          "internalType": "address"
        },
        {
          "name": "tokenManagerType",
          "type": "uint8",
          "internalType": "enum ITokenManagerType.TokenManagerType"
        },
        {
          "name": "linkParams",
          "type": "bytes",
          "internalType": "bytes"
        }
      ],
      "outputs": [
        {
          "name": "tokenId",
          "type": "bytes32",
          "internalType": "bytes32"
        }
      ],
      "stateMutability": "payable"
    },
    {
      "type": "function",
      "name": "registerTokenMetadata",
      "inputs": [
        {
          "name": "tokenAddress",
          "type": "address",
          "internalType": "address"
        },
        {
          "name": "gasValue",
          "type": "uint256",
          "internalType": "uint256"
        }
      ],
      "outputs": [],
      "stateMutability": "payable"
    },
    {
      "type": "function",
      "name": "registeredTokenAddress",
      "inputs": [
        {
          "name": "tokenId",
          "type": "bytes32",
          "internalType": "bytes32"
        }
      ],
      "outputs": [
        {
          "name": "tokenAddress",
          "type": "address",
          "internalType": "address"
        }
      ],
      "stateMutability": "view"
    },
    {
      "type": "function",
      "name": "removeTrustedAddress",
      "inputs": [
        {
          "name": "chain",
          "type": "string",
          "internalType": "string"
        }
      ],
      "outputs": [],
      "stateMutability": "nonpayable"
    },
    {
      "type": "function",
      "name": "setFlowLimits",
      "inputs": [
        {
          "name": "tokenIds",
          "type": "bytes32[]",
          "internalType": "bytes32[]"
        },
        {
          "name": "flowLimits",
          "type": "uint256[]",
          "internalType": "uint256[]"
        }
      ],
      "outputs": [],
      "stateMutability": "nonpayable"
    },
    {
      "type": "function",
      "name": "setPauseStatus",
      "inputs": [
        {
          "name": "paused",
          "type": "bool",
          "internalType": "bool"
        }
      ],
      "outputs": [],
      "stateMutability": "nonpayable"
    },
    {
      "type": "function",
      "name": "setTrustedAddress",
      "inputs": [
        {
          "name": "chain",
          "type": "string",
          "internalType": "string"
        },
        {
          "name": "address_",
          "type": "string",
          "internalType": "string"
        }
      ],
      "outputs": [],
      "stateMutability": "nonpayable"
    },
    {
      "type": "function",
      "name": "setup",
      "inputs": [
        {
          "name": "data",
          "type": "bytes",
          "internalType": "bytes"
        }
      ],
      "outputs": [],
      "stateMutability": "nonpayable"
    },
    {
      "type": "function",
      "name": "tokenHandler",
      "inputs": [],
      "outputs": [
        {
          "name": "",
          "type": "address",
          "internalType": "address"
        }
      ],
      "stateMutability": "view"
    },
    {
      "type": "function",
      "name": "tokenManager",
      "inputs": [],
      "outputs": [
        {
          "name": "",
          "type": "address",
          "internalType": "address"
        }
      ],
      "stateMutability": "view"
    },
    {
      "type": "function",
      "name": "tokenManagerAddress",
      "inputs": [
        {
          "name": "tokenId",
          "type": "bytes32",
          "internalType": "bytes32"
        }
      ],
      "outputs": [
        {
          "name": "tokenManagerAddress_",
          "type": "address",
          "internalType": "address"
        }
      ],
      "stateMutability": "view"
    },
    {
      "type": "function",
      "name": "tokenManagerDeployer",
      "inputs": [],
      "outputs": [
        {
          "name": "",
          "type": "address",
          "internalType": "address"
        }
      ],
      "stateMutability": "view"
    },
    {
      "type": "function",
      "name": "tokenManagerImplementation",
      "inputs": [
        {
          "name": "",
          "type": "uint256",
          "internalType": "uint256"
        }
      ],
      "outputs": [
        {
          "name": "",
          "type": "address",
          "internalType": "address"
        }
      ],
      "stateMutability": "view"
    },
    {
      "type": "function",
      "name": "transferOperatorship",
      "inputs": [
        {
          "name": "operator",
          "type": "address",
          "internalType": "address"
        }
      ],
      "outputs": [],
      "stateMutability": "nonpayable"
    },
    {
      "type": "function",
      "name": "transferOwnership",
      "inputs": [
        {
          "name": "newOwner",
          "type": "address",
          "internalType": "address"
        }
      ],
      "outputs": [],
      "stateMutability": "nonpayable"
    },
    {
      "type": "function",
      "name": "transmitInterchainTransfer",
      "inputs": [
        {
          "name": "tokenId",
          "type": "bytes32",
          "internalType": "bytes32"
        },
        {
          "name": "sourceAddress",
          "type": "address",
          "internalType": "address"
        },
        {
          "name": "destinationChain",
          "type": "string",
          "internalType": "string"
        },
        {
          "name": "destinationAddress",
          "type": "bytes",
          "internalType": "bytes"
        },
        {
          "name": "amount",
          "type": "uint256",
          "internalType": "uint256"
        },
        {
          "name": "metadata",
          "type": "bytes",
          "internalType": "bytes"
        }
      ],
      "outputs": [],
      "stateMutability": "payable"
    },
    {
      "type": "function",
      "name": "trustedAddress",
      "inputs": [
        {
          "name": "chain",
          "type": "string",
          "internalType": "string"
        }
      ],
      "outputs": [
        {
          "name": "trustedAddress_",
          "type": "string",
          "internalType": "string"
        }
      ],
      "stateMutability": "view"
    },
    {
      "type": "function",
      "name": "trustedAddressHash",
      "inputs": [
        {
          "name": "chain",
          "type": "string",
          "internalType": "string"
        }
      ],
      "outputs": [
        {
          "name": "trustedAddressHash_",
          "type": "bytes32",
          "internalType": "bytes32"
        }
      ],
      "stateMutability": "view"
    },
    {
      "type": "function",
      "name": "upgrade",
      "inputs": [
        {
          "name": "newImplementation",
          "type": "address",
          "internalType": "address"
        },
        {
          "name": "newImplementationCodeHash",
          "type": "bytes32",
          "internalType": "bytes32"
        },
        {
          "name": "params",
          "type": "bytes",
          "internalType": "bytes"
        }
      ],
      "outputs": [],
      "stateMutability": "nonpayable"
    },
    {
      "type": "event",
      "name": "ExpressExecuted",
      "inputs": [
        {
          "name": "commandId",
          "type": "bytes32",
          "indexed": true,
          "internalType": "bytes32"
        },
        {
          "name": "sourceChain",
          "type": "string",
          "indexed": false,
          "internalType": "string"
        },
        {
          "name": "sourceAddress",
          "type": "string",
          "indexed": false,
          "internalType": "string"
        },
        {
          "name": "payloadHash",
          "type": "bytes32",
          "indexed": false,
          "internalType": "bytes32"
        },
        {
          "name": "expressExecutor",
          "type": "address",
          "indexed": true,
          "internalType": "address"
        }
      ],
      "anonymous": false
    },
    {
      "type": "event",
      "name": "ExpressExecutionFulfilled",
      "inputs": [
        {
          "name": "commandId",
          "type": "bytes32",
          "indexed": true,
          "internalType": "bytes32"
        },
        {
          "name": "sourceChain",
          "type": "string",
          "indexed": false,
          "internalType": "string"
        },
        {
          "name": "sourceAddress",
          "type": "string",
          "indexed": false,
          "internalType": "string"
        },
        {
          "name": "payloadHash",
          "type": "bytes32",
          "indexed": false,
          "internalType": "bytes32"
        },
        {
          "name": "expressExecutor",
          "type": "address",
          "indexed": true,
          "internalType": "address"
        }
      ],
      "anonymous": false
    },
    {
      "type": "event",
      "name": "InterchainTokenDeployed",
      "inputs": [
        {
          "name": "tokenId",
          "type": "bytes32",
          "indexed": true,
          "internalType": "bytes32"
        },
        {
          "name": "tokenAddress",
          "type": "address",
          "indexed": false,
          "internalType": "address"
        },
        {
          "name": "minter",
          "type": "address",
          "indexed": true,
          "internalType": "address"
        },
        {
          "name": "name",
          "type": "string",
          "indexed": false,
          "internalType": "string"
        },
        {
          "name": "symbol",
          "type": "string",
          "indexed": false,
          "internalType": "string"
        },
        {
          "name": "decimals",
          "type": "uint8",
          "indexed": false,
          "internalType": "uint8"
        }
      ],
      "anonymous": false
    },
    {
      "type": "event",
      "name": "InterchainTokenDeploymentStarted",
      "inputs": [
        {
          "name": "tokenId",
          "type": "bytes32",
          "indexed": true,
          "internalType": "bytes32"
        },
        {
          "name": "tokenName",
          "type": "string",
          "indexed": false,
          "internalType": "string"
        },
        {
          "name": "tokenSymbol",
          "type": "string",
          "indexed": false,
          "internalType": "string"
        },
        {
          "name": "tokenDecimals",
          "type": "uint8",
          "indexed": false,
          "internalType": "uint8"
        },
        {
          "name": "minter",
          "type": "bytes",
          "indexed": false,
          "internalType": "bytes"
        },
        {
          "name": "destinationChain",
          "type": "string",
          "indexed": false,
          "internalType": "string"
        }
      ],
      "anonymous": false
    },
    {
      "type": "event",
      "name": "InterchainTokenIdClaimed",
      "inputs": [
        {
          "name": "tokenId",
          "type": "bytes32",
          "indexed": true,
          "internalType": "bytes32"
        },
        {
          "name": "deployer",
          "type": "address",
          "indexed": true,
          "internalType": "address"
        },
        {
          "name": "salt",
          "type": "bytes32",
          "indexed": true,
          "internalType": "bytes32"
        }
      ],
      "anonymous": false
    },
    {
      "type": "event",
      "name": "InterchainTransfer",
      "inputs": [
        {
          "name": "tokenId",
          "type": "bytes32",
          "indexed": true,
          "internalType": "bytes32"
        },
        {
          "name": "sourceAddress",
          "type": "address",
          "indexed": true,
          "internalType": "address"
        },
        {
          "name": "destinationChain",
          "type": "string",
          "indexed": false,
          "internalType": "string"
        },
        {
          "name": "destinationAddress",
          "type": "bytes",
          "indexed": false,
          "internalType": "bytes"
        },
        {
          "name": "amount",
          "type": "uint256",
          "indexed": false,
          "internalType": "uint256"
        },
        {
          "name": "dataHash",
          "type": "bytes32",
          "indexed": true,
          "internalType": "bytes32"
        }
      ],
      "anonymous": false
    },
    {
      "type": "event",
      "name": "InterchainTransferReceived",
      "inputs": [
        {
          "name": "commandId",
          "type": "bytes32",
          "indexed": true,
          "internalType": "bytes32"
        },
        {
          "name": "tokenId",
          "type": "bytes32",
          "indexed": true,
          "internalType": "bytes32"
        },
        {
          "name": "sourceChain",
          "type": "string",
          "indexed": false,
          "internalType": "string"
        },
        {
          "name": "sourceAddress",
          "type": "bytes",
          "indexed": false,
          "internalType": "bytes"
        },
        {
          "name": "destinationAddress",
          "type": "address",
          "indexed": true,
          "internalType": "address"
        },
        {
          "name": "amount",
          "type": "uint256",
          "indexed": false,
          "internalType": "uint256"
        },
        {
          "name": "dataHash",
          "type": "bytes32",
          "indexed": false,
          "internalType": "bytes32"
        }
      ],
      "anonymous": false
    },
    {
      "type": "event",
      "name": "LinkTokenStarted",
      "inputs": [
        {
          "name": "tokenId",
          "type": "bytes32",
          "indexed": true,
          "internalType": "bytes32"
        },
        {
          "name": "destinationChain",
          "type": "string",
          "indexed": false,
          "internalType": "string"
        },
        {
          "name": "sourceTokenAddress",
          "type": "bytes",
          "indexed": false,
          "internalType": "bytes"
        },
        {
          "name": "destinationTokenAddress",
          "type": "bytes",
          "indexed": false,
          "internalType": "bytes"
        },
        {
          "name": "tokenManagerType",
          "type": "uint8",
          "indexed": true,
          "internalType": "enum ITokenManagerType.TokenManagerType"
        },
        {
          "name": "params",
          "type": "bytes",
          "indexed": false,
          "internalType": "bytes"
        }
      ],
      "anonymous": false
    },
    {
      "type": "event",
      "name": "OwnershipTransferStarted",
      "inputs": [
        {
          "name": "newOwner",
          "type": "address",
          "indexed": true,
          "internalType": "address"
        }
      ],
      "anonymous": false
    },
    {
      "type": "event",
      "name": "OwnershipTransferred",
      "inputs": [
        {
          "name": "newOwner",
          "type": "address",
          "indexed": true,
          "internalType": "address"
        }
      ],
      "anonymous": false
    },
    {
      "type": "event",
      "name": "Paused",
      "inputs": [
        {
          "name": "account",
          "type": "address",
          "indexed": true,
          "internalType": "address"
        }
      ],
      "anonymous": false
    },
    {
      "type": "event",
      "name": "RolesAdded",
      "inputs": [
        {
          "name": "account",
          "type": "address",
          "indexed": true,
          "internalType": "address"
        },
        {
          "name": "accountRoles",
          "type": "uint256",
          "indexed": false,
          "internalType": "uint256"
        }
      ],
      "anonymous": false
    },
    {
      "type": "event",
      "name": "RolesProposed",
      "inputs": [
        {
          "name": "fromAccount",
          "type": "address",
          "indexed": true,
          "internalType": "address"
        },
        {
          "name": "toAccount",
          "type": "address",
          "indexed": true,
          "internalType": "address"
        },
        {
          "name": "accountRoles",
          "type": "uint256",
          "indexed": false,
          "internalType": "uint256"
        }
      ],
      "anonymous": false
    },
    {
      "type": "event",
      "name": "RolesRemoved",
      "inputs": [
        {
          "name": "account",
          "type": "address",
          "indexed": true,
          "internalType": "address"
        },
        {
          "name": "accountRoles",
          "type": "uint256",
          "indexed": false,
          "internalType": "uint256"
        }
      ],
      "anonymous": false
    },
    {
      "type": "event",
      "name": "TokenManagerDeployed",
      "inputs": [
        {
          "name": "tokenId",
          "type": "bytes32",
          "indexed": true,
          "internalType": "bytes32"
        },
        {
          "name": "tokenManager",
          "type": "address",
          "indexed": false,
          "internalType": "address"
        },
        {
          "name": "tokenManagerType",
          "type": "uint8",
          "indexed": true,
          "internalType": "enum ITokenManagerType.TokenManagerType"
        },
        {
          "name": "params",
          "type": "bytes",
          "indexed": false,
          "internalType": "bytes"
        }
      ],
      "anonymous": false
    },
    {
      "type": "event",
      "name": "TokenMetadataRegistered",
      "inputs": [
        {
          "name": "tokenAddress",
          "type": "address",
          "indexed": true,
          "internalType": "address"
        },
        {
          "name": "decimals",
          "type": "uint8",
          "indexed": false,
          "internalType": "uint8"
        }
      ],
      "anonymous": false
    },
    {
      "type": "event",
      "name": "TrustedAddressRemoved",
      "inputs": [
        {
          "name": "chain",
          "type": "string",
          "indexed": false,
          "internalType": "string"
        }
      ],
      "anonymous": false
    },
    {
      "type": "event",
      "name": "TrustedAddressSet",
      "inputs": [
        {
          "name": "chain",
          "type": "string",
          "indexed": false,
          "internalType": "string"
        },
        {
          "name": "address_",
          "type": "string",
          "indexed": false,
          "internalType": "string"
        }
      ],
      "anonymous": false
    },
    {
      "type": "event",
      "name": "Unpaused",
      "inputs": [
        {
          "name": "account",
          "type": "address",
          "indexed": true,
          "internalType": "address"
        }
      ],
      "anonymous": false
    },
    {
      "type": "event",
      "name": "Upgraded",
      "inputs": [
        {
          "name": "newImplementation",
          "type": "address",
          "indexed": true,
          "internalType": "address"
        }
      ],
      "anonymous": false
    },
    {
      "type": "error",
      "name": "AlreadyExecuted",
      "inputs": []
    },
    {
      "type": "error",
      "name": "CannotDeploy",
      "inputs": [
        {
          "name": "",
          "type": "uint8",
          "internalType": "enum ITokenManagerType.TokenManagerType"
        }
      ]
    },
    {
      "type": "error",
      "name": "CannotDeployRemotelyToSelf",
      "inputs": []
    },
    {
      "type": "error",
      "name": "EmptyData",
      "inputs": []
    },
    {
      "type": "error",
      "name": "EmptyDestinationAddress",
      "inputs": []
    },
    {
      "type": "error",
      "name": "EmptyParams",
      "inputs": []
    },
    {
      "type": "error",
      "name": "EmptyTokenAddress",
      "inputs": []
    },
    {
      "type": "error",
      "name": "EmptyTokenName",
      "inputs": []
    },
    {
      "type": "error",
      "name": "EmptyTokenSymbol",
      "inputs": []
    },
    {
      "type": "error",
      "name": "ExecuteWithInterchainTokenFailed",
      "inputs": [
        {
          "name": "contractAddress",
          "type": "address",
          "internalType": "address"
        }
      ]
    },
    {
      "type": "error",
      "name": "ExpressExecuteWithInterchainTokenFailed",
      "inputs": [
        {
          "name": "contractAddress",
          "type": "address",
          "internalType": "address"
        }
      ]
    },
    {
      "type": "error",
      "name": "ExpressExecutorAlreadySet",
      "inputs": []
    },
    {
      "type": "error",
      "name": "GatewayCallFailed",
      "inputs": [
        {
          "name": "data",
          "type": "bytes",
          "internalType": "bytes"
        }
      ]
    },
    {
      "type": "error",
      "name": "GiveTokenFailed",
      "inputs": [
        {
          "name": "data",
          "type": "bytes",
          "internalType": "bytes"
        }
      ]
    },
    {
      "type": "error",
      "name": "InsufficientValue",
      "inputs": []
    },
    {
      "type": "error",
      "name": "InterchainTokenDeploymentFailed",
      "inputs": [
        {
          "name": "error",
          "type": "bytes",
          "internalType": "bytes"
        }
      ]
    },
    {
      "type": "error",
      "name": "InvalidAddress",
      "inputs": []
    },
    {
      "type": "error",
      "name": "InvalidBytesLength",
      "inputs": [
        {
          "name": "bytesAddress",
          "type": "bytes",
          "internalType": "bytes"
        }
      ]
    },
    {
      "type": "error",
      "name": "InvalidChainName",
      "inputs": []
    },
    {
      "type": "error",
      "name": "InvalidCodeHash",
      "inputs": []
    },
    {
      "type": "error",
      "name": "InvalidExpressMessageType",
      "inputs": [
        {
          "name": "messageType",
          "type": "uint256",
          "internalType": "uint256"
        }
      ]
    },
    {
      "type": "error",
      "name": "InvalidImplementation",
      "inputs": []
    },
    {
      "type": "error",
      "name": "InvalidMessageType",
      "inputs": [
        {
          "name": "messageType",
          "type": "uint256",
          "internalType": "uint256"
        }
      ]
    },
    {
      "type": "error",
      "name": "InvalidMetadataVersion",
      "inputs": [
        {
          "name": "version",
          "type": "uint32",
          "internalType": "uint32"
        }
      ]
    },
    {
      "type": "error",
      "name": "InvalidOwner",
      "inputs": []
    },
    {
      "type": "error",
      "name": "InvalidOwnerAddress",
      "inputs": []
    },
    {
      "type": "error",
      "name": "InvalidPayload",
      "inputs": []
    },
    {
      "type": "error",
      "name": "InvalidProposedRoles",
      "inputs": [
        {
          "name": "fromAccount",
          "type": "address",
          "internalType": "address"
        },
        {
          "name": "toAccount",
          "type": "address",
          "internalType": "address"
        },
        {
          "name": "accountRoles",
          "type": "uint256",
          "internalType": "uint256"
        }
      ]
    },
    {
      "type": "error",
      "name": "LengthMismatch",
      "inputs": []
    },
    {
      "type": "error",
      "name": "MissingAllRoles",
      "inputs": [
        {
          "name": "account",
          "type": "address",
          "internalType": "address"
        },
        {
          "name": "accountRoles",
          "type": "uint256",
          "internalType": "uint256"
        }
      ]
    },
    {
      "type": "error",
      "name": "MissingAnyOfRoles",
      "inputs": [
        {
          "name": "account",
          "type": "address",
          "internalType": "address"
        },
        {
          "name": "accountRoles",
          "type": "uint256",
          "internalType": "uint256"
        }
      ]
    },
    {
      "type": "error",
      "name": "MissingRole",
      "inputs": [
        {
          "name": "account",
          "type": "address",
          "internalType": "address"
        },
        {
          "name": "role",
          "type": "uint8",
          "internalType": "uint8"
        }
      ]
    },
    {
      "type": "error",
      "name": "MulticallFailed",
      "inputs": []
    },
    {
      "type": "error",
      "name": "NotApprovedByGateway",
      "inputs": []
    },
    {
      "type": "error",
      "name": "NotInterchainTokenFactory",
      "inputs": [
        {
          "name": "sender",
          "type": "address",
          "internalType": "address"
        }
      ]
    },
    {
      "type": "error",
      "name": "NotOwner",
      "inputs": []
    },
    {
      "type": "error",
      "name": "NotPaused",
      "inputs": []
    },
    {
      "type": "error",
      "name": "NotProxy",
      "inputs": []
    },
    {
      "type": "error",
      "name": "NotRemoteService",
      "inputs": []
    },
    {
      "type": "error",
      "name": "NotSupported",
      "inputs": []
    },
    {
      "type": "error",
      "name": "Pause",
      "inputs": []
    },
    {
      "type": "error",
      "name": "PostDeployFailed",
      "inputs": [
        {
          "name": "data",
          "type": "bytes",
          "internalType": "bytes"
        }
      ]
    },
    {
      "type": "error",
      "name": "SetupFailed",
      "inputs": []
    },
    {
      "type": "error",
      "name": "TakeTokenFailed",
      "inputs": [
        {
          "name": "data",
          "type": "bytes",
          "internalType": "bytes"
        }
      ]
    },
    {
      "type": "error",
      "name": "TokenHandlerFailed",
      "inputs": [
        {
          "name": "data",
          "type": "bytes",
          "internalType": "bytes"
        }
      ]
    },
    {
      "type": "error",
      "name": "TokenManagerDeploymentFailed",
      "inputs": [
        {
          "name": "error",
          "type": "bytes",
          "internalType": "bytes"
        }
      ]
    },
    {
      "type": "error",
      "name": "TokenManagerDoesNotExist",
      "inputs": [
        {
          "name": "tokenId",
          "type": "bytes32",
          "internalType": "bytes32"
        }
      ]
    },
    {
      "type": "error",
      "name": "UntrustedChain",
      "inputs": []
    },
    {
      "type": "error",
      "name": "ZeroAddress",
      "inputs": []
    },
    {
      "type": "error",
      "name": "ZeroAmount",
      "inputs": []
    },
    {
      "type": "error",
      "name": "ZeroStringLength",
      "inputs": []
    }
  ],
  "bytecode": {
    "object": "0x6101c0604052348015610010575f80fd5b50604051615c73380380615c7383398101604081905261002f91610232565b600161003a81610162565b50306080526001600160a01b038616158061005c57506001600160a01b038916155b8061006e57506001600160a01b038816155b8061008057506001600160a01b038716155b8061009257506001600160a01b038516155b806100a457506001600160a01b038316155b806100b657506001600160a01b038216155b806100c857506001600160a01b038116155b156100e65760405163d92e233d60e01b815260040160405180910390fd5b6001600160a01b0380881660a05286811660c0528981166101405288811661012052851660e05283515f0361012e57604051630470832760e11b815260040160405180910390fd5b8351602090940193909320610100526001600160a01b0391821661016052811661018052166101a0525061037a9350505050565b6001600160a01b03811661018957604051633649397d60e21b815260040160405180910390fd5b6040516001600160a01b038216907f04dba622d284ed0014ee4b9a6a68386be1a4c08a4913ae272de89199cc686163905f90a27f02016836a56b71f0d02689e69e326f4f4c1b9057164ef592671cf0d37c8040c0555f7f9855384122b55936fbfb8ca5120e63c6537a1ac40caf6ae33502b3c5da8c87d155565b80516001600160a01b0381168114610219575f80fd5b919050565b634e487b7160e01b5f52604160045260245ffd5b5f805f805f805f805f6101208a8c03121561024b575f80fd5b6102548a610203565b985061026260208b01610203565b975061027060408b01610203565b965061027e60608b01610203565b955061028c60808b01610203565b60a08b01519095506001600160401b038111156102a7575f80fd5b8a01601f81018c136102b7575f80fd5b80516001600160401b038111156102d0576102d061021e565b604051601f8201601f19908116603f011681016001600160401b03811182821017156102fe576102fe61021e565b6040528181528282016020018e1015610315575f80fd5b5f5b8281101561033357602081850181015183830182015201610317565b505f6020838301015280965050505061034e60c08b01610203565b925061035c60e08b01610203565b915061036b6101008b01610203565b90509295985092959850929598565b60805160a05160c05160e05161010051610120516101405161016051610180516101a05161581a6104595f395f81816102d4015261280401525f8181610378015281816122620152818161246301528181612f090152613bbb01525f81816103cc015261063701525f81816105550152612e1201525f818161047d0152612ca201525f81816106ed01528181610a9701528181611cad015261299301525f818161087701528181610adf01528181611be40152611d9801525f61052201525f818161034501528181610e260152610fcf01525f6114bf015261581a5ff3fe6080604052600436106102bf575f3560e01c806383d296961161016f578063c7e6a3cc116100d8578063e30c397811610092578063f49c044a1161006d578063f49c044a1461095b578063f6e3a2291461096e578063f8c8a8261461098d578063ffd5982a146109ac575f80fd5b8063e30c3978146108fd578063e82e71f81461091d578063f2fde38b1461093c575f80fd5b8063c7e6a3cc14610847578063ca58b64414610866578063da081c7314610899578063da4886df146108ac578063dc88dfd1146108cb578063e1d40c77146108ea575f80fd5b8063a3499c7311610129578063a3499c731461078c578063a5269ef1146107ab578063ac9650d8146107ca578063b90d6afd146107ea578063c38bb53714610809578063c506bff414610828575f80fd5b806383d296961461069e578063864a0dcf146106dc5780638da5cb5b1461070f57806395a8c58d1461072f5780639ded06df1461074e5780639f409d771461076d575f80fd5b80635c975abb1161022b57806370756cde116101e55780637e10eb15116101c05780637e10eb15146105fb5780637e151fa61461061a5780637fb53dc9146106595780638291286c1461066c575f80fd5b806370756cde146105b5578063710bf322146105c857806379ba5097146105e7575f80fd5b80635c975abb146104d257806365657636146104fe5780636a22d8cc146105115780636ac0d112146105445780636d70f7ae146105775780636f3eef6214610596575f80fd5b8063465a09e01161027c578063465a09e0146103ee578063477aedc71461040f578063491606581461042e5780634a6a42d81461044d5780634f9ae6081461046c5780635c60da1b1461049f575f80fd5b80630af20483146102c35780630f4433d314610313578063116191b6146103345780631b3d6e87146103675780631c93b03a1461039a5780632a709b14146103bb575b5f80fd5b3480156102ce575f80fd5b506102f67f000000000000000000000000000000000000000000000000000000000000000081565b6040516001600160a01b0390911681526020015b60405180910390f35b610326610321366004613e53565b6109cb565b60405190815260200161030a565b34801561033f575f80fd5b506102f67f000000000000000000000000000000000000000000000000000000000000000081565b348015610372575f80fd5b506102f67f000000000000000000000000000000000000000000000000000000000000000081565b3480156103a5575f80fd5b506103ae610c3b565b60405161030a9190613f5e565b3480156103c6575f80fd5b506102f67f000000000000000000000000000000000000000000000000000000000000000081565b3480156103f9575f80fd5b5061040d610408366004613fb0565b610c6b565b005b34801561041a575f80fd5b506103ae6104293660046140d8565b610d83565b348015610439575f80fd5b5061040d610448366004614111565b610d9c565b348015610458575f80fd5b5061040d6104673660046141ca565b610f15565b348015610477575f80fd5b506102f67f000000000000000000000000000000000000000000000000000000000000000081565b3480156104aa575f80fd5b507f360894a13ba1a3210667c828492db98dca3e2076cc3735a920a3ca505d382bbc546102f6565b3480156104dd575f80fd5b505f8051602061562c833981519152545b604051901515815260200161030a565b61040d61050c366004614111565b610f5b565b34801561051c575f80fd5b506102f67f000000000000000000000000000000000000000000000000000000000000000081565b34801561054f575f80fd5b506102f67f000000000000000000000000000000000000000000000000000000000000000081565b348015610582575f80fd5b506104ee6105913660046141ca565b6110ee565b3480156105a1575f80fd5b5061040d6105b03660046141ca565b6110fa565b61040d6105c33660046141e5565b61113c565b3480156105d3575f80fd5b5061040d6105e23660046141ca565b611199565b3480156105f2575f80fd5b5061040d611241565b348015610606575f80fd5b506102f66106153660046142a0565b61128e565b348015610625575f80fd5b506102f66106343660046142a0565b507f000000000000000000000000000000000000000000000000000000000000000090565b61040d6106673660046142b7565b6112c8565b348015610677575f80fd5b507ff407da03daa7b4243ffb261daad9b01d221ea90ab941948cd48101563654ea86610326565b3480156106a9575f80fd5b506106bd6106b83660046142e1565b611422565b604080516001600160a01b03909316835260208301919091520161030a565b3480156106e7575f80fd5b506103267f000000000000000000000000000000000000000000000000000000000000000081565b34801561071a575f80fd5b505f8051602061564c833981519152546102f6565b34801561073a575f80fd5b506104ee61074936600461439b565b61149b565b348015610759575f80fd5b5061040d6107683660046143d2565b6114bc565b348015610778575f80fd5b5061040d610787366004614410565b61150f565b348015610797575f80fd5b5061040d6107a6366004614473565b611556565b3480156107b6575f80fd5b506103266107c53660046142b7565b6117e3565b6107dd6107d83660046144be565b611849565b60405161030a91906144f0565b3480156107f5575f80fd5b506102f66108043660046142a0565b611979565b348015610814575f80fd5b5061040d610823366004614560565b6119e2565b348015610833575f80fd5b506104ee61084236600461457b565b611a35565b348015610852575f80fd5b506102f66108613660046145cd565b611a99565b348015610871575f80fd5b506102f67f000000000000000000000000000000000000000000000000000000000000000081565b61040d6108a736600461464c565b611ab3565b3480156108b7575f80fd5b5061040d6108c63660046141ca565b611b53565b3480156108d6575f80fd5b5061040d6108e53660046140d8565b611b5f565b6103266108f83660046146db565b611ba5565b348015610908575f80fd5b505f8051602061566c833981519152546102f6565b348015610928575f80fd5b506102f66109373660046142a0565b611d07565b348015610947575f80fd5b5061040d6109563660046141ca565b611d1c565b6103266109693660046147b9565b611d59565b348015610979575f80fd5b5061040d6109883660046142a0565b611e9b565b348015610998575f80fd5b506102f66109a73660046142a0565b611f9b565b3480156109b7575f80fd5b506103266109c63660046140d8565b611fa5565b5f6109e15f8051602061562c8339815191525490565b156109ff576040516334c2d01160e11b815260040160405180910390fd5b5f869003610a205760405163c6f4c06f60e01b815260040160405180910390fd5b5f856004811115610a3357610a33614826565b03610a5c5784604051630a7dda8360e01b8152600401610a53919061484e565b60405180910390fd5b5f889003610a7d57604051630280e1e560e61b815260040160405180910390fd5b8888604051610a8d92919061485c565b60405180910390207f000000000000000000000000000000000000000000000000000000000000000003610ad457604051633a6aed5960e21b815260040160405180910390fd5b336001600160a01b037f0000000000000000000000000000000000000000000000000000000000000000168103610b0857505f5b610b12818c6117e3565b91508a816001600160a01b0316837f04ddbfaa222e81ab9447c070310e87608bf6a4c5d42be5c2fdf0f370b186af7960405160405180910390a45f610b67610b5984611979565b6001600160a01b0316611fb8565b9050866004811115610b7b57610b7b614826565b837f6d8eb6e760238fe99c48de1a8bec4365cbeead2dbe47669c989722eaaa64a8478d8d858e8e8d8d604051610bb79796959493929190614893565b60405180910390a35f60058489848d8d8c8c604051602001610be09897969594939291906148f0565b60408051601f198184030181526020601f8f018190048102840181019092528d83529250610c2b91908e908e90819084018382808284375f9201829052508693509150899050611fe6565b5050509998505050505050505050565b6060610c667f0e2c162a1f4b5cff9fdbd6b34678a9bcb9898a0b9fbca695b112d61688d8b2ac612007565b905090565b6001610c86610c7933612098565b600160ff84161b16151590565b610cae5760405163bb6c163960e01b815233600482015260ff82166024820152604401610a53565b83828114610cd2576040516001621398b960e31b0319815260040160405180910390fd5b5f5b81811015610d7a57610cfd878783818110610cf157610cf1614952565b9050602002013561128e565b6001600160a01b031663a56dbe63868684818110610d1d57610d1d614952565b905060200201356040518263ffffffff1660e01b8152600401610d4291815260200190565b5f604051808303815f87803b158015610d59575f80fd5b505af1158015610d6b573d5f803e3d5ffd5b50505050806001019050610cd4565b50505050505050565b6060610d96610d91836120a3565b612007565b92915050565b85858585610dac84848484611a35565b610dc95760405163157e5fbf60e21b815260040160405180910390fd5b5f8051602061562c8339815191525415610df6576040516334c2d01160e11b815260040160405180910390fd5b5f8686604051610e0792919061485c565b604051908190038120635f6970c360e01b825291506001600160a01b037f00000000000000000000000000000000000000000000000000000000000000001690635f6970c390610e65908f908f908f908f908f908990600401614966565b6020604051808303815f875af1158015610e81573d5f803e3d5ffd5b505050506040513d601f19601f82011682018060405250810190610ea591906149a6565b610ec257604051631403112d60e21b815260040160405180910390fd5b610f078c8c8c8c8c8c8c8080601f0160208091040260200160405190810160405280939291908181526020018383808284375f920191909152508a92506120f4915050565b505050505050505050505050565b6001610f23610c7933612098565b610f4b5760405163bb6c163960e01b815233600482015260ff82166024820152604401610a53565b610f573383600161217f565b5050565b5f8051602061562c8339815191525415610f88576040516334c2d01160e11b815260040160405180910390fd5b5f610f95828401846142a0565b90508015610fb95760405163e94617f560e01b815260048101829052602401610a53565b604051630d26ff2160e41b8152600481018990527f00000000000000000000000000000000000000000000000000000000000000006001600160a01b03169063d26ff21090602401602060405180830381865afa15801561101c573d5f803e3d5ffd5b505050506040513d601f19601f8201168201806040525081019061104091906149a6565b1561105e57604051630dc1019760e01b815260040160405180910390fd5b60405133905f90611072908690869061485c565b60405180910390209050816001600160a01b03168a7f6e18757e81c44a367109cbaa499add16f2ae7168aab9715c3cdc36b0f7ccce928b8b8b8b876040516110be9594939291906149c1565b60405180910390a36110d58a8a8a8a8a8688612195565b6110e28a8a8a88886121db565b50505050505050505050565b5f610d9682600161149b565b6001611108610c7933612098565b6111305760405163bb6c163960e01b815233600482015260ff82166024820152604401610a53565b610f573383600161244d565b5f8051602061562c8339815191525415611169576040516334c2d01160e11b815260040160405180910390fd5b611176888885600161245e565b92505f80611184848461257d565b915091506110e28a8a8a8a8a8a88883461264c565b336111af5f8051602061564c8339815191525490565b6001600160a01b0316146111d6576040516330cd747160e01b815260040160405180910390fd5b6001600160a01b0381166111fd57604051633649397d60e21b815260040160405180910390fd5b6040516001600160a01b038216907fd9be0e8e07417e00f2521db636cb53e316fd288f5051f16d2aa2bf0c3938a876905f90a25f8051602061566c83398151915255565b5f6112575f8051602061566c8339815191525490565b90506001600160a01b0381163314611282576040516349e27cff60e01b815260040160405180910390fd5b61128b81612764565b50565b5f8061129983611f9b565b9050806001600160a01b03163b5f03610d9657604051630b7616bf60e21b815260048101849052602401610a53565b6001600160a01b0382166112ef5760405163c6f4c06f60e01b815260040160405180910390fd5b5f826001600160a01b031663313ce5676040518163ffffffff1660e01b8152600401602060405180830381865afa15801561132c573d5f803e3d5ffd5b505050506040513d601f19601f8201168201806040525081019061135091906149fa565b90505f6006611367856001600160a01b0316611fb8565b8360405160200161137a93929190614a15565b60408051601f198184030181529082905260ff8416825291506001600160a01b038516907f58480fc929990fed6b4f0f83c65bc9ee9a9025d9fa483749504587acdc6916fa9060200160405180910390a261141c6040518060400160405280600681526020016530bc32b630b960d11b8152506114146040518060400160405280600681526020016530bc32b630b960d11b815250610d83565b835f876127df565b50505050565b5f808787878761143484848484611a35565b6114515760405163157e5fbf60e21b815260040160405180910390fd5b5f8051602061562c833981519152541561147e576040516334c2d01160e11b815260040160405180910390fd5b61148888886128ed565b9550955050505050965096945050505050565b5f6114b56114a884612098565b600160ff85161b16151590565b9392505050565b307f00000000000000000000000000000000000000000000000000000000000000006001600160a01b03160361150557604051635f886e9d60e11b815260040160405180910390fd5b610f57828261293e565b336115255f8051602061564c8339815191525490565b6001600160a01b03161461154c576040516330cd747160e01b815260040160405180910390fd5b610f578282612a61565b3361156c5f8051602061564c8339815191525490565b6001600160a01b031614611593576040516330cd747160e01b815260040160405180910390fd5b7f360894a13ba1a3210667c828492db98dca3e2076cc3735a920a3ca505d382bbc546001600160a01b0316638291286c6040518163ffffffff1660e01b8152600401602060405180830381865afa1580156115f0573d5f803e3d5ffd5b505050506040513d601f19601f820116820180604052508101906116149190614a40565b846001600160a01b0316638291286c6040518163ffffffff1660e01b8152600401602060405180830381865afa158015611650573d5f803e3d5ffd5b505050506040513d601f19601f820116820180604052508101906116749190614a40565b146116925760405163340aafcd60e11b815260040160405180910390fd5b836001600160a01b03163f83146116bc576040516323e13ec960e21b815260040160405180910390fd5b7f360894a13ba1a3210667c828492db98dca3e2076cc3735a920a3ca505d382bbc8490556040516001600160a01b038516907fbc7cd75a20ee27fd9adebab32041f755214dbc6bffa90cc0225b39da2e5c2d3b905f90a2801561141c575f846001600160a01b0316639ded06df60e01b848460405160240161173f929190614a57565b60408051601f198184030181529181526020820180516001600160e01b03166001600160e01b031990941693909317909252905161177d9190614a6a565b5f60405180830381855af49150503d805f81146117b5576040519150601f19603f3d011682016040523d82523d5f602084013e6117ba565b606091505b50509050806117dc576040516397905dfb60e01b815260040160405180910390fd5b5050505050565b604080517f980c3be34c7ee75cc250c76223092614e21653cdf2faece10ac24fcef821df1060208201526001600160a01b03841691810191909152606081018290525f906080015b60405160208183030381529060405280519060200120905092915050565b6060816001600160401b038111156118635761186361401a565b60405190808252806020026020018201604052801561189657816020015b60608152602001906001900390816118815790505b5090505f60605f5b8481101561197057308686838181106118b9576118b9614952565b90506020028101906118cb9190614a85565b6040516118d992919061485c565b5f60405180830381855af49150503d805f8114611911576040519150601f19603f3d011682016040523d82523d5f602084013e611916565b606091505b5090935091508261194a5781515f03611942576040516309ad446560e31b815260040160405180910390fd5b815182602001fd5b8184828151811061195d5761195d614952565b602090810291909101015260010161189e565b50505092915050565b5f6119838261128e565b6001600160a01b0316639d76ea586040518163ffffffff1660e01b8152600401602060405180830381865afa1580156119be573d5f803e3d5ffd5b505050506040513d601f19601f82011682018060405250810190610d969190614ac7565b336119f85f8051602061564c8339815191525490565b6001600160a01b031614611a1f576040516330cd747160e01b815260040160405180910390fd5b8015611a2d5761128b612b0d565b61128b612b4f565b5f808383604051611a4792919061485c565b60405180910390209050611a8f86868080601f0160208091040260200160405190810160405280939291908181526020018383808284375f92019190915250611fa592505050565b1495945050505050565b5f611aa8878787878787612b90565b979650505050505050565b5f8051602061562c8339815191525415611ae0576040516334c2d01160e11b815260040160405180910390fd5b611aec8933865f61245e565b93505f80611afa858561257d565b91509150611b468b338c8c8c8c8080601f0160208091040260200160405190810160405280939291908181526020018383808284375f920191909152508e92508a91508990508b61264c565b5050505050505050505050565b61128b81336001612bad565b33611b755f8051602061564c8339815191525490565b6001600160a01b031614611b9c576040516330cd747160e01b815260040160405180910390fd5b61128b81612bbe565b5f611bbb5f8051602061562c8339815191525490565b15611bd9576040516334c2d01160e11b815260040160405180910390fd5b336001600160a01b037f00000000000000000000000000000000000000000000000000000000000000001614611c2457604051630b160a0560e11b8152336004820152602401610a53565b5f611c2f818b6117e3565b915089816001600160a01b0316837f04ddbfaa222e81ab9447c070310e87608bf6a4c5d42be5c2fdf0f370b186af7960405160405180910390a45f889003611c93575f611c7f83868a8a8a612c3a565b9050611c8d835f8388612de9565b50611cfa565b8888604051611ca392919061485c565b60405180910390207f000000000000000000000000000000000000000000000000000000000000000003611cea57604051633a6aed5960e21b815260040160405180910390fd5b611cfa82888888888e8e8a61303a565b5098975050505050505050565b5f611d1182613130565b9150610d968261316a565b33611d325f8051602061564c8339815191525490565b6001600160a01b031614611282576040516330cd747160e01b815260040160405180910390fd5b5f611d6f5f8051602061562c8339815191525490565b15611d8d576040516334c2d01160e11b815260040160405180910390fd5b336001600160a01b037f00000000000000000000000000000000000000000000000000000000000000001614611dd857604051630b160a0560e11b8152336004820152602401610a53565b5f846004811115611deb57611deb614826565b03611e0b5783604051630a7dda8360e01b8152600401610a53919061484e565b5f611e1681886117e3565b915086816001600160a01b0316837f04ddbfaa222e81ab9447c070310e87608bf6a4c5d42be5c2fdf0f370b186af7960405160405180910390a4611e9182868887878080601f0160208091040260200160405190810160405280939291908181526020018383808284375f92019190915250612de992505050565b5095945050505050565b33611eb15f8051602061564c8339815191525490565b6001600160a01b031614611ed8576040516330cd747160e01b815260040160405180910390fd5b5f611ee28261128e565b90505f816001600160a01b0316639d76ea586040518163ffffffff1660e01b8152600401602060405180830381865afa158015611f21573d5f803e3d5ffd5b505050506040513d601f19601f82011682018060405250810190611f459190614ac7565b6040516367c354ad60e11b81526001600160a01b0384811660048301529192509082169063cf86a95a906024015f604051808303815f87803b158015611f89575f80fd5b505af1158015610d7a573d5f803e3d5ffd5b5f610d968261316a565b5f80611fb08361322b565b549392505050565b6040805160148082528183019092526060916020820181803683375050506014808201939093529182525090565b6060611ff2858561325f565b91965090945090506117dc85828686866127df565b606081805461201590614ae2565b80601f016020809104026020016040519081016040528092919081815260200182805461204190614ae2565b801561208c5780601f106120635761010080835404028352916020019161208c565b820191905f5260205f20905b81548152906001019060200180831161206f57829003601f168201915b50505050509050919050565b5f80611fb0836133d0565b5f7fa5b4aa1bcb538076d57d083e3004c6907e2eba42d84c21922d441967a02b472f826040516020016120d7929190614b1a565b604051602081830303815290604052805190602001209050919050565b5f606061210288888661341a565b9550909250905081612131575f61211d8a8a8a8a8a89613623565b905061212b8a828488613698565b50612174565b600182036121475761214284613836565b612174565b600582036121585761214284613876565b6040516324af919760e11b815260048101839052602401610a53565b505050505050505050565b6121908383600160ff85161b6138f0565b505050565b5f6121a4888888888888613946565b80549091506001600160a01b038116156121d15760405163725f13f160e01b815260040160405180910390fd5b5055505050505050565b5f808080806121ec86880188614b32565b95509550955095509550505f612201846139a6565b60408051602481018990523360448201526001600160a01b03838116606483015260848083018890528351808403909101815260a490920183526020820180516001600160e01b031663041eebc160e31b17905291519293505f92839283927f00000000000000000000000000000000000000000000000000000000000000009091169161228f9190614a6a565b5f60405180830381855af49150503d805f81146122c7576040519150601f19603f3d011682016040523d82523d5f602084013e6122cc565b606091505b5091509150816122f15780604051633a5cf90560e01b8152600401610a539190613f5e565b808060200190518101906123059190614bd8565b80945081975050505050816001600160a01b0316878d7fbdb65cfd017af0876344138f62bc895163b5fd120cbe6e666ed306afd658de4b8e8e8b8a8a515f14612354578a5160208c0120612356565b5f5b604051612367959493929190614bfc565b60405180910390a4825115610f07575f826001600160a01b03166377c790258e8e8e8b898e898d6040518963ffffffff1660e01b81526004016123b1989796959493929190614c36565b6020604051808303815f875af11580156123cd573d5f803e3d5ffd5b505050506040513d601f19601f820116820180604052508101906123f19190614a40565b90507f692b2deb10f974787eb65450ba9a90dc0bb28141a633fa3fb556d5292fba42e1811461243e5760405163c646a62360e01b81526001600160a01b0384166004820152602401610a53565b50505050505050505050505050565b6121908383600160ff85161b6139d3565b5f805f7f00000000000000000000000000000000000000000000000000000000000000006001600160a01b031663ea52548360e01b888689896040516024016124c9949392919093845291151560208401526001600160a01b03166040830152606082015260800190565b60408051601f198184030181529181526020820180516001600160e01b03166001600160e01b03199094169390931790925290516125079190614a6a565b5f60405180830381855af49150503d805f811461253f576040519150601f19603f3d011682016040523d82523d5f602084013e612544565b606091505b5091509150816125695780604051631a59c9bd60e01b8152600401610a539190613f5e565b80806020019051810190611aa89190614a40565b5f60606004831015612591575f9150612645565b5f61259f6004828688614c9f565b6125a891614cc6565b60e01c905060018111156125d75760405163b47a9b4b60e01b815263ffffffff82166004820152602401610a53565b8063ffffffff1660018111156125ef576125ef614826565b925060048490036126005750612645565b61260d8460048188614c9f565b8080601f0160208091040260200160405190810160405280939291908181526020018383808284375f92019190915250929450505050505b9250929050565b84515f0361266d5760405163d0639b6560e01b815260040160405180910390fd5b835f0361268d57604051631f2a200560e01b815260040160405180910390fd5b8151156126a057815160208301206126a2565b5f5b886001600160a01b03168a7fcd05f5b9dc4bb03babf40f5da98f5f46819846207d916f89b67d36fd1f7fd74f8a8a8a8a6040516126e29493929190614cfe565b60405180910390a45f808a6126ff8b6001600160a01b0316611fb8565b88888760405160200161271796959493929190614d35565b60408051601f198184030181526020601f8b0181900481028401810190925289835292506110e291908a908a90819084018382808284375f92019190915250859250889150869050611fe6565b6001600160a01b03811661278b57604051633649397d60e21b815260040160405180910390fd5b6040516001600160a01b038216907f04dba622d284ed0014ee4b9a6a68386be1a4c08a4913ae272de89199cc686163905f90a25f8051602061564c833981519152555f5f8051602061566c83398151915255565b83515f0361280057604051631f23114d60e31b815260040160405180910390fd5b5f807f00000000000000000000000000000000000000000000000000000000000000006001600160a01b031663bbf4f1bd60e01b888888888860405160240161284d959493929190614d8c565b60408051601f198184030181529181526020820180516001600160e01b03166001600160e01b031990941693909317909252905161288b9190614a6a565b5f60405180830381855af49150503d805f81146128c3576040519150601f19603f3d011682016040523d82523d5f602084013e6128c8565b606091505b509150915081610d7a5780604051637f32207b60e11b8152600401610a539190613f5e565b5f808080806128fe86880188614dea565b94505050925092505f83146129295760405163e94617f560e01b815260048101849052602401610a53565b61293282611979565b97909650945050505050565b5f80808061294e85870187614efe565b8151939750919550935091506001600160a01b0385166129815760405163d92e233d60e01b815260040160405180910390fd5b835115806129b55750835160208501207f000000000000000000000000000000000000000000000000000000000000000014155b156129d357604051630470832760e11b815260040160405180910390fd5b815181146129f7576040516001621398b960e31b0319815260040160405180910390fd5b612a0085613a6b565b612a0984613a76565b5f5b81811015612a5757612a4f848281518110612a2857612a28614952565b6020026020010151848381518110612a4257612a42614952565b6020026020010151612a61565b600101612a0b565b5050505050505050565b81515f03612a825760405163deba168960e01b815260040160405180910390fd5b80515f03612aa35760405163deba168960e01b815260040160405180910390fd5b612ab5612aaf836120a3565b82613a9c565b5f612abf8361322b565b82516020840120808255604051919250907fdb6b260ea45f7fe513e1d3b8c21017a29e3a41610e95aefb8862b81c69aec61c90612aff9086908690614f9c565b60405180910390a150505050565b612b2360015f8051602061562c83398151915255565b60405133907f62e78cea01bee320cd4e420270b5ea74000d11b0c9f74754ebdbfc544b05a258905f90a2565b612b645f5f8051602061562c83398151915255565b60405133907f5db9ee0a495bf2e6ff9c91a7834c1ba4fdd244a5e8aa4e537bd38aeae4b073aa905f90a2565b5f80612ba0888888888888613946565b5498975050505050505050565b6121908383600160ff85161b613aa7565b80515f03612bdf5760405163deba168960e01b815260040160405180910390fd5b612bf0612beb826120a3565b613b00565b5f612bfa8261322b565b90505f81557ff9400637a329865492b8d0d4dba4eafc7e8d5d0fae5e27b56766816d2ae1b2ca82604051612c2e9190613f5e565b60405180910390a15050565b5f83515f03612c5c5760405163e2592aed60e01b815260040160405180910390fd5b82515f03612c7d57604051630ce3838560e11b815260040160405180910390fd5b5f612c8787613130565b90505f86515f14612c9e57612c9b876139a6565b90505b5f807f00000000000000000000000000000000000000000000000000000000000000006001600160a01b031663f575f35b60e01b858c868c8c8c604051602401612ced96959493929190614fc9565b60408051601f198184030181529181526020820180516001600160e01b03166001600160e01b0319909416939093179092529051612d2b9190614a6a565b5f60405180830381855af49150503d805f8114612d63576040519150601f19603f3d011682016040523d82523d5f602084013e612d68565b606091505b509150915081612d8d578060405163c226af8b60e01b8152600401610a539190613f5e565b60208101519450826001600160a01b03168a7ff0d7beb2b03d35e597f432391dc2a6f6eb1a621be6cb5b325f55a49090085239878b8b8b604051612dd4949392919061501e565b60405180910390a35050505095945050505050565b5f8183604051602001612dfd929190615068565b60405160208183030381529060405290505f807f00000000000000000000000000000000000000000000000000000000000000006001600160a01b0316636519d04b60e01b888886604051602401612e5793929190615091565b60408051601f198184030181529181526020820180516001600160e01b03166001600160e01b0319909416939093179092529051612e959190614a6a565b5f60405180830381855af49150503d805f8114612ecd576040519150601f19603f3d011682016040523d82523d5f602084013e612ed2565b606091505b509150915081612ef75780604051637cf77c1560e11b8152600401610a539190613f5e565b60208101516040516001600160a01b037f0000000000000000000000000000000000000000000000000000000000000000169063dbd15f2f60e01b90612f43908a9085906024016150b6565b60408051601f198184030181529181526020820180516001600160e01b03166001600160e01b0319909416939093179092529051612f819190614a6a565b5f60405180830381855af49150503d805f8114612fb9576040519150601f19603f3d011682016040523d82523d5f602084013e612fbe565b606091505b50909350915082612fe45781604051631b559efb60e21b8152600401610a539190613f5e565b866004811115612ff657612ff6614826565b887f5284c2478b9c1a55e973429331078be39b5fb3eeb9d87d10b34d65a4c89ee4eb83876040516130289291906150dc565b60405180910390a35050505050505050565b86515f0361305b5760405163e2592aed60e01b815260040160405180910390fd5b85515f0361307c57604051630ce3838560e11b815260040160405180910390fd5b6130858861128e565b50877fe470f4bdd33c8676127d3c20ff725d8dc1605609001389ce3a59c28b54b7992f8888888888886040516130c0969594939291906150ff565b60405180910390a25f600189898989896040516020016130e596959493929190615155565b60408051601f198184030181526020601f87018190048102840181019092528583529250612174919086908690819084018382808284375f9201829052508693509150869050611fe6565b604080517f610507e221586f499adb972fbdbe7f0619bdae0112c78ebaa562448d0ca7071f60208201529081018290525f906060016120d7565b5f803083604051806101c00160405280610182815260200161568c610182913980516020918201206040516131cf949392016001600160f81b0319815260609390931b6001600160601b03191660018401526015830191909152603582015260550190565b60408051601f1981840301815282825280516020918201206135a560f21b8285015260601b6001600160601b0319166022840152600160f81b603684015281516017818503018152603790930190915281519101209392505050565b5f7f5f58fea7d48d37d5d1cc2546dfcc3d3cbfe8d758d5ca19c44087f52e15a10505826040516020016120d7929190614b1a565b60608060605f61326e86610d83565b90506040518060400160405280600681526020016530bc32b630b960d11b81525060405160200161329f9190614a6a565b60405160208183030381529060405280519060200120866040516020016132c69190614a6a565b60405160208183030381529060405280519060200120036132fa57604051631f23114d60e31b815260040160405180910390fd5b60405180604001604052806003815260200162343ab160e91b8152506040516020016133269190614a6a565b604051602081830303815290604052805190602001208160405160200161334d9190614a6a565b60405160208183030381529060405280519060200120036133c8576003868660405160200161337e939291906151a2565b60408051601f19818403018152828201825260068084526530bc32b630b960d11b60208581018290528451808601909552918452908301529197509095506133c590610d83565b90505b949592505050565b5f7fde9bdca322e1a848f72215bc15cf2c87fe7749145789a9ee281a2a6290af26ab826040516020016120d792919091825260601b6001600160601b031916602082015260340190565b5f6060805f61342885613b0a565b90505f87878080601f0160208091040260200160405190810160405280939291908181526020018383808284375f9201919091525092935050506003198301905061358a576040518060400160405280600681526020016530bc32b630b960d11b81525060405160200161349c9190614a6a565b6040516020818303038152906040528051906020012088886040516020016134c592919061485c565b60405160208183030381529060405280519060200120146134f957604051631f23114d60e31b815260040160405180910390fd5b8580602001905181019061350d919061520f565b6040805180820182526003815262343ab160e91b6020808301919091529151929a5092945061353d935001614a6a565b6040516020818303038152906040528051906020012061355c82611fa5565b1461357a57604051631f23114d60e31b815260040160405180910390fd5b61358386613b0a565b9150613616565b6040518060400160405280600681526020016530bc32b630b960d11b8152506040516020016135b99190614a6a565b6040516020818303038152906040528051906020012088886040516020016135e292919061485c565b604051602081830303815290604052805190602001200361361657604051631f23114d60e31b815260040160405180910390fd5b9097909650939450505050565b5f613632878787878787613b36565b90506001600160a01b0381161561368e57806001600160a01b0316877f8fe61b2d4701a29265508750790e322b2c214399abdf98472158b8908b660d4188888888886040516136859594939291906149c1565b60405180910390a35b9695505050505050565b5f60605f80606080868060200190518101906136b4919061527b565b939a5091985090955090935091506136cd9050816139a6565b9350506001600160a01b038816156136f6576136ea858984613b61565b5050505050505061141c565b5f613702868585613b61565b8092508194505050836001600160a01b0316868b7fbdb65cfd017af0876344138f62bc895163b5fd120cbe6e666ed306afd658de4b8b898888515f1461374e57885160208a0120613750565b5f5b6040516137609493929190615317565b60405180910390a48151156110e2576040516314920a8160e11b81525f906001600160a01b038616906329241502906137a9908e908d908b9089908e908a908d9060040161534f565b6020604051808303815f875af11580156137c5573d5f803e3d5ffd5b505050506040513d601f19601f820116820180604052508101906137e99190614a40565b90507fe84001f3dedacf7f9ddc370e9f09c26b37473e9e959ffdc4925f6fe33c9877e48114611b4657604051631ef6f3b360e01b81526001600160a01b0386166004820152602401610a53565b5f805f805f8580602001905181019061384f91906153b6565b95509550955095509550505f6138688683878787612c3a565b9050610d7a865f8385612de9565b5f805f808480602001905181019061388e919061544e565b955095505094509450505f60048111156138aa576138aa614826565b8360048111156138bc576138bc614826565b036138dc5782604051630a7dda8360e01b8152600401610a53919061484e565b6117dc84846138ea856139a6565b84612de9565b6139036138fc84612098565b8216821490565b61393257604051631fe9beed60e21b81526001600160a01b038416600482015260248101829052604401610a53565b61393c8382613c69565b6121908282613cca565b5f7f2a41fec9a0df4e0996b975f71622c7164b0f652ea69d9dbcd6b24e81b20ab5e587878787878760405160200161398497969594939291906154e6565b6040516020818303038152906040528051906020012090509695505050505050565b5f81516014146139cb578160405163d08dbec560e01b8152600401610a539190613f5e565b506014015190565b6139df6138fc84612098565b613a0e57604051631fe9beed60e21b81526001600160a01b038416600482015260248101829052604401610a53565b613a19838383613d1d565b816001600160a01b0316836001600160a01b03167ff7158d1591c2cf17c0e6b9459d86365c47fe0969c79f40ef49e0c437d8f3991483604051613a5e91815260200190565b60405180910390a3505050565b61128b816001613d31565b61128b7f0e2c162a1f4b5cff9fdbd6b34678a9bcb9898a0b9fbca695b112d61688d8b2ac825b816121908282615571565b80613ab28484613d41565b14613aea5760405163018013f960e61b81526001600160a01b0380851660048301528316602482015260448101829052606401610a53565b613af583835f613d1d565b6121908383836138f0565b61128b815f613dc0565b5f602082511015613b2e57604051637c6953f960e01b815260040160405180910390fd5b506020015190565b5f80613b46888888888888613946565b9050805491508115613b56575f81555b509695505050505050565b60408051602481018590526001600160a01b038481166044830152606480830185905283518084039091018152608490920183526020820180516001600160e01b031663fb1ea8cf60e01b17905291515f928392839283927f00000000000000000000000000000000000000000000000000000000000000001691613be591614a6a565b5f60405180830381855af49150503d805f8114613c1d576040519150601f19603f3d011682016040523d82523d5f602084013e613c22565b606091505b509150915081613c475780604051630f94097360e01b8152600401610a539190613f5e565b80806020019051810190613c5b9190614bd8565b909890975095505050505050565b5f8119613c7584612098565b169050613c828382613d56565b826001600160a01b03167fccf920c8facee98a9c2a6c6124f2857b87b17e9f3a819bfcc6945196ee77366b83604051613cbd91815260200190565b60405180910390a2505050565b5f81613cd584612098565b179050613ce28382613d56565b826001600160a01b03167f34e73c57659d4b6809b53db4feee9b007b892e978114eda420d2991aba15014383604051613cbd91815260200190565b5f613d288484613d68565b91909155505050565b610f5782600160ff84161b613cca565b5f80613d4d8484613d68565b54949350505050565b5f613d60836133d0565b919091555050565b5f7ff96e07b2f4fbb81c31567d2b261589af429e98f0958d53f7e6ad5d63aea0ab7c838360405160200161182b93929190928352606091821b6001600160601b03199081166020850152911b16603482015260480190565b508054613dcc90614ae2565b5f825580601f10613ddb575050565b601f0160209004905f5260205f209081019061128b91905b80821115613e06575f8155600101613df3565b5090565b5f8083601f840112613e1a575f80fd5b5081356001600160401b03811115613e30575f80fd5b602083019150836020828501011115612645575f80fd5b6005811061128b575f80fd5b5f805f805f805f805f60c08a8c031215613e6b575f80fd5b8935985060208a01356001600160401b03811115613e87575f80fd5b613e938c828d01613e0a565b90995097505060408a01356001600160401b03811115613eb1575f80fd5b613ebd8c828d01613e0a565b90975095505060608a0135613ed181613e47565b935060808a01356001600160401b03811115613eeb575f80fd5b613ef78c828d01613e0a565b9a9d999c50979a9699959894979660a00135949350505050565b5f5b83811015613f2b578181015183820152602001613f13565b50505f910152565b5f8151808452613f4a816020860160208601613f11565b601f01601f19169290920160200192915050565b602081525f6114b56020830184613f33565b5f8083601f840112613f80575f80fd5b5081356001600160401b03811115613f96575f80fd5b6020830191508360208260051b8501011115612645575f80fd5b5f805f8060408587031215613fc3575f80fd5b84356001600160401b03811115613fd8575f80fd5b613fe487828801613f70565b90955093505060208501356001600160401b03811115614002575f80fd5b61400e87828801613f70565b95989497509550505050565b634e487b7160e01b5f52604160045260245ffd5b604051601f8201601f191681016001600160401b03811182821017156140565761405661401a565b604052919050565b5f6001600160401b038211156140765761407661401a565b50601f01601f191660200190565b5f82601f830112614093575f80fd5b8135602083015f6140ab6140a68461405e565b61402e565b90508281528583830111156140be575f80fd5b828260208301375f92810160200192909252509392505050565b5f602082840312156140e8575f80fd5b81356001600160401b038111156140fd575f80fd5b61410984828501614084565b949350505050565b5f805f805f805f6080888a031215614127575f80fd5b8735965060208801356001600160401b03811115614143575f80fd5b61414f8a828b01613e0a565b90975095505060408801356001600160401b0381111561416d575f80fd5b6141798a828b01613e0a565b90955093505060608801356001600160401b03811115614197575f80fd5b6141a38a828b01613e0a565b989b979a50959850939692959293505050565b6001600160a01b038116811461128b575f80fd5b5f602082840312156141da575f80fd5b81356114b5816141b6565b5f805f805f805f8060c0898b0312156141fc575f80fd5b88359750602089013561420e816141b6565b965060408901356001600160401b03811115614228575f80fd5b6142348b828c01613e0a565b90975095505060608901356001600160401b03811115614252575f80fd5b61425e8b828c01614084565b9450506080890135925060a08901356001600160401b03811115614280575f80fd5b61428c8b828c01613e0a565b999c989b5096995094979396929594505050565b5f602082840312156142b0575f80fd5b5035919050565b5f80604083850312156142c8575f80fd5b82356142d3816141b6565b946020939093013593505050565b5f805f805f80606087890312156142f6575f80fd5b86356001600160401b0381111561430b575f80fd5b61431789828a01613e0a565b90975095505060208701356001600160401b03811115614335575f80fd5b61434189828a01613e0a565b90955093505060408701356001600160401b0381111561435f575f80fd5b61436b89828a01613e0a565b979a9699509497509295939492505050565b60ff8116811461128b575f80fd5b80356143968161437d565b919050565b5f80604083850312156143ac575f80fd5b82356143b7816141b6565b915060208301356143c78161437d565b809150509250929050565b5f80602083850312156143e3575f80fd5b82356001600160401b038111156143f8575f80fd5b61440485828601613e0a565b90969095509350505050565b5f8060408385031215614421575f80fd5b82356001600160401b03811115614436575f80fd5b61444285828601614084565b92505060208301356001600160401b0381111561445d575f80fd5b61446985828601614084565b9150509250929050565b5f805f8060608587031215614486575f80fd5b8435614491816141b6565b93506020850135925060408501356001600160401b038111156144b2575f80fd5b61400e87828801613e0a565b5f80602083850312156144cf575f80fd5b82356001600160401b038111156144e4575f80fd5b61440485828601613f70565b5f602082016020835280845180835260408501915060408160051b8601019250602086015f5b8281101561454757603f19878603018452614532858351613f33565b94506020938401939190910190600101614516565b50929695505050505050565b801515811461128b575f80fd5b5f60208284031215614570575f80fd5b81356114b581614553565b5f805f806040858703121561458e575f80fd5b84356001600160401b038111156145a3575f80fd5b6145af87828801613e0a565b90955093505060208501356001600160401b038111156144b2575f80fd5b5f805f805f80608087890312156145e2575f80fd5b8635955060208701356001600160401b038111156145fe575f80fd5b61460a89828a01613e0a565b90965094505060408701356001600160401b03811115614628575f80fd5b61463489828a01613e0a565b979a9699509497949695606090950135949350505050565b5f805f805f805f805f60c08a8c031215614664575f80fd5b8935985060208a01356001600160401b03811115614680575f80fd5b61468c8c828d01613e0a565b90995097505060408a01356001600160401b038111156146aa575f80fd5b6146b68c828d01613e0a565b90975095505060608a0135935060808a01356001600160401b03811115613eeb575f80fd5b5f805f805f805f8060e0898b0312156146f2575f80fd5b8835975060208901356001600160401b0381111561470e575f80fd5b61471a8b828c01613e0a565b90985096505060408901356001600160401b03811115614738575f80fd5b6147448b828c01614084565b95505060608901356001600160401b0381111561475f575f80fd5b61476b8b828c01614084565b94505061477a60808a0161438b565b925060a08901356001600160401b03811115614794575f80fd5b6147a08b828c01614084565b989b979a50959894979396929550929360c00135925050565b5f805f805f608086880312156147cd575f80fd5b8535945060208601356147df816141b6565b935060408601356147ef81613e47565b925060608601356001600160401b03811115614809575f80fd5b61481588828901613e0a565b969995985093965092949392505050565b634e487b7160e01b5f52602160045260245ffd5b6005811061484a5761484a614826565b9052565b60208101610d96828461483a565b818382375f9101908152919050565b81835281816020850137505f828201602090810191909152601f909101601f19169091010190565b608081525f6148a660808301898b61486b565b82810360208401526148b88189613f33565b905082810360408401526148cd81878961486b565b905082810360608401526148e281858761486b565b9a9950505050505050505050565b888152876020820152614906604082018861483a565b60c060608201525f61491b60c0830188613f33565b828103608084015261492e81878961486b565b905082810360a084015261494381858761486b565b9b9a5050505050505050505050565b634e487b7160e01b5f52603260045260245ffd5b868152608060208201525f61497f60808301878961486b565b828103604084015261499281868861486b565b915050826060830152979650505050505050565b5f602082840312156149b6575f80fd5b81516114b581614553565b606081525f6149d460608301878961486b565b82810360208401526149e781868861486b565b9150508260408301529695505050505050565b5f60208284031215614a0a575f80fd5b81516114b58161437d565b838152606060208201525f614a2d6060830185613f33565b905060ff83166040830152949350505050565b5f60208284031215614a50575f80fd5b5051919050565b602081525f61410960208301848661486b565b5f8251614a7b818460208701613f11565b9190910192915050565b5f808335601e19843603018112614a9a575f80fd5b8301803591506001600160401b03821115614ab3575f80fd5b602001915036819003821315612645575f80fd5b5f60208284031215614ad7575f80fd5b81516114b5816141b6565b600181811c90821680614af657607f821691505b602082108103614b1457634e487b7160e01b5f52602260045260245ffd5b50919050565b828152604060208201525f6141096040830184613f33565b5f805f805f8060c08789031215614b47575f80fd5b863595506020870135945060408701356001600160401b03811115614b6a575f80fd5b614b7689828a01614084565b94505060608701356001600160401b03811115614b91575f80fd5b614b9d89828a01614084565b9350506080870135915060a08701356001600160401b03811115614bbf575f80fd5b614bcb89828a01614084565b9150509295509295509295565b5f8060408385031215614be9575f80fd5b825160208401519092506143c7816141b6565b608081525f614c0f60808301878961486b565b8281036020840152614c218187613f33565b60408401959095525050606001529392505050565b88815260e060208201525f614c4f60e08301898b61486b565b8281036040840152614c618189613f33565b90508281036060840152614c758188613f33565b608084019690965250506001600160a01b039290921660a083015260c09091015295945050505050565b5f8085851115614cad575f80fd5b83861115614cb9575f80fd5b5050820193919092039150565b80356001600160e01b03198116906004841015614cf7576001600160e01b0319600485900360031b81901b82161691505b5092915050565b606081525f614d1160608301868861486b565b8281036020840152614d238186613f33565b91505082604083015295945050505050565b86815285602082015260c060408201525f614d5360c0830187613f33565b8281036060840152614d658187613f33565b905084608084015282810360a0840152614d7f8185613f33565b9998505050505050505050565b60a081525f614d9e60a0830188613f33565b8281036020840152614db08188613f33565b90508281036040840152614dc48187613f33565b91505060028410614dd757614dd7614826565b6060820193909352608001529392505050565b5f805f805f60a08688031215614dfe575f80fd5b853594506020860135935060408601356001600160401b03811115614e21575f80fd5b614e2d88828901614084565b93505060608601356001600160401b03811115614e48575f80fd5b614e5488828901614084565b95989497509295608001359392505050565b5f82601f830112614e75575f80fd5b81356001600160401b03811115614e8e57614e8e61401a565b8060051b614e9e6020820161402e565b91825260208185018101929081019086841115614eb9575f80fd5b6020860192505b8383101561368e5782356001600160401b03811115614edd575f80fd5b614eec886020838a0101614084565b83525060209283019290910190614ec0565b5f805f8060808587031215614f11575f80fd5b8435614f1c816141b6565b935060208501356001600160401b03811115614f36575f80fd5b614f4287828801614084565b93505060408501356001600160401b03811115614f5d575f80fd5b614f6987828801614e66565b92505060608501356001600160401b03811115614f84575f80fd5b614f9087828801614e66565b91505092959194509250565b604081525f614fae6040830185613f33565b8281036020840152614fc08185613f33565b95945050505050565b86815285602082015260018060a01b038516604082015260c060608201525f614ff560c0830186613f33565b82810360808401526150078186613f33565b91505060ff831660a0830152979650505050505050565b6001600160a01b03851681526080602082018190525f9061504190830186613f33565b82810360408401526150538186613f33565b91505060ff8316606083015295945050505050565b604081525f61507a6040830185613f33565b905060018060a01b03831660208301529392505050565b8381526150a1602082018461483a565b606060408201525f614fc06060830184613f33565b604081016150c4828561483a565b6001600160a01b039290921660209190910152919050565b6001600160a01b03831681526040602082018190525f9061410990830184613f33565b60a081525f61511160a0830189613f33565b82810360208401526151238189613f33565b905060ff8716604084015282810360608401526151408187613f33565b90508281036080840152614d7f81858761486b565b86815285602082015260c060408201525f61517360c0830187613f33565b82810360608401526151858187613f33565b905060ff8516608084015282810360a0840152614d7f8185613f33565b838152606060208201525f6151ba6060830185613f33565b828103604084015261368e8185613f33565b5f82601f8301126151db575f80fd5b8151602083015f6151ee6140a68461405e565b9050828152858383011115615201575f80fd5b614fc0836020830184613f11565b5f805f60608486031215615221575f80fd5b835160208501519093506001600160401b0381111561523e575f80fd5b61524a868287016151cc565b92505060408401516001600160401b03811115615265575f80fd5b615271868287016151cc565b9150509250925092565b5f805f805f8060c08789031215615290575f80fd5b86516020880151604089015191975095506001600160401b038111156152b4575f80fd5b6152c089828a016151cc565b94505060608701516001600160401b038111156152db575f80fd5b6152e789828a016151cc565b608089015160a08a0151919550935090506001600160401b0381111561530b575f80fd5b614bcb89828a016151cc565b608081525f6153296080830187613f33565b828103602084015261533b8187613f33565b604084019590955250506060015292915050565b87815260e060208201525f61536760e0830189613f33565b82810360408401526153798189613f33565b9050828103606084015261538d8188613f33565b608084019690965250506001600160a01b039290921660a083015260c090910152949350505050565b5f805f805f8060c087890312156153cb575f80fd5b86516020880151604089015191975095506001600160401b038111156153ef575f80fd5b6153fb89828a016151cc565b94505060608701516001600160401b03811115615416575f80fd5b61542289828a016151cc565b93505060808701516154338161437d565b60a08801519092506001600160401b0381111561530b575f80fd5b5f805f805f8060c08789031215615463575f80fd5b865160208801516040890151919750955061547d81613e47565b60608801519094506001600160401b03811115615498575f80fd5b6154a489828a016151cc565b93505060808701516001600160401b038111156154bf575f80fd5b6154cb89828a016151cc565b92505060a08701516001600160401b0381111561530b575f80fd5b87815286602082015260a060408201525f61550560a08301878961486b565b828103606084015261551881868861486b565b91505082608083015298975050505050505050565b601f82111561219057805f5260205f20601f840160051c810160208510156155525750805b601f840160051c820191505b818110156117dc575f815560010161555e565b81516001600160401b0381111561558a5761558a61401a565b61559e816155988454614ae2565b8461552d565b6020601f8211600181146155d0575f83156155b95750848201515b5f19600385901b1c1916600184901b1784556117dc565b5f84815260208120601f198516915b828110156155ff57878501518255602094850194600190920191016155df565b508482101561561c57868401515f19600387901b60f8161c191681555b50505050600190811b0190555056feee35723ac350a69d2a92d3703f17439cbaadf2f093a21ba5bf5f1a53eb2a14d802016836a56b71f0d02689e69e326f4f4c1b9057164ef592671cf0d37c8040c09855384122b55936fbfb8ca5120e63c6537a1ac40caf6ae33502b3c5da8c87d1608060405234801561001057600080fd5b50610162806100206000396000f3fe60806040526004361061001d5760003560e01c806277436014610022575b600080fd5b61003561003036600461007b565b610037565b005b8051602082016000f061004957600080fd5b50565b7f4e487b7100000000000000000000000000000000000000000000000000000000600052604160045260246000fd5b60006020828403121561008d57600080fd5b813567ffffffffffffffff808211156100a557600080fd5b818401915084601f8301126100b957600080fd5b8135818111156100cb576100cb61004c565b604051601f8201601f19908116603f011681019083821181831017156100f3576100f361004c565b8160405282815287602084870101111561010c57600080fd5b82602086016020830137600092810160200192909252509594505050505056fea264697066735822122094780ce55d28f1d568f4e0ab1b9dc230b96e952b73d2e06456fbff2289fa27f464736f6c63430008150033a164736f6c634300081a000a",
    "linkReferences": {}
  },
  "methodIdentifiers": {
    "acceptOperatorship(address)": "da4886df",
    "acceptOwnership()": "79ba5097",
    "chainName()": "1c93b03a",
    "chainNameHash()": "864a0dcf",
    "contractCallValue(string,string,bytes)": "83d29696",
    "contractId()": "8291286c",
    "deployInterchainToken(bytes32,string,string,string,uint8,bytes,uint256)": "e1d40c77",
    "deployedTokenManager(bytes32)": "7e10eb15",
    "execute(bytes32,string,string,bytes)": "49160658",
    "expressExecute(bytes32,string,string,bytes)": "65657636",
    "gasService()": "6a22d8cc",
    "gateway()": "116191b6",
    "gatewayCaller()": "0af20483",
    "getExpressExecutor(bytes32,string,string,bytes32)": "c7e6a3cc",
    "hasRole(address,uint8)": "95a8c58d",
    "implementation()": "5c60da1b",
    "interchainTokenAddress(bytes32)": "e82e71f8",
    "interchainTokenDeployer()": "4f9ae608",
    "interchainTokenFactory()": "ca58b644",
    "interchainTokenId(address,bytes32)": "a5269ef1",
    "interchainTransfer(bytes32,string,bytes,uint256,bytes,uint256)": "da081c73",
    "isOperator(address)": "6d70f7ae",
    "isTrustedAddress(string,string)": "c506bff4",
    "linkToken(bytes32,string,bytes,uint8,bytes,uint256)": "0f4433d3",
    "migrateInterchainToken(bytes32)": "f6e3a229",
    "multicall(bytes[])": "ac9650d8",
    "owner()": "8da5cb5b",
    "paused()": "5c975abb",
    "pendingOwner()": "e30c3978",
    "proposeOperatorship(address)": "6f3eef62",
    "proposeOwnership(address)": "710bf322",
    "registerCustomToken(bytes32,address,uint8,bytes)": "f49c044a",
    "registerTokenMetadata(address,uint256)": "7fb53dc9",
    "registeredTokenAddress(bytes32)": "b90d6afd",
    "removeTrustedAddress(string)": "dc88dfd1",
    "setFlowLimits(bytes32[],uint256[])": "465a09e0",
    "setPauseStatus(bool)": "c38bb537",
    "setTrustedAddress(string,string)": "9f409d77",
    "setup(bytes)": "9ded06df",
    "tokenHandler()": "1b3d6e87",
    "tokenManager()": "2a709b14",
    "tokenManagerAddress(bytes32)": "f8c8a826",
    "tokenManagerDeployer()": "6ac0d112",
    "tokenManagerImplementation(uint256)": "7e151fa6",
    "transferOperatorship(address)": "4a6a42d8",
    "transferOwnership(address)": "f2fde38b",
    "transmitInterchainTransfer(bytes32,address,string,bytes,uint256,bytes)": "70756cde",
    "trustedAddress(string)": "477aedc7",
    "trustedAddressHash(string)": "ffd5982a",
    "upgrade(address,bytes32,bytes)": "a3499c73"
  },
  "id": 66
}