{"abi":[{"type":"constructor","inputs":[{"name":"interchainTokenServiceAddress","type":"address","internalType":"address"}],"stateMutability":"nonpayable"},{"type":"function","name":"DOMAIN_SEPARATOR","inputs":[],"outputs":[{"name":"","type":"bytes32","internalType":"bytes32"}],"stateMutability":"view"},{"type":"function","name":"acceptMintership","inputs":[{"name":"fromMinter","type":"address","internalType":"address"}],"outputs":[],"stateMutability":"nonpayable"},{"type":"function","name":"allowance","inputs":[{"name":"","type":"address","internalType":"address"},{"name":"","type":"address","internalType":"address"}],"outputs":[{"name":"","type":"uint256","internalType":"uint256"}],"stateMutability":"view"},{"type":"function","name":"approve","inputs":[{"name":"spender","type":"address","internalType":"address"},{"name":"amount","type":"uint256","internalType":"uint256"}],"outputs":[{"name":"","type":"bool","internalType":"bool"}],"stateMutability":"nonpayable"},{"type":"function","name":"balanceOf","inputs":[{"name":"","type":"address","internalType":"address"}],"outputs":[{"name":"","type":"uint256","internalType":"uint256"}],"stateMutability":"view"},{"type":"function","name":"burn","inputs":[{"name":"account","type":"address","internalType":"address"},{"name":"amount","type":"uint256","internalType":"uint256"}],"outputs":[],"stateMutability":"nonpayable"},{"type":"function","name":"decimals","inputs":[],"outputs":[{"name":"","type":"uint8","internalType":"uint8"}],"stateMutability":"view"},{"type":"function","name":"decreaseAllowance","inputs":[{"name":"spender","type":"address","internalType":"address"},{"name":"subtractedValue","type":"uint256","internalType":"uint256"}],"outputs":[{"name":"","type":"bool","internalType":"bool"}],"stateMutability":"nonpayable"},{"type":"function","name":"hasRole","inputs":[{"name":"account","type":"address","internalType":"address"},{"name":"role","type":"uint8","internalType":"uint8"}],"outputs":[{"name":"","type":"bool","internalType":"bool"}],"stateMutability":"view"},{"type":"function","name":"increaseAllowance","inputs":[{"name":"spender","type":"address","internalType":"address"},{"name":"addedValue","type":"uint256","internalType":"uint256"}],"outputs":[{"name":"","type":"bool","internalType":"bool"}],"stateMutability":"nonpayable"},{"type":"function","name":"init","inputs":[{"name":"tokenId_","type":"bytes32","internalType":"bytes32"},{"name":"minter","type":"address","internalType":"address"},{"name":"tokenName","type":"string","internalType":"string"},{"name":"tokenSymbol","type":"string","internalType":"string"},{"name":"tokenDecimals","type":"uint8","internalType":"uint8"}],"outputs":[],"stateMutability":"nonpayable"},{"type":"function","name":"interchainTokenId","inputs":[],"outputs":[{"name":"","type":"bytes32","internalType":"bytes32"}],"stateMutability":"view"},{"type":"function","name":"interchainTokenService","inputs":[],"outputs":[{"name":"","type":"address","internalType":"address"}],"stateMutability":"view"},{"type":"function","name":"interchainTransfer","inputs":[{"name":"destinationChain","type":"string","internalType":"string"},{"name":"recipient","type":"bytes","internalType":"bytes"},{"name":"amount","type":"uint256","internalType":"uint256"},{"name":"metadata","type":"bytes","internalType":"bytes"}],"outputs":[],"stateMutability":"payable"},{"type":"function","name":"interchainTransferFrom","inputs":[{"name":"sender","type":"address","internalType":"address"},{"name":"destinationChain","type":"string","internalType":"string"},{"name":"recipient","type":"bytes","internalType":"bytes"},{"name":"amount","type":"uint256","internalType":"uint256"},{"name":"metadata","type":"bytes","internalType":"bytes"}],"outputs":[],"stateMutability":"payable"},{"type":"function","name":"isMinter","inputs":[{"name":"addr","type":"address","internalType":"address"}],"outputs":[{"name":"","type":"bool","internalType":"bool"}],"stateMutability":"view"},{"type":"function","name":"mint","inputs":[{"name":"account","type":"address","internalType":"address"},{"name":"amount","type":"uint256","internalType":"uint256"}],"outputs":[],"stateMutability":"nonpayable"},{"type":"function","name":"name","inputs":[],"outputs":[{"name":"","type":"string","internalType":"string"}],"stateMutability":"view"},{"type":"function","name":"nameHash","inputs":[],"outputs":[{"name":"","type":"bytes32","internalType":"bytes32"}],"stateMutability":"view"},{"type":"function","name":"nonces","inputs":[{"name":"","type":"address","internalType":"address"}],"outputs":[{"name":"","type":"uint256","internalType":"uint256"}],"stateMutability":"view"},{"type":"function","name":"permit","inputs":[{"name":"issuer","type":"address","internalType":"address"},{"name":"spender","type":"address","internalType":"address"},{"name":"value","type":"uint256","internalType":"uint256"},{"name":"deadline","type":"uint256","internalType":"uint256"},{"name":"v","type":"uint8","internalType":"uint8"},{"name":"r","type":"bytes32","internalType":"bytes32"},{"name":"s","type":"bytes32","internalType":"bytes32"}],"outputs":[],"stateMutability":"nonpayable"},{"type":"function","name":"proposeMintership","inputs":[{"name":"minter_","type":"address","internalType":"address"}],"outputs":[],"stateMutability":"nonpayable"},{"type":"function","name":"symbol","inputs":[],"outputs":[{"name":"","type":"string","internalType":"string"}],"stateMutability":"view"},{"type":"function","name":"totalSupply","inputs":[],"outputs":[{"name":"","type":"uint256","internalType":"uint256"}],"stateMutability":"view"},{"type":"function","name":"transfer","inputs":[{"name":"recipient","type":"address","internalType":"address"},{"name":"amount","type":"uint256","internalType":"uint256"}],"outputs":[{"name":"","type":"bool","internalType":"bool"}],"stateMutability":"nonpayable"},{"type":"function","name":"transferFrom","inputs":[{"name":"sender","type":"address","internalType":"address"},{"name":"recipient","type":"address","internalType":"address"},{"name":"amount","type":"uint256","internalType":"uint256"}],"outputs":[{"name":"","type":"bool","internalType":"bool"}],"stateMutability":"nonpayable"},{"type":"function","name":"transferMintership","inputs":[{"name":"minter_","type":"address","internalType":"address"}],"outputs":[],"stateMutability":"nonpayable"},{"type":"event","name":"Approval","inputs":[{"name":"owner","type":"address","indexed":true,"internalType":"address"},{"name":"spender","type":"address","indexed":true,"internalType":"address"},{"name":"value","type":"uint256","indexed":false,"internalType":"uint256"}],"anonymous":false},{"type":"event","name":"RolesAdded","inputs":[{"name":"account","type":"address","indexed":true,"internalType":"address"},{"name":"accountRoles","type":"uint256","indexed":false,"internalType":"uint256"}],"anonymous":false},{"type":"event","name":"RolesProposed","inputs":[{"name":"fromAccount","type":"address","indexed":true,"internalType":"address"},{"name":"toAccount","type":"address","indexed":true,"internalType":"address"},{"name":"accountRoles","type":"uint256","indexed":false,"internalType":"uint256"}],"anonymous":false},{"type":"event","name":"RolesRemoved","inputs":[{"name":"account","type":"address","indexed":true,"internalType":"address"},{"name":"accountRoles","type":"uint256","indexed":false,"internalType":"uint256"}],"anonymous":false},{"type":"event","name":"Transfer","inputs":[{"name":"from","type":"address","indexed":true,"internalType":"address"},{"name":"to","type":"address","indexed":true,"internalType":"address"},{"name":"value","type":"uint256","indexed":false,"internalType":"uint256"}],"anonymous":false},{"type":"error","name":"AlreadyInitialized","inputs":[]},{"type":"error","name":"InterchainTokenServiceAddressZero","inputs":[]},{"type":"error","name":"InvalidAccount","inputs":[]},{"type":"error","name":"InvalidProposedRoles","inputs":[{"name":"fromAccount","type":"address","internalType":"address"},{"name":"toAccount","type":"address","internalType":"address"},{"name":"accountRoles","type":"uint256","internalType":"uint256"}]},{"type":"error","name":"InvalidS","inputs":[]},{"type":"error","name":"InvalidSignature","inputs":[]},{"type":"error","name":"InvalidV","inputs":[]},{"type":"error","name":"MissingAllRoles","inputs":[{"name":"account","type":"address","internalType":"address"},{"name":"accountRoles","type":"uint256","internalType":"uint256"}]},{"type":"error","name":"MissingAnyOfRoles","inputs":[{"name":"account","type":"address","internalType":"address"},{"name":"accountRoles","type":"uint256","internalType":"uint256"}]},{"type":"error","name":"MissingRole","inputs":[{"name":"account","type":"address","internalType":"address"},{"name":"role","type":"uint8","internalType":"uint8"}]},{"type":"error","name":"PermitExpired","inputs":[]},{"type":"error","name":"TokenIdZero","inputs":[]},{"type":"error","name":"TokenNameEmpty","inputs":[]},{"type":"error","name":"TokenSymbolEmpty","inputs":[]}],"bytecode":{"object":"0x60a060405234801561000f575f80fd5b50604051611af4380380611af483398101604081905261002e9161008f565b61005760017fc778385ecb3e8cecb82223fa1f343ec6865b2d64c65b0c15c7e8aef225d9e21455565b6001600160a01b03811661007e5760405163a76361c360e01b815260040160405180910390fd5b6001600160a01b03166080526100bc565b5f6020828403121561009f575f80fd5b81516001600160a01b03811681146100b5575f80fd5b9392505050565b608051611a0b6100e95f395f818161020b01528181610830015281816109620152610a5b0152611a0b5ff3fe608060405260043610610195575f3560e01c806395a8c58d116100e7578063aa271e1a11610087578063cf86a95a11610062578063cf86a95a1461048e578063d505accf146104ad578063dd62ed3e146104cc578063f172a4ce14610502575f80fd5b8063aa271e1a1461043d578063b5ef694d1461045c578063bc0ba3c51461047b575f80fd5b80639dc29fac116100c25780639dc29fac146103cd578063a457c2d7146103ec578063a60fee371461040b578063a9059cbb1461041e575f80fd5b806395a8c58d1461037b57806395d89b411461039a5780639c176677146103ae575f80fd5b8063313ce5671161015257806340c10f191161012d57806340c10f19146102e557806370a08231146103065780637ecebe00146103315780638626698f1461035c575f80fd5b8063313ce567146102875780633644e515146102b257806339509351146102c6575f80fd5b806306fdde0314610199578063095ea7b3146101c357806309c6bed9146101f2578063129d81881461023557806318160ddd1461025357806323b872dd14610268575b5f80fd5b3480156101a4575f80fd5b506101ad610517565b6040516101ba91906113d0565b60405180910390f35b3480156101ce575f80fd5b506101e26101dd36600461141d565b6105a3565b60405190151581526020016101ba565b3480156101fd575f80fd5b506040516001600160a01b037f00000000000000000000000000000000000000000000000000000000000000001681526020016101ba565b348015610240575f80fd5b506008545b6040519081526020016101ba565b34801561025e575f80fd5b5061024560025481565b348015610273575f80fd5b506101e2610282366004611445565b6105b9565b348015610292575f80fd5b506007546102a09060ff1681565b60405160ff90911681526020016101ba565b3480156102bd575f80fd5b5061024561060e565b3480156102d1575f80fd5b506101e26102e036600461141d565b6106a7565b3480156102f0575f80fd5b506103046102ff36600461141d565b6106dd565b005b348015610311575f80fd5b5061024561032036600461147f565b5f6020819052908152604090205481565b34801561033c575f80fd5b5061024561034b36600461147f565b60046020525f908152604090205481565b348015610367575f80fd5b506103046103763660046114ed565b610733565b348015610386575f80fd5b506101e2610395366004611586565b6108a4565b3480156103a5575f80fd5b506101ad6108c5565b3480156103b9575f80fd5b506103046103c836600461147f565b6108d2565b3480156103d8575f80fd5b506103046103e736600461141d565b6108e0565b3480156103f7575f80fd5b506101e261040636600461141d565b61091f565b6103046104193660046115b7565b610955565b348015610429575f80fd5b506101e261043836600461141d565b6109fd565b348015610448575f80fd5b506101e261045736600461147f565b610a09565b348015610467575f80fd5b5061030461047636600461147f565b610a14565b61030461048936600461166f565b610a58565b348015610499575f80fd5b506103046104a836600461147f565b610abe565b3480156104b8575f80fd5b506103046104c7366004611717565b610afe565b3480156104d7575f80fd5b506102456104e636600461177d565b600160209081525f928352604080842090915290825290205481565b34801561050d575f80fd5b5061024560035481565b60058054610524906117a5565b80601f0160208091040260200160405190810160405280929190818152602001828054610550906117a5565b801561059b5780601f106105725761010080835404028352916020019161059b565b820191905f5260205f20905b81548152906001019060200180831161057e57829003601f168201915b505050505081565b5f6105af338484610d27565b5060015b92915050565b6001600160a01b0383165f9081526001602090815260408083203384529091528120545f1981146105f8576105f885336105f386856117f1565b610d27565b610603858585610dc3565b506001949350505050565b60035460408051808201825260018152603160f81b60209182015281517f8b73c3c69bb8fe3d512ecc4cf759cc79239f7b179b0ffacaa9a75d522b39400f81830152808301939093527fc89efdaa54c0f20c7adf612882df0950f5a951637e0307cdcb4c672f298b8bc660608401524660808401523060a0808501919091528251808503909101815260c0909301909152815191012090565b335f8181526001602090815260408083206001600160a01b038716845290915281205490916105af9185906105f3908690611804565b5f6106f76106ea33610e9d565b600160ff84161b16151590565b6107245760405163bb6c163960e01b815233600482015260ff821660248201526044015b60405180910390fd5b61072e8383610eb0565b505050565b7fc778385ecb3e8cecb82223fa1f343ec6865b2d64c65b0c15c7e8aef225d9e21454156107725760405162dc149f60e41b815260040160405180910390fd5b61079b60017fc778385ecb3e8cecb82223fa1f343ec6865b2d64c65b0c15c7e8aef225d9e21455565b866107b95760405163248fd78f60e01b815260040160405180910390fd5b5f8490036107da57604051630d7673b560e01b815260040160405180910390fd5b5f8290036107fb5760405163f09ce01360e01b815260040160405180910390fd5b6005610808858783611876565b506006610816838583611876565b506007805460ff191660ff831617905560088790556108547f0000000000000000000000000000000000000000000000000000000000000000610f5e565b61085d86610f5e565b61089b85858080601f0160208091040260200160405190810160405280939291908181526020018383808284375f92019190915250610f6892505050565b50505050505050565b5f6108be6108b184610e9d565b600160ff85161b16151590565b9392505050565b60068054610524906117a5565b6108dd81335f610f75565b50565b5f6108ed6106ea33610e9d565b6109155760405163bb6c163960e01b815233600482015260ff8216602482015260440161071b565b61072e8383610f86565b335f8181526001602090815260408083206001600160a01b038716845290915281205490916105af9185906105f39086906117f1565b61096088338561102e565b7f00000000000000000000000000000000000000000000000000000000000000006001600160a01b03166370756cde3461099960085490565b8b8b8b8b8b8b8b8b6040518b63ffffffff1660e01b81526004016109c599989796959493929190611958565b5f604051808303818588803b1580156109dc575f80fd5b505af11580156109ee573d5f803e3d5ffd5b50505050505050505050505050565b5f6105af338484610dc3565b5f6105b382826108a4565b5f610a216106ea33610e9d565b610a495760405163bb6c163960e01b815233600482015260ff8216602482015260440161071b565b610a5433835f611070565b5050565b337f00000000000000000000000000000000000000000000000000000000000000006001600160a01b03166370756cde34610a9260085490565b848c8c8c8c8c8c8c6040518b63ffffffff1660e01b81526004016109c599989796959493929190611958565b5f610acb6106ea33610e9d565b610af35760405163bb6c163960e01b815233600482015260ff8216602482015260440161071b565b610a5433835f611081565b83421115610b1f5760405163068568f360e21b815260040160405180910390fd5b7f7fffffffffffffffffffffffffffffff5d576e7357a4501ddfe92f46681b20a0811115610b60576040516308183ce960e31b815260040160405180910390fd5b8260ff16601b14158015610b7857508260ff16601c14155b15610b965760405163119bce3960e01b815260040160405180910390fd5b5f60405180604001604052806002815260200161190160f01b815250610bba61060e565b6001600160a01b038a165f90815260046020526040812080547f6e71edae12b1b97f4d1f60370fef10105fa2faae0126114a169c64845d6126c9928d928d928d92909190610c07836119c0565b909155506040805160208101969096526001600160a01b0394851690860152929091166060840152608083015260a082015260c0810188905260e00160405160208183030381529060405280519060200120604051602001610c6b939291906119d8565b60408051601f1981840301815282825280516020918201205f80855291840180845281905260ff88169284019290925260608301869052608083018590529092509060019060a0016020604051602081039080840390855afa158015610cd3573d5f803e3d5ffd5b505050602060405103519050886001600160a01b0316816001600160a01b031614610d1157604051638baa579f60e01b815260040160405180910390fd5b610d1c898989610d27565b505050505050505050565b6001600160a01b0383161580610d4457506001600160a01b038216155b15610d6257604051630da30f6560e31b815260040160405180910390fd5b6001600160a01b038381165f8181526001602090815260408083209487168084529482529182902085905590518481527f8c5be1e5ebec7d5bd14f71427d1e84f3dd0314c0f7b2291e5b200ac8c7c3b92591015b60405180910390a3505050565b6001600160a01b0383161580610de057506001600160a01b038216155b15610dfe57604051630da30f6560e31b815260040160405180910390fd5b6001600160a01b0383165f9081526020819052604081208054839290610e259084906117f1565b90915550506001600160a01b0382165f9081526020819052604081208054839290610e51908490611804565b92505081905550816001600160a01b0316836001600160a01b03167fddf252ad1be2c89b69c2b068fc378daa952ba7f163c4a11628f55a4df523b3ef83604051610db691815260200190565b5f80610ea883611092565b549392505050565b6001600160a01b038216610ed757604051630da30f6560e31b815260040160405180910390fd5b8060025f828254610ee89190611804565b90915550506001600160a01b0382165f9081526020819052604081208054839290610f14908490611804565b90915550506040518181526001600160a01b038316905f907fddf252ad1be2c89b69c2b068fc378daa952ba7f163c4a11628f55a4df523b3ef906020015b60405180910390a35050565b6108dd815f6110fe565b8051602090910120600355565b61072e8383600160ff85161b61110e565b6001600160a01b038216610fad57604051630da30f6560e31b815260040160405180910390fd5b6001600160a01b0382165f9081526020819052604081208054839290610fd49084906117f1565b925050819055508060025f828254610fec91906117f1565b90915550506040518181525f906001600160a01b038416907fddf252ad1be2c89b69c2b068fc378daa952ba7f163c4a11628f55a4df523b3ef90602001610f52565b6001600160a01b038084165f908152600160209081526040808320938616835292905220545f19811461106a5761106a84846105f385856117f1565b50505050565b61072e8383600160ff85161b611167565b61072e8383600160ff85161b6111f9565b5f7fde9bdca322e1a848f72215bc15cf2c87fe7749145789a9ee281a2a6290af26ab826040516020016110e192919091825260601b6bffffffffffffffffffffffff1916602082015260340190565b604051602081830303815290604052805190602001209050919050565b610a5482600160ff84161b611244565b8061111984846112a4565b146111515760405163018013f960e61b81526001600160a01b038085166004830152831660248201526044810182905260640161071b565b61115c83835f6112b9565b61072e8383836111f9565b61117a61117384610e9d565b8216821490565b6111a957604051631fe9beed60e21b81526001600160a01b03841660048201526024810182905260440161071b565b6111b48383836112b9565b816001600160a01b0316836001600160a01b03167ff7158d1591c2cf17c0e6b9459d86365c47fe0969c79f40ef49e0c437d8f3991483604051610db691815260200190565b61120561117384610e9d565b61123457604051631fe9beed60e21b81526001600160a01b03841660048201526024810182905260440161071b565b61123e83826112cd565b61072e82825b5f8161124f84610e9d565b17905061125c8382611321565b826001600160a01b03167f34e73c57659d4b6809b53db4feee9b007b892e978114eda420d2991aba1501438360405161129791815260200190565b60405180910390a2505050565b5f806112b08484611333565b54949350505050565b5f6112c48484611333565b91909155505050565b5f81196112d984610e9d565b1690506112e68382611321565b826001600160a01b03167fccf920c8facee98a9c2a6c6124f2857b87b17e9f3a819bfcc6945196ee77366b8360405161129791815260200190565b5f61132b83611092565b919091555050565b5f7ff96e07b2f4fbb81c31567d2b261589af429e98f0958d53f7e6ad5d63aea0ab7c838360405160200161139093929190928352606091821b6bffffffffffffffffffffffff199081166020850152911b16603482015260480190565b60405160208183030381529060405280519060200120905092915050565b5f5b838110156113c85781810151838201526020016113b0565b50505f910152565b602081525f82518060208401526113ee8160408501602087016113ae565b601f01601f19169190910160400192915050565b80356001600160a01b0381168114611418575f80fd5b919050565b5f806040838503121561142e575f80fd5b61143783611402565b946020939093013593505050565b5f805f60608486031215611457575f80fd5b61146084611402565b925061146e60208501611402565b929592945050506040919091013590565b5f6020828403121561148f575f80fd5b6108be82611402565b5f8083601f8401126114a8575f80fd5b50813567ffffffffffffffff8111156114bf575f80fd5b6020830191508360208285010111156114d6575f80fd5b9250929050565b803560ff81168114611418575f80fd5b5f805f805f805f60a0888a031215611503575f80fd5b8735965061151360208901611402565b9550604088013567ffffffffffffffff81111561152e575f80fd5b61153a8a828b01611498565b909650945050606088013567ffffffffffffffff811115611559575f80fd5b6115658a828b01611498565b90945092506115789050608089016114dd565b905092959891949750929550565b5f8060408385031215611597575f80fd5b6115a083611402565b91506115ae602084016114dd565b90509250929050565b5f805f805f805f8060a0898b0312156115ce575f80fd5b6115d789611402565b9750602089013567ffffffffffffffff8111156115f2575f80fd5b6115fe8b828c01611498565b909850965050604089013567ffffffffffffffff81111561161d575f80fd5b6116298b828c01611498565b90965094505060608901359250608089013567ffffffffffffffff81111561164f575f80fd5b61165b8b828c01611498565b999c989b5096995094979396929594505050565b5f805f805f805f6080888a031215611685575f80fd5b873567ffffffffffffffff81111561169b575f80fd5b6116a78a828b01611498565b909850965050602088013567ffffffffffffffff8111156116c6575f80fd5b6116d28a828b01611498565b90965094505060408801359250606088013567ffffffffffffffff8111156116f8575f80fd5b6117048a828b01611498565b989b979a50959850939692959293505050565b5f805f805f805f60e0888a03121561172d575f80fd5b61173688611402565b965061174460208901611402565b95506040880135945060608801359350611760608089016114dd565b9699959850939692959460a0840135945060c09093013592915050565b5f806040838503121561178e575f80fd5b61179783611402565b91506115ae60208401611402565b600181811c908216806117b957607f821691505b6020821081036117d757634e487b7160e01b5f52602260045260245ffd5b50919050565b634e487b7160e01b5f52601160045260245ffd5b818103818111156105b3576105b36117dd565b808201808211156105b3576105b36117dd565b634e487b7160e01b5f52604160045260245ffd5b601f82111561072e57805f5260205f20601f840160051c810160208510156118505750805b601f840160051c820191505b8181101561186f575f815560010161185c565b5050505050565b67ffffffffffffffff83111561188e5761188e611817565b6118a28361189c83546117a5565b8361182b565b5f601f8411600181146118d3575f85156118bc5750838201355b5f19600387901b1c1916600186901b17835561186f565b5f83815260208120601f198716915b8281101561190257868501358255602094850194600190920191016118e2565b508682101561191e575f1960f88860031b161c19848701351681555b505060018560011b0183555050505050565b81835281816020850137505f828201602090810191909152601f909101601f19169091010190565b8981526001600160a01b038916602082015260c0604082018190525f90611982908301898b611930565b828103606084015261199581888a611930565b905085608084015282810360a08401526119b0818587611930565b9c9b505050505050505050505050565b5f600182016119d1576119d16117dd565b5060010190565b5f84516119e98184602089016113ae565b9190910192835250602082015260400191905056fea164736f6c634300081a000a","linkReferences":{}},"methodIdentifiers":{"DOMAIN_SEPARATOR()":"3644e515","acceptMintership(address)":"9c176677","allowance(address,address)":"dd62ed3e","approve(address,uint256)":"095ea7b3","balanceOf(address)":"70a08231","burn(address,uint256)":"9dc29fac","decimals()":"313ce567","decreaseAllowance(address,uint256)":"a457c2d7","hasRole(address,uint8)":"95a8c58d","increaseAllowance(address,uint256)":"39509351","init(bytes32,address,string,string,uint8)":"8626698f","interchainTokenId()":"129d8188","interchainTokenService()":"09c6bed9","interchainTransfer(string,bytes,uint256,bytes)":"bc0ba3c5","interchainTransferFrom(address,string,bytes,uint256,bytes)":"a60fee37","isMinter(address)":"aa271e1a","mint(address,uint256)":"40c10f19","name()":"06fdde03","nameHash()":"f172a4ce","nonces(address)":"7ecebe00","permit(address,address,uint256,uint256,uint8,bytes32,bytes32)":"d505accf","proposeMintership(address)":"b5ef694d","symbol()":"95d89b41","totalSupply()":"18160ddd","transfer(address,uint256)":"a9059cbb","transferFrom(address,address,uint256)":"23b872dd","transferMintership(address)":"cf86a95a"},"id":70}