{
  "abi": [
    {
      "type": "constructor",
      "inputs": [
        {
          "name": "implementationAddress_",
          "type": "address",
          "internalType": "address"
        }
      ],
      "stateMutability": "nonpayable"
    },
    {
      "type": "function",
      "name": "deployInterchainToken",
      "inputs": [
        {
          "name": "salt",
          "type": "bytes32",
          "internalType": "bytes32"
        },
        {
          "name": "tokenId",
          "type": "bytes32",
          "internalType": "bytes32"
        },
        {
          "name": "minter",
          "type": "address",
          "internalType": "address"
        },
        {
          "name": "name",
          "type": "string",
          "internalType": "string"
        },
        {
          "name": "symbol",
          "type": "string",
          "internalType": "string"
        },
        {
          "name": "decimals",
          "type": "uint8",
          "internalType": "uint8"
        }
      ],
      "outputs": [
        {
          "name": "tokenAddress",
          "type": "address",
          "internalType": "address"
        }
      ],
      "stateMutability": "nonpayable"
    },
    {
      "type": "function",
      "name": "deployedAddress",
      "inputs": [
        {
          "name": "salt",
          "type": "bytes32",
          "internalType": "bytes32"
        }
      ],
      "outputs": [
        {
          "name": "tokenAddress",
          "type": "address",
          "internalType": "address"
        }
      ],
      "stateMutability": "view"
    },
    {
      "type": "function",
      "name": "implementationAddress",
      "inputs": [],
      "outputs": [
        {
          "name": "",
          "type": "address",
          "internalType": "address"
        }
      ],
      "stateMutability": "view"
    },
    {
      "type": "error",
      "name": "AddressZero",
      "inputs": []
    },
    {
      "type": "error",
      "name": "AlreadyDeployed",
      "inputs": []
    },
    {
      "type": "error",
      "name": "DeployFailed",
      "inputs": []
    },
    {
      "type": "error",
      "name": "EmptyBytecode",
      "inputs": []
    },
    {
      "type": "error",
      "name": "TokenDeploymentFailed",
      "inputs": []
    }
  ],
  "bytecode": {
    "object": "0x60a0604052348015600e575f80fd5b5060405161081a38038061081a833981016040819052602b916061565b6001600160a01b038116605157604051639fabe1c160e01b815260040160405180910390fd5b6001600160a01b0316608052608c565b5f602082840312156070575f80fd5b81516001600160a01b03811681146085575f80fd5b9392505050565b6080516107716100a95f395f81816048015260fc01526107715ff3fe608060405234801561000f575f80fd5b506004361061003f575f3560e01c8063b97a231914610043578063ee85660314610086578063f575f35b14610099575b5f80fd5b61006a7f000000000000000000000000000000000000000000000000000000000000000081565b6040516001600160a01b03909116815260200160405180910390f35b61006a610094366004610407565b6100ac565b61006a6100a7366004610463565b6100bc565b5f6100b6826101e9565b92915050565b604080516037808252606082019092525f918291906020820181803683375050733d602d80600a3d3981f3363d3d373d3d3d363d7360601b6020830152507f0000000000000000000000000000000000000000000000000000000000000000606081901b60348301526e5af43d82803e903d91602b57fd5bf360881b604883015290915061014a828c6102b4565b9250826001600160a01b03163b5f0361017657604051636851855360e11b815260040160405180910390fd5b604051638626698f60e01b81526001600160a01b03841690638626698f906101ae908d908d908d908d908d908d908d90600401610542565b5f604051808303815f87803b1580156101c5575f80fd5b505af11580156101d7573d5f803e3d5ffd5b50505050505098975050505050505050565b5f803083604051806101c0016040528061018281526020016105e361018291398051602091820120604051610253949392016001600160f81b0319815260609390931b6bffffffffffffffffffffffff191660018401526015830191909152603582015260550190565b60408051601f1981840301815282825280516020918201206135a560f21b8285015260601b6bffffffffffffffffffffffff19166022840152600160f81b603684015281516017818503018152603790930190915281519101209392505050565b5f6102be826101e9565b905082515f036102e1576040516321744a5960e01b815260040160405180910390fd5b6102f3816001600160a01b03166103c5565b156103115760405163a6ef0ba160e01b815260040160405180910390fd5b5f80604051806101c0016040528061018281526020016105e3610182913980519091508481602084015ff592506001600160a01b0383166103655760405163b4f5411160e01b815260040160405180910390fd5b6040516203ba1b60e51b81526001600160a01b03841690627743609061038f908990600401610597565b5f604051808303815f87803b1580156103a6575f80fd5b505af11580156103b8573d5f803e3d5ffd5b5050505050505092915050565b5f6001600160a01b0382163f801580159061040057507fc5d2460186f7233c927e7db2dcc703c0e500b653ca82273b7bfad8045d85a4708114155b9392505050565b5f60208284031215610417575f80fd5b5035919050565b5f8083601f84011261042e575f80fd5b50813567ffffffffffffffff811115610445575f80fd5b60208301915083602082850101111561045c575f80fd5b9250929050565b5f805f805f805f8060c0898b03121561047a575f80fd5b883597506020890135965060408901356001600160a01b038116811461049e575f80fd5b9550606089013567ffffffffffffffff8111156104b9575f80fd5b6104c58b828c0161041e565b909650945050608089013567ffffffffffffffff8111156104e4575f80fd5b6104f08b828c0161041e565b90945092505060a089013560ff81168114610509575f80fd5b809150509295985092959890939650565b81835281816020850137505f828201602090810191909152601f909101601f19169091010190565b8781526001600160a01b038716602082015260a0604082018190525f9061056c908301878961051a565b828103606084015261057f81868861051a565b91505060ff8316608083015298975050505050505050565b602081525f82518060208401525f5b818110156105c357602081860181015160408684010152016105a6565b505f604082850101526040601f19601f8301168401019150509291505056fe608060405234801561001057600080fd5b50610162806100206000396000f3fe60806040526004361061001d5760003560e01c806277436014610022575b600080fd5b61003561003036600461007b565b610037565b005b8051602082016000f061004957600080fd5b50565b7f4e487b7100000000000000000000000000000000000000000000000000000000600052604160045260246000fd5b60006020828403121561008d57600080fd5b813567ffffffffffffffff808211156100a557600080fd5b818401915084601f8301126100b957600080fd5b8135818111156100cb576100cb61004c565b604051601f8201601f19908116603f011681019083821181831017156100f3576100f361004c565b8160405282815287602084870101111561010c57600080fd5b82602086016020830137600092810160200192909252509594505050505056fea264697066735822122094780ce55d28f1d568f4e0ab1b9dc230b96e952b73d2e06456fbff2289fa27f464736f6c63430008150033a164736f6c634300081a000a",
    "linkReferences": {}
  },
  "methodIdentifiers": {
    "deployInterchainToken(bytes32,bytes32,address,string,string,uint8)": "f575f35b",
    "deployedAddress(bytes32)": "ee856603",
    "implementationAddress()": "b97a2319"
  },
  "id": 102
}