{
  "abi": [
    {
      "type": "constructor",
      "inputs": [
        {
          "name": "originTEL_",
          "type": "address",
          "internalType": "address"
        },
        {
          "name": "originLinker_",
          "type": "address",
          "internalType": "address"
        },
        {
          "name": "originSalt_",
          "type": "bytes32",
          "internalType": "bytes32"
        },
        {
          "name": "originChainName_",
          "type": "string",
          "internalType": "string"
        },
        {
          "name": "interchainTokenService_",
          "type": "address",
          "internalType": "address"
        },
        {
          "name": "name_",
          "type": "string",
          "internalType": "string"
        },
        {
          "name": "symbol_",
          "type": "string",
          "internalType": "string"
        },
        {
          "name": "recoverableWindow_",
          "type": "uint256",
          "internalType": "uint256"
        },
        {
          "name": "governanceAddress_",
          "type": "address",
          "internalType": "address"
        },
        {
          "name": "baseERC20_",
          "type": "address",
          "internalType": "address"
        },
        {
          "name": "maxToClean",
          "type": "uint16",
          "internalType": "uint16"
        }
      ],
      "stateMutability": "nonpayable"
    },
    {
      "type": "receive",
      "stateMutability": "payable"
    },
    {
      "type": "function",
      "name": "DECIMALS_CONVERTER",
      "inputs": [],
      "outputs": [
        {
          "name": "",
          "type": "uint256",
          "internalType": "uint256"
        }
      ],
      "stateMutability": "view"
    },
    {
      "type": "function",
      "name": "SYSTEM_ADDRESS",
      "inputs": [],
      "outputs": [
        {
          "name": "",
          "type": "address",
          "internalType": "address"
        }
      ],
      "stateMutability": "view"
    },
    {
      "type": "function",
      "name": "UPGRADE_INTERFACE_VERSION",
      "inputs": [],
      "outputs": [
        {
          "name": "",
          "type": "string",
          "internalType": "string"
        }
      ],
      "stateMutability": "view"
    },
    {
      "type": "function",
      "name": "allowance",
      "inputs": [
        {
          "name": "owner",
          "type": "address",
          "internalType": "address"
        },
        {
          "name": "spender",
          "type": "address",
          "internalType": "address"
        }
      ],
      "outputs": [
        {
          "name": "",
          "type": "uint256",
          "internalType": "uint256"
        }
      ],
      "stateMutability": "view"
    },
    {
      "type": "function",
      "name": "approve",
      "inputs": [
        {
          "name": "spender",
          "type": "address",
          "internalType": "address"
        },
        {
          "name": "amount",
          "type": "uint256",
          "internalType": "uint256"
        }
      ],
      "outputs": [
        {
          "name": "",
          "type": "bool",
          "internalType": "bool"
        }
      ],
      "stateMutability": "nonpayable"
    },
    {
      "type": "function",
      "name": "balanceOf",
      "inputs": [
        {
          "name": "account",
          "type": "address",
          "internalType": "address"
        }
      ],
      "outputs": [
        {
          "name": "",
          "type": "uint256",
          "internalType": "uint256"
        }
      ],
      "stateMutability": "view"
    },
    {
      "type": "function",
      "name": "balanceOf",
      "inputs": [
        {
          "name": "account",
          "type": "address",
          "internalType": "address"
        },
        {
          "name": "includeUnsettled",
          "type": "bool",
          "internalType": "bool"
        }
      ],
      "outputs": [
        {
          "name": "",
          "type": "uint256",
          "internalType": "uint256"
        }
      ],
      "stateMutability": "view"
    },
    {
      "type": "function",
      "name": "baseToken",
      "inputs": [],
      "outputs": [
        {
          "name": "",
          "type": "address",
          "internalType": "address"
        }
      ],
      "stateMutability": "view"
    },
    {
      "type": "function",
      "name": "burn",
      "inputs": [
        {
          "name": "from",
          "type": "address",
          "internalType": "address"
        },
        {
          "name": "nativeAmount",
          "type": "uint256",
          "internalType": "uint256"
        }
      ],
      "outputs": [
        {
          "name": "",
          "type": "uint256",
          "internalType": "uint256"
        }
      ],
      "stateMutability": "nonpayable"
    },
    {
      "type": "function",
      "name": "cancelOwnershipHandover",
      "inputs": [],
      "outputs": [],
      "stateMutability": "payable"
    },
    {
      "type": "function",
      "name": "closeCase",
      "inputs": [
        {
          "name": "recover",
          "type": "bool",
          "internalType": "bool"
        },
        {
          "name": "victim",
          "type": "address",
          "internalType": "address"
        },
        {
          "name": "freezes",
          "type": "tuple[]",
          "internalType": "struct Suspension[]",
          "components": [
            {
              "name": "account",
              "type": "address",
              "internalType": "address"
            },
            {
              "name": "rawIndex",
              "type": "uint256",
              "internalType": "uint256"
            },
            {
              "name": "amount",
              "type": "uint128",
              "internalType": "uint128"
            }
          ]
        }
      ],
      "outputs": [
        {
          "name": "",
          "type": "bool",
          "internalType": "bool"
        }
      ],
      "stateMutability": "nonpayable"
    },
    {
      "type": "function",
      "name": "completeOwnershipHandover",
      "inputs": [
        {
          "name": "pendingOwner",
          "type": "address",
          "internalType": "address"
        }
      ],
      "outputs": [],
      "stateMutability": "payable"
    },
    {
      "type": "function",
      "name": "decimals",
      "inputs": [],
      "outputs": [
        {
          "name": "",
          "type": "uint8",
          "internalType": "uint8"
        }
      ],
      "stateMutability": "view"
    },
    {
      "type": "function",
      "name": "decreaseAllowance",
      "inputs": [
        {
          "name": "spender",
          "type": "address",
          "internalType": "address"
        },
        {
          "name": "subtractedValue",
          "type": "uint256",
          "internalType": "uint256"
        }
      ],
      "outputs": [
        {
          "name": "",
          "type": "bool",
          "internalType": "bool"
        }
      ],
      "stateMutability": "nonpayable"
    },
    {
      "type": "function",
      "name": "disableUnwrap",
      "inputs": [],
      "outputs": [],
      "stateMutability": "nonpayable"
    },
    {
      "type": "function",
      "name": "distributeStakeReward",
      "inputs": [
        {
          "name": "validator",
          "type": "address",
          "internalType": "address"
        },
        {
          "name": "rewardAmount",
          "type": "uint256",
          "internalType": "uint256"
        }
      ],
      "outputs": [],
      "stateMutability": "payable"
    },
    {
      "type": "function",
      "name": "doubleWrap",
      "inputs": [],
      "outputs": [],
      "stateMutability": "payable"
    },
    {
      "type": "function",
      "name": "freeze",
      "inputs": [
        {
          "name": "freezes",
          "type": "tuple[]",
          "internalType": "struct Suspension[]",
          "components": [
            {
              "name": "account",
              "type": "address",
              "internalType": "address"
            },
            {
              "name": "rawIndex",
              "type": "uint256",
              "internalType": "uint256"
            },
            {
              "name": "amount",
              "type": "uint128",
              "internalType": "uint128"
            }
          ]
        }
      ],
      "outputs": [
        {
          "name": "",
          "type": "bool",
          "internalType": "bool"
        }
      ],
      "stateMutability": "nonpayable"
    },
    {
      "type": "function",
      "name": "frozen",
      "inputs": [
        {
          "name": "",
          "type": "address",
          "internalType": "address"
        }
      ],
      "outputs": [
        {
          "name": "",
          "type": "uint256",
          "internalType": "uint256"
        }
      ],
      "stateMutability": "view"
    },
    {
      "type": "function",
      "name": "governanceAddress",
      "inputs": [],
      "outputs": [
        {
          "name": "",
          "type": "address",
          "internalType": "address"
        }
      ],
      "stateMutability": "view"
    },
    {
      "type": "function",
      "name": "increaseAllowance",
      "inputs": [
        {
          "name": "spender",
          "type": "address",
          "internalType": "address"
        },
        {
          "name": "addedValue",
          "type": "uint256",
          "internalType": "uint256"
        }
      ],
      "outputs": [
        {
          "name": "",
          "type": "bool",
          "internalType": "bool"
        }
      ],
      "stateMutability": "nonpayable"
    },
    {
      "type": "function",
      "name": "initialize",
      "inputs": [
        {
          "name": "governanceAddress_",
          "type": "address",
          "internalType": "address"
        },
        {
          "name": "maxToClean_",
          "type": "uint16",
          "internalType": "uint16"
        },
        {
          "name": "owner_",
          "type": "address",
          "internalType": "address"
        }
      ],
      "outputs": [],
      "stateMutability": "nonpayable"
    },
    {
      "type": "function",
      "name": "interchainTokenId",
      "inputs": [],
      "outputs": [
        {
          "name": "",
          "type": "bytes32",
          "internalType": "bytes32"
        }
      ],
      "stateMutability": "view"
    },
    {
      "type": "function",
      "name": "interchainTokenService",
      "inputs": [],
      "outputs": [
        {
          "name": "",
          "type": "address",
          "internalType": "address"
        }
      ],
      "stateMutability": "view"
    },
    {
      "type": "function",
      "name": "interchainTransfer",
      "inputs": [
        {
          "name": "destinationChain",
          "type": "string",
          "internalType": "string"
        },
        {
          "name": "recipient",
          "type": "bytes",
          "internalType": "bytes"
        },
        {
          "name": "amount",
          "type": "uint256",
          "internalType": "uint256"
        },
        {
          "name": "metadata",
          "type": "bytes",
          "internalType": "bytes"
        }
      ],
      "outputs": [],
      "stateMutability": "payable"
    },
    {
      "type": "function",
      "name": "interchainTransferFrom",
      "inputs": [
        {
          "name": "sender",
          "type": "address",
          "internalType": "address"
        },
        {
          "name": "destinationChain",
          "type": "string",
          "internalType": "string"
        },
        {
          "name": "recipient",
          "type": "bytes",
          "internalType": "bytes"
        },
        {
          "name": "amount",
          "type": "uint256",
          "internalType": "uint256"
        },
        {
          "name": "metadata",
          "type": "bytes",
          "internalType": "bytes"
        }
      ],
      "outputs": [],
      "stateMutability": "payable"
    },
    {
      "type": "function",
      "name": "isMinter",
      "inputs": [
        {
          "name": "addr",
          "type": "address",
          "internalType": "address"
        }
      ],
      "outputs": [
        {
          "name": "",
          "type": "bool",
          "internalType": "bool"
        }
      ],
      "stateMutability": "view"
    },
    {
      "type": "function",
      "name": "linkedTokenDeploySalt",
      "inputs": [],
      "outputs": [
        {
          "name": "",
          "type": "bytes32",
          "internalType": "bytes32"
        }
      ],
      "stateMutability": "view"
    },
    {
      "type": "function",
      "name": "mint",
      "inputs": [
        {
          "name": "to",
          "type": "address",
          "internalType": "address"
        },
        {
          "name": "interchainAmount",
          "type": "uint256",
          "internalType": "uint256"
        }
      ],
      "outputs": [
        {
          "name": "",
          "type": "uint256",
          "internalType": "uint256"
        }
      ],
      "stateMutability": "nonpayable"
    },
    {
      "type": "function",
      "name": "name",
      "inputs": [],
      "outputs": [
        {
          "name": "",
          "type": "string",
          "internalType": "string"
        }
      ],
      "stateMutability": "view"
    },
    {
      "type": "function",
      "name": "nonce",
      "inputs": [
        {
          "name": "account",
          "type": "address",
          "internalType": "address"
        }
      ],
      "outputs": [
        {
          "name": "",
          "type": "uint128",
          "internalType": "uint128"
        }
      ],
      "stateMutability": "view"
    },
    {
      "type": "function",
      "name": "owner",
      "inputs": [],
      "outputs": [
        {
          "name": "result",
          "type": "address",
          "internalType": "address"
        }
      ],
      "stateMutability": "view"
    },
    {
      "type": "function",
      "name": "ownershipHandoverExpiresAt",
      "inputs": [
        {
          "name": "pendingOwner",
          "type": "address",
          "internalType": "address"
        }
      ],
      "outputs": [
        {
          "name": "result",
          "type": "uint256",
          "internalType": "uint256"
        }
      ],
      "stateMutability": "view"
    },
    {
      "type": "function",
      "name": "pause",
      "inputs": [],
      "outputs": [],
      "stateMutability": "nonpayable"
    },
    {
      "type": "function",
      "name": "paused",
      "inputs": [],
      "outputs": [
        {
          "name": "",
          "type": "bool",
          "internalType": "bool"
        }
      ],
      "stateMutability": "view"
    },
    {
      "type": "function",
      "name": "permitWrap",
      "inputs": [
        {
          "name": "owner",
          "type": "address",
          "internalType": "address"
        },
        {
          "name": "amount",
          "type": "uint256",
          "internalType": "uint256"
        },
        {
          "name": "deadline",
          "type": "uint256",
          "internalType": "uint256"
        },
        {
          "name": "v",
          "type": "uint8",
          "internalType": "uint8"
        },
        {
          "name": "r",
          "type": "bytes32",
          "internalType": "bytes32"
        },
        {
          "name": "s",
          "type": "bytes32",
          "internalType": "bytes32"
        }
      ],
      "outputs": [],
      "stateMutability": "payable"
    },
    {
      "type": "function",
      "name": "proxiableUUID",
      "inputs": [],
      "outputs": [
        {
          "name": "",
          "type": "bytes32",
          "internalType": "bytes32"
        }
      ],
      "stateMutability": "view"
    },
    {
      "type": "function",
      "name": "recoverableWindow",
      "inputs": [],
      "outputs": [
        {
          "name": "",
          "type": "uint256",
          "internalType": "uint256"
        }
      ],
      "stateMutability": "view"
    },
    {
      "type": "function",
      "name": "renounceOwnership",
      "inputs": [],
      "outputs": [],
      "stateMutability": "payable"
    },
    {
      "type": "function",
      "name": "requestOwnershipHandover",
      "inputs": [],
      "outputs": [],
      "stateMutability": "payable"
    },
    {
      "type": "function",
      "name": "setGovernanceAddress",
      "inputs": [
        {
          "name": "newGovernanceAddress",
          "type": "address",
          "internalType": "address"
        }
      ],
      "outputs": [],
      "stateMutability": "nonpayable"
    },
    {
      "type": "function",
      "name": "setMaxToClean",
      "inputs": [
        {
          "name": "newMaxToClean",
          "type": "uint16",
          "internalType": "uint16"
        }
      ],
      "outputs": [],
      "stateMutability": "nonpayable"
    },
    {
      "type": "function",
      "name": "spendableBalanceOf",
      "inputs": [
        {
          "name": "account",
          "type": "address",
          "internalType": "address"
        },
        {
          "name": "includeUnsettled",
          "type": "bool",
          "internalType": "bool"
        }
      ],
      "outputs": [
        {
          "name": "",
          "type": "uint256",
          "internalType": "uint256"
        }
      ],
      "stateMutability": "view"
    },
    {
      "type": "function",
      "name": "stakeManager",
      "inputs": [],
      "outputs": [
        {
          "name": "",
          "type": "address",
          "internalType": "address"
        }
      ],
      "stateMutability": "view"
    },
    {
      "type": "function",
      "name": "symbol",
      "inputs": [],
      "outputs": [
        {
          "name": "",
          "type": "string",
          "internalType": "string"
        }
      ],
      "stateMutability": "view"
    },
    {
      "type": "function",
      "name": "toEighteenDecimals",
      "inputs": [
        {
          "name": "interchainAmount",
          "type": "uint256",
          "internalType": "uint256"
        }
      ],
      "outputs": [
        {
          "name": "",
          "type": "uint256",
          "internalType": "uint256"
        }
      ],
      "stateMutability": "pure"
    },
    {
      "type": "function",
      "name": "toTwoDecimals",
      "inputs": [
        {
          "name": "nativeAmount",
          "type": "uint256",
          "internalType": "uint256"
        }
      ],
      "outputs": [
        {
          "name": "",
          "type": "uint256",
          "internalType": "uint256"
        },
        {
          "name": "",
          "type": "uint256",
          "internalType": "uint256"
        }
      ],
      "stateMutability": "pure"
    },
    {
      "type": "function",
      "name": "tokenManager",
      "inputs": [],
      "outputs": [
        {
          "name": "",
          "type": "address",
          "internalType": "address"
        }
      ],
      "stateMutability": "view"
    },
    {
      "type": "function",
      "name": "tokenManagerAddress",
      "inputs": [],
      "outputs": [
        {
          "name": "",
          "type": "address",
          "internalType": "address"
        }
      ],
      "stateMutability": "view"
    },
    {
      "type": "function",
      "name": "tokenManagerCreate3Salt",
      "inputs": [],
      "outputs": [
        {
          "name": "",
          "type": "bytes32",
          "internalType": "bytes32"
        }
      ],
      "stateMutability": "view"
    },
    {
      "type": "function",
      "name": "totalSupply",
      "inputs": [],
      "outputs": [
        {
          "name": "",
          "type": "uint256",
          "internalType": "uint256"
        }
      ],
      "stateMutability": "view"
    },
    {
      "type": "function",
      "name": "transfer",
      "inputs": [
        {
          "name": "to",
          "type": "address",
          "internalType": "address"
        },
        {
          "name": "value",
          "type": "uint256",
          "internalType": "uint256"
        }
      ],
      "outputs": [
        {
          "name": "",
          "type": "bool",
          "internalType": "bool"
        }
      ],
      "stateMutability": "nonpayable"
    },
    {
      "type": "function",
      "name": "transfer",
      "inputs": [
        {
          "name": "to",
          "type": "address",
          "internalType": "address"
        },
        {
          "name": "amount",
          "type": "uint256",
          "internalType": "uint256"
        },
        {
          "name": "includeUnsettled",
          "type": "bool",
          "internalType": "bool"
        }
      ],
      "outputs": [
        {
          "name": "",
          "type": "bool",
          "internalType": "bool"
        }
      ],
      "stateMutability": "nonpayable"
    },
    {
      "type": "function",
      "name": "transferFrom",
      "inputs": [
        {
          "name": "from",
          "type": "address",
          "internalType": "address"
        },
        {
          "name": "to",
          "type": "address",
          "internalType": "address"
        },
        {
          "name": "value",
          "type": "uint256",
          "internalType": "uint256"
        }
      ],
      "outputs": [
        {
          "name": "",
          "type": "bool",
          "internalType": "bool"
        }
      ],
      "stateMutability": "nonpayable"
    },
    {
      "type": "function",
      "name": "transferFrom",
      "inputs": [
        {
          "name": "from",
          "type": "address",
          "internalType": "address"
        },
        {
          "name": "to",
          "type": "address",
          "internalType": "address"
        },
        {
          "name": "value",
          "type": "uint256",
          "internalType": "uint256"
        },
        {
          "name": "includeUnsettled",
          "type": "bool",
          "internalType": "bool"
        }
      ],
      "outputs": [
        {
          "name": "",
          "type": "bool",
          "internalType": "bool"
        }
      ],
      "stateMutability": "nonpayable"
    },
    {
      "type": "function",
      "name": "transferOwnership",
      "inputs": [
        {
          "name": "newOwner",
          "type": "address",
          "internalType": "address"
        }
      ],
      "outputs": [],
      "stateMutability": "payable"
    },
    {
      "type": "function",
      "name": "unpause",
      "inputs": [],
      "outputs": [],
      "stateMutability": "nonpayable"
    },
    {
      "type": "function",
      "name": "unsettledRecords",
      "inputs": [
        {
          "name": "account",
          "type": "address",
          "internalType": "address"
        }
      ],
      "outputs": [
        {
          "name": "",
          "type": "tuple[]",
          "internalType": "struct Record[]",
          "components": [
            {
              "name": "amount",
              "type": "uint128",
              "internalType": "uint128"
            },
            {
              "name": "settlementTime",
              "type": "uint256",
              "internalType": "uint256"
            },
            {
              "name": "frozen",
              "type": "uint128",
              "internalType": "uint128"
            },
            {
              "name": "prev",
              "type": "uint256",
              "internalType": "uint256"
            },
            {
              "name": "next",
              "type": "uint256",
              "internalType": "uint256"
            }
          ]
        }
      ],
      "stateMutability": "view"
    },
    {
      "type": "function",
      "name": "unwrap",
      "inputs": [
        {
          "name": "amount",
          "type": "uint256",
          "internalType": "uint256"
        }
      ],
      "outputs": [],
      "stateMutability": "nonpayable"
    },
    {
      "type": "function",
      "name": "unwrapDisabled",
      "inputs": [
        {
          "name": "",
          "type": "address",
          "internalType": "address"
        }
      ],
      "outputs": [
        {
          "name": "",
          "type": "bool",
          "internalType": "bool"
        }
      ],
      "stateMutability": "view"
    },
    {
      "type": "function",
      "name": "unwrapTo",
      "inputs": [
        {
          "name": "to",
          "type": "address",
          "internalType": "address"
        },
        {
          "name": "amount",
          "type": "uint256",
          "internalType": "uint256"
        }
      ],
      "outputs": [],
      "stateMutability": "nonpayable"
    },
    {
      "type": "function",
      "name": "upgradeToAndCall",
      "inputs": [
        {
          "name": "newImplementation",
          "type": "address",
          "internalType": "address"
        },
        {
          "name": "data",
          "type": "bytes",
          "internalType": "bytes"
        }
      ],
      "outputs": [],
      "stateMutability": "payable"
    },
    {
      "type": "function",
      "name": "wrap",
      "inputs": [
        {
          "name": "amount",
          "type": "uint256",
          "internalType": "uint256"
        }
      ],
      "outputs": [],
      "stateMutability": "nonpayable"
    },
    {
      "type": "event",
      "name": "Approval",
      "inputs": [
        {
          "name": "owner",
          "type": "address",
          "indexed": true,
          "internalType": "address"
        },
        {
          "name": "spender",
          "type": "address",
          "indexed": true,
          "internalType": "address"
        },
        {
          "name": "value",
          "type": "uint256",
          "indexed": false,
          "internalType": "uint256"
        }
      ],
      "anonymous": false
    },
    {
      "type": "event",
      "name": "CaseClosed",
      "inputs": [
        {
          "name": "recover",
          "type": "bool",
          "indexed": false,
          "internalType": "bool"
        },
        {
          "name": "victim",
          "type": "address",
          "indexed": true,
          "internalType": "address"
        },
        {
          "name": "suspensions",
          "type": "tuple[]",
          "indexed": false,
          "internalType": "struct Suspension[]",
          "components": [
            {
              "name": "account",
              "type": "address",
              "internalType": "address"
            },
            {
              "name": "rawIndex",
              "type": "uint256",
              "internalType": "uint256"
            },
            {
              "name": "amount",
              "type": "uint128",
              "internalType": "uint128"
            }
          ]
        }
      ],
      "anonymous": false
    },
    {
      "type": "event",
      "name": "Freeze",
      "inputs": [
        {
          "name": "account",
          "type": "address",
          "indexed": true,
          "internalType": "address"
        },
        {
          "name": "amountFrozen",
          "type": "uint256",
          "indexed": false,
          "internalType": "uint256"
        },
        {
          "name": "rawIndex",
          "type": "uint256",
          "indexed": false,
          "internalType": "uint256"
        }
      ],
      "anonymous": false
    },
    {
      "type": "event",
      "name": "Initialized",
      "inputs": [
        {
          "name": "version",
          "type": "uint64",
          "indexed": false,
          "internalType": "uint64"
        }
      ],
      "anonymous": false
    },
    {
      "type": "event",
      "name": "OwnershipHandoverCanceled",
      "inputs": [
        {
          "name": "pendingOwner",
          "type": "address",
          "indexed": true,
          "internalType": "address"
        }
      ],
      "anonymous": false
    },
    {
      "type": "event",
      "name": "OwnershipHandoverRequested",
      "inputs": [
        {
          "name": "pendingOwner",
          "type": "address",
          "indexed": true,
          "internalType": "address"
        }
      ],
      "anonymous": false
    },
    {
      "type": "event",
      "name": "OwnershipTransferred",
      "inputs": [
        {
          "name": "oldOwner",
          "type": "address",
          "indexed": true,
          "internalType": "address"
        },
        {
          "name": "newOwner",
          "type": "address",
          "indexed": true,
          "internalType": "address"
        }
      ],
      "anonymous": false
    },
    {
      "type": "event",
      "name": "Paused",
      "inputs": [
        {
          "name": "account",
          "type": "address",
          "indexed": false,
          "internalType": "address"
        }
      ],
      "anonymous": false
    },
    {
      "type": "event",
      "name": "RemainderTransferFailed",
      "inputs": [
        {
          "name": "to",
          "type": "address",
          "indexed": true,
          "internalType": "address"
        },
        {
          "name": "amount",
          "type": "uint256",
          "indexed": false,
          "internalType": "uint256"
        }
      ],
      "anonymous": false
    },
    {
      "type": "event",
      "name": "Transfer",
      "inputs": [
        {
          "name": "from",
          "type": "address",
          "indexed": true,
          "internalType": "address"
        },
        {
          "name": "to",
          "type": "address",
          "indexed": true,
          "internalType": "address"
        },
        {
          "name": "unsettledTransferred",
          "type": "uint256",
          "indexed": false,
          "internalType": "uint256"
        },
        {
          "name": "settledTransferred",
          "type": "uint256",
          "indexed": false,
          "internalType": "uint256"
        },
        {
          "name": "rawIndex",
          "type": "uint256",
          "indexed": false,
          "internalType": "uint256"
        }
      ],
      "anonymous": false
    },
    {
      "type": "event",
      "name": "Transfer",
      "inputs": [
        {
          "name": "from",
          "type": "address",
          "indexed": true,
          "internalType": "address"
        },
        {
          "name": "to",
          "type": "address",
          "indexed": true,
          "internalType": "address"
        },
        {
          "name": "value",
          "type": "uint256",
          "indexed": false,
          "internalType": "uint256"
        }
      ],
      "anonymous": false
    },
    {
      "type": "event",
      "name": "Unpaused",
      "inputs": [
        {
          "name": "account",
          "type": "address",
          "indexed": false,
          "internalType": "address"
        }
      ],
      "anonymous": false
    },
    {
      "type": "event",
      "name": "UnsettledRecordSpend",
      "inputs": [
        {
          "name": "from",
          "type": "address",
          "indexed": true,
          "internalType": "address"
        },
        {
          "name": "fromIndexSpent",
          "type": "uint256",
          "indexed": false,
          "internalType": "uint256"
        },
        {
          "name": "amount",
          "type": "uint256",
          "indexed": false,
          "internalType": "uint256"
        }
      ],
      "anonymous": false
    },
    {
      "type": "event",
      "name": "Unwrap",
      "inputs": [
        {
          "name": "src",
          "type": "address",
          "indexed": true,
          "internalType": "address"
        },
        {
          "name": "to",
          "type": "address",
          "indexed": true,
          "internalType": "address"
        },
        {
          "name": "amount",
          "type": "uint256",
          "indexed": false,
          "internalType": "uint256"
        }
      ],
      "anonymous": false
    },
    {
      "type": "event",
      "name": "UnwrapDisabled",
      "inputs": [
        {
          "name": "account",
          "type": "address",
          "indexed": true,
          "internalType": "address"
        }
      ],
      "anonymous": false
    },
    {
      "type": "event",
      "name": "Upgraded",
      "inputs": [
        {
          "name": "implementation",
          "type": "address",
          "indexed": true,
          "internalType": "address"
        }
      ],
      "anonymous": false
    },
    {
      "type": "event",
      "name": "Wrap",
      "inputs": [
        {
          "name": "dst",
          "type": "address",
          "indexed": true,
          "internalType": "address"
        },
        {
          "name": "amount",
          "type": "uint256",
          "indexed": false,
          "internalType": "uint256"
        }
      ],
      "anonymous": false
    },
    {
      "type": "error",
      "name": "AddressEmptyCode",
      "inputs": [
        {
          "name": "target",
          "type": "address",
          "internalType": "address"
        }
      ]
    },
    {
      "type": "error",
      "name": "AlreadyInitialized",
      "inputs": []
    },
    {
      "type": "error",
      "name": "BurnFailed",
      "inputs": [
        {
          "name": "from",
          "type": "address",
          "internalType": "address"
        },
        {
          "name": "amount",
          "type": "uint256",
          "internalType": "uint256"
        }
      ]
    },
    {
      "type": "error",
      "name": "CallerMustBeGovernance",
      "inputs": [
        {
          "name": "caller",
          "type": "address",
          "internalType": "address"
        }
      ]
    },
    {
      "type": "error",
      "name": "ERC1967InvalidImplementation",
      "inputs": [
        {
          "name": "implementation",
          "type": "address",
          "internalType": "address"
        }
      ]
    },
    {
      "type": "error",
      "name": "ERC1967NonPayable",
      "inputs": []
    },
    {
      "type": "error",
      "name": "FailedCall",
      "inputs": []
    },
    {
      "type": "error",
      "name": "InsufficientSpendableFunds",
      "inputs": [
        {
          "name": "account",
          "type": "address",
          "internalType": "address"
        },
        {
          "name": "spendableFunds",
          "type": "uint256",
          "internalType": "uint256"
        },
        {
          "name": "attemptedAmount",
          "type": "uint256",
          "internalType": "uint256"
        },
        {
          "name": "unsettledIncluded",
          "type": "bool",
          "internalType": "bool"
        }
      ]
    },
    {
      "type": "error",
      "name": "InvalidAmount",
      "inputs": [
        {
          "name": "nativeAmount",
          "type": "uint256",
          "internalType": "uint256"
        }
      ]
    },
    {
      "type": "error",
      "name": "InvalidInitialization",
      "inputs": []
    },
    {
      "type": "error",
      "name": "MintFailed",
      "inputs": [
        {
          "name": "to",
          "type": "address",
          "internalType": "address"
        },
        {
          "name": "amount",
          "type": "uint256",
          "internalType": "uint256"
        }
      ]
    },
    {
      "type": "error",
      "name": "NewOwnerIsZeroAddress",
      "inputs": []
    },
    {
      "type": "error",
      "name": "NoHandoverRequest",
      "inputs": []
    },
    {
      "type": "error",
      "name": "NotInitializing",
      "inputs": []
    },
    {
      "type": "error",
      "name": "OnlyBaseToken",
      "inputs": [
        {
          "name": "authority",
          "type": "address",
          "internalType": "address"
        }
      ]
    },
    {
      "type": "error",
      "name": "OnlyManager",
      "inputs": [
        {
          "name": "authority",
          "type": "address",
          "internalType": "address"
        }
      ]
    },
    {
      "type": "error",
      "name": "OnlySystemCall",
      "inputs": [
        {
          "name": "invalidCaller",
          "type": "address",
          "internalType": "address"
        }
      ]
    },
    {
      "type": "error",
      "name": "PermitWrapFailed",
      "inputs": [
        {
          "name": "to",
          "type": "address",
          "internalType": "address"
        },
        {
          "name": "amount",
          "type": "uint256",
          "internalType": "uint256"
        }
      ]
    },
    {
      "type": "error",
      "name": "RecordAlreadySettled",
      "inputs": [
        {
          "name": "account",
          "type": "address",
          "internalType": "address"
        },
        {
          "name": "rawIndex",
          "type": "uint256",
          "internalType": "uint256"
        }
      ]
    },
    {
      "type": "error",
      "name": "RecordNotFound",
      "inputs": [
        {
          "name": "account",
          "type": "address",
          "internalType": "address"
        },
        {
          "name": "rawIndex",
          "type": "uint256",
          "internalType": "uint256"
        }
      ]
    },
    {
      "type": "error",
      "name": "RewardDistributionFailure",
      "inputs": [
        {
          "name": "validator",
          "type": "address",
          "internalType": "address"
        }
      ]
    },
    {
      "type": "error",
      "name": "SelfTransferNotAllowed",
      "inputs": []
    },
    {
      "type": "error",
      "name": "UUPSUnauthorizedCallContext",
      "inputs": []
    },
    {
      "type": "error",
      "name": "UUPSUnsupportedProxiableUUID",
      "inputs": [
        {
          "name": "slot",
          "type": "bytes32",
          "internalType": "bytes32"
        }
      ]
    },
    {
      "type": "error",
      "name": "Unauthorized",
      "inputs": []
    },
    {
      "type": "error",
      "name": "UnwrapNotAllowed",
      "inputs": [
        {
          "name": "account",
          "type": "address",
          "internalType": "address"
        }
      ]
    },
    {
      "type": "error",
      "name": "ZeroAddressNotAllowed",
      "inputs": []
    }
  ],
  "bytecode": {
    "object": "0x6101c06040523060e052348015610014575f80fd5b50604051615c93380380615c938339810160408190526100339161043a565b8585858585858585600361004783826105c6565b50600461005482826105c6565b50505060c093909352600a80546001600160a01b0392831660a05261ffff9094166080526001600160a81b031990931691161790555061009490506100e7565b6001600160a01b03808816610120528b8116610140528a1661016052610180899052875160208901206101a0526100c9610199565b6001600160a01b031661010052506106809950505050505050505050565b7ff0c57e16840df040f15088dc2f81fe391c3923bec73e23a9662efc9c229c6a00805468010000000000000000900460ff16156101375760405163f92ee8a960e01b815260040160405180910390fd5b80546001600160401b03908116146101965780546001600160401b0319166001600160401b0390811782556040519081527fc7f505b2f371ae2175ee4913f4499e1f2633a7b5936321eed1cdaeb6115181d29060200160405180910390a15b50565b5f806101a56101205190565b6101ad610280565b6040517fff00000000000000000000000000000000000000000000000000000000000000602082015260609290921b6001600160601b031916602183015260358201527fdb4bab1640a2602c9f66f33765d12be4af115accf74b24515702961e82a71327605582015260750160408051808303601f190181529082905280516020918201206135a560f21b918301919091526001600160601b0319606082901b166022830152600160f81b60368301529150603701604051602081830303815290604052805190602001205f1c91505090565b5f61028961028e565b905090565b5f7f980c3be34c7ee75cc250c76223092614e21653cdf2faece10ac24fcef821df10816102b9610300565b6040516020016102e5939291909283526001600160a01b03919091166020830152604082015260600190565b60405160208183030381529060405280519060200120905090565b6101a0516101605161018051604080517f5498bf1696259c19f826e687122ca9404f85fe476a9e186af31eb6a53bf123dc6020820152908101939093526001600160a01b03909116606083015260808201525f9060a0016102e5565b80516001600160a01b0381168114610372575f80fd5b919050565b634e487b7160e01b5f52604160045260245ffd5b5f82601f83011261039a575f80fd5b81516001600160401b038111156103b3576103b3610377565b604051601f8201601f19908116603f011681016001600160401b03811182821017156103e1576103e1610377565b6040528181528382016020018510156103f8575f80fd5b5f5b82811015610416576020818601810151838301820152016103fa565b505f918101602001919091529392505050565b805161ffff81168114610372575f80fd5b5f805f805f805f805f805f6101608c8e031215610455575f80fd5b61045e8c61035c565b9a5061046c60208d0161035c565b60408d015160608e0151919b5099506001600160401b0381111561048e575f80fd5b61049a8e828f0161038b565b9850506104a960808d0161035c565b60a08d01519097506001600160401b038111156104c4575f80fd5b6104d08e828f0161038b565b60c08e015190975090506001600160401b038111156104ed575f80fd5b6104f98e828f0161038b565b60e08e0151909650945061051290506101008d0161035c565b92506105216101208d0161035c565b91506105306101408d01610429565b90509295989b509295989b9093969950565b600181811c9082168061055657607f821691505b60208210810361057457634e487b7160e01b5f52602260045260245ffd5b50919050565b601f8211156105c157805f5260205f20601f840160051c8101602085101561059f5750805b601f840160051c820191505b818110156105be575f81556001016105ab565b50505b505050565b81516001600160401b038111156105df576105df610377565b6105f3816105ed8454610542565b8461057a565b6020601f821160018114610625575f831561060e5750848201515b5f19600385901b1c1916600184901b1784556105be565b5f84815260208120601f198516915b828110156106545787850151825560209485019460019092019101610634565b508482101561067157868401515f19600387901b60f8161c191681555b50505050600190811b01905550565b60805160a05160c05160e05161010051610120516101405161016051610180516101a05161551461077f5f395f611fe801525f61203f01525f61201801525f50505f8181610499015281816122ac0152818161248c01526124f201525f818161057101528181611092015281816110ce0152818161207901526120b501525f818161363e0152818161366701526137a601525f8181610a3601528181611a6501528181612cd30152612fa001525f81816103b201528181610a6601528181610cf901528181610f9b01528181612102015281816123c601528181612660015281816129d40152612a5801525f8181613a690152613d5a01526155145ff3fe6080604052600436106103ab575f3560e01c8063795053d3116101e9578063bc4c594b11610108578063dd62ed3e1161009d578063f04e283e1161006d578063f04e283e14610b7c578063f2fde38b14610b8f578063f3ccf05e14610ba2578063fee81cf414610bc1575f80fd5b8063dd62ed3e14610b00578063de0e9a3e14610b1f578063e1ad116214610b3e578063ea598cb014610b5d575f80fd5b8063c55dae63116100d8578063c55dae6314610a58578063cd810d2b14610a8a578063cfc1625414610ab6578063d051665014610ad5575f80fd5b8063bc4c594b146109de578063bde15931146109f2578063c12ea3ca14610a06578063c2029b0c14610a25575f80fd5b80639dc29fac1161017e578063aa271e1a1161014e578063aa271e1a14610974578063ad3cb1cc14610993578063b9ea102a146109c3578063bc0ba3c5146109cb575f80fd5b80639dc29fac14610904578063a457c2d714610923578063a60fee3714610942578063a9059cbb14610955575f80fd5b80638da5cb5b116101b95780638da5cb5b1461089957806390ea90ae146108b157806395d89b41146108c45780639a3fb7bf146108f0575f80fd5b8063795053d3146108385780637a920fa9146108575780637bcffc04146108715780638456cb5914610885575f80fd5b806340c10f19116102d55780636a6a22081161026a57806370ae92d21161023a57806370ae92d21461078e578063715018a6146107ea5780637542ff95146107f2578063772865e214610819575f80fd5b80636a6a2208146107125780636f2293ab14610731578063708c0db91461075057806370a082311461076f575f80fd5b806354d1f13d116102a557806354d1f13d1461068a5780635c975abb146106925780636568f451146106b057806369b0758e146106e4575f80fd5b806340c10f19146106255780634f1ef2861461064457806350c695d11461065757806352d1902d14610676575f80fd5b80632557fe211161034b578063313ce5671161031b578063313ce567146105b25780633434735f146105d857806339509351146105f25780633f4ba83a14610611575f80fd5b80632557fe211461053957806325692962146105585780632a709b14146105605780632b87c50714610593575f80fd5b8063129d818811610386578063129d8188146104d157806318160ddd146104f35780631a4fa0b31461050757806323b872dd1461051a575f80fd5b806306fdde0314610410578063095ea7b31461045c57806309c6bed91461048b575f80fd5b3661040c577f0000000000000000000000000000000000000000000000000000000000000000336001600160a01b0382161461040a57604051632265b9e160e11b81526001600160a01b03821660048201526024015b60405180910390fd5b005b5f80fd5b34801561041b575f80fd5b5060408051808201909152601281527124b73a32b931b430b4b7102a32b631b7b4b760711b60208201525b6040516104539190614a48565b60405180910390f35b348015610467575f80fd5b5061047b610476366004614a90565b610bf2565b6040519015158152602001610453565b348015610496575f80fd5b507f00000000000000000000000000000000000000000000000000000000000000005b6040516001600160a01b039091168152602001610453565b3480156104dc575f80fd5b506104e5610c0b565b604051908152602001610453565b3480156104fe575f80fd5b506009546104e5565b61040a610515366004614ac6565b610c7d565b348015610525575f80fd5b5061047b610534366004614b1c565b610e54565b348015610544575f80fd5b506104e5610553366004614b56565b610e82565b61040a610e95565b34801561056b575f80fd5b506104b97f000000000000000000000000000000000000000000000000000000000000000081565b34801561059e575f80fd5b506104e56105ad366004614b7a565b610ee1565b3480156105bd575f80fd5b506105c6610f98565b60405160ff9091168152602001610453565b3480156105e3575f80fd5b506104b96002600160a01b0381565b3480156105fd575f80fd5b5061047b61060c366004614a90565b61101e565b34801561061c575f80fd5b5061040a61103f565b348015610630575f80fd5b506104e561063f366004614a90565b61107e565b61040a610652366004614c1b565b611191565b348015610662575f80fd5b5061047b610671366004614d90565b6111b0565b348015610681575f80fd5b506104e56114fd565b61040a611518565b34801561069d575f80fd5b50600a54600160a01b900460ff1661047b565b3480156106bb575f80fd5b506106cf6106ca366004614b56565b611551565b60408051928352602083019190915201610453565b3480156106ef575f80fd5b5061047b6106fe366004614dc1565b60086020525f908152604090205460ff1681565b34801561071d575f80fd5b5061047b61072c366004614dda565b6115b0565b34801561073c575f80fd5b5061047b61074b366004614e35565b611d28565b34801561075b575f80fd5b5061040a61076a366004614e92565b611d57565b34801561077a575f80fd5b506104e5610789366004614dc1565b611e77565b348015610799575f80fd5b506107d26107a8366004614dc1565b6001600160a01b03165f90815260056020526040902054600160801b90046001600160801b031690565b6040516001600160801b039091168152602001610453565b61040a611e82565b3480156107fd575f80fd5b506104b97307e17e17e17e17e17e17e17e17e17e17e17e17e181565b348015610824575f80fd5b506104e5610833366004614b7a565b611e93565b348015610843575f80fd5b50600a546104b9906001600160a01b031681565b348015610862575f80fd5b506104e5662386f26fc1000081565b34801561087c575f80fd5b506104e5611e9e565b348015610890575f80fd5b5061040a611ea7565b3480156108a4575f80fd5b50638b78c6d819546104b9565b61040a6108bf366004614a90565b611ee4565b3480156108cf575f80fd5b506040805180820190915260048152631a55115360e21b6020820152610446565b3480156108fb575f80fd5b506104e5611fbc565b34801561090f575f80fd5b506104e561091e366004614a90565b61206d565b34801561092e575f80fd5b5061047b61093d366004614a90565b61221a565b61040a610950366004614f16565b61229f565b348015610960575f80fd5b5061047b61096f366004614a90565b612346565b34801561097f575f80fd5b5061047b61098e366004614dc1565b61235e565b34801561099e575f80fd5b50610446604051806040016040528060058152602001640352e302e360dc1b81525081565b61040a61238e565b61040a6109d9366004614fcb565b612489565b3480156109e9575f80fd5b506104b96124ee565b3480156109fd575f80fd5b5061040a6125de565b348015610a11575f80fd5b5061040a610a20366004614a90565b61261f565b348015610a30575f80fd5b506104e57f000000000000000000000000000000000000000000000000000000000000000081565b348015610a63575f80fd5b507f00000000000000000000000000000000000000000000000000000000000000006104b9565b348015610a95575f80fd5b50610aa9610aa4366004614dc1565b6126ca565b6040516104539190615070565b348015610ac1575f80fd5b5061040a610ad0366004614dc1565b612955565b348015610ae0575f80fd5b506104e5610aef366004614dc1565b60066020525f908152604090205481565b348015610b0b575f80fd5b506104e5610b1a3660046150f4565b612969565b348015610b2a575f80fd5b5061040a610b39366004614b56565b612993565b348015610b49575f80fd5b5061047b610b58366004615125565b612a34565b348015610b68575f80fd5b5061040a610b77366004614b56565b612a53565b61040a610b8a366004614dc1565b612ac1565b61040a610b9d366004614dc1565b612afb565b348015610bad575f80fd5b5061040a610bbc366004615162565b612b21565b348015610bcc575f80fd5b506104e5610bdb366004614dc1565b63389a75e1600c9081525f91909152602090205490565b5f33610bff818585612b32565b60019150505b92915050565b5f7f980c3be34c7ee75cc250c76223092614e21653cdf2faece10ac24fcef821df105f610c36611fbc565b604051602001610c62939291909283526001600160a01b03919091166020830152604082015260600190565b60405160208183030381529060405280519060200120905090565b845f03610caf57604051635c0b206f60e01b81526001600160a01b038716600482015260248101869052604401610401565b60405163d505accf60e01b81526001600160a01b038781166004830152306024830152604482018790526064820186905260ff8516608483015260a4820184905260c482018390527f0000000000000000000000000000000000000000000000000000000000000000919082169063d505accf9060e4015f604051808303815f87803b158015610d3d575f80fd5b505af1158015610d4f573d5f803e3d5ffd5b50506040516323b872dd60e01b81526001600160a01b038a81166004830152306024830152604482018a90525f9350841691506323b872dd906064016020604051808303815f875af1158015610da7573d5f803e3d5ffd5b505050506040513d601f19601f82011682018060405250810190610dcb919061517b565b905080610dfd57604051636a00312b60e01b81526001600160a01b038916600482015260248101889052604401610401565b610e078888612c55565b876001600160a01b03167fb61d00fdfee32467c7d81db64c811ae60c104c346debf36a14afe84b8fce59e588604051610e4291815260200190565b60405180910390a25050505050505050565b5f33610e61858285612e2a565b610e758585610e6f86612e3a565b5f612ea6565b60019150505b9392505050565b5f80610e7b662386f26fc10000846151aa565b5f6202a3006001600160401b03164201905063389a75e1600c52335f52806020600c2055337fdbf36a107da19e49527a7176a1babf963b4b0ff8cde35ee35d6cd8f1f9ac7e1d5f80a250565b5f8115610f26576001600160a01b0383165f90815260066020908152604080832054600590925290912054610f1f91906001600160801b03166151c1565b9050610c05565b5f80610f31856131ef565b6001600160a01b0387165f908152600660205260409020549193509150610f599082906151c1565b6001600160a01b0386165f90815260056020526040902054610f859084906001600160801b03166151c1565b610f8f91906151c1565b92505050610c05565b5f7f00000000000000000000000000000000000000000000000000000000000000006001600160a01b031663313ce5676040518163ffffffff1660e01b8152600401602060405180830381865afa158015610ff5573d5f803e3d5ffd5b505050506040513d601f19601f8201168201806040525081019061101991906151d4565b905090565b5f33610bff8185856110308383612969565b61103a91906151ef565b612b32565b611047613541565b600a546001600160a01b0316331461107457604051630caf34d360e31b8152336004820152602401610401565b61107c613591565b565b5f6110876135e6565b336001600160a01b037f000000000000000000000000000000000000000000000000000000000000000016146110fb576040516332311fb560e21b81526001600160a01b037f0000000000000000000000000000000000000000000000000000000000000000166004820152602401610401565b5f61110583610e82565b90505f846001600160a01b0316826040515f6040518083038185875af1925050503d805f8114611150576040519150601f19603f3d011682016040523d82523d5f602084013e611155565b606091505b505090508061118957604051635c0b206f60e01b81526001600160a01b038616600482015260248101839052604401610401565b509392505050565b611199613633565b6111a2826136d7565b6111ac82826136df565b5050565b600a545f906001600160a01b031633146111df57604051630caf34d360e31b8152336004820152602401610401565b5f5b82518110156114f2575f8382815181106111fd576111fd615202565b60200260200101516020015190505f84838151811061121e5761121e615202565b60200260200101515f015190505f85848151811061123e5761123e615202565b6020908102919091018101516040908101516001600160a01b0385165f90815260079093528183209151631380691160e01b8152600481019290925260248201869052925073__$45c6e7e63f817b68352265224a11144e74$__9063138069119060440160a060405180830381865af41580156112bd573d5f803e3d5ffd5b505050506040513d601f19601f820116820180604052508101906112e19190615295565b905080602001515f03611319576040516383ac745b60e01b81526001600160a01b038416600482015260248101859052604401610401565b4281602001511161134f57604051638e54e8ab60e01b81526001600160a01b038416600482015260248101859052604401610401565b6001600160a01b0383165f9081526007602052604090206003015484116113d2576001600160a01b0383165f90815260056020526040902060010180548391906010906113ad908490600160801b90046001600160801b03166152af565b92506101000a8154816001600160801b0302191690836001600160801b031602179055505b6001600160a01b0383165f90815260076020526040908190209051630c9ba3af60e31b81526004810191909152602481018590526001600160801b038316604482015273__$45c6e7e63f817b68352265224a11144e74$__906364dd1d78906064015f6040518083038186803b15801561144a575f80fd5b505af415801561145c573d5f803e3d5ffd5b505050506001600160a01b0383165f90815260066020526040812080546001600160801b03851692906114909084906151ef565b9091555050604080516001600160801b0384168152602081018690526001600160a01b038516917f029d06ff78b8c68fca5225af637c626c0176c9fcaa163beec8e558d4c3ae65b6910160405180910390a25050600190920191506111e19050565b50600190505b919050565b5f61150661379b565b505f805160206154e883398151915290565b63389a75e1600c52335f525f6020600c2055337ffa7b8eab7da67f412cc9575ed43464468f9bfbae89d1675917346ca6d8fe3c925f80a2565b5f80662386f26fc1000083101561157e57604051633728b83d60e01b815260048101849052602401610401565b5f611590662386f26fc10000856152e2565b90505f6115a4662386f26fc10000866152f5565b91959194509092505050565b600a545f906001600160a01b031633146115df57604051630caf34d360e31b8152336004820152602401610401565b5f5b8251811015611cda575f8382815181106115fd576115fd615202565b60200260200101516020015190505f84838151811061161e5761161e615202565b60200260200101515f015190505f85848151811061163e5761163e615202565b6020908102919091018101516040908101516001600160a01b0385165f90815260079093528183209151631380691160e01b8152600481019290925260248201869052925073__$45c6e7e63f817b68352265224a11144e74$__9063138069119060440160a060405180830381865af41580156116bd573d5f803e3d5ffd5b505050506040513d601f19601f820116820180604052508101906116e19190615295565b905080602001515f03611719576040516383ac745b60e01b81526001600160a01b038416600482015260248101859052604401610401565b6001600160a01b0383165f9081526007602052604081206001015490818610806117c957506001600160a01b0385165f90815260076020526040908190209051630363715960e51b8152600481019190915273__$45c6e7e63f817b68352265224a11144e74$__90636c6e2b2090602401602060405180830381865af41580156117a5573d5f803e3d5ffd5b505050506040513d601f19601f820116820180604052508101906117c9919061517b565b6001600160a01b0386165f90815260076020526040908190209051630443e6cf60e41b81526004810191909152602481018890526001600160801b0386166044820152811515606482015290915073__$45c6e7e63f817b68352265224a11144e74$__9063443e6cf0906084015f6040518083038186803b15801561184c575f80fd5b505af415801561185e573d5f803e3d5ffd5b505050506001600160a01b0385165f90815260066020526040812080546001600160801b03871692906118929084906151c1565b90915550506001600160a01b0385165f90815260076020526040902060030154861161191a576001600160a01b0385165f90815260056020526040902060010180548591906010906118f5908490600160801b90046001600160801b0316615308565b92506101000a8154816001600160801b0302191690836001600160801b031602179055505b8a15611cc85780611a2c576001600160a01b0385165f90815260076020526040908190209051630adbaf2360e41b81526004810191909152602481018790526001600160801b038516604482015273__$45c6e7e63f817b68352265224a11144e74$__9063adbaf230906064015f6040518083038186803b15801561199d575f80fd5b505af41580156119af573d5f803e3d5ffd5b505050506001600160a01b0385165f908152600760205260409020600301548611611a2c576001600160a01b0385165f9081526005602052604081206001018054869290611a079084906001600160801b0316615308565b92506101000a8154816001600160801b0302191690836001600160801b031602179055505b6001600160a01b038a165f90815260076020526040812073__$45c6e7e63f817b68352265224a11144e74$__9063a04af2999087611a8a7f0000000000000000000000000000000000000000000000000000000000000000426151ef565b6040516001600160e01b031960e086901b16815260048101939093526001600160801b0390911660248301526044820152606401602060405180830381865af4158015611ad9573d5f803e3d5ffd5b505050506040513d601f19601f82011682018060405250810190611afd9190615327565b6001600160a01b0387165f90815260056020526040812080549293508792909190611b329084906001600160801b0316615308565b82546101009290920a6001600160801b038181021990931691831602179091556001600160a01b038d165f90815260056020526040812080548994509092611b7c918591166152af565b82546101009290920a6001600160801b038181021990931691831602179091556001600160a01b0388165f9081526005602052604090208054600160801b900490911691506010611bcc8361533e565b82546101009290920a6001600160801b038181021990931691831602179091556001600160a01b038d165f9081526005602052604090208054600160801b900490911691506010611c1c8361533e565b91906101000a8154816001600160801b0302191690836001600160801b03160217905550505f428560200151111590508b6001600160a01b0316876001600160a01b03167fc817d75deaa278e988c41cf549ef38fe195ab65e0e64cd67ba47f0d185690d5883611c8c5788611c8e565b5f5b84611c99575f611c9b565b895b604080516001600160801b039384168152929091166020830152810186905260600160405180910390a350505b5050600190940193506115e192505050565b50826001600160a01b03167f3baf7fff3a314c925991f8f46074dab97eeda5c85eed35c106437c61751d0ae68584604051611d16929190615368565b60405180910390a25060019392505050565b5f33611d35868286612e2a565b611d498686611d4387612e3a565b86612ea6565b60019150505b949350505050565b7ff0c57e16840df040f15088dc2f81fe391c3923bec73e23a9662efc9c229c6a008054600160401b810460ff1615906001600160401b03165f81158015611d9b5750825b90505f826001600160401b03166001148015611db65750303b155b905081158015611dc4575080155b15611de25760405163f92ee8a960e01b815260040160405180910390fd5b845467ffffffffffffffff191660011785558315611e0c57845460ff60401b1916600160401b1785555b611e15866137e4565b611e1e8861381f565b611e2787600b55565b8315611e6d57845460ff60401b19168555604051600181527fc7f505b2f371ae2175ee4913f4499e1f2633a7b5936321eed1cdaeb6115181d29060200160405180910390a15b5050505050505050565b5f610c05825f613841565b611e8a6138b1565b61107c5f6138cb565b5f610e7b8383613841565b5f611019610c0b565b611eaf6135e6565b600a546001600160a01b03163314611edc57604051630caf34d360e31b8152336004820152602401610401565b61107c613908565b337307e17e17e17e17e17e17e17e17e17e17e17e17e114611f2e576040516332311fb560e21b81527307e17e17e17e17e17e17e17e17e17e17e17e17e16004820152602401610401565b5f611f3934836151ef565b90505f836001600160a01b0316826040515f6040518083038185875af1925050503d805f8114611f84576040519150601f19603f3d011682016040523d82523d5f602084013e611f89565b606091505b5050905080611fb657604051630d623c2560e01b81526001600160a01b0385166004820152602401610401565b50505050565b604080517f5498bf1696259c19f826e687122ca9404f85fe476a9e186af31eb6a53bf123dc60208201527f0000000000000000000000000000000000000000000000000000000000000000918101919091526001600160a01b037f00000000000000000000000000000000000000000000000000000000000000001660608201527f000000000000000000000000000000000000000000000000000000000000000060808201525f9060a001610c62565b5f336001600160a01b037f000000000000000000000000000000000000000000000000000000000000000016146120e2576040516332311fb560e21b81526001600160a01b037f0000000000000000000000000000000000000000000000000000000000000000166004820152602401610401565b6120ec838361394b565b604051632e1a7d4d60e01b8152600481018390527f00000000000000000000000000000000000000000000000000000000000000006001600160a01b031690632e1a7d4d906024015f604051808303815f87803b15801561214b575f80fd5b505af115801561215d573d5f803e3d5ffd5b505050505f8061216c84611551565b600a546040519294509092505f916001600160a01b039091169083908381818185875af1925050503d805f81146121be576040519150601f19603f3d011682016040523d82523d5f602084013e6121c3565b606091505b505090508061221057856001600160a01b03167ff786d206cd3411b41abd3936ba4c19d9f0cb310c619904beb2a2ac83ce1ca0a48360405161220791815260200190565b60405180910390a25b5090949350505050565b5f33816122278286612969565b9050838110156122875760405162461bcd60e51b815260206004820152602560248201527f45524332303a2064656372656173656420616c6c6f77616e63652062656c6f77604482015264207a65726f60d81b6064820152608401610401565b6122948286868403612b32565b506001949350505050565b6122aa883385612e2a565b7f00000000000000000000000000000000000000000000000000000000000000006001600160a01b03166370756cde346122e2610c0b565b8b8b8b8b8b8b8b8b6040518b63ffffffff1660e01b815260040161230e9998979695949392919061540a565b5f604051808303818588803b158015612325575f80fd5b505af1158015612337573d5f803e3d5ffd5b50505050505050505050505050565b5f6123553384610e6f85612e3a565b50600192915050565b5f6123676124ee565b6001600160a01b0316826001600160a01b03160361238757506001919050565b505f919050565b33345f8190036123c357604051635c0b206f60e01b81526001600160a01b038316600482015260248101829052604401610401565b5f7f00000000000000000000000000000000000000000000000000000000000000009050806001600160a01b031663d0e30db0836040518263ffffffff1660e01b81526004015f604051808303818588803b158015612420575f80fd5b505af1158015612432573d5f803e3d5ffd5b50505050506124418383612c55565b826001600160a01b03167fb61d00fdfee32467c7d81db64c811ae60c104c346debf36a14afe84b8fce59e58360405161247c91815260200190565b60405180910390a2505050565b337f00000000000000000000000000000000000000000000000000000000000000006001600160a01b03166370756cde346124c2610c0b565b848c8c8c8c8c8c8c6040518b63ffffffff1660e01b815260040161230e9998979695949392919061540a565b5f807f0000000000000000000000000000000000000000000000000000000000000000612519611e9e565b6040516001600160f81b0319602082015260609290921b6bffffffffffffffffffffffff1916602183015260358201527fdb4bab1640a2602c9f66f33765d12be4af115accf74b24515702961e82a71327605582015260750160408051808303601f190181529082905280516020918201206135a560f21b918301919091526bffffffffffffffffffffffff19606082901b166022830152600160f81b60368301529150603701604051602081830303815290604052805190602001205f1c91505090565b335f81815260086020526040808220805460ff19166001179055517fefe5426af10b0a9224969ecac24cb8cac201061a3225b0939df6d0e55fd922669190a2565b335f9081526008602052604090205460ff161561265157604051635785f54f60e01b8152336004820152602401610401565b61265b338261394b565b6126867f0000000000000000000000000000000000000000000000000000000000000000838361395d565b6040518181526001600160a01b0383169033907fbe8e6aacbb5d99c99f1992d91d807f570d0acacabee02374369ed42710dc66989060200160405180910390a35050565b6001600160a01b0381165f90815260076020526040908190209051630363715960e51b8152600481018290526060919073__$45c6e7e63f817b68352265224a11144e74$__90636c6e2b2090602401602060405180830381865af4158015612734573d5f803e3d5ffd5b505050506040513d601f19601f82011682018060405250810190612758919061517b565b1561279457604080515f8082526020820190925290611189565b61277a6149ea565b815260200190600190039081612772579050509392505050565b5f816001015482600201546127a991906151c1565b6127b49060016151ef565b6001600160401b038111156127cb576127cb614baf565b60405190808252806020026020018201604052801561280457816020015b6127f16149ea565b8152602001906001900390816127e95790505b5060028301549091505f905b80156128ac575f81815260208590526040902060018101544210156128a1576040805160a08101825282546001600160801b03908116825260018401546020830152600284015416918101919091526003820154606082015260048201546080820152845185908590811061288757612887615202565b6020026020010181905250828061289d90615472565b9350505b600301549050612810565b5f826001600160401b038111156128c5576128c5614baf565b6040519080825280602002602001820160405280156128fe57816020015b6128eb6149ea565b8152602001906001900390816128e35790505b5090505f5b8381101561294a5784818151811061291d5761291d615202565b602002602001015182828151811061293757612937615202565b6020908102919091010152600101612903565b509695505050505050565b61295d6138b1565b6129668161381f565b50565b6001600160a01b039182165f90815260016020908152604080832093909416825291909152205490565b335f9081526008602052604090205460ff16156129c557604051635785f54f60e01b8152336004820152602401610401565b6129cf338261394b565b6129fa7f0000000000000000000000000000000000000000000000000000000000000000338361395d565b604051818152339081907fbe8e6aacbb5d99c99f1992d91d807f570d0acacabee02374369ed42710dc66989060200160405180910390a350565b5f612a493385612a4386612e3a565b85612ea6565b5060019392505050565b612a7f7f00000000000000000000000000000000000000000000000000000000000000003330846139c0565b612a893382612c55565b60405181815233907fb61d00fdfee32467c7d81db64c811ae60c104c346debf36a14afe84b8fce59e59060200160405180910390a250565b612ac96138b1565b63389a75e1600c52805f526020600c208054421115612aef57636f5e88185f526004601cfd5b5f9055612966816138cb565b612b036138b1565b8060601b612b1857637448fbae5f526004601cfd5b612966816138cb565b612b296138b1565b61296681600b55565b6001600160a01b038316612b945760405162461bcd60e51b8152602060048201526024808201527f45524332303a20617070726f76652066726f6d20746865207a65726f206164646044820152637265737360e01b6064820152608401610401565b6001600160a01b038216612bf55760405162461bcd60e51b815260206004820152602260248201527f45524332303a20617070726f766520746f20746865207a65726f206164647265604482015261737360f01b6064820152608401610401565b6001600160a01b038381165f8181526001602090815260408083209487168084529482529182902085905590518481527f8c5be1e5ebec7d5bd14f71427d1e84f3dd0314c0f7b2291e5b200ac8c7c3b925910160405180910390a3505050565b612c5d6135e6565b6001600160a01b038216612c84576040516342bcdf7f60e11b815260040160405180910390fd5b612c8d826139f8565b5f612c9782613f7a565b6001600160a01b0384165f90815260076020526040902090915073__$45c6e7e63f817b68352265224a11144e74$__9063a04af2999083612cf87f0000000000000000000000000000000000000000000000000000000000000000426151ef565b6040516001600160e01b031960e086901b16815260048101939093526001600160801b0390911660248301526044820152606401602060405180830381865af4158015612d47573d5f803e3d5ffd5b505050506040513d601f19601f82011682018060405250810190612d6b9190615327565b508160095f828254612d7d91906151ef565b90915550506001600160a01b0383165f9081526005602052604090208054600160801b90046001600160801b0316906010612db78361533e565b82546101009290920a6001600160801b038181021990931691831602179091556001600160a01b0385165f90815260056020526040812080548594509092612e01918591166152af565b92506101000a8154816001600160801b0302191690836001600160801b03160217905550505050565b612e35838383613f8e565b505050565b5f6001600160801b03821115612ea25760405162461bcd60e51b815260206004820152602760248201527f53616665436173743a2076616c756520646f65736e27742066697420696e20316044820152663238206269747360c81b6064820152608401610401565b5090565b612eaf83614000565b836001600160a01b0316836001600160a01b031603612ee1576040516352a7f8fb60e01b815260040160405180910390fd5b612eea846139f8565b612ef3836139f8565b5f80612eff8684610ee1565b9050836001600160801b0316811015612f545760405163083f759b60e01b81526001600160a01b0387166004820152602481018290526001600160801b03851660448201528315156064820152608401610401565b8215612f6757612f648685614027565b91505b6001600160a01b0385165f90815260076020526040812073__$45c6e7e63f817b68352265224a11144e74$__9063a04af2999087612fc57f0000000000000000000000000000000000000000000000000000000000000000426151ef565b6040516001600160e01b031960e086901b16815260048101939093526001600160801b0390911660248301526044820152606401602060405180830381865af4158015613014573d5f803e3d5ffd5b505050506040513d601f19601f820116820180604052508101906130389190615327565b6001600160a01b0388165f9081526005602052604081208054929350879290919061306d9084906001600160801b0316615308565b82546101009290920a6001600160801b038181021990931691831602179091556001600160a01b0388165f908152600560205260408120805489945090926130b7918591166152af565b82546101009290920a6001600160801b038181021990931691831602179091556001600160a01b0388165f9081526005602052604090208054600160801b9004909116915060106131078361533e565b82546101009290920a6001600160801b038181021990931691831602179091556001600160a01b0389165f9081526005602052604090208054600160801b9004909116915060106131578361533e565b91906101000a8154816001600160801b0302191690836001600160801b0316021790555050856001600160a01b0316876001600160a01b03167fc817d75deaa278e988c41cf549ef38fe195ab65e0e64cd67ba47f0d185690d588586896001600160801b03166131c791906151c1565b604080519283526020830191909152810185905260600160405180910390a350505050505050565b6001600160a01b0381165f90815260076020526040812060038101546002909101548291905b81811115613300576001600160a01b0385165f908152600760205260408082209051631380691160e01b815260048101919091526024810183905273__$45c6e7e63f817b68352265224a11144e74$__9063138069119060440160a060405180830381865af415801561328a573d5f803e3d5ffd5b505050506040513d601f19601f820116820180604052508101906132ae9190615295565b9050428160200151116132c15750613300565b80516132d6906001600160801b0316866151ef565b945080604001516001600160801b0316846132f191906151ef565b93508060600151915050613215565b6001600160a01b0385165f90815260076020526040908190209051631380691160e01b8152429173__$45c6e7e63f817b68352265224a11144e74$__9163138069119161335a918790600401918252602082015260400190565b60a060405180830381865af4158015613375573d5f803e3d5ffd5b505050506040513d601f19601f820116820180604052508101906133999190615295565b60200151116133a9575050915091565b6001600160a01b0385165f908152600560205260409020600101546133d7906001600160801b0316856151ef565b6001600160a01b0386165f9081526005602052604090206001015490945061340f90600160801b90046001600160801b0316846151ef565b6001600160a01b0386165f9081526007602052604090206001015490935090505b81811115801561343f57505f81115b1561353a576001600160a01b0385165f908152600760205260408082209051631380691160e01b815260048101919091526024810183905273__$45c6e7e63f817b68352265224a11144e74$__9063138069119060440160a060405180830381865af41580156134b1573d5f803e3d5ffd5b505050506040513d601f19601f820116820180604052508101906134d59190615295565b905042816020015111156134e9575061353a565b80516134fe906001600160801b0316866151c1565b60408201519095506001600160801b03161561352f57604081015161352c906001600160801b0316856151c1565b93505b608001519050613430565b5050915091565b600a54600160a01b900460ff1661107c5760405162461bcd60e51b815260206004820152601460248201527314185d5cd8589b194e881b9bdd081c185d5cd95960621b6044820152606401610401565b613599613541565b600a805460ff60a01b191690557f5db9ee0a495bf2e6ff9c91a7834c1ba4fdd244a5e8aa4e537bd38aeae4b073aa335b6040516001600160a01b03909116815260200160405180910390a1565b600a54600160a01b900460ff161561107c5760405162461bcd60e51b815260206004820152601060248201526f14185d5cd8589b194e881c185d5cd95960821b6044820152606401610401565b306001600160a01b037f00000000000000000000000000000000000000000000000000000000000000001614806136b957507f00000000000000000000000000000000000000000000000000000000000000006001600160a01b03166136ad5f805160206154e8833981519152546001600160a01b031690565b6001600160a01b031614155b1561107c5760405163703e46dd60e11b815260040160405180910390fd5b6129666138b1565b816001600160a01b03166352d1902d6040518163ffffffff1660e01b8152600401602060405180830381865afa925050508015613739575060408051601f3d908101601f1916820190925261373691810190615327565b60015b61376157604051634c9c8ce360e01b81526001600160a01b0383166004820152602401610401565b5f805160206154e8833981519152811461379157604051632a87526960e21b815260048101829052602401610401565b612e35838361446c565b306001600160a01b037f0000000000000000000000000000000000000000000000000000000000000000161461107c5760405163703e46dd60e11b815260040160405180910390fd5b6001600160a01b0316638b78c6d819819055805f7f8be0079c531659141344cd1fd0a4f28419497f9722a3daafe3b4186f6b6457e08180a350565b600a80546001600160a01b0319166001600160a01b0392909216919091179055565b5f811561386f57506001600160a01b0382165f908152600560205260409020546001600160801b0316610c05565b5f613879846131ef565b506001600160a01b0385165f908152600560205260409020549091506138a99082906001600160801b03166151c1565b915050610c05565b638b78c6d81954331461107c576382b429005f526004601cfd5b638b78c6d81980546001600160a01b039092169182907f8be0079c531659141344cd1fd0a4f28419497f9722a3daafe3b4186f6b6457e05f80a355565b6139106135e6565b600a805460ff60a01b1916600160a01b1790557f62e78cea01bee320cd4e420270b5ea74000d11b0c9f74754ebdbfc544b05a2586135c93390565b6139536135e6565b6111ac82826144c1565b6040516001600160a01b038316602482015260448101829052612e3590849063a9059cbb60e01b906064015b60408051601f198184030181529190526020810180516001600160e01b03166001600160e01b0319909316929092179091526145fa565b6040516001600160a01b0380851660248301528316604482015260648101829052611fb69085906323b872dd60e01b90608401613989565b6001600160a01b0381165f908152600560208181526040808420600101546007835290842060030154929091526001600160801b0380821693600160801b9092041690613a436149ea565b6001600160a01b0386165f9081526007602052604090206001015415801590613a9357507f000000000000000000000000000000000000000000000000000000000000000061ffff168261ffff16105b15613ca7576001600160a01b0386165f90815260076020526040808220905163805b2eef60e01b8152600481019190915273__$45c6e7e63f817b68352265224a11144e74$__9063805b2eef9060240160c060405180830381865af4158015613afe573d5f803e3d5ffd5b505050506040513d601f19601f82011682018060405250810190613b22919061548a565b60208201519193509150421015613b395750613ca7565b60408201516001600160801b031615613bd0576001600160a01b0387165f90815260076020526040808220905163061b59f160e01b81526004810191909152602481019190915273__$45c6e7e63f817b68352265224a11144e74$__9063061b59f1906044015f6040518083038186803b158015613bb5575f80fd5b505af4158015613bc7573d5f803e3d5ffd5b50505050613c50565b6001600160a01b0387165f9081526007602052604090819020905163061b59f160e01b815260048101919091526001602482015273__$45c6e7e63f817b68352265224a11144e74$__9063061b59f1906044015f6040518083038186803b158015613c39575f80fd5b505af4158015613c4b573d5f803e3d5ffd5b505050505b848111613c90578151613c639087615308565b60408301519096506001600160801b031615613c8b576040820151613c889085615308565b93505b613c94565b8094505b82613c9e816154b5565b93505050613a43565b6001600160a01b0386165f90815260076020526040908190209051631380691160e01b815260048101919091526024810185905273__$45c6e7e63f817b68352265224a11144e74$__9063138069119060440160a060405180830381865af4158015613d15573d5f803e3d5ffd5b505050506040513d601f19601f82011682018060405250810190613d399190615295565b6001600160a01b0387165f908152600760205260409020600101549091505b7f000000000000000000000000000000000000000000000000000000000000000061ffff168361ffff161015613e6d57608082015115613e6d57808510613da3578160800151613da5565b805b6001600160a01b0388165f90815260076020526040908190209051631380691160e01b815291965073__$45c6e7e63f817b68352265224a11144e74$__91631380691191613e00918990600401918252602082015260400190565b60a060405180830381865af4158015613e1b573d5f803e3d5ffd5b505050506040513d601f19601f82011682018060405250810190613e3f9190615295565b8051909250613e4e90876152af565b9550816040015184613e6091906152af565b9350600190920191613d58565b6001600160a01b0387165f90815260056020908152604080832060010180546001600160801b0319166001600160801b038b161790556007909152908190209051630363715960e51b8152600481019190915273__$45c6e7e63f817b68352265224a11144e74$__90636c6e2b2090602401602060405180830381865af4158015613efa573d5f803e3d5ffd5b505050506040513d601f19601f82011682018060405250810190613f1e919061517b565b613f285784613f2a565b5f5b6001600160a01b039097165f90815260076020908152604080832060030199909955600590529690962060010180546001600160801b03948516600160801b029416939093179092555050505050565b5f600160801b8210612ea257612ea26146cd565b5f613f998484612969565b90505f198114611fb65781811015613ff35760405162461bcd60e51b815260206004820152601d60248201527f45524332303a20696e73756666696369656e7420616c6c6f77616e63650000006044820152606401610401565b611fb68484848403612b32565b6001600160a01b038116612966576040516342bcdf7f60e11b815260040160405180910390fd5b6001600160a01b0382165f90815260076020908152604080832060028101546003909101546005909352908320600101548492906001600160801b03165b6001600160a01b0387165f908152600760205260408082209051631380691160e01b815260048101919091526024810185905273__$45c6e7e63f817b68352265224a11144e74$__9063138069119060440160a060405180830381865af41580156140d2573d5f803e3d5ffd5b505050506040513d601f19601f820116820180604052508101906140f69190615295565b905042816020015111614109575061432d565b5f61414061413b876001600160801b03168460400151855f015161412d9190615308565b6001600160801b03166146da565b612e3a565b90506001600160801b038116156142fd5761415b8187615308565b955081604001516001600160801b03165f148015614185575081516001600160801b038281169116145b1561420e576001600160a01b0389165f90815260076020526040908190209051632ff12beb60e11b815260048101919091526024810186905273__$45c6e7e63f817b68352265224a11144e74$__90635fe257d6906044015f6040518083038186803b1580156141f3575f80fd5b505af4158015614205573d5f803e3d5ffd5b5050505061429d565b6001600160a01b0389165f90815260076020526040908190209051630adbaf2360e41b81526004810191909152602481018690526001600160801b038216604482015273__$45c6e7e63f817b68352265224a11144e74$__9063adbaf230906064015f6040518083038186803b158015614286575f80fd5b505af4158015614298573d5f803e3d5ffd5b505050505b604080518681526001600160801b03831660208201526001600160a01b038b16917f30ef9b579408ba9120d6516bc74e64d3744ea04b6bbe2b71a5feba8923656174910160405180910390a28385116142fd576142fa8184615308565b92505b6060820151158061431557506001600160801b038616155b1561432157505061432d565b50606001519250614065565b6143378487615308565b6001600160a01b0388165f90815260056020908152604080832060010180546001600160801b038781166001600160801b0319909216919091179091556007909252918290209151630363715960e51b81529216965073__$45c6e7e63f817b68352265224a11144e74$__91636c6e2b20916143b99160040190815260200190565b602060405180830381865af41580156143d4573d5f803e3d5ffd5b505050506040513d601f19601f820116820180604052508101906143f8919061517b565b1561441d576001600160a01b0387165f90815260076020526040812060030155614462565b6001600160a01b0387165f90815260076020526040902060020154821115614462576001600160a01b0387165f90815260076020526040902060028101546003909101555b5050505092915050565b614475826146ef565b6040516001600160a01b038316907fbc7cd75a20ee27fd9adebab32041f755214dbc6bffa90cc0225b39da2e5c2d3b905f90a28051156144b957612e358282614752565b6111ac6147c4565b6144ca82614000565b6144d3826139f8565b5f806144de846131ef565b6001600160a01b0386165f90815260066020526040812054929450909250906145089083906151c1565b6001600160a01b0386165f908152600560205260409020546145349085906001600160801b03166151c1565b61453e91906151c1565b9050838110156145805760405163083f759b60e01b81526001600160a01b038616600482015260248101829052604481018590525f6064820152608401610401565b61458984612e3a565b6001600160a01b0386165f90815260056020526040812080549091906145b99084906001600160801b0316615308565b92506101000a8154816001600160801b0302191690836001600160801b031602179055508360095f8282546145ee91906151c1565b90915550505050505050565b5f61464e826040518060400160405280602081526020017f5361666545524332303a206c6f772d6c6576656c2063616c6c206661696c6564815250856001600160a01b03166147e39092919063ffffffff16565b905080515f148061466e57508080602001905181019061466e919061517b565b612e355760405162461bcd60e51b815260206004820152602a60248201527f5361666545524332303a204552433230206f7065726174696f6e20646964206e6044820152691bdd081cdd58d8d9595960b21b6064820152608401610401565b6335278d125f526004601cfd5b5f8183106146e85781610e7b565b5090919050565b806001600160a01b03163b5f0361472457604051634c9c8ce360e01b81526001600160a01b0382166004820152602401610401565b5f805160206154e883398151915280546001600160a01b0319166001600160a01b0392909216919091179055565b60605f80846001600160a01b03168460405161476e91906154cc565b5f60405180830381855af49150503d805f81146147a6576040519150601f19603f3d011682016040523d82523d5f602084013e6147ab565b606091505b50915091506147bb8583836147f1565b95945050505050565b341561107c5760405163b398979f60e01b815260040160405180910390fd5b6060611d4f84845f8561484d565b6060826148065761480182614924565b610e7b565b815115801561481d57506001600160a01b0384163b155b1561484657604051639996b31560e01b81526001600160a01b0385166004820152602401610401565b5080610e7b565b6060824710156148ae5760405162461bcd60e51b815260206004820152602660248201527f416464726573733a20696e73756666696369656e742062616c616e636520666f6044820152651c8818d85b1b60d21b6064820152608401610401565b5f80866001600160a01b031685876040516148c991906154cc565b5f6040518083038185875af1925050503d805f8114614903576040519150601f19603f3d011682016040523d82523d5f602084013e614908565b606091505b50915091506149198783838761494d565b979650505050505050565b8051156149345780518082602001fd5b60405163d6bda27560e01b815260040160405180910390fd5b606083156149bb5782515f036149b4576001600160a01b0385163b6149b45760405162461bcd60e51b815260206004820152601d60248201527f416464726573733a2063616c6c20746f206e6f6e2d636f6e74726163740000006044820152606401610401565b5081611d4f565b611d4f83838151156149d05781518083602001fd5b8060405162461bcd60e51b81526004016104019190614a48565b6040518060a001604052805f6001600160801b031681526020015f81526020015f6001600160801b031681526020015f81526020015f81525090565b5f5b83811015614a40578181015183820152602001614a28565b50505f910152565b602081525f8251806020840152614a66816040850160208701614a26565b601f01601f19169190910160400192915050565b80356001600160a01b03811681146114f8575f80fd5b5f8060408385031215614aa1575f80fd5b614aaa83614a7a565b946020939093013593505050565b60ff81168114612966575f80fd5b5f805f805f8060c08789031215614adb575f80fd5b614ae487614a7a565b955060208701359450604087013593506060870135614b0281614ab8565b9598949750929560808101359460a0909101359350915050565b5f805f60608486031215614b2e575f80fd5b614b3784614a7a565b9250614b4560208501614a7a565b929592945050506040919091013590565b5f60208284031215614b66575f80fd5b5035919050565b8015158114612966575f80fd5b5f8060408385031215614b8b575f80fd5b614b9483614a7a565b91506020830135614ba481614b6d565b809150509250929050565b634e487b7160e01b5f52604160045260245ffd5b604051606081016001600160401b0381118282101715614be557614be5614baf565b60405290565b604051601f8201601f191681016001600160401b0381118282101715614c1357614c13614baf565b604052919050565b5f8060408385031215614c2c575f80fd5b614c3583614a7a565b915060208301356001600160401b03811115614c4f575f80fd5b8301601f81018513614c5f575f80fd5b80356001600160401b03811115614c7857614c78614baf565b614c8b601f8201601f1916602001614beb565b818152866020838501011115614c9f575f80fd5b816020840160208301375f602083830101528093505050509250929050565b6001600160801b0381168114612966575f80fd5b5f82601f830112614ce1575f80fd5b81356001600160401b03811115614cfa57614cfa614baf565b614d0960208260051b01614beb565b80828252602082019150602060608402860101925085831115614d2a575f80fd5b602085015b83811015614d865760608188031215614d46575f80fd5b614d4e614bc3565b614d5782614a7a565b8152602082810135908201526040820135614d7181614cbe565b60408201528352602090920191606001614d2f565b5095945050505050565b5f60208284031215614da0575f80fd5b81356001600160401b03811115614db5575f80fd5b611d4f84828501614cd2565b5f60208284031215614dd1575f80fd5b610e7b82614a7a565b5f805f60608486031215614dec575f80fd5b8335614df781614b6d565b9250614e0560208501614a7a565b915060408401356001600160401b03811115614e1f575f80fd5b614e2b86828701614cd2565b9150509250925092565b5f805f8060808587031215614e48575f80fd5b614e5185614a7a565b9350614e5f60208601614a7a565b9250604085013591506060850135614e7681614b6d565b939692955090935050565b803561ffff811681146114f8575f80fd5b5f805f60608486031215614ea4575f80fd5b614ead84614a7a565b9250614ebb60208501614e81565b9150614ec960408501614a7a565b90509250925092565b5f8083601f840112614ee2575f80fd5b5081356001600160401b03811115614ef8575f80fd5b602083019150836020828501011115614f0f575f80fd5b9250929050565b5f805f805f805f8060a0898b031215614f2d575f80fd5b614f3689614a7a565b975060208901356001600160401b03811115614f50575f80fd5b614f5c8b828c01614ed2565b90985096505060408901356001600160401b03811115614f7a575f80fd5b614f868b828c01614ed2565b9096509450506060890135925060808901356001600160401b03811115614fab575f80fd5b614fb78b828c01614ed2565b999c989b5096995094979396929594505050565b5f805f805f805f6080888a031215614fe1575f80fd5b87356001600160401b03811115614ff6575f80fd5b6150028a828b01614ed2565b90985096505060208801356001600160401b03811115615020575f80fd5b61502c8a828b01614ed2565b9096509450506040880135925060608801356001600160401b03811115615051575f80fd5b61505d8a828b01614ed2565b989b979a50959850939692959293505050565b602080825282518282018190525f918401906040840190835b818110156150e95783516001600160801b038151168452602081015160208501526001600160801b03604082015116604085015260608101516060850152608081015160808501525060a083019250602084019350600181019050615089565b509095945050505050565b5f8060408385031215615105575f80fd5b61510e83614a7a565b915061511c60208401614a7a565b90509250929050565b5f805f60608486031215615137575f80fd5b61514084614a7a565b925060208401359150604084013561515781614b6d565b809150509250925092565b5f60208284031215615172575f80fd5b610e7b82614e81565b5f6020828403121561518b575f80fd5b8151610e7b81614b6d565b634e487b7160e01b5f52601160045260245ffd5b8082028115828204841417610c0557610c05615196565b81810381811115610c0557610c05615196565b5f602082840312156151e4575f80fd5b8151610e7b81614ab8565b80820180821115610c0557610c05615196565b634e487b7160e01b5f52603260045260245ffd5b5f60a08284031215615226575f80fd5b60405160a081016001600160401b038111828210171561524857615248614baf565b8060405250809150825161525b81614cbe565b815260208381015190820152604083015161527581614cbe565b604082015260608381015190820152608092830151920191909152919050565b5f60a082840312156152a5575f80fd5b610e7b8383615216565b6001600160801b038181168382160190811115610c0557610c05615196565b634e487b7160e01b5f52601260045260245ffd5b5f826152f0576152f06152ce565b500490565b5f82615303576153036152ce565b500690565b6001600160801b038281168282160390811115610c0557610c05615196565b5f60208284031215615337575f80fd5b5051919050565b5f6001600160801b0382166001600160801b03810361535f5761535f615196565b60010192915050565b5f604082018415158352604060208401528084518083526060850191506020860192505f5b818110156153d657835180516001600160a01b03168452602080820151818601526040918201516001600160801b0316918501919091529093019260609092019160010161538d565b50909695505050505050565b81835281816020850137505f828201602090810191909152601f909101601f19169091010190565b8981526001600160a01b038916602082015260c0604082018190525f90615434908301898b6153e2565b828103606084015261544781888a6153e2565b905085608084015282810360a08401526154628185876153e2565b9c9b505050505050505050505050565b5f6001820161548357615483615196565b5060010190565b5f8060c0838503121561549b575f80fd5b6154a58484615216565b60a0939093015192949293505050565b5f61ffff821661ffff810361535f5761535f615196565b5f82516154dd818460208701614a26565b919091019291505056fe360894a13ba1a3210667c828492db98dca3e2076cc3735a920a3ca505d382bbca164736f6c634300081a000a",
    "linkReferences": {
      "node_modules/recoverable-wrapper/contracts/util/RecordUtil.sol": {
        "RecordsDequeLib": [
          {
            "start": 6660,
            "length": 20
          },
          {
            "start": 7062,
            "length": 20
          },
          {
            "start": 7684,
            "length": 20
          },
          {
            "start": 7916,
            "length": 20
          },
          {
            "start": 8088,
            "length": 20
          },
          {
            "start": 8425,
            "length": 20
          },
          {
            "start": 8644,
            "length": 20
          },
          {
            "start": 11899,
            "length": 20
          },
          {
            "start": 13362,
            "length": 20
          },
          {
            "start": 14079,
            "length": 20
          },
          {
            "start": 14801,
            "length": 20
          },
          {
            "start": 15016,
            "length": 20
          },
          {
            "start": 15352,
            "length": 20
          },
          {
            "start": 16965,
            "length": 20
          },
          {
            "start": 17153,
            "length": 20
          },
          {
            "start": 17285,
            "length": 20
          },
          {
            "start": 17500,
            "length": 20
          },
          {
            "start": 17742,
            "length": 20
          },
          {
            "start": 17985,
            "length": 20
          },
          {
            "start": 18457,
            "length": 20
          },
          {
            "start": 18751,
            "length": 20
          },
          {
            "start": 18898,
            "length": 20
          },
          {
            "start": 19214,
            "length": 20
          }
        ]
      }
    }
  },
  "methodIdentifiers": {
    "DECIMALS_CONVERTER()": "7a920fa9",
    "SYSTEM_ADDRESS()": "3434735f",
    "UPGRADE_INTERFACE_VERSION()": "ad3cb1cc",
    "allowance(address,address)": "dd62ed3e",
    "approve(address,uint256)": "095ea7b3",
    "balanceOf(address)": "70a08231",
    "balanceOf(address,bool)": "772865e2",
    "baseToken()": "c55dae63",
    "burn(address,uint256)": "9dc29fac",
    "cancelOwnershipHandover()": "54d1f13d",
    "closeCase(bool,address,(address,uint256,uint128)[])": "6a6a2208",
    "completeOwnershipHandover(address)": "f04e283e",
    "decimals()": "313ce567",
    "decreaseAllowance(address,uint256)": "a457c2d7",
    "disableUnwrap()": "bde15931",
    "distributeStakeReward(address,uint256)": "90ea90ae",
    "doubleWrap()": "b9ea102a",
    "freeze((address,uint256,uint128)[])": "50c695d1",
    "frozen(address)": "d0516650",
    "governanceAddress()": "795053d3",
    "increaseAllowance(address,uint256)": "39509351",
    "initialize(address,uint16,address)": "708c0db9",
    "interchainTokenId()": "129d8188",
    "interchainTokenService()": "09c6bed9",
    "interchainTransfer(string,bytes,uint256,bytes)": "bc0ba3c5",
    "interchainTransferFrom(address,string,bytes,uint256,bytes)": "a60fee37",
    "isMinter(address)": "aa271e1a",
    "linkedTokenDeploySalt()": "9a3fb7bf",
    "mint(address,uint256)": "40c10f19",
    "name()": "06fdde03",
    "nonce(address)": "70ae92d2",
    "owner()": "8da5cb5b",
    "ownershipHandoverExpiresAt(address)": "fee81cf4",
    "pause()": "8456cb59",
    "paused()": "5c975abb",
    "permitWrap(address,uint256,uint256,uint8,bytes32,bytes32)": "1a4fa0b3",
    "proxiableUUID()": "52d1902d",
    "recoverableWindow()": "c2029b0c",
    "renounceOwnership()": "715018a6",
    "requestOwnershipHandover()": "25692962",
    "setGovernanceAddress(address)": "cfc16254",
    "setMaxToClean(uint16)": "f3ccf05e",
    "spendableBalanceOf(address,bool)": "2b87c507",
    "stakeManager()": "7542ff95",
    "symbol()": "95d89b41",
    "toEighteenDecimals(uint256)": "2557fe21",
    "toTwoDecimals(uint256)": "6568f451",
    "tokenManager()": "2a709b14",
    "tokenManagerAddress()": "bc4c594b",
    "tokenManagerCreate3Salt()": "7bcffc04",
    "totalSupply()": "18160ddd",
    "transfer(address,uint256)": "a9059cbb",
    "transfer(address,uint256,bool)": "e1ad1162",
    "transferFrom(address,address,uint256)": "23b872dd",
    "transferFrom(address,address,uint256,bool)": "6f2293ab",
    "transferOwnership(address)": "f2fde38b",
    "unpause()": "3f4ba83a",
    "unsettledRecords(address)": "cd810d2b",
    "unwrap(uint256)": "de0e9a3e",
    "unwrapDisabled(address)": "69b0758e",
    "unwrapTo(address,uint256)": "c12ea3ca",
    "upgradeToAndCall(address,bytes)": "4f1ef286",
    "wrap(uint256)": "ea598cb0"
  },
  "id": 198
}