{
  "abi": [
    {
      "type": "constructor",
      "inputs": [
        {
          "name": "interchainTokenService_",
          "type": "address",
          "internalType": "address"
        }
      ],
      "stateMutability": "nonpayable"
    },
    {
      "type": "function",
      "name": "acceptOwnership",
      "inputs": [],
      "outputs": [],
      "stateMutability": "nonpayable"
    },
    {
      "type": "function",
      "name": "approveDeployRemoteInterchainToken",
      "inputs": [
        {
          "name": "deployer",
          "type": "address",
          "internalType": "address"
        },
        {
          "name": "salt",
          "type": "bytes32",
          "internalType": "bytes32"
        },
        {
          "name": "destinationChain",
          "type": "string",
          "internalType": "string"
        },
        {
          "name": "destinationMinter",
          "type": "bytes",
          "internalType": "bytes"
        }
      ],
      "outputs": [],
      "stateMutability": "nonpayable"
    },
    {
      "type": "function",
      "name": "canonicalInterchainTokenDeploySalt",
      "inputs": [
        {
          "name": "tokenAddress",
          "type": "address",
          "internalType": "address"
        }
      ],
      "outputs": [
        {
          "name": "deploySalt",
          "type": "bytes32",
          "internalType": "bytes32"
        }
      ],
      "stateMutability": "view"
    },
    {
      "type": "function",
      "name": "canonicalInterchainTokenId",
      "inputs": [
        {
          "name": "tokenAddress",
          "type": "address",
          "internalType": "address"
        }
      ],
      "outputs": [
        {
          "name": "tokenId",
          "type": "bytes32",
          "internalType": "bytes32"
        }
      ],
      "stateMutability": "view"
    },
    {
      "type": "function",
      "name": "chainNameHash",
      "inputs": [],
      "outputs": [
        {
          "name": "",
          "type": "bytes32",
          "internalType": "bytes32"
        }
      ],
      "stateMutability": "view"
    },
    {
      "type": "function",
      "name": "contractId",
      "inputs": [],
      "outputs": [
        {
          "name": "",
          "type": "bytes32",
          "internalType": "bytes32"
        }
      ],
      "stateMutability": "pure"
    },
    {
      "type": "function",
      "name": "deployInterchainToken",
      "inputs": [
        {
          "name": "salt",
          "type": "bytes32",
          "internalType": "bytes32"
        },
        {
          "name": "name",
          "type": "string",
          "internalType": "string"
        },
        {
          "name": "symbol",
          "type": "string",
          "internalType": "string"
        },
        {
          "name": "decimals",
          "type": "uint8",
          "internalType": "uint8"
        },
        {
          "name": "initialSupply",
          "type": "uint256",
          "internalType": "uint256"
        },
        {
          "name": "minter",
          "type": "address",
          "internalType": "address"
        }
      ],
      "outputs": [
        {
          "name": "tokenId",
          "type": "bytes32",
          "internalType": "bytes32"
        }
      ],
      "stateMutability": "payable"
    },
    {
      "type": "function",
      "name": "deployRemoteCanonicalInterchainToken",
      "inputs": [
        {
          "name": "originalChain",
          "type": "string",
          "internalType": "string"
        },
        {
          "name": "originalTokenAddress",
          "type": "address",
          "internalType": "address"
        },
        {
          "name": "destinationChain",
          "type": "string",
          "internalType": "string"
        },
        {
          "name": "gasValue",
          "type": "uint256",
          "internalType": "uint256"
        }
      ],
      "outputs": [
        {
          "name": "tokenId",
          "type": "bytes32",
          "internalType": "bytes32"
        }
      ],
      "stateMutability": "payable"
    },
    {
      "type": "function",
      "name": "deployRemoteCanonicalInterchainToken",
      "inputs": [
        {
          "name": "originalTokenAddress",
          "type": "address",
          "internalType": "address"
        },
        {
          "name": "destinationChain",
          "type": "string",
          "internalType": "string"
        },
        {
          "name": "gasValue",
          "type": "uint256",
          "internalType": "uint256"
        }
      ],
      "outputs": [
        {
          "name": "tokenId",
          "type": "bytes32",
          "internalType": "bytes32"
        }
      ],
      "stateMutability": "payable"
    },
    {
      "type": "function",
      "name": "deployRemoteInterchainToken",
      "inputs": [
        {
          "name": "salt",
          "type": "bytes32",
          "internalType": "bytes32"
        },
        {
          "name": "destinationChain",
          "type": "string",
          "internalType": "string"
        },
        {
          "name": "gasValue",
          "type": "uint256",
          "internalType": "uint256"
        }
      ],
      "outputs": [
        {
          "name": "tokenId",
          "type": "bytes32",
          "internalType": "bytes32"
        }
      ],
      "stateMutability": "payable"
    },
    {
      "type": "function",
      "name": "deployRemoteInterchainToken",
      "inputs": [
        {
          "name": "originalChainName",
          "type": "string",
          "internalType": "string"
        },
        {
          "name": "salt",
          "type": "bytes32",
          "internalType": "bytes32"
        },
        {
          "name": "minter",
          "type": "address",
          "internalType": "address"
        },
        {
          "name": "destinationChain",
          "type": "string",
          "internalType": "string"
        },
        {
          "name": "gasValue",
          "type": "uint256",
          "internalType": "uint256"
        }
      ],
      "outputs": [
        {
          "name": "tokenId",
          "type": "bytes32",
          "internalType": "bytes32"
        }
      ],
      "stateMutability": "payable"
    },
    {
      "type": "function",
      "name": "deployRemoteInterchainTokenWithMinter",
      "inputs": [
        {
          "name": "salt",
          "type": "bytes32",
          "internalType": "bytes32"
        },
        {
          "name": "minter",
          "type": "address",
          "internalType": "address"
        },
        {
          "name": "destinationChain",
          "type": "string",
          "internalType": "string"
        },
        {
          "name": "destinationMinter",
          "type": "bytes",
          "internalType": "bytes"
        },
        {
          "name": "gasValue",
          "type": "uint256",
          "internalType": "uint256"
        }
      ],
      "outputs": [
        {
          "name": "tokenId",
          "type": "bytes32",
          "internalType": "bytes32"
        }
      ],
      "stateMutability": "payable"
    },
    {
      "type": "function",
      "name": "implementation",
      "inputs": [],
      "outputs": [
        {
          "name": "implementation_",
          "type": "address",
          "internalType": "address"
        }
      ],
      "stateMutability": "view"
    },
    {
      "type": "function",
      "name": "interchainTokenDeploySalt",
      "inputs": [
        {
          "name": "deployer",
          "type": "address",
          "internalType": "address"
        },
        {
          "name": "salt",
          "type": "bytes32",
          "internalType": "bytes32"
        }
      ],
      "outputs": [
        {
          "name": "deploySalt",
          "type": "bytes32",
          "internalType": "bytes32"
        }
      ],
      "stateMutability": "view"
    },
    {
      "type": "function",
      "name": "interchainTokenId",
      "inputs": [
        {
          "name": "deployer",
          "type": "address",
          "internalType": "address"
        },
        {
          "name": "salt",
          "type": "bytes32",
          "internalType": "bytes32"
        }
      ],
      "outputs": [
        {
          "name": "tokenId",
          "type": "bytes32",
          "internalType": "bytes32"
        }
      ],
      "stateMutability": "view"
    },
    {
      "type": "function",
      "name": "interchainTokenService",
      "inputs": [],
      "outputs": [
        {
          "name": "",
          "type": "address",
          "internalType": "contract IInterchainTokenService"
        }
      ],
      "stateMutability": "view"
    },
    {
      "type": "function",
      "name": "linkToken",
      "inputs": [
        {
          "name": "salt",
          "type": "bytes32",
          "internalType": "bytes32"
        },
        {
          "name": "destinationChain",
          "type": "string",
          "internalType": "string"
        },
        {
          "name": "destinationTokenAddress",
          "type": "bytes",
          "internalType": "bytes"
        },
        {
          "name": "tokenManagerType",
          "type": "uint8",
          "internalType": "enum ITokenManagerType.TokenManagerType"
        },
        {
          "name": "linkParams",
          "type": "bytes",
          "internalType": "bytes"
        },
        {
          "name": "gasValue",
          "type": "uint256",
          "internalType": "uint256"
        }
      ],
      "outputs": [
        {
          "name": "tokenId",
          "type": "bytes32",
          "internalType": "bytes32"
        }
      ],
      "stateMutability": "payable"
    },
    {
      "type": "function",
      "name": "linkedTokenDeploySalt",
      "inputs": [
        {
          "name": "deployer",
          "type": "address",
          "internalType": "address"
        },
        {
          "name": "salt",
          "type": "bytes32",
          "internalType": "bytes32"
        }
      ],
      "outputs": [
        {
          "name": "deploySalt",
          "type": "bytes32",
          "internalType": "bytes32"
        }
      ],
      "stateMutability": "view"
    },
    {
      "type": "function",
      "name": "linkedTokenId",
      "inputs": [
        {
          "name": "deployer",
          "type": "address",
          "internalType": "address"
        },
        {
          "name": "salt",
          "type": "bytes32",
          "internalType": "bytes32"
        }
      ],
      "outputs": [
        {
          "name": "tokenId",
          "type": "bytes32",
          "internalType": "bytes32"
        }
      ],
      "stateMutability": "view"
    },
    {
      "type": "function",
      "name": "multicall",
      "inputs": [
        {
          "name": "data",
          "type": "bytes[]",
          "internalType": "bytes[]"
        }
      ],
      "outputs": [
        {
          "name": "results",
          "type": "bytes[]",
          "internalType": "bytes[]"
        }
      ],
      "stateMutability": "payable"
    },
    {
      "type": "function",
      "name": "owner",
      "inputs": [],
      "outputs": [
        {
          "name": "owner_",
          "type": "address",
          "internalType": "address"
        }
      ],
      "stateMutability": "view"
    },
    {
      "type": "function",
      "name": "pendingOwner",
      "inputs": [],
      "outputs": [
        {
          "name": "owner_",
          "type": "address",
          "internalType": "address"
        }
      ],
      "stateMutability": "view"
    },
    {
      "type": "function",
      "name": "proposeOwnership",
      "inputs": [
        {
          "name": "newOwner",
          "type": "address",
          "internalType": "address"
        }
      ],
      "outputs": [],
      "stateMutability": "nonpayable"
    },
    {
      "type": "function",
      "name": "registerCanonicalInterchainToken",
      "inputs": [
        {
          "name": "tokenAddress",
          "type": "address",
          "internalType": "address"
        }
      ],
      "outputs": [
        {
          "name": "tokenId",
          "type": "bytes32",
          "internalType": "bytes32"
        }
      ],
      "stateMutability": "payable"
    },
    {
      "type": "function",
      "name": "registerCustomToken",
      "inputs": [
        {
          "name": "salt",
          "type": "bytes32",
          "internalType": "bytes32"
        },
        {
          "name": "tokenAddress",
          "type": "address",
          "internalType": "address"
        },
        {
          "name": "tokenManagerType",
          "type": "uint8",
          "internalType": "enum ITokenManagerType.TokenManagerType"
        },
        {
          "name": "operator",
          "type": "address",
          "internalType": "address"
        }
      ],
      "outputs": [
        {
          "name": "tokenId",
          "type": "bytes32",
          "internalType": "bytes32"
        }
      ],
      "stateMutability": "payable"
    },
    {
      "type": "function",
      "name": "revokeDeployRemoteInterchainToken",
      "inputs": [
        {
          "name": "deployer",
          "type": "address",
          "internalType": "address"
        },
        {
          "name": "salt",
          "type": "bytes32",
          "internalType": "bytes32"
        },
        {
          "name": "destinationChain",
          "type": "string",
          "internalType": "string"
        }
      ],
      "outputs": [],
      "stateMutability": "nonpayable"
    },
    {
      "type": "function",
      "name": "setup",
      "inputs": [
        {
          "name": "data",
          "type": "bytes",
          "internalType": "bytes"
        }
      ],
      "outputs": [],
      "stateMutability": "nonpayable"
    },
    {
      "type": "function",
      "name": "transferOwnership",
      "inputs": [
        {
          "name": "newOwner",
          "type": "address",
          "internalType": "address"
        }
      ],
      "outputs": [],
      "stateMutability": "nonpayable"
    },
    {
      "type": "function",
      "name": "upgrade",
      "inputs": [
        {
          "name": "newImplementation",
          "type": "address",
          "internalType": "address"
        },
        {
          "name": "newImplementationCodeHash",
          "type": "bytes32",
          "internalType": "bytes32"
        },
        {
          "name": "params",
          "type": "bytes",
          "internalType": "bytes"
        }
      ],
      "outputs": [],
      "stateMutability": "nonpayable"
    },
    {
      "type": "event",
      "name": "DeployRemoteInterchainTokenApproval",
      "inputs": [
        {
          "name": "minter",
          "type": "address",
          "indexed": true,
          "internalType": "address"
        },
        {
          "name": "deployer",
          "type": "address",
          "indexed": true,
          "internalType": "address"
        },
        {
          "name": "tokenId",
          "type": "bytes32",
          "indexed": true,
          "internalType": "bytes32"
        },
        {
          "name": "destinationChain",
          "type": "string",
          "indexed": false,
          "internalType": "string"
        },
        {
          "name": "destinationMinter",
          "type": "bytes",
          "indexed": false,
          "internalType": "bytes"
        }
      ],
      "anonymous": false
    },
    {
      "type": "event",
      "name": "OwnershipTransferStarted",
      "inputs": [
        {
          "name": "newOwner",
          "type": "address",
          "indexed": true,
          "internalType": "address"
        }
      ],
      "anonymous": false
    },
    {
      "type": "event",
      "name": "OwnershipTransferred",
      "inputs": [
        {
          "name": "newOwner",
          "type": "address",
          "indexed": true,
          "internalType": "address"
        }
      ],
      "anonymous": false
    },
    {
      "type": "event",
      "name": "RevokedDeployRemoteInterchainTokenApproval",
      "inputs": [
        {
          "name": "minter",
          "type": "address",
          "indexed": true,
          "internalType": "address"
        },
        {
          "name": "deployer",
          "type": "address",
          "indexed": true,
          "internalType": "address"
        },
        {
          "name": "tokenId",
          "type": "bytes32",
          "indexed": true,
          "internalType": "bytes32"
        },
        {
          "name": "destinationChain",
          "type": "string",
          "indexed": false,
          "internalType": "string"
        }
      ],
      "anonymous": false
    },
    {
      "type": "event",
      "name": "Upgraded",
      "inputs": [
        {
          "name": "newImplementation",
          "type": "address",
          "indexed": true,
          "internalType": "address"
        }
      ],
      "anonymous": false
    },
    {
      "type": "error",
      "name": "InvalidChainName",
      "inputs": []
    },
    {
      "type": "error",
      "name": "InvalidCodeHash",
      "inputs": []
    },
    {
      "type": "error",
      "name": "InvalidImplementation",
      "inputs": []
    },
    {
      "type": "error",
      "name": "InvalidMinter",
      "inputs": [
        {
          "name": "minter",
          "type": "address",
          "internalType": "address"
        }
      ]
    },
    {
      "type": "error",
      "name": "InvalidOwner",
      "inputs": []
    },
    {
      "type": "error",
      "name": "InvalidOwnerAddress",
      "inputs": []
    },
    {
      "type": "error",
      "name": "InvalidTokenId",
      "inputs": [
        {
          "name": "tokenId",
          "type": "bytes32",
          "internalType": "bytes32"
        },
        {
          "name": "expectedTokenId",
          "type": "bytes32",
          "internalType": "bytes32"
        }
      ]
    },
    {
      "type": "error",
      "name": "MulticallFailed",
      "inputs": []
    },
    {
      "type": "error",
      "name": "NotMinter",
      "inputs": [
        {
          "name": "minter",
          "type": "address",
          "internalType": "address"
        }
      ]
    },
    {
      "type": "error",
      "name": "NotOwner",
      "inputs": []
    },
    {
      "type": "error",
      "name": "NotProxy",
      "inputs": []
    },
    {
      "type": "error",
      "name": "NotSupported",
      "inputs": []
    },
    {
      "type": "error",
      "name": "NotToken",
      "inputs": [
        {
          "name": "tokenAddress",
          "type": "address",
          "internalType": "address"
        }
      ]
    },
    {
      "type": "error",
      "name": "RemoteDeploymentNotApproved",
      "inputs": []
    },
    {
      "type": "error",
      "name": "SetupFailed",
      "inputs": []
    },
    {
      "type": "error",
      "name": "ZeroAddress",
      "inputs": []
    },
    {
      "type": "error",
      "name": "ZeroSupplyToken",
      "inputs": []
    }
  ],
  "bytecode": {
    "object": "0x60e060405234801561000f575f80fd5b50604051612ba8380380612ba883398101604081905261002e9161017b565b6001610039816100da565b50306080526001600160a01b0381166100655760405163d92e233d60e01b815260040160405180910390fd5b6001600160a01b03811660a08190526040805163864a0dcf60e01b8152905163864a0dcf916004808201926020929091908290030181865afa1580156100ad573d5f803e3d5ffd5b505050506040513d601f19601f820116820180604052508101906100d191906101a8565b60c052506101bf565b6001600160a01b03811661010157604051633649397d60e21b815260040160405180910390fd5b6040516001600160a01b038216907f04dba622d284ed0014ee4b9a6a68386be1a4c08a4913ae272de89199cc686163905f90a27f02016836a56b71f0d02689e69e326f4f4c1b9057164ef592671cf0d37c8040c0555f7f9855384122b55936fbfb8ca5120e63c6537a1ac40caf6ae33502b3c5da8c87d155565b5f6020828403121561018b575f80fd5b81516001600160a01b03811681146101a1575f80fd5b9392505050565b5f602082840312156101b8575f80fd5b5051919050565b60805160a05160c0516129566102525f395f81816103a201528181610ac901528181610b4d0152610f4f01525f81816101f50152818161059d01528181610696015281816107d501528181610869015281816112e301528181611505015281816115af015281816117c80152818161187f0152818161190e01528181611a150152611b1801525f610f9801526129565ff3fe6080604052600436106101ba575f3560e01c8063864a0dcf116100f2578063a5269ef111610092578063d8c0326811610062578063d8c03268146104d8578063e30c3978146104eb578063e8a1d6f61461050b578063f2fde38b1461052a575f80fd5b8063a5269ef114610467578063a75483d114610486578063ac9650d814610499578063b2292888146104b9575f80fd5b80639d6d57b3116100cd5780639d6d57b3146103f75780639ded06df14610416578063a3499c7314610435578063a37fcf4e14610454575f80fd5b8063864a0dcf146103915780638da5cb5b146103c4578063993a5b9e146103e4575f80fd5b80635c60da1b1161015d57806379ba50971161013857806379ba50971461030d5780637c2def17146103215780638291286c14610340578063848f7b6314610372575f80fd5b80635c60da1b146102a65780635d79c00e146102d9578063710bf322146102ec575f80fd5b80633e12f8c5116101985780633e12f8c514610242578063415621061461025557806343b0f3d3146102745780634987e2c214610293575f80fd5b8063010987dc146101be57806309c6bed9146101e45780630f4433d31461022f575b5f80fd5b6101d16101cc366004611ea6565b610549565b6040519081526020015b60405180910390f35b3480156101ef575f80fd5b506102177f000000000000000000000000000000000000000000000000000000000000000081565b6040516001600160a01b0390911681526020016101db565b6101d161023d366004611f07565b61058d565b6101d1610250366004611fe6565b610648565b348015610260575f80fd5b506101d161026f36600461208b565b610a9d565b34801561027f575f80fd5b506101d161028e3660046120a6565b610b21565b6101d16102a136600461213a565b610bad565b3480156102b1575f80fd5b507f360894a13ba1a3210667c828492db98dca3e2076cc3735a920a3ca505d382bbc54610217565b6101d16102e7366004612208565b610caf565b3480156102f7575f80fd5b5061030b61030636600461208b565b610cdc565b005b348015610318575f80fd5b5061030b610d84565b34801561032c575f80fd5b506101d161033b3660046120a6565b610dd1565b34801561034b575f80fd5b507f80547d63ed663962b99f8ed432bff3879a35b5418af92258aa171feef14cc3cc6101d1565b34801561037d575f80fd5b5061030b61038c366004612299565b610df0565b34801561039c575f80fd5b506101d17f000000000000000000000000000000000000000000000000000000000000000081565b3480156103cf575f80fd5b505f8051602061290a83398151915254610217565b6101d16103f23660046122f0565b610eec565b348015610402575f80fd5b506101d16104113660046120a6565b610f23565b348015610421575f80fd5b5061030b610430366004612378565b610f95565b348015610440575f80fd5b5061030b61044f366004612299565b610fe2565b6101d16104623660046123b6565b611270565b348015610472575f80fd5b506101d16104813660046120a6565b611299565b6101d161049436600461208b565b6112a5565b6104ac6104a73660046123ee565b611360565b6040516101db91906124aa565b3480156104c4575f80fd5b506101d16104d336600461208b565b611490565b6101d16104e636600461250d565b6114ad565b3480156104f6575f80fd5b505f8051602061292a83398151915254610217565b348015610516575f80fd5b5061030b61052536600461255b565b611580565b348015610535575f80fd5b5061030b61054436600461208b565b61175a565b5f61058485828686825b6040519080825280601f01601f19166020018201604052801561057d576020820181803683370190505b5087610bad565b95945050505050565b5f80610599338c610f23565b90507f00000000000000000000000000000000000000000000000000000000000000006001600160a01b0316630f4433d384838d8d8d8d8d8d8d8d6040518b63ffffffff1660e01b81526004016105f89998979695949392919061262c565b60206040518083038185885af1158015610614573d5f803e3d5ffd5b50505050506040513d601f19601f820116820180604052508101906106399190612691565b9b9a5050505050505050505050565b5f3381610655828c610b21565b604080515f80825281830190925260208101828152929350919087156106855761067e30611797565b9250610720565b6001600160a01b03871615610707577f00000000000000000000000000000000000000000000000000000000000000006001600160a01b0316876001600160a01b0316036106f55760405162f78d2360e81b81526001600160a01b03881660048201526024015b60405180910390fd5b61067e876001600160a01b0316611797565b60405163db80c5f160e01b815260040160405180910390fd5b6107b584838f8f8080601f0160208091040260200160405190810160405280939291908181526020018383808284375f81840152601f19601f820116905080830192505050505050508e8e8080601f0160208091040260200160405190810160405280939291908181526020018383808284375f81840152601f19601f820116905080830192505050505050508d88876117c5565b95508715610a8c5760405163b90d6afd60e01b8152600481018790525f907f00000000000000000000000000000000000000000000000000000000000000006001600160a01b03169063b90d6afd90602401602060405180830381865afa158015610822573d5f803e3d5ffd5b505050506040513d601f19601f8201168201806040525081019061084691906126a8565b604051637e10eb1560e01b8152600481018990529091505f906001600160a01b037f00000000000000000000000000000000000000000000000000000000000000001690637e10eb1590602401602060405180830381865afa1580156108ae573d5f803e3d5ffd5b505050506040513d601f19601f820116820180604052508101906108d291906126a8565b6040516340c10f1960e01b81526001600160a01b038981166004830152602482018d9052919250908316906340c10f19906044015f604051808303815f87803b15801561091d575f80fd5b505af115801561092f573d5f803e3d5ffd5b50506040516367c354ad60e11b81526001600160a01b038c811660048301528516925063cf86a95a91506024015f604051808303815f87803b158015610973575f80fd5b505af1158015610985573d5f803e3d5ffd5b505060405163e915cfd160e01b81523060048201526001600160a01b038416925063e915cfd191506024015f604051808303815f87803b1580156109c7575f80fd5b505af11580156109d9573d5f803e3d5ffd5b505060405163120a63b560e01b81526001600160a01b038c811660048301528416925063120a63b591506024015f604051808303815f87803b158015610a1d575f80fd5b505af1158015610a2f573d5f803e3d5ffd5b505060405163094d485b60e31b81526001600160a01b038c8116600483015284169250634a6a42d891506024015f604051808303815f87803b158015610a73575f80fd5b505af1158015610a85573d5f803e3d5ffd5b5050505050505b505050505098975050505050505050565b604080517f9ca52083bb00ac0f5bed7edcaabb0534d03efb0719807b54a8029c4d1313630960208201527f0000000000000000000000000000000000000000000000000000000000000000918101919091526001600160a01b03821660608201525f906080015b604051602081830303815290604052805190602001209050919050565b604080517ff84d43c32bc607f1bdb175c63a0cf1939bf0cc8cc3565450be225afbb5a1098560208201527f0000000000000000000000000000000000000000000000000000000000000000918101919091526001600160a01b0383166060820152608081018290525f9060a0015b60405160208183030381529060405280519060200120905092915050565b5f80610bb93389610b21565b90506001600160a01b03871615610c6c575f610bd482611860565b9050610be081896118f6565b845115610c51575f60405180606001604052808a6001600160a01b0316815260200183815260200189898080601f0160208091040260200160405190810160405280939291908181526020018383808284375f9201919091525050509152509050610c4b8187611a74565b50610c66565b610c63886001600160a01b0316611797565b94505b50610c96565b835115610c965760405162f78d2360e81b81526001600160a01b03881660048201526024016106ec565b610ca38187878787611aea565b98975050505050505050565b5f8615610ccf57604051630280e1e560e61b815260040160405180910390fd5b610ca3868686865f610553565b33610cf25f8051602061290a8339815191525490565b6001600160a01b031614610d19576040516330cd747160e01b815260040160405180910390fd5b6001600160a01b038116610d4057604051633649397d60e21b815260040160405180910390fd5b6040516001600160a01b038216907fd9be0e8e07417e00f2521db636cb53e316fd288f5051f16d2aa2bf0c3938a876905f90a25f8051602061292a83398151915255565b5f610d9a5f8051602061292a8339815191525490565b90506001600160a01b0381163314610dc5576040516349e27cff60e01b815260040160405180910390fd5b610dce81611c15565b50565b5f80610ddd8484610f23565b9050610de881611860565b949350505050565b335f610dfc8686611299565b90505f610e5e6040518060600160405280856001600160a01b0316815260200184815260200187878080601f0160208091040260200160405190810160405280939291908181526020018383808284375f920191909152505050915250611c90565b90507fd4f5c43117c663161acfe6af3208a49856d85e586baf0f60749de2055e0014655f015f8281526020019081526020015f205f905581876001600160a01b0316846001600160a01b03167f45aa4b37a2bdfa1ab8962f148a8e9cdf22eda891c46dbdea19295cd85c10b1128888604051610edb9291906126c3565b60405180910390a450505050505050565b5f8515610f0c57604051630280e1e560e61b815260040160405180910390fd5b610f1885858585611270565b979650505050505050565b604080517f5498bf1696259c19f826e687122ca9404f85fe476a9e186af31eb6a53bf123dc60208201527f0000000000000000000000000000000000000000000000000000000000000000918101919091526001600160a01b0383166060820152608081018290525f9060a001610b8f565b307f00000000000000000000000000000000000000000000000000000000000000006001600160a01b031603610fde57604051635f886e9d60e11b815260040160405180910390fd5b5050565b33610ff85f8051602061290a8339815191525490565b6001600160a01b03161461101f576040516330cd747160e01b815260040160405180910390fd5b7f360894a13ba1a3210667c828492db98dca3e2076cc3735a920a3ca505d382bbc546001600160a01b0316638291286c6040518163ffffffff1660e01b8152600401602060405180830381865afa15801561107c573d5f803e3d5ffd5b505050506040513d601f19601f820116820180604052508101906110a09190612691565b846001600160a01b0316638291286c6040518163ffffffff1660e01b8152600401602060405180830381865afa1580156110dc573d5f803e3d5ffd5b505050506040513d601f19601f820116820180604052508101906111009190612691565b1461111e5760405163340aafcd60e11b815260040160405180910390fd5b836001600160a01b03163f8314611148576040516323e13ec960e21b815260040160405180910390fd5b7f360894a13ba1a3210667c828492db98dca3e2076cc3735a920a3ca505d382bbc8490556040516001600160a01b038516907fbc7cd75a20ee27fd9adebab32041f755214dbc6bffa90cc0225b39da2e5c2d3b905f90a2801561126a575f846001600160a01b0316639ded06df60e01b84846040516024016111cb9291906126c3565b60408051601f198184030181529181526020820180516001600160e01b03166001600160e01b031990941693909317909252905161120991906126d6565b5f60405180830381855af49150503d805f8114611241576040519150601f19603f3d011682016040523d82523d5f602084013e611246565b606091505b5050905080611268576040516397905dfb60e01b815260040160405180910390fd5b505b50505050565b60408051602081019091525f808252908161128a87610a9d565b9050610f188187878588611aea565b5f80610ddd8484610b21565b5f806112b083610a9d565b60408051602081019091525f81529091506112ca84611cc4565b5050604051637a4e022560e11b81526001600160a01b037f000000000000000000000000000000000000000000000000000000000000000016915063f49c044a90611320908590889060029087906004016126f1565b6020604051808303815f875af115801561133c573d5f803e3d5ffd5b505050506040513d601f19601f82011682018060405250810190610de89190612691565b6060816001600160401b0381111561137a5761137a6120d0565b6040519080825280602002602001820160405280156113ad57816020015b60608152602001906001900390816113985790505b5090505f60605f5b8481101561148757308686838181106113d0576113d061272f565b90506020028101906113e29190612743565b6040516113f0929190612785565b5f60405180830381855af49150503d805f8114611428576040519150601f19603f3d011682016040523d82523d5f602084013e61142d565b606091505b509093509150826114615781515f03611459576040516309ad446560e31b815260040160405180910390fd5b815182602001fd5b818482815181106114745761147461272f565b60209081029190910101526001016113b5565b50505092915050565b5f8061149b83610a9d565b90506114a681611860565b9392505050565b5f806114b93387610f23565b60408051602081019091525f81529091506001600160a01b038416156114ee576114eb846001600160a01b0316611797565b90505b604051637a4e022560e11b81526001600160a01b037f0000000000000000000000000000000000000000000000000000000000000000169063f49c044a906115409085908a908a9087906004016126f1565b6020604051808303815f875af115801561155c573d5f803e3d5ffd5b505050506040513d601f19601f82011682018060405250810190610f189190612691565b335f61158c8888611299565b905061159881836118f6565b60405163477aedc760e01b81526001600160a01b037f0000000000000000000000000000000000000000000000000000000000000000169063477aedc7906115e690899089906004016126c3565b5f60405180830381865afa158015611600573d5f803e3d5ffd5b505050506040513d5f823e601f3d908101601f191682016040526116279190810190612794565b515f0361164757604051630470832760e11b815260040160405180910390fd5b5f6116a76040518060600160405280856001600160a01b0316815260200184815260200189898080601f0160208091040260200160405190810160405280939291908181526020018383808284375f920191909152505050915250611c90565b905084846040516116b9929190612785565b60405180910390206116e87fd4f5c43117c663161acfe6af3208a49856d85e586baf0f60749de2055e00146590565b5f015f8381526020019081526020015f208190555081896001600160a01b0316846001600160a01b03167fa8c6a99761ac63f2758a4683a64d2be54964d5d74b9d296b6563a5b4c0d23fce8a8a8a8a60405161174794939291906127fc565b60405180910390a4505050505050505050565b336117705f8051602061290a8339815191525490565b6001600160a01b031614610dc5576040516330cd747160e01b815260040160405180910390fd5b6040805160148082528183019092526060916020820181803683375050506014808201939093529182525090565b5f7f00000000000000000000000000000000000000000000000000000000000000006001600160a01b031663e1d40c77838a8a8a8a8a8a8a6040518963ffffffff1660e01b815260040161181f9796959493929190612822565b60206040518083038185885af115801561183b573d5f803e3d5ffd5b50505050506040513d601f19601f82011682018060405250810190610ca39190612691565b60405163a5269ef160e01b81525f6004820181905260248201839052907f00000000000000000000000000000000000000000000000000000000000000006001600160a01b03169063a5269ef190604401602060405180830381865afa1580156118cc573d5f803e3d5ffd5b505050506040513d601f19601f820116820180604052508101906118f09190612691565b92915050565b60405163b90d6afd60e01b8152600481018390525f907f00000000000000000000000000000000000000000000000000000000000000006001600160a01b03169063b90d6afd90602401602060405180830381865afa15801561195b573d5f803e3d5ffd5b505050506040513d601f19601f8201168201806040525081019061197f91906126a8565b6040516355138f0d60e11b81526001600160a01b0384811660048301529192509082169063aa271e1a90602401602060405180830381865afa1580156119c7573d5f803e3d5ffd5b505050506040513d601f19601f820116820180604052508101906119eb9190612892565b611a1357604051631b0e18f960e11b81526001600160a01b03831660048201526024016106ec565b7f00000000000000000000000000000000000000000000000000000000000000006001600160a01b0316826001600160a01b031603611a6f5760405162f78d2360e81b81526001600160a01b03831660048201526024016106ec565b505050565b5f611a7e83611c90565b82516020808501919091205f8381527fd4f5c43117c663161acfe6af3208a49856d85e586baf0f60749de2055e001465928390526040902054929350909114611ada57604051634e9f6b5760e01b815260040160405180910390fd5b5f91825260205260408120555050565b5f80611af587611860565b60405163b90d6afd60e01b8152600481018290529091505f906001600160a01b037f0000000000000000000000000000000000000000000000000000000000000000169063b90d6afd90602401602060405180830381865afa158015611b5d573d5f803e3d5ffd5b505050506040513d601f19601f82011682018060405250810190611b8191906126a8565b90505f805f611b8f84611cc4565b925092509250611bdb8b8b8b8080601f0160208091040260200160405190810160405280939291908181526020018383808284375f920191909152508892508791508690508d8d6117c5565b9550848614611c0757604051633a8142a160e11b815260048101879052602481018690526044016106ec565b505050505095945050505050565b6001600160a01b038116611c3c57604051633649397d60e21b815260040160405180910390fd5b6040516001600160a01b038216907f04dba622d284ed0014ee4b9a6a68386be1a4c08a4913ae272de89199cc686163905f90a25f8051602061290a833981519152555f5f8051602061292a83398151915255565b5f7ff1302cc23b373b441b50010257156be4e920e78f3dc60bf8cd05c64367827f6082604051602001610b049291906128b1565b6060805f80849050806001600160a01b03166306fdde036040518163ffffffff1660e01b81526004015f60405180830381865afa925050508015611d2957506040513d5f823e601f3d908101601f19168201604052611d269190810190612794565b60015b611d5057604051629fd8a560e11b81526001600160a01b03861660048201526024016106ec565b9350806001600160a01b03166395d89b416040518163ffffffff1660e01b81526004015f60405180830381865afa925050508015611daf57506040513d5f823e601f3d908101601f19168201604052611dac9190810190612794565b60015b611dd657604051629fd8a560e11b81526001600160a01b03861660048201526024016106ec565b9250806001600160a01b031663313ce5676040518163ffffffff1660e01b8152600401602060405180830381865afa925050508015611e32575060408051601f3d908101601f19168201909252611e2f918101906128ee565b60015b611e5957604051629fd8a560e11b81526001600160a01b03861660048201526024016106ec565b93959294505050565b5f8083601f840112611e72575f80fd5b5081356001600160401b03811115611e88575f80fd5b602083019150836020828501011115611e9f575f80fd5b9250929050565b5f805f8060608587031215611eb9575f80fd5b8435935060208501356001600160401b03811115611ed5575f80fd5b611ee187828801611e62565b9598909750949560400135949350505050565b803560058110611f02575f80fd5b919050565b5f805f805f805f805f60c08a8c031215611f1f575f80fd5b8935985060208a01356001600160401b03811115611f3b575f80fd5b611f478c828d01611e62565b90995097505060408a01356001600160401b03811115611f65575f80fd5b611f718c828d01611e62565b9097509550611f84905060608b01611ef4565b935060808a01356001600160401b03811115611f9e575f80fd5b611faa8c828d01611e62565b9a9d999c50979a9699959894979660a00135949350505050565b60ff81168114610dce575f80fd5b6001600160a01b0381168114610dce575f80fd5b5f805f805f805f8060c0898b031215611ffd575f80fd5b8835975060208901356001600160401b03811115612019575f80fd5b6120258b828c01611e62565b90985096505060408901356001600160401b03811115612043575f80fd5b61204f8b828c01611e62565b909650945050606089013561206381611fc4565b92506080890135915060a089013561207a81611fd2565b809150509295985092959890939650565b5f6020828403121561209b575f80fd5b81356114a681611fd2565b5f80604083850312156120b7575f80fd5b82356120c281611fd2565b946020939093013593505050565b634e487b7160e01b5f52604160045260245ffd5b604051601f8201601f191681016001600160401b038111828210171561210c5761210c6120d0565b604052919050565b5f6001600160401b0382111561212c5761212c6120d0565b50601f01601f191660200190565b5f805f805f8060a0878903121561214f575f80fd5b86359550602087013561216181611fd2565b945060408701356001600160401b0381111561217b575f80fd5b61218789828a01611e62565b90955093505060608701356001600160401b038111156121a5575f80fd5b8701601f810189136121b5575f80fd5b80356121c86121c382612114565b6120e4565b8181528a60208385010111156121dc575f80fd5b816020840160208301375f91810160200191909152969995985093969295946080939093013593505050565b5f805f805f805f60a0888a03121561221e575f80fd5b87356001600160401b03811115612233575f80fd5b61223f8a828b01611e62565b90985096505060208801359450604088013561225a81611fd2565b935060608801356001600160401b03811115612274575f80fd5b6122808a828b01611e62565b989b979a50959894979596608090950135949350505050565b5f805f80606085870312156122ac575f80fd5b84356122b781611fd2565b93506020850135925060408501356001600160401b038111156122d8575f80fd5b6122e487828801611e62565b95989497509550505050565b5f805f805f8060808789031215612305575f80fd5b86356001600160401b0381111561231a575f80fd5b61232689828a01611e62565b909750955050602087013561233a81611fd2565b935060408701356001600160401b03811115612354575f80fd5b61236089828a01611e62565b979a9699509497949695606090950135949350505050565b5f8060208385031215612389575f80fd5b82356001600160401b0381111561239e575f80fd5b6123aa85828601611e62565b90969095509350505050565b5f805f80606085870312156123c9575f80fd5b84356123d481611fd2565b935060208501356001600160401b03811115611ed5575f80fd5b5f80602083850312156123ff575f80fd5b82356001600160401b03811115612414575f80fd5b8301601f81018513612424575f80fd5b80356001600160401b03811115612439575f80fd5b8560208260051b840101111561244d575f80fd5b6020919091019590945092505050565b5f5b8381101561247757818101518382015260200161245f565b50505f910152565b5f815180845261249681602086016020860161245d565b601f01601f19169290920160200192915050565b5f602082016020835280845180835260408501915060408160051b8601019250602086015f5b8281101561250157603f198786030184526124ec85835161247f565b945060209384019391909101906001016124d0565b50929695505050505050565b5f805f8060808587031215612520575f80fd5b84359350602085013561253281611fd2565b925061254060408601611ef4565b9150606085013561255081611fd2565b939692955090935050565b5f805f805f8060808789031215612570575f80fd5b863561257b81611fd2565b95506020870135945060408701356001600160401b0381111561259c575f80fd5b6125a889828a01611e62565b90955093505060608701356001600160401b038111156125c6575f80fd5b6125d289828a01611e62565b979a9699509497509295939492505050565b81835281816020850137505f828201602090810191909152601f909101601f19169091010190565b6005811061262857634e487b7160e01b5f52602160045260245ffd5b9052565b89815260c060208201525f61264560c083018a8c6125e4565b828103604084015261265881898b6125e4565b9050612667606084018861260c565b828103608084015261267a8186886125e4565b9150508260a08301529a9950505050505050505050565b5f602082840312156126a1575f80fd5b5051919050565b5f602082840312156126b8575f80fd5b81516114a681611fd2565b602081525f610de86020830184866125e4565b5f82516126e781846020870161245d565b9190910192915050565b8481526001600160a01b0384166020820152612710604082018461260c565b608060608201525f612725608083018461247f565b9695505050505050565b634e487b7160e01b5f52603260045260245ffd5b5f808335601e19843603018112612758575f80fd5b8301803591506001600160401b03821115612771575f80fd5b602001915036819003821315611e9f575f80fd5b818382375f9101908152919050565b5f602082840312156127a4575f80fd5b81516001600160401b038111156127b9575f80fd5b8201601f810184136127c9575f80fd5b80516127d76121c382612114565b8181528560208385010111156127eb575f80fd5b61058482602083016020860161245d565b604081525f61280f6040830186886125e4565b8281036020840152610f188185876125e4565b87815260e060208201525f61283a60e083018961247f565b828103604084015261284c818961247f565b90508281036060840152612860818861247f565b905060ff8616608084015282810360a084015261287d818661247f565b9150508260c083015298975050505050505050565b5f602082840312156128a2575f80fd5b815180151581146114a6575f80fd5b8281526040602082015260018060a01b038251166040820152602082015160608201525f60408301516060608084015261058460a084018261247f565b5f602082840312156128fe575f80fd5b81516114a681611fc456fe02016836a56b71f0d02689e69e326f4f4c1b9057164ef592671cf0d37c8040c09855384122b55936fbfb8ca5120e63c6537a1ac40caf6ae33502b3c5da8c87d1a164736f6c634300081a000a",
    "linkReferences": {}
  },
  "methodIdentifiers": {
    "acceptOwnership()": "79ba5097",
    "approveDeployRemoteInterchainToken(address,bytes32,string,bytes)": "e8a1d6f6",
    "canonicalInterchainTokenDeploySalt(address)": "41562106",
    "canonicalInterchainTokenId(address)": "b2292888",
    "chainNameHash()": "864a0dcf",
    "contractId()": "8291286c",
    "deployInterchainToken(bytes32,string,string,uint8,uint256,address)": "3e12f8c5",
    "deployRemoteCanonicalInterchainToken(address,string,uint256)": "a37fcf4e",
    "deployRemoteCanonicalInterchainToken(string,address,string,uint256)": "993a5b9e",
    "deployRemoteInterchainToken(bytes32,string,uint256)": "010987dc",
    "deployRemoteInterchainToken(string,bytes32,address,string,uint256)": "5d79c00e",
    "deployRemoteInterchainTokenWithMinter(bytes32,address,string,bytes,uint256)": "4987e2c2",
    "implementation()": "5c60da1b",
    "interchainTokenDeploySalt(address,bytes32)": "43b0f3d3",
    "interchainTokenId(address,bytes32)": "a5269ef1",
    "interchainTokenService()": "09c6bed9",
    "linkToken(bytes32,string,bytes,uint8,bytes,uint256)": "0f4433d3",
    "linkedTokenDeploySalt(address,bytes32)": "9d6d57b3",
    "linkedTokenId(address,bytes32)": "7c2def17",
    "multicall(bytes[])": "ac9650d8",
    "owner()": "8da5cb5b",
    "pendingOwner()": "e30c3978",
    "proposeOwnership(address)": "710bf322",
    "registerCanonicalInterchainToken(address)": "a75483d1",
    "registerCustomToken(bytes32,address,uint8,address)": "d8c03268",
    "revokeDeployRemoteInterchainToken(address,bytes32,string)": "848f7b63",
    "setup(bytes)": "9ded06df",
    "transferOwnership(address)": "f2fde38b",
    "upgrade(address,bytes32,bytes)": "a3499c73"
  },
  "id": 65
}