{
  "abi": [
    {
      "type": "constructor",
      "inputs": [
        {
          "name": "implementationAddress",
          "type": "address",
          "internalType": "address"
        },
        {
          "name": "owner",
          "type": "address",
          "internalType": "address"
        },
        {
          "name": "setupParams",
          "type": "bytes",
          "internalType": "bytes"
        }
      ],
      "stateMutability": "nonpayable"
    },
    {
      "type": "fallback",
      "stateMutability": "payable"
    },
    {
      "type": "receive",
      "stateMutability": "payable"
    },
    {
      "type": "function",
      "name": "implementation",
      "inputs": [],
      "outputs": [
        {
          "name": "implementation_",
          "type": "address",
          "internalType": "address"
        }
      ],
      "stateMutability": "view"
    },
    {
      "type": "function",
      "name": "setup",
      "inputs": [
        {
          "name": "params",
          "type": "bytes",
          "internalType": "bytes"
        }
      ],
      "outputs": [],
      "stateMutability": "nonpayable"
    },
    {
      "type": "error",
      "name": "AlreadyInitialized",
      "inputs": []
    },
    {
      "type": "error",
      "name": "InvalidImplementation",
      "inputs": []
    },
    {
      "type": "error",
      "name": "InvalidOwner",
      "inputs": []
    },
    {
      "type": "error",
      "name": "NotOwner",
      "inputs": []
    },
    {
      "type": "error",
      "name": "SetupFailed",
      "inputs": []
    }
  ],
  "bytecode": {
    "object": "0x608060405234801561000f575f80fd5b5060405161045238038061045283398101604081905261002e916101c7565b8282826001600160a01b038216610058576040516349e27cff60e01b815260040160405180910390fd5b5f837f360894a13ba1a3210667c828492db98dca3e2076cc3735a920a3ca505d382bbc55827f02016836a56b71f0d02689e69e326f4f4c1b9057164ef592671cf0d37c8040c05581515f1461016a575f846001600160a01b0316639ded06df60e01b846040516024016100cb9190610297565b60408051601f198184030181529181526020820180516001600160e01b03166001600160e01b031990941693909317909252905161010991906102c9565b5f60405180830381855af49150503d805f8114610141576040519150601f19603f3d011682016040523d82523d5f602084013e610146565b606091505b5050905080610168576040516397905dfb60e01b815260040160405180910390fd5b505b505050505050506102e4565b80516001600160a01b038116811461018c575f80fd5b919050565b634e487b7160e01b5f52604160045260245ffd5b5f5b838110156101bf5781810151838201526020016101a7565b50505f910152565b5f805f606084860312156101d9575f80fd5b6101e284610176565b92506101f060208501610176565b60408501519092506001600160401b0381111561020b575f80fd5b8401601f8101861361021b575f80fd5b80516001600160401b0381111561023457610234610191565b604051601f8201601f19908116603f011681016001600160401b038111828210171561026257610262610191565b604052818152828201602001881015610279575f80fd5b61028a8260208301602086016101a5565b8093505050509250925092565b602081525f82518060208401526102b58160408501602087016101a5565b601f01601f19169190910160400192915050565b5f82516102da8184602087016101a5565b9190910192915050565b610161806102f15f395ff3fe60806040526004361061002c575f3560e01c80635c60da1b1461007e5780639ded06df146100c857610033565b3661003357005b5f61005c7f360894a13ba1a3210667c828492db98dca3e2076cc3735a920a3ca505d382bbc5490565b9050365f80375f80365f845af43d5f803e808015610078573d5ff35b3d5ffd5b005b348015610089575f80fd5b507f360894a13ba1a3210667c828492db98dca3e2076cc3735a920a3ca505d382bbc546040516001600160a01b03909116815260200160405180910390f35b3480156100d3575f80fd5b5061007c6100e23660046100e6565b5050565b5f80602083850312156100f7575f80fd5b823567ffffffffffffffff81111561010d575f80fd5b8301601f8101851361011d575f80fd5b803567ffffffffffffffff811115610133575f80fd5b856020828401011115610144575f80fd5b602091909101959094509250505056fea164736f6c634300081a000a",
    "linkReferences": {}
  },
  "methodIdentifiers": {
    "implementation()": "5c60da1b",
    "setup(bytes)": "9ded06df"
  },
  "id": 95
}