{"abi":[{"type":"constructor","inputs":[{"name":"originTEL_","type":"address","internalType":"address"},{"name":"originLinker_","type":"address","internalType":"address"},{"name":"originSalt_","type":"bytes32","internalType":"bytes32"},{"name":"originChainName_","type":"string","internalType":"string"},{"name":"interchainTokenService_","type":"address","internalType":"address"},{"name":"name_","type":"string","internalType":"string"},{"name":"symbol_","type":"string","internalType":"string"},{"name":"recoverableWindow_","type":"uint256","internalType":"uint256"},{"name":"governanceAddress_","type":"address","internalType":"address"},{"name":"baseERC20_","type":"address","internalType":"address"},{"name":"maxToClean","type":"uint16","internalType":"uint16"}],"stateMutability":"nonpayable"},{"type":"receive","stateMutability":"payable"},{"type":"function","name":"DECIMALS_CONVERTER","inputs":[],"outputs":[{"name":"","type":"uint256","internalType":"uint256"}],"stateMutability":"view"},{"type":"function","name":"SYSTEM_ADDRESS","inputs":[],"outputs":[{"name":"","type":"address","internalType":"address"}],"stateMutability":"view"},{"type":"function","name":"UPGRADE_INTERFACE_VERSION","inputs":[],"outputs":[{"name":"","type":"string","internalType":"string"}],"stateMutability":"view"},{"type":"function","name":"allowance","inputs":[{"name":"owner","type":"address","internalType":"address"},{"name":"spender","type":"address","internalType":"address"}],"outputs":[{"name":"","type":"uint256","internalType":"uint256"}],"stateMutability":"view"},{"type":"function","name":"approve","inputs":[{"name":"spender","type":"address","internalType":"address"},{"name":"amount","type":"uint256","internalType":"uint256"}],"outputs":[{"name":"","type":"bool","internalType":"bool"}],"stateMutability":"nonpayable"},{"type":"function","name":"balanceOf","inputs":[{"name":"account","type":"address","internalType":"address"}],"outputs":[{"name":"","type":"uint256","internalType":"uint256"}],"stateMutability":"view"},{"type":"function","name":"balanceOf","inputs":[{"name":"account","type":"address","internalType":"address"},{"name":"includeUnsettled","type":"bool","internalType":"bool"}],"outputs":[{"name":"","type":"uint256","internalType":"uint256"}],"stateMutability":"view"},{"type":"function","name":"baseToken","inputs":[],"outputs":[{"name":"","type":"address","internalType":"address"}],"stateMutability":"view"},{"type":"function","name":"burn","inputs":[{"name":"from","type":"address","internalType":"address"},{"name":"nativeAmount","type":"uint256","internalType":"uint256"}],"outputs":[{"name":"","type":"uint256","internalType":"uint256"}],"stateMutability":"nonpayable"},{"type":"function","name":"cancelOwnershipHandover","inputs":[],"outputs":[],"stateMutability":"payable"},{"type":"function","name":"closeCase","inputs":[{"name":"recover","type":"bool","internalType":"bool"},{"name":"victim","type":"address","internalType":"address"},{"name":"freezes","type":"tuple[]","internalType":"struct Suspension[]","components":[{"name":"account","type":"address","internalType":"address"},{"name":"rawIndex","type":"uint256","internalType":"uint256"},{"name":"amount","type":"uint128","internalType":"uint128"}]}],"outputs":[{"name":"","type":"bool","internalType":"bool"}],"stateMutability":"nonpayable"},{"type":"function","name":"completeOwnershipHandover","inputs":[{"name":"pendingOwner","type":"address","internalType":"address"}],"outputs":[],"stateMutability":"payable"},{"type":"function","name":"decimals","inputs":[],"outputs":[{"name":"","type":"uint8","internalType":"uint8"}],"stateMutability":"view"},{"type":"function","name":"decreaseAllowance","inputs":[{"name":"spender","type":"address","internalType":"address"},{"name":"subtractedValue","type":"uint256","internalType":"uint256"}],"outputs":[{"name":"","type":"bool","internalType":"bool"}],"stateMutability":"nonpayable"},{"type":"function","name":"disableUnwrap","inputs":[],"outputs":[],"stateMutability":"nonpayable"},{"type":"function","name":"distributeStakeReward","inputs":[{"name":"validator","type":"address","internalType":"address"},{"name":"rewardAmount","type":"uint256","internalType":"uint256"}],"outputs":[],"stateMutability":"payable"},{"type":"function","name":"doubleWrap","inputs":[],"outputs":[],"stateMutability":"payable"},{"type":"function","name":"freeze","inputs":[{"name":"freezes","type":"tuple[]","internalType":"struct Suspension[]","components":[{"name":"account","type":"address","internalType":"address"},{"name":"rawIndex","type":"uint256","internalType":"uint256"},{"name":"amount","type":"uint128","internalType":"uint128"}]}],"outputs":[{"name":"","type":"bool","internalType":"bool"}],"stateMutability":"nonpayable"},{"type":"function","name":"frozen","inputs":[{"name":"","type":"address","internalType":"address"}],"outputs":[{"name":"","type":"uint256","internalType":"uint256"}],"stateMutability":"view"},{"type":"function","name":"governanceAddress","inputs":[],"outputs":[{"name":"","type":"address","internalType":"address"}],"stateMutability":"view"},{"type":"function","name":"increaseAllowance","inputs":[{"name":"spender","type":"address","internalType":"address"},{"name":"addedValue","type":"uint256","internalType":"uint256"}],"outputs":[{"name":"","type":"bool","internalType":"bool"}],"stateMutability":"nonpayable"},{"type":"function","name":"initialize","inputs":[{"name":"governanceAddress_","type":"address","internalType":"address"},{"name":"maxToClean_","type":"uint16","internalType":"uint16"},{"name":"owner_","type":"address","internalType":"address"}],"outputs":[],"stateMutability":"nonpayable"},{"type":"function","name":"interchainTokenId","inputs":[],"outputs":[{"name":"","type":"bytes32","internalType":"bytes32"}],"stateMutability":"view"},{"type":"function","name":"interchainTokenService","inputs":[],"outputs":[{"name":"","type":"address","internalType":"address"}],"stateMutability":"view"},{"type":"function","name":"interchainTransfer","inputs":[{"name":"destinationChain","type":"string","internalType":"string"},{"name":"recipient","type":"bytes","internalType":"bytes"},{"name":"amount","type":"uint256","internalType":"uint256"},{"name":"metadata","type":"bytes","internalType":"bytes"}],"outputs":[],"stateMutability":"payable"},{"type":"function","name":"interchainTransferFrom","inputs":[{"name":"sender","type":"address","internalType":"address"},{"name":"destinationChain","type":"string","internalType":"string"},{"name":"recipient","type":"bytes","internalType":"bytes"},{"name":"amount","type":"uint256","internalType":"uint256"},{"name":"metadata","type":"bytes","internalType":"bytes"}],"outputs":[],"stateMutability":"payable"},{"type":"function","name":"isMinter","inputs":[{"name":"addr","type":"address","internalType":"address"}],"outputs":[{"name":"","type":"bool","internalType":"bool"}],"stateMutability":"view"},{"type":"function","name":"linkedTokenDeploySalt","inputs":[],"outputs":[{"name":"","type":"bytes32","internalType":"bytes32"}],"stateMutability":"view"},{"type":"function","name":"mint","inputs":[{"name":"to","type":"address","internalType":"address"},{"name":"interchainAmount","type":"uint256","internalType":"uint256"}],"outputs":[{"name":"","type":"uint256","internalType":"uint256"}],"stateMutability":"nonpayable"},{"type":"function","name":"name","inputs":[],"outputs":[{"name":"","type":"string","internalType":"string"}],"stateMutability":"view"},{"type":"function","name":"nonce","inputs":[{"name":"account","type":"address","internalType":"address"}],"outputs":[{"name":"","type":"uint128","internalType":"uint128"}],"stateMutability":"view"},{"type":"function","name":"owner","inputs":[],"outputs":[{"name":"result","type":"address","internalType":"address"}],"stateMutability":"view"},{"type":"function","name":"ownershipHandoverExpiresAt","inputs":[{"name":"pendingOwner","type":"address","internalType":"address"}],"outputs":[{"name":"result","type":"uint256","internalType":"uint256"}],"stateMutability":"view"},{"type":"function","name":"pause","inputs":[],"outputs":[],"stateMutability":"nonpayable"},{"type":"function","name":"paused","inputs":[],"outputs":[{"name":"","type":"bool","internalType":"bool"}],"stateMutability":"view"},{"type":"function","name":"permitWrap","inputs":[{"name":"owner","type":"address","internalType":"address"},{"name":"amount","type":"uint256","internalType":"uint256"},{"name":"deadline","type":"uint256","internalType":"uint256"},{"name":"v","type":"uint8","internalType":"uint8"},{"name":"r","type":"bytes32","internalType":"bytes32"},{"name":"s","type":"bytes32","internalType":"bytes32"}],"outputs":[],"stateMutability":"payable"},{"type":"function","name":"proxiableUUID","inputs":[],"outputs":[{"name":"","type":"bytes32","internalType":"bytes32"}],"stateMutability":"view"},{"type":"function","name":"recoverableWindow","inputs":[],"outputs":[{"name":"","type":"uint256","internalType":"uint256"}],"stateMutability":"view"},{"type":"function","name":"renounceOwnership","inputs":[],"outputs":[],"stateMutability":"payable"},{"type":"function","name":"requestOwnershipHandover","inputs":[],"outputs":[],"stateMutability":"payable"},{"type":"function","name":"setGovernanceAddress","inputs":[{"name":"newGovernanceAddress","type":"address","internalType":"address"}],"outputs":[],"stateMutability":"nonpayable"},{"type":"function","name":"setMaxToClean","inputs":[{"name":"newMaxToClean","type":"uint16","internalType":"uint16"}],"outputs":[],"stateMutability":"nonpayable"},{"type":"function","name":"spendableBalanceOf","inputs":[{"name":"account","type":"address","internalType":"address"},{"name":"includeUnsettled","type":"bool","internalType":"bool"}],"outputs":[{"name":"","type":"uint256","internalType":"uint256"}],"stateMutability":"view"},{"type":"function","name":"stakeManager","inputs":[],"outputs":[{"name":"","type":"address","internalType":"address"}],"stateMutability":"view"},{"type":"function","name":"symbol","inputs":[],"outputs":[{"name":"","type":"string","internalType":"string"}],"stateMutability":"view"},{"type":"function","name":"toEighteenDecimals","inputs":[{"name":"interchainAmount","type":"uint256","internalType":"uint256"}],"outputs":[{"name":"","type":"uint256","internalType":"uint256"}],"stateMutability":"pure"},{"type":"function","name":"toTwoDecimals","inputs":[{"name":"nativeAmount","type":"uint256","internalType":"uint256"}],"outputs":[{"name":"","type":"uint256","internalType":"uint256"},{"name":"","type":"uint256","internalType":"uint256"}],"stateMutability":"pure"},{"type":"function","name":"tokenManager","inputs":[],"outputs":[{"name":"","type":"address","internalType":"address"}],"stateMutability":"view"},{"type":"function","name":"tokenManagerAddress","inputs":[],"outputs":[{"name":"","type":"address","internalType":"address"}],"stateMutability":"view"},{"type":"function","name":"tokenManagerCreate3Salt","inputs":[],"outputs":[{"name":"","type":"bytes32","internalType":"bytes32"}],"stateMutability":"view"},{"type":"function","name":"totalSupply","inputs":[],"outputs":[{"name":"","type":"uint256","internalType":"uint256"}],"stateMutability":"view"},{"type":"function","name":"transfer","inputs":[{"name":"to","type":"address","internalType":"address"},{"name":"value","type":"uint256","internalType":"uint256"}],"outputs":[{"name":"","type":"bool","internalType":"bool"}],"stateMutability":"nonpayable"},{"type":"function","name":"transfer","inputs":[{"name":"to","type":"address","internalType":"address"},{"name":"amount","type":"uint256","internalType":"uint256"},{"name":"includeUnsettled","type":"bool","internalType":"bool"}],"outputs":[{"name":"","type":"bool","internalType":"bool"}],"stateMutability":"nonpayable"},{"type":"function","name":"transferFrom","inputs":[{"name":"from","type":"address","internalType":"address"},{"name":"to","type":"address","internalType":"address"},{"name":"value","type":"uint256","internalType":"uint256"}],"outputs":[{"name":"","type":"bool","internalType":"bool"}],"stateMutability":"nonpayable"},{"type":"function","name":"transferFrom","inputs":[{"name":"from","type":"address","internalType":"address"},{"name":"to","type":"address","internalType":"address"},{"name":"value","type":"uint256","internalType":"uint256"},{"name":"includeUnsettled","type":"bool","internalType":"bool"}],"outputs":[{"name":"","type":"bool","internalType":"bool"}],"stateMutability":"nonpayable"},{"type":"function","name":"transferOwnership","inputs":[{"name":"newOwner","type":"address","internalType":"address"}],"outputs":[],"stateMutability":"payable"},{"type":"function","name":"unpause","inputs":[],"outputs":[],"stateMutability":"nonpayable"},{"type":"function","name":"unsettledRecords","inputs":[{"name":"account","type":"address","internalType":"address"}],"outputs":[{"name":"","type":"tuple[]","internalType":"struct Record[]","components":[{"name":"amount","type":"uint128","internalType":"uint128"},{"name":"settlementTime","type":"uint256","internalType":"uint256"},{"name":"frozen","type":"uint128","internalType":"uint128"},{"name":"prev","type":"uint256","internalType":"uint256"},{"name":"next","type":"uint256","internalType":"uint256"}]}],"stateMutability":"view"},{"type":"function","name":"unwrap","inputs":[{"name":"amount","type":"uint256","internalType":"uint256"}],"outputs":[],"stateMutability":"nonpayable"},{"type":"function","name":"unwrapDisabled","inputs":[{"name":"","type":"address","internalType":"address"}],"outputs":[{"name":"","type":"bool","internalType":"bool"}],"stateMutability":"view"},{"type":"function","name":"unwrapTo","inputs":[{"name":"to","type":"address","internalType":"address"},{"name":"amount","type":"uint256","internalType":"uint256"}],"outputs":[],"stateMutability":"nonpayable"},{"type":"function","name":"upgradeToAndCall","inputs":[{"name":"newImplementation","type":"address","internalType":"address"},{"name":"data","type":"bytes","internalType":"bytes"}],"outputs":[],"stateMutability":"payable"},{"type":"function","name":"wrap","inputs":[{"name":"amount","type":"uint256","internalType":"uint256"}],"outputs":[],"stateMutability":"nonpayable"},{"type":"event","name":"Approval","inputs":[{"name":"owner","type":"address","indexed":true,"internalType":"address"},{"name":"spender","type":"address","indexed":true,"internalType":"address"},{"name":"value","type":"uint256","indexed":false,"internalType":"uint256"}],"anonymous":false},{"type":"event","name":"CaseClosed","inputs":[{"name":"recover","type":"bool","indexed":false,"internalType":"bool"},{"name":"victim","type":"address","indexed":true,"internalType":"address"},{"name":"suspensions","type":"tuple[]","indexed":false,"internalType":"struct Suspension[]","components":[{"name":"account","type":"address","internalType":"address"},{"name":"rawIndex","type":"uint256","internalType":"uint256"},{"name":"amount","type":"uint128","internalType":"uint128"}]}],"anonymous":false},{"type":"event","name":"Freeze","inputs":[{"name":"account","type":"address","indexed":true,"internalType":"address"},{"name":"amountFrozen","type":"uint256","indexed":false,"internalType":"uint256"},{"name":"rawIndex","type":"uint256","indexed":false,"internalType":"uint256"}],"anonymous":false},{"type":"event","name":"Initialized","inputs":[{"name":"version","type":"uint64","indexed":false,"internalType":"uint64"}],"anonymous":false},{"type":"event","name":"OwnershipHandoverCanceled","inputs":[{"name":"pendingOwner","type":"address","indexed":true,"internalType":"address"}],"anonymous":false},{"type":"event","name":"OwnershipHandoverRequested","inputs":[{"name":"pendingOwner","type":"address","indexed":true,"internalType":"address"}],"anonymous":false},{"type":"event","name":"OwnershipTransferred","inputs":[{"name":"oldOwner","type":"address","indexed":true,"internalType":"address"},{"name":"newOwner","type":"address","indexed":true,"internalType":"address"}],"anonymous":false},{"type":"event","name":"Paused","inputs":[{"name":"account","type":"address","indexed":false,"internalType":"address"}],"anonymous":false},{"type":"event","name":"RemainderTransferFailed","inputs":[{"name":"to","type":"address","indexed":true,"internalType":"address"},{"name":"amount","type":"uint256","indexed":false,"internalType":"uint256"}],"anonymous":false},{"type":"event","name":"Transfer","inputs":[{"name":"from","type":"address","indexed":true,"internalType":"address"},{"name":"to","type":"address","indexed":true,"internalType":"address"},{"name":"unsettledTransferred","type":"uint256","indexed":false,"internalType":"uint256"},{"name":"settledTransferred","type":"uint256","indexed":false,"internalType":"uint256"},{"name":"rawIndex","type":"uint256","indexed":false,"internalType":"uint256"}],"anonymous":false},{"type":"event","name":"Transfer","inputs":[{"name":"from","type":"address","indexed":true,"internalType":"address"},{"name":"to","type":"address","indexed":true,"internalType":"address"},{"name":"value","type":"uint256","indexed":false,"internalType":"uint256"}],"anonymous":false},{"type":"event","name":"Unpaused","inputs":[{"name":"account","type":"address","indexed":false,"internalType":"address"}],"anonymous":false},{"type":"event","name":"UnsettledRecordSpend","inputs":[{"name":"from","type":"address","indexed":true,"internalType":"address"},{"name":"fromIndexSpent","type":"uint256","indexed":false,"internalType":"uint256"},{"name":"amount","type":"uint256","indexed":false,"internalType":"uint256"}],"anonymous":false},{"type":"event","name":"Unwrap","inputs":[{"name":"src","type":"address","indexed":true,"internalType":"address"},{"name":"to","type":"address","indexed":true,"internalType":"address"},{"name":"amount","type":"uint256","indexed":false,"internalType":"uint256"}],"anonymous":false},{"type":"event","name":"UnwrapDisabled","inputs":[{"name":"account","type":"address","indexed":true,"internalType":"address"}],"anonymous":false},{"type":"event","name":"Upgraded","inputs":[{"name":"implementation","type":"address","indexed":true,"internalType":"address"}],"anonymous":false},{"type":"event","name":"Wrap","inputs":[{"name":"dst","type":"address","indexed":true,"internalType":"address"},{"name":"amount","type":"uint256","indexed":false,"internalType":"uint256"}],"anonymous":false},{"type":"error","name":"AddressEmptyCode","inputs":[{"name":"target","type":"address","internalType":"address"}]},{"type":"error","name":"AlreadyInitialized","inputs":[]},{"type":"error","name":"BurnFailed","inputs":[{"name":"from","type":"address","internalType":"address"},{"name":"amount","type":"uint256","internalType":"uint256"}]},{"type":"error","name":"CallerMustBeGovernance","inputs":[{"name":"caller","type":"address","internalType":"address"}]},{"type":"error","name":"ERC1967InvalidImplementation","inputs":[{"name":"implementation","type":"address","internalType":"address"}]},{"type":"error","name":"ERC1967NonPayable","inputs":[]},{"type":"error","name":"FailedCall","inputs":[]},{"type":"error","name":"InsufficientSpendableFunds","inputs":[{"name":"account","type":"address","internalType":"address"},{"name":"spendableFunds","type":"uint256","internalType":"uint256"},{"name":"attemptedAmount","type":"uint256","internalType":"uint256"},{"name":"unsettledIncluded","type":"bool","internalType":"bool"}]},{"type":"error","name":"InvalidAmount","inputs":[{"name":"nativeAmount","type":"uint256","internalType":"uint256"}]},{"type":"error","name":"InvalidInitialization","inputs":[]},{"type":"error","name":"MintFailed","inputs":[{"name":"to","type":"address","internalType":"address"},{"name":"amount","type":"uint256","internalType":"uint256"}]},{"type":"error","name":"NewOwnerIsZeroAddress","inputs":[]},{"type":"error","name":"NoHandoverRequest","inputs":[]},{"type":"error","name":"NotInitializing","inputs":[]},{"type":"error","name":"OnlyBaseToken","inputs":[{"name":"authority","type":"address","internalType":"address"}]},{"type":"error","name":"OnlyManager","inputs":[{"name":"authority","type":"address","internalType":"address"}]},{"type":"error","name":"OnlySystemCall","inputs":[{"name":"invalidCaller","type":"address","internalType":"address"}]},{"type":"error","name":"PermitWrapFailed","inputs":[{"name":"to","type":"address","internalType":"address"},{"name":"amount","type":"uint256","internalType":"uint256"}]},{"type":"error","name":"RecordAlreadySettled","inputs":[{"name":"account","type":"address","internalType":"address"},{"name":"rawIndex","type":"uint256","internalType":"uint256"}]},{"type":"error","name":"RecordNotFound","inputs":[{"name":"account","type":"address","internalType":"address"},{"name":"rawIndex","type":"uint256","internalType":"uint256"}]},{"type":"error","name":"RewardDistributionFailure","inputs":[{"name":"validator","type":"address","internalType":"address"}]},{"type":"error","name":"SelfTransferNotAllowed","inputs":[]},{"type":"error","name":"UUPSUnauthorizedCallContext","inputs":[]},{"type":"error","name":"UUPSUnsupportedProxiableUUID","inputs":[{"name":"slot","type":"bytes32","internalType":"bytes32"}]},{"type":"error","name":"Unauthorized","inputs":[]},{"type":"error","name":"UnwrapNotAllowed","inputs":[{"name":"account","type":"address","internalType":"address"}]},{"type":"error","name":"ZeroAddressNotAllowed","inputs":[]}],"bytecode":{"object":"0x6101c06040523060e052348015610014575f80fd5b50604051615c9f380380615c9f8339810160408190526100339161043a565b8585858585858585600361004783826105c6565b50600461005482826105c6565b50505060c093909352600a80546001600160a01b0392831660a05261ffff9094166080526001600160a81b031990931691161790555061009490506100e7565b6001600160a01b03808816610120528b8116610140528a1661016052610180899052875160208901206101a0526100c9610199565b6001600160a01b031661010052506106809950505050505050505050565b7ff0c57e16840df040f15088dc2f81fe391c3923bec73e23a9662efc9c229c6a00805468010000000000000000900460ff16156101375760405163f92ee8a960e01b815260040160405180910390fd5b80546001600160401b03908116146101965780546001600160401b0319166001600160401b0390811782556040519081527fc7f505b2f371ae2175ee4913f4499e1f2633a7b5936321eed1cdaeb6115181d29060200160405180910390a15b50565b5f806101a56101205190565b6101ad610280565b6040517fff00000000000000000000000000000000000000000000000000000000000000602082015260609290921b6001600160601b031916602183015260358201527fdb4bab1640a2602c9f66f33765d12be4af115accf74b24515702961e82a71327605582015260750160408051808303601f190181529082905280516020918201206135a560f21b918301919091526001600160601b0319606082901b166022830152600160f81b60368301529150603701604051602081830303815290604052805190602001205f1c91505090565b5f61028961028e565b905090565b5f7f980c3be34c7ee75cc250c76223092614e21653cdf2faece10ac24fcef821df10816102b9610300565b6040516020016102e5939291909283526001600160a01b03919091166020830152604082015260600190565b60405160208183030381529060405280519060200120905090565b6101a0516101605161018051604080517f5498bf1696259c19f826e687122ca9404f85fe476a9e186af31eb6a53bf123dc6020820152908101939093526001600160a01b03909116606083015260808201525f9060a0016102e5565b80516001600160a01b0381168114610372575f80fd5b919050565b634e487b7160e01b5f52604160045260245ffd5b5f82601f83011261039a575f80fd5b81516001600160401b038111156103b3576103b3610377565b604051601f8201601f19908116603f011681016001600160401b03811182821017156103e1576103e1610377565b6040528181528382016020018510156103f8575f80fd5b5f5b82811015610416576020818601810151838301820152016103fa565b505f918101602001919091529392505050565b805161ffff81168114610372575f80fd5b5f805f805f805f805f805f6101608c8e031215610455575f80fd5b61045e8c61035c565b9a5061046c60208d0161035c565b60408d015160608e0151919b5099506001600160401b0381111561048e575f80fd5b61049a8e828f0161038b565b9850506104a960808d0161035c565b60a08d01519097506001600160401b038111156104c4575f80fd5b6104d08e828f0161038b565b60c08e015190975090506001600160401b038111156104ed575f80fd5b6104f98e828f0161038b565b60e08e0151909650945061051290506101008d0161035c565b92506105216101208d0161035c565b91506105306101408d01610429565b90509295989b509295989b9093969950565b600181811c9082168061055657607f821691505b60208210810361057457634e487b7160e01b5f52602260045260245ffd5b50919050565b601f8211156105c157805f5260205f20601f840160051c8101602085101561059f5750805b601f840160051c820191505b818110156105be575f81556001016105ab565b50505b505050565b81516001600160401b038111156105df576105df610377565b6105f3816105ed8454610542565b8461057a565b6020601f821160018114610625575f831561060e5750848201515b5f19600385901b1c1916600184901b1784556105be565b5f84815260208120601f198516915b828110156106545787850151825560209485019460019092019101610634565b508482101561067157868401515f19600387901b60f8161c191681555b50505050600190811b01905550565b60805160a05160c05160e05161010051610120516101405161016051610180516101a05161552061077f5f395f611ff401525f61204b01525f61202401525f50505f81816104a4015281816122b80152818161249801526124fe01525f818161057c0152818161109e015281816110da0152818161208501526120c101525f818161364a0152818161367301526137b201525f8181610a4201528181611a7101528181612cdf0152612fac01525f81816103b201528181610a7201528181610d0501528181610fa70152818161210e015281816123d20152818161266c015281816129e00152612a6401525f8181613a750152613d6601526155205ff3fe6080604052600436106103ab575f3560e01c8063795053d3116101e9578063bc4c594b11610108578063dd62ed3e1161009d578063f04e283e1161006d578063f04e283e14610b88578063f2fde38b14610b9b578063f3ccf05e14610bae578063fee81cf414610bcd575f80fd5b8063dd62ed3e14610b0c578063de0e9a3e14610b2b578063e1ad116214610b4a578063ea598cb014610b69575f80fd5b8063c55dae63116100d8578063c55dae6314610a64578063cd810d2b14610a96578063cfc1625414610ac2578063d051665014610ae1575f80fd5b8063bc4c594b146109ea578063bde15931146109fe578063c12ea3ca14610a12578063c2029b0c14610a31575f80fd5b80639dc29fac1161017e578063aa271e1a1161014e578063aa271e1a14610980578063ad3cb1cc1461099f578063b9ea102a146109cf578063bc0ba3c5146109d7575f80fd5b80639dc29fac14610910578063a457c2d71461092f578063a60fee371461094e578063a9059cbb14610961575f80fd5b80638da5cb5b116101b95780638da5cb5b146108a457806390ea90ae146108bc57806395d89b41146108cf5780639a3fb7bf146108fc575f80fd5b8063795053d3146108435780637a920fa9146108625780637bcffc041461087c5780638456cb5914610890575f80fd5b806340c10f19116102d55780636a6a22081161026a57806370ae92d21161023a57806370ae92d214610799578063715018a6146107f55780637542ff95146107fd578063772865e214610824575f80fd5b80636a6a22081461071d5780636f2293ab1461073c578063708c0db91461075b57806370a082311461077a575f80fd5b806354d1f13d116102a557806354d1f13d146106955780635c975abb1461069d5780636568f451146106bb57806369b0758e146106ef575f80fd5b806340c10f19146106305780634f1ef2861461064f57806350c695d11461066257806352d1902d14610681575f80fd5b80632557fe211161034b578063313ce5671161031b578063313ce567146105bd5780633434735f146105e357806339509351146105fd5780633f4ba83a1461061c575f80fd5b80632557fe211461054457806325692962146105635780632a709b141461056b5780632b87c5071461059e575f80fd5b8063129d818811610386578063129d8188146104dc57806318160ddd146104fe5780631a4fa0b31461051257806323b872dd14610525575f80fd5b806306fdde0314610410578063095ea7b31461046757806309c6bed914610496575f80fd5b3661040c577f0000000000000000000000000000000000000000000000000000000000000000336001600160a01b0382161461040a57604051632265b9e160e11b81526001600160a01b03821660048201526024015b60405180910390fd5b005b5f80fd5b34801561041b575f80fd5b5060408051808201909152601b81527f5265636f76657261626c6520577261707065642054656c636f696e000000000060208201525b60405161045e9190614a54565b60405180910390f35b348015610472575f80fd5b50610486610481366004614a9c565b610bfe565b604051901515815260200161045e565b3480156104a1575f80fd5b507f00000000000000000000000000000000000000000000000000000000000000005b6040516001600160a01b03909116815260200161045e565b3480156104e7575f80fd5b506104f0610c17565b60405190815260200161045e565b348015610509575f80fd5b506009546104f0565b61040a610520366004614ad2565b610c89565b348015610530575f80fd5b5061048661053f366004614b28565b610e60565b34801561054f575f80fd5b506104f061055e366004614b62565b610e8e565b61040a610ea1565b348015610576575f80fd5b506104c47f000000000000000000000000000000000000000000000000000000000000000081565b3480156105a9575f80fd5b506104f06105b8366004614b86565b610eed565b3480156105c8575f80fd5b506105d1610fa4565b60405160ff909116815260200161045e565b3480156105ee575f80fd5b506104c46002600160a01b0381565b348015610608575f80fd5b50610486610617366004614a9c565b61102a565b348015610627575f80fd5b5061040a61104b565b34801561063b575f80fd5b506104f061064a366004614a9c565b61108a565b61040a61065d366004614c27565b61119d565b34801561066d575f80fd5b5061048661067c366004614d9c565b6111bc565b34801561068c575f80fd5b506104f0611509565b61040a611524565b3480156106a8575f80fd5b50600a54600160a01b900460ff16610486565b3480156106c6575f80fd5b506106da6106d5366004614b62565b61155d565b6040805192835260208301919091520161045e565b3480156106fa575f80fd5b50610486610709366004614dcd565b60086020525f908152604090205460ff1681565b348015610728575f80fd5b50610486610737366004614de6565b6115bc565b348015610747575f80fd5b50610486610756366004614e41565b611d34565b348015610766575f80fd5b5061040a610775366004614e9e565b611d63565b348015610785575f80fd5b506104f0610794366004614dcd565b611e83565b3480156107a4575f80fd5b506107dd6107b3366004614dcd565b6001600160a01b03165f90815260056020526040902054600160801b90046001600160801b031690565b6040516001600160801b03909116815260200161045e565b61040a611e8e565b348015610808575f80fd5b506104c47307e17e17e17e17e17e17e17e17e17e17e17e17e181565b34801561082f575f80fd5b506104f061083e366004614b86565b611e9f565b34801561084e575f80fd5b50600a546104c4906001600160a01b031681565b34801561086d575f80fd5b506104f0662386f26fc1000081565b348015610887575f80fd5b506104f0611eaa565b34801561089b575f80fd5b5061040a611eb3565b3480156108af575f80fd5b50638b78c6d819546104c4565b61040a6108ca366004614a9c565b611ef0565b3480156108da575f80fd5b506040805180820190915260058152641c9dd5115360da1b6020820152610451565b348015610907575f80fd5b506104f0611fc8565b34801561091b575f80fd5b506104f061092a366004614a9c565b612079565b34801561093a575f80fd5b50610486610949366004614a9c565b612226565b61040a61095c366004614f22565b6122ab565b34801561096c575f80fd5b5061048661097b366004614a9c565b612352565b34801561098b575f80fd5b5061048661099a366004614dcd565b61236a565b3480156109aa575f80fd5b50610451604051806040016040528060058152602001640352e302e360dc1b81525081565b61040a61239a565b61040a6109e5366004614fd7565b612495565b3480156109f5575f80fd5b506104c46124fa565b348015610a09575f80fd5b5061040a6125ea565b348015610a1d575f80fd5b5061040a610a2c366004614a9c565b61262b565b348015610a3c575f80fd5b506104f07f000000000000000000000000000000000000000000000000000000000000000081565b348015610a6f575f80fd5b507f00000000000000000000000000000000000000000000000000000000000000006104c4565b348015610aa1575f80fd5b50610ab5610ab0366004614dcd565b6126d6565b60405161045e919061507c565b348015610acd575f80fd5b5061040a610adc366004614dcd565b612961565b348015610aec575f80fd5b506104f0610afb366004614dcd565b60066020525f908152604090205481565b348015610b17575f80fd5b506104f0610b26366004615100565b612975565b348015610b36575f80fd5b5061040a610b45366004614b62565b61299f565b348015610b55575f80fd5b50610486610b64366004615131565b612a40565b348015610b74575f80fd5b5061040a610b83366004614b62565b612a5f565b61040a610b96366004614dcd565b612acd565b61040a610ba9366004614dcd565b612b07565b348015610bb9575f80fd5b5061040a610bc836600461516e565b612b2d565b348015610bd8575f80fd5b506104f0610be7366004614dcd565b63389a75e1600c9081525f91909152602090205490565b5f33610c0b818585612b3e565b60019150505b92915050565b5f7f980c3be34c7ee75cc250c76223092614e21653cdf2faece10ac24fcef821df105f610c42611fc8565b604051602001610c6e939291909283526001600160a01b03919091166020830152604082015260600190565b60405160208183030381529060405280519060200120905090565b845f03610cbb57604051635c0b206f60e01b81526001600160a01b038716600482015260248101869052604401610401565b60405163d505accf60e01b81526001600160a01b038781166004830152306024830152604482018790526064820186905260ff8516608483015260a4820184905260c482018390527f0000000000000000000000000000000000000000000000000000000000000000919082169063d505accf9060e4015f604051808303815f87803b158015610d49575f80fd5b505af1158015610d5b573d5f803e3d5ffd5b50506040516323b872dd60e01b81526001600160a01b038a81166004830152306024830152604482018a90525f9350841691506323b872dd906064016020604051808303815f875af1158015610db3573d5f803e3d5ffd5b505050506040513d601f19601f82011682018060405250810190610dd79190615187565b905080610e0957604051636a00312b60e01b81526001600160a01b038916600482015260248101889052604401610401565b610e138888612c61565b876001600160a01b03167fb61d00fdfee32467c7d81db64c811ae60c104c346debf36a14afe84b8fce59e588604051610e4e91815260200190565b60405180910390a25050505050505050565b5f33610e6d858285612e36565b610e818585610e7b86612e46565b5f612eb2565b60019150505b9392505050565b5f80610e87662386f26fc10000846151b6565b5f6202a3006001600160401b03164201905063389a75e1600c52335f52806020600c2055337fdbf36a107da19e49527a7176a1babf963b4b0ff8cde35ee35d6cd8f1f9ac7e1d5f80a250565b5f8115610f32576001600160a01b0383165f90815260066020908152604080832054600590925290912054610f2b91906001600160801b03166151cd565b9050610c11565b5f80610f3d856131fb565b6001600160a01b0387165f908152600660205260409020549193509150610f659082906151cd565b6001600160a01b0386165f90815260056020526040902054610f919084906001600160801b03166151cd565b610f9b91906151cd565b92505050610c11565b5f7f00000000000000000000000000000000000000000000000000000000000000006001600160a01b031663313ce5676040518163ffffffff1660e01b8152600401602060405180830381865afa158015611001573d5f803e3d5ffd5b505050506040513d601f19601f8201168201806040525081019061102591906151e0565b905090565b5f33610c0b81858561103c8383612975565b61104691906151fb565b612b3e565b61105361354d565b600a546001600160a01b0316331461108057604051630caf34d360e31b8152336004820152602401610401565b61108861359d565b565b5f6110936135f2565b336001600160a01b037f00000000000000000000000000000000000000000000000000000000000000001614611107576040516332311fb560e21b81526001600160a01b037f0000000000000000000000000000000000000000000000000000000000000000166004820152602401610401565b5f61111183610e8e565b90505f846001600160a01b0316826040515f6040518083038185875af1925050503d805f811461115c576040519150601f19603f3d011682016040523d82523d5f602084013e611161565b606091505b505090508061119557604051635c0b206f60e01b81526001600160a01b038616600482015260248101839052604401610401565b509392505050565b6111a561363f565b6111ae826136e3565b6111b882826136eb565b5050565b600a545f906001600160a01b031633146111eb57604051630caf34d360e31b8152336004820152602401610401565b5f5b82518110156114fe575f8382815181106112095761120961520e565b60200260200101516020015190505f84838151811061122a5761122a61520e565b60200260200101515f015190505f85848151811061124a5761124a61520e565b6020908102919091018101516040908101516001600160a01b0385165f90815260079093528183209151631380691160e01b8152600481019290925260248201869052925073__$45c6e7e63f817b68352265224a11144e74$__9063138069119060440160a060405180830381865af41580156112c9573d5f803e3d5ffd5b505050506040513d601f19601f820116820180604052508101906112ed91906152a1565b905080602001515f03611325576040516383ac745b60e01b81526001600160a01b038416600482015260248101859052604401610401565b4281602001511161135b57604051638e54e8ab60e01b81526001600160a01b038416600482015260248101859052604401610401565b6001600160a01b0383165f9081526007602052604090206003015484116113de576001600160a01b0383165f90815260056020526040902060010180548391906010906113b9908490600160801b90046001600160801b03166152bb565b92506101000a8154816001600160801b0302191690836001600160801b031602179055505b6001600160a01b0383165f90815260076020526040908190209051630c9ba3af60e31b81526004810191909152602481018590526001600160801b038316604482015273__$45c6e7e63f817b68352265224a11144e74$__906364dd1d78906064015f6040518083038186803b158015611456575f80fd5b505af4158015611468573d5f803e3d5ffd5b505050506001600160a01b0383165f90815260066020526040812080546001600160801b038516929061149c9084906151fb565b9091555050604080516001600160801b0384168152602081018690526001600160a01b038516917f029d06ff78b8c68fca5225af637c626c0176c9fcaa163beec8e558d4c3ae65b6910160405180910390a25050600190920191506111ed9050565b50600190505b919050565b5f6115126137a7565b505f805160206154f483398151915290565b63389a75e1600c52335f525f6020600c2055337ffa7b8eab7da67f412cc9575ed43464468f9bfbae89d1675917346ca6d8fe3c925f80a2565b5f80662386f26fc1000083101561158a57604051633728b83d60e01b815260048101849052602401610401565b5f61159c662386f26fc10000856152ee565b90505f6115b0662386f26fc1000086615301565b91959194509092505050565b600a545f906001600160a01b031633146115eb57604051630caf34d360e31b8152336004820152602401610401565b5f5b8251811015611ce6575f8382815181106116095761160961520e565b60200260200101516020015190505f84838151811061162a5761162a61520e565b60200260200101515f015190505f85848151811061164a5761164a61520e565b6020908102919091018101516040908101516001600160a01b0385165f90815260079093528183209151631380691160e01b8152600481019290925260248201869052925073__$45c6e7e63f817b68352265224a11144e74$__9063138069119060440160a060405180830381865af41580156116c9573d5f803e3d5ffd5b505050506040513d601f19601f820116820180604052508101906116ed91906152a1565b905080602001515f03611725576040516383ac745b60e01b81526001600160a01b038416600482015260248101859052604401610401565b6001600160a01b0383165f9081526007602052604081206001015490818610806117d557506001600160a01b0385165f90815260076020526040908190209051630363715960e51b8152600481019190915273__$45c6e7e63f817b68352265224a11144e74$__90636c6e2b2090602401602060405180830381865af41580156117b1573d5f803e3d5ffd5b505050506040513d601f19601f820116820180604052508101906117d59190615187565b6001600160a01b0386165f90815260076020526040908190209051630443e6cf60e41b81526004810191909152602481018890526001600160801b0386166044820152811515606482015290915073__$45c6e7e63f817b68352265224a11144e74$__9063443e6cf0906084015f6040518083038186803b158015611858575f80fd5b505af415801561186a573d5f803e3d5ffd5b505050506001600160a01b0385165f90815260066020526040812080546001600160801b038716929061189e9084906151cd565b90915550506001600160a01b0385165f908152600760205260409020600301548611611926576001600160a01b0385165f9081526005602052604090206001018054859190601090611901908490600160801b90046001600160801b0316615314565b92506101000a8154816001600160801b0302191690836001600160801b031602179055505b8a15611cd45780611a38576001600160a01b0385165f90815260076020526040908190209051630adbaf2360e41b81526004810191909152602481018790526001600160801b038516604482015273__$45c6e7e63f817b68352265224a11144e74$__9063adbaf230906064015f6040518083038186803b1580156119a9575f80fd5b505af41580156119bb573d5f803e3d5ffd5b505050506001600160a01b0385165f908152600760205260409020600301548611611a38576001600160a01b0385165f9081526005602052604081206001018054869290611a139084906001600160801b0316615314565b92506101000a8154816001600160801b0302191690836001600160801b031602179055505b6001600160a01b038a165f90815260076020526040812073__$45c6e7e63f817b68352265224a11144e74$__9063a04af2999087611a967f0000000000000000000000000000000000000000000000000000000000000000426151fb565b6040516001600160e01b031960e086901b16815260048101939093526001600160801b0390911660248301526044820152606401602060405180830381865af4158015611ae5573d5f803e3d5ffd5b505050506040513d601f19601f82011682018060405250810190611b099190615333565b6001600160a01b0387165f90815260056020526040812080549293508792909190611b3e9084906001600160801b0316615314565b82546101009290920a6001600160801b038181021990931691831602179091556001600160a01b038d165f90815260056020526040812080548994509092611b88918591166152bb565b82546101009290920a6001600160801b038181021990931691831602179091556001600160a01b0388165f9081526005602052604090208054600160801b900490911691506010611bd88361534a565b82546101009290920a6001600160801b038181021990931691831602179091556001600160a01b038d165f9081526005602052604090208054600160801b900490911691506010611c288361534a565b91906101000a8154816001600160801b0302191690836001600160801b03160217905550505f428560200151111590508b6001600160a01b0316876001600160a01b03167fc817d75deaa278e988c41cf549ef38fe195ab65e0e64cd67ba47f0d185690d5883611c985788611c9a565b5f5b84611ca5575f611ca7565b895b604080516001600160801b039384168152929091166020830152810186905260600160405180910390a350505b5050600190940193506115ed92505050565b50826001600160a01b03167f3baf7fff3a314c925991f8f46074dab97eeda5c85eed35c106437c61751d0ae68584604051611d22929190615374565b60405180910390a25060019392505050565b5f33611d41868286612e36565b611d558686611d4f87612e46565b86612eb2565b60019150505b949350505050565b7ff0c57e16840df040f15088dc2f81fe391c3923bec73e23a9662efc9c229c6a008054600160401b810460ff1615906001600160401b03165f81158015611da75750825b90505f826001600160401b03166001148015611dc25750303b155b905081158015611dd0575080155b15611dee5760405163f92ee8a960e01b815260040160405180910390fd5b845467ffffffffffffffff191660011785558315611e1857845460ff60401b1916600160401b1785555b611e21866137f0565b611e2a8861382b565b611e3387600b55565b8315611e7957845460ff60401b19168555604051600181527fc7f505b2f371ae2175ee4913f4499e1f2633a7b5936321eed1cdaeb6115181d29060200160405180910390a15b5050505050505050565b5f610c11825f61384d565b611e966138bd565b6110885f6138d7565b5f610e87838361384d565b5f611025610c17565b611ebb6135f2565b600a546001600160a01b03163314611ee857604051630caf34d360e31b8152336004820152602401610401565b611088613914565b337307e17e17e17e17e17e17e17e17e17e17e17e17e114611f3a576040516332311fb560e21b81527307e17e17e17e17e17e17e17e17e17e17e17e17e16004820152602401610401565b5f611f4534836151fb565b90505f836001600160a01b0316826040515f6040518083038185875af1925050503d805f8114611f90576040519150601f19603f3d011682016040523d82523d5f602084013e611f95565b606091505b5050905080611fc257604051630d623c2560e01b81526001600160a01b0385166004820152602401610401565b50505050565b604080517f5498bf1696259c19f826e687122ca9404f85fe476a9e186af31eb6a53bf123dc60208201527f0000000000000000000000000000000000000000000000000000000000000000918101919091526001600160a01b037f00000000000000000000000000000000000000000000000000000000000000001660608201527f000000000000000000000000000000000000000000000000000000000000000060808201525f9060a001610c6e565b5f336001600160a01b037f000000000000000000000000000000000000000000000000000000000000000016146120ee576040516332311fb560e21b81526001600160a01b037f0000000000000000000000000000000000000000000000000000000000000000166004820152602401610401565b6120f88383613957565b604051632e1a7d4d60e01b8152600481018390527f00000000000000000000000000000000000000000000000000000000000000006001600160a01b031690632e1a7d4d906024015f604051808303815f87803b158015612157575f80fd5b505af1158015612169573d5f803e3d5ffd5b505050505f806121788461155d565b600a546040519294509092505f916001600160a01b039091169083908381818185875af1925050503d805f81146121ca576040519150601f19603f3d011682016040523d82523d5f602084013e6121cf565b606091505b505090508061221c57856001600160a01b03167ff786d206cd3411b41abd3936ba4c19d9f0cb310c619904beb2a2ac83ce1ca0a48360405161221391815260200190565b60405180910390a25b5090949350505050565b5f33816122338286612975565b9050838110156122935760405162461bcd60e51b815260206004820152602560248201527f45524332303a2064656372656173656420616c6c6f77616e63652062656c6f77604482015264207a65726f60d81b6064820152608401610401565b6122a08286868403612b3e565b506001949350505050565b6122b6883385612e36565b7f00000000000000000000000000000000000000000000000000000000000000006001600160a01b03166370756cde346122ee610c17565b8b8b8b8b8b8b8b8b6040518b63ffffffff1660e01b815260040161231a99989796959493929190615416565b5f604051808303818588803b158015612331575f80fd5b505af1158015612343573d5f803e3d5ffd5b50505050505050505050505050565b5f6123613384610e7b85612e46565b50600192915050565b5f6123736124fa565b6001600160a01b0316826001600160a01b03160361239357506001919050565b505f919050565b33345f8190036123cf57604051635c0b206f60e01b81526001600160a01b038316600482015260248101829052604401610401565b5f7f00000000000000000000000000000000000000000000000000000000000000009050806001600160a01b031663d0e30db0836040518263ffffffff1660e01b81526004015f604051808303818588803b15801561242c575f80fd5b505af115801561243e573d5f803e3d5ffd5b505050505061244d8383612c61565b826001600160a01b03167fb61d00fdfee32467c7d81db64c811ae60c104c346debf36a14afe84b8fce59e58360405161248891815260200190565b60405180910390a2505050565b337f00000000000000000000000000000000000000000000000000000000000000006001600160a01b03166370756cde346124ce610c17565b848c8c8c8c8c8c8c6040518b63ffffffff1660e01b815260040161231a99989796959493929190615416565b5f807f0000000000000000000000000000000000000000000000000000000000000000612525611eaa565b6040516001600160f81b0319602082015260609290921b6bffffffffffffffffffffffff1916602183015260358201527fdb4bab1640a2602c9f66f33765d12be4af115accf74b24515702961e82a71327605582015260750160408051808303601f190181529082905280516020918201206135a560f21b918301919091526bffffffffffffffffffffffff19606082901b166022830152600160f81b60368301529150603701604051602081830303815290604052805190602001205f1c91505090565b335f81815260086020526040808220805460ff19166001179055517fefe5426af10b0a9224969ecac24cb8cac201061a3225b0939df6d0e55fd922669190a2565b335f9081526008602052604090205460ff161561265d57604051635785f54f60e01b8152336004820152602401610401565b6126673382613957565b6126927f00000000000000000000000000000000000000000000000000000000000000008383613969565b6040518181526001600160a01b0383169033907fbe8e6aacbb5d99c99f1992d91d807f570d0acacabee02374369ed42710dc66989060200160405180910390a35050565b6001600160a01b0381165f90815260076020526040908190209051630363715960e51b8152600481018290526060919073__$45c6e7e63f817b68352265224a11144e74$__90636c6e2b2090602401602060405180830381865af4158015612740573d5f803e3d5ffd5b505050506040513d601f19601f820116820180604052508101906127649190615187565b156127a057604080515f8082526020820190925290611195565b6127866149f6565b81526020019060019003908161277e579050509392505050565b5f816001015482600201546127b591906151cd565b6127c09060016151fb565b6001600160401b038111156127d7576127d7614bbb565b60405190808252806020026020018201604052801561281057816020015b6127fd6149f6565b8152602001906001900390816127f55790505b5060028301549091505f905b80156128b8575f81815260208590526040902060018101544210156128ad576040805160a08101825282546001600160801b0390811682526001840154602083015260028401541691810191909152600382015460608201526004820154608082015284518590859081106128935761289361520e565b602002602001018190525082806128a99061547e565b9350505b60030154905061281c565b5f826001600160401b038111156128d1576128d1614bbb565b60405190808252806020026020018201604052801561290a57816020015b6128f76149f6565b8152602001906001900390816128ef5790505b5090505f5b83811015612956578481815181106129295761292961520e565b60200260200101518282815181106129435761294361520e565b602090810291909101015260010161290f565b509695505050505050565b6129696138bd565b6129728161382b565b50565b6001600160a01b039182165f90815260016020908152604080832093909416825291909152205490565b335f9081526008602052604090205460ff16156129d157604051635785f54f60e01b8152336004820152602401610401565b6129db3382613957565b612a067f00000000000000000000000000000000000000000000000000000000000000003383613969565b604051818152339081907fbe8e6aacbb5d99c99f1992d91d807f570d0acacabee02374369ed42710dc66989060200160405180910390a350565b5f612a553385612a4f86612e46565b85612eb2565b5060019392505050565b612a8b7f00000000000000000000000000000000000000000000000000000000000000003330846139cc565b612a953382612c61565b60405181815233907fb61d00fdfee32467c7d81db64c811ae60c104c346debf36a14afe84b8fce59e59060200160405180910390a250565b612ad56138bd565b63389a75e1600c52805f526020600c208054421115612afb57636f5e88185f526004601cfd5b5f9055612972816138d7565b612b0f6138bd565b8060601b612b2457637448fbae5f526004601cfd5b612972816138d7565b612b356138bd565b61297281600b55565b6001600160a01b038316612ba05760405162461bcd60e51b8152602060048201526024808201527f45524332303a20617070726f76652066726f6d20746865207a65726f206164646044820152637265737360e01b6064820152608401610401565b6001600160a01b038216612c015760405162461bcd60e51b815260206004820152602260248201527f45524332303a20617070726f766520746f20746865207a65726f206164647265604482015261737360f01b6064820152608401610401565b6001600160a01b038381165f8181526001602090815260408083209487168084529482529182902085905590518481527f8c5be1e5ebec7d5bd14f71427d1e84f3dd0314c0f7b2291e5b200ac8c7c3b925910160405180910390a3505050565b612c696135f2565b6001600160a01b038216612c90576040516342bcdf7f60e11b815260040160405180910390fd5b612c9982613a04565b5f612ca382613f86565b6001600160a01b0384165f90815260076020526040902090915073__$45c6e7e63f817b68352265224a11144e74$__9063a04af2999083612d047f0000000000000000000000000000000000000000000000000000000000000000426151fb565b6040516001600160e01b031960e086901b16815260048101939093526001600160801b0390911660248301526044820152606401602060405180830381865af4158015612d53573d5f803e3d5ffd5b505050506040513d601f19601f82011682018060405250810190612d779190615333565b508160095f828254612d8991906151fb565b90915550506001600160a01b0383165f9081526005602052604090208054600160801b90046001600160801b0316906010612dc38361534a565b82546101009290920a6001600160801b038181021990931691831602179091556001600160a01b0385165f90815260056020526040812080548594509092612e0d918591166152bb565b92506101000a8154816001600160801b0302191690836001600160801b03160217905550505050565b612e41838383613f9a565b505050565b5f6001600160801b03821115612eae5760405162461bcd60e51b815260206004820152602760248201527f53616665436173743a2076616c756520646f65736e27742066697420696e20316044820152663238206269747360c81b6064820152608401610401565b5090565b612ebb8361400c565b836001600160a01b0316836001600160a01b031603612eed576040516352a7f8fb60e01b815260040160405180910390fd5b612ef684613a04565b612eff83613a04565b5f80612f0b8684610eed565b9050836001600160801b0316811015612f605760405163083f759b60e01b81526001600160a01b0387166004820152602481018290526001600160801b03851660448201528315156064820152608401610401565b8215612f7357612f708685614033565b91505b6001600160a01b0385165f90815260076020526040812073__$45c6e7e63f817b68352265224a11144e74$__9063a04af2999087612fd17f0000000000000000000000000000000000000000000000000000000000000000426151fb565b6040516001600160e01b031960e086901b16815260048101939093526001600160801b0390911660248301526044820152606401602060405180830381865af4158015613020573d5f803e3d5ffd5b505050506040513d601f19601f820116820180604052508101906130449190615333565b6001600160a01b0388165f908152600560205260408120805492935087929091906130799084906001600160801b0316615314565b82546101009290920a6001600160801b038181021990931691831602179091556001600160a01b0388165f908152600560205260408120805489945090926130c3918591166152bb565b82546101009290920a6001600160801b038181021990931691831602179091556001600160a01b0388165f9081526005602052604090208054600160801b9004909116915060106131138361534a565b82546101009290920a6001600160801b038181021990931691831602179091556001600160a01b0389165f9081526005602052604090208054600160801b9004909116915060106131638361534a565b91906101000a8154816001600160801b0302191690836001600160801b0316021790555050856001600160a01b0316876001600160a01b03167fc817d75deaa278e988c41cf549ef38fe195ab65e0e64cd67ba47f0d185690d588586896001600160801b03166131d391906151cd565b604080519283526020830191909152810185905260600160405180910390a350505050505050565b6001600160a01b0381165f90815260076020526040812060038101546002909101548291905b8181111561330c576001600160a01b0385165f908152600760205260408082209051631380691160e01b815260048101919091526024810183905273__$45c6e7e63f817b68352265224a11144e74$__9063138069119060440160a060405180830381865af4158015613296573d5f803e3d5ffd5b505050506040513d601f19601f820116820180604052508101906132ba91906152a1565b9050428160200151116132cd575061330c565b80516132e2906001600160801b0316866151fb565b945080604001516001600160801b0316846132fd91906151fb565b93508060600151915050613221565b6001600160a01b0385165f90815260076020526040908190209051631380691160e01b8152429173__$45c6e7e63f817b68352265224a11144e74$__91631380691191613366918790600401918252602082015260400190565b60a060405180830381865af4158015613381573d5f803e3d5ffd5b505050506040513d601f19601f820116820180604052508101906133a591906152a1565b60200151116133b5575050915091565b6001600160a01b0385165f908152600560205260409020600101546133e3906001600160801b0316856151fb565b6001600160a01b0386165f9081526005602052604090206001015490945061341b90600160801b90046001600160801b0316846151fb565b6001600160a01b0386165f9081526007602052604090206001015490935090505b81811115801561344b57505f81115b15613546576001600160a01b0385165f908152600760205260408082209051631380691160e01b815260048101919091526024810183905273__$45c6e7e63f817b68352265224a11144e74$__9063138069119060440160a060405180830381865af41580156134bd573d5f803e3d5ffd5b505050506040513d601f19601f820116820180604052508101906134e191906152a1565b905042816020015111156134f55750613546565b805161350a906001600160801b0316866151cd565b60408201519095506001600160801b03161561353b576040810151613538906001600160801b0316856151cd565b93505b60800151905061343c565b5050915091565b600a54600160a01b900460ff166110885760405162461bcd60e51b815260206004820152601460248201527314185d5cd8589b194e881b9bdd081c185d5cd95960621b6044820152606401610401565b6135a561354d565b600a805460ff60a01b191690557f5db9ee0a495bf2e6ff9c91a7834c1ba4fdd244a5e8aa4e537bd38aeae4b073aa335b6040516001600160a01b03909116815260200160405180910390a1565b600a54600160a01b900460ff16156110885760405162461bcd60e51b815260206004820152601060248201526f14185d5cd8589b194e881c185d5cd95960821b6044820152606401610401565b306001600160a01b037f00000000000000000000000000000000000000000000000000000000000000001614806136c557507f00000000000000000000000000000000000000000000000000000000000000006001600160a01b03166136b95f805160206154f4833981519152546001600160a01b031690565b6001600160a01b031614155b156110885760405163703e46dd60e11b815260040160405180910390fd5b6129726138bd565b816001600160a01b03166352d1902d6040518163ffffffff1660e01b8152600401602060405180830381865afa925050508015613745575060408051601f3d908101601f1916820190925261374291810190615333565b60015b61376d57604051634c9c8ce360e01b81526001600160a01b0383166004820152602401610401565b5f805160206154f4833981519152811461379d57604051632a87526960e21b815260048101829052602401610401565b612e418383614478565b306001600160a01b037f000000000000000000000000000000000000000000000000000000000000000016146110885760405163703e46dd60e11b815260040160405180910390fd5b6001600160a01b0316638b78c6d819819055805f7f8be0079c531659141344cd1fd0a4f28419497f9722a3daafe3b4186f6b6457e08180a350565b600a80546001600160a01b0319166001600160a01b0392909216919091179055565b5f811561387b57506001600160a01b0382165f908152600560205260409020546001600160801b0316610c11565b5f613885846131fb565b506001600160a01b0385165f908152600560205260409020549091506138b59082906001600160801b03166151cd565b915050610c11565b638b78c6d819543314611088576382b429005f526004601cfd5b638b78c6d81980546001600160a01b039092169182907f8be0079c531659141344cd1fd0a4f28419497f9722a3daafe3b4186f6b6457e05f80a355565b61391c6135f2565b600a805460ff60a01b1916600160a01b1790557f62e78cea01bee320cd4e420270b5ea74000d11b0c9f74754ebdbfc544b05a2586135d53390565b61395f6135f2565b6111b882826144cd565b6040516001600160a01b038316602482015260448101829052612e4190849063a9059cbb60e01b906064015b60408051601f198184030181529190526020810180516001600160e01b03166001600160e01b031990931692909217909152614606565b6040516001600160a01b0380851660248301528316604482015260648101829052611fc29085906323b872dd60e01b90608401613995565b6001600160a01b0381165f908152600560208181526040808420600101546007835290842060030154929091526001600160801b0380821693600160801b9092041690613a4f6149f6565b6001600160a01b0386165f9081526007602052604090206001015415801590613a9f57507f000000000000000000000000000000000000000000000000000000000000000061ffff168261ffff16105b15613cb3576001600160a01b0386165f90815260076020526040808220905163805b2eef60e01b8152600481019190915273__$45c6e7e63f817b68352265224a11144e74$__9063805b2eef9060240160c060405180830381865af4158015613b0a573d5f803e3d5ffd5b505050506040513d601f19601f82011682018060405250810190613b2e9190615496565b60208201519193509150421015613b455750613cb3565b60408201516001600160801b031615613bdc576001600160a01b0387165f90815260076020526040808220905163061b59f160e01b81526004810191909152602481019190915273__$45c6e7e63f817b68352265224a11144e74$__9063061b59f1906044015f6040518083038186803b158015613bc1575f80fd5b505af4158015613bd3573d5f803e3d5ffd5b50505050613c5c565b6001600160a01b0387165f9081526007602052604090819020905163061b59f160e01b815260048101919091526001602482015273__$45c6e7e63f817b68352265224a11144e74$__9063061b59f1906044015f6040518083038186803b158015613c45575f80fd5b505af4158015613c57573d5f803e3d5ffd5b505050505b848111613c9c578151613c6f9087615314565b60408301519096506001600160801b031615613c97576040820151613c949085615314565b93505b613ca0565b8094505b82613caa816154c1565b93505050613a4f565b6001600160a01b0386165f90815260076020526040908190209051631380691160e01b815260048101919091526024810185905273__$45c6e7e63f817b68352265224a11144e74$__9063138069119060440160a060405180830381865af4158015613d21573d5f803e3d5ffd5b505050506040513d601f19601f82011682018060405250810190613d4591906152a1565b6001600160a01b0387165f908152600760205260409020600101549091505b7f000000000000000000000000000000000000000000000000000000000000000061ffff168361ffff161015613e7957608082015115613e7957808510613daf578160800151613db1565b805b6001600160a01b0388165f90815260076020526040908190209051631380691160e01b815291965073__$45c6e7e63f817b68352265224a11144e74$__91631380691191613e0c918990600401918252602082015260400190565b60a060405180830381865af4158015613e27573d5f803e3d5ffd5b505050506040513d601f19601f82011682018060405250810190613e4b91906152a1565b8051909250613e5a90876152bb565b9550816040015184613e6c91906152bb565b9350600190920191613d64565b6001600160a01b0387165f90815260056020908152604080832060010180546001600160801b0319166001600160801b038b161790556007909152908190209051630363715960e51b8152600481019190915273__$45c6e7e63f817b68352265224a11144e74$__90636c6e2b2090602401602060405180830381865af4158015613f06573d5f803e3d5ffd5b505050506040513d601f19601f82011682018060405250810190613f2a9190615187565b613f345784613f36565b5f5b6001600160a01b039097165f90815260076020908152604080832060030199909955600590529690962060010180546001600160801b03948516600160801b029416939093179092555050505050565b5f600160801b8210612eae57612eae6146d9565b5f613fa58484612975565b90505f198114611fc25781811015613fff5760405162461bcd60e51b815260206004820152601d60248201527f45524332303a20696e73756666696369656e7420616c6c6f77616e63650000006044820152606401610401565b611fc28484848403612b3e565b6001600160a01b038116612972576040516342bcdf7f60e11b815260040160405180910390fd5b6001600160a01b0382165f90815260076020908152604080832060028101546003909101546005909352908320600101548492906001600160801b03165b6001600160a01b0387165f908152600760205260408082209051631380691160e01b815260048101919091526024810185905273__$45c6e7e63f817b68352265224a11144e74$__9063138069119060440160a060405180830381865af41580156140de573d5f803e3d5ffd5b505050506040513d601f19601f8201168201806040525081019061410291906152a1565b9050428160200151116141155750614339565b5f61414c614147876001600160801b03168460400151855f01516141399190615314565b6001600160801b03166146e6565b612e46565b90506001600160801b03811615614309576141678187615314565b955081604001516001600160801b03165f148015614191575081516001600160801b038281169116145b1561421a576001600160a01b0389165f90815260076020526040908190209051632ff12beb60e11b815260048101919091526024810186905273__$45c6e7e63f817b68352265224a11144e74$__90635fe257d6906044015f6040518083038186803b1580156141ff575f80fd5b505af4158015614211573d5f803e3d5ffd5b505050506142a9565b6001600160a01b0389165f90815260076020526040908190209051630adbaf2360e41b81526004810191909152602481018690526001600160801b038216604482015273__$45c6e7e63f817b68352265224a11144e74$__9063adbaf230906064015f6040518083038186803b158015614292575f80fd5b505af41580156142a4573d5f803e3d5ffd5b505050505b604080518681526001600160801b03831660208201526001600160a01b038b16917f30ef9b579408ba9120d6516bc74e64d3744ea04b6bbe2b71a5feba8923656174910160405180910390a2838511614309576143068184615314565b92505b6060820151158061432157506001600160801b038616155b1561432d575050614339565b50606001519250614071565b6143438487615314565b6001600160a01b0388165f90815260056020908152604080832060010180546001600160801b038781166001600160801b0319909216919091179091556007909252918290209151630363715960e51b81529216965073__$45c6e7e63f817b68352265224a11144e74$__91636c6e2b20916143c59160040190815260200190565b602060405180830381865af41580156143e0573d5f803e3d5ffd5b505050506040513d601f19601f820116820180604052508101906144049190615187565b15614429576001600160a01b0387165f9081526007602052604081206003015561446e565b6001600160a01b0387165f9081526007602052604090206002015482111561446e576001600160a01b0387165f90815260076020526040902060028101546003909101555b5050505092915050565b614481826146fb565b6040516001600160a01b038316907fbc7cd75a20ee27fd9adebab32041f755214dbc6bffa90cc0225b39da2e5c2d3b905f90a28051156144c557612e41828261475e565b6111b86147d0565b6144d68261400c565b6144df82613a04565b5f806144ea846131fb565b6001600160a01b0386165f90815260066020526040812054929450909250906145149083906151cd565b6001600160a01b0386165f908152600560205260409020546145409085906001600160801b03166151cd565b61454a91906151cd565b90508381101561458c5760405163083f759b60e01b81526001600160a01b038616600482015260248101829052604481018590525f6064820152608401610401565b61459584612e46565b6001600160a01b0386165f90815260056020526040812080549091906145c59084906001600160801b0316615314565b92506101000a8154816001600160801b0302191690836001600160801b031602179055508360095f8282546145fa91906151cd565b90915550505050505050565b5f61465a826040518060400160405280602081526020017f5361666545524332303a206c6f772d6c6576656c2063616c6c206661696c6564815250856001600160a01b03166147ef9092919063ffffffff16565b905080515f148061467a57508080602001905181019061467a9190615187565b612e415760405162461bcd60e51b815260206004820152602a60248201527f5361666545524332303a204552433230206f7065726174696f6e20646964206e6044820152691bdd081cdd58d8d9595960b21b6064820152608401610401565b6335278d125f526004601cfd5b5f8183106146f45781610e87565b5090919050565b806001600160a01b03163b5f0361473057604051634c9c8ce360e01b81526001600160a01b0382166004820152602401610401565b5f805160206154f483398151915280546001600160a01b0319166001600160a01b0392909216919091179055565b60605f80846001600160a01b03168460405161477a91906154d8565b5f60405180830381855af49150503d805f81146147b2576040519150601f19603f3d011682016040523d82523d5f602084013e6147b7565b606091505b50915091506147c78583836147fd565b95945050505050565b34156110885760405163b398979f60e01b815260040160405180910390fd5b6060611d5b84845f85614859565b6060826148125761480d82614930565b610e87565b815115801561482957506001600160a01b0384163b155b1561485257604051639996b31560e01b81526001600160a01b0385166004820152602401610401565b5080610e87565b6060824710156148ba5760405162461bcd60e51b815260206004820152602660248201527f416464726573733a20696e73756666696369656e742062616c616e636520666f6044820152651c8818d85b1b60d21b6064820152608401610401565b5f80866001600160a01b031685876040516148d591906154d8565b5f6040518083038185875af1925050503d805f811461490f576040519150601f19603f3d011682016040523d82523d5f602084013e614914565b606091505b509150915061492587838387614959565b979650505050505050565b8051156149405780518082602001fd5b60405163d6bda27560e01b815260040160405180910390fd5b606083156149c75782515f036149c0576001600160a01b0385163b6149c05760405162461bcd60e51b815260206004820152601d60248201527f416464726573733a2063616c6c20746f206e6f6e2d636f6e74726163740000006044820152606401610401565b5081611d5b565b611d5b83838151156149dc5781518083602001fd5b8060405162461bcd60e51b81526004016104019190614a54565b6040518060a001604052805f6001600160801b031681526020015f81526020015f6001600160801b031681526020015f81526020015f81525090565b5f5b83811015614a4c578181015183820152602001614a34565b50505f910152565b602081525f8251806020840152614a72816040850160208701614a32565b601f01601f19169190910160400192915050565b80356001600160a01b0381168114611504575f80fd5b5f8060408385031215614aad575f80fd5b614ab683614a86565b946020939093013593505050565b60ff81168114612972575f80fd5b5f805f805f8060c08789031215614ae7575f80fd5b614af087614a86565b955060208701359450604087013593506060870135614b0e81614ac4565b9598949750929560808101359460a0909101359350915050565b5f805f60608486031215614b3a575f80fd5b614b4384614a86565b9250614b5160208501614a86565b929592945050506040919091013590565b5f60208284031215614b72575f80fd5b5035919050565b8015158114612972575f80fd5b5f8060408385031215614b97575f80fd5b614ba083614a86565b91506020830135614bb081614b79565b809150509250929050565b634e487b7160e01b5f52604160045260245ffd5b604051606081016001600160401b0381118282101715614bf157614bf1614bbb565b60405290565b604051601f8201601f191681016001600160401b0381118282101715614c1f57614c1f614bbb565b604052919050565b5f8060408385031215614c38575f80fd5b614c4183614a86565b915060208301356001600160401b03811115614c5b575f80fd5b8301601f81018513614c6b575f80fd5b80356001600160401b03811115614c8457614c84614bbb565b614c97601f8201601f1916602001614bf7565b818152866020838501011115614cab575f80fd5b816020840160208301375f602083830101528093505050509250929050565b6001600160801b0381168114612972575f80fd5b5f82601f830112614ced575f80fd5b81356001600160401b03811115614d0657614d06614bbb565b614d1560208260051b01614bf7565b80828252602082019150602060608402860101925085831115614d36575f80fd5b602085015b83811015614d925760608188031215614d52575f80fd5b614d5a614bcf565b614d6382614a86565b8152602082810135908201526040820135614d7d81614cca565b60408201528352602090920191606001614d3b565b5095945050505050565b5f60208284031215614dac575f80fd5b81356001600160401b03811115614dc1575f80fd5b611d5b84828501614cde565b5f60208284031215614ddd575f80fd5b610e8782614a86565b5f805f60608486031215614df8575f80fd5b8335614e0381614b79565b9250614e1160208501614a86565b915060408401356001600160401b03811115614e2b575f80fd5b614e3786828701614cde565b9150509250925092565b5f805f8060808587031215614e54575f80fd5b614e5d85614a86565b9350614e6b60208601614a86565b9250604085013591506060850135614e8281614b79565b939692955090935050565b803561ffff81168114611504575f80fd5b5f805f60608486031215614eb0575f80fd5b614eb984614a86565b9250614ec760208501614e8d565b9150614ed560408501614a86565b90509250925092565b5f8083601f840112614eee575f80fd5b5081356001600160401b03811115614f04575f80fd5b602083019150836020828501011115614f1b575f80fd5b9250929050565b5f805f805f805f8060a0898b031215614f39575f80fd5b614f4289614a86565b975060208901356001600160401b03811115614f5c575f80fd5b614f688b828c01614ede565b90985096505060408901356001600160401b03811115614f86575f80fd5b614f928b828c01614ede565b9096509450506060890135925060808901356001600160401b03811115614fb7575f80fd5b614fc38b828c01614ede565b999c989b5096995094979396929594505050565b5f805f805f805f6080888a031215614fed575f80fd5b87356001600160401b03811115615002575f80fd5b61500e8a828b01614ede565b90985096505060208801356001600160401b0381111561502c575f80fd5b6150388a828b01614ede565b9096509450506040880135925060608801356001600160401b0381111561505d575f80fd5b6150698a828b01614ede565b989b979a50959850939692959293505050565b602080825282518282018190525f918401906040840190835b818110156150f55783516001600160801b038151168452602081015160208501526001600160801b03604082015116604085015260608101516060850152608081015160808501525060a083019250602084019350600181019050615095565b509095945050505050565b5f8060408385031215615111575f80fd5b61511a83614a86565b915061512860208401614a86565b90509250929050565b5f805f60608486031215615143575f80fd5b61514c84614a86565b925060208401359150604084013561516381614b79565b809150509250925092565b5f6020828403121561517e575f80fd5b610e8782614e8d565b5f60208284031215615197575f80fd5b8151610e8781614b79565b634e487b7160e01b5f52601160045260245ffd5b8082028115828204841417610c1157610c116151a2565b81810381811115610c1157610c116151a2565b5f602082840312156151f0575f80fd5b8151610e8781614ac4565b80820180821115610c1157610c116151a2565b634e487b7160e01b5f52603260045260245ffd5b5f60a08284031215615232575f80fd5b60405160a081016001600160401b038111828210171561525457615254614bbb565b8060405250809150825161526781614cca565b815260208381015190820152604083015161528181614cca565b604082015260608381015190820152608092830151920191909152919050565b5f60a082840312156152b1575f80fd5b610e878383615222565b6001600160801b038181168382160190811115610c1157610c116151a2565b634e487b7160e01b5f52601260045260245ffd5b5f826152fc576152fc6152da565b500490565b5f8261530f5761530f6152da565b500690565b6001600160801b038281168282160390811115610c1157610c116151a2565b5f60208284031215615343575f80fd5b5051919050565b5f6001600160801b0382166001600160801b03810361536b5761536b6151a2565b60010192915050565b5f604082018415158352604060208401528084518083526060850191506020860192505f5b818110156153e257835180516001600160a01b03168452602080820151818601526040918201516001600160801b03169185019190915290930192606090920191600101615399565b50909695505050505050565b81835281816020850137505f828201602090810191909152601f909101601f19169091010190565b8981526001600160a01b038916602082015260c0604082018190525f90615440908301898b6153ee565b828103606084015261545381888a6153ee565b905085608084015282810360a084015261546e8185876153ee565b9c9b505050505050505050505050565b5f6001820161548f5761548f6151a2565b5060010190565b5f8060c083850312156154a7575f80fd5b6154b18484615222565b60a0939093015192949293505050565b5f61ffff821661ffff810361536b5761536b6151a2565b5f82516154e9818460208701614a32565b919091019291505056fe360894a13ba1a3210667c828492db98dca3e2076cc3735a920a3ca505d382bbca164736f6c634300081a000a","linkReferences":{"node_modules/recoverable-wrapper/contracts/util/RecordUtil.sol":{"RecordsDequeLib":[{"start":6672,"length":20},{"start":7074,"length":20},{"start":7696,"length":20},{"start":7928,"length":20},{"start":8100,"length":20},{"start":8437,"length":20},{"start":8656,"length":20},{"start":11911,"length":20},{"start":13374,"length":20},{"start":14091,"length":20},{"start":14813,"length":20},{"start":15028,"length":20},{"start":15364,"length":20},{"start":16977,"length":20},{"start":17165,"length":20},{"start":17297,"length":20},{"start":17512,"length":20},{"start":17754,"length":20},{"start":17997,"length":20},{"start":18469,"length":20},{"start":18763,"length":20},{"start":18910,"length":20},{"start":19226,"length":20}]}}},"methodIdentifiers":{"DECIMALS_CONVERTER()":"7a920fa9","SYSTEM_ADDRESS()":"3434735f","UPGRADE_INTERFACE_VERSION()":"ad3cb1cc","allowance(address,address)":"dd62ed3e","approve(address,uint256)":"095ea7b3","balanceOf(address)":"70a08231","balanceOf(address,bool)":"772865e2","baseToken()":"c55dae63","burn(address,uint256)":"9dc29fac","cancelOwnershipHandover()":"54d1f13d","closeCase(bool,address,(address,uint256,uint128)[])":"6a6a2208","completeOwnershipHandover(address)":"f04e283e","decimals()":"313ce567","decreaseAllowance(address,uint256)":"a457c2d7","disableUnwrap()":"bde15931","distributeStakeReward(address,uint256)":"90ea90ae","doubleWrap()":"b9ea102a","freeze((address,uint256,uint128)[])":"50c695d1","frozen(address)":"d0516650","governanceAddress()":"795053d3","increaseAllowance(address,uint256)":"39509351","initialize(address,uint16,address)":"708c0db9","interchainTokenId()":"129d8188","interchainTokenService()":"09c6bed9","interchainTransfer(string,bytes,uint256,bytes)":"bc0ba3c5","interchainTransferFrom(address,string,bytes,uint256,bytes)":"a60fee37","isMinter(address)":"aa271e1a","linkedTokenDeploySalt()":"9a3fb7bf","mint(address,uint256)":"40c10f19","name()":"06fdde03","nonce(address)":"70ae92d2","owner()":"8da5cb5b","ownershipHandoverExpiresAt(address)":"fee81cf4","pause()":"8456cb59","paused()":"5c975abb","permitWrap(address,uint256,uint256,uint8,bytes32,bytes32)":"1a4fa0b3","proxiableUUID()":"52d1902d","recoverableWindow()":"c2029b0c","renounceOwnership()":"715018a6","requestOwnershipHandover()":"25692962","setGovernanceAddress(address)":"cfc16254","setMaxToClean(uint16)":"f3ccf05e","spendableBalanceOf(address,bool)":"2b87c507","stakeManager()":"7542ff95","symbol()":"95d89b41","toEighteenDecimals(uint256)":"2557fe21","toTwoDecimals(uint256)":"6568f451","tokenManager()":"2a709b14","tokenManagerAddress()":"bc4c594b","tokenManagerCreate3Salt()":"7bcffc04","totalSupply()":"18160ddd","transfer(address,uint256)":"a9059cbb","transfer(address,uint256,bool)":"e1ad1162","transferFrom(address,address,uint256)":"23b872dd","transferFrom(address,address,uint256,bool)":"6f2293ab","transferOwnership(address)":"f2fde38b","unpause()":"3f4ba83a","unsettledRecords(address)":"cd810d2b","unwrap(uint256)":"de0e9a3e","unwrapDisabled(address)":"69b0758e","unwrapTo(address,uint256)":"c12ea3ca","upgradeToAndCall(address,bytes)":"4f1ef286","wrap(uint256)":"ea598cb0"},"id":141}