{
  "abi": [
    {
      "type": "constructor",
      "inputs": [
        {
          "name": "interchainTokenService_",
          "type": "address",
          "internalType": "address"
        }
      ],
      "stateMutability": "nonpayable"
    },
    {
      "type": "function",
      "name": "acceptOperatorship",
      "inputs": [
        {
          "name": "fromOperator",
          "type": "address",
          "internalType": "address"
        }
      ],
      "outputs": [],
      "stateMutability": "nonpayable"
    },
    {
      "type": "function",
      "name": "addFlowIn",
      "inputs": [
        {
          "name": "amount",
          "type": "uint256",
          "internalType": "uint256"
        }
      ],
      "outputs": [],
      "stateMutability": "nonpayable"
    },
    {
      "type": "function",
      "name": "addFlowLimiter",
      "inputs": [
        {
          "name": "flowLimiter",
          "type": "address",
          "internalType": "address"
        }
      ],
      "outputs": [],
      "stateMutability": "nonpayable"
    },
    {
      "type": "function",
      "name": "addFlowOut",
      "inputs": [
        {
          "name": "amount",
          "type": "uint256",
          "internalType": "uint256"
        }
      ],
      "outputs": [],
      "stateMutability": "nonpayable"
    },
    {
      "type": "function",
      "name": "approveService",
      "inputs": [],
      "outputs": [],
      "stateMutability": "nonpayable"
    },
    {
      "type": "function",
      "name": "burnToken",
      "inputs": [
        {
          "name": "tokenAddress_",
          "type": "address",
          "internalType": "address"
        },
        {
          "name": "from",
          "type": "address",
          "internalType": "address"
        },
        {
          "name": "amount",
          "type": "uint256",
          "internalType": "uint256"
        }
      ],
      "outputs": [],
      "stateMutability": "nonpayable"
    },
    {
      "type": "function",
      "name": "burnTokenWithReturn",
      "inputs": [
        {
          "name": "tokenAddress_",
          "type": "address",
          "internalType": "address"
        },
        {
          "name": "from",
          "type": "address",
          "internalType": "address"
        },
        {
          "name": "nativeAmount",
          "type": "uint256",
          "internalType": "uint256"
        }
      ],
      "outputs": [
        {
          "name": "burnedAmount",
          "type": "uint256",
          "internalType": "uint256"
        }
      ],
      "stateMutability": "nonpayable"
    },
    {
      "type": "function",
      "name": "contractId",
      "inputs": [],
      "outputs": [
        {
          "name": "",
          "type": "bytes32",
          "internalType": "bytes32"
        }
      ],
      "stateMutability": "pure"
    },
    {
      "type": "function",
      "name": "flowInAmount",
      "inputs": [],
      "outputs": [
        {
          "name": "flowInAmount_",
          "type": "uint256",
          "internalType": "uint256"
        }
      ],
      "stateMutability": "view"
    },
    {
      "type": "function",
      "name": "flowLimit",
      "inputs": [],
      "outputs": [
        {
          "name": "flowLimit_",
          "type": "uint256",
          "internalType": "uint256"
        }
      ],
      "stateMutability": "view"
    },
    {
      "type": "function",
      "name": "flowOutAmount",
      "inputs": [],
      "outputs": [
        {
          "name": "flowOutAmount_",
          "type": "uint256",
          "internalType": "uint256"
        }
      ],
      "stateMutability": "view"
    },
    {
      "type": "function",
      "name": "getTokenAddressFromParams",
      "inputs": [
        {
          "name": "params_",
          "type": "bytes",
          "internalType": "bytes"
        }
      ],
      "outputs": [
        {
          "name": "tokenAddress_",
          "type": "address",
          "internalType": "address"
        }
      ],
      "stateMutability": "pure"
    },
    {
      "type": "function",
      "name": "hasRole",
      "inputs": [
        {
          "name": "account",
          "type": "address",
          "internalType": "address"
        },
        {
          "name": "role",
          "type": "uint8",
          "internalType": "uint8"
        }
      ],
      "outputs": [
        {
          "name": "",
          "type": "bool",
          "internalType": "bool"
        }
      ],
      "stateMutability": "view"
    },
    {
      "type": "function",
      "name": "implementationType",
      "inputs": [],
      "outputs": [
        {
          "name": "",
          "type": "uint256",
          "internalType": "uint256"
        }
      ],
      "stateMutability": "pure"
    },
    {
      "type": "function",
      "name": "interchainTokenId",
      "inputs": [],
      "outputs": [
        {
          "name": "",
          "type": "bytes32",
          "internalType": "bytes32"
        }
      ],
      "stateMutability": "pure"
    },
    {
      "type": "function",
      "name": "interchainTokenService",
      "inputs": [],
      "outputs": [
        {
          "name": "",
          "type": "address",
          "internalType": "address"
        }
      ],
      "stateMutability": "view"
    },
    {
      "type": "function",
      "name": "isFlowLimiter",
      "inputs": [
        {
          "name": "addr",
          "type": "address",
          "internalType": "address"
        }
      ],
      "outputs": [
        {
          "name": "",
          "type": "bool",
          "internalType": "bool"
        }
      ],
      "stateMutability": "view"
    },
    {
      "type": "function",
      "name": "isOperator",
      "inputs": [
        {
          "name": "addr",
          "type": "address",
          "internalType": "address"
        }
      ],
      "outputs": [
        {
          "name": "",
          "type": "bool",
          "internalType": "bool"
        }
      ],
      "stateMutability": "view"
    },
    {
      "type": "function",
      "name": "mintToken",
      "inputs": [
        {
          "name": "tokenAddress_",
          "type": "address",
          "internalType": "address"
        },
        {
          "name": "to",
          "type": "address",
          "internalType": "address"
        },
        {
          "name": "amount",
          "type": "uint256",
          "internalType": "uint256"
        }
      ],
      "outputs": [],
      "stateMutability": "nonpayable"
    },
    {
      "type": "function",
      "name": "mintTokenWithReturn",
      "inputs": [
        {
          "name": "tokenAddress_",
          "type": "address",
          "internalType": "address"
        },
        {
          "name": "to",
          "type": "address",
          "internalType": "address"
        },
        {
          "name": "originAmount",
          "type": "uint256",
          "internalType": "uint256"
        }
      ],
      "outputs": [
        {
          "name": "mintedAmount",
          "type": "uint256",
          "internalType": "uint256"
        }
      ],
      "stateMutability": "nonpayable"
    },
    {
      "type": "function",
      "name": "multicall",
      "inputs": [
        {
          "name": "data",
          "type": "bytes[]",
          "internalType": "bytes[]"
        }
      ],
      "outputs": [
        {
          "name": "results",
          "type": "bytes[]",
          "internalType": "bytes[]"
        }
      ],
      "stateMutability": "payable"
    },
    {
      "type": "function",
      "name": "params",
      "inputs": [
        {
          "name": "operator_",
          "type": "bytes",
          "internalType": "bytes"
        },
        {
          "name": "tokenAddress_",
          "type": "address",
          "internalType": "address"
        }
      ],
      "outputs": [
        {
          "name": "params_",
          "type": "bytes",
          "internalType": "bytes"
        }
      ],
      "stateMutability": "pure"
    },
    {
      "type": "function",
      "name": "proposeOperatorship",
      "inputs": [
        {
          "name": "operator",
          "type": "address",
          "internalType": "address"
        }
      ],
      "outputs": [],
      "stateMutability": "nonpayable"
    },
    {
      "type": "function",
      "name": "removeFlowLimiter",
      "inputs": [
        {
          "name": "flowLimiter",
          "type": "address",
          "internalType": "address"
        }
      ],
      "outputs": [],
      "stateMutability": "nonpayable"
    },
    {
      "type": "function",
      "name": "setFlowLimit",
      "inputs": [
        {
          "name": "flowLimit_",
          "type": "uint256",
          "internalType": "uint256"
        }
      ],
      "outputs": [],
      "stateMutability": "nonpayable"
    },
    {
      "type": "function",
      "name": "setup",
      "inputs": [
        {
          "name": "params_",
          "type": "bytes",
          "internalType": "bytes"
        }
      ],
      "outputs": [],
      "stateMutability": "nonpayable"
    },
    {
      "type": "function",
      "name": "tokenAddress",
      "inputs": [],
      "outputs": [
        {
          "name": "",
          "type": "address",
          "internalType": "address"
        }
      ],
      "stateMutability": "view"
    },
    {
      "type": "function",
      "name": "transferFlowLimiter",
      "inputs": [
        {
          "name": "from",
          "type": "address",
          "internalType": "address"
        },
        {
          "name": "to",
          "type": "address",
          "internalType": "address"
        }
      ],
      "outputs": [],
      "stateMutability": "nonpayable"
    },
    {
      "type": "function",
      "name": "transferOperatorship",
      "inputs": [
        {
          "name": "operator",
          "type": "address",
          "internalType": "address"
        }
      ],
      "outputs": [],
      "stateMutability": "nonpayable"
    },
    {
      "type": "event",
      "name": "FlowLimitSet",
      "inputs": [
        {
          "name": "tokenId",
          "type": "bytes32",
          "indexed": true,
          "internalType": "bytes32"
        },
        {
          "name": "operator",
          "type": "address",
          "indexed": false,
          "internalType": "address"
        },
        {
          "name": "flowLimit_",
          "type": "uint256",
          "indexed": false,
          "internalType": "uint256"
        }
      ],
      "anonymous": false
    },
    {
      "type": "event",
      "name": "RolesAdded",
      "inputs": [
        {
          "name": "account",
          "type": "address",
          "indexed": true,
          "internalType": "address"
        },
        {
          "name": "accountRoles",
          "type": "uint256",
          "indexed": false,
          "internalType": "uint256"
        }
      ],
      "anonymous": false
    },
    {
      "type": "event",
      "name": "RolesProposed",
      "inputs": [
        {
          "name": "fromAccount",
          "type": "address",
          "indexed": true,
          "internalType": "address"
        },
        {
          "name": "toAccount",
          "type": "address",
          "indexed": true,
          "internalType": "address"
        },
        {
          "name": "accountRoles",
          "type": "uint256",
          "indexed": false,
          "internalType": "uint256"
        }
      ],
      "anonymous": false
    },
    {
      "type": "event",
      "name": "RolesRemoved",
      "inputs": [
        {
          "name": "account",
          "type": "address",
          "indexed": true,
          "internalType": "address"
        },
        {
          "name": "accountRoles",
          "type": "uint256",
          "indexed": false,
          "internalType": "uint256"
        }
      ],
      "anonymous": false
    },
    {
      "type": "error",
      "name": "AlreadyFlowLimiter",
      "inputs": [
        {
          "name": "flowLimiter",
          "type": "address",
          "internalType": "address"
        }
      ]
    },
    {
      "type": "error",
      "name": "FlowAdditionOverflow",
      "inputs": [
        {
          "name": "flowAmount",
          "type": "uint256",
          "internalType": "uint256"
        },
        {
          "name": "flowToAdd",
          "type": "uint256",
          "internalType": "uint256"
        },
        {
          "name": "tokenManager",
          "type": "address",
          "internalType": "address"
        }
      ]
    },
    {
      "type": "error",
      "name": "FlowLimitExceeded",
      "inputs": [
        {
          "name": "limit",
          "type": "uint256",
          "internalType": "uint256"
        },
        {
          "name": "flowAmount",
          "type": "uint256",
          "internalType": "uint256"
        },
        {
          "name": "tokenManager",
          "type": "address",
          "internalType": "address"
        }
      ]
    },
    {
      "type": "error",
      "name": "FlowLimitOverflow",
      "inputs": [
        {
          "name": "flowLimit",
          "type": "uint256",
          "internalType": "uint256"
        },
        {
          "name": "flowToCompare",
          "type": "uint256",
          "internalType": "uint256"
        },
        {
          "name": "tokenManager",
          "type": "address",
          "internalType": "address"
        }
      ]
    },
    {
      "type": "error",
      "name": "GiveTokenFailed",
      "inputs": []
    },
    {
      "type": "error",
      "name": "InvalidBytesLength",
      "inputs": [
        {
          "name": "bytesAddress",
          "type": "bytes",
          "internalType": "bytes"
        }
      ]
    },
    {
      "type": "error",
      "name": "InvalidProposedRoles",
      "inputs": [
        {
          "name": "fromAccount",
          "type": "address",
          "internalType": "address"
        },
        {
          "name": "toAccount",
          "type": "address",
          "internalType": "address"
        },
        {
          "name": "accountRoles",
          "type": "uint256",
          "internalType": "uint256"
        }
      ]
    },
    {
      "type": "error",
      "name": "MissingAllRoles",
      "inputs": [
        {
          "name": "account",
          "type": "address",
          "internalType": "address"
        },
        {
          "name": "accountRoles",
          "type": "uint256",
          "internalType": "uint256"
        }
      ]
    },
    {
      "type": "error",
      "name": "MissingAnyOfRoles",
      "inputs": [
        {
          "name": "account",
          "type": "address",
          "internalType": "address"
        },
        {
          "name": "accountRoles",
          "type": "uint256",
          "internalType": "uint256"
        }
      ]
    },
    {
      "type": "error",
      "name": "MissingRole",
      "inputs": [
        {
          "name": "account",
          "type": "address",
          "internalType": "address"
        },
        {
          "name": "role",
          "type": "uint8",
          "internalType": "uint8"
        }
      ]
    },
    {
      "type": "error",
      "name": "MulticallFailed",
      "inputs": []
    },
    {
      "type": "error",
      "name": "NotFlowLimiter",
      "inputs": [
        {
          "name": "flowLimiter",
          "type": "address",
          "internalType": "address"
        }
      ]
    },
    {
      "type": "error",
      "name": "NotProxy",
      "inputs": []
    },
    {
      "type": "error",
      "name": "NotService",
      "inputs": [
        {
          "name": "caller",
          "type": "address",
          "internalType": "address"
        }
      ]
    },
    {
      "type": "error",
      "name": "NotSupported",
      "inputs": []
    },
    {
      "type": "error",
      "name": "NotToken",
      "inputs": [
        {
          "name": "caller",
          "type": "address",
          "internalType": "address"
        }
      ]
    },
    {
      "type": "error",
      "name": "TakeTokenFailed",
      "inputs": []
    },
    {
      "type": "error",
      "name": "TokenLinkerZeroAddress",
      "inputs": []
    },
    {
      "type": "error",
      "name": "TokenTransferFailed",
      "inputs": []
    },
    {
      "type": "error",
      "name": "ZeroAddress",
      "inputs": []
    }
  ],
  "bytecode": {
    "object": "0x60c060405234801561000f575f80fd5b50604051611bd9380380611bd983398101604081905261002e9161006c565b30608052806001600160a01b03811661005a5760405163ba675fc760e01b815260040160405180910390fd5b6001600160a01b031660a05250610099565b5f6020828403121561007c575f80fd5b81516001600160a01b0381168114610092575f80fd5b9392505050565b60805160a051611aee6100eb5f395f81816101cf01528181610569015281816106590152818161069f0152818161079c0152818161089301528181610a130152610d6901525f61098c0152611aee5ff3fe6080604052600436106101ba575f3560e01c80638291286c116100f2578063adc0dc3b11610092578063deb11e7811610062578063deb11e78146104e2578063deb764f514610501578063e915cfd114610520578063f5983e831461053f575f80fd5b8063adc0dc3b14610466578063b555943d14610485578063da4886df146104a4578063dce29136146104c3575f80fd5b80639d76ea58116100cd5780639d76ea58146103f45780639ded06df14610408578063a56dbe6314610427578063ac9650d814610446575f80fd5b80638291286c146103835780638b38b35d146103b557806395a8c58d146103d5575f80fd5b80633416794d1161015d5780636bec32da116101385780636bec32da146103025780636d70f7ae146103215780636f3eef62146103505780637dbab19b1461036f575f80fd5b80633416794d146102c45780634a6a42d8146102e35780634fdf7cb51461024e575f80fd5b8063129d818811610198578063129d81881461024e5780631c53d26514610270578063274158381461029c5780632f3c7888146102b0575f80fd5b806309c6bed9146101be57806310d8d8e31461020e578063120a63b51461022f575b5f80fd5b3480156101c9575f80fd5b506101f17f000000000000000000000000000000000000000000000000000000000000000081565b6040516001600160a01b0390911681526020015b60405180910390f35b348015610219575f80fd5b5061022d61022836600461152f565b61055e565b005b34801561023a575f80fd5b5061022d61024936600461155a565b6105ba565b348015610259575f80fd5b50610262610605565b604051908152602001610205565b34801561027b575f80fd5b5061028f61028a3660046115ba565b61061f565b604051610205919061165a565b3480156102a7575f80fd5b5061022d61064e565b3480156102bb575f80fd5b5061026261076f565b3480156102cf575f80fd5b5061022d6102de36600461166c565b610791565b3480156102ee575f80fd5b5061022d6102fd36600461155a565b61084d565b34801561030d575f80fd5b5061022d61031c36600461166c565b610888565b34801561032c575f80fd5b5061034061033b36600461155a565b610901565b6040519015158152602001610205565b34801561035b575f80fd5b5061022d61036a36600461155a565b610913565b34801561037a575f80fd5b5061026261094e565b34801561038e575f80fd5b507fde5fa9c0ef6d18cdb8ef4461bfb45c94dc915629a2a1f311fb33838aff95436f610262565b3480156103c0575f80fd5b505f80516020611ac283398151915254610262565b3480156103e0575f80fd5b506103406103ef3660046116aa565b610968565b3480156103ff575f80fd5b506101f1610605565b348015610413575f80fd5b5061022d6104223660046116e6565b610989565b348015610432575f80fd5b5061022d61044136600461152f565b610a3f565b610459610454366004611725565b610ad7565b6040516102059190611796565b348015610471575f80fd5b5061022d6104803660046117f9565b610c08565b348015610490575f80fd5b5061026261049f36600461166c565b610c43565b3480156104af575f80fd5b5061022d6104be36600461155a565b610d52565b3480156104ce575f80fd5b5061022d6104dd36600461152f565b610d5e565b3480156104ed575f80fd5b506103406104fc36600461155a565b610db2565b34801561050c575f80fd5b5061026261051b36600461166c565b610dbe565b34801561052b575f80fd5b5061022d61053a36600461155a565b610df3565b34801561054a575f80fd5b506101f16105593660046116e6565b610e2d565b336001600160a01b037f000000000000000000000000000000000000000000000000000000000000000016146105ae57604051630d6c7be960e01b81523360048201526024015b60405180910390fd5b6105b781610e42565b50565b60016105d56105c833610e9f565b600160ff84161b16151590565b6105f657338160405163bb6c163960e01b81526004016105a5929190611825565b610601826002610eaa565b5050565b5f604051630280e1e560e61b815260040160405180910390fd5b606083838360405160200161063693929190611841565b60405160208183030381529060405290509392505050565b336001600160a01b037f0000000000000000000000000000000000000000000000000000000000000000161461069957604051630d6c7be960e01b81523360048201526024016105a5565b604080517f00000000000000000000000000000000000000000000000000000000000000006001600160a01b031660248201525f196044808301919091528251808303909101815260649091018252602080820180516001600160e01b031663095ea7b360e01b17905282516313aedd4b60e31b8152925161076d933092639d76ea58926004808401938290030181865afa15801561073a573d5f803e3d5ffd5b505050506040513d601f19601f8201168201806040525081019061075e9190611881565b6001600160a01b031690610eba565b565b5f8061077d615460426118b0565b90505f61078982610f72565b549392505050565b336001600160a01b037f000000000000000000000000000000000000000000000000000000000000000016146107dc57604051630d6c7be960e01b81523360048201526024016105a5565b6040516001600160a01b03831660248201526044810182905261084890632770a7eb60e21b906064015b60408051601f198184030181529190526020810180516001600160e01b03166001600160e01b0319909316929092179091526001600160a01b03851690610eba565b505050565b600161085b6105c833610e9f565b61087c57338160405163bb6c163960e01b81526004016105a5929190611825565b61060133836001610fc6565b336001600160a01b037f000000000000000000000000000000000000000000000000000000000000000016146108d357604051630d6c7be960e01b81523360048201526024016105a5565b6040516001600160a01b038316602482015260448101829052610848906340c10f1960e01b90606401610806565b5f61090d826001610968565b92915050565b60016109216105c833610e9f565b61094257338160405163bb6c163960e01b81526004016105a5929190611825565b61060133836001610fd7565b5f8061095c615460426118b0565b90505f61078982610fe8565b5f61098261097584610e9f565b600160ff85161b16151590565b9392505050565b307f00000000000000000000000000000000000000000000000000000000000000006001600160a01b0316036109d257604051635f886e9d60e11b815260040160405180910390fd5b5f6109df8284018461196e565b90505f81515f146109f6576109f382611022565b90505b610a0e8160015b600160ff919091161b60041761104f565b610a397f000000000000000000000000000000000000000000000000000000000000000060016109fd565b50505050565b6002610a4d6105c833610e9f565b610a6e57338160405163bb6c163960e01b81526004016105a5929190611825565b61060182306001600160a01b031663129d81886040518163ffffffff1660e01b8152600401602060405180830381865afa158015610aae573d5f803e3d5ffd5b505050506040513d601f19601f82011682018060405250810190610ad291906119a0565b6110af565b60608167ffffffffffffffff811115610af257610af26118cf565b604051908082528060200260200182016040528015610b2557816020015b6060815260200190600190039081610b105790505b5090505f60605f5b84811015610bff5730868683818110610b4857610b486119b7565b9050602002810190610b5a91906119cb565b604051610b68929190611a0e565b5f60405180830381855af49150503d805f8114610ba0576040519150601f19603f3d011682016040523d82523d5f602084013e610ba5565b606091505b50909350915082610bd95781515f03610bd1576040516309ad446560e31b815260040160405180910390fd5b815182602001fd5b81848281518110610bec57610bec6119b7565b6020908102919091010152600101610b2d565b50505092915050565b6001610c166105c833610e9f565b610c3757338160405163bb6c163960e01b81526004016105a5929190611825565b610848838360046110ff565b6040516001600160a01b038381166024830152604482018390525f918291829190871690632770a7eb60e21b906064015b60408051601f198184030181529181526020820180516001600160e01b03166001600160e01b0319909416939093179092529051610cb29190611a1d565b5f604051808303815f865af19150503d805f8114610ceb576040519150601f19603f3d011682016040523d82523d5f602084013e610cf0565b606091505b509150915081610d345760405162461bcd60e51b815260206004820152600f60248201526e151153081b5a5b9d0819985a5b1959608a1b60448201526064016105a5565b80806020019051810190610d4891906119a0565b9695505050505050565b6105b781336001611155565b336001600160a01b037f00000000000000000000000000000000000000000000000000000000000000001614610da957604051630d6c7be960e01b81523360048201526024016105a5565b6105b781611166565b5f61090d826002610968565b6040516001600160a01b038381166024830152604482018390525f9182918291908716906340c10f1960e01b90606401610c74565b6001610e016105c833610e9f565b610e2257338160405163bb6c163960e01b81526004016105a5929190611825565b6106018260026111ae565b5f610e3a82840184611a38565b949350505050565b5f610e585f80516020611ac28339815191525490565b9050805f03610e65575050565b5f610e72615460426118b0565b90505f610e7e82610fe8565b90505f610e8a83610f72565b9050610e98848383886111be565b5050505050565b5f80610789836112c8565b61060182600160ff84161b61104f565b5f80836001600160a01b031683604051610ed49190611a1d565b5f604051808303815f865af19150503d805f8114610f0d576040519150601f19603f3d011682016040523d82523d5f602084013e610f12565b606091505b50915091505f828015610f3d575081511580610f3d575081806020019051810190610f3d9190611a7c565b9050801580610f5457506001600160a01b0385163b155b15610e985760405163022e258160e11b815260040160405180910390fd5b604080517fb221f782e2afd1b10c9284a915bb8aa319f8e6cc8d90aebea117327eafbd28c160208201529081018290525f906060015b60408051601f19818403018152919052805160209091012092915050565b6108488383600160ff85161b6110ff565b6108488383600160ff85161b611334565b604080517ff4ff4213eda59f47bb3fdf8cb7fcc07540628bdeb7f1aebcfe07049bbd9f634f60208201529081018290525f90606001610fa8565b5f8151601414611047578160405163d08dbec560e01b81526004016105a5919061165a565b506014015190565b5f8161105a84610e9f565b17905061106783826113cc565b826001600160a01b03167f34e73c57659d4b6809b53db4feee9b007b892e978114eda420d2991aba150143836040516110a291815260200190565b60405180910390a2505050565b5f80516020611ac2833981519152829055604080513381526020810184905282917f024e856c5f6f5e287ff2be13db089b016f28a6ebe6aaffdfb5fa5b902fdd366b910160405180910390a25050565b61111261110b84610e9f565b8216821490565b61114157604051631fe9beed60e21b81526001600160a01b0384166004820152602481018290526044016105a5565b61114b83826113de565b610848828261104f565b6108488383600160ff85161b611432565b5f61117c5f80516020611ac28339815191525490565b9050805f03611189575050565b5f611196615460426118b0565b90505f6111a282610f72565b90505f610e8a83610fe8565b61060182600160ff84161b6113de565b825482546111cd835f19611a9b565b8211156111fd57604051633428985b60e21b815260048101849052602481018390523060448201526064016105a5565b611208865f19611a9b565b8111156112385760405163a6413e8b60e01b815260048101879052602481018290523060448201526064016105a5565b6112428682611aae565b61124c8484611aae565b111561128e5761125c8682611aae565b6112668484611aae565b604051632bab62d160e01b8152600481019290925260248201523060448201526064016105a5565b858311156112bf57604051632bab62d160e01b815260048101879052602481018490523060448201526064016105a5565b50019091555050565b5f7fde9bdca322e1a848f72215bc15cf2c87fe7749145789a9ee281a2a6290af26ab8260405160200161131792919091825260601b6bffffffffffffffffffffffff1916602082015260340190565b604051602081830303815290604052805190602001209050919050565b61134061110b84610e9f565b61136f57604051631fe9beed60e21b81526001600160a01b0384166004820152602481018290526044016105a5565b61137a83838361148b565b816001600160a01b0316836001600160a01b03167ff7158d1591c2cf17c0e6b9459d86365c47fe0969c79f40ef49e0c437d8f39914836040516113bf91815260200190565b60405180910390a3505050565b5f6113d6836112c8565b919091555050565b5f81196113ea84610e9f565b1690506113f783826113cc565b826001600160a01b03167fccf920c8facee98a9c2a6c6124f2857b87b17e9f3a819bfcc6945196ee77366b836040516110a291815260200190565b8061143d848461149f565b146114755760405163018013f960e61b81526001600160a01b03808516600483015283166024820152604481018290526064016105a5565b61148083835f61148b565b6108488383836110ff565b5f61149684846114b4565b91909155505050565b5f806114ab84846114b4565b54949350505050565b5f7ff96e07b2f4fbb81c31567d2b261589af429e98f0958d53f7e6ad5d63aea0ab7c838360405160200161151193929190928352606091821b6bffffffffffffffffffffffff199081166020850152911b16603482015260480190565b60405160208183030381529060405280519060200120905092915050565b5f6020828403121561153f575f80fd5b5035919050565b6001600160a01b03811681146105b7575f80fd5b5f6020828403121561156a575f80fd5b813561098281611546565b5f8083601f840112611585575f80fd5b50813567ffffffffffffffff81111561159c575f80fd5b6020830191508360208285010111156115b3575f80fd5b9250929050565b5f805f604084860312156115cc575f80fd5b833567ffffffffffffffff8111156115e2575f80fd5b6115ee86828701611575565b909450925050602084013561160281611546565b809150509250925092565b5f5b8381101561162757818101518382015260200161160f565b50505f910152565b5f815180845261164681602086016020860161160d565b601f01601f19169290920160200192915050565b602081525f610982602083018461162f565b5f805f6060848603121561167e575f80fd5b833561168981611546565b9250602084013561169981611546565b929592945050506040919091013590565b5f80604083850312156116bb575f80fd5b82356116c681611546565b9150602083013560ff811681146116db575f80fd5b809150509250929050565b5f80602083850312156116f7575f80fd5b823567ffffffffffffffff81111561170d575f80fd5b61171985828601611575565b90969095509350505050565b5f8060208385031215611736575f80fd5b823567ffffffffffffffff81111561174c575f80fd5b8301601f8101851361175c575f80fd5b803567ffffffffffffffff811115611772575f80fd5b8560208260051b8401011115611786575f80fd5b6020919091019590945092505050565b5f602082016020835280845180835260408501915060408160051b8601019250602086015f5b828110156117ed57603f198786030184526117d885835161162f565b945060209384019391909101906001016117bc565b50929695505050505050565b5f806040838503121561180a575f80fd5b823561181581611546565b915060208301356116db81611546565b6001600160a01b0392909216825260ff16602082015260400190565b60408152826040820152828460608301375f60608483018101919091526001600160a01b03929092166020820152601f909201601f191690910101919050565b5f60208284031215611891575f80fd5b815161098281611546565b634e487b7160e01b5f52601160045260245ffd5b5f826118ca57634e487b7160e01b5f52601260045260245ffd5b500490565b634e487b7160e01b5f52604160045260245ffd5b5f82601f8301126118f2575f80fd5b813567ffffffffffffffff81111561190c5761190c6118cf565b604051601f8201601f19908116603f0116810167ffffffffffffffff8111828210171561193b5761193b6118cf565b604052818152838201602001851015611952575f80fd5b816020850160208301375f918101602001919091529392505050565b5f6020828403121561197e575f80fd5b813567ffffffffffffffff811115611994575f80fd5b610e3a848285016118e3565b5f602082840312156119b0575f80fd5b5051919050565b634e487b7160e01b5f52603260045260245ffd5b5f808335601e198436030181126119e0575f80fd5b83018035915067ffffffffffffffff8211156119fa575f80fd5b6020019150368190038213156115b3575f80fd5b818382375f9101908152919050565b5f8251611a2e81846020870161160d565b9190910192915050565b5f8060408385031215611a49575f80fd5b823567ffffffffffffffff811115611a5f575f80fd5b611a6b858286016118e3565b92505060208301356116db81611546565b5f60208284031215611a8c575f80fd5b81518015158114610982575f80fd5b8181038181111561090d5761090d61189c565b8082018082111561090d5761090d61189c56fe201b7a0b7c19aaddc4ce9579b7df8d2db123805861bc7763627f13e04d8af42fa164736f6c634300081a000a",
    "linkReferences": {}
  },
  "methodIdentifiers": {
    "acceptOperatorship(address)": "da4886df",
    "addFlowIn(uint256)": "10d8d8e3",
    "addFlowLimiter(address)": "120a63b5",
    "addFlowOut(uint256)": "dce29136",
    "approveService()": "27415838",
    "burnToken(address,address,uint256)": "3416794d",
    "burnTokenWithReturn(address,address,uint256)": "b555943d",
    "contractId()": "8291286c",
    "flowInAmount()": "7dbab19b",
    "flowLimit()": "8b38b35d",
    "flowOutAmount()": "2f3c7888",
    "getTokenAddressFromParams(bytes)": "f5983e83",
    "hasRole(address,uint8)": "95a8c58d",
    "implementationType()": "4fdf7cb5",
    "interchainTokenId()": "129d8188",
    "interchainTokenService()": "09c6bed9",
    "isFlowLimiter(address)": "deb11e78",
    "isOperator(address)": "6d70f7ae",
    "mintToken(address,address,uint256)": "6bec32da",
    "mintTokenWithReturn(address,address,uint256)": "deb764f5",
    "multicall(bytes[])": "ac9650d8",
    "params(bytes,address)": "1c53d265",
    "proposeOperatorship(address)": "6f3eef62",
    "removeFlowLimiter(address)": "e915cfd1",
    "setFlowLimit(uint256)": "a56dbe63",
    "setup(bytes)": "9ded06df",
    "tokenAddress()": "9d76ea58",
    "transferFlowLimiter(address,address)": "adc0dc3b",
    "transferOperatorship(address)": "4a6a42d8"
  },
  "id": 151
}