{
  "abi": [
    {
      "type": "constructor",
      "inputs": [
        {
          "name": "telInterchainTokenId_",
          "type": "bytes32",
          "internalType": "bytes32"
        }
      ],
      "stateMutability": "nonpayable"
    },
    {
      "type": "function",
      "name": "giveToken",
      "inputs": [
        {
          "name": "tokenId",
          "type": "bytes32",
          "internalType": "bytes32"
        },
        {
          "name": "to",
          "type": "address",
          "internalType": "address"
        },
        {
          "name": "amount",
          "type": "uint256",
          "internalType": "uint256"
        }
      ],
      "outputs": [
        {
          "name": "",
          "type": "uint256",
          "internalType": "uint256"
        },
        {
          "name": "",
          "type": "address",
          "internalType": "address"
        }
      ],
      "stateMutability": "nonpayable"
    },
    {
      "type": "function",
      "name": "postTokenManagerDeploy",
      "inputs": [
        {
          "name": "tokenManagerType",
          "type": "uint256",
          "internalType": "uint256"
        },
        {
          "name": "tokenManager",
          "type": "address",
          "internalType": "contract ITokenManager"
        }
      ],
      "outputs": [],
      "stateMutability": "payable"
    },
    {
      "type": "function",
      "name": "takeToken",
      "inputs": [
        {
          "name": "tokenId",
          "type": "bytes32",
          "internalType": "bytes32"
        },
        {
          "name": "tokenOnly",
          "type": "bool",
          "internalType": "bool"
        },
        {
          "name": "from",
          "type": "address",
          "internalType": "address"
        },
        {
          "name": "amount",
          "type": "uint256",
          "internalType": "uint256"
        }
      ],
      "outputs": [
        {
          "name": "",
          "type": "uint256",
          "internalType": "uint256"
        }
      ],
      "stateMutability": "payable"
    },
    {
      "type": "function",
      "name": "telInterchainTokenId",
      "inputs": [],
      "outputs": [
        {
          "name": "",
          "type": "bytes32",
          "internalType": "bytes32"
        }
      ],
      "stateMutability": "view"
    },
    {
      "type": "function",
      "name": "transferTokenFrom",
      "inputs": [
        {
          "name": "tokenId",
          "type": "bytes32",
          "internalType": "bytes32"
        },
        {
          "name": "from",
          "type": "address",
          "internalType": "address"
        },
        {
          "name": "to",
          "type": "address",
          "internalType": "address"
        },
        {
          "name": "amount",
          "type": "uint256",
          "internalType": "uint256"
        }
      ],
      "outputs": [
        {
          "name": "",
          "type": "uint256",
          "internalType": "uint256"
        },
        {
          "name": "",
          "type": "address",
          "internalType": "address"
        }
      ],
      "stateMutability": "nonpayable"
    },
    {
      "type": "error",
      "name": "NotToken",
      "inputs": [
        {
          "name": "caller",
          "type": "address",
          "internalType": "address"
        },
        {
          "name": "token",
          "type": "address",
          "internalType": "address"
        }
      ]
    },
    {
      "type": "error",
      "name": "ReentrantCall",
      "inputs": []
    },
    {
      "type": "error",
      "name": "TokenTransferFailed",
      "inputs": []
    },
    {
      "type": "error",
      "name": "UnsupportedTokenManagerType",
      "inputs": [
        {
          "name": "tokenManagerType",
          "type": "uint256",
          "internalType": "uint256"
        }
      ]
    }
  ],
  "bytecode": {
    "object": "0x60a0604052348015600e575f80fd5b50604051611045380380611045833981016040819052602b916032565b6080526048565b5f602082840312156041575f80fd5b5051919050565b608051610fd861006d5f395f8181609f015281816109550152610a600152610fd85ff3fe608060405260043610610049575f3560e01c806320f75e081461004d57806366c08f7c1461008e578063dbd15f2f146100cf578063ea525483146100e4578063fb1ea8cf146100f7575b5f80fd5b348015610058575f80fd5b5061006c610067366004610c82565b610116565b604080519283526001600160a01b039091166020830152015b60405180910390f35b348015610099575f80fd5b506100c17f000000000000000000000000000000000000000000000000000000000000000081565b604051908152602001610085565b6100e26100dd366004610cc7565b610218565b005b6100c16100f2366004610d02565b610329565b348015610102575f80fd5b5061006c610111366004610d27565b6104b5565b5f805f610122876105fc565b90505f80826001600160a01b031663d4ae3c426040518163ffffffff1660e01b81526004016040805180830381865afa158015610161573d5f803e3d5ffd5b505050506040513d601f19601f820116820180604052508101906101859190610d5c565b90925090508115806101975750600282145b806101a25750600482145b806101ad5750600182145b156101cb576101be818989896106c7565b859450925061020f915050565b600382036101ee576101df818989896106e2565b9550859450925061020f915050565b60405163f24fcfa160e01b8152600481018390526024015b60405180910390fd5b94509492505050565b816102d957806001600160a01b0316639d76ea586040518163ffffffff1660e01b8152600401602060405180830381865afa158015610259573d5f803e3d5ffd5b505050506040513d601f19601f8201168201806040525081019061027d9190610d80565b6040516367c354ad60e11b81526001600160a01b038381166004830152919091169063cf86a95a906024015f604051808303815f87803b1580156102bf575f80fd5b505af11580156102d1573d5f803e3d5ffd5b505050505050565b60028214806102e85750600382145b1561032557806001600160a01b031663274158386040518163ffffffff1660e01b81526004015f604051808303815f87803b1580156102bf575f80fd5b5050565b5f80610334866105fc565b90505f80826001600160a01b031663d4ae3c426040518163ffffffff1660e01b81526004016040805180830381865afa158015610373573d5f803e3d5ffd5b505050506040513d601f19601f820116820180604052508101906103979190610d5c565b915091508680156103b15750336001600160a01b03821614155b156103e05760405163409304db60e01b81523360048201526001600160a01b0382166024820152604401610206565b6103eb838284610882565b8115806103f85750600482145b156104115761040a8884838989610952565b9450610451565b6001820361042957610424818787610a09565b610451565b6002820361043d57610424818785886106c7565b600382036101ee5761040a818785886106e2565b604051636e71489b60e11b8152600481018690526001600160a01b0384169063dce29136906024015f604051808303815f87803b158015610490575f80fd5b505af11580156104a2573d5f803e3d5ffd5b505050508493505050505b949350505050565b5f805f6104c1866105fc565b90505f80826001600160a01b031663d4ae3c426040518163ffffffff1660e01b81526004016040805180830381865afa158015610500573d5f803e3d5ffd5b505050506040513d601f19601f820116820180604052508101906105249190610d5c565b91509150610533838284610882565b6040516310d8d8e360e01b8152600481018790526001600160a01b038416906310d8d8e3906024015f604051808303815f87803b158015610572575f80fd5b505af1158015610584573d5f803e3d5ffd5b505f9250610590915050565b82148061059d5750600482145b806105a85750600182145b156105c1576105ba8884838a8a610a5d565b95506105ee565b600282036105da576105d5818489896106c7565b6105ee565b600382036101ee576105ba818489896106e2565b949794965093945050505050565b5f803083604051806101c001604052806101828152602001610e4a61018291398051602091820120604051610666949392016001600160f81b0319815260609390931b6bffffffffffffffffffffffff191660018401526015830191909152603582015260550190565b60408051601f1981840301815282825280516020918201206135a560f21b8285015260601b6bffffffffffffffffffffffff19166022840152600160f81b603684015281516017818503018152603790930190915281519101209392505050565b6106dc6001600160a01b038516848484610ac1565b50505050565b5f61070e7f1a771c70cada93a906f955a7dec24a83d7954ba2f75256be4febcf62b395d5325460021490565b1561072c576040516306fda65d60e31b815260040160405180910390fd5b61075560027f1a771c70cada93a906f955a7dec24a83d7954ba2f75256be4febcf62b395d53255565b6040516370a0823160e01b81526001600160a01b0384811660048301525f91908716906370a0823190602401602060405180830381865afa15801561079c573d5f803e3d5ffd5b505050506040513d601f19601f820116820180604052508101906107c09190610da2565b90506107ce868686866106c7565b6040516370a0823160e01b81526001600160a01b0385811660048301525f9183918916906370a0823190602401602060405180830381865afa158015610816573d5f803e3d5ffd5b505050506040513d601f19601f8201168201806040525081019061083a9190610da2565b6108449190610db9565b90508381106108535783610855565b805b925050506104ad60017f1a771c70cada93a906f955a7dec24a83d7954ba2f75256be4febcf62b395d53255565b801580156108f157506040516355138f0d60e11b81523060048201526001600160a01b0383169063aa271e1a90602401602060405180830381865afa1580156108cd573d5f803e3d5ffd5b505050506040513d601f19601f820116820180604052508101906108f19190610dde565b1561094d576040516367c354ad60e11b81526001600160a01b03848116600483015283169063cf86a95a906024015f604051808303815f87803b158015610936575f80fd5b505af1158015610948573d5f803e3d5ffd5b505050505b505050565b5f7f000000000000000000000000000000000000000000000000000000000000000086036109f15760405163b555943d60e01b81526001600160a01b0386169063b555943d906109aa90879087908790600401610df9565b6020604051808303815f875af11580156109c6573d5f803e3d5ffd5b505050506040513d601f19601f820116820180604052508101906109ea9190610da2565b9050610a00565b6109fd85858585610b19565b50805b95945050505050565b604080516001600160a01b03848116602483015260448083018590528351808403909101815260649092019092526020810180516001600160e01b031663079cc67960e41b17905261094d91851690610b7c565b5f7f00000000000000000000000000000000000000000000000000000000000000008603610ab55760405163deb764f560e01b81526001600160a01b0386169063deb764f5906109aa90879087908790600401610df9565b6109fd85858585610c3b565b6106dc846323b872dd60e01b858585604051602401610ae293929190610df9565b60408051601f198184030181529190526020810180516001600160e01b03166001600160e01b031990931692909217909152610b7c565b604051633416794d60e01b81526001600160a01b03851690633416794d90610b4990869086908690600401610df9565b5f604051808303815f87803b158015610b60575f80fd5b505af1158015610b72573d5f803e3d5ffd5b5050505050505050565b5f80836001600160a01b031683604051610b969190610e1d565b5f604051808303815f865af19150503d805f8114610bcf576040519150601f19603f3d011682016040523d82523d5f602084013e610bd4565b606091505b50915091505f828015610bff575081511580610bff575081806020019051810190610bff9190610dde565b9050801580610c1657506001600160a01b0385163b155b15610c345760405163022e258160e11b815260040160405180910390fd5b5050505050565b6040516335f6196d60e11b81526001600160a01b03851690636bec32da90610b4990869086908690600401610df9565b6001600160a01b0381168114610c7f575f80fd5b50565b5f805f8060808587031215610c95575f80fd5b843593506020850135610ca781610c6b565b92506040850135610cb781610c6b565b9396929550929360600135925050565b5f8060408385031215610cd8575f80fd5b823591506020830135610cea81610c6b565b809150509250929050565b8015158114610c7f575f80fd5b5f805f8060808587031215610d15575f80fd5b843593506020850135610ca781610cf5565b5f805f60608486031215610d39575f80fd5b833592506020840135610d4b81610c6b565b929592945050506040919091013590565b5f8060408385031215610d6d575f80fd5b82516020840151909250610cea81610c6b565b5f60208284031215610d90575f80fd5b8151610d9b81610c6b565b9392505050565b5f60208284031215610db2575f80fd5b5051919050565b81810381811115610dd857634e487b7160e01b5f52601160045260245ffd5b92915050565b5f60208284031215610dee575f80fd5b8151610d9b81610cf5565b6001600160a01b039384168152919092166020820152604081019190915260600190565b5f82515f5b81811015610e3c5760208186018101518583015201610e22565b505f92019182525091905056fe608060405234801561001057600080fd5b50610162806100206000396000f3fe60806040526004361061001d5760003560e01c806277436014610022575b600080fd5b61003561003036600461007b565b610037565b005b8051602082016000f061004957600080fd5b50565b7f4e487b7100000000000000000000000000000000000000000000000000000000600052604160045260246000fd5b60006020828403121561008d57600080fd5b813567ffffffffffffffff808211156100a557600080fd5b818401915084601f8301126100b957600080fd5b8135818111156100cb576100cb61004c565b604051601f8201601f19908116603f011681019083821181831017156100f3576100f361004c565b8160405282815287602084870101111561010c57600080fd5b82602086016020830137600092810160200192909252509594505050505056fea264697066735822122094780ce55d28f1d568f4e0ab1b9dc230b96e952b73d2e06456fbff2289fa27f464736f6c63430008150033a164736f6c634300081a000a",
    "linkReferences": {}
  },
  "methodIdentifiers": {
    "giveToken(bytes32,address,uint256)": "fb1ea8cf",
    "postTokenManagerDeploy(uint256,address)": "dbd15f2f",
    "takeToken(bytes32,bool,address,uint256)": "ea525483",
    "telInterchainTokenId()": "66c08f7c",
    "transferTokenFrom(bytes32,address,address,uint256)": "20f75e08"
  },
  "id": 150
}