{
  "abi": [
    {
      "type": "function",
      "name": "deployTokenManager",
      "inputs": [
        {
          "name": "tokenId",
          "type": "bytes32",
          "internalType": "bytes32"
        },
        {
          "name": "implementationType",
          "type": "uint256",
          "internalType": "uint256"
        },
        {
          "name": "params",
          "type": "bytes",
          "internalType": "bytes"
        }
      ],
      "outputs": [
        {
          "name": "tokenManager",
          "type": "address",
          "internalType": "address"
        }
      ],
      "stateMutability": "payable"
    },
    {
      "type": "error",
      "name": "AlreadyDeployed",
      "inputs": []
    },
    {
      "type": "error",
      "name": "DeployFailed",
      "inputs": []
    },
    {
      "type": "error",
      "name": "EmptyBytecode",
      "inputs": []
    },
    {
      "type": "error",
      "name": "TokenManagerDeploymentFailed",
      "inputs": []
    }
  ],
  "bytecode": {
    "object": "0x6080604052348015600e575f80fd5b50610dc88061001c5f395ff3fe60806040526004361061001d575f3560e01c80636519d04b14610021575b5f80fd5b61003461002f36600461032d565b610050565b6040516001600160a01b03909116815260200160405180910390f35b5f80308587868660405160200161006b9594939291906103a9565b60405160208183030381529060405290505f6040518060200161008d90610320565b601f1982820381018352601f9091011660408190526100b191908490602001610416565b60405160208183030381529060405290506100cc8188610102565b9250826001600160a01b03163b5f036100f857604051630458f0e360e31b815260040160405180910390fd5b5050949350505050565b5f61010c82610213565b905082515f0361012f576040516321744a5960e01b815260040160405180910390fd5b610141816001600160a01b03166102de565b1561015f5760405163a6ef0ba160e01b815260040160405180910390fd5b5f80604051806101c001604052806101828152602001610c3a610182913980519091508481602084015ff592506001600160a01b0383166101b35760405163b4f5411160e01b815260040160405180910390fd5b6040516203ba1b60e51b81526001600160a01b0384169062774360906101dd908990600401610444565b5f604051808303815f87803b1580156101f4575f80fd5b505af1158015610206573d5f803e3d5ffd5b5050505050505092915050565b5f803083604051806101c001604052806101828152602001610c3a6101829139805160209182012060405161027d949392016001600160f81b0319815260609390931b6bffffffffffffffffffffffff191660018401526015830191909152603582015260550190565b60408051601f1981840301815282825280516020918201206135a560f21b8285015260601b6bffffffffffffffffffffffff19166022840152600160f81b603684015281516017818503018152603790930190915281519101209392505050565b5f6001600160a01b0382163f801580159061031957507fc5d2460186f7233c927e7db2dcc703c0e500b653ca82273b7bfad8045d85a4708114155b9392505050565b6107c38061047783390190565b5f805f8060608587031215610340575f80fd5b8435935060208501359250604085013567ffffffffffffffff811115610364575f80fd5b8501601f81018713610374575f80fd5b803567ffffffffffffffff81111561038a575f80fd5b87602082840101111561039b575f80fd5b949793965060200194505050565b60018060a01b038616815284602082015283604082015260806060820152816080820152818360a08301375f81830160a090810191909152601f909201601f19160101949350505050565b5f5b8381101561040e5781810151838201526020016103f6565b50505f910152565b5f83516104278184602088016103f4565b83519083019061043b8183602088016103f4565b01949350505050565b602081525f82518060208401526104628160408501602087016103f4565b601f01601f1916919091016040019291505056fe610100604052348015610010575f80fd5b506040516107c33803806107c383398101604081905261002f916102a6565b6001600160a01b0384166100565760405163d92e233d60e01b815260040160405180910390fd5b6001600160a01b03841660805260a083905260c08290525f61007885856101e5565b90506001600160a01b0381166100a15760405163340aafcd60e11b815260040160405180910390fd5b5f816001600160a01b0316639ded06df60e01b846040516024016100c59190610378565b60408051601f198184030181529181526020820180516001600160e01b03166001600160e01b031990941693909317909252905161010391906103aa565b5f60405180830381855af49150503d805f811461013b576040519150601f19603f3d011682016040523d82523d5f602084013e610140565b606091505b5050905080610162576040516397905dfb60e01b815260040160405180910390fd5b60405163f5983e8360e01b81526001600160a01b0383169063f5983e839061018e908690600401610378565b602060405180830381865afa1580156101a9573d5f803e3d5ffd5b505050506040513d601f19601f820116820180604052508101906101cd91906103c5565b6001600160a01b031660e052506103de945050505050565b604051633f0a8fd360e11b8152600481018290525f906001600160a01b03841690637e151fa690602401602060405180830381865afa15801561022a573d5f803e3d5ffd5b505050506040513d601f19601f8201168201806040525081019061024e91906103c5565b9392505050565b80516001600160a01b038116811461026b575f80fd5b919050565b634e487b7160e01b5f52604160045260245ffd5b5f5b8381101561029e578181015183820152602001610286565b50505f910152565b5f805f80608085870312156102b9575f80fd5b6102c285610255565b60208601516040870151606088015192965090945092506001600160401b038111156102ec575f80fd5b8501601f810187136102fc575f80fd5b80516001600160401b0381111561031557610315610270565b604051601f8201601f19908116603f011681016001600160401b038111828210171561034357610343610270565b60405281815282820160200189101561035a575f80fd5b61036b826020830160208601610284565b9598949750929550505050565b602081525f8251806020840152610396816040850160208701610284565b601f01601f19169190910160400192915050565b5f82516103bb818460208701610284565b9190910192915050565b5f602082840312156103d5575f80fd5b61024e82610255565b60805160a05160c05160e05161039761042c5f395f818161018e015261020b01525f61010601525f8181610147015281816101e0015261025d01525f818160b6015261023c01526103975ff3fe608060405260043610610073575f3560e01c80635c60da1b1161004d5780635c60da1b146101695780639d76ea581461017d5780639ded06df146101b0578063d4ae3c42146101ce5761007a565b806309c6bed9146100a5578063129d8188146100f55780634fdf7cb5146101365761007a565b3661007a57005b5f610083610236565b9050365f80375f80365f845af43d5f803e80801561009f573d5ff35b3d5ffd5b005b3480156100b0575f80fd5b506100d87f000000000000000000000000000000000000000000000000000000000000000081565b6040516001600160a01b0390911681526020015b60405180910390f35b348015610100575f80fd5b506101287f000000000000000000000000000000000000000000000000000000000000000081565b6040519081526020016100ec565b348015610141575f80fd5b506101287f000000000000000000000000000000000000000000000000000000000000000081565b348015610174575f80fd5b506100d8610236565b348015610188575f80fd5b506100d87f000000000000000000000000000000000000000000000000000000000000000081565b3480156101bb575f80fd5b506100a36101ca3660046102f6565b5050565b3480156101d9575f80fd5b50604080517f000000000000000000000000000000000000000000000000000000000000000081526001600160a01b037f0000000000000000000000000000000000000000000000000000000000000000166020820152016100ec565b5f6102817f00000000000000000000000000000000000000000000000000000000000000007f0000000000000000000000000000000000000000000000000000000000000000610286565b905090565b604051633f0a8fd360e11b8152600481018290525f906001600160a01b03841690637e151fa690602401602060405180830381865afa1580156102cb573d5f803e3d5ffd5b505050506040513d601f19601f820116820180604052508101906102ef9190610364565b9392505050565b5f8060208385031215610307575f80fd5b823567ffffffffffffffff81111561031d575f80fd5b8301601f8101851361032d575f80fd5b803567ffffffffffffffff811115610343575f80fd5b856020828401011115610354575f80fd5b6020919091019590945092505050565b5f60208284031215610374575f80fd5b81516001600160a01b03811681146102ef575f80fdfea164736f6c634300081a000a608060405234801561001057600080fd5b50610162806100206000396000f3fe60806040526004361061001d5760003560e01c806277436014610022575b600080fd5b61003561003036600461007b565b610037565b005b8051602082016000f061004957600080fd5b50565b7f4e487b7100000000000000000000000000000000000000000000000000000000600052604160045260246000fd5b60006020828403121561008d57600080fd5b813567ffffffffffffffff808211156100a557600080fd5b818401915084601f8301126100b957600080fd5b8135818111156100cb576100cb61004c565b604051601f8201601f19908116603f011681019083821181831017156100f3576100f361004c565b8160405282815287602084870101111561010c57600080fd5b82602086016020830137600092810160200192909252509594505050505056fea264697066735822122094780ce55d28f1d568f4e0ab1b9dc230b96e952b73d2e06456fbff2289fa27f464736f6c63430008150033a164736f6c634300081a000a",
    "linkReferences": {}
  },
  "methodIdentifiers": {
    "deployTokenManager(bytes32,uint256,bytes)": "6519d04b"
  },
  "id": 106
}