{"abi":[{"type":"function","name":"giveToken","inputs":[{"name":"tokenId","type":"bytes32","internalType":"bytes32"},{"name":"to","type":"address","internalType":"address"},{"name":"amount","type":"uint256","internalType":"uint256"}],"outputs":[{"name":"","type":"uint256","internalType":"uint256"},{"name":"","type":"address","internalType":"address"}],"stateMutability":"nonpayable"},{"type":"function","name":"postTokenManagerDeploy","inputs":[{"name":"tokenManagerType","type":"uint256","internalType":"uint256"},{"name":"tokenManager","type":"address","internalType":"contract ITokenManager"}],"outputs":[],"stateMutability":"payable"},{"type":"function","name":"takeToken","inputs":[{"name":"tokenId","type":"bytes32","internalType":"bytes32"},{"name":"tokenOnly","type":"bool","internalType":"bool"},{"name":"from","type":"address","internalType":"address"},{"name":"amount","type":"uint256","internalType":"uint256"}],"outputs":[{"name":"","type":"uint256","internalType":"uint256"}],"stateMutability":"payable"},{"type":"function","name":"transferTokenFrom","inputs":[{"name":"tokenId","type":"bytes32","internalType":"bytes32"},{"name":"from","type":"address","internalType":"address"},{"name":"to","type":"address","internalType":"address"},{"name":"amount","type":"uint256","internalType":"uint256"}],"outputs":[{"name":"","type":"uint256","internalType":"uint256"},{"name":"","type":"address","internalType":"address"}],"stateMutability":"nonpayable"},{"type":"error","name":"NotToken","inputs":[{"name":"caller","type":"address","internalType":"address"},{"name":"token","type":"address","internalType":"address"}]},{"type":"error","name":"ReentrantCall","inputs":[]},{"type":"error","name":"TokenTransferFailed","inputs":[]},{"type":"error","name":"UnsupportedTokenManagerType","inputs":[{"name":"tokenManagerType","type":"uint256","internalType":"uint256"}]}],"bytecode":{"object":"0x6080604052348015600e575f80fd5b50610e658061001c5f395ff3fe60806040526004361061003e575f3560e01c806320f75e0814610042578063dbd15f2f14610083578063ea52548314610098578063fb1ea8cf146100b9575b5f80fd5b34801561004d575f80fd5b5061006161005c366004610b33565b6100d8565b604080519283526001600160a01b039091166020830152015b60405180910390f35b610096610091366004610b78565b6101da565b005b6100ab6100a6366004610bb3565b6102eb565b60405190815260200161007a565b3480156100c4575f80fd5b506100616100d3366004610bd8565b610472565b5f805f6100e4876105b4565b90505f80826001600160a01b031663d4ae3c426040518163ffffffff1660e01b81526004016040805180830381865afa158015610123573d5f803e3d5ffd5b505050506040513d601f19601f820116820180604052508101906101479190610c0d565b90925090508115806101595750600282145b806101645750600482145b8061016f5750600182145b1561018d576101808189898961067f565b85945092506101d1915050565b600382036101b0576101a18189898961069a565b955085945092506101d1915050565b60405163f24fcfa160e01b8152600481018390526024015b60405180910390fd5b94509492505050565b8161029b57806001600160a01b0316639d76ea586040518163ffffffff1660e01b8152600401602060405180830381865afa15801561021b573d5f803e3d5ffd5b505050506040513d601f19601f8201168201806040525081019061023f9190610c31565b6040516367c354ad60e11b81526001600160a01b038381166004830152919091169063cf86a95a906024015f604051808303815f87803b158015610281575f80fd5b505af1158015610293573d5f803e3d5ffd5b505050505050565b60028214806102aa5750600382145b156102e757806001600160a01b031663274158386040518163ffffffff1660e01b81526004015f604051808303815f87803b158015610281575f80fd5b5050565b5f806102f6866105b4565b90505f80826001600160a01b031663d4ae3c426040518163ffffffff1660e01b81526004016040805180830381865afa158015610335573d5f803e3d5ffd5b505050506040513d601f19601f820116820180604052508101906103599190610c0d565b915091508680156103735750336001600160a01b03821614155b156103a25760405163409304db60e01b81523360048201526001600160a01b03821660248201526044016101c8565b6103ad83828461083a565b8115806103ba5750600482145b156103d0576103cb8382888861090a565b61040e565b600182036103e3576103cb818787610976565b600282036103f7576103cb8187858861067f565b600382036101b05761040b8187858861069a565b94505b604051636e71489b60e11b8152600481018690526001600160a01b0384169063dce29136906024015f604051808303815f87803b15801561044d575f80fd5b505af115801561045f573d5f803e3d5ffd5b505050508493505050505b949350505050565b5f805f61047e866105b4565b90505f80826001600160a01b031663d4ae3c426040518163ffffffff1660e01b81526004016040805180830381865afa1580156104bd573d5f803e3d5ffd5b505050506040513d601f19601f820116820180604052508101906104e19190610c0d565b915091506104f083828461083a565b6040516310d8d8e360e01b8152600481018790526001600160a01b038416906310d8d8e3906024015f604051808303815f87803b15801561052f575f80fd5b505af1158015610541573d5f803e3d5ffd5b505f925061054d915050565b82148061055a5750600482145b806105655750600182145b1561057b57610576838289896109ca565b6105a6565b6002820361058f576105768184898961067f565b600382036101b0576105a38184898961069a565b95505b949794965093945050505050565b5f803083604051806101c001604052806101828152602001610cd76101829139805160209182012060405161061e949392016001600160f81b0319815260609390931b6bffffffffffffffffffffffff191660018401526015830191909152603582015260550190565b60408051601f1981840301815282825280516020918201206135a560f21b8285015260601b6bffffffffffffffffffffffff19166022840152600160f81b603684015281516017818503018152603790930190915281519101209392505050565b6106946001600160a01b038516848484610a07565b50505050565b5f6106c67f1a771c70cada93a906f955a7dec24a83d7954ba2f75256be4febcf62b395d5325460021490565b156106e4576040516306fda65d60e31b815260040160405180910390fd5b61070d60027f1a771c70cada93a906f955a7dec24a83d7954ba2f75256be4febcf62b395d53255565b6040516370a0823160e01b81526001600160a01b0384811660048301525f91908716906370a0823190602401602060405180830381865afa158015610754573d5f803e3d5ffd5b505050506040513d601f19601f820116820180604052508101906107789190610c53565b90506107868686868661067f565b6040516370a0823160e01b81526001600160a01b0385811660048301525f9183918916906370a0823190602401602060405180830381865afa1580156107ce573d5f803e3d5ffd5b505050506040513d601f19601f820116820180604052508101906107f29190610c53565b6107fc9190610c6a565b905083811061080b578361080d565b805b9250505061046a60017f1a771c70cada93a906f955a7dec24a83d7954ba2f75256be4febcf62b395d53255565b801580156108a957506040516355138f0d60e11b81523060048201526001600160a01b0383169063aa271e1a90602401602060405180830381865afa158015610885573d5f803e3d5ffd5b505050506040513d601f19601f820116820180604052508101906108a99190610c8f565b15610905576040516367c354ad60e11b81526001600160a01b03848116600483015283169063cf86a95a906024015f604051808303815f87803b1580156108ee575f80fd5b505af1158015610900573d5f803e3d5ffd5b505050505b505050565b604051633416794d60e01b81526001600160a01b038481166004830152838116602483015260448201839052851690633416794d906064015b5f604051808303815f87803b15801561095a575f80fd5b505af115801561096c573d5f803e3d5ffd5b5050505050505050565b604080516001600160a01b03848116602483015260448083018590528351808403909101815260649092019092526020810180516001600160e01b031663079cc67960e41b17905261090591851690610a5d565b6040516335f6196d60e11b81526001600160a01b038481166004830152838116602483015260448201839052851690636bec32da90606401610943565b604080516001600160a01b0385811660248301528416604482015260648082018490528251808303909101815260849091019091526020810180516001600160e01b03166323b872dd60e01b1790526106949085905b5f80836001600160a01b031683604051610a779190610caa565b5f604051808303815f865af19150503d805f8114610ab0576040519150601f19603f3d011682016040523d82523d5f602084013e610ab5565b606091505b50915091505f828015610ae0575081511580610ae0575081806020019051810190610ae09190610c8f565b9050801580610af757506001600160a01b0385163b155b15610b155760405163022e258160e11b815260040160405180910390fd5b5050505050565b6001600160a01b0381168114610b30575f80fd5b50565b5f805f8060808587031215610b46575f80fd5b843593506020850135610b5881610b1c565b92506040850135610b6881610b1c565b9396929550929360600135925050565b5f8060408385031215610b89575f80fd5b823591506020830135610b9b81610b1c565b809150509250929050565b8015158114610b30575f80fd5b5f805f8060808587031215610bc6575f80fd5b843593506020850135610b5881610ba6565b5f805f60608486031215610bea575f80fd5b833592506020840135610bfc81610b1c565b929592945050506040919091013590565b5f8060408385031215610c1e575f80fd5b82516020840151909250610b9b81610b1c565b5f60208284031215610c41575f80fd5b8151610c4c81610b1c565b9392505050565b5f60208284031215610c63575f80fd5b5051919050565b81810381811115610c8957634e487b7160e01b5f52601160045260245ffd5b92915050565b5f60208284031215610c9f575f80fd5b8151610c4c81610ba6565b5f82515f5b81811015610cc95760208186018101518583015201610caf565b505f92019182525091905056fe608060405234801561001057600080fd5b50610162806100206000396000f3fe60806040526004361061001d5760003560e01c806277436014610022575b600080fd5b61003561003036600461007b565b610037565b005b8051602082016000f061004957600080fd5b50565b7f4e487b7100000000000000000000000000000000000000000000000000000000600052604160045260246000fd5b60006020828403121561008d57600080fd5b813567ffffffffffffffff808211156100a557600080fd5b818401915084601f8301126100b957600080fd5b8135818111156100cb576100cb61004c565b604051601f8201601f19908116603f011681019083821181831017156100f3576100f361004c565b8160405282815287602084870101111561010c57600080fd5b82602086016020830137600092810160200192909252509594505050505056fea264697066735822122094780ce55d28f1d568f4e0ab1b9dc230b96e952b73d2e06456fbff2289fa27f464736f6c63430008150033a164736f6c634300081a000a","linkReferences":{}},"methodIdentifiers":{"giveToken(bytes32,address,uint256)":"fb1ea8cf","postTokenManagerDeploy(uint256,address)":"dbd15f2f","takeToken(bytes32,bool,address,uint256)":"ea525483","transferTokenFrom(bytes32,address,address,uint256)":"20f75e08"},"id":209}