{"abi":[{"type":"constructor","inputs":[{"name":"interchainTokenService_","type":"address","internalType":"address"}],"stateMutability":"nonpayable"},{"type":"function","name":"acceptOperatorship","inputs":[{"name":"fromOperator","type":"address","internalType":"address"}],"outputs":[],"stateMutability":"nonpayable"},{"type":"function","name":"addFlowIn","inputs":[{"name":"amount","type":"uint256","internalType":"uint256"}],"outputs":[],"stateMutability":"nonpayable"},{"type":"function","name":"addFlowLimiter","inputs":[{"name":"flowLimiter","type":"address","internalType":"address"}],"outputs":[],"stateMutability":"nonpayable"},{"type":"function","name":"addFlowOut","inputs":[{"name":"amount","type":"uint256","internalType":"uint256"}],"outputs":[],"stateMutability":"nonpayable"},{"type":"function","name":"approveService","inputs":[],"outputs":[],"stateMutability":"nonpayable"},{"type":"function","name":"burnToken","inputs":[{"name":"tokenAddress_","type":"address","internalType":"address"},{"name":"from","type":"address","internalType":"address"},{"name":"amount","type":"uint256","internalType":"uint256"}],"outputs":[],"stateMutability":"nonpayable"},{"type":"function","name":"contractId","inputs":[],"outputs":[{"name":"","type":"bytes32","internalType":"bytes32"}],"stateMutability":"pure"},{"type":"function","name":"flowInAmount","inputs":[],"outputs":[{"name":"flowInAmount_","type":"uint256","internalType":"uint256"}],"stateMutability":"view"},{"type":"function","name":"flowLimit","inputs":[],"outputs":[{"name":"flowLimit_","type":"uint256","internalType":"uint256"}],"stateMutability":"view"},{"type":"function","name":"flowOutAmount","inputs":[],"outputs":[{"name":"flowOutAmount_","type":"uint256","internalType":"uint256"}],"stateMutability":"view"},{"type":"function","name":"getTokenAddressFromParams","inputs":[{"name":"params_","type":"bytes","internalType":"bytes"}],"outputs":[{"name":"tokenAddress_","type":"address","internalType":"address"}],"stateMutability":"pure"},{"type":"function","name":"hasRole","inputs":[{"name":"account","type":"address","internalType":"address"},{"name":"role","type":"uint8","internalType":"uint8"}],"outputs":[{"name":"","type":"bool","internalType":"bool"}],"stateMutability":"view"},{"type":"function","name":"implementationType","inputs":[],"outputs":[{"name":"","type":"uint256","internalType":"uint256"}],"stateMutability":"pure"},{"type":"function","name":"interchainTokenId","inputs":[],"outputs":[{"name":"","type":"bytes32","internalType":"bytes32"}],"stateMutability":"pure"},{"type":"function","name":"interchainTokenService","inputs":[],"outputs":[{"name":"","type":"address","internalType":"address"}],"stateMutability":"view"},{"type":"function","name":"isFlowLimiter","inputs":[{"name":"addr","type":"address","internalType":"address"}],"outputs":[{"name":"","type":"bool","internalType":"bool"}],"stateMutability":"view"},{"type":"function","name":"isOperator","inputs":[{"name":"addr","type":"address","internalType":"address"}],"outputs":[{"name":"","type":"bool","internalType":"bool"}],"stateMutability":"view"},{"type":"function","name":"mintToken","inputs":[{"name":"tokenAddress_","type":"address","internalType":"address"},{"name":"to","type":"address","internalType":"address"},{"name":"amount","type":"uint256","internalType":"uint256"}],"outputs":[],"stateMutability":"nonpayable"},{"type":"function","name":"multicall","inputs":[{"name":"data","type":"bytes[]","internalType":"bytes[]"}],"outputs":[{"name":"results","type":"bytes[]","internalType":"bytes[]"}],"stateMutability":"payable"},{"type":"function","name":"params","inputs":[{"name":"operator_","type":"bytes","internalType":"bytes"},{"name":"tokenAddress_","type":"address","internalType":"address"}],"outputs":[{"name":"params_","type":"bytes","internalType":"bytes"}],"stateMutability":"pure"},{"type":"function","name":"proposeOperatorship","inputs":[{"name":"operator","type":"address","internalType":"address"}],"outputs":[],"stateMutability":"nonpayable"},{"type":"function","name":"removeFlowLimiter","inputs":[{"name":"flowLimiter","type":"address","internalType":"address"}],"outputs":[],"stateMutability":"nonpayable"},{"type":"function","name":"setFlowLimit","inputs":[{"name":"flowLimit_","type":"uint256","internalType":"uint256"}],"outputs":[],"stateMutability":"nonpayable"},{"type":"function","name":"setup","inputs":[{"name":"params_","type":"bytes","internalType":"bytes"}],"outputs":[],"stateMutability":"nonpayable"},{"type":"function","name":"tokenAddress","inputs":[],"outputs":[{"name":"","type":"address","internalType":"address"}],"stateMutability":"view"},{"type":"function","name":"transferFlowLimiter","inputs":[{"name":"from","type":"address","internalType":"address"},{"name":"to","type":"address","internalType":"address"}],"outputs":[],"stateMutability":"nonpayable"},{"type":"function","name":"transferOperatorship","inputs":[{"name":"operator","type":"address","internalType":"address"}],"outputs":[],"stateMutability":"nonpayable"},{"type":"event","name":"FlowLimitSet","inputs":[{"name":"tokenId","type":"bytes32","indexed":true,"internalType":"bytes32"},{"name":"operator","type":"address","indexed":false,"internalType":"address"},{"name":"flowLimit_","type":"uint256","indexed":false,"internalType":"uint256"}],"anonymous":false},{"type":"event","name":"RolesAdded","inputs":[{"name":"account","type":"address","indexed":true,"internalType":"address"},{"name":"accountRoles","type":"uint256","indexed":false,"internalType":"uint256"}],"anonymous":false},{"type":"event","name":"RolesProposed","inputs":[{"name":"fromAccount","type":"address","indexed":true,"internalType":"address"},{"name":"toAccount","type":"address","indexed":true,"internalType":"address"},{"name":"accountRoles","type":"uint256","indexed":false,"internalType":"uint256"}],"anonymous":false},{"type":"event","name":"RolesRemoved","inputs":[{"name":"account","type":"address","indexed":true,"internalType":"address"},{"name":"accountRoles","type":"uint256","indexed":false,"internalType":"uint256"}],"anonymous":false},{"type":"error","name":"AlreadyFlowLimiter","inputs":[{"name":"flowLimiter","type":"address","internalType":"address"}]},{"type":"error","name":"FlowAdditionOverflow","inputs":[{"name":"flowAmount","type":"uint256","internalType":"uint256"},{"name":"flowToAdd","type":"uint256","internalType":"uint256"},{"name":"tokenManager","type":"address","internalType":"address"}]},{"type":"error","name":"FlowLimitExceeded","inputs":[{"name":"limit","type":"uint256","internalType":"uint256"},{"name":"flowAmount","type":"uint256","internalType":"uint256"},{"name":"tokenManager","type":"address","internalType":"address"}]},{"type":"error","name":"FlowLimitOverflow","inputs":[{"name":"flowLimit","type":"uint256","internalType":"uint256"},{"name":"flowToCompare","type":"uint256","internalType":"uint256"},{"name":"tokenManager","type":"address","internalType":"address"}]},{"type":"error","name":"GiveTokenFailed","inputs":[]},{"type":"error","name":"InvalidBytesLength","inputs":[{"name":"bytesAddress","type":"bytes","internalType":"bytes"}]},{"type":"error","name":"InvalidProposedRoles","inputs":[{"name":"fromAccount","type":"address","internalType":"address"},{"name":"toAccount","type":"address","internalType":"address"},{"name":"accountRoles","type":"uint256","internalType":"uint256"}]},{"type":"error","name":"MissingAllRoles","inputs":[{"name":"account","type":"address","internalType":"address"},{"name":"accountRoles","type":"uint256","internalType":"uint256"}]},{"type":"error","name":"MissingAnyOfRoles","inputs":[{"name":"account","type":"address","internalType":"address"},{"name":"accountRoles","type":"uint256","internalType":"uint256"}]},{"type":"error","name":"MissingRole","inputs":[{"name":"account","type":"address","internalType":"address"},{"name":"role","type":"uint8","internalType":"uint8"}]},{"type":"error","name":"MulticallFailed","inputs":[]},{"type":"error","name":"NotFlowLimiter","inputs":[{"name":"flowLimiter","type":"address","internalType":"address"}]},{"type":"error","name":"NotProxy","inputs":[]},{"type":"error","name":"NotService","inputs":[{"name":"caller","type":"address","internalType":"address"}]},{"type":"error","name":"NotSupported","inputs":[]},{"type":"error","name":"NotToken","inputs":[{"name":"caller","type":"address","internalType":"address"}]},{"type":"error","name":"TakeTokenFailed","inputs":[]},{"type":"error","name":"TokenLinkerZeroAddress","inputs":[]},{"type":"error","name":"TokenTransferFailed","inputs":[]},{"type":"error","name":"ZeroAddress","inputs":[]}],"bytecode":{"object":"0x60c060405234801561000f575f80fd5b50604051611a30380380611a3083398101604081905261002e9161006a565b306080526001600160a01b0381166100595760405163ba675fc760e01b815260040160405180910390fd5b6001600160a01b031660a052610097565b5f6020828403121561007a575f80fd5b81516001600160a01b0381168114610090575f80fd5b9392505050565b60805160a0516119476100e95f395f81816101aa01528181610506015281816105f60152818161063c0152818161073901528181610830015281816109b00152610bf701525f61092901526119475ff3fe608060405260043610610195575f3560e01c80637dbab19b116100e7578063ac9650d811610087578063dce2913611610062578063dce291361461047f578063deb11e781461049e578063e915cfd1146104bd578063f5983e83146104dc575f80fd5b8063ac9650d814610421578063adc0dc3b14610441578063da4886df14610460575f80fd5b806395a8c58d116100c257806395a8c58d146103b05780639d76ea58146103cf5780639ded06df146103e3578063a56dbe6314610402575f80fd5b80637dbab19b1461034a5780638291286c1461035e5780638b38b35d14610390575f80fd5b80632f3c7888116101525780634fdf7cb51161012d5780634fdf7cb5146102295780636bec32da146102dd5780636d70f7ae146102fc5780636f3eef621461032b575f80fd5b80632f3c78881461028b5780633416794d1461029f5780634a6a42d8146102be575f80fd5b806309c6bed91461019957806310d8d8e3146101e9578063120a63b51461020a578063129d8188146102295780631c53d2651461024b5780632741583814610277575b5f80fd5b3480156101a4575f80fd5b506101cc7f000000000000000000000000000000000000000000000000000000000000000081565b6040516001600160a01b0390911681526020015b60405180910390f35b3480156101f4575f80fd5b50610208610203366004611388565b6104fb565b005b348015610215575f80fd5b506102086102243660046113b3565b610557565b348015610234575f80fd5b5061023d6105a2565b6040519081526020016101e0565b348015610256575f80fd5b5061026a610265366004611413565b6105bc565b6040516101e091906114b3565b348015610282575f80fd5b506102086105eb565b348015610296575f80fd5b5061023d61070c565b3480156102aa575f80fd5b506102086102b93660046114c5565b61072e565b3480156102c9575f80fd5b506102086102d83660046113b3565b6107ea565b3480156102e8575f80fd5b506102086102f73660046114c5565b610825565b348015610307575f80fd5b5061031b6103163660046113b3565b61089e565b60405190151581526020016101e0565b348015610336575f80fd5b506102086103453660046113b3565b6108b0565b348015610355575f80fd5b5061023d6108eb565b348015610369575f80fd5b507fde5fa9c0ef6d18cdb8ef4461bfb45c94dc915629a2a1f311fb33838aff95436f61023d565b34801561039b575f80fd5b505f8051602061191b8339815191525461023d565b3480156103bb575f80fd5b5061031b6103ca366004611503565b610905565b3480156103da575f80fd5b506101cc6105a2565b3480156103ee575f80fd5b506102086103fd36600461153f565b610926565b34801561040d575f80fd5b5061020861041c366004611388565b6109dc565b61043461042f36600461157e565b610a74565b6040516101e091906115ef565b34801561044c575f80fd5b5061020861045b366004611652565b610ba5565b34801561046b575f80fd5b5061020861047a3660046113b3565b610be0565b34801561048a575f80fd5b50610208610499366004611388565b610bec565b3480156104a9575f80fd5b5061031b6104b83660046113b3565b610c40565b3480156104c8575f80fd5b506102086104d73660046113b3565b610c4c565b3480156104e7575f80fd5b506101cc6104f636600461153f565b610c86565b336001600160a01b037f0000000000000000000000000000000000000000000000000000000000000000161461054b57604051630d6c7be960e01b81523360048201526024015b60405180910390fd5b61055481610c9b565b50565b600161057261056533610cf8565b600160ff84161b16151590565b61059357338160405163bb6c163960e01b815260040161054292919061167e565b61059e826002610d03565b5050565b5f604051630280e1e560e61b815260040160405180910390fd5b60608383836040516020016105d39392919061169a565b60405160208183030381529060405290509392505050565b336001600160a01b037f0000000000000000000000000000000000000000000000000000000000000000161461063657604051630d6c7be960e01b8152336004820152602401610542565b604080517f00000000000000000000000000000000000000000000000000000000000000006001600160a01b031660248201525f196044808301919091528251808303909101815260649091018252602080820180516001600160e01b031663095ea7b360e01b17905282516313aedd4b60e31b8152925161070a933092639d76ea58926004808401938290030181865afa1580156106d7573d5f803e3d5ffd5b505050506040513d601f19601f820116820180604052508101906106fb91906116da565b6001600160a01b031690610d13565b565b5f8061071a61546042611709565b90505f61072682610dcb565b549392505050565b336001600160a01b037f0000000000000000000000000000000000000000000000000000000000000000161461077957604051630d6c7be960e01b8152336004820152602401610542565b6040516001600160a01b0383166024820152604481018290526107e590632770a7eb60e21b906064015b60408051601f198184030181529190526020810180516001600160e01b03166001600160e01b0319909316929092179091526001600160a01b03851690610d13565b505050565b60016107f861056533610cf8565b61081957338160405163bb6c163960e01b815260040161054292919061167e565b61059e33836001610e1f565b336001600160a01b037f0000000000000000000000000000000000000000000000000000000000000000161461087057604051630d6c7be960e01b8152336004820152602401610542565b6040516001600160a01b0383166024820152604481018290526107e5906340c10f1960e01b906064016107a3565b5f6108aa826001610905565b92915050565b60016108be61056533610cf8565b6108df57338160405163bb6c163960e01b815260040161054292919061167e565b61059e33836001610e30565b5f806108f961546042611709565b90505f61072682610e41565b5f61091f61091284610cf8565b600160ff85161b16151590565b9392505050565b307f00000000000000000000000000000000000000000000000000000000000000006001600160a01b03160361096f57604051635f886e9d60e11b815260040160405180910390fd5b5f61097c828401846117c7565b90505f81515f146109935761099082610e7b565b90505b6109ab8160015b600160ff919091161b600417610ea8565b6109d67f0000000000000000000000000000000000000000000000000000000000000000600161099a565b50505050565b60026109ea61056533610cf8565b610a0b57338160405163bb6c163960e01b815260040161054292919061167e565b61059e82306001600160a01b031663129d81886040518163ffffffff1660e01b8152600401602060405180830381865afa158015610a4b573d5f803e3d5ffd5b505050506040513d601f19601f82011682018060405250810190610a6f91906117f9565b610f08565b60608167ffffffffffffffff811115610a8f57610a8f611728565b604051908082528060200260200182016040528015610ac257816020015b6060815260200190600190039081610aad5790505b5090505f60605f5b84811015610b9c5730868683818110610ae557610ae5611810565b9050602002810190610af79190611824565b604051610b05929190611867565b5f60405180830381855af49150503d805f8114610b3d576040519150601f19603f3d011682016040523d82523d5f602084013e610b42565b606091505b50909350915082610b765781515f03610b6e576040516309ad446560e31b815260040160405180910390fd5b815182602001fd5b81848281518110610b8957610b89611810565b6020908102919091010152600101610aca565b50505092915050565b6001610bb361056533610cf8565b610bd457338160405163bb6c163960e01b815260040161054292919061167e565b6107e583836004610f58565b61055481336001610fae565b336001600160a01b037f00000000000000000000000000000000000000000000000000000000000000001614610c3757604051630d6c7be960e01b8152336004820152602401610542565b61055481610fbf565b5f6108aa826002610905565b6001610c5a61056533610cf8565b610c7b57338160405163bb6c163960e01b815260040161054292919061167e565b61059e826002611007565b5f610c9382840184611876565b949350505050565b5f610cb15f8051602061191b8339815191525490565b9050805f03610cbe575050565b5f610ccb61546042611709565b90505f610cd782610e41565b90505f610ce383610dcb565b9050610cf184838388611017565b5050505050565b5f8061072683611121565b61059e82600160ff84161b610ea8565b5f80836001600160a01b031683604051610d2d91906118ba565b5f604051808303815f865af19150503d805f8114610d66576040519150601f19603f3d011682016040523d82523d5f602084013e610d6b565b606091505b50915091505f828015610d96575081511580610d96575081806020019051810190610d9691906118d5565b9050801580610dad57506001600160a01b0385163b155b15610cf15760405163022e258160e11b815260040160405180910390fd5b604080517fb221f782e2afd1b10c9284a915bb8aa319f8e6cc8d90aebea117327eafbd28c160208201529081018290525f906060015b60408051601f19818403018152919052805160209091012092915050565b6107e58383600160ff85161b610f58565b6107e58383600160ff85161b61118d565b604080517ff4ff4213eda59f47bb3fdf8cb7fcc07540628bdeb7f1aebcfe07049bbd9f634f60208201529081018290525f90606001610e01565b5f8151601414610ea0578160405163d08dbec560e01b815260040161054291906114b3565b506014015190565b5f81610eb384610cf8565b179050610ec08382611225565b826001600160a01b03167f34e73c57659d4b6809b53db4feee9b007b892e978114eda420d2991aba15014383604051610efb91815260200190565b60405180910390a2505050565b5f8051602061191b833981519152829055604080513381526020810184905282917f024e856c5f6f5e287ff2be13db089b016f28a6ebe6aaffdfb5fa5b902fdd366b910160405180910390a25050565b610f6b610f6484610cf8565b8216821490565b610f9a57604051631fe9beed60e21b81526001600160a01b038416600482015260248101829052604401610542565b610fa48382611237565b6107e58282610ea8565b6107e58383600160ff85161b61128b565b5f610fd55f8051602061191b8339815191525490565b9050805f03610fe2575050565b5f610fef61546042611709565b90505f610ffb82610dcb565b90505f610ce383610e41565b61059e82600160ff84161b611237565b82548254611026835f196118f4565b82111561105657604051633428985b60e21b81526004810184905260248101839052306044820152606401610542565b611061865f196118f4565b8111156110915760405163a6413e8b60e01b81526004810187905260248101829052306044820152606401610542565b61109b8682611907565b6110a58484611907565b11156110e7576110b58682611907565b6110bf8484611907565b604051632bab62d160e01b815260048101929092526024820152306044820152606401610542565b8583111561111857604051632bab62d160e01b81526004810187905260248101849052306044820152606401610542565b50019091555050565b5f7fde9bdca322e1a848f72215bc15cf2c87fe7749145789a9ee281a2a6290af26ab8260405160200161117092919091825260601b6bffffffffffffffffffffffff1916602082015260340190565b604051602081830303815290604052805190602001209050919050565b611199610f6484610cf8565b6111c857604051631fe9beed60e21b81526001600160a01b038416600482015260248101829052604401610542565b6111d38383836112e4565b816001600160a01b0316836001600160a01b03167ff7158d1591c2cf17c0e6b9459d86365c47fe0969c79f40ef49e0c437d8f399148360405161121891815260200190565b60405180910390a3505050565b5f61122f83611121565b919091555050565b5f811961124384610cf8565b1690506112508382611225565b826001600160a01b03167fccf920c8facee98a9c2a6c6124f2857b87b17e9f3a819bfcc6945196ee77366b83604051610efb91815260200190565b8061129684846112f8565b146112ce5760405163018013f960e61b81526001600160a01b0380851660048301528316602482015260448101829052606401610542565b6112d983835f6112e4565b6107e5838383610f58565b5f6112ef848461130d565b91909155505050565b5f80611304848461130d565b54949350505050565b5f7ff96e07b2f4fbb81c31567d2b261589af429e98f0958d53f7e6ad5d63aea0ab7c838360405160200161136a93929190928352606091821b6bffffffffffffffffffffffff199081166020850152911b16603482015260480190565b60405160208183030381529060405280519060200120905092915050565b5f60208284031215611398575f80fd5b5035919050565b6001600160a01b0381168114610554575f80fd5b5f602082840312156113c3575f80fd5b813561091f8161139f565b5f8083601f8401126113de575f80fd5b50813567ffffffffffffffff8111156113f5575f80fd5b60208301915083602082850101111561140c575f80fd5b9250929050565b5f805f60408486031215611425575f80fd5b833567ffffffffffffffff81111561143b575f80fd5b611447868287016113ce565b909450925050602084013561145b8161139f565b809150509250925092565b5f5b83811015611480578181015183820152602001611468565b50505f910152565b5f815180845261149f816020860160208601611466565b601f01601f19169290920160200192915050565b602081525f61091f6020830184611488565b5f805f606084860312156114d7575f80fd5b83356114e28161139f565b925060208401356114f28161139f565b929592945050506040919091013590565b5f8060408385031215611514575f80fd5b823561151f8161139f565b9150602083013560ff81168114611534575f80fd5b809150509250929050565b5f8060208385031215611550575f80fd5b823567ffffffffffffffff811115611566575f80fd5b611572858286016113ce565b90969095509350505050565b5f806020838503121561158f575f80fd5b823567ffffffffffffffff8111156115a5575f80fd5b8301601f810185136115b5575f80fd5b803567ffffffffffffffff8111156115cb575f80fd5b8560208260051b84010111156115df575f80fd5b6020919091019590945092505050565b5f602082016020835280845180835260408501915060408160051b8601019250602086015f5b8281101561164657603f19878603018452611631858351611488565b94506020938401939190910190600101611615565b50929695505050505050565b5f8060408385031215611663575f80fd5b823561166e8161139f565b915060208301356115348161139f565b6001600160a01b0392909216825260ff16602082015260400190565b60408152826040820152828460608301375f60608483018101919091526001600160a01b03929092166020820152601f909201601f191690910101919050565b5f602082840312156116ea575f80fd5b815161091f8161139f565b634e487b7160e01b5f52601160045260245ffd5b5f8261172357634e487b7160e01b5f52601260045260245ffd5b500490565b634e487b7160e01b5f52604160045260245ffd5b5f82601f83011261174b575f80fd5b813567ffffffffffffffff81111561176557611765611728565b604051601f8201601f19908116603f0116810167ffffffffffffffff8111828210171561179457611794611728565b6040528181528382016020018510156117ab575f80fd5b816020850160208301375f918101602001919091529392505050565b5f602082840312156117d7575f80fd5b813567ffffffffffffffff8111156117ed575f80fd5b610c938482850161173c565b5f60208284031215611809575f80fd5b5051919050565b634e487b7160e01b5f52603260045260245ffd5b5f808335601e19843603018112611839575f80fd5b83018035915067ffffffffffffffff821115611853575f80fd5b60200191503681900382131561140c575f80fd5b818382375f9101908152919050565b5f8060408385031215611887575f80fd5b823567ffffffffffffffff81111561189d575f80fd5b6118a98582860161173c565b92505060208301356115348161139f565b5f82516118cb818460208701611466565b9190910192915050565b5f602082840312156118e5575f80fd5b8151801515811461091f575f80fd5b818103818111156108aa576108aa6116f5565b808201808211156108aa576108aa6116f556fe201b7a0b7c19aaddc4ce9579b7df8d2db123805861bc7763627f13e04d8af42fa164736f6c634300081a000a","linkReferences":{}},"methodIdentifiers":{"acceptOperatorship(address)":"da4886df","addFlowIn(uint256)":"10d8d8e3","addFlowLimiter(address)":"120a63b5","addFlowOut(uint256)":"dce29136","approveService()":"27415838","burnToken(address,address,uint256)":"3416794d","contractId()":"8291286c","flowInAmount()":"7dbab19b","flowLimit()":"8b38b35d","flowOutAmount()":"2f3c7888","getTokenAddressFromParams(bytes)":"f5983e83","hasRole(address,uint8)":"95a8c58d","implementationType()":"4fdf7cb5","interchainTokenId()":"129d8188","interchainTokenService()":"09c6bed9","isFlowLimiter(address)":"deb11e78","isOperator(address)":"6d70f7ae","mintToken(address,address,uint256)":"6bec32da","multicall(bytes[])":"ac9650d8","params(bytes,address)":"1c53d265","proposeOperatorship(address)":"6f3eef62","removeFlowLimiter(address)":"e915cfd1","setFlowLimit(uint256)":"a56dbe63","setup(bytes)":"9ded06df","tokenAddress()":"9d76ea58","transferFlowLimiter(address,address)":"adc0dc3b","transferOperatorship(address)":"4a6a42d8"},"id":98}