{"abi":[{"type":"constructor","inputs":[{"name":"interchainTokenService_","type":"address","internalType":"address"},{"name":"implementationType_","type":"uint256","internalType":"uint256"},{"name":"tokenId","type":"bytes32","internalType":"bytes32"},{"name":"params","type":"bytes","internalType":"bytes"}],"stateMutability":"nonpayable"},{"type":"fallback","stateMutability":"payable"},{"type":"receive","stateMutability":"payable"},{"type":"function","name":"getImplementationTypeAndTokenAddress","inputs":[],"outputs":[{"name":"implementationType_","type":"uint256","internalType":"uint256"},{"name":"tokenAddress_","type":"address","internalType":"address"}],"stateMutability":"view"},{"type":"function","name":"implementation","inputs":[],"outputs":[{"name":"implementation_","type":"address","internalType":"address"}],"stateMutability":"view"},{"type":"function","name":"implementationType","inputs":[],"outputs":[{"name":"","type":"uint256","internalType":"uint256"}],"stateMutability":"view"},{"type":"function","name":"interchainTokenId","inputs":[],"outputs":[{"name":"","type":"bytes32","internalType":"bytes32"}],"stateMutability":"view"},{"type":"function","name":"interchainTokenService","inputs":[],"outputs":[{"name":"","type":"address","internalType":"address"}],"stateMutability":"view"},{"type":"function","name":"setup","inputs":[{"name":"params","type":"bytes","internalType":"bytes"}],"outputs":[],"stateMutability":"nonpayable"},{"type":"function","name":"tokenAddress","inputs":[],"outputs":[{"name":"","type":"address","internalType":"address"}],"stateMutability":"view"},{"type":"error","name":"AlreadyInitialized","inputs":[]},{"type":"error","name":"InvalidImplementation","inputs":[]},{"type":"error","name":"InvalidOwner","inputs":[]},{"type":"error","name":"NotOwner","inputs":[]},{"type":"error","name":"SetupFailed","inputs":[]},{"type":"error","name":"ZeroAddress","inputs":[]}],"bytecode":{"object":"0x610100604052348015610010575f80fd5b506040516107c33803806107c383398101604081905261002f916102a6565b6001600160a01b0384166100565760405163d92e233d60e01b815260040160405180910390fd5b6001600160a01b03841660805260a083905260c08290525f61007885856101e5565b90506001600160a01b0381166100a15760405163340aafcd60e11b815260040160405180910390fd5b5f816001600160a01b0316639ded06df60e01b846040516024016100c59190610378565b60408051601f198184030181529181526020820180516001600160e01b03166001600160e01b031990941693909317909252905161010391906103aa565b5f60405180830381855af49150503d805f811461013b576040519150601f19603f3d011682016040523d82523d5f602084013e610140565b606091505b5050905080610162576040516397905dfb60e01b815260040160405180910390fd5b60405163f5983e8360e01b81526001600160a01b0383169063f5983e839061018e908690600401610378565b602060405180830381865afa1580156101a9573d5f803e3d5ffd5b505050506040513d601f19601f820116820180604052508101906101cd91906103c5565b6001600160a01b031660e052506103de945050505050565b604051633f0a8fd360e11b8152600481018290525f906001600160a01b03841690637e151fa690602401602060405180830381865afa15801561022a573d5f803e3d5ffd5b505050506040513d601f19601f8201168201806040525081019061024e91906103c5565b9392505050565b80516001600160a01b038116811461026b575f80fd5b919050565b634e487b7160e01b5f52604160045260245ffd5b5f5b8381101561029e578181015183820152602001610286565b50505f910152565b5f805f80608085870312156102b9575f80fd5b6102c285610255565b60208601516040870151606088015192965090945092506001600160401b038111156102ec575f80fd5b8501601f810187136102fc575f80fd5b80516001600160401b0381111561031557610315610270565b604051601f8201601f19908116603f011681016001600160401b038111828210171561034357610343610270565b60405281815282820160200189101561035a575f80fd5b61036b826020830160208601610284565b9598949750929550505050565b602081525f8251806020840152610396816040850160208701610284565b601f01601f19169190910160400192915050565b5f82516103bb818460208701610284565b9190910192915050565b5f602082840312156103d5575f80fd5b61024e82610255565b60805160a05160c05160e05161039761042c5f395f818161018e015261020b01525f61010601525f8181610147015281816101e0015261025d01525f818160b6015261023c01526103975ff3fe608060405260043610610073575f3560e01c80635c60da1b1161004d5780635c60da1b146101695780639d76ea581461017d5780639ded06df146101b0578063d4ae3c42146101ce5761007a565b806309c6bed9146100a5578063129d8188146100f55780634fdf7cb5146101365761007a565b3661007a57005b5f610083610236565b9050365f80375f80365f845af43d5f803e80801561009f573d5ff35b3d5ffd5b005b3480156100b0575f80fd5b506100d87f000000000000000000000000000000000000000000000000000000000000000081565b6040516001600160a01b0390911681526020015b60405180910390f35b348015610100575f80fd5b506101287f000000000000000000000000000000000000000000000000000000000000000081565b6040519081526020016100ec565b348015610141575f80fd5b506101287f000000000000000000000000000000000000000000000000000000000000000081565b348015610174575f80fd5b506100d8610236565b348015610188575f80fd5b506100d87f000000000000000000000000000000000000000000000000000000000000000081565b3480156101bb575f80fd5b506100a36101ca3660046102f6565b5050565b3480156101d9575f80fd5b50604080517f000000000000000000000000000000000000000000000000000000000000000081526001600160a01b037f0000000000000000000000000000000000000000000000000000000000000000166020820152016100ec565b5f6102817f00000000000000000000000000000000000000000000000000000000000000007f0000000000000000000000000000000000000000000000000000000000000000610286565b905090565b604051633f0a8fd360e11b8152600481018290525f906001600160a01b03841690637e151fa690602401602060405180830381865afa1580156102cb573d5f803e3d5ffd5b505050506040513d601f19601f820116820180604052508101906102ef9190610364565b9392505050565b5f8060208385031215610307575f80fd5b823567ffffffffffffffff81111561031d575f80fd5b8301601f8101851361032d575f80fd5b803567ffffffffffffffff811115610343575f80fd5b856020828401011115610354575f80fd5b6020919091019590945092505050565b5f60208284031215610374575f80fd5b81516001600160a01b03811681146102ef575f80fdfea164736f6c634300081a000a","linkReferences":{}},"methodIdentifiers":{"getImplementationTypeAndTokenAddress()":"d4ae3c42","implementation()":"5c60da1b","implementationType()":"4fdf7cb5","interchainTokenId()":"129d8188","interchainTokenService()":"09c6bed9","setup(bytes)":"9ded06df","tokenAddress()":"9d76ea58"},"id":96}